:100000000C94DD030C9415040C9415040C94150445
:100010000C9415040C9415040C9415040C941504FC
:100020000C9415040C9415040C94FE270C94BA2718
:100030000C94FB280C9415040C9415040C941504D2
:100040000C9415040C9415040C9415040C941504CC
:100050000C9415040C94D7280C9415040C941504D6
:100060000C9415040C9415040C9415040C941504AC
:100070000C9415040C9415040C9415040C9415049C
:100080000C9415040C9415040C9415040C9415048C
:100090000C9415040C9415040C9415040C9415047C
:1000A0000C9415040C9415040C9415040501090214
:1000B000A10185020901A1000509190129081500FE
:1000C0002501950875018102050109300931158165
:1000D000257F95027508810609381581257F9501D0
:1000E00075088106050C0A38021581257F95017572
:1000F000088106C0C005010980A101850319012AF4
:10010000B700150126B700950175108100C0050CD8
:100110000901A101850419012AA002150126A002E6
:10012000950175108100C005010906A1018506052C
:100130000719E029E71500250195087501810205D9
:1001400007190029EF1500250195F07501810205B9
:10015000081901290595057501910295017503910D
:1001600001C00660FF0961A1010962150026FF00B8
:100170009520750881020963150026FF00952075FA
:10018000089102C005010906A101050719E029E748
:1001900015002501950875018102950175088101F9
:1001A0000507190029FF150026FF0095067508812F
:1001B000000508190129059505750191029501753C
:1001C000039101C0000000000000000000000000DA
:1001D000000000000000000000000000000000001F
:1001E00000000000000000007E0F00D4FFFFFFC7EA
:1001F0000000007800000000000000002A2B28000A
:1002000000000000000000000000000000000029C5
:10021000000000002C1E3420212224342627252E05
:10022000362D3738271E1F2021222324252633333D
:10023000362E37381F0405060708090A0B0C0D0E69
:100240000F101112131415161718191A1B1C1D2F35
:100250003130232D350405060708090A0B0C0D0E55
:100260000F101112131415161718191A1B1C1D2F15
:100270003130354C1E0F0500047F3F1F643214647B
:100280003214783C1E1E140A05000101010101010F
:10029000010101020202020202020202030303033D
:1002A000030303030404040404040405050505050D
:1002B00006060606060707070707080808080909CB
:1002C00009090A0A0A0B0B0B0C0C0C0D0D0D0E0E76
:1002D0000E0F0F0F10101111111212131314141509
:1002E0001516161717181819191A1A1B1B1C1D1D7D
:1002F0001E1E1F20202122222324242526262728D3
:1003000029292A2B2C2D2D2E2F3031323233343502
:10031000363738393A3B3C3D3E3F40414243444505
:10032000464748494A4C4D4E4F50515354555658E4
:10033000595A5B5D5E5F616264656668696B6C6D8E
:100340006F7072737577787A7B7D7E808283858704
:10035000888A8C8E8F91939596989A9C9EA0A2A342
:10036000A5A7A9ABADAFB1B3B5B7BABCBEC0C2C447
:10037000C6C9CBCDCFD1D4D6D8DBDDDFE2E4E7E907
:10038000EBEEF0F3F5F8FAFDFFFFAA7F55402223CC
:10039000252628292A2C2D2F3032333536383A3B62
:1003A0003D3E4042434547494A4C4E5051535557B4
:1003B000595A5C5E6062646668696B6D6F717375D3
:1003C00077797B7D7F81838587898A8C8E909294D3
:1003D00096989A9C9E9FA1A3A5A7A8AAACAEAFB1E0
:1003E000B3B4B6B8B9BBBCBEBFC1C2C3C5C6C7C92A
:1003F000CACBCCCDCED0D1D2D2D3D4D5D6D7D7D8E4
:10040000D9D9DADADBDBDBDCDCDCDCDCDDDDDDDD35
:10041000DCDCDCDCDCDBDBDBDADAD9D9D8D7D7D63D
:10042000D5D4D3D2D2D1D0CECDCCCBCAC9C7C6C5F4
:10043000C3C2C1BFBEBCBBB9B8B6B4B3B1AFAEAC3A
:10044000AAA8A7A5A3A19F9E9C9A98969492908EE5
:100450008C8A89878583817F7D7B79777573716FBE
:100460006D6B6968666462605E5C5A59575553519A
:10047000504E4C4A4947454342403E3D3B3A383650
:10048000353332302F2D2C2A292826252322167C7D
:100490001E001F0020002100220023002400250050
:1004A000260027002D002E002A004A00A8002B005D
:1004B00014001A000800150017001C0018000C009A
:1004C000120013002F00300031004D004C00005787
:1004D00004001600070009000A000B000D000E00C2
:1004E0000F00330034002800000000000000E1008D
:1004F00000001D001B00060019000500110010007F
:10050000360037003800E500015752000000E000D7
:10051000E300E2000000000000002C0000000000EA
:100520000000E6000257E400500051004F00350083
:100530003A003B003C003D003E003F0040004100CF
:1005400042004300440045004C0001004900010006
:100550004A0052004D004B00010001000100010063
:10056000010001000100010001000100460001003E
:10057000500051004F004E00010001000100010039
:10058000010001000100280100000000000001003E
:10059000000001000100B20001000100110A29035E
:1005A0000100010001000100010001000000010044
:1005B000010001000000000000004C0000000000ED
:1005C000000001000100652101000100010035006B
:1005D0000100010001000100010001005F00600056
:1005E00061000100560057004C020100A600010006
:1005F0004A0052004D004B00010001005C005D000C
:100600005E000100550054000100010001000100DE
:10061000500051004F004E000100010059005A00E7
:100620005B00010001002801000000000000010043
:10063000000001000100B2000100010001006200A1
:10064000620063005300010001000100000001008E
:100650000B7001000000000000000100000000001D
:1006600000000100010001000100010001002078EC
:100670002B78010001001370AA00A900AE00A800A9
:10068000010001000100010001000100007C0100E7
:100690000100010001000100010001000100010052
:1006A0000100010001000100010001000100010042
:1006B0000100010001000100010001000100010032
:1006C0000100010001000100000000000000010025
:1006D0000000010001000100010001000100100301
:1006E0000100010001000100010001000000010003
:1006F00001000100000000000000010000000000F7
:100700000000010000520100010001000100090287
:100710005B00030100A0FA090400000103010100CD
:100720000921110100012240000705810308000191
:100730000904010002030000000921110100012247
:1007400022000705820320000107050303200001A2
:100750000904020001030000000921110100012227
:10076000B60007058403200001120100020000000A
:10077000086B7011000100010200011C0369006B8D
:10078000006B0069003600380020004100750072DF
:10079000006F007200610000001A0377007500719D
:1007A0000075006500200073007400750064006926
:1007B000006F000000040309040011241FBECFEFE6
:1007C000DAE0DEBFCDBF04B603FE18C080910B0493
:1007D00090910C04A0910D04B0910E048730904BC1
:1007E000A740B04B59F410920B0410920C041092D5
:1007F0000D0410920E04E0E0F8E3099524E0AAE06D
:10080000B2E001C01D92AB30B207E1F712E0A0E008
:10081000B1E0E0E8F2E602C005900D92AA30B1071F
:10082000D9F70E9422290C94D7300C940000E8EDEF
:10083000F0E080818E7F80831092E2001092DA00D7
:100840001092E100A0EEB0E08C9181608C938081E9
:100850008F77808319BCA7EDB0E08C918E7F8C934D
:1008600080818F7E80831092D40308952091E400CC
:100870003091E50095E6A9012091EC00822F81706E
:1008800020FF06C08091E80080FF06C080E0089548
:100890002091E80022FD1AC08091F903882389F095
:1008A000853089F08091EB0085FD0FC02091E40038
:1008B0003091E50042175307F9F29150E1F684E0D8
:1008C000089582E0089583E0089581E0089580917D
:1008D000FB0387FF13C08091E80082FF06C0809170
:1008E000E8008B778093E80004C08091F9038111C0
:1008F000F2CF08958091F9038823D9F38091E8001D
:1009000080FFF8CF8091E8008E77ECCF982F9093FE
:10091000E900242F762F50E0891731F07091EC0018
:100920002091ED005091F00021FD07C09F5F9730AE
:1009300071F78093E90081E008953091EB003E7FEC
:100940003093EB003091ED003D7F3093ED0030911E
:10095000EB0031603093EB007093EC002093ED00DE
:100960005093F0002091EE0027FDE0CF80E0089545
:10097000B0E0A0E0EEEBF4E00C94672FC8EDD0E01F
:1009800088818F7E8883E7EDF0E0808181608083BD
:1009900084E082BF81E08093D40388818E7F888346
:1009A00002EE10E0F80110821092DA0081EEC82EFB
:1009B000D12CF601108288818F77888388818068A6
:1009C000888388818F7D888319BC1092F9031092E7
:1009D000FA031092F8031092F70390EEE92EF12C2F
:1009E000F70180818B7F808388818160888342E0EA
:1009F00060E080E00E948604F60180818E7F808323
:100A0000F801808181608083808188608083F70124
:100A100080818E7F8083888180618883CDB7DEB7B7
:100A2000E8E00C94832FFC01809101049091020472
:100A300086179707A0F06115710529F49091E800D9
:100A40009E779093E80090E06115710551F4911143
:100A500008C08091E80082FF34C080E00895BC01A6
:100A6000F2CF8091F9038823C1F18530C1F18091E3
:100A7000E80083FD30C08091E80082FDEACF8091DC
:100A8000E80080FFE1CF8091F3002091F200382F41
:100A90006115710519F02830310558F091E02830C2
:100AA000310509F090E02091E8002E772093E800CE
:100AB000CBCF81918093F100615071092F5F3F4F3F
:100AC000E7CF8091F903882341F0853041F0809190
:100AD000E80083FFBECF81E0089582E0089583E0BF
:100AE00008958091D60308959C014FB7F8948091A2
:100AF000D0039091D103A091D203B091D3034FBF03
:100B0000821B930B08952FB7F8946091D0037091D6
:100B1000D1038091D2039091D3032FBF08952FB7B3
:100B2000F8948091D0039091D103A091D203B09119
:100B3000D3032FBF0895A3E0B0E0E1EAF5E00C9401
:100B40006D2F2091CD033091CE0328173907A1F0E6
:100B50009093CE038093CD03E091CB03F091CC032F
:100B6000309751F024E029839B838A830680F781A4
:100B7000E02DCE01019609952396E2E00C94892F91
:100B8000A3E0B0E0E6ECF5E00C946D2F2091C903F2
:100B90003091CA0328173907A1F09093CA038093B4
:100BA000C903E091CB03F091CC03309751F023E0DF
:100BB00029839B838A830680F781E02DCE010196ED
:100BC00009952396E2E00C94892FE091CB03F091F4
:100BD000CC03309729F00190F081E02D099508951C
:100BE00080E00895CF93DF93EC014091BA035091D8
:100BF000BB036091BC037091BD032FB7F894809143
:100C0000D0039091D103A091D203B091D3032FBF11
:100C1000841B950BA60BB70B843F9140A105B10532
:100C200018F58091BA039091BB03A091BC03B091D9
:100C3000BD038093B6039093B703A093B803B0931A
:100C4000B90384EF91E0A0E0B0E08093B203909309
:100C5000B303A093B403B093B503D093C203C0937E
:100C6000C103DF91CF9108950E9483056093B6037D
:100C70007093B7038093B8039093B90382E390E035
:100C8000A0E0B0E0E2CFFC018481862351F49281A0
:100C90009923B9F06923808583FF05C081E0611144
:100CA0000FC080E00895892F8F7092959F70982BC8
:100CB000862F8F7062956F70682B81E09613F1CF4D
:100CC000089581E0FDCFFA01811101C0FB01099572
:100CD000089508958091AD03982F9E7F61F48170EF
:100CE00082608093AD038091B003893C18F088EC5A
:100CF0008093B00308958635B0F381708465F1CF99
:100D0000AF92BF92DF92EF92FF920F931F93CF9318
:100D1000DF93182F062FE901493C08F048ECE42F37
:100D2000F0E0E757FD4F011110C0E4915E2F4E2F08
:100D30004983E8835A83DF91CF911F910F91FF90F0
:100D4000EF90DF90BF90AF900895202F30E0449156
:100D5000D42EE42EF12C56E0159FC0011124EFEFA4
:100D6000F0E0BF010E94192F812F90E0880F991F9A
:100D700055E5569FD001579FB00D11248A1B9B0B40
:100D8000982F990F890F5F01A21AB30AAE9CD00168
:100D9000AF9CB00DBE9CB00D11245B2F089F80014D
:100DA0001124012F11275F01A01AB10AAE9C800106
:100DB000AF9C100DBE9C100D11245F01A81AB10844
:100DC000A29EC001A39E900DB29E900D1124892F6A
:100DD0009927E81BF90BEE9DC001EF9D900DFE9D3C
:100DE000900D1124E92F62307105A1F050F46115C6
:100DF000710509F49DCF6130710581F0EB2F512F02
:100E000097CF6430710569F080F06630710509F4A0
:100E10008FCFF4CFE42F4B2F592F8ACFE42F412FC0
:100E200087CFEB2F542F492F83CF4B2F5D2DE12FF1
:100E30007FCF0E948F059C019091FE028091FF025E
:100E4000982B21F03093FB022093FA02909100033B
:100E500080910103982B21F03093F9022093F8023E
:100E6000E091CB03F091CC03309749F082E080937E
:100E7000FC020480F581E02D8CEF92E00995089545
:100E80008091F70280FD16C081FD16C082FD16C05C
:100E90008091F6028823A1F0883280F428E0829FB6
:100EA000C001112468E270E00E942D2F862F672B6D
:100EB00039F0089582E0089584E0089588E0089567
:100EC00081E008958091F70280FD14C081FD14C077
:100ED00082FD16C08091F502882381F08E3180F466
:100EE00020E5829FC00111246EE170E00E942D2F49
:100EF000862F089584E1089588E2089588E0089592
:100F000080E5089580E00895F894E82FE295EF7069
:100F1000F0E031A1282F2F7081E090E001C0880F10
:100F20002A95EAF7982F9095932391A392A1892B64
:100F300082A3789408959091090492FF06C0282F07
:100F400028712830F9F4877F846093FF06C0282F2A
:100F500028712831F1F4877E846120910A0420FFF2
:100F600006C0382F38713830D9F4877F816021FF6F
:100F700006C0282F28712831D1F4877E816194FD25
:100F8000877E0895282F24712430F9F68B7F88609E
:100F9000DCCF282F2471243101F78B7E8861DDCFCF
:100FA000382F3171313019F78E7F8860E0CF282FCC
:100FB0002171213121F78E7E8861E1CF8238910540
:100FC000B9F1B0F48133910509F47DC048F4893258
:100FD000910509F46DC08A32910509F47BC008952A
:100FE0008533910509F45FC08933910509F10895AE
:100FF000833E9105D9F138F4803E910529F1823E76
:10100000910579F10895863E9105D9F1873E9105C4
:1010100009F43EC0843E910541F520910A0421FF68
:1010200024C08091090484FD19C087EE90E00895E2
:1010300020910904237009F05AC020910A0423FF6B
:1010400014C089E290E008952091090420FD38C081
:1010500030910A0430FF09C024FF43C090E080E0D3
:1010600008952091090422FDF7CF089520910904E5
:1010700022FD3AC030910A0430FD39C024FFF5CF7B
:10108000EDCF2091090423FFF0CF24FDE7CFCDCF92
:101090002091090423FD2EC030910A0431FFEECFC8
:1010A00084EE90E008952091090425FFDECFC9CF9A
:1010B0002091090425FD21C020910A0423FFD5CFEA
:1010C00089E390E0D2CF2091090426FFCECF8AE2B7
:1010D00090E008952091090426FFC7CF81E390E0B6
:1010E000089583EE90E0089582EE90E0089580EEFA
:1010F00090E0089586EE90E0089585E390E00895ED
:101100001F93CF93DF930E94DE07EC01C11580E5AA
:10111000D807F0F5C11580E4D80708F09CC0C03EA0
:10112000D10520F5CD3CD10508F082C0C83AD105E3
:1011300078F4C53AD10508F073C0C130D10519F172
:10114000209709F1C430D105F0F4D0E0C0E01BC015
:10115000C33CD105D0F7C85AD0E0CC0FDD1FCC5727
:10116000DE4F0990D881C02DD4640DC0C11580E236
:10117000D80708F0D1C0C11581E0D80708F05AC0DF
:10118000C83ED10510F7CE01DF91CF911F91089590
:10119000C03682E5D80718F5C03482E5D80708F0D4
:1011A0006BC0C03282E5D80708F05FC0C11582E588
:1011B000D80708F497C02C2F2695269580E2289F03
:1011C000900111248C2F8370C1E0D0E002C0CC0FBD
:1011D000DD1F8A95E2F7C22BD32BDD68D4CFC03A4E
:1011E00082E5D80760F4C03882E5D80708F459C012
:1011F000CF71D0E0DC2FCC27C46FD06AC4CFC03C05
:1012000082E5D80708F462C0C03E82E5D80708F03E
:101210009CCFDC2FCC27CC27DF71C06FD06AB3CF37
:10122000C55AD0E0CF57DE4FC881D0E0D064ABCFF5
:10123000D065A9CF8D2F0E949B07182FCE0199272B
:101240000E94DE07C12FD0E0DC2FCC27CC27DF7136
:10125000C82BD92B98CFCE0199270E94DE07CC2727
:10126000DF70C82BD92BD06A8ECFCF71D0E0DC2FA6
:10127000CC27C16FD06A87CF2C2F26952695277053
:1012800080E2289F900111248C2F8370C1E0D0E070
:1012900002C0CC0FDD1F8A95E2F7C22BD32BDC688E
:1012A00072CF2C2F26952695277080E2289F9001DB
:1012B00011248C2F8370C1E0D0E002C0CC0FDD1F61
:1012C0008A95E2F7C22BD32BDA685DCF8C2F8F7112
:1012D0000E949B07C82FD0E0DC2FCC27CC27DF71E2
:1012E000D06251CF8C2F8F710E949B0755E0D6950D
:1012F000C7955A95E1F7CF70D0E0DC2FCC27282F87
:1013000030E084FF05C044E0220F331F4A95E1F727
:10131000C22BD32BD06937CF8D2F8F710E949B07A3
:10132000182FCE0199270E94DE07C12FD0E0DC2FB5
:10133000CC27CC27DF71C82BD92BD2CF8091C80204
:10134000882331F01092C8021092C7021092C60290
:10135000089580959091C60398239093C6030895AD
:10136000909153019923D1F09091090497FF16C0F1
:10137000E82FE695E695E695EE31E0F4F0E0E45FDF
:10138000FD4F282F277081E090E001C0880F2A953B
:10139000EAF780959281892382830895EEE0F2E056
:1013A0009191891303C0DF0111971C9292E0E431FF
:1013B000F907B1F70895909153019923C1F09091E5
:1013C000090497FF14C0E82FE695E695E695EE31FF
:1013D000F8F4F0E0E45FFD4F877021E030E001C0F9
:1013E000220F8A95EAF78281822B82830895AEE0EC
:1013F000B2E0EFEF90E02D91821751F0EF3F19F43A
:10140000211101C0E92F9F5F9630A9F7EF3F09F442
:1014100008950E2E000CFF0BE45FFD4FE6CF2091E8
:10142000A5029091740256E0291302C080E008954D
:1014300030E0529FF001539FF00D1124EB58FD4F07
:101440007181761306C07081781303C072817413A2
:1014500004C02F5F3F4F2770E7CF81E00895809150
:10146000A50290917402981301C008958F5F877050
:10147000FACF953080F5803170F540E1949F90016E
:101480001124820F932F911D682F677023E096958A
:1014900087952A95E1F7FC01EE0FFF1FE80FF91F72
:1014A000E05BFD4F50E040E080E0219130E0062E0F
:1014B00002C0369527950A94E2F721703327042E4F
:1014C00001C0220F0A94EAF7822B4F5F5F4F43302F
:1014D000510559F7089580E00895953098F58031C9
:1014E00088F540E1949F90011124820F932F911D64
:1014F000282F277041E001C0440F2A95EAF723E026
:10150000969587952A95E1F7FC01EE0FFF1FE80FEE
:10151000F91FE05BFD4F90E080E070E05191DF014A
:1015200011979B01082E02C0369527950A94E2F781
:10153000217021952527242325272C93019683307C
:10154000910561F708958093C9020895662309F40F
:101550005DC08D3C41F40E94620781958093FF023B
:101560000E94190708958E3C19F40E946207F6CF75
:101570008F3C31F40E94620781958093FE02F0CF88
:10158000803D19F40E946207F8CF893D29F40E943A
:10159000400780930003E4CF8A3D21F40E94400776
:1015A0008195F7CF8B3D31F40E9440078195809360
:1015B0000103D6CF8C3D19F40E944007F8CF9FE27B
:1015C000980F983070F4815D990B21E030E001C0F4
:1015D000220F8A95EAF78091FD02822B8093FD020B
:1015E000BFCF8D3D31F48091F70281608093F70287
:1015F000B7CF8E3D21F48091F7028260F7CF8F3D07
:1016000009F0AECF8091F7028460F0CF4091FE02E6
:101610008D3C59F48091FF0287FF0DC01092FF02AC
:1016200041110BC01092F50208C08E3C81F48091EC
:10163000FF0218169CF3442381F0809100039091DF
:101640000103892B09F08CCF1092F60289CF8F3CD1
:1016500049F447FFF0CF1092FE028091FF02811102
:10166000ECCFE0CF803D19F41416ACF3E4CF9091A9
:101670000003893D29F41916F4F610920003DBCF1C
:101680008A3D19F497FFD7CFF8CF909101038B3D96
:1016900029F497FFD0CF10920103CDCF8C3D19F4E0
:1016A0001916CCF3C8CF9FE2980F983090F4815D63
:1016B000990B21E030E0B90102C0660F771F8A95CF
:1016C000E2F7CB0180959091FD0289238093FD0282
:1016D000B2CF8D3D31F48091F7028E7F8093F70277
:1016E000AACF8E3D21F48091F7028D7FF7CF8F3DF9
:1016F00009F0A1CF8091F7028B7FF0CF982F9295C0
:101700009F7011F0892F94E0282F2695269511F0CF
:101710009E5F822F869509F09F5F892F08959C0117
:101720003A9521153F4150F5FC01EE27F170BC01BF
:1017300066277270AC01442754709C0122273870D0
:1017400094FF0EC080E1EF2B09F480E0672B09F0D5
:101750008062452B09F08064232B89F0806808950E
:1017600081E0EF2B09F480E0672B09F08260452BC4
:1017700009F08460232B19F08860089580E00895B3
:10178000FC019281913029F4858180FF06C083E0BD
:101790000895923021F081E0089582E0089584E078
:1017A00008950F931F93CF93DF938B01EA019091DC
:1017B000F903943061F58093E9008FEF9091E80090
:1017C000815095FD06C095ED9A95F1F700008111C5
:1017D000F5CF8091E80085FF1AC00E943604811180
:1017E00011C08091E80085FD06C08091E8008E77E9
:1017F0008093E800F2CFF80181918F018093F1008E
:10180000219779F78091E8008E778093E800DF9147
:10181000CF911F910F91089543E050E0BC0184E007
:101820000E94D10B089546E050E0BC0184E00E9484
:10183000D10B0895CF93DF93EC0180915301811177
:1018400011C048E050E0BE0181E00E94D10B80E26F
:10185000FE01A7EDB3E001900D928A95E1F7DF91CB
:10186000CF9108958091090487FF05C040E284E08C
:1018700050E0BE01EACF48E081E0FACF81E08093FA
:10188000E00080E28093D8001092C9008FE19EE4CE
:101890000197F1F700C0000087E090EBDC01809336
:1018A0000B0490930C04A0930D04B0930E0488E1F4
:1018B0009CE00FB6F894A895809360000FBE9093BB
:1018C0006000FFCF8091AD0380FD0AC0EDE0F3E042
:1018D000118210821282339653E0E934F507C1F782
:1018E0006A9A3EB13B7F2EB124604FB7F8948DE0E9
:1018F00093E0FC015191CF0168E02EB9000000C0D7
:1019000057FF3EB9550F000000C000C000C03EB9EF
:1019100000C06A9591F7F3E089349F0751F74FBFF4
:101920008FE594E00197F1F700C000000895EF9271
:10193000FF920F931F93CF93DF938C01CDE0D3E001
:10194000F12CE12CF80194816091AF038091AE03FA
:10195000FAE0EF16F104ECF49923E9F09E014091CE
:10196000B0030E9480062FEFE21AF20A239684E168
:10197000E816F10439F70E94620CF801848190E0C6
:101980000196817099278483CDB7DEB7E6E00C9489
:10199000852F992319F39E0140E0E3CFB0E0A0E04A
:1019A000E4EDFCE00C94632FEC014C81042F10E07B
:1019B0009801D8010E94C8309B01AC010E9493306D
:1019C0004B015C01E0E2F0E0E01BF10BA5E5B0E0CB
:1019D000AC019B010E9493306B017C019F01DF01F0
:1019E0000E944E2F9B01AC010E949E309B01AC01D6
:1019F000280D391D4A1D5B1DC701B6010E94A63086
:101A0000F22E822F90E039E23F1598F143E0249FB7
:101A10009001112435952795122F10959DE0C92E20
:101A200093E0D92E00E085E5E82EEF188E2D01FD1C
:101A30008F2D9601412F6091AF030E9480060F5FAA
:101A400053E0C50ED11C043189F70E94620C9C81C1
:101A500081E0992319F0903219F48FEF80935201AD
:101A600080915201890F8C83CDB7DEB7ECE00C94E6
:101A70007F2F25E530E0A901481B590BCA019A01C7
:101A8000220F331F280F391F37FFC4CF2F5F3F4F5F
:101A9000C1CF0F931F93CF93DF93CDE0D3E0FE012F
:101AA000118210821282339683E0E934F807C1F77D
:101AB00010E000E080910B03082E000C990B081732
:101AC00019078CF180915101082E000C990B801799
:101AD00091074CF19E014091B0036091AF0380915A
:101AE000AE030E9480060F5F1F4F2396043111053D
:101AF00009F70E94620C8091500190910B03980F9E
:101B000090930B0320915101280F2093510112163D
:101B100014F493311CF0819580935001DF91CF91A3
:101B20001F910F910895198218821A82DCCFB0E0BC
:101B3000A0E0EDE9FDE00C94662FFC018281DD243C
:101B4000DA9480FD02C0DD24D3940DE013E0D0E0F0
:101B5000C0E024E1B22EF80111821082128294E0DA
:101B6000E92EF12CC12C80910A038C0D8531C4F132
:101B70006B2D0E940B2F892F082E000C990B8C17B0
:101B80009D0791F48091B0038E9DA0018F9D500D13
:101B90001124559547955595479598016091AF0348
:101BA0008091AE030E948006CD0CF1E0EF1AF1089F
:101BB000D1F621960D5F1F4FC431D10561F60E9409
:101BC000620C80910A0391E0D91210C081110CC0FF
:101BD00083E180930A03CDB7DEB7E9E00C94822F4E
:101BE00087FFCACF8C5EC8CF8150F3CF90E00196BB
:101BF000BE010E942D2FEDCFEF92FF921F93CF9346
:101C0000DF93EC018DE0E82E83E0F82E10E08C816C
:101C100097014091B0036091AF03810F0E9480064D
:101C2000145F83E0E80EF11C103F89F70E94620CFC
:101C30009A818C8190FF08C08F5F8C83DF91CF9158
:101C40001F91FF90EF9008958150F7CF9091AD03D1
:101C500090FF0CC0EDE0F3E0818360834283339614
:101C600093E0E934F907C1F70E94620C0895A3E0FC
:101C7000B0E0EDE3FEE00C946B2F8C0180910C033F
:101C800081110AC09E012F5F3F4F48EC6FEF0E9409
:101C900080068A8180930C03F8016481613069F0C9
:101CA00080910C0340E0662361F040E0623011F463
:101CB00040910C0380E060E004C060910C0340E0C0
:101CC00080E00E94260EF801848190E0019663E096
:101CD00070E00E942D2F84832396E4E00C94872FDC
:101CE000A3E0B0E0E6E7FEE00C946D2F9091AD0329
:101CF00090FF0AC09E012F5F3F4F0E9480064B81DC
:101D000069818A810E94260E2396E2E00C94892F35
:101D1000CF93DF93EC01EDEAF3E0438162818C81A4
:101D20000E94700E8C818F5F8C83DF91CF9108951C
:101D3000CF93DF93EC01EC81F0E0E257FC4F44914C
:101D4000EDEAF3E0628181810E94700E8C818F5FE9
:101D50008C83DF91CF910895CF93C82F4AE468E236
:101D600081FD02C040E060E080E00E94260EC1FDDF
:101D700004C08F9A81E0CF9108958F98FBCFCF93C5
:101D8000C82F0E947E0B823061F0833071F0813069
:101D900081F441E16CEC8AEA0E94260E8C2FCF91EF
:101DA000089540E069E98FEFF7CF47E760E08EEEF6
:101DB000F3CF40E060E080E0EFCF0E94BF0E809361
:101DC000D90208959091D90221E030E0F90101C0D3
:101DD000EE0F8A95EAF7D90102C0AA0FBB1F6A95D8
:101DE000E2F7EA2B01C0220F4A95EAF7892F8E23EA
:101DF000E81305C0292B822F0E94DD0E089520953F
:101E00002923F9CF21E030E001C0220F8A95EAF7BB
:101E100020958091D90282230E94DD0E0895909131
:101E200008048095892380930804282F2770B1F433
:101E3000282F082E000C330B9217130679F090917F
:101E40000A0492FF0BC08595859585950E94020F27
:101E500010920804109207041092060408958091CD
:101E60001101833011F40E94020F089580910F0137
:101E7000833019F482E00E94020F089580910D01D1
:101E8000833019F481E00E94020F10920D01089531
:101E900021E030E001C0220F8A95EAF78091D90253
:101EA000822B0E94DD0E089590910A0492FF10C0CB
:101EB00098E0899F900111242360209308040E94D8
:101EC000480F0E948F05909307048093060408959D
:101ED0000E94480F08950E94C00B80931101833027
:101EE000A9F0843049F08230A1F483E00E94540FBD
:101EF00081E00E940F0F08958091D902882331F06C
:101F000083FF04C083E00E94020F089583E00E94D3
:101F1000480F08950E94C00B80930F018330A1F0F9
:101F2000843041F0823099F40E94540F81E00E9485
:101F30000F0F08958091D902882331F082FF04C0E9
:101F400082E00E94020F089582E00E94480F0895E7
:101F5000CF93DF93C6EAD2E060E0CE010E9440302A
:101F60002196C11584E0D807B9F7DF91CF91089584
:101F70001F93CF93DF93122F8430E0F46530D0F4B9
:101F80004031C0F490E2699FE001112450E0440F19
:101F9000551FC40FD51F90EA899FC00DD11D112474
:101FA000632FCE0186960E944030612FCE01879626
:101FB0000E944030DF91CF911F910895AF92BF9260
:101FC000CF92DF92EF92FF921F93CF93DF938EE831
:101FD000C82E84E0D82ED0E07601C0E014C0F50110
:101FE00025913491412F6C2F8D2F0E94B80F82E0E4
:101FF000A80EB11C1F5F103191F780E2E80EF11CB2
:10200000CF5FC53019F0570110E0E9CFDF5F80EAFC
:10201000C80ED11CD43001F7DF91CF911F91FF90F2
:10202000EF90DF90CF90BF90AF900895CF93C82FDF
:102030006FEF811163E282E290E00E9440306FEF27
:10204000C11163E083E290E00E9440306FEFC11164
:1020500069E184E290E00E944030CF91089580E0F1
:102060000E94161060E085E290E00E9440300E94DD
:10207000DE0F0E94A80F81E00E94161008950F93B2
:102080001F93CF93DF93843030F5653020F54031D6
:1020900010F520E2629F8001112450E0440F551F8B
:1020A000040F151F30EA839F000D111D1124C80174
:1020B00086960E942C30C82FD0E0DC2FCC27C80198
:1020C00087960E942C309E01282BC901DF91CF9169
:1020D0001F910F91089590E080E0F8CF462F753062
:1020E00040F4603130F4843020F4672F0E943F10B8
:1020F000089590E080E00895CF92DF92FF920F93D1
:102100001F93CF93DF936C010091D9028091C90294
:10211000082BC3E0D0E010E0FC2EC8010C2E02C05A
:10212000959587950A94E2F780FD0CC02197A0F75A
:10213000F12C8F2DDF91CF911F910F91FF90DF90A8
:10214000CF900895B6018C2F0E946E100E948008D7
:10215000019761F3EECFCF93DF93EC010E947C10E7
:10216000BE010E946E100E948008DF91CF910895F9
:10217000FC0183819481892B29F0808191818923BD
:102180008F3F51F480E00895843FE1F717C0883E07
:10219000A8F0813FB9F712C0808191810E94AB10F5
:1021A00092959F70963099F358F4925F9F70923099
:1021B00048F7803F19F040F7883E20F781E0089506
:1021C0009A5FF4CFA5E0B0E0E8EEF0E10C946C2F5C
:1021D00049835A8389819A81662399F0222389F061
:1021E0000E947C10182F682F89819A810E946D0AA5
:1021F00069817A81812F0E946E102596E3E00C940C
:10220000882F0E94390A182FF3CF82E290E00E94B3
:102210002C30833289F483E290E00E942C308330AA
:1022200059F484E290E00E942C3091E0893109F069
:1022300090E0892F8170089580E0FCCFB0E0A0E0AD
:10224000E4E2F1E10C945F2FFC016280448081E0C4
:102250008483EEE8F3E07490EDE0F4E0E491009123
:10226000B0030695015810E0000F111F012F112730
:10227000C9E4D3E02DE0C22E23E0D22E3DEA832E26
:1022800033E0932EAA24AA94B12C55245A94E7192A
:10229000EE2EF12C82E0861530F08091AE0388831B
:1022A0008091AF038983411016C01B821A82960168
:1022B0004A81698188810E948006259683E0C80E44
:1022C000D11C8C169D0631F70E94620CCDB7DEB78B
:1022D000E0E10C947B2F8B818823E9F081508B8384
:1022E000859DC00111246C8170E00E94192FFB01B3
:1022F000FF27E257FC4F8491E82FE719E59DC001C5
:102300001124B7010E94192F8091B003689FB0017A
:1023100011247A83CCCF0E940230B5010E942D2F68
:102320008017910724F682E0861588F40E94023017
:10233000B5010E942D2F88830E9402302091AF03A7
:102340002695622F70E00E942D2F280F29831A8274
:102350008091B003893C20F088EC8C838B83A7CFDD
:102360008431D8F784E1F9CF6091AD03669570E0D0
:102370004BE050E085E491E00E941230892B19F483
:1023800081E0809309030E948F059093030380935B
:1023900002030895CF92DF92EF92FF926B017C01CE
:1023A0000E946A06B701A60188E090E00E945230C0
:1023B000FF90EF90DF90CF900895A3E0B0E0E3EEC0
:1023C000F1E10C94602FF82E762EE42E622E90917F
:1023D000AD0390FF29C0E92FE695AE2FB0E0A153E1
:1023E000BE4F8C91809308039E7F923009F59E0129
:1023F0002F5F3F4F8F2D0E9480064B8169818A811C
:102400000E94260EF092AE037092AF03E092B003EA
:10241000662051F06091AD037091AE038091AF03DF
:102420009091B0030E94CA112396EFE00C947C2F88
:10243000823019F4E090B003E5CF863019F4F090C3
:10244000AE03E0CF8930D9F38931E1F6E9518E2F1F
:102450008170582EE695F0E0E757FC4FE4910E2F7F
:1024600010E08DE0C82E83E0D82EB12CA12C94E191
:10247000892E912CC501B4010E94192F8F2D511066
:1024800013C0860F96014E2D672D0E948006A00E68
:10249000B11E83E0C80ED11C89E4C81683E0D806BB
:1024A00049F70E94620CAECF861BECCFEDEAF3E059
:1024B000438128E0421B08F440E021E062818181F1
:1024C0000E94DD110895EDEAF3E0438128E0420F18
:1024D00008F44FEF21E0628181810E94DD110895AF
:1024E000EDEAF3E0628128E0621B08F460E021E09D
:1024F000438181810E94DD110895EDEAF3E062815C
:1025000028E0620F08F46FEF21E0438181810E948F
:10251000DD110895EDEAF3E0818121E043816281DC
:1025200088500E94DD110895EDEAF3E0818121E0F9
:1025300043816281885F0E94DD1108958091B1031B
:10254000882319F081508093B1036091AD0370919D
:10255000AE038091AF039091B0030E94CA11089519
:102560008091B103833018F48F5F8093B103609141
:10257000AD037091AE038091AF039091B0030E94C0
:10258000CA1108959091AD0390FF2CC091708111F4
:102590002AC092609093AD03662351F06091AD0321
:1025A0007091AE038091AF039091B0030E94CA1165
:1025B0006091AD03669570E04BE050E085E491E0FA
:1025C0000E941230892BB1F01092090381E08093B0
:1025D000050320E04091B0036091AF038091AE030A
:1025E0000E94DD1108958B3210F09465D3CF880FCF
:1025F000982BD0CF0E94B411E9CFEDEAF3E08081AF
:102600008160808360E086950E94C2120895809167
:10261000AD038695815009F48AE261E00E94C212FE
:1026200008958091AD0386958F5F8B3208F081E02D
:1026300061E00E94C21208959091AD0390FF08C01E
:102640009695981728F0961718F40E94111308957C
:1026500061E00E94C2120895EDEAF3E083E0808316
:1026600011828FEF828388EC838314826081718171
:10267000828193810E94CA110895CF938091C603ED
:102680009091C503892B80930C028091C802882306
:1026900039F10E948F052091C6023091C702821B3A
:1026A000930B8C3D954010F00E949E0980910C0286
:1026B0009091C802892B80930C028091530188234A
:1026C00009F447C08091090487FF43C08EE1EEE022
:1026D000F2E090E0815008F03EC091110E949E0906
:1026E000C091BE03C09580910C02C8238091BF03A6
:1026F000C82BC0930C0240E250E066EA72E08CE026
:1027000092E00E941F30892B11F180E2ECE0F2E0B0
:10271000A6EAB2E001900D928A95E1F7E091CB0331
:10272000F091CC03309799F080915301882349F0C0
:102730008091090487FF05C0C0930D0286E0809355
:102740000C020280F381E02D8CE092E00995CF919C
:10275000089586E0BCCF2191222309F4BBCF9F5F6F
:10276000B9CFCF93DF93EC01EA85FB85309719F061
:102770006C857D8509958B81982F90958091C503F7
:1027800089238093C5038C810E94A9090E943D136F
:1027900086E0FE0111928A95E9F7DF91CF910895C5
:1027A000CF93DF93EC018D8181FD18C082608D8312
:1027B0008091C5039B81892B8093C5038091C603BB
:1027C0009C81892B8093C6030E943D13E885F9857F
:1027D000309721F06C857D85CE0109951092C80354
:1027E0001092C7038D8180FD03C0CE010E94B113FA
:1027F000DF91CF910895882339F09091C503982BEC
:102800009093C5030E943D130895882321F00E94F0
:10281000A9090E943D130895882339F09091C603B9
:10282000982B9093C6030E943D130895882309F4C2
:1028300056C0823879F40E94E50581FF50C089E3D3
:102840000E94DB090E943D1389E30E94B0090E94A7
:102850003D130895833859F40E94E50580FF3FC079
:1028600083E50E94DB090E943D1383E5EECF8438A7
:1028700059F40E94E50582FF32C087E40E94DB091B
:102880000E943D1387E4E1CF9CEF980F913AE8F264
:1028900090E2980F983050F4877091E001C0990F42
:1028A0008A95EAF7892F0E94A909D1CF9BE5980F55
:1028B000933028F490E080E00E94C005089598E5E8
:1028C000980F9B3128F490E080E00E949B050895CA
:1028D00093E3980F933118F460E00E94A60A0895DC
:1028E000FF920F931F93CF93DF93F82E0091C303B2
:1028F0001091C4030115110509F449C01092C203D7
:102900001092C1031092BE031092BF03D801169615
:10291000CD91DC919E013A9521153F4108F4D07E7E
:10292000D1E0C11101C0D0E0D8011996ED91FC9120
:102930001A97309731F01B966D917C9180E0099544
:10294000D823DD2339F08CEF8C0F813A30F58C2FB2
:102950000E94B009FF2099F0E091C303F091C403F5
:10296000808584FD0CC08091C003882341F0808164
:1029700091819C01215031092F333E47A0F00E94E4
:102980003D131092C4031092C3031092C003C801F8
:10299000CDB7DEB7E5E00C94862F0E943D138C2F57
:1029A0000E941614D7CF0E94F205E9CFCF93C82F0B
:1029B0008823C9F08238C9F40E94E50581FD13C05F
:1029C00089E30E94DB090E943D132FEF87EE93E01D
:1029D000215080409040E1F700C0000089E30E9450
:1029E000B0090E943D13CF9108958338A1F40E944D
:1029F000E50580FDF8CF83E50E94DB090E943D13C9
:102A00002FEF81EE94E0215080409040E1F700C02C
:102A1000000083E5E4CF8438A1F40E94E50582FD3F
:102A2000E2CF87E40E94DB090E943D132FEF81EE85
:102A300094E0215080409040E1F700C0000087E41E
:102A4000CECF8CEF8C0F813A88F58091530188238B
:102A500001F18091090487FF1CC0EC2FE695E695F3
:102A6000E695F0E0E45FFD4F828190E04C2F4770E7
:102A700021E030E002C0220F331F4A95E2F78223A3
:102A80009323892B79F08C2F0E94B0090E943D136B
:102A900009C0EEE0F2E08191C817A9F322E0E43129
:102AA000F207C9F78C2F0E94DB099BCF80E28C0FC5
:102AB000883068F4C77021E030E001C0220FCA9569
:102AC000EAF78091C603822B8093C6038ACFEBE599
:102AD000EC0FE33040F4F0E0EF57FE4F808190E0E0
:102AE0000E94C00580CFE8E5EC0FEB3150F4F0E038
:102AF000EE0FFF1FEC57FE4F808191810E949B05D6
:102B000072CF83E38C0F833108F06DCF61E08C2F9F
:102B10000E94A60A68CF1F93CF93DF93182FD0E0AF
:102B2000C0E0893311F4C0E5D0E0812F0E94D614B3
:102B3000209739F4812F0E941614DF91CF911F91B5
:102B400008958FE99FE00197F1F700C000002197F9
:102B5000EFCF0F931F93CF93DF93C62FD42F022F66
:102B6000FC0182818823A9F0609305040E948F05EF
:102B70009093040480930304C77081E001C0880F20
:102B8000CA95EAF70E940C14DF91CF911F910F9123
:102B9000089580910504681332C0809103049091D8
:102BA00004040E947405883C910548F510E21D0F4D
:102BB000CD17B9F080E28C0F883040F4C77081E007
:102BC00001C0880FCA95EAF70E940514183048F42E
:102BD00081E09D2F977001C0880F9A95EAF70E94B7
:102BE0000C14802F0E948B15183070F6D77081E07E
:102BF00001C0880FDA95EAF70E940514C5CFC770A7
:102C000081E001C0880FCA95EAF7F6CF0E94C00B99
:102C100080930D01833091F0843031F0823089F45B
:102C200089E30E948B1508958091D902882331F0A1
:102C300081FF04C081E00E94020F089581E00E949C
:102C4000480F089590910A0492FB222720F9281733
:102C500079F080FB92F990930A04609109047091D5
:102C60000A0484E090E00E945E3082E00E940F0F30
:102C7000089567EE7EEF90E080E00E945E3060E0B5
:102C800082E090E00E94403060E083E090E00E94AB
:102C900040301092C90260E074E184E090E00E944C
:102CA0005E3060E086E090E00E9440306FEF87E0A9
:102CB00090E00E94403040E050E0BA0188E090E0AF
:102CC0000E94523060E08DE090E00E94403040E091
:102CD00050E0BA0188E190E00E94523060E087E164
:102CE00090E00E94403040E050E0BA018CE190E07A
:102CF0000E94523070E060E080E290E00E945E301E
:102D000040E050E0BA0188E190E00E94523080E05B
:102D10000E9416100E942F1040E050E0BA018FE090
:102D200090E00E94523040E050E0BA0183E190E030
:102D30000E945230089590E080E00E943A30873E31
:102D40009E4F19F40E940511089580E00895109295
:102D5000C60380915301EEE0F2E0882329F18091CF
:102D6000090487FF21C08EE1DF011D928A95E9F7F2
:102D700090E080E00E94C00590E080E00E949B050A
:102D80001092C5030E943D1386E0ECEFF2E0DF01F4
:102D90001D928A95E9F71092F5021092F6021092B0
:102DA000F7020E941907089586E0DECFAAE2B0E09C
:102DB000ECEDF6E10C946C2F8BEF93E02091F10099
:102DC000DC012D93CD01B4E083309B07B9F78091EE
:102DD000FC03833009F472C0B8F4813009F449C0AF
:102DE000823009F4B3C08091E80083FF8BC28091E8
:102DF000FB039091FC039A3008F084C2E92FF0E0C5
:102E0000E752FF4C0C94412F8A3009F48EC08B306E
:102E100009F471C0893039F78091FB03813219F7C9
:102E20008091FF0390910004009711F00297D9F66A
:102E30008091E800877F8093E8008091E80082FF1E
:102E400038C09091F3008091F200029731F48091A4
:102E5000F100813011F0863021F48091F1008093EF
:102E6000D6038091E8008B778093E8000E94670486
:102E7000BACF8091FB03813A09F0B5CF8091E80089
:102E8000877F8093E8008091FF0390910004892B55
:102E900061F460E287ED93E070E00E941305809199
:102EA000E8008B778093E8009ECF60E090E080E0C0
:102EB000F3CF8091F9038111C0CF95CF8091FB03AF
:102EC000813A09F090CF8091FF0390910004892B03
:102ED00009F089CF8091E800877F8093E800809196
:102EE000E80080FFFCCF809153018093F100809136
:102EF000E8008E77B9CF8091FB03813209F073CF60
:102F00008091FF0390910004892B09F06CCF809190
:102F1000E800877F8093E8000E9467048091FD03AA
:102F2000809353010E94A7165ECF8091FB038132EC
:102F300009F059CF8091E800877F8093E8000E94D4
:102F400067048091FE038093D5034DCF8091FB03EE
:102F5000813A09F048CF8091E800877F8093E800AC
:102F60008091E80080FFFCCF8091D503BECF8038F0
:102F700099F0823809F0C6C18091FF038F708730C5
:102F800008F0C0C18093E9008091EB0085FB8827A1
:102F900080F91092E90006C08091F7039091F80340
:102FA000911182609091E800977F9093E800809360
:102FB000F1001092F1008091E8008E779FC1882384
:102FC00009F48DC1823009F09DC18091FD0381110A
:102FD00090C18091FF038F702FEF280F263008F0EB
:102FE00091C18093E9002091EB0020FF82C19330D2
:102FF00031F48091EB0080628093EB007AC1909174
:10300000EB0090619093EB0021E030E001C0220FD3
:103010008A95EAF72093EA001092EA008091EB008B
:103020008860EACF81116EC11091FD031F778091F6
:10303000E3008078812B8093E3008091E800877F14
:103040008093E8000E9467048091E80080FFFCCF35
:103050008091E30080688093E30082E0111183E0B7
:103060008093F9034FC18058823008F04BC1209102
:10307000FD033091FE032C3DE3E03E07A1F583E024
:103080008A838AE289834FB7F894DE01139620E0A1
:103090003EE051E2E32FF0E050935700E49120FF2F
:1030A00003C0E295EF703F5FEF708E2F90E0EA3043
:1030B000C0F0C7968D939D932F5F243159F74FBF72
:1030C0008091E800877F8093E8006AE270E0CE019B
:1030D00001960E9413058091E8008B778093E800A9
:1030E00011C1C096E7CF8091FF0390910004432F58
:1030F00055274330510509F44AC078F54130510550
:1031000009F47AC08BE590E0EEE0F7E0423051053B
:1031100009F0F8C02091E800277F2093E800209173
:103120000104309102048217930708F49C0140E0E7
:103130002115310509F065C0411163C08091E80097
:1031400082FDC9CF8091F903882329F2853019F2D5
:103150008091E80083FFF2CFBECF4132510509F4E0
:103160003CC04232510509F0CDC08330910508F0D2
:10317000C9C0FC01EE0FFF1FE350FE4F0190F0812C
:10318000E02D86509E4FDC018C9190E01AC03327D1
:1031900021303105D1F02115310561F022303105A2
:1031A00009F0B0C0EBE7F7E0E4918E2F90E0EBE799
:1031B000F7E007C0E5EBF7E0E4918E2F90E0E5EB58
:1031C000F7E0009709F49EC0A5CFE9E9F7E0E491A4
:1031D0008E2F90E0E9E9F7E0F4CF8330910508F015
:1031E00091C0880F991FFC01ED5FFD4F0190F081A8
:1031F000E02D89E090E08ECF82E190E0E9E6F7E013
:1032000089CF8091F903882309F465CF853009F4CB
:1032100062CF8091E80083FD5ECF8091E80082FD5F
:103220008DCF8091E80080FF83CF9091F300809153
:10323000F2002115310519F08830910550F041E078
:10324000089709F040E08091E8008E778093E800CD
:103250006FCF44914093F10031962150310901968E
:10326000E8CF803809F04EC08091E800877F8093D6
:10327000E8008091FA038093F1009DCE811142C055
:103280001091FD031230F0F58091E800877F809364
:10329000E8001093FA030E946704112311F084E000
:1032A00005C08091E30087FDFACF81E08093F903A8
:1032B00042E061EC81E00E94860442E261EC84E03D
:1032C0000E94860442E261EC82E00E94860442E2AF
:1032D00060EC83E00E9486048091F90313C0809122
:1032E000FD03813079F481E0933009F080E0809330
:1032F000F8031092E9008091E800877F8093E8004E
:103300000E9467048091E80083FF0AC08091E80072
:10331000877F8093E8008091EB0080628093EB00D0
:10332000AA96E3E00C94882F0E94A7162FEF84E35F
:103330009CE0215080409040E1F700C0000088E10F
:103340009CE00FB6F894A895809360000FBE909310
:103350006000FFCFADE0B0E0E0EBF9E10C945D2F51
:103360003C01DC0113968D919C911497892B49F0B7
:103370004C9111965C91842F85238F3F11F00C9412
:1033800070232D96E2E10C94792F80914C0291E00C
:10339000892780934C0280910804877091F3D301B0
:1033A00012968C91882369F380910A0482FFE9CFF9
:1033B00082E00E940F0FE5CF80914C02882309F430
:1033C00048C110924C02E03CF10508F09BC0E03887
:1033D000F10508F008C1E034F10508F0CEC021E0A5
:1033E00030E040E050E060E070E080E090E00E2FE0
:1033F0000E94942FA0912C022A2BA0912D023A2BEF
:10340000A0912E024A2BA0912F025A2BA09130029C
:103410006A2BA09131027A2BA09132028A2BA091C3
:1034200033029A2B20932C0230932D0240932E02CC
:1034300050932F02609330027093310280933202D6
:1034400090933302CF0197578038910510F00C9478
:1034500064240E2FE03108F09ECF8FEF93E00E949E
:103460002C30811198CF66EAC62E62E0D62E01116B
:1034700065C3FE01339686E0DF011D928A95E9F768
:103480005AE0552E86010F5F1F4FC6010E942C3057
:1034900089831A82882309F47ECF813009F085C39D
:1034A0007601B2E0EB0EF11CC8010E942C308A8339
:1034B000882309F470CF9FEF980F933008F04DC325
:1034C000E3E0CE0ED11CC7010E942C308B838823F1
:1034D00009F461CF1C828E010F5F1F4FD8012C9120
:1034E000222381F2213009F09AC311969C91119701
:1034F00012968C91913009F05AC30E5F1F4F0E94B3
:103500008B155BC3EF3FF10511F008F068CF21E0A8
:1035100030E040E050E060E070E080E090E08F015B
:10352000005C11090E94942FA09144022A2BA091C3
:1035300045023A2BA09146024A2BA09147025A2BF2
:10354000A09148026A2BA09149027A2BA0914A02CD
:103550008A2BA0914B029A2B209344023093450270
:103560004093460250934702609348027093490289
:1035700080934A0290934B0265CF21E030E040E017
:1035800050E060E070E080E090E08F0100541109AD
:103590000E94942FA09134022A2BA09135023A2B3D
:1035A000A09136024A2BA09137025A2BA0913802E3
:1035B0006A2BA09139027A2BA0913A028A2BA09112
:1035C0003B029A2B2093340230933502409336020B
:1035D00050933702609338027093390280933A0215
:1035E00090933B022FCF21E030E040E050E060E0DC
:1035F00070E080E090E08F01005811090E94942F44
:10360000A0913C022A2BA0913D023A2BA0913E02B0
:103610004A2BA0913F025A2BA09140026A2BA09105
:1036200041027A2BA09142028A2BA09143029A2B4D
:1036300020933C0230933D0240933E0250933F0260
:103640006093400270934102809342029093430240
:10365000F9CEE034F10508F06EC0A0912C02B091D3
:103660002D0220912E02298780902F023091300266
:103670003B87809131028D87309032022090330257
:1036800021E030E040E050E060E070E080E090E079
:103690000E2F0E94942FA22EAA22B32EBB22C984E1
:1036A000C422D52ED820EB84E622FD84F722082FF1
:1036B0000321192F12210E94AD2F11F00C94C72362
:1036C000E03CF10508F09AC0E038F10508F0FDC0D3
:1036D000E034F10508F0C8C021E030E040E050E0FF
:1036E00060E070E080E090E00E2F0E94942F209523
:1036F00030954095509560957095809590952A23CA
:103700003B23A9854A235821BB856B23ED857E2366
:103710008321922120932C0230932D0240932E027C
:1037200050932F02609330027093310280933202E3
:103730009093330230CEE038F105F8F4A0913402D2
:10374000B09135029091360299878090370220918E
:1037500038022B87309139023D8730903A02209011
:103760003B0221E030E040E050E060E070E080E0CB
:1037700090E08F01005411098CCFE03CF105F8F482
:10378000A0913C02B0913D0280913E0289878090D9
:103790003F02909140029B87209141022D873090FB
:1037A00042022090430221E030E040E050E060E03F
:1037B00070E080E090E08F01005811096ACFA0917D
:1037C0004402B09145023091460239878090470209
:1037D000809148028B87909149029D8730904A02E0
:1037E00020904B0221E030E040E050E060E070E0EB
:1037F00080E090E08F01005C11094BCFEF3FF105B5
:1038000011F008F069CF8F01005C110921E030E070
:1038100040E050E060E070E080E090E00E94942F93
:103820002095309540955095609570958095909530
:103830002A233B23B9854B235821EB856E23FD8535
:103840007F238321922120934402309345024093A9
:103850004602509347026093480270934902809356
:103860004A0290934B0297CD8F010054110921E039
:1038700030E040E050E060E070E080E090E00E94E6
:10388000942F209530954095509560957095809532
:1038900090952A233B23F9854F235821AB856A2332
:1038A000BD857B23832192212093340230933502FE
:1038B0004093360250933702609338027093390276
:1038C00080933A0290933B0266CD8F010058110914
:1038D00021E030E040E050E060E070E080E090E027
:1038E0000E94942F20953095409550956095709545
:1038F000809590952A233B23E9854E235821FB850B
:103900006F23AD857A238321922120933C0230934B
:103910003D0240933E0250933F02609340027093F9
:103920004102809342029093430235CDEF3FF1056F
:1039300009F060F5E034F10508F0C1C0A0902C0258
:10394000B0902D02C0902E02D0902F02E090300255
:10395000F0903102A09132021091330221E030E068
:1039600040E050E060E070E080E090E00E2F0E94C8
:10397000942FA222B322C422D522E622F722082FB6
:103980000A2319230E94AD2F09F405CD809112015D
:10399000882309F40DC66201F0EECF1AD1083090E9
:1039A000C8028091C603382A28E0C216D10408F064
:1039B0009CC192012770332781E090E001C0880FFD
:1039C0002A95EAF7992009F48DC1382AD3018D91FF
:1039D0009C910E94390A21E030E0590102C0AA0CF2
:1039E000BB1C8A95E2F7E091C303F091C403FA8708
:1039F000E98720914D0230914E023C872B87212C84
:103A0000E22DF0E0EE0FFF1FEC5FFE4F0081118111
:103A10000115110509F42FC6311005C0D801129601
:103A20008C9181119CC1F801838190E08A219B21B6
:103A3000892B09F494C18085982F977009F487E049
:103A4000F8E0CF16D10408F06AC1992009F463C1E7
:103A500086958170882309F482C1D801ED90FC908D
:103A6000E414F50419F4992009F479C1E985FA857B
:103A70000E171F0709F473C1D8011D96ED91FC9133
:103A8000309721F08081882309F469C1632DC80132
:103A90000E944306882309F462C1E414F50409F086
:103AA000BAC6E114F10409F4BBC69110BBC6EB859C
:103AB000FC85EE16FF0609F052C1912CB3C6E03822
:103AC000F10598F4A0903402B0903502C09036020F
:103AD000D0903702E0903802F0903902A0913A027B
:103AE00010913B02E054F10939CFE03CF10598F424
:103AF000A0903C02B0903D02C0903E02D0903F02A8
:103B0000E0904002F0904102A091420210914302E5
:103B1000E058F10923CFA0904402B0904502C09034
:103B20004602D0904702E0904802F0904902A091EE
:103B30004A0210914B02E05CF10910CFC11424E05D
:103B4000D20609F428CCC6010E942C30811101C094
:103B500001503FEFC31AD30A8ACC6701843009F0C1
:103B6000BACC02E010E06701FFEFCF1ADF0AC7010D
:103B70000E942C30E1E0F0E0EC0FFD1FE00FF11FA0
:103B80008083882309F407CC8C3741F4E2E0F0E02D
:103B9000EC0FFD1FE00FF11F10829DCC0F5F1F4F38
:103BA000760107301105F9F6F6CB680194CC923016
:103BB00039F40E5F1F4F0E94D6140F5F1F4F8ECC3B
:103BC000933029F40E5F1F4F0E941614F6CF9430E5
:103BD00019F00F5F1F4FF1CF0E5F1F4F30E020E055
:103BE000B8016F5F7F4FF80141818053990B8A3094
:103BF000910550F02150310900F38FE99FE00197C2
:103C0000F1F700C00000F6CF529EF001539EF00D78
:103C100011249C012E0F3F1F842F8B01E1CFE22F37
:103C2000F0E0EC50FE4F4490822F86958695869565
:103C300090E0FC01EC51FE4FA4902770B12C022EB5
:103C400002C0B594A7940A94E2F7A1E0AA22BB248B
:103C5000FC01EC52FE4F8490912C022E02C09594F0
:103C600087940A94E2F7B1E08B229924FC01EC538B
:103C7000FE4FE490F12C02C0F594E7942A95E2F708
:103C8000E1E0EE22FF24A114B10419F081EE0E94BC
:103C9000D6148114910419F086EE0E94D614842D56
:103CA0000E948B158114910419F086EE0E9416145F
:103CB000A114B10419F081EE0E941614E114F1046C
:103CC00009F47BCF8CE21BCC80911201882331F068
:103CD0001092120180E00E9470145DCB81E080930D
:103CE000120159CB8095382271CE992009F4ACC4C9
:103CF00050924E0240924D020E9483056093BA0397
:103D00007093BB038093BC039093BD031092C203D6
:103D10001092C1035BCE82FB882780F99BCE99204D
:103D2000F1F0817097CE0E9416149BC50497813ADA
:103D3000910548F48E2D0E94DB09992009F438C4BE
:103D40000E943D1328CB0E943D138FE39CE901970D
:103D5000F1F700C000008E2D0E94D614EECF239400
:103D60004FCEFC01208131812415350509F019C49D
:103D7000911019C41092C00380E00E94701418C4FE
:103D8000942D852D5CC4F801858181FF88C4C8010C
:103D90000E94B11384C426E241EE61EEC3010E9489
:103DA000A915F9CA27E245EE65EEF8CF26E241EE05
:103DB00060EEF4CF27E245EE64EEF0CF26E241EE6E
:103DC00062EEECCF27E245EE66EEE8CF28E241E076
:103DD000EBCF8091090481608093090495C08091A4
:103DE0000A04886080930A048FC08091090482606D
:103DF000F3CF809109048460EFCF8091090488603B
:103E0000EBCF80910A048160EDCF80910A0482603B
:103E1000E9CF809109048061DFCF8091090480623D
:103E2000DBCF809109048064D7CF0E94A7168091D0
:103E300009048068D1CF809109048C60CDCF809136
:103E40000A048360CFCF809109048E7FC5CF809113
:103E50000A04877FC7CF809109048D7FBDCF8091F1
:103E600009048B7FB9CF80910904877FB5CF8091FA
:103E70000A048E7FB7CF80910A048D7FB3CF8091E3
:103E800009048F7EA9CF809109048F7DA5CF8091F1
:103E900009048F7BA1CF0E94A716809109048F7718
:103EA0009BCF80910904837F97CF80910A048C7FF8
:103EB00099CF8091090482FB992790F921E09227FC
:103EC00090FB82F990FB83F987CF80910A04982FA9
:103ED000909591708E7F892B90FB81F983CF909183
:103EE0000904892F8F7B96FF806476CF0E94A716E6
:103EF00090910904892F97FB87F980586DCF61E075
:103F00008EE090E00E9440306091090470910A04B4
:103F100084E090E00E945E300E94A7163CCA60E0F8
:103F2000EFCF90910904892F8F7E94FF806154CF49
:103F300090910904892F8E7F90FF81604DCF9091E1
:103F40000A04892F877F93FF88604CCFB6E14B1618
:103F5000BCE75B0609F029C48091C603282F2171B4
:103F60008A7A211180E0992371F091E0811101C0DA
:103F700090E090934F02811104C089E20E94DB0916
:103F8000DFCE85E3FBCF80914F02811104C089E22F
:103F90000E94B009D5CE85E3FBCF8091AD0380FFB1
:103FA00012C08E7F8093AD036091AD037091AE031C
:103FB0008091AF039091B0030E94CA11109209033F
:103FC0000E94620CE8C981608093AD0361E0869530
:103FD0000E94C212E0C947E053E161E173E10E942F
:103FE0006306D9C941E153E167E073E1F8CF4AE8DC
:103FF00052E164E972E1F3CF44E952E16AE872E127
:10400000EECF40E752E16DE772E1E9CF4DE752E1D3
:1040100060E772E1E4CF46E552E163E672E1DFCFAB
:1040200043E652E166E572E1DACF4EE952E160EB38
:1040300072E1D5CF40EB52E16EE972E1D0CF61E0A1
:1040400081E0C6CF65E082E00E941C13A4C968E04D
:1040500086E0FACF6EE089E0F7CF64E18FE0F4CF3D
:1040600067E185E1F1CF61E088E1B2CF62E289E109
:10407000EBCF61E083E2ACCF6AE285E2E5CFE7E730
:104080004E16ECE75E0609F460C0F8E74F16FCE751
:104090005F0609F45EC0F3018281008111818823EB
:1040A00009F48BC0C8010E947C10F82E682FC8014B
:1040B0000E946D0AB8018F2D0E946E100E94800828
:1040C0008C01A82ED3011296FC9012971596DC90C5
:1040D000D2943FE0D322809108048770F1F0CF2C76
:1040E000FF20E1F0812F807F803451F080E2800F4B
:1040F000883098F0D11004C0812F807E803269F022
:1041000080910A0482FF09C082E00E940F0F809113
:1041100008048770CC24C3948111C12CB12EB294B1
:104120002FE0B222BBE0BB1508F4B3C0EB2DF0E0EA
:10413000ED51FF4C0C94412F81E00E94480F43E069
:1041400062E081E00E94E20E26C981E00E94020F37
:10415000F6CF82E0FBCFABE54A16ACE75A0659F141
:10416000BCE54B16BCE75B06E1F0EAE54E16ECE772
:104170005E0609F090CF81E01BC00E94A716FFEFFA
:1041800024E33CE0F15020403040E1F700C0000063
:104190000E943E0C6FEF7FEF90E080E00E945E3067
:1041A00024C380910A0482FB882780F991E0892743
:1041B0000E94221670CF80E0FBCFC8010E94390A0E
:1041C000F82E78CFE12FEF70EE2E107F19F0E294E9
:1041D00090EFE922FF20B9F0EE2069F080E2800F35
:1041E000883010F0A11009C08091C603E82AE0923F
:1041F000C6030E943D13802F4AC08091C503E82A60
:10420000E092C503F6CF802F0E941614EE2009F429
:1042100040C0005E083010F0A11004C08E2D0E9436
:10422000A90906C0E0948091C503E822E092C50385
:104230000E943D132EC0F12FFF70EF2E107F103221
:1042400019F0E29480EFE822AA2089F021E0A2167A
:1042500009F47EC0FF2009F487C0DD2009F451C0B5
:10426000F301858180FFC7CF8F7085834AC090910D
:104270000A0492FD3FC0FF20B9F1EE2039F0809191
:10428000C603E82AE092C6030E943D1380E00E9424
:10429000D614EB2DE850FF0B349720F40E94E5056F
:1042A0000E94AC0ECC20B1F08091080480FD12C0B9
:1042B000D30112961C928595859585950E94480F8D
:1042C000C3010E94AA19809108048595859585955A
:1042D0000E94020F20E0F3014081518162817381CD
:1042E00084810E94E2104DC880E00E941614EE20E6
:1042F00081F294CFFF20D1F08091C802E82AD1103A
:1043000004C08E2D0E940C14C4CF31E0D312F9CF1B
:1043100092FFBFCF8E1509F4BCCF0E948F059093FA
:10432000C7028093C602E092C802B3CFD11006C084
:104330000E949E098E2D0E940514ABCF81E0D816F5
:1043400009F4A7CF8E2D0E9405140E949E09A1CFCB
:10435000FF2029F092E09D1508F49BCFD2CFA1E079
:10436000AD1508F496CFE6CFDD2021F3F9E3AF12C7
:1043700009C02FEF37EE83E0215030408040E1F755
:1043800000C00000802F0E94161483CF812F8695D5
:104390008695837061F0813009F07BCFC8019370FE
:1043A000F11002C080E090E00E949B0572CFC8012E
:1043B0009370F11002C080E090E00E94C00569CFC8
:1043C0006F2D802F0E94A60A64CF812F837089F5FC
:1043D000F1105FCF402F429546954770440F440F30
:1043E000802F8F70042E01C0880F0A94EAF7202FC7
:1043F000207104FF07C02FE030E001C0220F4A9572
:10440000EAF72095169516951370123069F050F45E
:104410003091C902113029F0822B83230E94A30A14
:1044200038CF832B822BFACF282B8091C902822789
:10443000F5CF8695FF2011F0812F8170882309F434
:1044400028CF402F429546954770440F440F802F48
:104450008F70042E01C0880F0A94EAF7202F207174
:1044600004FF07C02FE030E001C0220F4A95EAF7B1
:104470002095169516951370123069F050F430910E
:10448000D902113029F0822B83230E94DD0E01CF47
:10449000832B822BFACF282B8091D9028227F5CF4C
:1044A0001F70FF2029F0812F0E94480F802F2ACFF4
:1044B000802F0E940514812F0E94020FEACE802FC8
:1044C00092EFA916B1F19A1570F0A0EFAA16D1F0EB
:1044D000B1EFAB1691F0FF2009F453C0D1108BCE91
:1044E000812F8F712AC0E3EFAE1651F1F4EFAF12B6
:1044F000F2CF80910A0482FD2FC0812F8F71FF209F
:10450000D9F21BC0FF2081F021E02D1508F4C1CEA7
:104510001F7181E090E0012E01C0880F0A94EAF734
:104520009091D9028927B1CF32E03D1508F4B1CE80
:10453000EFCF812F8F71F110BFCF0E94480FA9CE0E
:1045400080E0FF2009F4A1CF1F7181E0012E01C09E
:10455000880F0A94EAF799CFFF2041F01F71812F4D
:104560000E94480F812F0E94540F93CE81E00E9439
:104570000F0F81E08D1508F08CCE82E00E940F0FA6
:1045800088CEDD2059F0893309F0FCCE9FEFA7EEED
:10459000B3E09150A040B040E1F7F2CE812F8F718F
:1045A0008BCF992029F0DC0118968C9185FFE4CB04
:1045B000C20197558F3F910511F008F0EBC07201D1
:1045C000FF24BEE04B9EF00111248F01055E1E4FBB
:1045D000D30112968C91E05EFE4F908180FB90F9A2
:1045E0009083882309F4CFCB0E948F059093E90232
:1045F0008093E802F80182818F5F82838091C503F6
:104600009091C603892B83838091C802848306809E
:10461000F781E02D309731F0D8011C966D917C9197
:10462000C80109958EE08E9DF0018F9DF00D11243B
:10463000E55EFE4F858181FFA3CB90E080E0909303
:10464000C7038093C8032BC080914D0290914E0206
:104650008415950581F410924E0210924D0210922D
:10466000BA031092BB031092BC031092BD031092C8
:10467000C2031092C1038091C3039091C4030097B9
:1046800009F496CFA8E0CA16D10408F06ACB632DCE
:104690000E944306811103C081E00E947014D3017F
:1046A00012969C91992309F4A2C0109205049201DC
:1046B00030572332310508F049CC84E090E00E9465
:1046C0003A3090930A0480930904F201E150F047D4
:1046D000E232F10508F07DCBE151FF4C0C94412F03
:1046E00021E0F3016281738184810E94E2102C0138
:1046F000D30112968C91882369F18091C703909120
:10470000C803009739F18415950521F1BEE08B9F10
:10471000C0011124FC01E05EFE4F20812460208353
:10472000855E9E4FFC01518240820E94D013109200
:10473000C50321E0D3014C9111965C91119712961B
:104740006C91129713967C91139714968C910E94FA
:10475000E2102C01C201815A9245F2014F9720F4D8
:10476000B0EAEB27B2E5FB27D30112969C90992083
:1047700009F4DCC8EF3FF10509F010F40C94DC19E2
:10478000E935FC4711F40C94C51910924C02F20162
:104790000C94221AF201E851FC47E730F10508F0C9
:1047A0007ECFEF5EFE4C0C94412FB7E74B16BCE773
:1047B0005B0609F4C1CC82E0E8E74E16ECE75E0642
:1047C00009F4BBCC23E042162CE7520609F4E2CCF4
:1047D00008F0C1CC41148CE7580609F4CECC91E026
:1047E00049169CE7590609F056CC0E949419F6E147
:1047F0004F16FCE75F0609F4AFCB8091C6038272C7
:10480000F201E052F847E531F10508F038CCE85EF6
:10481000FE4C0C94412FE114F10409F048C9912C8D
:10482000F12CE12C80E00E9470141093C4030093DB
:10483000C30381E08093C003D80115968C918093C7
:10484000BE0391100EC0EF2861F0D8018D919C91AC
:104850009C0124503109213A310508F064CA0E94B4
:10486000B009F801E680F780C7019A9581159F414C
:1048700010F420EEF222BB24B394C70101978F33CA
:104880009E4708F0B12CD8011996ED91FC911A972A
:10489000309731F01B966D917C9181E00995B8229B
:1048A000BB2079F0F801868197810E948F0B80935D
:1048B000BF03C701F8E0CF16D10408F037CA0E9441
:1048C000F2050E943D1339CAEE352CE7F20709F4D0
:1048D00005CAEF353CE7F30709F4FAC9ED358CE773
:1048E000F80709F4F1C92F0151C81F93CF93DF9343
:1048F00080917302807F09F04BC080917002882301
:1049000009F446C08091A502C091740240916E02E4
:1049100050916F026091710270917202D42FD52371
:1049200016E0C817A9F190E061157105A9F1DF3F04
:1049300099F1189FF001199FF00D1124DF01AB5878
:10494000BD4F11962C911197251326C02C9124133D
:1049500023C012962C91129721111EC013962D91EF
:104960003C91261B370B283C3105B0F48091730233
:104970008F70806180937302E658FD4F80818F7045
:10498000806180838EE692E00E94AA190E942F0A1D
:10499000DF91CF911F91089501968770C2CFA1E159
:1049A000B0E0E5EDF4E20C94632F8C0185E0F801B2
:1049B000DE011D9601900D928A95E1F7F801E280E3
:1049C0008EE6882E82E0982E4091710250917202FC
:1049D0004115510509F430C190916E0220916F028A
:1049E000892F82238F3F09F427C1D080C180A38003
:1049F000B480F0907002B501641B750BFF2009F4C0
:104A0000E7C080917302382F307F683C710508F051
:104A1000ABC0311178C0FE2C2C1114C09D1112C0F6
:104A2000E11010C08F70806180937302C4010E94F6
:104A3000AA1980917302F80185838F2D6196ECE0AD
:104A40000C947F2FA114B104C9F18D2D8C218F3FBF
:104A5000A9F181E08E2580FF05C04E2D6C2D8D2D96
:104A60000E940F0AA114B10459F18D2D8C218F3FA2
:104A700039F181E08E25F82FF170BF2E80FF39C00B
:104A80004E2D6C2D8D2D0E940F0AA82E811131C044
:104A9000DD86CE868D859E850E94AB10292F2295BE
:104AA0002F70243078F49F702230A8F09923B9F049
:104AB000F8019581907F99F4FA2CBFCF80E0CBCF9D
:104AC00080E0D9CF2A5F2F70223068F0C8010E94A1
:104AD000AA19AB2CF1CF992311F0882369F3805EDA
:104AE000883050F3F3CF803F38F3815F833070F725
:104AF000E3CFEE2009F4A1CF80917302816080930F
:104B00007302F12C9ACF2C1105C09D1103C0EE2029
:104B100009F477C0C8010E94B810882309F1EE207B
:104B2000F9F080917302803270F020916E02309122
:104B30006F0238872F831986BB86AA868C87CE01A1
:104B400007960E94AA1986E0F801AEE6B2E001904D
:104B50000D928A95E1F70E947524FF24F3946DCF9E
:104B6000C8010E94AA19F9CF31110AC08EE692E05D
:104B70000E94AA1986E0F40111928A95E9F7C1CF43
:104B80002C110EC09D110CC0E1100AC08583C80114
:104B90000E94AA1986E0F40111928A95E9F74DCF97
:104BA000C8010E94B8108823D9F2EE20C9F2809182
:104BB0007302803240F220916E0230916F023A838C
:104BC00029831B82BD82AC828E83CE010196B9CF30
:104BD000683C7105F8F6FE2CEE2011F22C111EC077
:104BE0009D111CC08091730280FD0FC0982F907F93
:104BF00061F08583903F31F0982F907F905F8F70A8
:104C0000892B8583C8010E94AA1986E0F801AEE6C7
:104C1000B2E001900D928A95E1F70FCFC8010E9492
:104C2000B810811190CF80917302816080937302DC
:104C3000C8010E94AA1901CFEE2009F491CFC80142
:104C40000E94B810F82E882309F48ACF86E0F80174
:104C5000AEE6B2E001900D928A95E1F780916E0286
:104C600090916F020E94AB100E947524E6CEA7E1DE
:104C7000B0E0EDE3F6E20C946C2F4B8B5C8B6D8B0C
:104C80007E8B8F8B61111092C5031A8A198A85E079
:104C9000FE017396DE011D9601900D928A95E1F753
:104CA00080910A0482FF1CC00E948F052091060497
:104CB00030910704821B930B8C3D954020F080912E
:104CC000080482FF79C00E948F052091C6023091AE
:104CD000C702821B930B8C3D954010F00E949E09E9
:104CE00086E0FE013D96DE01179601900D928A95B1
:104CF000E1F7CE0107960E94CF24882359F016E0F1
:104D00008091A50290917402891343C06796E3E0F5
:104D10000C94882F86E0FE013796DE0111960190F3
:104D20000D928A95E1F78A859B85892B41F38F81C6
:104D3000988589238F3F19F32091740230E0C901CF
:104D40000196877099274091A5024817190671F4BA
:104D50000E94A716109274021092A50286E0EEE659
:104D6000F2E0DF011D928A95E9F7C9CF96E0929FA4
:104D7000D001939FB00D1124AB58BD4FFE01319669
:104D800001900D929A95E1F7809374020E942F0A88
:104D9000B6CF819FC00111248B589D4F0E94CF2414
:104DA000882309F4B3CF8091A50290E00196877023
:104DB00099278093A502A4CF82E00E940F0F83CF92
:104DC000A5E0B0E0E6EEF6E20C946B2F0E948F05B2
:104DD0008C018091CA029091CB0280179107A1F0BB
:104DE0008FEF89838A831B820E948F058160782FD1
:104DF0009D838C8349815A816B818D810E943726E6
:104E00001093CB020093CA022596E4E00C94872FFE
:104E1000AAE0B0E0EEE0F7E20C94632F8E010F5FA2
:104E20001F4F8AE0F80111928A95E9F79AEBE92E73
:104E300091E0F92E6801AA24A394B12CF701819185
:104E40007F018F3F09F446C0F894E82FE295EF7098
:104E5000F0E021A18F70A50102C0440F551F8A9573
:104E6000E2F7CA01922F982B91A392A180958923F2
:104E700082A3789400C0EFEBF1E021E030E0912CC8
:104E8000812C41914F3F09F467C0A42FA295AF70C8
:104E9000B0E090968C9190E04F7002C09595879508
:104EA0004A95E2F780FD58C0C901882A992A220F45
:104EB000331F51E0EF3CF50721F7F701319780816F
:104EC0008F3F11F00E94840780EA8A95F1F7F6017E
:104ED00091828082F2E0CF0ED11C4FEBE41641E0CC
:104EE000F40609F0ABCF4AE050E0B8018FEC92E055
:104EF0000E941F30892B99F18AE0F801AFECB2E0F3
:104F000001900D928A95E1F781E08093CE020E9494
:104F10008F059093CD028093CC028091CC0290912A
:104F2000CD020E9474050597F0F04AE050E06FEC66
:104F300072E08BEE92E00E941F30892BC9F08AE06C
:104F4000EFECF2E0ABEEB2E001900D928A95E1F762
:104F500081E01092CE0208C090E080E0A6CF809160
:104F6000CE028111DACF80E02A96ECE00C947F2FFC
:104F700080E0EFCF1F920F920FB60F9211242F9364
:104F80003F934F935F936F937F938F939F93AF93D1
:104F9000BF93CF93DF93EF93FF93D091E900DF703E
:104FA0008091EC00C82FC17080FDC0E81092E9002C
:104FB0008091F000877F8093F00078940E94D6164D
:104FC0001092E9008091F00088608093F000CD2B72
:104FD000CF70C093E900FF91EF91DF91CF91BF9126
:104FE000AF919F918F917F916F915F914F913F9181
:104FF0002F910F900FBE0F901F9018951F920F9238
:105000000FB60F9211242F933F934F935F936F939B
:105010007F938F939F93AF93BF93EF93FF93809171
:10502000E10082FF09C08091E20082FF05C080910B
:10503000E1008B7F8093E1008091DA0080FF24C043
:105040008091D80080FF20C08091DA008E7F80930D
:10505000DA008091D90080FF9DC080E189BD82E1A6
:1050600089BD09B400FEFDCF81E08093F9038091F2
:10507000D403811109C00E9417040E94B8048091D2
:10508000E20084608093E2008091E10080FF17C01D
:105090008091E20080FF13C08091E2008E7F8093B8
:1050A000E2008091E20080618093E2008091D8006C
:1050B00080628093D80019BC85E08093F9038091C9
:1050C000E10084FF2BC08091E20084FF27C080E1D3
:1050D00089BD82E189BD89B5982F917080FFFBCF92
:1050E0008091D8008F7D8093D8008091E1008F7EE1
:1050F0008093E1008091E2008F7E8093E2008091B6
:10510000E20081608093E2008091FA03882309F431
:1051100047C084E08093F9038091F9038091E10016
:1051200083FF27C08091E20083FF23C08091E100CC
:10513000877F8093E10082E08093F9031092FA0365
:105140008091E1008E7F8093E1008091E2008E7F6C
:105150008093E2008091E20080618093E20042E06F
:1051600060E080E00E9486048091F0008860809377
:10517000F000FF91EF91BF91AF919F918F917F913F
:105180006F915F914F913F912F910F900FBE0F90B4
:105190001F90189519BC1092F9031092D40374CF84
:1051A0008091E30087FD93E09093F903B5CF789465
:1051B0001F921FB61F9211248F939F93AF93BF939B
:1051C0008091D0039091D103A091D203B091D303E9
:1051D0000196A11DB11D8093D0039093D103A0939C
:1051E000D203B093D303BF91AF919F918F911F9042
:1051F0001FBE1F9018951F921FB61F9211248F93E8
:105200009F93AF93BF938091CF03811113C080917F
:10521000D0039091D103A091D203B091D3034196D2
:10522000A11DB11D8093D0039093D103A093D2030D
:10523000B093D303BF91AF919F918F911F901FBEE9
:105240001F901895CDB7DEB7A5970FB6F894DEBFBF
:105250000FBECDBF85B7806885BF85B7806885BF25
:1052600084B7877F84BF0FB6F894A89580916000BB
:10527000886180936000109260000FBE80E890E02B
:105280000FB6F89480936100909361000FBE82E89E
:1052900097E090930B0280930A020E9417040E94E9
:1052A000B8048091E20084608093E2007894809159
:1052B000F9038823A1F01091E9001F709091EC0090
:1052C000892F817090FD80E8182B1092E900809161
:1052D000E80083FD0E94D6161F701093E90082E05B
:1052E00084BD93E095BD9AEF97BD80936E000E94B8
:1052F0000511811102C00E942F100AEB11E0EFEBA3
:10530000EE2EE1E0FE2ED8018D918D018F3F11F040
:105310000E948407E016F106B1F70FEB11E07FEC75
:10532000E72E71E0F72EF80181918F018F3F11F088
:105330000E948407E016F106B1F78AE0EBEEF2E096
:10534000DF01282F1D922A95E9F7EFECF2E0DF014B
:105350001D928A95E9F740E060E080E00E94260E09
:105360000E949B16811102C00E94391682E090E0D3
:105370000E942C308093DD0284E090E00E943A305D
:1053800090930A04809309040E940827BFEFE6E780
:10539000F1E0B150E040F040E1F700C000000E94B1
:1053A00008278091EB0280FF08C06FEF7FEF90E04D
:1053B00080E00E945E300E943E0C83E090E00E94FC
:1053C0002C300E94A30A8091D9020E94BF0E879AB6
:1053D0008F9A8091DA02811133C00E949B1681114D
:1053E00004C00E9439160E942C1388E090E00E94AD
:1053F00034306093AD037093AE038093AF0390930A
:10540000B0036E7F71F40E942C1388E090E00E943C
:1054100034306093AD037093AE038093AF039093E9
:10542000B0030E946A06109209038091AD0380FFC9
:1054300004C060E086950E94C21281E08093DA0287
:105440008091090480688093090460910904709137
:105450000A0484E090E00E945E3083E191E0909342
:10546000CC038093CB0368E1662E712C55245394B2
:10547000442443948091F90300E112E1853009F45A
:10548000A4C00E9408274EEDA42E42E0B42E5BEE8D
:10549000852E52E0952ED401F501219131918D9107
:1054A0009D9142E0E83EF40709F4A4C028173907AB
:1054B000A1F3312CD4010D911D914D01F501C19045
:1054C000D1905F01C016D10659F1C026D126212CFA
:1054D000EE24E394F12CC6018E219F21892BB1F09B
:1054E00029A23AA221E0C8018E219F21892B09F42B
:1054F00020E02BA30E948F058160782F9DA38CA3B1
:1055000049A15AA16BA18DA10E9437262394EE0CCC
:10551000FF1CF0E12F12DFCFF501329711830083DA
:10552000339425E03212C6CF0E94830569C0809172
:10553000F903843009F438C080E00E94AC0E109268
:1055400009038091DC0281110DC04092DC02809140
:10555000AD03982F91709093DB028E7F8093AD0303
:105560000E94620C1092CF0320E40FB6F894A89525
:10557000609260000FBE2093600083B7817F8460DB
:1055800083BF83B7816083BF7894889583B78E7F0C
:1055900083BF0FB6F894A8958091600088618093CE
:1055A0006000109260000FBE8091F803882369F0BC
:1055B0000E940827EBEEF2E081919191892B09F08E
:1055C000F5C342E0E53FF407B9F78091F903853070
:1055D00009F4ADCF0E94A7160E94E5050E94AC0E0B
:1055E0001092DC028091DB0281110E94FD120E9468
:1055F000B41147CF2817390709F05BCF0E94E02686
:105600008091C1039091C203892B09F44EC040914F
:10561000B6035091B7036091B8037091B9032FB7E7
:10562000F8948091D0039091D103A091D203B091CE
:10563000D3032FBF841B950BA60BB70B4091B2036E
:105640005091B3036091B4037091B503841795072B
:10565000A607B70750F10091C1031091C203C8011A
:105660000E948F0B9801205E31092830310520F00F
:105670000115110509F07EC10E940C14802F0E94B3
:10568000D6141092C2031092C1031092B603109266
:10569000B7031092B8031092B9031092B20310929C
:1056A000B3031092B4031092B5030091C703109195
:1056B000C80301151105B9F08091E8029091E90243
:1056C0000E947405893C910570F04EE0049FC00172
:1056D0001124FC01E05EFE4F208122FD04C0855EA6
:1056E0009E4F0E94D013809109038823D1F18091AD
:1056F0000803E091AD03E695E81BE09304038230D4
:1057000009F03BC1F0E0EB57FD4FE4910E2F10E0A4
:1057100098E9E92E9EE0F92E80910503882361F037
:10572000109205030E948F05909303038093020358
:1057300010920703109206030E948F05E091020366
:10574000F09103038E1B9F0B8F3F9F4750F4E00F98
:10575000F11FF0930303E093020382E093E0F7016B
:10576000099586E0ECEFF2E0DE01119601900D92D2
:105770008A95E1F71092FE021092FF021092000348
:10578000109201038B819C81892B09F44AC080917E
:10579000FA029091FB020E9474059C019091F5021F
:1057A000992309F427C325313105D8F19F3F19F01A
:1057B0009F5F9093F5021B81112359F00E946207AD
:1057C0009FEF11160CF491E0899F802D1124809396
:1057D000FE021C81112359F00E9462079FEF1116EF
:1057E0000CF491E0899F802D11248093FF02309169
:1057F000FE023323B1F02091FF02222391F045EB0A
:105800003403C0011124992309F423C19093FE02AB
:1058100045EB240390011124332309F41DC1309377
:10582000FF028D819E81892B09F44AC08091F80284
:105830009091F9020E9474059C019091F6029923BF
:1058400009F4D3C221353105D8F19F3F19F09F5F8C
:105850009093F6021D81112359F00E9440079FEF9B
:1058600011160CF491E0899F802D11248093000380
:105870001E81112359F00E9440079FEF11160CF46E
:1058800091E0899F802D11248093010330910003C2
:105890003323B1F020910103222391F045EB34032F
:1058A000C0011124992309F4DAC09093000345EB59
:1058B000240390011124332309F4D4C0309301034D
:1058C00046E050E0BE016F5F7F4F8CEF92E00E9498
:1058D0001F30892B61F48091FE029091FF02892B89
:1058E00090910003892B90910103892B11F00E9464
:1058F000190786E0FE013196ACEFB2E001900D92FF
:105900008A95E1F70E94E505182F8091EA021817A1
:1059100039F01093EA020E948305812F0E94AC0E99
:105920008091F903843009F0A5CD83E08093E900EC
:105930008091E80082FF9ECD8091E80090E085FF95
:1059400006C00E943604882309F48FC091E080913C
:10595000E8008B778093E800992309F48BCD898147
:10596000EFEFE80FE33108F0A7C0F0E0E35DFE4C95
:105970000C94412F0E94FB1381CE863059F4F0E045
:10598000EE57FD4FE4910E2F10E088E8E82E8EE0F0
:10599000F82EC2CE893061F4E695F0E0E158FD4F73
:1059A000E4910E2F10E0BCEFEB2EBDE0FB2EB4CE49
:1059B0008F3061F4E695F0E0E458FD4FE4910E2F4E
:1059C00010E0A7E9EA2EADE0FA2EA6CE853159F413
:1059D000F0E0E758FD4FE4910E2F10E0F9E4EF2ED0
:1059E000FDE0FF2E99CE08E210E06EECE62E6CE0B2
:1059F000F62E883109F490CE833249F4E7E7F2E0DD
:105A000005911491E7E3EE2EEEE0FE2E85CE04EF35
:105A100011E057E9E52E5CE0F52E843209F47CCEE6
:105A200000ED17E049E6E42E46E0F42E853209F059
:105A300073CE8E2F63E00E94FF2EE92FF0E0EC582A
:105A4000FD4FE4910E2F10E07EE1E72E71E1F72E7D
:105A500063CE5092FE02DCCE5092FF02E2CE509214
:105A6000000325CF509201032BCF00E210E0CE01BE
:105A700001967C018091E80085FD0AC08091E800D4
:105A80008B778093E8000E943604882399F35ECFD9
:105A90008091F100D7018D937D010150110951F7DB
:105AA00055CF1A828CE08B831BC08A81823009F427
:105AB00093C128F4813061F08FEF898311C0833066
:105AC000C1F08430C9F71B821C821D821E8208C06F
:105AD0000E9483050E94472F6B837C838D839E8366
