:100000000C94DB030C9413040C9413040C9413044D
:100010000C9413040C9413040C9413040C94130404
:100020000C9413040C9413040C9416280C94D227EB
:100030000C9413290C9413040C9413040C941304BF
:100040000C9413040C9413040C9413040C941304D4
:100050000C9413040C94EF280C9413040C941304C4
:100060000C9413040C9413040C9413040C941304B4
:100070000C9413040C9413040C9413040C941304A4
:100080000C9413040C9413040C9413040C94130494
:100090000C9413040C9413040C9413040C94130484
:1000A0000C9413040C9413040C941304050109021A
:1000B000A10185020901A1000509190129081500FE
:1000C0002501950875018102050109300931158165
:1000D000257F95027508810609381581257F9501D0
:1000E00075088106050C0A38021581257F95017572
:1000F000088106C0C005010980A101850319012AF4
:10010000B700150126B700950175108100C0050CD8
:100110000901A101850419012AA002150126A002E6
:10012000950175108100C005010906A1018506052C
:100130000719E029E71500250195087501810205D9
:1001400007190029EF1500250195F07501810205B9
:10015000081901290595057501910295017503910D
:1001600001C00660FF0961A1010962150026FF00B8
:100170009520750881020963150026FF00952075FA
:10018000089102C005010906A101050719E029E748
:1001900015002501950875018102950175088101F9
:1001A0000507190029FF150026FF0095067508812F
:1001B000000508190129059505750191029501753C
:1001C000039101C0000000000000000000000000DA
:1001D000000000000000000000000000000000001F
:1001E00000000000000000007E0F00D4FFFFFFC7EA
:1001F0000000007800000000000000002A2B28000A
:1002000000000000000000000000000000000029C5
:10021000000000002C1E3420212224342627252E05
:10022000362D3738271E1F2021222324252633333D
:10023000362E37381F0405060708090A0B0C0D0E69
:100240000F101112131415161718191A1B1C1D2F35
:100250003130232D350405060708090A0B0C0D0E55
:100260000F101112131415161718191A1B1C1D2F15
:100270003130354C00047F3F1F64321464321478EF
:100280003C1E1E140A0500010101010101010101CA
:100290000202020202020202020303030303030337
:1002A0000304040404040404050505050506060604
:1002B0000606070707070708080808090909090AC1
:1002C0000A0A0B0B0B0C0C0C0D0D0D0E0E0E0F0F66
:1002D0000F101011111112121313141415151616F4
:1002E0001717181819191A1A1B1B1C1D1D1E1E1F63
:1002F0002020212222232424252626272829292AB2
:100300002B2C2D2D2E2F30313232333435363738D9
:10031000393A3B3C3D3E3F404142434445464748D5
:10032000494A4C4D4E4F50515354555658595A5BAB
:100330005D5E5F616264656668696B6C6D6F70724B
:10034000737577787A7B7D7E8082838587888A8CB7
:100350008E8F91939596989A9C9EA0A2A3A5A7A9EB
:10036000ABADAFB1B3B5B7BABCBEC0C2C4C6C9CBE2
:10037000CDCFD1D4D6D8DBDDDFE2E4E7E9EBEEF098
:10038000F3F5F8FAFDFFFFAA7F5540222325262822
:10039000292A2C2D2F3032333536383A3B3D3E401A
:1003A00042434547494A4C4E5051535557595A5C60
:1003B0005E6062646668696B6D6F71737577797B77
:1003C0007D7F81838587898A8C8E90929496989A76
:1003D0009C9E9FA1A3A5A7A8AAACAEAFB1B3B4B68B
:1003E000B8B9BBBCBEBFC1C2C3C5C6C7C9CACBCCE6
:1003F000CDCED0D1D2D2D3D4D5D6D7D7D8D9D9DAB9
:10040000DADBDBDBDCDCDCDCDCDDDDDDDDDCDCDC2D
:10041000DCDCDBDBDBDADAD9D9D8D7D7D6D5D4D355
:10042000D2D2D1D0CECDCCCBCAC9C7C6C5C3C2C12A
:10043000BFBEBCBBB9B8B6B4B3B1AFAEACAAA8A787
:10044000A5A3A19F9E9C9A98969492908E8C8A893F
:10045000878583817F7D7B79777573716F6D6B691C
:1004600068666462605E5C5A5957555351504E4CF1
:100470004A4947454342403E3D3B3A3836353332A0
:10048000302F2D2C2A29282625232229001E001F43
:100490000020002100220023002400250026002740
:1004A000002D002E002A004A004B002B0014001AD9
:1004B000000800150017001C0018000C00120013A3
:1004C000002F00300031004D004E00005704001690
:1004D00000070009000A000B000D000E000F00339A
:1004E00000340028002A0000000000E100E1001DA7
:1004F000001B00060019000500110010003600372F
:100500000038000157015752000000E000E300E20C
:100510000000002C0000002C0000002C000000E671
:10052000000257E400500051004F0035003A003BF4
:10053000003C003D003E003F0040004100420043BF
:10054000004400450001000100490001004A00523A
:10055000004D004B000100010001000100010001FD
:10056000000100010001000100460001005000519F
:10057000004F004E000100010001000100010001D8
:1005800000010001004C000000000001000100011A
:10059000000100B20001000100110A29030100015D
:1005A0000001000100010001000000010001000144
:1005B000000000010000004C0000000100000001EC
:1005C000000100656101000100010001000100015E
:1005D0000001000100010001005F006000610001F6
:1005E000005600570001000100A60001004A005219
:1005F000004D004B00010001005C005D005E000149
:10060000005500540001000100010001005000519C
:10061000004F004E000100010059005A005B00012C
:1006200000010001000100000000000100010001C4
:10063000000100B2000100010001006200620063DD
:1006400000530001000100010000000100615D0194
:100650000000000100000001000000010000000196
:100660000001000100010001000100C25CCD5C013D
:10067000000100145CAA00A900AE00A8000100015E
:10068000000100010001000100005C010001000107
:100690000001000100010001000100010001000152
:1006A0000001000100010001000100010001000142
:1006B0000001000100010001000100010001000132
:1006C0000001000100010000000000010001000124
:1006D0000001000100010001000100100301000100
:1006E0000001000100010001000000010001000103
:1006F00000000001000000010000000100000001F6
:10070000001050010001000100010009025B00031C
:100710000100A0FA090400000103010100092111F0
:1007200001000122400007058103080001090401BE
:10073000000203000000092111010001222200072C
:1007400005820320000107050303200001090402BC
:1007500000010300000009211101000122B6000779
:1007600005840320000112010002000000086B70E4
:1007700011000100010200011C0369006B006B0005
:1007800069003600380020004100750072006F00DB
:100790007200610000001A03770075007100750097
:1007A00065002000730074007500640069006F002C
:1007B00000000403090411241FBECFEFDAE0DEBFFE
:1007C000CDBF04B603FE18C08091900390919103B1
:1007D000A0919203B09193038730904BA740B04B08
:1007E00059F4109290031092910310929203109278
:1007F0009303E0E0F8E3099511E0A0E0B1E0EEEB4F
:10080000F1E602C005900D92A43FB107D9F723E0AD
:10081000A4EFB1E001C01D92A039B207E1F70E9438
:100820003A290C94B4300C940000E8EDF0E080819B
:100830008E7F80831092E2001092DA001092E10025
:10084000A0EEB0E08C9181608C9380818F77808363
:1008500019BCA7EDB0E08C918E7F8C9380818F7E48
:1008600080831092580308952091E4003091E500B0
:1008700095E6A9012091EC00822F817020FF06C02F
:100880008091E80080FF06C080E008952091E80094
:1008900022FD1AC080917D03882389F0853089F07C
:1008A0008091EB0085FD0FC02091E4003091E500C0
:1008B00042175307F9F29150E1F684E0089582E07F
:1008C000089583E0089581E00895EF92FF920F93D9
:1008D0001F93CF937C018B010E943404C82F811198
:1008E00017C08091E80085FD0BC08091E8008E77ED
:1008F0008093E8000E943404882399F3C82F08C02D
:10090000F70181917F018093F1000150110949F7AE
:100910008C2FCF911F910F91FF90EF9008958091B0
:100920007F0387FF13C08091E80082FF06C080919B
:10093000E8008B778093E80004C080917D038111EB
:10094000F2CF089580917D038823D9F38091E80048
:1009500080FFF8CF8091E8008E77ECCF982F9093AE
:10096000E900242F762F50E0891731F07091EC00C8
:100970002091ED005091F00021FD07C09F5F97305E
:1009800071F78093E90081E008953091EB003E7F9C
:100990003093EB003091ED003D7F3093ED003091CE
:1009A000EB0031603093EB007093EC002093ED008E
:1009B0005093F0002091EE0027FDE0CF80E00895F5
:1009C000B0E0A0E0E6EEF4E00C94F72FC8EDD0E044
:1009D00088818F7E8883E7EDF0E08081816080836D
:1009E00084E082BF81E08093580388818E7F888372
:1009F00002EE10E0F80110821092DA0081EEC82EAB
:100A0000D12CF601108288818F7788838881806855
:100A1000888388818F7D888319BC10927D03109212
:100A20007E0310927C0310927B0390EEE92EF12C52
:100A3000F70180818B7F808388818160888342E099
:100A400060E080E00E94AE04F60180818E7F8083AA
:100A5000F801808181608083808188608083F701D4
:100A600080818E7F8083888180618883CDB7DEB767
:100A7000E8E00C941330FC0180918503909186038B
:100A800086179707A0F06115710529F49091E80089
:100A90009E779093E80090E06115710551F49111F3
:100AA00008C08091E80082FF34C080E00895BC0156
:100AB000F2CF80917D038823C1F18530C1F180910F
:100AC000E80083FD30C08091E80082FDEACF80918C
:100AD000E80080FFE1CF8091F3002091F200382FF1
:100AE0006115710519F02830310558F091E0283072
:100AF000310509F090E02091E8002E772093E8007E
:100B0000CBCF81918093F100615071092F5F3F4FEE
:100B1000E7CF80917D03882341F0853041F08091BB
:100B2000E80083FFBECF81E0089582E0089583E06E
:100B30000895089580915A0308959C014FB7F89441
:100B40008091510390915203A0915303B0915403AB
:100B50004FBF821B930B08952FB7F89460915103F8
:100B60007091520380915303909154032FBF0895C5
:100B70002FB7F8948091510390915203A0915303A1
:100B8000B09154032FBF089520914E0330914F032D
:100B90002817390771F090934F0380934E03E0912B
:100BA0004C03F0914D03309721F00084F185E02D46
:100BB0000995089520914A0330914B03281739076E
:100BC00071F090934B0380934A03E0914C03F091B2
:100BD0004D03309721F00680F781E02D09950895A7
:100BE000E0914C03F0914D03309729F00190F08192
:100BF000E02D0995089580E00895CF93DF93EC01EF
:100C000040913B0350913C0360913D0370913E0342
:100C10002FB7F8948091510390915203A091530300
:100C2000B09154032FBF841B950BA60BB70B843FC9
:100C30009140A105B10518F580913B0390913C03CB
:100C4000A0913D03B0913E03809337039093380306
:100C5000A0933903B0933A0384EF91E0A0E0B0E0B1
:100C60008093330390933403A0933503B0933603FA
:100C7000D0934303C0934203DF91CF9108950E9424
:100C8000AC056093370370933803809339039093D6
:100C90003A0382E390E0A0E0B0E0E2CFFC0184817F
:100CA000862351F492819923B9F06923808583FFCB
:100CB00005C081E061110FC080E00895892F8F7019
:100CC00092959F70982B862F8F7062956F70682B0E
:100CD00081E09613F1CF089581E0FDCFFA018111F3
:100CE00001C0FB0109950895089580912E03982F66
:100CF0009E7F29F48170826080932E0308958A3448
:100D0000E8F381708864F8CFAF92BF92DF92EF92E0
:100D1000FF920F931F93CF93DF93082F162FE901B4
:100D2000E42FF0E0EA57FD4F611110C0E4915E2F0F
:100D30004E2F4983E8835A83DF91CF911F910F9102
:100D4000FF90EF90DF90BF90AF900895E62EF12CCA
:100D50004491D42EE42FF0E026E0829FC0011124BC
:100D60002FEF30E0B9010E94652F802F90E0880FAF
:100D7000991F55E5569FD001579FB00D11248A1B2E
:100D80009B0B982F990F890F5901AE18BF08AE9E83
:100D9000D001AF9EB00DBE9EB00D11245B2F189FE9
:100DA00080011124012F11275901A01AB10AAE9E0A
:100DB0008001AF9E100DBE9E100D11245901A81A7E
:100DC000B108AE9CC001AF9C900DBE9C900D11244B
:100DD000892F9927281B390B2E9FC0012F9F900D1B
:100DE0003E9F900D1124E92F62307105A1F050F45F
:100DF0006115710509F49DCF6130710581F0EB2F0C
:100E0000512F97CF6430710569F080F0663071051D
:100E100009F48FCFF4CFE42F4B2F592F8ACFE42F33
:100E2000412F87CFEB2F542F492F83CF4B2F5D2D91
:100E3000E12F7FCF0E94B8059C019091E302809141
:100E4000E402982B21F03093E0022093DF0290918E
:100E5000E5028091E602982B21F03093DE02209388
:100E6000DD02E0914C03F0914D03309749F082E0B0
:100E70008093E1020480F581E02D81EE92E00995F6
:100E800008954091E302803F59F48091E40287FF86
:100E90000DC01092E40241110BC01092DB0208C099
:100EA000813F81F48091E40218169CF3442381F081
:100EB0008091E5029091E602892B09F05AC01092C8
:100EC000DA020895823F49F447FFF0CF1092E3021F
:100ED0008091E4028111ECCFE0CF833F19F4141626
:100EE000ACF3E4CF9091E502893F29F41916F4F6AA
:100EF0001092E502DBCF8A3F19F497FFD7CFF8CFE6
:100F00009091E6028B3F29F497FFD0CF1092E60232
:100F1000CDCF8C3F19F41916CCF3C8CF9CE0980FB5
:100F2000953090F4845F990B21E030E0B90102C064
:100F3000660F771F8A95E2F7CB0180959091E202C8
:100F400089238093E202B2CF8D3F31F48091DC029D
:100F50008E7F8093DC02AACF8E3F21F48091DC0249
:100F60008D7FF7CF8F3F09F0A1CF8091DC028B7F7F
:100F7000F0CF08958091DC0280FD16C081FD16C07F
:100F800082FD16C08091DA028823A1F0883280F4B5
:100F900028E0829FC001112468E270E00E94792F4E
:100FA000862F672B39F0089582E0089584E0089534
:100FB00088E0089581E008958091DC0280FD14C0EE
:100FC00081FD14C082FD16C08091DB02882381F070
:100FD0008E3180F420E5829FC00111246EE170E023
:100FE0000E94792F862F089584E1089588E208955C
:100FF00088E0089580E50895803F31F40E94DC0781
:1010000081958093E4020895813F19F40E94DC07E2
:10101000F8CF823F31F40E94DC0781958093E30290
:101020000895833F19F40E94DC07F8CF893F29F423
:101030000E94BA078093E50208958A3F21F40E9436
:10104000BA078195F7CF8B3F31F40E94BA0781959B
:101050008093E60208958C3F19F40E94BA07F8CFF6
:101060009CE0980F953070F4845F990B21E030E09C
:1010700001C0220F8A95EAF78091E202822B8093C9
:10108000E20208958D3F31F48091DC02816080930B
:10109000DC0208958E3F21F48091DC028260F7CF5C
:1010A0008F3FB9F78091DC028460F1CF80E0089532
:1010B000F894E82FE295EF70F0E031A1282F2F701F
:1010C00081E090E001C0880F2A95EAF7982F90956B
:1010D000932391A392A1892B82A378940895909150
:1010E0008E0392FF06C0282F28712830F9F4877FDD
:1010F000846093FF06C0282F28712831F1F4877E81
:10110000846120918F0320FF06C0382F387138305A
:10111000D9F4877F816021FF06C0282F28712831EC
:10112000D1F4877E816194FD877E0895282F2471F4
:101130002430F9F68B7F8860DCCF282F247124318E
:1011400001F78B7E8861DDCF382F3171313019F78F
:101150008E7F8860E0CF282F2171213121F78E7E8C
:101160008861E1CFCF93DF93EC0182389105A9F13B
:10117000D8F58133910509F496C048F58932910577
:1011800009F48AC08A9709F495C0C11521E5D207F0
:1011900008F0BCC0C11530E5D30708F014C1C83E43
:1011A000D10508F09CC0C03ED10560F5C83AD10514
:1011B00008F087C0C53AD10508F0FDC0C130D1059F
:1011C00009F12097F9F0C430D105E0F440C085332F
:1011D000910509F45AC0C997C1F680918E038370B6
:1011E00089F0C0EED0E00EC0833E910599F170F415
:1011F000803E910501F1823E910539F680918E0382
:1012000082FD21C0CE01DF91CF910895863E9105E8
:1012100061F1873E910571F1843E910509F0B5CFEA
:1012200080918F0381FFEECF80918E03C7EED0E0D7
:1012300084FD0DC0E7CF80918E0380FD12C1909197
:101240008F0390FFDFCFC3EED0E084FFDBCFD0E091
:10125000C0E0D8CF80918E0382FD06C190918F03AC
:1012600090FDBFCF84FFCECFF2CF80918E0383FD60
:10127000DDCFC8CF80918E0383FDF9C090918F039D
:1012800091FFF0CFC4EED0E0BDCF80918E0385FFFB
:10129000B9CFC9E2D0E0B6CF80918E0385FFB2CF3F
:1012A000C5E3D0E0AFCF80918E0386FFABCFCAE21B
:1012B000D0E0A8CF80918E0386FFA4CFC1E3D0E019
:1012C000A1CFCF3BD10518F6C85AD0E0CC0FDD1F17
:1012D000C458DE4F0990D881C02DD46493CFC11576
:1012E00040E2D40758F4C11581E0D80708F08ACF4E
:1012F000C03FD10508F4ABCFD06584CFC11590E4D1
:10130000D90708F4A4CFDF70D06A7CCFC11525E5DA
:10131000D20700F5C11534E5D30708F08AC0C1151E
:1013200043E5D40708F071C0C11582E5D80708F479
:1013300067C0CE018370992721E030E002C0220F00
:10134000331F8A95E2F7C695C69580E2C89FE001F3
:10135000112452C0C11599E5D907A8F4C11528E593
:10136000D20708F06BC0C11536E5D30708F06FCF80
:101370008C2F0E946F08C82FD0E0DC2FCC27CC2701
:10138000DF71D0623FCFC1154AE5D40708F45BC0D6
:10139000CE0190568115904208F059CF8D2F8F7154
:1013A0000E946F0890E0982F882788279F719C01E2
:1013B0002C2BE901E6CFC55AD0E0C758DE4FC881D3
:1013C000D0E0D0641FCFCE01E4E096958795EA95F2
:1013D000E1F783702C2F26952695237040E2249FF9
:1013E00090011124382B8C2F8370C1E0D0E002C013
:1013F000CC0FDD1F8A95E2F7C22BD32BDC6802CF1E
:10140000DC2FCC27C16FD06AFDCECE018370992727
:1014100021E030E002C0220F331F8A95E2F7C69523
:10142000C69590E2C99FE0011124C22BD32BDA6844
:10143000E9CEDC2FCC27C46FD06AE4CEDC2FCC27DA
:10144000C06FD06ADFCE8C2F8F700E946F0834E09F
:10145000D695C7953A95E1F7CF709C2FEC01D069EE
:10146000D1CEC9E3D0E0CECEC2EED0E0CBCEC6EE38
:10147000D0E0C8CE8091B202882331F01092B2023F
:101480001092B1021092B002089580959091490394
:101490009823909349030895909169019923D1F07D
:1014A00090918E0397FF16C0E82FE695E695E69596
:1014B000EE31E0F4F0E0EA50FE4F282F277081E093
:1014C00090E001C0880F2A95EAF7809592818923E0
:1014D00082830895E8EFF1E09191891303C0DF0161
:1014E00011971C9291E0EE3FF907B1F708959091A2
:1014F00069019923C1F090918E0397FF14C0E82FE2
:10150000E695E695E695EE31F8F4F0E0EA50FE4F08
:10151000877021E030E001C0220F8A95EAF78281CE
:10152000822B82830895A8EFB1E0EFEF90E02D9138
:10153000821751F0EF3F19F4211101C0E92F9F5F8D
:101540009630A9F7EF3F09F408950E2E000CFF0B1B
:10155000EA50FE4FE6CF80918F0290915E02981381
:1015600001C008958F5F8770FACF953080F5803184
:1015700070F540E1949F90011124820F932F911DEB
:10158000682F677023E0969587952A95E1F7FC010F
:10159000EE0FFF1FE80FF91FE65CFD4F50E040E043
:1015A00080E0219130E0062E02C0369527950A94FE
:1015B000E2F721703327042E01C0220F0A94EAF7C4
:1015C000822B4F5F5F4F4330510559F7089580E0FC
:1015D0000895953098F5803188F540E1949F900109
:1015E0001124820F932F911D282F277041E001C0F5
:1015F000440F2A95EAF723E0969587952A95E1F717
:10160000FC01EE0FFF1FE80FF91FE65CFD4F90E0B5
:1016100080E070E05191DF0111979B01082E02C01C
:10162000369527950A94E2F72170219525272423E2
:1016300025272C9301968330910561F7089581FD4C
:1016400002C08F9A08958F980895982F92959F7051
:1016500011F0892F94E0282F2695269511F09E5F92
:10166000822F869509F09F5F892F08959C013A95F6
:1016700021153F4150F5FC01EE27F170BC016627B2
:101680007270AC01442754709C012227387094FF7B
:101690000EC080E1EF2B09F480E0672B09F0806237
:1016A000452B09F08064232B89F08068089581E040
:1016B000EF2B09F480E0672B09F08260452B09F0DD
:1016C0008460232B19F08860089580E00895FC0160
:1016D0009081913029F48285882331F083E0089548
:1016E000923021F081E0089582E0089584E0089529
:1016F00080935503709357036093560380917D0345
:101700008430F9F48093E9008FEF9091E8008150E4
:1017100095FD06C095ED9A95F1F700008111F5CF82
:101720008091E80085FF0DC050E040E063E070E08C
:1017300085E593E00E9465048091E8008E778093B0
:10174000E8000895BC0184E00E94780B0895BC0174
:1017500083E00E94780B08959C0184E08093E90067
:101760009FEF8091E800915085FD06C085ED8A9538
:10177000F1F700009111F5CF8091E80085FF0CC0D2
:1017800050E040E066E070E0C9010E94650480918D
:10179000E8008E778093E8000895CF93DF93EC0103
:1017A000809169018823B1F180918E0387FF32C057
:1017B00060E284E08093E9008FEF9091E80081502F
:1017C00095FD06C095ED9A95F1F700008111F5CFD2
:1017D0008091E80085FF1BC08091690170E050E0B6
:1017E00040E0811104C050E040E068E070E0CE01CC
:1017F0000E9465048091E8008E778093E80080E283
:10180000FE01ABE5B3E001900D928A95E1F7DF911F
:10181000CF91089568E081E0CDCF81E08093E00032
:1018200080E28093D8001092C9008FE19EE4019776
:10183000F1F700C0000087E090EBDC01809390039B
:1018400090939103A0939203B093930388E19CE05B
:101850000FB6F894A895809360000FBE9093600037
:10186000FFCF80912E0380FD0AC0E2EFF2E01182EB
:1018700010821282339653E0EE32F507C1F76A9A6E
:101880003EB13B7F2EB124604FB7F89482EF92E0D7
:10189000FC015191CF0168E02EB9000000C057FF54
:1018A0003EB9550F000000C000C000C03EB900C0E6
:1018B0006A9591F7F3E08E329F0751F74FBF8FE59E
:1018C00094E00197F1F700C000000895EF92FF92B5
:1018D0000F931F93CF93DF938C01C2EFD2E0F12CD3
:1018E000E12CF80194816091300380912F03FAE09C
:1018F000EF16F104ECF49923E9F09E0140913103D5
:101900000E9484062FEFE21AF20A239684E1E81679
:10191000F10439F70E94310CF801848190E00196BE
:10192000817099278483CDB7DEB7E6E00C9415303B
:10193000992319F39E0140E0E3CFB0E0A0E0E3EA91
:10194000FCE00C94F32FEC014C81042F10E0980183
:10195000D8010E94C42F9B01AC010E94DA2F4B01D9
:101960005C01E0E2F0E0E01BF10BA5E5B0E0AC01CA
:101970009B010E94DA2F6B017C019F01DF010E9415
:10198000BC2F9B01AC010E94E52F9B01AC01280DEF
:10199000391D4A1D5B1DC701B6010E948D2FF22E15
:1019A000822F90E039E23F1598F143E0249F9001A7
:1019B000112435952795122F109592EFC92E92E09C
:1019C000D92E00E085E5E82EEF188E2D01FD8F2D34
:1019D0009601412F609130030E9484060F5F53E00F
:1019E000C50ED11C043189F70E94310C9C8181E025
:1019F000992319F0903219F48FEF8093260180918A
:101A00002601890F8C83CDB7DEB7ECE00C940F3044
:101A100025E530E0A901481B590BCA019A01220FA4
:101A2000331F280F391F37FFC4CF2F5F3F4FC1CF60
:101A30000F931F93CF93DF93C2EFD2E0FE01118289
:101A400010821282339683E0EE32F807C1F710E07D
:101A500000E08091F002082E000C990B081719077E
:101A60008CF180912501082E000C990B80179107AD
:101A70004CF19E01409131036091300380912F031E
:101A80000E9484060F5F1F4F23960431110509F74A
:101A90000E94310C809124019091F002980F909354
:101AA000F00220912501280F20932501121614F42D
:101AB00093311CF0819580932401DF91CF911F9188
:101AC0000F910895198218821A82DCCFB0E0A0E04D
:101AD000ECE6FDE00C94F62FFC018281DD24DA9423
:101AE00080FD02C0DD24D39402EF12E0D0E0C0E01C
:101AF00024E1B22EF80111821082128294E0E92EC4
:101B0000F12CC12C8091EF028C0D8531C4F16B2D2D
:101B10000E94572F892F082E000C990B8C179D07B8
:101B200091F4809131038E9DA0018F9D500D112461
:101B3000559547955595479598016091300380914B
:101B40002F030E948406CD0CF1E0EF1AF108D1F6C4
:101B500021960D5F1F4FC431D10561F60E94310CF3
:101B60008091EF0291E0D91210C081110CC083E185
:101B70008093EF02CDB7DEB7E9E00C94123087FF17
:101B8000CACF8C5EC8CF8150F3CF90E00196BE01E2
:101B90000E94792FEDCFEF92FF921F93CF93DF93A7
:101BA000EC0182EFE82E82E0F82E10E08C819701A4
:101BB0004091310360913003810F0E948406145FCD
:101BC00083E0E80EF11C103F89F70E94310C9A81E6
:101BD0008C8190FF08C08F5F8C83DF91CF911F9124
:101BE000FF90EF9008958150F7CF90912E0390FFD2
:101BF0000CC0E2EFF2E0818360834283339693E08E
:101C0000EE32F907C1F70E94310C0895A3E0B0E06D
:101C1000ECE0FEE00C94FB2F8C018091F10281112D
:101C20000AC09E012F5F3F4F4FEF6FEF0E94840667
:101C30008A818093F102F8016481613069F08091BA
:101C4000F10240E0662361F040E0623011F440911F
:101C5000F10280E060E004C06091F10240E080E0C9
:101C60000E94F50DF801848190E0019663E070E038
:101C70000E94792F84832396E4E00C941730A3E02C
:101C8000B0E0E5E4FEE00C94FD2F90912E0390FF70
:101C90000AC09E012F5F3F4F0E9484064B816981DD
:101CA0008A810E94F50D2396E2E00C941930CF93BF
:101CB000DF93EC01EEE2F3E0438162818C810E94CC
:101CC0003F0E8C818F5F8C83DF91CF910895CF93EE
:101CD000DF93EC01EC81F0E0E557FC4F4491EEE23C
:101CE000F3E0628181810E943F0E8C818F5F8C8343
:101CF000DF91CF910895CF93C82F0E94250B82309A
:101D000071F0833081F04FEF6FEF813051F441E19A
:101D10006CEC8AEA0E94F50D8C2FCF91089540E07B
:101D200069E98FEFF7CF47E760E08EEEF3CFCF930F
:101D3000DF93C7EAD2E060E0CE010E9466302196D0
:101D4000C11584E0D807B9F7DF91CF9108951F93AB
:101D5000CF93DF93122F8430E0F46530D0F440311C
:101D6000C0F490E2699FE001112450E0440F551F38
:101D7000C40FD51F90EA899FC00DD11D1124632F78
:101D8000CE0187960E946630612FCE0188960E9410
:101D90006630DF91CF911F910895AF92BF92CF929D
:101DA000DF92EF92FF921F93CF93DF938BE8C82EC1
:101DB00084E0D82ED0E07601C0E014C0F501259172
:101DC0003491412F6C2F8D2F0E94A70E82E0A80E18
:101DD000B11C1F5F103191F780E2E80EF11CCF5F5C
:101DE000C53019F0570110E0E9CFDF5F80EAC80E77
:101DF000D11CD43001F7DF91CF911F91FF90EF906C
:101E0000DF90CF90BF90AF900895CF93C82F6FEF22
:101E1000811161E283E290E00E9466306FEFC111B0
:101E200067E084E290E00E9466306FEFC11165E1E7
:101E300085E290E00E946630CF91089580E00E9494
:101E4000050F60E086E290E00E9466300E94CD0EB1
:101E50000E94970E81E00E94050F0895CF93C92F2D
:101E6000682F84E090E00E9466306C2F82E290E060
:101E70000E946630CF9108950F931F93CF93DF9305
:101E8000843030F5653020F5403110F520E2629F56
:101E90008001112450E0440F551F040F151F30EA34
:101EA000839F000D111D1124C80187960E94523096
:101EB000C82FD0E0DC2FCC27C80188960E94523072
:101EC0009E01282BC901DF91CF911F910F91089599
:101ED00090E080E0F8CF462F843040F4753030F445
:101EE000603120F4672F0E943C0F089590E080E05D
:101EF0000895CF92DF92FF920F931F93CF93DF93BA
:101F00006C0100918A038091B302082BC7E0D0E0F6
:101F100010E0FC2EC8010C2E02C0959587950A94FE
:101F2000E2F780FD0CC02197A0F7F12C8F2DDF91F7
:101F3000CF911F910F91FF90DF90CF900895B60140
:101F40008C2F0E946B0F0E94B208019761F3EECFB5
:101F5000CF93DF93EC010E94790FBE010E946B0FBB
:101F60000E94B208DF91CF910895FC018081918198
:101F70000E94A80F92959F70963091F058F4925F4E
:101F80009F70923058F4803F19F030F4883E30F45E
:101F900081E008959A5FF4CF843FD1F380E0089503
:101FA000883EB0F3813FD1F7F3CF83E290E00E9407
:101FB0005230813289F484E290E00E9452308730BE
:101FC00059F485E290E00E94523091E0853109F0A9
:101FD00090E0892F8170089580E0FCCFCF9384E05A
:101FE00090E00E945230C82F82E290E00E9452306E
:101FF000982F8C2FCF91089560912E03669570E0F5
:102000004BE050E089E191E00E949A30892B19F46D
:1020100081E08093EE020E94B8059093E8028093DD
:10202000E7020895CF92DF92EF92FF926B017C015D
:102030000E947506B701A60188E090E00E94783002
:10204000FF90EF90DF90CF900895A3E0B0E0EBE237
:10205000F0E10C94F02FF82E762EE42E622E909163
:102060002E0390FF29C0E92FE695AE2FB0E0A154D2
:10207000BE4F8C918093ED029E7F923009F59E01B8
:102080002F5F3F4F8F2D0E9484064B8169818A818B
:102090000E94F50DF0922F0370923003E09231030D
:1020A000662051F060912E0370912F0380913003D0
:1020B000909131030E9412102396EFE00C940C30A3
:1020C000823019F4E0903103E5CF863019F4F090B6
:1020D0002F03E0CF8930D9F38931E1F6E9518E2F12
:1020E0008170582EE695F0E0EA57FC4FE4910E2FF0
:1020F00010E082EFC82E82E0D82EB12CA12C94E102
:10210000892E912CC501B4010E94652F8F2D51108D
:1021100013C0860F96014E2D672D0E948406A00ED7
:10212000B11E83E0C80ED11C8EE2C81683E0D8062B
:1021300049F70E94310CAECF861BECCFEEE2F3E004
:10214000438128E0421B08F440E021E06281818164
:102150000E9425100895EEE2F3E0438128E0420F4B
:1021600008F44FEF21E0628181810E9425100895DB
:10217000EEE2F3E0628128E0621B08F460E021E017
:10218000438181810E9425100895EEE2F3E062818F
:1021900028E0620F08F46FEF21E0438181810E9403
:1021A00025100895EEE2F3E0818121E04381628110
:1021B00088500E9425100895EEE2F3E0818121E02D
:1021C00043816281885F0E942510089580913203C7
:1021D000882319F081508093320360912E0370910F
:1021E0002F0380913003909131030E9412100895C3
:1021F00080913203833018F48F5F809332036091B3
:102200002E0370912F0380913003909131030E942F
:102210001210089590912E0390FF2CC0917081119F
:102220002AC0926090932E03662351F060912E0392
:1022300070912F0380913003909131030E9412100E
:1022400060912E03669570E04BE050E089E191E0EB
:102250000E949A30892BB1F01092EE0281E08093B7
:10226000EA0220E0409131036091300380912F0316
:102270000E9425100895853210F09864D3CF880FFE
:10228000982BD0CF0E94FC0FE9CF80912E0386952A
:10229000815009F484E261E00E940A11089580915E
:1022A0002E0386958F5F853208F081E061E00E9401
:1022B0000A11089590912E0390FF08C096959817E3
:1022C00028F0961718F40E944F11089561E00E94BB
:1022D0000A110895EEE2F3E083E0808311828FEF2C
:1022E00082838383148260817181828193810E94C1
:1022F00012100895AAE0B0E0E0E8F1E10C94EF2FAD
:102300008E010F5F1F4F8AE0F80111928A95E9F75D
:102310009AEAE92E91E0F92E68012FEA422E21E097
:10232000522E66246394712C4FEB842E41E0942E40
:10233000F70181917F018F3F09F445C0F894E82FA0
:10234000E295EF70F0E021A18F70A30102C0440F6D
:10235000551F8A95E2F7CA01922F982B91A392A15B
:102360008095892382A3789400C0EFEAF1E021E010
:1023700030E0B12CA12C41914F3F09F47EC0A42F35
:10238000A295AF70B0E090968C9190E04F7002C033
:10239000959587954A95E2F780FD6FC0C901A82AF7
:1023A000B92A220F331F8E169F0629F7F70131979E
:1023B00080818F3F11F00E94580850EA5A95F1F73A
:1023C000F601B182A082F2E0CF0ED11C4E145F0460
:1023D00009F0AECF4AE050E0B80187EB92E00E94EE
:1023E000A730FF24F394009709F4F12C892B09F40A
:1023F00047C08AE0F801A7EBB2E001900D928A9500
:10240000E1F781E08093B6020E94B8059093B5028F
:102410008093B4028091B4029091B5020E949D0510
:10242000059790F18091B7029091B8029093D102F4
:102430008093D0028091B9029091BA029093D30216
:102440008093D2028091BB029091BC029093D502FE
:102450008093D4028091BD029091BE029093D702E6
:102460008093D6028091BF029091C0029093D902CE
:102470008093D8021092B60207C090E080E08FCF20
:102480008091B6028111C6CF8F2D2A96E0E10C947F
:102490000B30CF938091490390914803892B80930F
:1024A000F6018091B202882339F10E94B80520918B
:1024B000B0023091B102821B930B8C3D954010F01D
:1024C0000E943A0A8091F6019091B202892B809382
:1024D000F60180916901882309F447C080918E0339
:1024E00087FF43C08EE1E8EFF1E090E0815008F013
:1024F0003EC091110E943A0AC0913F03C09580915D
:10250000F601C82380914003C82BC093F60140E236
:1025100050E060E972E086EF91E00E94A730892BDD
:1025200011F180E2E6EFF1E0A0E9B2E001900D9256
:102530008A95E1F7E0914C03F0914D03309799F0C3
:1025400080916901882349F080918E0387FF05C03F
:10255000C093F70186E08093F6010280F381E02DBD
:1025600086EF91E00995CF91089586E0BCCF219147
:10257000222309F4BBCF9F5FB9CFCF93DF93EC0148
:1025800081E0898B809149039F81892B8093490346
:10259000809148039885892B809348030E944912B3
:1025A000EA81FB81309729F06C897D89CE010696FE
:1025B0000995DF91CF910895EF92FF920F931F93AA
:1025C000CF93DF93EC018A85811139C0EB80FC80C9
:1025D00087E5F81A26E12E9DC0012F9D900D11244C
:1025E000DC01A95DBE4F1496ED91FC9115973097D3
:1025F00031F054966D917C91835D9E4F099586E1F3
:102600008E9D80018F9D100D1124095D1E4FF801D4
:1026100087810E94450AF8018085982F90958091C6
:1026200048038923809348030E944912188219861F
:102630001B861E821D821092470310924603CDB75F
:10264000DEB7E6E00C94153090E080E00E94DA05F9
:1026500090E080E00E94C405109248030E94491255
:1026600086E0E1EEF2E0DF011D928A95E9F7109233
:10267000DB021092DA021092DC020E941A0708951F
:102680000E947B0E80938A030E94241308958091F8
:102690008A03982F9670963021F488600E94401328
:1026A0000895877FFBCF21E030E001C0220F8A959B
:1026B000EAF7209580918A0382230E9440130895AF
:1026C00090918D038095892380938D03282F277007
:1026D000B1F4282F082E000C330B9217130679F053
:1026E00090918F0392FF0BC08595859585950E94EB
:1026F000531310928D0310928C0310928B03089544
:1027000090918F0392FB222720F9281769F080FB14
:1027100092F990938F0380918E0390918F030E9482
:102720002E0F82E00E94601308958091070183308C
:1027300019F482E00E9453130895809105018330BB
:1027400019F481E00E94531310920501089521E0CD
:1027500030E001C0220F8A95EAF780918A03822B2C
:102760000E944013089590918F0392FF10C098E04B
:10277000899F90011124236020938D030E94A71349
:102780000E94B80590938C0380938B0308950E9458
:10279000A71308950E94670B809307018330A1F06F
:1027A000843041F0823099F40E94B31381E00E949A
:1027B0006013089580918A03882331F082FF04C05A
:1027C00082E00E945313089582E00E94A7130895A7
:1027D0008093B3020E9424130895882339F09091C6
:1027E0004803982B909348030E9449120895882328
:1027F00021F00E94450A0E9449120895882339F069
:1028000090914903982B909349030E94491208958F
:10281000882309F455C0823879F40E94F00581FFBD
:102820004FC089E30E94770A0E94491289E30E94FF
:102830004C0A0E9449120895833859F40E94F00509
:1028400080FF3EC083E50E94770A0E94491283E51B
:10285000EECF843859F40E94F00582FF31C087E43E
:102860000E94770A0E94491287E4E1CF9CEF980FFB
:10287000913AE8F290E2980F983050F4877091E026
:1028800001C0990F8A95EAF7892F0E94450AD1CF96
:102890009BE5980F933028F490E080E00E94DA05E1
:1028A000089598E5980F973128F490E080E00E9411
:1028B000C4050895803F20F00E9441070E941A0736
:1028C0000895FF920F931F93CF93DF93F82E0091FB
:1028D0004403109145030115110509F449C01092F4
:1028E00043031092420310923F0310924003D80119
:1028F0001696CD91DC919E013A9521153F4108F441
:10290000D07ED1E0C11101C0D0E0D8011996ED917F
:10291000FC911A97309731F01B966D917C9180E075
:102920000995D823DD2339F08CEF8C0F813A30F5EF
:102930008C2F0E944C0AFF2099F0E0914403F09103
:102940004503808584FD0CC080914103882341F0BC
:10295000808191819C01215031092C3A3D45A0F0A4
:102960000E944912109245031092440310924103B1
:10297000C801CDB7DEB7E5E00C9416300E944912CD
:102980008C2F0E940814D7CF0E94FD05E9CF8091BB
:102990000901833019F485EE0E9408140895CF933D
:1029A000C82F8823C9F08238C9F40E94F00581FD40
:1029B00013C089E30E94770A0E9449122FEF81EE2B
:1029C00094E0215080409040E1F700C0000089E38E
:1029D0000E944C0A0E944912CF9108958338A1F4B5
:1029E0000E94F00580FDF8CF83E50E94770A0E94DF
:1029F00049122FEF81EE94E0215080409040E1F7A2
:102A000000C0000083E5E4CF8438A1F40E94F00503
:102A100082FDE2CF87E40E94770A0E9449122FEFDD
:102A200081EE94E0215080409040E1F700C000002A
:102A300087E4CECF8CEF8C0F813A88F580916901C5
:102A4000882301F180918E0387FF1CC0EC2FE6954F
:102A5000E695E695F0E0EA50FE4F828190E04C2F3B
:102A6000477021E030E002C0220F331F4A95E2F7A1
:102A700082239323892B79F08C2F0E944C0A0E9489
:102A8000491209C0E8EFF1E08191C817A9F321E0EC
:102A9000EE3FF207C9F78C2F0E94770A9BCF80E2A6
:102AA0008C0F883068F4C77021E030E001C0220F3D
:102AB000CA95EAF780914903822B809349038ACF14
:102AC000EBE5EC0FE33040F4F0E0E758FE4F808197
:102AD00090E00E94DA0580CFE8E5EC0FE73150F492
:102AE000F0E0EE0FFF1FE458FE4F808191810E94BD
:102AF000C40572CFC03F08F46FCF8C2F0E94FC0733
:102B00000E941A0769CF1F93CF93DF93182FD0E04D
:102B1000C0E0893311F4C0E5D0E0812F0E94CF14CA
:102B2000209739F4812F0E940814DF91CF911F91D3
:102B300008958FE99FE00197F1F700C00000219709
:102B4000EFCF0F931F93CF93DF93C62FD42F022F76
:102B5000FC0182818823A9F0609389030E94B80553
:102B60009093880380938703C77081E001C0880F2A
:102B7000CA95EAF70E94FE13DF91CF911F910F9142
:102B8000089580918903681332C0809187039091E2
:102B900088030E949D05883C910548F510E21D0FB1
:102BA000CD17B9F080E28C0F883040F4C77081E017
:102BB00001C0880FCA95EAF70E94F713183048F44D
:102BC00081E09D2F977001C0880F9A95EAF70E94C7
:102BD000FE13802F0E948315183070F6D77081E0A5
:102BE00001C0880FDA95EAF70E94F713C5CFC770C6
:102BF00081E001C0880FCA95EAF7F6CF0E94670B03
:102C000080930501833091F0843031F0823089F473
:102C100089E30E948315089580918A03882331F007
:102C200081FF04C081E00E945313089581E00E9457
:102C3000A71308950E94670B80930901833059F010
:102C4000843069F08230C1F483E00E94B31381E0E4
:102C50000E946013089585EE0E94CF14089580911C
:102C60008A03882331F083FF04C083E00E9453135A
:102C7000089583E00E94A713089568EE7EEF90E028
:102C800080E00E94843060E082E090E00E94663044
:102C900060E083E090E00E9466301092B30260E052
:102CA00084E090E00E94663064E082E290E00E945E
:102CB000663060E085E090E00E94663060E086E08B
:102CC00090E00E9466306FEF87E090E00E946630EF
:102CD00040E050E0BA0188E090E00E94783060E087
:102CE0008DE090E00E94663040E050E0BA0188E15B
:102CF00090E00E94783060E087E190E00E946630CA
:102D000040E050E0BA018CE190E00E94783070E041
:102D100060E080E290E00E94843040E050E0BA0140
:102D200088E190E00E94783080E00E94050F0E94C8
:102D30001E0F40E050E0BA018FE090E00E94783032
:102D400040E050E0BA0183E190E00E9478300895BD
:102D50001092490380916901E8EFF1E0882361F066
:102D600080918E0387FF08C08EE1DF011D928A9556
:102D7000E9F70E942413089586E0F7CFAAE2B0E0B5
:102D8000E4ECF6E10C94FC2F8FE793E02091F10046
:102D9000DC012D93CD01B3E087389B07B9F7809113
:102DA0008003833009F472C0B8F4813009F449C05B
:102DB000823009F4B3C08091E80083FF8BC2809118
:102DC0007F03909180039A3008F084C2E92FF0E0ED
:102DD000EA54FF4C0C94AF2F8A3009F48EC08B302C
:102DE00009F471C0893039F780917F03813219F776
:102DF0008091830390918403009711F00297D9F694
:102E00008091E800877F8093E8008091E80082FF4E
:102E100038C09091F3008091F200029731F48091D4
:102E2000F100813011F0863021F48091F10080931F
:102E30005A038091E8008B778093E8000E948F040A
:102E4000BACF80917F03813A09F0B5CF8091E80035
:102E5000877F8093E8008091830390918403892B7E
:102E600061F460E28BE593E070E00E943B058091A5
:102E7000E8008B778093E8009ECF60E090E080E0F0
:102E8000F3CF80917D038111C0CF95CF80917F03D7
:102E9000813A09F090CF8091830390918403892B2C
:102EA00009F089CF8091E800877F8093E8008091C6
:102EB000E80080FFFCCF809169018093F100809150
:102EC000E8008E77B9CF80917F03813209F073CF0C
:102ED0008091830390918403892B09F06CCF8091BA
:102EE000E800877F8093E8000E948F04809181032F
:102EF000809369010E94A8165ECF80917F03813282
:102F000009F059CF8091E800877F8093E8000E9404
:102F10008F0480918203809359034DCF80917F036A
:102F2000813A09F048CF8091E800877F8093E800DC
:102F30008091E80080FFFCCF80915903BECF80389C
:102F400099F0823809F0C6C1809183038F70873071
:102F500008F0C0C18093E9008091EB0085FB8827D1
:102F600080F91092E90006C080917B0390917C0368
:102F7000911182609091E800977F9093E800809390
:102F8000F1001092F1008091E8008E779FC18823B4
:102F900009F48DC1823009F09DC1809181038111B6
:102FA00090C1809183038F702FEF280F263008F097
:102FB00091C18093E9002091EB0020FF82C1933002
:102FC00031F48091EB0080628093EB007AC19091A4
:102FD000EB0090619093EB0021E030E001C0220F04
:102FE0008A95EAF72093EA001092EA008091EB00BC
:102FF0008860EACF81116EC1109181031F778091A3
:10300000E3008078812B8093E3008091E800877F44
:103010008093E8000E948F048091E80080FFFCCF3D
:103020008091E30080688093E30082E0111183E0E7
:1030300080937D034FC18058823008F04BC12091AE
:103040008103309182032C3DE3E03E07A1F583E04C
:103050008A838AE289834FB7F894DE01139620E0D1
:103060003EE051E2E32FF0E050935700E49120FF5F
:1030700003C0E295EF703F5FEF708E2F90E0EA3073
:10308000C0F0C7968D939D932F5F243159F74FBFA2
:103090008091E800877F8093E8006AE270E0CE01CB
:1030A00001960E943B058091E8008B778093E800B1
:1030B00011C1C096E7CF8091830390918403432F81
:1030C00055274330510509F44AC078F54130510580
:1030D00009F47AC08BE590E0EBE0F7E0423051056F
:1030E00009F0F8C02091E800277F2093E8002091A4
:1030F0008503309186038217930708F49C0140E012
:103100002115310509F065C0411163C08091E800C7
:1031100082FDC9CF80917D03882329F2853019F281
:103120008091E80083FFF2CFBECF4132510509F410
:103130003CC04232510509F0CDC08330910508F002
:10314000C9C0FC01EE0FFF1FE951FE4F0190F08155
:10315000E02D8C519E4FDC018C9190E01AC03327FA
:1031600021303105D1F02115310561F022303105D2
:1031700009F0B0C0E8E7F7E0E4918E2F90E0E8E7CF
:10318000F7E007C0E2EBF7E0E4918E2F90E0E2EB8E
:10319000F7E0009709F49EC0A5CFE6E9F7E0E491D7
:1031A0008E2F90E0E6E9F7E0F4CF8330910508F048
:1031B00091C0880F991FFC01E351FE4F0190F081EF
:1031C000E02D89E090E08ECF82E190E0E6E6F7E046
:1031D00089CF80917D03882309F465CF853009F478
:1031E00062CF8091E80083FD5ECF8091E80082FD90
:1031F0008DCF8091E80080FF83CF9091F300809184
:10320000F2002115310519F08830910550F041E0A8
:10321000089709F040E08091E8008E778093E800FD
:103220006FCF44914093F1003196215031090196BE
:10323000E8CF803809F04EC08091E800877F809306
:10324000E80080917E038093F1009DCE811142C001
:10325000109181031230F0F58091E800877F809310
:10326000E80010937E030E948F04112311F084E084
:1032700005C08091E30087FDFACF81E080937D0354
:1032800042E061EC81E00E94AE0442E261EC84E045
:103290000E94AE0442E261EC82E00E94AE0442E28F
:1032A00060EC83E00E94AE0480917D0313C08091A6
:1032B0008103813079F481E0933009F080E08093DC
:1032C0007C031092E9008091E800877F8093E800FA
:1032D0000E948F048091E80083FF0AC08091E8007B
:1032E000877F8093E8008091EB0080628093EB0001
:1032F000AA96E3E00C9418300E94A8162FEF84E3FE
:103300009CE0215080409040E1F700C0000088E13F
:103310009CE00FB6F894A895809360000FBE909340
:103320006000FFCFAAE0B0E0E8E9F9E10C94ED2FEE
:103330003C01DC0113968D919C911497892B41F0EF
:103340008C9111969C9189238F3F11F00C948924C4
:103350002A96E2E10C9409300E94790F182F682F09
:1033600089819A810E94E90A69817A81812F0E946C
:103370006B0F1C01F301828181111EC0C1018150BC
:10338000954521018F3F910508F452C0D301129653
:103390009C90992009F419C3BFEF4B16510409F012
:1033A00008F461C0EAE24E16EDE55E0609F443C09A
:1033B000109236022101A0C080911701909118014E
:1033C0000196E1F207E211E0F12CE12CDD24D39427
:1033D00080911701909118018E159F057CF2D801FC
:1033E00016968C9116978823E9F019968D919C91E9
:1033F0008215930539F48091460390914703821515
:10340000930581F0F801D78634862386818981115E
:1034100003C0C8010E94BD12C80106960E94DC12BA
:1034200010924803FFEFEF1AFF0A0A5E1F4FD0CF3A
:1034300025E55226ABCF8091360291E08927809313
:10344000360280918D03877009F482CFF301828167
:10345000882309F47DCF80918F0382FF79CF82E0AA
:103460000E94601375CF80913602882309F43AC117
:1034700010923602F0EC4F16510408F08BC020E891
:103480004216510408F0F8C030E44316510408F025
:10349000BDC021E030E040E050E060E070E080E05E
:1034A00090E0042D0E942430E09116022E2BE09132
:1034B00017023E2BE09118024E2BE09119025E2B71
:1034C000E0911A026E2BE0911B027E2BE0911C0210
:1034D0008E2BE0911D029E2B209316023093170233
:1034E000409318025093190260931A0270931B02C2
:1034F00080931C0290931D02C20182519F45409708
:1035000010F00C9460248FEF93E00E9452308111F0
:1035100098CF0EEE040D67EA862E62E0962E01111A
:1035200070C31C821B82442443945AE0552E8401AC
:103530000F5F1F4FC4010E94523089831A82882373
:1035400009F47FCF9FEF980F933008F069C38A8307
:10355000498282E0880E911CC8010E9452308B8300
:10356000882309F46ECF8E010F5F1F4FD8012C9175
:103570002223E9F2213009F08DC311969C91119715
:1035800012968C91913009F04DC30E5F1F4F0E942F
:1035900083154EC38FEF4816510411F008F079CF10
:1035A00021E030E040E050E060E070E080E090E05A
:1035B0008201005C11090E942430E0912E022E2B22
:1035C000E0912F023E2BE09130024E2BE091310230
:1035D0005E2BE09132026E2BE09133027E2BE09164
:1035E00034028E2BE09135029E2B20932E023093D5
:1035F0002F02409330025093310260933202709355
:103600003302809334029093350276CF21E030E08C
:1036100040E050E060E070E080E090E08201005423
:1036200011090E942430E0911E022E2BE0911F020E
:103630003E2BE09120024E2BE09121025E2BE09187
:1036400022026E2BE09123027E2BE09124028E2B2E
:10365000E09125029E2B20931E0230931F0240937F
:1036600020025093210260932202709323028093E0
:1036700024029093250240CF21E030E040E050E06A
:1036800060E070E080E090E08201005811090E9443
:103690002430E09126022E2BE09127023E2BE09170
:1036A00028024E2BE09129025E2BE0912A026E2B1C
:1036B000E0912B027E2BE0912C028E2BE0912D02CB
:1036C0009E2B20932602309327024093280250938A
:1036D000290260932A0270932B0280932C0290930C
:1036E0002D020ACF90E44916510408F070C0E09111
:1036F0001602F0911702A0911802B09119022091C0
:103700001A022E8380901B0230911C023887809110
:103710001D028A8721E030E040E050E060E070E088
:1037200080E090E0042D0E942430A22EAE22B32E21
:10373000BF22C42ECA22D52EDB22EE80E622F72E2F
:10374000F820088508231A8519230E943D3009F0C6
:1037500031CE80EC4816510408F09EC090E849161E
:10376000510408F001C120E44216510408F0CBC016
:1037700021E030E040E050E060E070E080E090E088
:10378000042D0E94243020953095409550956095E9
:103790007095809590952E233F234A235B23AE811D
:1037A0006A237821B8858B23EA859E23209316020D
:1037B00030931702409318025093190260931A0233
:1037C00070931B0280931C0290931D023ACE90E8E6
:1037D00049165104F8F4E0911E02F0911F02A091E5
:1037E0002002B0912102209122022E838090230298
:1037F000309124023887809125028A8721E030E0C9
:1038000040E050E060E070E080E090E08201005431
:10381000110989CF90EC49165104F8F4E091260281
:10382000F0912702A0912802B091290220912A024A
:103830002E8380902B0230912C02388780912D02AC
:103840008A8721E030E040E050E060E070E080E016
:1038500090E082010058110966CFE0912E02F091AC
:103860002F02A0913002B0913102909132029E83DA
:1038700080903302209134022887309135023A87B4
:1038800021E030E040E050E060E070E080E090E077
:103890008201005C110947CF3FEF4316510411F03C
:1038A00008F066CF8201005C110921E030E040E0C1
:1038B00050E060E070E080E090E00E9424302095CD
:1038C00030954095509560957095809590952E23F4
:1038D0003F234A235B23BE816B237821E8858E2317
:1038E000FA859F2320932E0230932F0240933002BB
:1038F000509331026093320270933302809334020A
:10390000909335029ECD82010054110921E030E0F0
:1039100040E050E060E070E080E090E00E94243001
:10392000209530954095509560957095809590952F
:103930002E233F234A235B23FE816F237821A88512
:103940008A23BA859B2320931E0230931F02409343
:1039500020025093210260932202709323028093ED
:103960002402909325026DCD82010058110921E0B7
:1039700030E040E050E060E070E080E090E00E94E5
:1039800024302095309540955095609570958095A0
:1039900090952E233F234A235B23EE816E237821CB
:1039A000F8858F23AA859A23209326023093270235
:1039B000409328025093290260932A0270932B02AD
:1039C00080932C0290932D023CCD2FEF4216510490
:1039D00009F068F530E44316510408F0CEC0A09019
:1039E0001602B0901702C0901802D0901902E09011
:1039F0001A02F0901B02E0911C0210911D0221E0BE
:103A000030E040E050E060E070E080E090E0042DC5
:103A10000E942430A222B322C422D522E622F72219
:103A2000082F0E2319230E943D3009F40ACDE0E14E
:103A30002E16EFE53E0609F488C1F1E12F16FFE5E9
:103A40003F0609F48AC1210180910A01882309F403
:103A50006EC6620180EEC81AD1083090B202809121
:103A60004903382A98E0C916D10408F07FC19201B1
:103A70002770332781E090E001C0880F2A95EAF78C
:103A8000992009F470C1382AD3018D919C910E942C
:103A9000B50A21E030E0590102C0AA0CBB1C8A958E
:103AA000E2F7E0914403F0914503FF83EE83209118
:103AB00037023091380239872887212CE22DF0E037
:103AC000EE0FFF1FE050FF4F00811181011511051E
:103AD00009F4E1C6311005C0D80112968C9181110C
:103AE0007FC1F801838190E08A219B21892B09F411
:103AF00077C18085982F977009F487E0F8E0CF169A
:103B0000D10408F04DC1992009F446C18695817011
:103B1000882309F465C1D801ED90FC90E414F50404
:103B200019F4992009F45CC1EE81FF810E171F077B
:103B300009F456C1D8011D96ED91FC91309721F002
:103B40008081882309F44CC1632DC8010E944E0670
:103B5000882309F445C1E414F50409F060C7E114B1
:103B6000F10409F461C7911061C7E885F985EE1683
:103B7000FF0609F035C1912C59C780E84816510459
:103B8000A0F4A0901E02B0901F02C0902002D0901E
:103B90002102E0902202F0902302E0912402109191
:103BA000250290E4491A51082ACFA0EC4A16510484
:103BB000A0F4A0902602B0902702C0902802D090D6
:103BC0002902E0902A02F0902B02E0912C02109141
:103BD0002D02B0E84B1A510812CFA0902E02B090DF
:103BE0002F02C0903002D0903102E0903202F0906B
:103BF0003302E091340210913502F0EC4F1A510873
:103C0000FECE811424E0920609F41BCCC4010E946C
:103C10005230811101C001503FEF831A930A7FCCCB
:103C20004801A1CC923039F40E5F1F4F0E94CF148F
:103C30000F5F1F4F9BCC933029F40E5F1F4F0E94E4
:103C40000814F6CF943019F00F5F1F4FF1CF0E5FBD
:103C50001F4F30E020E0B8016F5F7F4FF8014181D6
:103C60008053990B8A30910550F02150310900F3AF
:103C70008FE99FE00197F1F700C00000F6CF529E58
:103C8000F001539EF00D11249C012E0F3F1F842F35
:103C90008B01E1CFE22FF0E0EC50FE4F3490822F09
:103CA00086958695869590E0FC01EC51FE4FC49078
:103CB0002770D12C022E02C0D594C7940A94E2F743
:103CC000A1E0CA22DD24FC01EC52FE4FA490B12CED
:103CD000022E02C0B594A7940A94E2F7B1E0AB2299
:103CE000BB24FC01EC53FE4FE490F12C02C0F59490
:103CF000E7942A95E2F7E1E0EE22FF24C114D10413
:103D000019F081EE0E94CF14A114B10419F086EECF
:103D10000E94CF14832D0E948315A114B10419F0C1
:103D200086EE0E940814C114D10419F081EE0E949D
:103D30000814E114F10409F47BCF8CE228CC81E073
:103D40000E94A7130E9447137CCB81E00E9453136B
:103D5000F9CF992011F082E0F3CF82E0F7CF81E034
:103D600080930A016ECB809538228ECE992009F47B
:103D70007BC550923802409237020E94AC05609396
:103D80003B0370933C0380933D0390933E0310925A
:103D900043031092420378CE82FB882780F9B8CE85
:103DA0009920F1F08170B4CE0E9408145DC604978A
:103DB000813A910548F48E2D0E94770A992009F4E2
:103DC000B6C40E9449123DCB0E9449128FE39CE980
:103DD0000197F1F700C000008E2D0E94CF14EECFA6
:103DE00023946CCEFC01208131812415350509F026
:103DF00097C4911097C41092410380E05EC5882358
:103E000009F4E3C4F8018189882309F4DEC4C701F9
:103E1000835D9E4F0E94DC12D8C4F3EF4F16FCE581
:103E20005F0661F1A0F438ED43163CE5530611F14D
:103E300089ED48168CE5580669F197ED49169CE521
:103E4000590609F0C2C426E241EE61EE0FC0A5EFAB
:103E50004A16ACE55A06D1F0A8F027E245EE66EE28
:103E6000E6EF4E16ECE55E0609F0AFC4C3010E9412
:103E7000A115E7CA27E245EE65EEF8CF26E241EE4E
:103E800060EEF4CF27E245EE64EEF0CF26E241EE9D
:103E900062EEECCF28E241E0EFCFF1E64F16FDE510
:103EA0005F0609F4ABC435EA43163DE5530609F451
:103EB000A5C496E149169CE5590609F002C2809115
:103EC0004903982F947409F015C1982F9A7A81713B
:103ED00009F090E0222309F40FC181E0911101C0A3
:103EE00080E08093390289E2911185E30E94770A8C
:103EF00068CF80918E03806297E049169CE5590651
:103F000009F4A9C080918E038061A8E04A16ACE54F
:103F10005A0608F4A0C080918E0380649CC08091F2
:103F20008E038B7FBDE04B16BCE55B0609F493C0A6
:103F3000B0F480918E038E7FFBE04F16FCE55F06A8
:103F400009F489C080918E038C602CE042162CE528
:103F5000520608F480C080918E038D7F7CC08091D2
:103F60008E038F7E3FE043163CE5530609F473C091
:103F700008F48AC080918E038F7D6DC09DEF491635
:103F80009CE5590609F488C078F5B5E14B16BCE507
:103F90005B0609F48FC0A0F480918E03837FF3E168
:103FA0004F16FCE55F0609F456C008F47DC00E9478
:103FB000A81690918E03892F97FB87F980584BC0E4
:103FC0003BEF43163CE5530609F454C008F060C0CB
:103FD00080918F0381609AEF49169CE5590609F09C
:103FE00039C480938F0336C4A1E04A16ADE55A0662
:103FF00009F46CC0C8F480918F038C7FEFEF4E16EC
:10400000ECE55E0671F380918F0383604114FDE55A
:104010005F0638F380918F03982F909591708E7F73
:10402000892B90FB81F9DDCF21E642162DE5520662
:1040300009F452C035EA43163DE5530609F453C06E
:1040400082E048168DE5580609F004C460E03FC0E0
:1040500080918E03816080938E03FCC380918E03D8
:104060008260F9CF80918E038460F5CF80918E03BA
:104070008860F1CF80918F038260B3CF0E94A81631
:1040800080918E038068E7CF80918E03877FE3CF96
:1040900080918F038E7FA5CF80918F038D7FA1CFDD
:1040A00080918E038F7BD7CF0E94A81680918E03BC
:1040B0008F77D1CF80918E0382FB992790F921E0F1
:1040C000922790FB82F990FB83F9C5CF61E08EE0E7
:1040D00090E00E946630BEC390918E03892F8F7E40
:1040E00094FF8061B8CF90918E03892F8E7F90FFCF
:1040F0008160B1CF90E0EBCE80913902811104C094
:1041000089E20E944C0A5DCE85E3FBCF94EC491610
:104110009CE5590609F4A2C042ED50E16CED70E156
:10412000A5EC4A16ACE55A0609F02FC40E946E06AB
:1041300088C9B9EC4B16BCE55B0609F49EC080F457
:10414000F7EC4F16FCE55F0609F492C045EC50E130
:1041500068EB70E128EC42162CE5520639F315C4E1
:104160003AEC43163CE5530609F48CC046EE50E1A8
:1041700068EF70E19BEC49169CE55906B9F205C45D
:10418000A1ED4A16ACE55A0609F48FC0C8F4EEEC6E
:104190004E16ECE55E0609F482C008F47DC02FECF3
:1041A00042162CE5520609F47DC06EE089E030ED40
:1041B00043163CE5530609F0E8C30E945A1141C971
:1041C00084ED48168CE5580609F475C088F4A2ED14
:1041D0004A16ACE55A0609F46BC061E088E1B3ED1C
:1041E0004B16BCE55B0609F0D0C30E940A1129C931
:1041F000E5ED4E16ECE55E0609F460C0FDE54F16F0
:104200005F0609F41EC9C1C380912E0380FF1BC045
:104210008E7F80932E0360912E0370912F038091E7
:104220003003909131030E9412101092EE022FEF92
:1042300030E782E0215030408040E1F700C00000CC
:104240000E94310CFEC8816080932E0361E0869548
:10425000CCCF45E451E16FE471E168CF4FE451E127
:1042600065E471E163CF4CED50E162ED70E15ECF4A
:1042700048EB50E165EC70E159CF4EE950E16BEA53
:1042800070E154CF4BEA50E16EE970E14FCF48EF57
:1042900050E166EE70E14ACF61E081E0A6CF65E0D3
:1042A00082E08BCF68E086E088CF64E18FE085CF45
:1042B00067E185E182CF62E289E17FCF61E083E25D
:1042C00094CF9AE549169DE5590699F168F4411491
:1042D000BCE55B06B9F0EEED4E16ECE55E0609F0C6
:1042E00054C30E943D160CC0FCE54F16FDE55F0669
:1042F000B1F008F137EA43163DE5530609F045C32E
:104300000E947C190E94A8168FEF94E3ACE08150C4
:104310009040A040E1F700C000000E940D0C809189
:104320008F0382FB882780F991E089270E94801300
:104330002CC381E0FBCF80E0F9CFC8010E94B50A11
:10434000F82E34C3212F2F70E22E107F19F0E29443
:1043500090EFE922FF20B9F0EE2069F080E2800FB3
:10436000883010F0A11009C080914903E82AE0923A
:1043700049030E944912802F4DC080914803E82ACA
:10438000E0924803F6CF802F0E940814EE2009F433
:1043900043C0005E083010F0A11004C08E2D0E94B2
:1043A000450A06C0E09480914803E822E092480361
:1043B0000E94491231C0312F3F70E32E107F10321E
:1043C00019F0E29480EFE822AA20A1F081E0A8167B
:1043D00009F477C0FF2009F480C0DD2009F450C043
:1043E000D30115968C91159780FFC5CF8F701596C8
:1043F0008C9346C090918F0392FD3BC0FF2099F1B2
:10440000EE2039F080914903E82AE09249030E94A6
:10441000491280E00E94CF14EB2DE850FF0B349737
:1044200020F40E94F0050E941F0BCC2011F40C9484
:10443000A81980918D0380FF02C00C94A819D301A4
:1044400012961C928595859585950E94A713C301A8
:104450000E94921980918D038595859585950E947E
:1044600053130C94A81980E00E940814EE20A1F2C6
:1044700095CFFF20C9F08091B202E82AD11004C084
:104480008E2D0E94FE13C8CFA1E0DA12F9CF92FF61
:10449000C3CF8E1509F20E94B8059093B1028093A4
:1044A000B002E092B202B8CFD11006C00E943A0A20
:1044B0008E2D0E94F713B0CFB1E0DB1609F4ACCF1C
:1044C000F5CFFF2029F0E2E0ED1508F4A5CFD8CF15
:1044D000F1E0FD1508F4A0CFEBCFDD2049F3B9E3FF
:1044E000AB1209C0EFEFF7EE23E0E150F0402040BF
:1044F000E1F700C00000802F0E9408148DCF812FAB
:1045000086958695837061F0813009F085CFC8016A
:104510009370F11002C090E080E00E94C4057CCF4F
:10452000C8019370F11002C090E080E00E94DA05AB
:1045300073CF802FFF2029F00E94FC070E941A07EA
:104540006BCF0E944107FACF812F837089F5F1105C
:1045500063CF402F429546954770440F440F802FFC
:104560008F70042E01C0880F0A94EAF7202F207163
:1045700004FF07C02FE030E001C0220F4A95EAF7A0
:104580002095169516951370123069F050F43091FD
:10459000B302113029F0822B83230E94E8133CCF11
:1045A000832B822BFACF282B8091B3028227F5CF61
:1045B0008695FF2011F0812F8170882309F42CCF7C
:1045C000402F429546954770440F440F802F8F70BF
:1045D000042E01C0880F0A94EAF7202F207104FFEF
:1045E00007C02FE030E001C0220F4A95EAF720957E
:1045F000169516951370123069F050F430918A03B5
:10460000113029F0822B83230E94401305CF832B86
:10461000822BFACF282B80918A038227F5CF1F7037
:10462000FF2029F0812F0E94A713802F2ACF802FEF
:104630000E94F713812F0E945313EECE802F32EF8A
:10464000A316B1F13A1570F090EFA916D1F0A1EFD1
:10465000AA1691F0FF2009F453C0D1108CCE812FFF
:104660008F712AC0B3EFAB1651F1E4EFAE12F2CF67
:1046700080918F0382FD2FC0812F8F71FF20D9F28F
:104680001BC0FF2081F0F1E0FD1508F4C5CE1F71BD
:1046900081E090E0012E01C0880F0A94EAF7909122
:1046A0008A038927B1CF22E02D1508F4B5CEEFCFCC
:1046B000812F8F71F110BFCF0E94A713ADCE80E084
:1046C000FF2009F4A1CF1F7181E0012E01C0880FE6
:1046D0000A94EAF799CFFF2041F01F71812F0E94C1
:1046E000A713812F0E94B31397CE81E00E9460131D
:1046F00031E03D1508F090CE82E00E9460138CCE30
:10470000DD2059F0893309F0F6CE8FEF97EEA3E064
:1047100081509040A040E1F7ECCE812F8F718BCF7C
:10472000992029F0DC0118968C9185FF66CBC20197
:1047300097558F3F910511F008F06FCB209117012D
:10474000309118012817390724F4909318018093A9
:104750001701F301228136E1389F7001399FF00C77
:1047600011248701095D1E4FD80150962C93509754
:10477000928116968C911697992309F440CB1A963C
:104780005C924E9219978F5F16968C930E94B80593
:10479000F801968785878091B202878380914803CC
:1047A00090914903892B80870190F081E02D30970B
:1047B00041F0D80154966D917C91C701835D9E4F65
:1047C00009955092470340924603D30112962C91CB
:1047D000222309F4B3C010928903B3E04B16BDE560
:1047E0005B0608F05ACBEAEF4E16ECE55E0630F4B5
:1047F000C20182509C45449708F05BCB0E94EE0FAB
:1048000090938F0380938E0381E148168CE55806C0
:1048100009F446CC08F0B2CBA9E04A16ACE55A063A
:1048200009F42CCC08F07BCBE5E04E16ECE55E06F7
:1048300009F41CCC08F05DCB23E042162CE55206AF
:1048400009F40CCC08F00ECC82E048168CE5580632
:1048500009F4FECB80918E0390918F030E942E0F5E
:104860000E94A8160C94211A809137029091380268
:104870008415950581F41092380210923702109237
:104880003B0310923C0310923D0310923E031092A2
:104890004303109242038091440390914503009793
:1048A00009F445CFA8E0CA16D10408F09BCA632DCD
:1048B0000E944E0681113BCF81E00E94611437CFE8
:1048C000F0E14F16FFE55F0609F439CA21E142160F
:1048D0002FE5520609F43DCAFFE54F16FDE55F06D8
:1048E00009F43DCA20E642162DE5520659F03EE590
:1048F00043163DE5530609F0A7C880910A018823B5
:1049000009F42DCA10920A0180E00E9461140C94EF
:10491000211A85E0F301DE01119601900D928A952E
:10492000E1F7D30112962C9189819A8121110C947F
:10493000AC190E94B50A182F0C94B419B6E14B16A5
:10494000BCE55B0609F4BBCA809149038272ACECFA
:104950004A16ACE55A0609F49ACC08F011CCE6ECFC
:104960004E16ECE55E0609F47ECC08F0E2CB23ECB3
:1049700042162CE5520609F46CCC08F0C7CB82EC49
:1049800048168CE5580609F43FCCD30112968C9159
:1049900012970D911C91882309F4CFCCC8010E9475
:1049A000790FF82E682FC8010E94E90AB8018F2DEF
:1049B0000E946B0F0E94B2088C01A82EF301F280B6
:1049C000D580D2943FE0D32280918D038770C1F0CF
:1049D000CF2CFF20B1F0812F807F803421F080E246
:1049E000800F883068F080918F0382FF09C082E0D9
:1049F0000E94601380918D038770CC24C394811131
:104A0000C12CB12EB2942FE0B222FBE0FB1508F4CA
:104A100003CDEB2DF0E0E054FF4C0C94AF2FE114EC
:104A2000F10409F0A2C8912CF12CE12C80E00E9445
:104A30006114109345030093440381E08093410384
:104A4000F801858180933F0391100EC0EF2861F03B
:104A5000D8018D919C919C0124503109213A310556
:104A600008F0A2C90E944C0AF801E680F780C7014D
:104A70009A9581159F4110F420EEF222BB24B39445
:104A8000C70101978C3A9D4508F0B12CD8011996C1
:104A9000ED91FC911A97309731F01B966D917C91B6
:104AA00081E00995B822BB2079F0F80186819781D1
:104AB0000E94360B80934003C701F8E0CF16D10463
:104AC00008F075C90E94FD050E94491277C91F931D
:104AD000CF93DF9380915D02807F09F049C0809180
:104AE0005A02882309F444C080918F02D0915E025B
:104AF0006091580270915902A0915B02B0915C02E2
:104B0000C62FC72316E0D81799F190E0109711F03F
:104B1000CF3F19F401968770F6CF189F9001199F27
:104B2000300D1124F901E15AFD4F41814713F2CFB5
:104B300040814613EFCF42814111ECCF4381548134
:104B40004A1B5B0B483C510528F780915D028F7032
:104B5000806180935D02F901EC59FD4F80818F7077
:104B60008061808388E592E00E9492190E94AB0ADE
:104B7000DF91CF911F910895A1E1B0E0E2ECF5E261
:104B80000C94F52F8C0185E0F801DE011D96019053
:104B90000D928A95E1F7F801E28088E5A82E82E07F
:104BA000B82E60915B0270915C026115710509F489
:104BB00026C19091580240915902892F84238F3F3A
:104BC00009F41DC120813181C380D480F0905A0244
:104BD000F601E61BF70BFF2009F4DCC080915D02B3
:104BE000582F507FE83CF10508F09FC051116BC071
:104BF000FE2C431314C0921312C0E11010C08F702A
:104C0000806180935D02C5010E94921980915D02CE
:104C1000F80185838F2D6196EAE00C941130C11460
:104C2000D10429F0822F83238F3F09F003C180E054
:104C3000F82FF170DF2E80FF3CC080918F024091F1
:104C40005E0256E0841315C02D873E878D859E85B4
:104C50000E94A80F292F22952F702230F0F02430C7
:104C600018F59F70F1F0F8019581907FD1F4D12C67
:104C70001EC090E0589FF001599FF00D1124E15A99
:104C8000FD4F6181361306C06081261303C0628127
:104C9000E6120FC001968770D5CF9F7011F0882360
:104CA00031F3805E883018F3C8010E949219FD2C00
:104CB000B1CFEE2009F4AECF80915D028160809388
:104CC0005D02F12CA7CF431306C0921304C0F80174
:104CD000EE2009F479C0C8010E94B50F882309F1BC
:104CE000EE20F9F080915D02803270F02091580240
:104CF0003091590238872F831986DB86CA868C87C4
:104D0000CE0107960E94921986E0F801A8E5B2E06C
:104D100001900D928A95E1F70E946725FF24F39494
:104D200079CFC8010E949219F9CF51110AC088E5C4
:104D300092E00E94921986E0F50111928A95E9F7B6
:104D4000C0CF43130FC092130DC0E1100BC0F80188
:104D50008583C8010E94921986E0F50111928A9517
:104D6000E9F758CFC8010E94B50F8823D1F2EE2091
:104D7000C1F280915D02803238F220915802309168
:104D800059023A8329831B82DD82CC828E83CE0135
:104D90000196B8CFE83CF105F8F6FE2CEE2009F2BA
:104DA00043131FC092131DC080915D0280FD10C08F
:104DB000982F907F69F0F8018583903F31F0982F0C
:104DC000907F905F8F70892B8583C8010E94921914
:104DD00086E0F801A8E5B2E001900D928A95E1F72E
:104DE00019CFC8010E94B50F81118ECF80915D024D
:104DF000816080935D02C8010E9492190BCFEE2062
:104E000009F48FCFC8010E94B50FF82E882309F44A
:104E100088CF86E0F801A8E5B2E001900D928A956E
:104E2000E1F780915802909159020E94A80F0E94C8
:104E30006725F0CE81E08E25FBCEA7E1B0E0E3E26E
:104E4000F7E20C94FC2F4B8B5C8B6D8B7E8B8F8BE6
:104E50006111109248031A8A198A85E0FE0173963F
:104E6000DE011D9601900D928A95E1F780918F03E6
:104E700082FF1CC00E94B80520918B0330918C03E7
:104E8000821B930B8C3D954020F080918D0382FF17
:104E900079C00E94B8052091B0023091B102821B06
:104EA000930B8C3D954010F00E943A0A86E0FE017B
:104EB0003D96DE01179601900D928A95E1F7CE019D
:104EC00007960E94BC25882359F016E080918F0236
:104ED00090915E02891343C06796E3E00C9418300A
:104EE00086E0FE013796DE01119601900D928A95BB
:104EF000E1F78A859B85892B41F38F8198858923EA
:104F00008F3F19F320915E0230E0C901019687704E
:104F1000992740918F024817190671F40E94A8162C
:104F200010925E0210928F0286E0E8E5F2E0DF0167
:104F30001D928A95E9F7C9CF96E0929FD001939F81
:104F4000B00D1124A15ABD4FFE01319601900D9272
:104F50009A95E1F780935E020E94AB0AB6CF819FDB
:104F6000C0011124815A9D4F0E94BC25882309F459
:104F7000B3CF80918F0290E001968770992780933C
:104F80008F02A4CF82E00E94601383CF90E080E084
:104F90000E946030883E9E4F19F40E94D50F0895FC
:104FA00080E008951F920F920FB60F9211242F9355
:104FB0003F934F935F936F937F938F939F93AF93A1
:104FC000BF93CF93DF93EF93FF93D091E900DF700E
:104FD0008091EC00C82FC17080FDC0E81092E900FC
:104FE0008091F000877F8093F00078940E94BE1635
:104FF0001092E9008091F00088608093F000CD2B42
:10500000CF70C093E900FF91EF91DF91CF91BF91F5
:10501000AF919F918F917F916F915F914F913F9150
:105020002F910F900FBE0F901F9018951F920F9207
:105030000FB60F9211242F933F934F935F936F936B
:105040007F938F939F93AF93BF93EF93FF93809141
:10505000E10082FF09C08091E20082FF05C08091DB
:10506000E1008B7F8093E1008091DA0080FF24C013
:105070008091D80080FF20C08091DA008E7F8093DD
:10508000DA008091D90080FF9DC080E189BD82E176
:1050900089BD09B400FEFDCF81E080937D0380913E
:1050A0005803811109C00E9415040E94E0048091F8
:1050B000E20084608093E2008091E10080FF17C0ED
:1050C0008091E20080FF13C08091E2008E7F809388
:1050D000E2008091E20080618093E2008091D8003C
:1050E00080628093D80019BC85E080937D03809115
:1050F000E10084FF2BC08091E20084FF27C080E1A3
:1051000089BD82E189BD89B5982F917080FFFBCF61
:105110008091D8008F7D8093D8008091E1008F7EB0
:105120008093E1008091E2008F7E8093E200809185
:10513000E20081608093E20080917E03882309F47D
:1051400047C084E080937D0380917D038091E100DE
:1051500083FF27C08091E20083FF23C08091E1009C
:10516000877F8093E10082E080937D0310927E032D
:105170008091E1008E7F8093E1008091E2008E7F3C
:105180008093E2008091E20080618093E20042E03F
:1051900060E080E00E94AE048091F000886080931F
:1051A000F000FF91EF91BF91AF919F918F917F910F
:1051B0006F915F914F913F912F910F900FBE0F9084
:1051C0001F90189519BC10927D031092580374CF4C
:1051D0008091E30087FD93E090937D03B5CF7894B1
:1051E0001F921FB61F9211248F939F93AF93BF936B
:1051F0008091510390915203A0915303B0915403B5
:105200000196A11DB11D8093510390935203A09369
:105210005303B0935403BF91AF919F918F911F900F
:105220001FBE1F9018951F921FB61F9211248F93B7
:105230009F93AF93BF9380915003811113C08091CE
:10524000510390915203A0915303B091540341969E
:10525000A11DB11D8093510390935203A09353035A
:10526000B0935403BF91AF919F918F911F901FBE38
:105270001F901895CDB7DEB7AA970FB6F894DEBF8A
:105280000FBECDBF85B7806885BF85B7806885BFF5
:1052900084B7877F84BF0FB6F894A895809160008B
:1052A000886180936000109260000FBE80E890E0FB
:1052B0000FB6F89480936100909361000FBE86E56D
:1052C00098E09093F5018093F4010E9415040E94E8
:1052D000E0048091E20084608093E2007894809101
:1052E0007D038823A1F01091E9001F709091EC00DC
:1052F000892F817090FD80E8182B1092E900809131
:10530000E80083FD0E94BE161F701093E90082E042
:1053100084BD93E095BD9AEF97BD80936E000E9487
:10532000D50F811102C00E941E0F0AEA11E0D801B8
:105330008D918D018F3F11F00E945808B1E00F3A16
:105340001B07A9F70FEA11E0EFEBEE2EE1E0FE2ECE
:10535000F80181918F018F3F11F00E945808E016EB
:10536000F106B1F78AE0E0EDF2E0DF01282F1D92AF
:105370002A95E9F7E7EBF2E0DF011D928A95E9F75C
:105380000E94C627811102C00E943D1682E090E073
:105390000E9452308093C4020E94EE0F90938F03BC
:1053A00080938E030E947A11EFE3FCE93197F1F7C5
:1053B00000C000000E947A118091D00280FF08C0D6
:1053C0006FEF7FEF90E080E00E9484300E940D0C30
:1053D00083E090E00E9452300E94E81380918A039B
:1053E0000E947B0E879A8F9A8091C102811133C0EF
:1053F0000E94C627811104C00E943D160E946A11B6
:1054000088E090E00E945A3060932E0370932F033F
:1054100080933003909331036E7F71F40E946A1180
:1054200088E090E00E945A3060932E0370932F031F
:1054300080933003909331030E9475061092EE0220
:1054400080912E0380FF04C060E086950E940A11BF
:1054500081E08093C10280918E03806880938E03E7
:1054600080918E0390918F030E942E0F4FEF6FEF6C
:105470008FEF0E94F50D0E94F00580FF03C083E5C9
:105480000E9483158BE091E090934D0380934C0331
:1054900058E1E52EF12C60E4B62E7AEDC72E72E0CD
:1054A000D72E80917D039924939400E112E18530F9
:1054B00009F4FDC10E947A1181110E94AC05A0ED92
:1054C000B2E0E5ECF2E010E000E0702F8D919D91EC
:1054D000219131912817390709F40CC2282739275F
:1054E00060E088248394912CA90148215921452BFF
:1054F00009F4FAC169A37AA39C012821392191E01A
:10550000232B09F490E09BA30E94B8058160782FBB
:105510009DA38CA349A15AA16BA18DA10E941D2717
:10552000000F111FF801EB53FD4F808191818826F8
:105530009926918280828091420390914303892B26
:1055400009F44EC0409137035091380360913903FC
:1055500070913A032FB7F8948091510390915203C0
:10556000A0915303B09154032FBF841B950BA60B3E
:10557000B70B409133035091340360913503709120
:10558000360384179507A607B70750F10091420329
:1055900010914303C8010E94360B9801205E310927
:1055A0002830310520F00115110509F0BAC10E941B
:1055B000FE13802F0E94CF141092430310924203D7
:1055C00010923703109238031092390310923A0365
:1055D0001092330310923403109235031092360365
:1055E0008091170190911801912CF6E18F2E019670
:1055F00009F0CEC18091EE028111D4C186E0E1EEC6
:10560000F2E0DE01119601900D928A95E1F7109279
:10561000E3021092E4021092E5021092E6028B81FE
:105620009C81892B09F44AC08091DF029091E002AD
:105630000E949D059C019091DB02992309F432C4DC
:1056400025313105D8F19F3F19F09F5F9093DB0220
:105650001B81112359F00E94DC079FEF11160CF4F7
:1056600091E0899F802D11248093E3021C811123F6
:1056700059F00E94DC079FEF11160CF491E0899F0E
:10568000802D11248093E4023091E3023323B1F0A2
:105690002091E402222391F045EB3403C001112450
:1056A000992309F414C29093E30245EB240390017B
:1056B0001124332309F40FC23093E4028D819E81BB
:1056C000892B09F44AC08091DD029091DE020E948C
:1056D0009D059C019091DA02992309F4DEC32135DE
:1056E0003105D8F19F3F19F09F5F9093DA021D8139
:1056F000112359F00E94BA079FEF11160CF491E0A4
:10570000899F802D11248093E5021E81112359F079
:105710000E94BA079FEF11160CF491E0899F802D2B
:1057200011248093E6023091E5023323B1F02091F9
:10573000E602222391F045EB3403C00111249923A2
:1057400009F4CDC19093E50245EB240390011124A7
:10575000332309F4C8C13093E60246E050E0BE01AD
:105760006F5F7F4F81EE92E00E94A730892B61F43A
:105770008091E3029091E402892B9091E502892BBC
:105780009091E602892B11F00E941A0786E0FE0133
:105790003196A1EEB2E001900D928A95E1F70E9458
:1057A000F0059091CF02891721F08093CF020E94DB
:1057B0001F0B80917D03843009F073CE83E08093CA
:1057C000E9008091E80082FF6CCE8091E80090E0D3
:1057D00085FF06C00E943404882309F488C191E043
:1057E0008091E8008B778093E800992309F459CEE3
:1057F000E981E150E33108F00EC2F0E0E453FF4CE0
:105800000C94AF2F80917D03843009F440C080E078
:105810000E941F0B1092EE028091C302811116C0EC
:105820009092C30280912E03982F91709093C202A0
:105830008E7F80932E03FFEF20E742E0F15020405F
:105840004040E1F700C000000E94310C109250036C
:105850000FB6F894A895E09260000FBEB092600079
:1058600083B7817F846083BF83B7816083BF78946F
:10587000889583B78E7F83BF0FB6F894A8958091E3
:105880006000886180936000109260000FBE80917C
:105890007C03882361F00E947A11E0EDF2E08191AF
:1058A0009191892B09F0DAC2CE16DF06C1F78091FB
:1058B0007D03853009F4A6CF0E94A8160E94F0054A
:1058C0000E941F0B1092C3028091C202882349F0EC
:1058D00080912E03816080932E0360E086950E9464
:1058E0000A110E94FC0FE6CD6F5F880C991C603195
:1058F00009F0FACD0F5F1F4F0530110509F0E5CD16
:105900008FEF8EA38FA318A60E94B8058160782F11
:105910009AA789A74EA15FA168A58AA50E941D2705
:105920000ACE0E94ED1345CE889EF001899EF00DAF
:105930001124E95DFE4F628873886114710419F4C3
:10594000A8EC6A2E712C889E8001899E100D11246E
:10595000095D1E4FF80186818823C9F085859685EB
:105960000E949D056816790690F4989C30011124D8
:10597000D80151968C91811105C0C301895D9E4F5C
:105980000E94BD12C301835D9E4F0E94DC1293945E
:10599000892D90E0209117013091180128173907BF
:1059A0001CF628CE8091ED02E0912E03E695E81BCF
:1059B000E093E902823089F5F0E0EE57FD4FE49183
:1059C0000E2F10E0E7E68E2EEEE09E2E8091EA028A
:1059D000882361F01092EA020E94B8059093E802D1
:1059E0008093E7021092EC021092EB020E94B8053D
:1059F000E091E702F091E8028E1B9F0B8F3F9F47DB
:105A000008F0FCCDE00FF11FF093E802E093E7020D
:105A100087EE92E0F4010995F1CD863059F4F0E07B
:105A2000E158FD4FE4910E2F10E077E5872E7EE0E0
:105A3000972ECCCF893061F4E695F0E0E458FD4F25
:105A4000E4910E2F10E06BEC862E6DE0962EBECF0B
:105A50008F3061F4E695F0E0E758FD4FE4910E2FAA
:105A600010E056E6852E5DE0952EB0CF853159F4D5
:105A7000F0E0EA58FD4FE4910E2F10E048E1842E4B
:105A80004DE0942EA3CF08E210E09DE9892E9CE022
:105A9000992E883109F49ACF833249F4E4E7F2E091
:105AA0000591149136E0832E3EE0932E8FCF04EFC4
:105AB00011E026E6822E2CE0922E843209F486CF65
:105AC00000ED17E084E7882E86E0982E7FCF81E0F6
:105AD0008093E302EACD81E08093E402EFCD81E0A0
