:100000000C94C4020C94FC020C94FC020C94FC02B0
:100010000C94FC020C94FC020C94FC020C94FC0268
:100020000C94FC020C94FC020C9443250C941726AF
:100030000C9450200C94FC020C94FC020C94FC02D6
:100040000C94FC020C94FC020C94FC020C94FC0238
:100050000C94FC020C94D7200C94FC020C94FC022F
:100060000C94FC020C94FC020C94FC020C94FC0218
:100070000C94FC020C94FC020C94FC020C94FC0208
:100080000C94FC020C94FC020C94FC020C94FC02F8
:100090000C94FC020C94FC020C94FC020C94FC02E8
:1000A0000C94FC020C94FC020C94FC0229001E002F
:1000B0001F0020002100220023002400250026002C
:1000C00027002D002E002A0049004B002B001400B1
:1000D0001A000800150017001C0018000C00120080
:1000E00013002F00300031004C004E003900040096
:1000F0001600070009000A000B000D000E000F009B
:100100003300340028002A0000000000E100E10074
:100110001D001B000600190005001100100036002C
:1001200037003800E500E50052000000E000E30081
:10013000E20000002C0000002C0000002C00000059
:10014000E6002152E400500051004F0035003A0013
:100150003B003C003D003E003F00400041004200AB
:1001600043004400450001000100007C01002078AC
:100170002178237824782578267827782878010034
:100180000100010001000100010001000100010067
:100190000100010001000100010001000100010057
:1001A0000100010001000100000000000100010049
:1001B0000100010001000100010001000100010037
:1001C0000100010001000100010000000100010028
:1001D000010000000100000001000000010000001B
:1001E0000100010001000100010001001E0F0500D7
:1001F000047F3F1F643214643214783C1E1E140ABC
:10020000052223252628292A2C2D2F303233353656
:10021000383A3B3D3E4042434547494A4C4E505197
:10022000535557595A5C5E6062646668696B6D6FBE
:1002300071737577797B7D7F81838587898A8C8EC1
:1002400090929496989A9C9E9FA1A3A5A7A8AAACC9
:10025000AEAFB1B3B4B6B8B9BBBCBEBFC1C2C3C503
:10026000C6C7C9CACBCCCDCED0D1D2D2D3D4D5D6A5
:10027000D7D7D8D9D9DADADBDBDBDCDCDCDCDCDDD8
:10028000DDDDDDDCDCDCDCDCDBDBDBDADAD9D9D8BC
:10029000D7D7D6D5D4D3D2D2D1D0CECDCCCBCAC954
:1002A000C7C6C5C3C2C1BFBEBCBBB9B8B6B4B3B183
:1002B000AFAEACAAA8A7A5A3A19F9E9C9A9896941E
:1002C00092908E8C8A89878583817F7D7B797775F3
:1002D00073716F6D6B6968666462605E5C5A5957D2
:1002E000555351504E4C4A4947454342403E3D3B91
:1002F0003A3836353332302F2D2C2A29282625231B
:1003000022FFAA7F55400001010101010101010105
:1003100002020202020202020203030303030303B6
:100320000304040404040404050505050506060683
:100330000606070707070708080808090909090A40
:100340000A0A0B0B0B0C0C0C0D0D0D0E0E0E0F0FE5
:100350000F10101111111212131314141515161673
:100360001717181819191A1A1B1B1C1D1D1E1E1FE2
:100370002020212222232424252626272829292A31
:100380002B2C2D2D2E2F3031323233343536373859
:10039000393A3B3C3D3E3F40414243444546474855
:1003A000494A4C4D4E4F50515354555658595A5B2B
:1003B0005D5E5F616264656668696B6C6D6F7072CB
:1003C000737577787A7B7D7E8082838587888A8C37
:1003D0008E8F91939596989A9C9EA0A2A3A5A7A96B
:1003E000ABADAFB1B3B5B7BABCBEC0C2C4C6C9CB62
:1003F000CDCFD1D4D6D8DBDDDFE2E4E7E9EBEEF018
:10040000F3F5F8FAFDFF1C0369006B006B0069004F
:100410003600380020004100750072006F00720045
:10042000610000001A037700750071007500650017
:100430002000730074007500640069006F00000004
:100440000403090409023B00020100A0FA090400A8
:1004500000010301010009211101000122400007F0
:1004600005810308000109040100010300000009DF
:10047000211101000122B6000705820320000112AC
:10048000010002000000086B701100010001020071
:100490000105010902A10185020901A1000509194F
:1004A000012908150025019508750181020501093A
:1004B0003009311581257F950275088106093815A7
:1004C00081257F950175088106050C0A3802158182
:1004D000257F950175088106C0C005010980A1012D
:1004E000850319012AB700150126B700950175107B
:1004F0008100C0050C0901A101850419012AA0028F
:10050000150126A002950175108100C0050109069C
:10051000A1018506050719E029E7150025019508C1
:10052000750181020507190029EF1500250195F0D5
:1005300075018102050819012905950575019102CA
:10054000950175039101C005010906A1010507196F
:10055000E029E715002501950875018102950175CF
:100560000881010507190029FF150026FF009506DF
:100570007508810005081901290595057501910285
:10058000950175039101C00011241FBECFEFDAE081
:10059000DEBFCDBF04B603FE18C08091B5039091B5
:1005A000B603A091B703B091B8038730904BA74032
:1005B000B04B59F41092B5031092B6031092B703E2
:1005C0001092B803E0E0F8E3099511E0A0E0B1E093
:1005D000E8E9F3E502C005900D92A43DB107D9F713
:1005E00023E0A4EDB1E001C01D92A53BB207E1F705
:1005F0000E94C1120C9476290C9400008230C8F439
:100600006530B8F44031A8F4E62FF0E095E0899F1A
:10061000E00DF11D112484E0EE0FFF1F8A95E1F734
:10062000E40FF11DEE0FFF1FE455FF4F85919491EC
:10063000089581E090E008950E94FE02089581E00F
:10064000089581E008950E942103089508950E946D
:1006500026030895A5E0B0E0E0E3F3E00C946828F9
:1006600049835A833091DB0189819A81311119C004
:10067000662399F0222389F00E945D09182F682FC4
:1006800089819A810E943A0969817A81812F0E9429
:1006900035102596E3E00C9484280E944B09182F0E
:1006A000F3CF0E945D0969817A81F1CFFC01262F89
:1006B000408151816281738184810E942A0308955F
:1006C00081E00895CF93DF93EC0160E00E94560330
:1006D000BE010E942703DF91CF9108950E94661109
:1006E00008950E946A11089508950E9409080E94C1
:1006F00074032FEF84E39CE0215080409040E1F7A9
:1007000000C0000008950E9475030E94FB20089518
:100710000E9475030E941F2108950F931F93CF938A
:10072000DF938C0161E00E945603EC01B8010E9446
:100730002303811106C080E0DF91CF911F910F91BB
:100740000895B801CE010E94711E8823A1F3B8015B
:10075000CE010E94071D882371F3B801CE010E94CB
:10076000E31D882341F3B801CE010E94691C882350
:1007700011F3F8018281882361F0C330FCE7DF07C1
:10078000E9F058F4C115ECE7DE07A9F0C130DC4709
:10079000B9F0C8010E941F03CFCFCB358CE7D80733
:1007A000A9F0CC35ECE7DE0771F0CA35DC4789F7F4
:1007B0000E94D20DEECF0E948303BDCF0E94DA0DBE
:1007C0000E948803B8CF0E94C80DE3CF0E94D60DC7
:1007D000E0CF0E942C200E941B040E94CF1A089593
:1007E0000E941F040E94A61B0E94312008950895B4
:1007F00081E0089581FD02C08F9A08958F98089531
:10080000CF93DF93D82F0E94F803C82F882319F0C5
:100810008D2F0E94FA038C2FDF91CF910895879A34
:100820008F9A0895CF93C82F0E94F7038C2F0E94B0
:100830000004CF91089580E00E94120408950E9460
:10084000BF1E0E9412040895CF930E94BF1EC82F9E
:100850008091D6018C1779F0C093D6010E94BC20FC
:100860006093D7017093D8018093D9019093DA01F6
:100870008C2F0E941204CF910895ABE0B0E0E3E426
:10088000F4E00C9469284F83588769877A878B87AF
:1008900061110E94F40C1E821D8285E0FE013796D4
:1008A000DE01119601900D928A95E1F780914E0339
:1008B00082FF0CC00E94B70C882319F082E00E94CE
:1008C000970D0E949E0C81110E94150D8C819D81B7
:1008D000892B61F449815A816B817C818D819E8154
:1008E0000E94F70B2B96E2E00C94852889819A816F
:1008F00089238F3F79F3CE0101960E946003811115
:10090000E9CFF0CFFC01808191810E948F09089589
:10091000662329F00E9445130E94181408950E942E
:100920009F13FACFCF93C82F8823C9F08238C9F418
:100930000E94BF1E81FD13C089E30E94870C0E94A4
:10094000230D2FEF87EE93E0215080409040E1F798
:1009500000C0000089E30E948F0C0E94230DCF91FC
:1009600008958338A1F40E94BF1E80FDF8CF83E56F
:100970000E94870C0E94230D2FEF81EE94E02150FE
:1009800080409040E1F700C0000083E5E4CF843868
:10099000A1F40E94BF1E82FDE2CF87E40E94870C73
:1009A0000E94230D2FEF81EE94E021508040904073
:1009B000E1F700C0000087E4CECF8CEF8C0F813AC6
:1009C00090F46C2F80910401909105010E94521FB8
:1009D000882329F08C2F0E948F0C0E94230D8C2FCE
:1009E0000E94870CBACF80E28C0F883048F4C77021
:1009F00081E001C0880FCA95EAF70E94D70CADCFFD
:100A0000EBE5EC0FE33040F4F0E0E45AFE4F808178
:100A100090E00E94F41EA3CFE8E5EC0FE93150F41A
:100A2000F0E0EE0FFF1FE65DFE4F808191810E9496
:100A3000191F95CF83E38C0F833108F090CF61E0CD
:100A40008C2F0E9488048BCF882309F456C08238EB
:100A500079F40E94BF1E81FF50C089E30E94870C79
:100A60000E94230D89E30E948F0C0E94230D08959C
:100A7000833859F40E94BF1E80FF3FC083E50E9467
:100A8000870C0E94230D83E5EECF843859F40E9431
:100A9000BF1E82FF32C087E40E94870C0E94230D94
:100AA00087E4E1CF9CEF980F913AE8F290E2980F3B
:100AB000983050F4877091E001C0990F8A95EAF759
:100AC000892F0E94DD0CD1CF9BE5980F933028F43D
:100AD00090E080E00E94F41E089598E5980F993107
:100AE00028F490E080E00E94191F089593E3980F86
:100AF000933118F460E00E94880408951F93CF9307
:100B0000DF93182FEB010E949204209739F4812F74
:100B10000E942405DF91CF911F9108958FE99FE0F6
:100B20000197F1F700C000002197EFCF70E060E07F
:100B3000893311F460E570E00E947E0508958823F2
:100B400021F00E94D70C0E94230D0895882321F0E4
:100B50000E94DD0C0E94230D0895B0E0A0E0E3EBBD
:100B6000F5E00C9462286C01D62FC72FFC0112818E
:100B7000058102950F700E94CD0CE82E8823E9F0C4
:100B8000E12E1123D1F08C2F807F803451F080E250
:100B90008D0F8830F8F0011104C08C2F807E8032D8
:100BA000C9F080914E0382FF15C082E00E94970D2C
:100BB0000E94CD0C91E0E82EE926BC2EB2949FE075
:100BC000B922FBE0FB15B8F1EB2DF0E0E858F64D4B
:100BD0000C942228E12CF1CF0C2F0F70C07F11F064
:100BE0000295007F112399F0002359F080E28D0FC8
:100BF000883010F0D11107C0802F0E94D70C0E94BE
:100C0000230D8D2F63C0802F0E94E70CF8CF8D2F0E
:100C10000E942405002379F080E28D0F883010F0C7
:100C2000D11104C0802F0E94DD0C03C0802F0E94D0
:100C3000ED0C0E94230D2B2D2850330B2430310551
:100C400020F40E94BF1E0E941204EE2089F00E9430
:100C5000B30C80FD0DC0F60112820E94AD0C0E9403
:100C60009808C6010E94C9070E94AD0C0E94A808FE
:100C7000CDB7DEB7E9E00C947E282C2F2F70F22E32
:100C8000C07FC03219F0F29480EFF822DD2381F0AA
:100C9000D13009F449C0112309F451C0002309F4EB
:100CA00048C0F601858180FFACCF8F70858341C03D
:100CB00080914E0382FD15C0112359F0FF2029F0C9
:100CC0008F2D0E94D70C0E94230D80E00E94920479
:100CD000B2CF80E00E942405FF2009F4ACCF8F2D15
:100CE000A2CF112381F0011106C00E94F70C8F29B9
:100CF0000E949F05A0CF0130C1F70E94F70C8F29F9
:100D00000E94FE0C98CF011106C00E94150D8F2D78
:100D10000E94A60590CF013009F48DCF8F2D0E943F
:100D2000A6050E94150D87CF112329F0033008F086
:100D300082CF8F2DDDCF023008F07DCFE8CF0023AA
:100D400031F3D93349F4FFEF27EE33E0F15020407F
:100D50003040E1F700C000008D2F0E9424056BCFCA
:100D60008C2F86958695837069F0813009F063CF6A
:100D70008D2F9C2F9370111102C080E090E00E9493
:100D8000191F59CF8D2F9C2F9370111102C080E035
:100D900090E00E94F41E4FCF612F8D2F0E94880497
:100DA0004ACF8C2F8370A1F5111145CF4D2F42955D
:100DB00046954770440F440F2D2F2F7030E0042EBE
:100DC00002C0220F331F0A94E2F790E080E0D4FFC4
:100DD00009C08FE090E002C0880F991F4A95E2F7A2
:100DE00080959095C695C695C370822B932BC23083
:100DF00049F058F4C13019F00E9468081CCF0E94D5
:100E00005F0819CF0E94710816CF0E945C0813CFAB
:100E10008695112311F08C2F8170882309F40BCF54
:100E20004D2F429546954770440F440F2D2F2F703C
:100E300030E0042E02C0220F331F0A94E2F790E044
:100E400080E0D4FF09C08FE090E002C0880F991FB6
:100E50004A95E2F780959095C695C695C370822B0A
:100E6000932BC23049F058F4C13019F00E94D308D6
:100E7000E2CE0E94CA08DFCE0E94DC08DCCE0E94CF
:100E80008008D9CECF70112329F08C2F0E949808AA
:100E90008D2F2ECF8D2F0E94A6058C2F0E94A80883
:100EA000CACED23F41F160F4D03FB9F0D13F81F0DA
:100EB000112309F446C00111A4CE8C2F8F711FC0DD
:100EC000D33F01F1D43FA1F780914E0382FD24C0AE
:100ED0008C2F8F71112311F312C0112341F00230B6
:100EE00008F0A9CE8C2F8F710E94BA08A4CE0330CF
:100EF00008F0A1CEF7CF8C2F8F711111CFCF0E94A8
:100F0000980899CE112329F08C2F8F710E948C089C
:100F100092CE0E9487088FCE112349F0CF718C2F7B
:100F20000E94980863E08C2F0E946F0D84CE81E0B0
:100F30000E94970D023008F47ECE82E00E94970D49
:100F40007ACE002359F0D93309F006CF8FEF97EE10
:100F5000E3E081509040E040E1F7FCCE8C2F8F71B0
:100F60009DCF0F931F93CF93DF93EC01688179811D
:100F70008A810E949A098C010E94E5080E945B0800
:100F8000B801CE010E94AD05DF91CF911F910F9165
:100F90000895CF93DF93EC018B819C81892B29F0FD
:100FA0008881998189238F3F51F4DF91CF910895F2
:100FB000CE010E94B107CE010E946203F6CFCE019E
:100FC0000E948D038111F4CF0E94CD0C882369F318
:100FD0008A81882351F380914E0382FFE6CF82E01D
:100FE0000E94970DE2CF90E080E00E94F41E90E016
:100FF00080E00E94191F0E94F40C0E94230D0E94A1
:1010000034140E94181408950E94970C0E94F3074C
:1010100008950E94E40C0E940408089592959F7020
:10102000963091F058F4925F9F70923058F4803F60
:1010300019F030F4883E30F481E008959A5FF4CFDF
:10104000843FD1F380E00895883EB0F3813FD1F72B
:10105000F3CFFC0183819481892B29F080819181D8
:1010600089238F3F11F480E00895808191810E944F
:101070008F090E940E080895A5E0B0E0E2E4F8E0D0
:101080000C9469282596E2E00C948528A6E0B0E04F
:10109000ECE4F8E00C9469282696E2E00C948528AC
:1010A00008950E94500808950E94510890930702E5
:1010B00080930602089508950E945408089520918F
:1010C000060230910702822B932B0E945408089548
:1010D0002091060230910702822393230E94540834
:1010E00008952091060230910702822793270E94DB
:1010F000540808950E94500808950E947A0808959F
:101100000E947D089093050280930402089590E068
:1011100080E00E948008089521E030E0A90102C02B
:10112000440F551F8A95E2F7CA010E94800808956E
:1011300021E030E002C0220F331F8A95E2F7809150
:10114000040290910502822B932B0E94800808953F
:1011500021E030E002C0220F331F8A95E2F720958C
:1011600030958091040290910502822393230E947E
:101170008008089521E030E002C0220F331F8A95D5
:10118000E2F78091040290910502822793270E9442
:10119000800808952091040230910502822B932B40
:1011A0000E94800808952091040230910502822354
:1011B00093230E9480080895209104023091050233
:1011C000822793270E94800808950895262F27706C
:1011D00091E001C0990F2A95EAF723E0769567958B
:1011E0002A95E1F7660F771F660F771FFA01E60F62
:1011F000F71F50E040E0682F70E08191DF01119708
:101200009B01042E02C0369527950A94E2F72170BF
:1012100021952827292328272C934F5F5F4F44309F
:10122000510559F70895A82FA77023E09695879543
:101230002A95E1F7880F991F880F991FFB01E80F86
:10124000F91F50E040E080E0219130E00A2E02C01A
:10125000369527950A94E2F721703327042E01C0B2
:10126000220F0A94EAF7822B4F5F5F4F44305105FB
:1012700059F70895262F953068F4803158F430E1FD
:10128000939FB0011124680F711D4CED51E0822F26
:101290000E94E6080895953070F4803160F440E1D2
:1012A000949F900111246CED71E0820F932F911D9A
:1012B0000E941309089580E00895B0E0A0E0E3E6FD
:1012C000F9E00C9462287C0100910402109105025F
:1012D0008091060290910702082B192BCFE0D0E0F5
:1012E000CC24C394D12CBC2EC6010C2E02C0880F76
:1012F000991F0A94E2F780239123892B49F42197BF
:1013000090F7B12C8B2DCDB7DEB7E9E00C947E2899
:10131000B7018C2F0E944110019789F3F3CFCF932F
:10132000DF93EC010E945D09BE010E944110DF9134
:10133000CF9108951F93CF93DF93EB019091DB0141
:10134000992339F0CB010E948F09DF91CF911F9132
:101350000895882369F0CB010E945D09182F682F3A
:10136000CE010E943A09BE01812F0E944110EDCFAB
:10137000CB010E944B09182FF6CF1F93CF93DF9319
:10138000C091080216E0809109028C1304C0DF911D
:10139000CF911F910895D0E01C9FF0011D9FF00D8B
:1013A0001124E65FFD4F4081518162817381848108
:1013B00095810E9446082196C770E5CF40913A0278
:1013C00050913B0260913C0270913D0280913E023F
:1013D00090913F020E944608089520910802909142
:1013E000090256E0291302C080E0089530E0529FC0
:1013F000F001539FF00D1124E65FFD4F71817613CC
:1014000006C07081781303C07281741304C02F5F0B
:101410003F4F2770E7CF81E008951F93CF93DF936D
:1014200080913F02807F09F04BC080913C0288236D
:1014300009F446C080910802C091090240913A0225
:1014400050913B0260913D0270913E02D42FD52312
:1014500016E0C817A9F190E061157105A9F1DF3F09
:1014600099F1189FF001199FF00D1124DF01A65F7B
:10147000BD4F11962C911197251326C02C91241342
:1014800023C012962C91129721111EC013962D91F4
:101490003C91261B370B283C3105B0F480913F026C
:1014A0008F70806180933F02E15FFD4F80818F707C
:1014B000806180838AE392E00E94C9070E94BD098F
:1014C000DF91CF911F91089501968770C2CFA1E15E
:1014D000B0E0EDE6FAE00C945F288C0185E0F801BD
:1014E000DE011D9601900D928A95E1F7F801F280D8
:1014F0008AE3A82E82E0B82E40913D0250913E0230
:101500004115510509F45AC190913A0220913B02CC
:10151000892F82238F3F09F451C1C080D1808380FD
:101520009480E0903C02B401641B750BEE2009F43A
:10153000F6C080913F02382F307F683C710508F07B
:10154000AFC031117AC0EF2C2D1116C09C1114C000
:10155000F11012C08F70806180933F020E94DE09FB
:10156000C5010E94C90780913F02F80185838E2D35
:101570006196ECE00C947B2881149104C9F18C2DC8
:101580008D218F3FA9F181E08F2580FF05C04F2D70
:101590006D2D8C2D0E94ED098114910459F18C2D33
:1015A0008D218F3F39F181E08F25F82FF170BF2E0B
:1015B00080FF39C04F2D6D2D8C2D0E94ED09A82E76
:1015C000811131C0CD86DE868D859E850E948F0972
:1015D000292F22952F70243078F49F702230A8F0A4
:1015E0009923B9F0F8019581907F99F4EA2CBFCF47
:1015F00080E0CBCF80E0D9CF2A5F2F70223068F017
:10160000C8010E94C907AB2CF1CF992311F08823A0
:1016100069F3805E883050F3F3CF803F38F3815F09
:10162000833070F7E3CFFF2009F4A1CF80913F0210
:10163000816080933F02E12C9ACF2D1105C09C114F
:1016400003C0FF2009F486C0C8010E94290888232E
:1016500019F1FF2009F180913F02803270F0209152
:101660003A0230913B0238872F8319869B868A86FF
:101670008C87CE0107960E94C90786E0F801AAE38D
:10168000B2E001900D928A95E1F70E940D0A0E9446
:10169000DE09EE24E3946BCFC8010E94C907F9CF9D
:1016A000311114C0782D998A888AA6016F2D8989F5
:1016B0000E943C088AE392E00E94C90786E0F50197
:1016C00011928A95E9F70E94DE09B5CF2D110EC05F
:1016D0009C110CC0F1100AC08583C8010E94C90783
:1016E00086E0F50111928A95E9F741CFC8010E9481
:1016F0002908882389F2FF2079F280913F02803205
:1017000008F4BBCF20913A0230913B023A832983FF
:101710001B829D828C828E83CE010196ACCF683C69
:10172000710508F03DC0EF2CFF2009F4B5CF2D1155
:1017300029C09C1127C080913F0280FD1AC0982FBC
:10174000907FB9F08583903F31F0982F907F905F24
:101750008F70892B8583C8010E94C90786E0F80134
:10176000AAE3B2E001900D928A95E1F70E94DE09AA
:10177000FECE86E0F801AAE3B2E001900D928A95D0
:10178000E1F7F5CEC8010E942908811176CF80913A
:101790003F02816080933F02C8010E94C907E7CEE3
:1017A000782D998A888AA6016F2D89890E943C0824
:1017B00086E0F50111928A95E9F7D8CFFF2009F468
:1017C0006BCFC8010E942908E82E882309F464CF52
:1017D00086E0F801AAE3B2E001900D928A95E1F764
:1017E0008AE392E00E9482040E940D0ABFCFACE01F
:1017F000B0E0EDEFFBE00C9468284F8358876987D1
:101800007A878B879C87CE0107960E94670A882378
:10181000B1F08A859B85892B39F04F815885842FBB
:1018200085238F3F09F06CC016E0809108029091EB
:101830000902891343C02C96E3E00C94842886E0C7
:10184000FE013796DE01119601900D928A95E1F71F
:101850008A859B85892B41F38F81988589238F3FCA
:1018600019F32091090230E0C90101968770992788
:10187000409108024817190671F40E940908109255
:1018800009021092080286E0EAE3F2E0DF011D920D
:101890008A95E9F7C9CF96E0929FD001939FB00D4A
:1018A0001124A65FBD4FFE01319601900D929A95CD
:1018B000E1F7809309020E94BD09B6CF819FC00164
:1018C0001124865F9D4F0E94670A882309F4B3CFD5
:1018D000E09108021E9FF0011124E65FFD4F408158
:1018E000518162817381848195810E944608809133
:1018F000080290E00196877099278093080295CF9F
:1019000069857A858B859C850E9446088DCF682FD6
:1019100080910401909105010E94D21F0895682FC3
:1019200080910401909105010E94E01F089580912B
:101930000401909105010E94EE1F08950E94B020BD
:101940002091630230916402821B930B9C0181E021
:101950002C3D354008F480E0089580916202859521
:1019600085958595089580916202877008950E94FB
:10197000B0202091600230916102821B930B8C3D5C
:10198000954048F08091620282FB882780F991E0BF
:1019900089278170089580E0FCCF90916202977052
:1019A00081E009F480E00895809187020895909184
:1019B0008702892B809387020895809590918702F2
:1019C000982390938702089510928702089590912A
:1019D0008602892B809386020895809590918602D5
:1019E000982390938602089510928602089580911C
:1019F0006502089508950E94FA0C0895CF93C82FA8
:101A000080914E0382FF0FC0809165028C1759F0C0
:101A10000E94B0209093640280936302C093650299
:101A20008C2F0E94FB0CCF91089580916502882332
:101A300049F010926502109264021092630280E0F5
:101A40000E94FB0C0895CF93DF93E0910401F09185
:101A50000501809187028083E0910401F0910501E6
:101A6000808190918602892B8083809165028823F2
:101A7000B9F00E949E0C81110E94150DE0910401A5
:101A8000F0910501808190916502892B808380917E
:101A90000401909105010E943E1F81110E94150DC5
:101AA000C0910401D091050140E250E060E472E091
:101AB000CE010E94F928892B59F080E2FE01A0E4B2
:101AC000B2E001900D928A95E1F7CE010E94CC1E02
:101AD000DF91CF91089508950E946B0D0895909124
:101AE0004E0392FF17C098E0899F90011124622B4A
:101AF000609362020E9498080E94B0209093610255
:101B000080936002809162028595859585950E94FB
:101B10006C0D08950E949808089510926202109228
:101B200061021092600280E00E946C0D0895909115
:101B300062028095892380936202282F277091F496
:101B4000282F082E000C330B9217130659F0909192
:101B50004E0392FF07C08595859585950E94A8083C
:101B60000E948D0D089590914E0392FB222720F93B
:101B7000281769F080FB92F990934E0380914D03F2
:101B800090914E030E94FB0D82E00E94970D0895F4
:101B900080914E0382FB882780F991E089270E947B
:101BA000B30D089581E00E94B30D089580E00E9476
:101BB000B30D08956FEF7FEF90E080E00E94412920
:101BC000089590E080E00E941D2921E0873E9E4F0D
:101BD00009F020E0822F089582E090E00E940F2912
:101BE000089583E090E00E940F29089584E090E03A
:101BF0000E941D290895BC0184E090E00E944129C3
:101C00000895AB01BC018FE090E00E943529089552
:101C1000AB01BC0183E190E00E943529089560E0AA
:101C200070E0CB010E94080E089560E070E0CB01E7
:101C30000E94010E0E940F0E089567EE7EEF90E065
:101C400080E00E94412960E082E090E00E94232928
:101C500060E083E090E00E94232910920702109236
:101C6000060260E074E184E090E00E94412960E0B7
:101C700086E090E00E9423296FEF87E090E00E94C9
:101C8000232940E050E0BA0188E090E00E94352925
:101C900060E08DE090E00E94232940E050E0BA012E
:101CA00088E190E00E94352960E087E190E00E94A1
:101CB000232940E050E0BA018CE190E00E943529F0
:101CC00070E060E080E290E00E94412940E050E056
:101CD000BA0188E190E00E9435290E94150E08950E
:101CE0000E941D0E0895682F8EE090E00E94232927
:101CF00008950E94BC20609398027093990280938B
:101D00009A0290939B026093940270939502809341
:101D10009602909397020895089508950E948D0E5B
:101D2000089508950E94910E08958BE291E10E941A
:101D3000B51E0E948C0E0E948E0E089581E00895BB
:101D40000E949E0E0895089508950E94A30E0E9479
:101D5000A40E08950E9447110E940F0408950E9446
:101D6000A7200E9422120E94AA0E0E946A1B0E94B3
:101D7000920E0895AAE0B0E0E0ECFEE00C945E283C
:101D80000E9438122AE8822E22E0922E640110E08E
:101D9000F601E190F1906F01812F0E946D111F5F9C
:101DA000153009F449C0E816F90691F380919C02B8
:101DB00081FD0E9476110E94A00E782E10E0812FE6
:101DC0000E946D117C01F401A190B1904F018A1520
:101DD0009B0561F1A826BF2400E0CC24C394D12C3C
:101DE000C5018C219D21892BC1F07720B1F00E8394
:101DF0001F8321E0C7018C219D21892B09F420E05C
:101E000028870E94B0208160782F9A8789874E8129
:101E10005F8168858A850E943D040F5FCC0CDD1CC4
:101E20000031F1F6F4013297F182E0821F5F153044
:101E300031F60E94790E22C0E816F90609F0B6CFF5
:101E40000E94B0208C01809188029091890208172D
:101E50001907A1F08FEF89838A831B820E94B0202B
:101E60008160782F9D838C8349815A816B818D811C
:101E70000E943D0410938902009388020E94B01BC7
:101E80000E9456140E9424042A96EDE00C947A28AD
:101E9000CF93DF930E944610EC01811520E5920755
:101EA000D0F5811530E4930708F086C0803E910597
:101EB00018F58D3C910508F07DC0883A910570F4C5
:101EC000853A910508F06EC08130910501F10097C7
:101ED000F1F00497E0F4D0E0C0E019C0813C910536
:101EE000D0F7C85AD0E0CC0FDD1FC15ADE4F0990A1
:101EF000D881C02DD4640BC08115904208F0A8C0D1
:101F0000C11581E0D80718F4C83ED10520F7CE01ED
:101F1000DF91CF910895803622E5920710F5803445
:101F200032E5930708F052C08032924508F047C06E
:101F3000C11582E5D80708F47DC02C2F269526957B
:101F400040E2249F900111248C2F8370C1E0D0E0E7
:101F500002C0CC0FDD1F8A95E2F7C22BD32BDD68C0
:101F6000D6CF803A22E5920760F4803832E59307B5
:101F700008F441C0CF71D0E0DC2FCC27C46FD06A09
:101F8000C6CF803C42E5940708F449C0C03E82E5D4
:101F9000D80708F0A0CFDC2FCC27CC27DF71C06F8B
:101FA000D06AB5CFC55AD0E0CF56DE4FC881D0E059
:101FB000D064ADCFD065ABCFDF70D06AA8CFCF7182
:101FC000D0E0DC2FCC27C16FD06AA1CF282F269577
:101FD0002695277080E2289F900111248C2F837012
:101FE000C1E0D0E002C0CC0FDD1F8A95E2F7C22B22
:101FF000D32BDC688CCF282F26952695277040E2BE
:10200000249F900111248370C1E0D0E002C0CC0F66
:10201000DD1F8A95E2F7C22BD32BDA6878CF8F7158
:102020000E94E810C82FD0E0DC2FCC27CC27DF712E
:10203000D0626DCF8C2F8F710E94E81035E0D6955D
:10204000C7953A95E1F7CF709C2FEC01D0695FCF2F
:102050008D2F8F710E94E81090E0982F8827882795
:102060009F719C012C2BE901E3CF462F753030F492
:10207000603120F4672F0E941C03089590E080E0F7
:1020800008950E9435100E94480F089582389105E6
:10209000B9F1B0F48133910509F47DC048F4893277
:1020A000910509F46DC08A32910509F47BC0089549
:1020B0008533910509F45FC08933910509F10895CD
:1020C000833E9105D9F138F4803E910529F1823E95
:1020D000910579F10895863E9105D9F1873E9105E4
:1020E00009F43EC0843E910541F520914E0321FF45
:1020F00024C080914D0384FD19C087EE90E00895BF
:1021000020914D03237009F05AC020914E0323FF04
:1021100014C089E290E0089520914D0320FD38C05D
:1021200030914E0330FF09C024FF43C090E080E0AF
:10213000089520914D0322FDF7CF089520914D037E
:1021400022FD3AC030914E0330FD39C024FFF5CF57
:10215000EDCF20914D0323FFF0CF24FDE7CFCDCF6E
:1021600020914D0323FD2EC030914E0331FFEECF61
:1021700084EE90E0089520914D0325FFDECFC9CF76
:1021800020914D0325FD21C020914E0323FFD5CF83
:1021900089E390E0D2CF20914D0326FFCECF8AE293
:1021A00090E0089520914D0326FFC7CF81E390E092
:1021B000089583EE90E0089582EE90E0089580EE19
:1021C00090E0089586EE90E0089585E390E008950C
:1021D00090914D0392FF06C0282F28712830F9F402
:1021E000877F846093FF06C0282F28712831F1F47F
:1021F000877E846120914E0320FF06C0382F3871FE
:102200003830D9F4877F816021FF06C0282F2871DC
:102210002831D1F4877E816194FD877E0895282F2F
:1022200024712430F9F68B7F8860DCCF282F24714D
:10223000243101F78B7E8861DDCF382F3171313049
:1022400019F78E7F8860E0CF282F2171213121F787
:102250008E7E8861E1CF80E008950E94DA0D0895B6
:102260000E9438128FE39CE90197F1F700C000004B
:102270000E94381280E00E946D1180FF04C00E940D
:102280002D110E94FB2008950E94301108950E9494
:10229000E10D811102C00E94700E0E94EC0D80932E
:1022A0009C020E94F60D90934E0380934D030E9472
:1022B00044110E94F10D90E00E945C08809104029C
:1022C000909105020E947D08089508950E9465116D
:1022D000089508950E9469110895E82FF0E0EE0F27
:1022E000FF1FE75AFC4F808191810895089580EA8D
:1022F0008A95F1F7089500C008950E947711089516
:10230000F894E82FE295EF70F0E031A1282F2F70BC
:1023100081E090E001C0880F2A95EAF7982F909508
:10232000932391A392A1892B82A378940895CF93AC
:10233000DF93C4EAD1E089918F3F11F00E948011B0
:1023400081E0C93AD807B9F7C4E9D1E089918F3F54
:1023500011F00E94801181E0C43AD807B9F7DF91EB
:10236000CF910895AF92BF92DF92EF92FF920F93B9
:102370001F93CF93DF938C01D62EC62FD0E0CE01D2
:102380008C559E4F7C01FC0120812F3F09F44DC0EC
:10239000F894E22FE295EF70F0E031A12F7081E028
:1023A00090E001C0880F2A95EAF7932F982B91A30C
:1023B00092A18095892382A378940E947B11E4E9FD
:1023C000F1E044EA51E021E030E0B12CA12C619130
:1023D0006F3FA9F1A62FA295AF70B0E090968C91B7
:1023E00090E06F7002C0959587956A95E2F780FD41
:1023F00026C0C901A82AB92A220F331F4E175F072A
:1024000031F7F70180818F3F11F00E94801161E068
:10241000A114B10409F460E08D2D0E947D11CC0F50
:10242000DD1FC00FD11FB982A882DF91CF911F910C
:102430000F91FF90EF90DF90BF90AF90089590E0E4
:1024400080E0D8CF0E9497118AE0E9E5F3E0DF0150
:10245000982F1D929A95E9F7EFE4F3E0DF011D92C2
:102460008A95E9F785E00E9473120E946E03089531
:10247000AAE0B0E0EEE3F2E10C9466288E010F5F73
:102480001F4F8AE0F80111928A95E9F7F12C6F2D20
:10249000C8010E94B211F394F5E0FF12F8CF4AE0B0
:1024A00050E0B8018FE493E00E94F92821E0009702
:1024B00009F420E0892B41F08AE0F801AFE4B3E0B1
:1024C00001900D928A95E1F745E069E573E08FE4AC
:1024D00093E00E947412182F0E947103812F2A9694
:1024E000E5E00C9482280895CF92DF92EF92FF925C
:1024F0001F93CF93DF936C017B01C42F222349F0FC
:1025000081E080939F020E94B02090939E0280936E
:102510009D0210919F0211110AC010E0812FDF91DE
:10252000CF911F91FF90EF90DF90CF900895809111
:102530009D0290919E020E94C820059770F3D0E002
:10254000CC0FDD1FAE01B601C7010E94F928892B0F
:1025500041F0AE01B601C7010E94062910929F0208
:10256000DDCF10E0FBCF0E9494220E94AF0E0E94AC
:10257000A12208950E94A6220E94BA0E0E94C022A3
:1025800008950E9449200E947A220E94950E0E947E
:10259000B3120E94BA120E94A50EFBCF8091A60230
:1025A00080FF0DC060910B0170E0660F771F6038EF
:1025B000710570F56115710569F1862F089581FF28
:1025C00007C060910B0184E0689FB0011124EFCF38
:1025D00060910B0182FD0AC08091A5028823A9F0B9
:1025E00020910A0160910B01821710F088E0ECCF76
:1025F000869FC001112433E0880F991F3A95E1F7B7
:10260000622F70E00E94EC27D2CF68E070E0D5CF57
:102610008FE7089581E008958091A60280FF0CC0A5
:102620006091070170E075956795759567956115DF
:10263000710549F1862F089581FF06C06091070159
:1026400070E075956795F3CF6091070182FD0BC02F
:102650009091A4029923A1F0609106018091070155
:10266000961738F0682F70E06038710500F38FE737
:102670000895899FC001112470E00E94EC27F4CFD7
:1026800061E070E0D7CF81E008958D3C31F40E9485
:10269000CE1281958093AA0208958E3C19F40E946F
:1026A000CE12F8CF8F3C31F40E94CE1281958093E8
:1026B000A9020895803D19F40E94CE12F8CF893DF9
:1026C00029F40E940C138093AB0208958A3D21F4F3
:1026D0000E940C138195F7CF8B3D31F40E940C13AF
:1026E00081958093AC0208958C3D19F40E940C13DF
:1026F000F8CF9FE2980F983070F4815D990B21E03C
:1027000030E001C0220F8A95EAF78091A802822B5F
:102710008093A80208958D3D31F48091A6028160D6
:102720008093A60208958E3D21F48091A6028260D6
:10273000F7CF8F3DB9F78091A6028460F1CF409129
:10274000A9028D3C59F48091AA0287FF0DC0109216
:10275000AA0241110BC01092A50208C08E3C81F460
:102760008091AA0218169CF3442381F08091AB0259
:102770009091AC02892B09F05AC01092A4020895DE
:102780008F3C49F447FFF0CF1092A9028091AA0232
:102790008111ECCFE0CF803D19F41416ACF3E4CFF7
:1027A0009091AB02893D29F41916F4F61092AB0210
:1027B000DBCF8A3D19F497FFD7CFF8CF9091AC02C9
:1027C0008B3D29F497FFD0CF1092AC02CDCF8C3D3A
:1027D00019F41916CCF3C8CF9FE2980F983090F4F3
:1027E000815D990B21E030E0B90102C0660F771FCF
:1027F0008A95E2F7CB0180959091A8028923809376
:10280000A802B2CF8D3D31F48091A6028E7F8093D5
:10281000A602AACF8E3D21F48091A6028D7FF7CF2C
:102820008F3D09F0A1CF8091A6028B7FF0CF089554
:102830000E94B0209C019091A9028091AA02982B3D
:1028400021F03093A3022093A2029091AB028091D9
:10285000AC02982B21F03093A1022093A00287EACA
:1028600092E00E94E61E089586E0E7EAF2E0DF01CA
:102870001D928A95E9F71092A5021092A402109277
:10288000A6020895FC01828181110EC0838181110D
:102890000BC08481811108C091E08581811101C044
:1028A00090E0892F8170089581E0FCCFA6E0B0E030
:1028B000ECE5F4E10C94682886E0E7EAF2E0DE015A
:1028C000119601900D928A95E1F71092A90210924B
:1028D000AA021092AB021092AC028B819C81892BD0
:1028E00089F08091A2029091A3020E94C820AC01BD
:1028F0009091A5029923C9F180910C0184171506C6
:1029000008F440C08D819E81892B91F08091A002B6
:102910009091A1020E94C820AC019091A402992339
:1029200009F471C0809108018417150608F479C074
:10293000BE016F5F7F4F87EA92E00E940020811105
:1029400005C087EA92E00E94421481110E94181487
:1029500086E0FE013196A7EAB2E001900D928A95D9
:10296000E1F72696E3E00C94842820910D018AE09B
:10297000289F900111242417350720F69F5F90931C
:10298000A50202C09F3FD1F71B81112359F00E947D
:10299000CE129FEF11160CF491E0899F802D112427
:1029A0008093A9021C81112359F00E94CE129FEF3F
:1029B00011160CF491E0899F802D11248093AA02B6
:1029C0003091A902332309F49DCF2091AA0222233A
:1029D00009F498CF45EB3403C0011124992359F031
:1029E0009093A90245EB240390011124332339F07D
:1029F0003093AA0287CF81E08093A902F3CF81E0D0
:102A00008093AA027FCF209109018AE0289F90013C
:102A100011242417350708F08BCF9F5F9093A402F1
:102A200002C09F3FD1F71D81112359F00E940C1362
:102A30009FEF11160CF491E0899F802D1124809353
:102A4000AB021E81112359F00E940C139FEF111647
:102A50000CF491E0899F802D11248093AC02309179
:102A6000AB02332309F464CF2091AC02222309F492
:102A70005FCF45EB3403C0011124992359F09093A3
:102A8000AB0245EB240390011124332339F030933A
:102A9000AC024ECF81E08093AB02F3CF81E0809314
:102AA000AC0246CFEF92FF920F931F93CF93DF9329
:102AB000EB01E82FD1110EC0442321F0F0E0EA5FD2
:102AC000FC4FE4916E2F7E2F8E2FCDB7DEB7E6E060
:102AD0000C9481280D2F10E0282F30E0442329F09A
:102AE0002A5F3C4FF901249130E0F6E0CF9FC0010E
:102AF0001124EFEFF0E0BF010E94D827AB018C2F2B
:102B000090E0880F991FA5E5A49FB001A59F700DC7
:102B10001124861B970B982F990F980FBF01601BEC
:102B2000710B629FD001639FB00D729FB00D112495
:102B30008B2F9D9FB0011124672F7727EF01C61BB4
:102B4000D70BBE01629FE001639FD00D729FD00D35
:102B500011247F01E91AF108E09EB001E19E700D99
:102B6000F09E700D1124672F7727E61BF70BE29F6D
:102B70008001E39F100DF29F100D1124E12F722FA1
:102B80004230510599F048F44115510569F0413042
:102B9000510581F0EB2F8D2F07C04430510569F0AE
:102BA00080F046305105B1F76E2F8FCFE22F7B2F8B
:102BB000812FFACFE22F7D2FF7CFEB2F822F712FAE
:102BC000F3CF7B2F822FED2FEFCF41E00E945215E4
:102BD000089508950E94E5150895CF93DF93762F09
:102BE000E901682F842F0E94EA15798368838A831C
:102BF000DF91CF910895493C08F048EC0E94ED1513
:102C0000089580916303982F9E7F61F481708260A4
:102C10008093630380916603893C18F088EC80936D
:102C2000660308958635B0F381708465F1CF88E03E
:102C300090E00E9417290895CF92DF92EF92FF92C1
:102C40006B017C010E940116B701A60188E090E0AB
:102C50000E943529FF90EF90DF90CF900895E3E632
:102C6000F3E083E0808311828FEF828388EC83839B
:102C7000148260817181828193810E941C16089563
:102C80008091630380FF02C08695089580E00895D7
:102C900090916703933018F49F5F909367038823A4
:102CA00051F060916303709164038091650390918A
:102CB00066030E941C16089581E00E94481608953C
:102CC00090916703992319F091509093670388239B
:102CD00051F060916303709164038091650390915A
:102CE00066030E941C16089581E00E9460160895F4
:102CF00070E00E94DB1C08956091120180916303D3
:102D000080FF0BC08091110123E0829FC00111243C
:102D100088599C4F0E9478160895809113019091D4
:102D2000140123E0829FF0011124E859FC4F891718
:102D300048F71182108212828F5F3396F8CF9091FC
:102D4000630390FF0EC0909113012091140133E0B2
:102D5000939FF0011124E859FC4F921718F00E943C
:102D60007C1608958183608342839F5F3396F5CFFD
:102D7000A3E0B0E0EEEBF6E10C94692890916303D8
:102D800090FF0AC09E012F5F3F4F0E94FB154B81B1
:102D900069818A810E949F162396E2E00C9485281F
:102DA000CF93DF93EC01EC81F0E0EF5FFD4F4491B6
:102DB000E3E6F3E0628181810E94B8168C818F5F27
:102DC0008C83DF91CF910895CF93DF93EC01E3E6FD
:102DD000F3E0438162818C810E94B8168C818F5F01
:102DE0008C83DF91CF910895A3E0B0E0EAEFF6E1A4
:102DF0000C9467288C018091AD0281110AC09E015C
:102E00002F5F3F4F48EC6FEF0E94FB158A81809344
:102E1000AD02F8016481613069F08091AD0240E05B
:102E2000662361F040E0623011F44091AD0280E031
:102E300060E004C06091AD0240E080E00E949F1617
:102E4000F801848190E0019663E070E00E94EC2735
:102E500084832396E4E00C948328A3E0B0E0E3E3CA
:102E6000F7E10C946228082FD62EE42EC22E909102
:102E7000630390FF29C0E92FE695AE2FB0E0A75578
:102E8000BE4F8C9180931D039E7F923009F59E0169
:102E90002F5F3F4F802F0E94FB154B8169818A81F4
:102EA0000E949F1600936403D0926503E09266032C
:102EB000CC2051F0609163037091640380916503AD
:102EC000909166030E941C162396E9E00C947E28DC
:102ED000823019F4E0906603E5CF863019F4009152
:102EE0006403E0CF8930D9F38931E1F6E9516E2FDF
:102EF0006170B62EE695F0E0EF5FFC4F1491F12C77
:102F000060911501F61618F00E947C16CBCFF19E49
:102F1000C001112470E00E94D827802FB11014C086
:102F2000860F20911301622F6F0D7727771F9B016A
:102F3000220F331F260F371F28593C4F4E2D6D2D62
:102F40000E94FB15F394DCCF861BEBCFE3E6F3E0A6
:102F50009181282F4381628188E0890F0E942D177B
:102F6000089581E00E94A6170895E3E6F3E09181B9
:102F7000282F4381628188EF890F0E942D170895C1
:102F800081E00E94B5170895E3E6F3E0628128E04E
:102F9000620F08F46FEF282F438181810E942D1763
:102FA000089581E00E94C4170895E3E6F3E062818A
:102FB00028E0621B08F460E0282F438181810E9491
:102FC0002D17089581E00E94D5170895E3E6F3E0F8
:102FD000438128E0420F08F44FEF282F628181815E
:102FE0000E942D17089581E00E94E6170895E3E6F8
:102FF000F3E0438128E0421B08F440E0282F62817F
:1030000081810E942D17089581E00E94F71708958D
:1030100020E00E942D170895EF92FF921F93CF9307
:10302000DF93EC0110E0EE24EA94F12C609115019D
:10303000161770F00E947C169A818C8190FF27C031
:103040008F5F8C83DF91CF911F91FF90EF90089558
:1030500020911301422F410F5527551FCA019A0194
:10306000220F331F280F391F28593C4F70E0C7012A
:103070000E94EC27962F8C81409166036091650336
:10308000199F800D11240E94FB151F5FCFCF815027
:10309000D8CFB0E0A0E0EFE4F8E10C946128FC01A7
:1030A00082810FEF80FF01E010E044E1A42E8091C7
:1030B0001501181798F00E947C168091AF0201301C
:1030C00009F04FC0811102C0809115018150809399
:1030D000AF02CDB7DEB7EAE00C947D28C0911301B2
:1030E000C12ED12CCC0DDD2DD11DCE01880F991F05
:1030F000C80FD91FC859DC4F198218821A8234E0D0
:10310000E32EF12CB12C8091AF028B0D85311CF197
:103110006A2D0E94CA27892F082E000C990BC81609
:10312000D90691F4809166038E9DA0018F9D500D6C
:10313000112455954795559547959E0160916503D6
:10314000809164030E94FB15B00EF1E0EF1AF108C4
:10315000D1F61F5FACCF87FFDFCF90911501890FAC
:10316000DBCF90E001966091150170E00E94EC27A2
:10317000AECF0F931F93CF93DF9380911301909164
:10318000140123E0829FF0011124E859FC4F8917B4
:1031900040F1C0E0D3E060911501C61740F10E94F4
:1031A0007C1620910F018091AE02820F8093AE02B7
:1031B00090911001920F90931001191654F4082E5B
:1031C000000C990B409115014150550B8417950740
:1031D0001CF0219520930F01DF91CF911F910F914A
:1031E00008951182108212828F5F3396D0CF0C2FF8
:1031F00010E070E0C8010E94EC2720911301820FBB
:10320000482F50E02091AE02022E000C330B021723
:103210001307BCF020911001022E000C330B201775
:1032200031077CF08D9F9001112428593C4F40912B
:10323000660360916503809164030E94FB15CF5F74
:10324000AACFFA01EE0FFF1FE40FF51FE859FC4F5C
:10325000118210821282F3CFB0E0A0E0E2E3F9E144
:103260000C945F28EC014C81042F10E09801D801E8
:103270000E9430289B01AC010E9446284B015C0152
:10328000E0E2F0E0E01BF10BA5E5B0E0AC019B0152
:103290000E9446286B017C019F01DF010E942828C3
:1032A0009B01AC010E9451289B01AC01280D391DE6
:1032B0004A1D5B1DC701B6010E940028F22E822F15
:1032C00090E039E23F1520F143E0249F9001112462
:1032D00035952795122F109500E085E5E82EEF181B
:1032E00080911501081718F10E947C169C8181E0DD
:1032F000992319F0903219F48FEF80930E01809189
:103300000E01890F8C83CDB7DEB7ECE00C947B28DF
:1033100025E530E0B901681B790B9B01220F331FB3
:10332000260F371F37FFD4CF2F5F3F4FD1CF8E2DC2
:1033300001FD8F2D20911301622F600F7727771FDA
:103340009B01220F331F260F371F28593C4F412F57
:10335000609165030E94FB150F5FC2CF0F931F930F
:10336000CF93DF93EC0110E000E0909115019017EE
:10337000110609F06CF40E947C168C8190E0019695
:10338000817099278C83DF91CF911F910F910895C0
:1033900020911301A801420F511D9A01220F331FE2
:1033A000240F351F28593C4F4C8160916503809153
:1033B000640396959017110651F04CF0442349F0A0
:1033C000409166030E94FB150F5F1F4FCECF442331
:1033D000B9F340E0F7CFB0E0A0E0E1EFF9E10C9401
:1033E0005B28FC016280448081E08483E1E0F2E0BC
:1033F0007490E0E8F2E0E491C0916603C695C1588C
:10340000D0E0CC0FDD1FCD2FDD27812C75E0972E6E
:10341000AA24AA94B12C55245A94E719EE2EF12C23
:1034200080911501881638F00E947C16CDB7DEB762
:10343000E0E10C947728C82CD12C82E0861568F046
:103440009C9CF0019D9CF00D1124E055FD4F809156
:1034500064038083809165038183411023C09C9C19
:10346000F0019D9CF00D1124E055FD4F1382128256
:1034700020911301C601820F911D9C01220F331F61
:10348000280F391F28593C4F9C9CF0019D9CF00D42
:103490001124E055FD4F4281618180810E94FB151E
:1034A0008394BECF9C9C80019D9C100D11240055DF
:1034B0001D4FF80183818823F1F081508383859D1E
:1034C000C0011124648170E00E94D827FB01FF270E
:1034D000EF5FFD4F8491E82FE719E59DC0011124AE
:1034E000B7010E94D82780916603689FB00111241C
:1034F000F8017283BDCF0E94DC28B5010E94EC2741
:103500008C179D070CF0B4CFF2E0F61598F40E94EA
:10351000DC28B5010E94EC27F80180830E94DC289A
:10352000209165032695622F70E00E94EC27280FFA
:10353000F80121839C9CF0019D9CF00D1124E05525
:10354000FD4F128280916603893C58F088EC9C9C68
:10355000F0019D9CF00D1124E055FD4F8483838381
:1035600087CF8431A0F784E1F2CFE3E6F3E08081F6
:103570008E7F808360817181828193810E941C167D
:1035800010921E030E947C160895E3E6F3E080810A
:103590008E7F808310921E030E947C1608951092E5
:1035A0001E0380911B0381110AC081E080931B03DD
:1035B00080916303817080931A030E94C51A089555
:1035C00060916303669570E04BE050E086E191E026
:1035D0000E94EC28892B19F481E080931E030E943D
:1035E000B020909315038093140308959091630382
:1035F00090FF2BC09170811129C09260909363035A
:10360000662351F0609163037091640380916503B8
:10361000909166030E941C1660916303669570E0AA
:103620004BE050E086E191E00E94EC28892BA9F064
:1036300010921E0381E0809317034091660360910E
:103640006503809164030E94081808958B3210F07E
:103650009465D4CF880F982BD1CF0E94E01AEACF7F
:10366000682F90916303969581E0890F8B3208F063
:1036700081E00E94F61A089581E00E94301B0895AF
:10368000682F9091630396958FEF890F09F48AE272
:103690000E94F61A089581E00E94401B089561E09F
:1036A0000E94F61A0895E3E6F3E08081816080834A
:1036B00086950E944F1B08958091630380FF03C08D
:1036C0000E94B51A08950E94531B089560E00E945D
:1036D000F61A089580911C0381112EC00E94E10DFD
:1036E000811104C00E94700E0E942F160E941716AE
:1036F0006093630370936403809365039093660300
:103700006E7F61F40E942F160E9417166093630368
:103710007093640380936503909366030E9401167F
:1037200010921E038091630380FF03C086950E9460
:10373000661B81E080931C030895E3E6F3E080813B
:103740008160808386950E94661B089510921B03FA
:1037500080911A0381110E949D1B0E94E01A089516
:103760000F931F93CF93DF9380911E038823B9F1AA
:1037700080911D03E0916303E695E81BE093160337
:10378000823091F5F0E0E350FE4FE491CE2FD0E08F
:1037900000ED16E180911703882361F01092170362
:1037A0000E94B02090931503809314031092190384
:1037B000109218030E94B020E0911403F0911503B9
:1037C0008E1B9F0B8F3F9F4750F4EC0FFD1FF09314
:1037D0001503E093140384E193E0F8010995DF9168
:1037E000CF911F910F910895863049F4F0E0E65093
:1037F000FE4FE491CE2FD0E004EE16E1CBCF89301E
:1038000051F4E695F0E0E950FE4FE491CE2FD0E080
:103810000CE018E1BFCF8F3051F4E695F0E0EC50AA
:10382000FE4FE491CE2FD0E009E418E1B3CF85310B
:1038300049F4F0E0EF50FE4FE491CE2FD0E009EBD9
:1038400018E1A8CFC8E2D0E00CE219E1883109F410
:10385000A1CF833239F4EFEEF1E0C591D49104EFBA
:1038600016E198CFC4EFD1E00EEA19E1843209F4F1
:1038700091CFC0EDD7E009EE15E1853209F08ACF8E
:103880008E2F63E00E94BE27E92FF0E0E451FE4F47
:10389000E491CE2FD0E00BEE19E17CCFFA0181113B
:1038A00001C0FB0109950895CF93DF93C82FD62F50
:1038B0000E9440168C1748F00E9440168D1728F47D
:1038C0000E943C1BDF91CF9108958C2F0E944F1BCB
:1038D000F9CF1F93CF93DF93EC01FB0112811111FC
:1038E00010C00E94D40C8272FE01E052F847E5310C
:1038F000F10508F05EC0EC57F64D0C9422280E94AA
:103900005C1B812FDF91CF911F9108954BE45BE108
:103910006CE37BE10E944E1CF4CF4CE35BE16BE473
:103920007BE1F8CF40EC57E161EB77E1F3CF41EB7E
:1039300057E160EC77E1EECF42EE57E161ED77E1E0
:10394000E9CF41ED57E162EE77E1E4CF44E058E1A1
:1039500063EF77E1DFCF43EF57E164E078E1DACF5F
:1039600044E756E16CE576E1D5CF4CE556E164E7F6
:1039700076E1D0CF81E00E944F1BC3CF65E082E0AB
:103980000E94541CBECF68E086E0FACF6EE089E06A
:10399000F7CF64E18FE0F4CF67E185E1F1CF88E113
:1039A000EACF62E289E1ECCF83E2E5CF6AE285E229
:1039B000E7CF11E0A6CF6A9A4EB14B7F5EB154605B
:1039C000EFB7F8949B01220F331F260F371F280FE4
:1039D000391F2817390741F4EFBF8FE594E00197AD
:1039E000F1F700C000000895DC016D91CD0178E091
:1039F0005EB9000000C067FF4EB9660F000000C04E
:103A000000C000C04EB900C07A9591F7E2CFCF93C5
:103A1000DF93EC01FB018281882309F4D2C09E016F
:103A200030572332310508F0B2C00E94F60D909352
:103A30004E0380934D03FE01E150F047E232F10561
:103A400020F4E756F64D0C94222880914D038160B6
:103A500080934D0393C080914E03886080934E0302
:103A60008DC080914D038260F3CF80914D038460BF
:103A7000EFCF80914D038860EBCF80914E03816042
:103A8000EDCF80914E038260E9CF80914D0380613C
:103A9000DFCF80914D038062DBCF80914D03806446
:103AA000D7CF0E94090880914D038068D1CF8091C3
:103AB0004D038C60CDCF80914E038360CFCF80913A
:103AC0004D038E7FC5CF80914E03877FC7CF8091F6
:103AD0004D038D7FBDCF80914D038B7FB9CF8091FA
:103AE0004D03877FB5CF80914E038E7FB7CF8091F6
:103AF0004E038D7FB3CF80914D038F7EA9CF8091F0
:103B00004D038F7DA5CF80914D038F7BA1CF0E9468
:103B1000090880914D038F779BCF80914D03837F60
:103B200097CF80914E038C7F99CF80914D0382FB7C
:103B3000992790F921E0922790FB82F990FB83F975
:103B400087CF80914E03982F909591708E7F892B0F
:103B500090FB81F983CF90914D03892F8F7B96FF46
:103B6000806476CF0E94090890914D03892F97FBBE
:103B700087F980586DCF81E00E94730E80914D03CC
:103B800090914E030E94FB0D0E94090880E0DF9196
:103B9000CF91089580E0F0CF90914D03892F8F7ED3
:103BA00094FF806155CF90914D03892F8E7F90FFB8
:103BB00081604ECF90914E03892F877F93FF88605D
:103BC0004DCF81E0E4CFCF93DF93EB0186319C476B
:103BD00011F50E94D40C9A81992399F08A7A91E088
:103BE00009F490E090931F03811109C089E20E94BB
:103BF000870C0E94230D80E0DF91CF91089585E32B
:103C0000F6CF80911F03811104C089E20E948F0CBE
:103C1000F0CF85E3FBCF81E0EFCF0F931F93CF93DE
:103C2000DF93C42FD22FFC0182818823C9F04093F7
:103C300022030E94B020909321038093200380E20E
:103C40008C0F883040F4C77081E001C0880FCA959E
:103C5000EAF70E949F05DF91CF911F910F91089580
:103C600010912203141332C08091200390912103FC
:103C70000E94C820883C910548F5C0E2CD0F1D1771
:103C8000B9F080E2810F883040F4177081E001C004
:103C9000880F1A95EAF70E94A605C83048F481E01B
:103CA0009D2F977001C0880F9A95EAF70E949F0593
:103CB000802F0E949605C83070F6D77081E001C051
:103CC000880FDA95EAF70E94A605C5CF80E28C0F2F
:103CD000883008F6C77081E001C0880FCA95EAF7FE
:103CE000F2CF0F93DB0188519C4787309105A0F5F7
:103CF000FC01E554F64D0C94222806E221EE41EE3B
:103D00006AE17CE7CD010E940D1E80E00F910895CD
:103D100007E225EE45EE6BE17CE7F4CF06E221EE0B
:103D200040EE68E17CE7EECF07E225EE44EE69E184
:103D30007CE7E8CF06E221EE42EE6CE17CE7E2CFE1
:103D400007E225EE46EE6DE17CE7DCCF08E221E0FC
:103D500045EE6EE17CE7D6CF12968C91882319F060
:103D600010922203D3CF81E0D1CF9093D5018093DD
:103D7000D401089590932803809327030895E09138
:103D80002703F0912803309729F00190F081E02D6E
:103D90000995089580E00895E0912703F0912803A4
:103DA000309799F020912901222359F020914D0359
:103DB00027FF07C0DC012C9111962C93119726E068
:103DC0002C930280F381E02D09950895E09127035B
:103DD000F0912803309739F022E0DC012C93048025
:103DE000F581E02D09950895A3E0B0E0EAEFFEE14A
:103DF0000C94692820912503309126032817390750
:103E0000A1F09093260380932503E0912703F0917E
:103E10002803309751F023E029839B838A8306800F
:103E2000F781E02DCE01019609952396E2E00C94EE
:103E30008528A3E0B0E0EFE1FFE10C946928209130
:103E400023033091240328173907A1F0909324030A
:103E500080932303E0912703F0912803309751F0DA
:103E600024E029839B838A830680F781E02DCE019D
:103E7000019609952396E2E00C948528FC01329680
:103E800080912901882321F080914D039EE187FFD5
:103E900096E080E0915008F4089521912223D1F317
:103EA0008F5FF8CF662301F1209129012223F1F0E1
:103EB00020914D0327FF1AC0462F469546954695FB
:103EC0004E3190F4677021E030E002C0220F331FC2
:103ED0006A95E2F7840F911DFC01828190E028230E
:103EE000392381E0232B69F480E00895FC013296A8
:103EF00008962191261721F0E817F907D1F7F4CF9A
:103F000081E008959C01FC0132969FEF80E0419191
:103F1000461751F09F3F19F4411101C0982F8F5F50
:103F20008630A9F79F3F09F40895290F311D97FDA9
:103F30003A95F90162830895FC0132960896219121
:103F4000261303C0DF0111971C92E817F907B9F790
:103F50000895E62FE695E695E695EE3168F4E80FCC
:103F6000F92FF11D677021E030E001C0220F6A9542
:103F7000EAF78281822B82830895E62FE695E69503
:103F8000E695EE3170F4E80FF92FF11D677021E02E
:103F900030E001C0220F6A95EAF72095828128233C
:103FA0002283089520912901222339F020914D0385
:103FB00027FF03C00E94A91F08950E94821F089531
:103FC00020912901222339F020914D0327FF03C0BE
:103FD0000E94BD1F08950E949C1F0895FC01329607
:103FE00080912901882351F080914D0387FF06C0FD
:103FF0008EE1DF011D928A95E9F7089586E0F9CFF9
:1040000046E050E00E94F92821E0892B09F420E0E5
:10401000822F089508950E940A200895811106C0F4
:1040200081E0809329030E940B20089582E0F9CF5C
:1040300083E0809329030E940B2008950E940E20A4
:10404000089581E0809329030E940B2008950E9427
:1040500021200895089508950E942B200895089521
:1040600008950E942A200895CF930E942F200E9435
:1040700038120E943020C0E08C2F0E946D11892BD5
:1040800031F4CF5FC530C1F780E0CF91089581E072
:10409000FCCF85B7806885BF85B7806885BF0895E8
:1040A0001F921FB61F9211248F939F93AF93BF93BC
:1040B00080912A03811113C08091A4039091A503DC
:1040C000A091A603B091A7034196A11DB11D8093B5
:1040D000A4039093A503A093A603B093A703BF9155
:1040E000AF919F918F911F901FBE1F901895809147
:1040F000AC03843031F10E94E90310922A0388E175
:1041000090E020E40FB6F894A895809360000FBE6D
:104110002093600083B7817F846083BF83B7816011
:1041200083BF7894889583B78E7F83BF0FB6F8944A
:10413000A895809160008861809360001092600073
:104140000FBE08950E9409080E94F003089582E0BE
:1041500084BD93E095BD9AEF97BD80936E0008955E
:104160002FB7F8948091A4039091A503A091A60382
:10417000B091A7032FBF08952FB7F8946091A403BF
:104180007091A5038091A6039091A7032FBF089576
:104190009C014FB7F8948091A4039091A503A0913E
:1041A000A603B091A7034FBF821B930B0895789489
:1041B0001F921FB61F9211248F939F93AF93BF93AB
:1041C0008091A4039091A503A091A603B091A703A9
:1041D0000196A11DB11D8093A4039093A503A09304
:1041E000A603B093A703BF91AF919F918F911F90AA
:1041F0001FBE1F90189581E08093E00080E28093BD
:10420000D8001092C9008FE19EE40197F1F700C039
:10421000000087E090EBDC018093B5039093B60338
:10422000A093B703B093B80388E19CE00FB6F8946D
:10423000A895809360000FBE90936000FFCF88E147
:104240009CE00FB6F894A895809360000FBE909301
:104250006000FFCF80914B0308959B01BA019091BC
:10426000AC039430E9F48F708093E9009FEF809164
:10427000E800915085FD06C085ED8A95F1F70000B4
:104280009111F5CF8091E80085FF0AC050E040E031
:10429000C9010E9437238091E8008E778093E8005F
:1042A000089543E050E0BC0182E00E942D21089572
:1042B00046E050E0BC0182E00E942D210895CF939A
:1042C000DF93EC0180912901811111C048E050E099
:1042D000BE0181E00E942D2180E2FE01ABE2B3E04D
:1042E00001900D928A95E1F7DF91CF910895809129
:1042F0004D0387FF05C040E282E050E0BE01EACFF7
:1043000048E081E0FACF8091AB03811109C00E949F
:10431000C7240E9424258091E20084608093E200FB
:1043200008951092AB0308950E9421200895609192
:10433000A80381E0611101C080E00E941820089567
:104340009091AC0381E0943009F080E06091A80383
:104350000E941E20089542E061EC81E00E94432407
:1043600042E261EC82E00E9443249091AC0381E040
:10437000943009F080E06091A8030E940E20089517
:104380008091AE03833009F461C030F48130D1F103
:10439000823009F49EC008958A3009F48AC08B30B7
:1043A00009F46FC0893009F050C08091AD038132AB
:1043B00009F04BC08091B1039091B203029708F0CD
:1043C00044C08091E800877F8093E8008091E800F6
:1043D00082FF37C09091F3008091F200029731F490
:1043E0008091F100813011F0863021F48091F1004C
:1043F00080934B038091E8008B778093E8000E94C4
:10440000772423C08091AD03813AF9F48091E800CC
:10441000877F8093E8008091B1039091B203892B4C
:1044200061F460E28BE293E070E00E948623809169
:10443000E8008B778093E800089560E090E080E0EA
:10444000F3CF8091AC038111C1CF08958091AD036A
:10445000813AD9F78091B1039091B203892BA9F7E2
:104460008091E800877F8093E8008091E80080FFDA
:10447000FCCF809129018093F1008091E8008E7734
:10448000BCCF8091AD03813201F78091B10390914F
:10449000B203892BD1F68091E800877F8093E800F2
:1044A0000E9477248091AF03809329010E9409081C
:1044B00008958091AD03813241F68091E800877FB5
:1044C0008093E8000E9477248091B00380934C038E
:1044D00008958091AD03813A09F0B7CF8091E8004B
:1044E000877F8093E8008091E80080FFFCCF809177
:1044F0004C03C1CF84B7877F84BF0FB6F894A895CB
:1045000080916000886180936000109260000FBE0F
:1045100080E890E00FB6F89480936100909361007A
:104520000FBE0E94272008950E94C7240E942425C0
:10453000E2EEF0E080818460808378940E94A3277B
:10454000089581E291E00E94BA1E08958091AC0323
:10455000853031F48091AC03853019F00E94A2209F
:1045600008950E9477208091AA03882399F30E94DE
:104570003420882379F30E9421230E940908EACF7E
:1045800008959A014091B3035091B4030E94C92247
:104590000895492F55274330510519F168F44130EA
:1045A000510509F444C04230510509F445C090E07A
:1045B00080E050E040E025C04132510549F14232EF
:1045C0005105A9F780E490E047E455E061157105D5
:1045D000C1F086EB90E041E954E06130710589F06B
:1045E000E6CF99278130910581F0009729F0029755
:1045F000F1F6E6E0F4E002C0E0E4F4E0849190E05B
:10460000AF01F901518340830895E4E2F4E0F6CF6D
:1046100089E090E046E554E06115710591F389E089
:1046200090E04FE654E06130710559F3C0CF82E16C
:1046300090E04FE754E0E5CF8BE390E044E454E0B2
:10464000E0CF80E189BD82E189BD09B400FEFDCFE4
:104650008091D8008F7D8093D8008091E0008260A7
:104660008093E0008091E00081FDFCCF0895AF923F
:10467000BF92CF92DF92FF920F931F93CF93DF935E
:104680006C01EB018A010E949624F82E811123C04F
:104690000115110539F0F80180819181C81BD90BF2
:1046A000C80ED91EB12CA12C2097A9F08091E8004A
:1046B00085FD22C08091E8008E778093E800011587
:1046C0001105A1F0F80180819181A80EB91EB18277
:1046D000A08285E0F82E8F2DDF91CF911F910F9151
:1046E000FF90DF90CF90BF90AF9008950E949624E6
:1046F0008823D1F2F82EEFCFF60181916F018093DC
:10470000F1002197FFEFAF1ABF0ACECFFC018091D5
:10471000B3039091B40386179707A0F06115710554
:1047200029F49091E8009E779093E80090E061155D
:10473000710551F4911108C08091E80082FF34C0E6
:1047400080E00895BC01F2CF8091AC038823C1F1D1
:104750008530C1F18091E80083FD30C08091E80090
:1047600082FDEACF8091E80080FFE1CF8091F300E5
:104770002091F200382F6115710519F028303105AC
:1047800058F091E02830310509F090E02091E800E0
:104790002E772093E800CBCF81918093F100615078
:1047A00071092F5F3F4FE7CF8091AC03882341F021
:1047B000853041F08091E80083FFBECF81E008950D
:1047C00082E0089583E00895FC018091B303909105
:1047D000B40386179707A0F06115710529F480913D
:1047E000E8008E778093E80090E06115710551F440
:1047F000911108C08091E80082FF35C080E00895E3
:10480000BC01F2CF8091AC038823C9F18530C9F196
:104810008091E80083FD31C08091E80082FDEACFFD
:104820008091E80080FFE1CF8091F3002091F200B9
:10483000382F6115710519F02830310558F091E0D5
:104840002830310509F090E08091E8008E77809360
:10485000E800CBCF84918093F100319661507109CB
:104860002F5F3F4FE6CF8091AC03882341F0853026
:1048700041F08091E80083FFBDCF81E0089582E0A0
:10488000089583E00895982F973028F08F708093D3
:10489000E90081E008959093E900242F762F50E0FD
:1048A000981731F07091EC002091ED005091F000DC
:1048B00021FD02C09F5FE8CF3091EB003E7F309337
:1048C000EB003091ED003D7F3093ED003091EB0037
:1048D00031603093EB007093EC002093ED00509327
:1048E000F0002091EE0027FDE5CF80E00895809153
:1048F000AD0387FF13C08091E80082FF06C080915E
:10490000E8008B778093E80004C08091AC038111AC
:10491000F2CF08958091AC038823D9F38091E80009
:1049200080FFF8CF8091E8008E77ECCF2091E400F3
:104930003091E50095E6A9012091EC00822F81706D
:1049400020FF06C08091E80080FF06C080E0089547
:104950002091E80022FD1AC08091AC03882389F0E1
:10496000853089F08091EB0085FD0FC02091E40037
:104970003091E50042175307F9F29150E1F684E0D7
:10498000089582E0089583E0089581E008950E94EB
:1049900036250E943E25E0EEF0E080818160808334
:1049A000E8EDF0E080818F77808319BCA7EDB0E05F
:1049B0008C918E7F8C9380818F7E80831092AB034D
:1049C00008950F931F93CF93DF930E9436250E9483
:1049D0003E25C8EDD0E088818F7788838881806804
:1049E000888388818F7D888319BC1092AC031092D4
:1049F000A8031092AA031092A90300EE10E0F80198
:104A000080818B7F808388818160888342E060E041
:104A100080E00E944324E1EEF0E080818E7F80837D
:104A2000E2EEF0E080818160808380818860808315
:104A3000F80180818E7F8083888180618883DF9107
:104A4000CF911F910F910895E8EDF0E080818F7E66
:104A50008083E7EDF0E080818160808384E082BF25
:104A600081E08093AB030E94E1240895E8EDF0E03B
:104A700080818E7F80831092E20008951092DA0088
:104A80001092E10008951F920F920FB60F92112419
:104A90002F933F934F935F936F937F938F939F9346
:104AA000AF93BF93EF93FF938091E10082FF0BC020
:104AB0008091E20082FF07C08091E1008B7F8093AC
:104AC000E1000E94A2278091DA0080FF19C0809146
:104AD000D80080FF15C08091DA008E7F8093DA00C5
:104AE0008091D90080FF96C080E189BD82E189BDB7
:104AF00009B400FEFDCF81E08093AC030E948321C6
:104B00008091E10080FF19C08091E20080FF15C014
:104B10008091E2008E7F8093E2008091E2008061CC
:104B20008093E2008091D80080628093D80019BC05
:104B300085E08093AC030E9497218091E10084FF7F
:104B40002BC08091E20084FF27C080E189BD82E113
:104B500089BD89B5982F917080FFFBCF8091D800D7
:104B60008F7D8093D8008091E1008F7E8093E1005B
:104B70008091E2008F7E8093E2008091E20081606C
:104B80008093E2008091A803882309F449C084E05F
:104B90008093AC030E94A0218091E10083FF29C093
:104BA0008091E20083FF25C08091E100877F8093A0
:104BB000E10082E08093AC031092A8038091E100B1
:104BC0008E7F8093E1008091E2008E7F8093E200EF
:104BD0008091E20080618093E20042E060E080E04A
:104BE0000E9443248091F00088608093F0000E942E
:104BF0009421FF91EF91BF91AF919F918F917F9100
:104C00006F915F914F913F912F910F900FBE0F9039
:104C10001F90189519BC1092AC030E94912170CF7F
:104C20008091E30087FD93E09093AC03B3CF1F9294
:104C30000F920FB60F9211242F933F934F935F93D0
:104C40006F937F938F939F93AF93BF93CF93DF9394
:104C5000EF93FF93D091E900DF708091EC00C82FB3
:104C6000C17080FDC0E81092E9008091F000877F5C
:104C70008093F00078940E945B261092E900809166
:104C8000F00088608093F000CD2BCF70C093E900D6
:104C9000FF91EF91DF91CF91BF91AF919F918F9154
:104CA0007F916F915F914F913F912F910F900FBE28
:104CB0000F901F901895AAE2B0E0E1E6F6E20C949E
:104CC00068288DEA93E02091F100FC012193CF0147
:104CD000F3E0853B9F07B9F70E94C0218091E8006F
:104CE00083FF1EC18091AD039091AE039A3008F00E
:104CF00017C1E92FF0E0EE53F64D0C9422288038CE
:104D000099F0823809F00CC18091B1038F7087301F
:104D100008F006C18093E9008091EB0085FB8827AD
:104D200080F91092E90006C08091A9039091AA032E
:104D3000911182609091E800977F9093E8008093B2
:104D4000F1001092F1008091E8008E77E5C0882391
:104D500009F4D3C0823009F0E3C08091AF03811120
:104D6000D6C08091B1038F702FEF280F263008F046
:104D7000D7C08093E9002091EB0020FFC8C093309A
:104D800031F48091EB0080628093EB00C0C0909181
:104D9000EB0090619093EB0021E030E001C0220F26
:104DA0008A95EAF72093EA001092EA008091EB00DE
:104DB0008860EACF8111B4C01091AF031F77809152
:104DC000E3008078812B8093E3008091E800877F67
:104DD0008093E8000E9477248091E80080FFFCCF58
:104DE0008091E30080688093E30082E0111183E00A
:104DF0008093AC0395C08058823008F091C08091B8
:104E0000AF039091B0038C3D23E09207A1F583E0BE
:104E10008A838AE289834FB7F894DE01139620E0F3
:104E20003EE051E2E32FF0E050935700E49120FF81
:104E300003C0E295EF703F5FEF708E2F90E0EA3095
:104E4000C0F0C7968D939D932F5F243159F74FBFC4
:104E50008091E800877F8093E8006AE270E0CE01ED
:104E600001960E9486238091E8008B778093E8006A
:104E700057C0C096E7CF6091B1037091B203AE0105
:104E80004F5F5F4F0E94C122BC01892B09F448C0CB
:104E90009091E800977F9093E80089819A810E9421
:104EA000E423E1CF8038E1F58091E800877F8093AB
:104EB000E8008091A8038093F10045CF811130C0B4
:104EC0009091AF03923060F58091E800877F8093E6
:104ED000E8009093A8030E9477248091A803882378
:104EE00011F084E005C08091E30087FDFACF81E0F6
:104EF0008093AC030E94AB2113C08091AF0381303B
:104F000079F481E0933009F080E08093AA03109255
:104F1000E9008091E800877F8093E8000E94772471
:104F20008091E80083FF0AC08091E800877F80932A
:104F3000E8008091EB0080628093EB00AA96E3E0AA
:104F40000C9484280895CF938091AC038823A1F01A
:104F5000C091E900CF709091EC00892F817090FD95
:104F600080E8C82B1092E9008091E80083FD0E9440
:104F70005B26CF70C093E900CF910895991B79E02B
:104F800004C0991F961708F0961B881F7A95C9F7D9
:104F90008095089587FB082E062687FD819567FD7D
:104FA00061950E94BE270EF4919507FC81950895A6
:104FB000AA1BBB1B51E107C0AA1FBB1FA617B7073F
:104FC00010F0A61BB70B881F991F5A95A9F780955B
:104FD0009095BC01CD01089597FB072E16F400941F
:104FE00007D077FD09D00E94D82707FC05D03EF4F2
:104FF000909581959F4F0895709561957F4F089585
:10500000A1E21A2EAA1BBB1BFD010DC0AA1FBB1FCC
:10501000EE1FFF1FA217B307E407F50720F0A21B3E
:10502000B30BE40BF50B661F771F881F991F1A94AB
:1050300069F760957095809590959B01AC01BD01D5
:10504000CF010895EE0FFF1F0590F491E02D099414
:105050000E943028332312F48A1B9B0B0C944128A6
:10506000A29FB001B39FC001A39F700D811D1124A9
:10507000911DB29F700D811D1124911D08950E94F4
:105080003028B7FF0895821B930B08950E943028A3
:10509000A59F900DB49F900DA49F800D911D11248C
:1050A0000895B7FF0C9446280E944628821B930B54
:1050B00008952F923F924F925F926F927F928F92BC
:1050C0009F92AF92BF92CF92DF92EF92FF920F9397
:1050D0001F93CF93DF93CDB7DEB7CA1BDB0B0FB6A1
:1050E000F894DEBF0FBECDBF09942A88398848885E
:1050F0005F846E847D848C849B84AA84B984C884F4
:10510000DF80EE80FD800C811B81AA81B981CE0FEA
:10511000D11D0FB6F894DEBF0FBECDBFED010895CF
:105120008F929F92AF92BF92CF92DF92EF92FF92B7
:10513000CF93DF93EC01688179818A819B8161152E
:1051400071058105910521F464E279ED8BE597E025
:105150002DE133EF41E050E00E94572949015A0107
:105160009B01AC01A7EAB1E40E9446286B017C01D7
:10517000ACEEB4EFA50194010E945428DC01CB01F0
:105180008C0D9D1DAE1DBF1DB7FF03C00197A1096A
:10519000B04888839983AA83BB839F77DF91CF919F
:1051A000FF90EF90DF90CF90BF90AF909F908F9047
:1051B00008950E949028089580E091E00E94902830
:1051C0000895B0E0A0E08093000190930101A093C6
:1051D0000201B09303010895FC014150504030F0AA
:1051E00001900616D1F73197CF01089588279927A6
:1051F0000895FB01DC0104C08D910190801921F418
:1052000041505040C8F7881B990B0895FB01DC0101
:1052100002C001900D9241505040D8F70895F9997D
:10522000FECF92BD81BDF89A992780B50895A6E179
:10523000B0E044E050E00C944929A8E1B0E042E03D
:1052400050E00C944929262FF999FECF92BD81BDDB
:10525000F89A019700B4021639F01FBA20BD0FB6B4
:10526000F894FA9AF99A0FBE08950396272F0E9490
:1052700024290E942329252F0E942429242F0C94BD
:1052800024290196272F0E9424290C942329DC012C
:10529000CB01FC01F999FECF06C0F2BDE1BDF89A41
:1052A000319600B40D9241505040B8F70895052E44
:1052B00097FB1EF400940E946E2957FD07D00E94B0
:1052C000002807FC03D04EF40C946E2950954095AD
:1052D000309521953F4F4F4F5F4F089590958095A2
:1052E000709561957F4F8F4F9F4F0895F894FFCF32
:1052F000EC05EC053D063D06B006CC061B061B067C
:10530000D1064207510751077F1C861C8D1C921C39
:10531000971C9C1CA11CA61CAB1CB01CB51CBA1C69
:10532000BE1CC31CC61CC91CCC1CCF1CD11CD41C4D
:10533000D61C5F1DD31D671D311D351D6B1D391D0D
:105340006F1D7B1D451DCC1D491D7F1D4D1D831DE2
:10535000AB1D511D871DB21D571D8D1D951D3D1D7A
:10536000731D411D771D5B1D911DA11DBB1DCA1D18
:105370002B1D631DDA1D8E1E941E7D1E881E9A1E17
:10538000A01EA61E7F26A7269027A7269027DA26EE
:08539000FB26902752275E273F
:10539800010000006602280850011E0A14010101DC
:1053A80002001400141401191A1B1C1D1E1F2021B1
:1053B800222A215F215821512101E200E900EA0057
:1053C800B500B600B700CD008301CC008A01920178
:1053D80094012102230224022502260227022A021E
:1053E800B300B4006F0070009F01CB01818283E29B
:1053F80000E900EA00B500B600B700CD008301CC93
:10540800008A019201940121022302240225022626
:105418000227022A02B300B4006F0070009F01CB7C
:10542800018182839593929190F0F1C635349796D5
:1054380094F4F5F6373332313000010202020206E5
:1054480006060909090909090F0F0F0F0F0F15158E
:10545800151819191919191919191919232425258C
:0454680025252525AC
:00000001FF
