:100000000C94DF030C9417040C9417040C9417043D
:100010000C9417040C9417040C9417040C941704F4
:100020000C9417040C9417040C94A02E0C94882F95
:100030000C94552E0C9417040C9417040C9417046C
:100040000C9417040C9417040C9417040C941704C4
:100050000C9417040C947C2E0C9417040C94170425
:100060000C9417040C9417040C9417040C941704A4
:100070000C9417040C9417040C9417040C94170494
:100080000C9417040C9417040C9417040C94170484
:100090000C9417040C9417040C9417040C94170474
:1000A0000C9417040C9417040C941704050109020E
:1000B000A10185020901A1000509190129081500FE
:1000C0002501950875018102050109300931158165
:1000D000257F95027508810609381581257F9501D0
:1000E00075088106050C0A38021581257F95017572
:1000F000088106C0C005010980A101850319012AF4
:10010000B700150126B700950175108100C0050CD8
:100110000901A101850419012AA002150126A002E6
:10012000950175108100C005010906A1018506052C
:100130000719E029E71500250195087501810205D9
:1001400007190029EF1500250195F07501810205B9
:10015000081901290595057501910295017503910D
:1001600001C00660FF0961A1010962150026FF00B8
:100170009520750881020963150026FF00952075FA
:10018000089102C005010906A101050719E029E748
:1001900015002501950875018102950175088101F9
:1001A0000507190029FF150026FF0095067508812F
:1001B000000508190129051500250195057501910E
:1001C00002950175039101C009025B00030100A0C3
:1001D000FA090400000103010100092111010001D5
:1001E00022440007058103080001090401000203FD
:1001F00000000009211101000122220007058203ED
:100200002000010705030320000109040200010387
:1002100000000009211101000122B6000705840336
:1002200020000112010002000000086B70110001A3
:1002300000010200011C0369006B006B00690036BD
:1002400000380020004100750072006F00720061EC
:100250000000001A0377007500710075006500202A
:1002600000730074007500640069006F00000004F2
:10027000030904167C1E001F002000210022002319
:100280000024002500260027002D002E002A004C07
:1002900000A8002B0014001A000800150017001C0D
:1002A0000018000C00120013002F00300031000372
:1002B000570457005704001600070009000A000BF6
:1002C000000D000E000F0033003400280000000075
:1002D000000000E10000001D001B000600190005E1
:1002E0000011001000360037003800E500015752B9
:1002F000000000E000E300E2000000000000002C2D
:1003000000000000000000E6000257E40050005129
:10031000004F0035003A003B003C003D003E003FEE
:10032000004000410042004300440045004C0049A9
:1003300000460001004A0052004D004B0001000140
:1003400000010001000100010001000100010001A5
:100350000001000100500051004F004E000100015B
:10036000005009500A4F0A4F090100280000000000
:1003700000000001000000B6002A00B700010001E3
:1003800000110A2903010001000100010001000120
:100390000000000100010001000000000000004C0E
:1003A00000000000000000010001006521010001C3
:1003B00000010035001E001F0020000100010001A7
:1003C000000100010001000100010001004C0201D8
:1003D00000A600010021002200230001000100010D
:1003E0000001000100010001000100010001000105
:1003F0000001000100240025002600010001000189
:10040000005009500A4F0A4F090100010000000086
:100410000000000100000027000100B200010001FF
:100420000001002903010001000100010001002A70
:1004300000000001000B700100000000000000013E
:1004400000000000000000010001000100B6003EB5
:1004500000B70020782B78010001001370AA00A9D2
:1004600000AE00A800010001000100680069000161
:100470000001000100010001000100010001000174
:100480000001000100010001000100010001000164
:100490007C007C010001000100010001000100015D
:1004A0000001000100010001000100037C000000C8
:1004B0000000000100000001000100010001000136
:1004C0000001001003010001000100010001000112
:1004D0000000000100010001000000000000000118
:1004E00000000000000000010000520100010001B6
:1004F0000001002223252628292A2C2D2F303233D3
:100500003536383A3B3D3E4042434547494A4C4EDA
:100510005051535557595A5C5E6062646668696B06
:100520006D6F71737577797B7D7F81838587898A0C
:100530008C8E90929496989A9C9E9FA1A3A5A7A812
:10054000AAACAEAFB1B3B4B6B8B9BBBCBEBFC1C242
:10055000C3C5C6C7C9CACBCCCDCED0D1D2D2D3D4D5
:10056000D5D6D7D7D8D9D9DADADBDBDBDCDCDCDCF3
:10057000DCDDDDDDDDDCDCDCDCDCDBDBDBDADAD9C1
:10058000D9D8D7D7D6D5D4D3D2D2D1D0CECDCCCB43
:10059000CAC9C7C6C5C3C2C1BFBEBCBBB9B8B6B461
:1005A000B3B1AFAEACAAA8A7A5A3A19F9E9C9A98F1
:1005B000969492908E8C8A89878583817F7D7B79C2
:1005C000777573716F6D6B6968666462605E5C5AA3
:1005D0005957555351504E4C4A4947454342403E66
:1005E0003D3B3A3836353332302F2D2C2A292826F8
:1005F000252322FFAA7F55400001010101010101CD
:1006000001010202020202020202020303030303C7
:100610000303030404040404040405050505050696
:100620000606060607070707070808080809090954
:10063000090A0A0A0B0B0B0C0C0C0D0D0D0E0E0EFD
:100640000F0F0F101011111112121313141415158E
:1006500016161717181819191A1A1B1B1C1D1D1E00
:100660001E1F202021222223242425262627282954
:10067000292A2B2C2D2D2E2F303132323334353682
:100680003738393A3B3C3D3E3F4041424344454682
:100690004748494A4C4D4E4F50515354555658595E
:1006A0005A5B5D5E5F616264656668696B6C6D6F05
:1006B0007072737577787A7B7D7E80828385878878
:1006C0008A8C8E8F91939596989A9C9EA0A2A3A5B2
:1006D000A7A9ABADAFB1B3B5B7BABCBEC0C2C4C6B3
:1006E000C9CBCDCFD1D4D6D8DBDDDFE2E4E7E9EB6F
:1006F000EEF0F3F5F8FAFDFF1E0F0500047F3F1F33
:10070000643214643214783C1E1E140A0500000082
:1007100000000000000000000000000000000000D9
:1007200000000000000000000000000000000000C9
:10073000007E0F00D4FFFFFFC7000000780000001C
:1007400000000000002A2B2800000000000000002C
:10075000000000000000000029000000002C1E34F2
:1007600020212224342627252E362D3738271E1FF8
:10077000202122232425263333362E37381F040523
:10078000060708090A0B0C0D0E0F10111213141591
:10079000161718191A1B1C1D2F3130232D3504056F
:1007A000060708090A0B0C0D0E0F10111213141571
:1007B000161718191A1B1C1D2F3130354C00112427
:1007C0001FBECFEFDAE0DEBFCDBF04B603FE18C018
:1007D0008091730490917404A0917504B091760493
:1007E0008730904BA740B04B59F41092730410928D
:1007F00074041092750410927604E0E0F8E3099511
:1008000024E0A0E7B2E001C01D92A337B207E1F7F0
:1008100012E0A0E0B1E0E4E9F4E602C005900D9238
:10082000A037B107D9F70E94D5270C94D8310C9482
:100830000000FC018281813021F4858181708E5F0E
:100840000895823011F484E0089581E008959C01B8
:100850009A9581159F4118F5F32FF270EE27832F9B
:100860008170732F74706627532F5870442734FF9C
:100870000CC08295807FEF2B09F08062672B09F016
:100880008064452B69F080680895EF2B09F0826041
:10089000672B09F08460452B19F08860089580E08B
:1008A0000895CF93DF93EB010E942704FE01099581
:1008B000DF91CF910895982F92959F7024E0911128
:1008C00002C020E0982F892F86958695811511F01A
:1008D0002E5F982F892F8695820F08958093280484
:1008E0000895953080F5803170F540E1949F900136
:1008F0001124280F311D877041E001C0440F8A95F3
:10090000EAF783E0369527958A95E1F7F901EE0F2E
:10091000FF1FE20FF31FE054FC4F80E090E070E017
:100920005191DF019B01082E02C0369527950A944C
:10093000E2F7217021952527242325272E93019660
:100940008330910569F70895953078F5803168F521
:1009500040E1949F90011124280F311D982F97702A
:1009600083E0369527958A95E1F7F901EE0FFF1F91
:10097000E20FF31FE054FC4F40E050E080E0219193
:1009800030E0092E02C0369527950A94E2F72170CF
:100990003327042E01C0220F0A94EAF7822B4F5FFF
:1009A0005F4F4330510559F7089580E008958091D5
:1009B000300490912F04981301C008958F5F8770C1
:1009C000FACF982F90958091250489238093250450
:1009D000089580912604811531F01092260410921A
:1009E0002E0410922D0408959C01803E910509F477
:1009F00048C0D8F48133910509F47DC048F48932A8
:100A0000910509F46DC08A9709F47CC0C901089565
:100A10008933910551F18238910539F1C597B1F7C4
:100A20008091700485FFF2CF29C0843E910509F4BE
:100A300047C048F4823E910599F1833E9105A9F1A2
:100A400021EE30E0E3CF863E910509F444C0873EB5
:100A50009105E1F68091700483FD61C0909171046D
:100A600091FF2BC024EE30E0D1CF809170048370D1
:100A7000811152C08091710483FFC8CF29E230E018
:100A8000C5CF8091700480FD33C09091710490FFB8
:100A9000BDCF23EE30E084FFB9CF20E030E0B6CF09
:100AA0008091700482FDF5CFB1CF8091700482FDFA
:100AB00030C09091710490FD2FC084FFA7CFEDCF7F
:100AC0008091710481FFA2CF8091700427EE30E005
:100AD00084FDE3CF9BCF8091700483FDF7CF96CF49
:100AE0008091700485FD1EC08091710483FF8ECFBC
:100AF00029E330E08BCF8091700486FF87CF2AE214
:100B000030E084CF8091700486FF80CF21E330E015
:100B10007DCF22EE30E07ACF20EE30E077CF26EEA8
:100B200030E074CF25E330E071CF9091700492FFF4
:100B300010C041E0282F2471243009F040E031E05A
:100B4000282F2871283009F030E0431711F02CE0ED
:100B5000822793FF10C041E0282F2471243109F02F
:100B600040E031E0282F2871283109F030E04317A8
:100B700011F02CE082273091710430FF10C051E059
:100B8000282F2171213009F050E041E0282F2871F1
:100B9000283009F040E0541711F029E0822731FF96
:100BA00010C041E0282F2171213109F040E031E0EF
:100BB000282F2871283109F030E0431711F029E07F
:100BC000822794FD877E08951F93CF93DF930E9421
:100BD000F404EC01811522E5920708F055C0811557
:100BE00040E5940708F0D1C0803E910520F58D3C8A
:100BF000910508F0A4C0883A910570F4853A9105F2
:100C000008F09AC081309105D1F10497813A91059D
:100C1000B0F1C0E0D0E033C0885A91094B97C8F7D3
:100C2000C85AD0E0CC0FDD1FC550DE4F0990D881E7
:100C3000C02DD46424C0811550E49507C0F4C115BB
:100C400080E2D80708F0B7C0C83ED105C0F0CE0199
:100C50009A9581159F41E8F68D2F0E949505182FD2
:100C6000CE0199270E94F404EC01D12B08C09927EA
:100C70000E94F404CC27DF70C82BD92BD06ACE0198
:100C8000DF91CF911F910895803842E59407C8F510
:100C9000803652E5950708F05BC0C03482E5D8077E
:100CA000D0F4C03292E5D90708F04BC08C2F86955E
:100CB000869520E2829FC0011124C37021E030E0BC
:100CC000A90102C0440F551FCA95E2F7EA01C82BDB
:100CD000D92BDD68D4CF8C2F86958695877050E20E
:100CE000859FC0011124C37021E030E0A90102C03A
:100CF000440F551FCA95E2F7EA01C82BD92BDC68CF
:100D0000BECF803C52E5950758F48F71C03AD2456A
:100D1000A0F590E0982F8827EC01C46FD06AAFCF80
:100D2000805C9245809708F074CFDC2FCC27CC27CD
:100D3000DF71C06FD06AA3CFA497D064A0CFD06575
:100D40009ECFCF71D0E0DC2FCC27C16FD06A97CF78
:100D500086958695877020E2829FC0011124C3701A
:100D600021E030E0A90102C0440F551FCA95E2F707
:100D7000EA01C82BD92BDA6882CF0E949505C82FCB
:100D8000D0E0DC2FCC27D0627ACF8F710E949505FE
:100D900093E0CC0FDD1F9A95E1F7CC27DF70282F69
:100DA00030E084FF04C050E1859F90011124C22BE4
:100DB000D32BD06964CF8D2F8F710E949505182F8A
:100DC000CE0199270E94F404EC01D12BDCCF80E006
:100DD0000895F894E82FE295EF70F0E041A18F704C
:100DE00021E030E0B90102C0660F771F8A95E2F773
:100DF000CB01962F9095942391A392A1892B82A346
:100E0000789408950895CF92DF92EF92FF921F9306
:100E1000CF93DF93172FE82FF0E0E850FA4F7111CE
:100E20000CC0E4918E2F7E2F6E2FDF91CF911F91FA
:100E3000FF90EF90DF90CF900895E62EF12CC72E13
:100E4000D12CF491EF2F86E0689F90011124CFEF11
:100E5000D0E0C901BE010E94ED2FAB01EE0CFF1CDA
:100E600065E5649FC001659F900D1124E81AF90A99
:100E70006E2D660F6E0D7E01EC18FD08FE9DD001F3
:100E8000FF9DB00D11248B2F169F70011124EF2CA4
:100E9000FF246E01CE18DF087601FE9D6001FF9DE4
:100EA000D00C11247E01E61AF108B701169F7001DB
:100EB000179FF00C1124EF2CFF24CE19DF09FC9FA3
:100EC0007001FD9FF00C11247F2D43305105C1F0BE
:100ED0002C3F334058F441305105B1F042305105B8
:100EE00009F0A2CFEB2F8F2D7F2F9ECF44305105DD
:100EF00071F04630510509F497CF7B2F8D2D94CF9B
:100F00007D2DEB2F8F2F90CF7F2FED2D8DCFEF2DC0
:100F10007B2FF8CFCF93982F762F842FC22F692F56
:100F20000E940307472F282F8C2F90E00E947A0AF7
:100F3000CF91089580911D04843060F483708460A3
:100F400080931D0480912004893C18F088EC8093E4
:100F5000200408958C3AB0F38370886AF1CFCF9360
:100F6000DF9380911D0480FD0CC0C0E0D0E020E044
:100F700040E060E0CE010E947A0A2196C431D1059A
:100F8000B1F70E94090FDF91CF910895FF920F935F
:100F90001F93CF93DF93182F062FF42E80911D04FB
:100FA00080FF0EC0C0E0D0E02F2D402F612FCE017A
:100FB0000E947A0A2196C431D105B1F70E94AF0789
:100FC000CDB7DEB7E5E00C945A30CF93C82F0E941E
:100FD0005B04823061F0833071F0813081F441E153
:100FE0006CEC8AEA0E94C6078C2FCF91089540E0EE
:100FF00069E98FEFF7CF47E760E08EEEF3CF40E08F
:1010000060E080E0EFCF0E94E507809372040895CE
:1010100021E030E001C0220F8A95EAF78091720446
:10102000822B0E940308089521E030E0A90102C04C
:10103000440F551F8A95E2F7CA018095909172047A
:1010400089230E940308089580917E01833019F45A
:1010500081E00E94140810927E01089580917C0125
:10106000833019F482E00E941408089580917A0177
:10107000833011F40E941408089590912A048095F9
:10108000892380932A04282F2770211111C08917E2
:1010900079F09091710492FF0BC0869586958695A4
:1010A0000E94140810922A0410922C0410922B040F
:1010B00008959091720421E030E0F90101C0EE0F33
:1010C0008A95EAF7D90102C0AA0FBB1F6A95E2F719
:1010D000EA2B01C0220F4A95EAF7892F8E23E813E5
:1010E00005C0892F822B0E94030808952095822F26
:1010F0008923F9CF81FF07C04AE468E280E00E94BB
:10110000C6078F98089540E060E080E00E94C6071F
:101110008F9A0895CF93DF93EC01209120049C8156
:10112000892F817090FD822F692F627091FD622F4F
:10113000492F447092FD422F0E94C6078C8190E097
:101140000196877099278C83DF91CF910895982F0E
:10115000762F842F20911D0420FF0CC0493C08F0FD
:1011600088EC692F0E940307962F672F482F892F3D
:101170000E94C6070895CF93DF93EC01EDE1F4E000
:10118000438162818C810E94A7088C818F5F8C8350
:10119000DF91CF910895CF93DF93EC01EC81F0E0E4
:1011A000ED50FB4F4491EDE1F4E0628181810E94BA
:1011B000A7088C818F5F8C83DF91CF910895FF9278
:1011C0000F931F93CF93DF93EC01F12C00E010E01D
:1011D00040912004493C08F048EC8C8198016091D2
:1011E0001F048F0D0E948A070F5F1F4F8CE0F80EBF
:1011F0000431110569F70E94AF078C819A8190FF35
:1012000007C08F5F8C83CDB7DEB7E5E00C945A3012
:101210008150F8CFEF92FF920F931F93CF93DF93FC
:10122000FC018281FF24F39480FF02C0FF24FA9422
:10123000C0E0D0E020E040E060E0CE010E947A0A09
:1012400004E010E0E12C80915B038E0D8531B4F158
:1012500064E10E94DF2F892F082E001C00088C17E4
:101260000D0699F4409120040403A0011124559522
:10127000479555954795493C08F048EC9E0160918B
:101280001F0480911E040E948A07EF0C0150104039
:10129000D1F62196C431D10569F60E94AF0780913D
:1012A0005B03F1E0FF120EC0811591F08150809335
:1012B0005B03CDB7DEB7E6E00C94593087FFCCCFA7
:1012C0008C5ECACF90E00196BE010E940130EFCF44
:1012D00083E1EDCFCF93DF93C0E0D0E020E040E0AA
:1012E00060E0CE010E947A0A2196C431D105B1F79F
:1012F000C0E0D0E080915A03082E001C0008C817F7
:10130000D00584F180910E01082E001C00088C1776
:101310000D0644F140912004493C08F048EC9E0140
:1013200060911F0480911E040E948A072196C43197
:10133000D10501F70E94AF0780910D0190915A03EA
:10134000980F90935A0320910E01280F20930E01BD
:10135000121614F493311CF0819580930D01DF91E6
:10136000CF91089520E040E060E0CE010E947A0A2B
:10137000DDCFA6E0B0E0EFEBF9E00C943B308D83DD
:101380009E83AD81BE811496FC912F2F30E0D90150
:101390000E94C9319B01AC010E9494316B017C0118
:1013A00080E290E09C012F1B3109F901A5E5B0E036
:1013B000A70196010E94943169837A838B839C8371
:1013C0009F01DF010E9422309B010E942A309B0175
:1013D000AC012C0D3D1D4E1D5F1D69817A818B81F5
:1013E0009C810E94A731022F30E00A32C8F5C90162
:1013F000880F991F820F931F95958795182F109529
:10140000E12CF12C85E5D82ED01A8D2DE1FC802F12
:10141000412F193C08F048EC970160911F040E948D
:101420008A075FEFE51AF50A84E1E816F10469F727
:101430000E94AF07AD81BE8114969C9181E0911509
:1014400019F0903219F48FEF80930C0180910C0108
:10145000890FED81FE8184832696E8E00C94573055
:1014600085E590E0AC01421B530B9A01CA01880F3D
:10147000991F820F931F97FFBFCF0196BDCF0F9388
:101480001F93CF93DF93EC0120E030E060911F04C5
:1014900080911E049C8189010F5F1F4F2A30310506
:1014A0005CF4911519F140912004493C08F048EC96
:1014B0000E948A079801EACF911118C04091200438
:1014C000493C08F048EC0E948A0798010431110554
:1014D000E9F60E94AF078C8190E001968170992710
:1014E0008C83DF91CF911F910F91089540E0EBCF56
:1014F0006A9A0895FC01EE0FFF1FE80FF91FE654EA
:10150000FD4F6183408322830895FC0184818623FB
:1015100081110AC082818115B9F06823908593FFFB
:1015200005C081E061110FC080E00895282F229549
:101530002F708F70282B962F92959F706F70962B1F
:1015400081E02913F1CF089581E00895282F35EB2C
:101550002303C001112497FF04C080589109892FEB
:10156000089580589F4FFBCF8091E00380FD14C009
:1015700081FD14C082FD16C08091DF03811581F0CA
:101580008E3180F420E5829FC00111246EE170E06D
:101590000E940130862F089584E1089588E208951D
:1015A00088E0089580E508958091E00380FD17C0EC
:1015B00081FD17C082FD19C08091DE03811599F06D
:1015C000883298F428E0829FC001112468E270E01C
:1015D0000E9401306115710551F0862F089562E077
:1015E000FCCF64E0FACF61E0F8CF68E0F6CF81E0AD
:1015F0000895FA01309709F009950895E091B6032E
:10160000F091B703309729F00190F081E02D099512
:10161000089580E00895A3E0B0E0E1E1FBE00C94E0
:1016200041309C018091B8029091B90282179307D2
:10163000A1F03093B9022093B802E091B603F09183
:10164000B703309751F083E089833B832A8300847A
:10165000F185E02DCE01019609952396E2E00C94E8
:101660005D30A3E0B0E0E7E3FBE00C9441309C0187
:101670008091B6029091B70282179307A1F0309340
:10168000B7022093B602E091B603F091B70330970A
:1016900051F084E089833B832A830084F185E02D27
:1016A000CE01019609952396E2E00C945D3090916D
:1016B0002601913091F0A4E7B2E0EFEF90E02D9198
:1016C000821751F0EF3F19F4211101C0E92F9F5FFC
:1016D0009630A9F7EF3FC9F408959091700497FFF1
:1016E000EACFE82FE695E695E695803FA8F7F0E08B
:1016F000E658FD4F877021E030E001C0220F8A9547
:10170000EAF78281822B828308950E2E000CFF0B54
:10171000EE58FD4FF8CF90912601913021F4909131
:10172000700497FD0CC0E4E7F2E09191891302C0C8
:10173000DF011E9252E0EA37F507B9F70895E82F66
:10174000E695E695E695803FC8F7F0E0E658FD4F50
:10175000877021E030E0A90102C0440F551F8A952F
:10176000E2F7CA018095928189238283089580914E
:10177000250108952FB7F8948091B2029091B30299
:10178000A091B402B091B5022FBF0895CF93DF931B
:10179000C091250480912904C82B809126048115CD
:1017A00009F10E94BA0B20912D0430912E04821B66
:1017B000930B8C3D954010F00E94E904D0912604D3
:1017C00080912601813021F48091700487FD14C03E
:1017D00086E024E732E090E0815090F491110E947D
:1017E000E904CD2B8091090480958C239091080405
:1017F000892BDF91CF9108958EE12CE732E0EBCF7A
:10180000F90141919F01411539F39F5FE5CF0E9496
:10181000BA0B2091E3033091E403232B211521F02F
:1018200080938603909387032091E5033091E6032C
:10183000232B211521F08093840390938503E0915D
:10184000B603F091B703309749F082E08093E1034B
:101850000680F781E02D81EE93E0099508956115EA
:1018600009F44BC0E3E3E80FE33150F4F0E0E65253
:10187000FE4C0C9415300E94B40A81958093E403C9
:101880000E94070C08950E94B40AF8CF0E94B40A7F
:1018900081958093E303F4CF0E94B40AFACF0E94AB
:1018A000D40A8093E503ECCF0E94D40A8195F9CF46
:1018B0000E94D40A81958093E603E2CF0E94D40A65
:1018C000FACF815D990B21E030E001C0220F8A95AB
:1018D000EAF78091E203822B8093E203D1CF8091DB
:1018E000E00381608093E003CBCF8091E0038260CE
:1018F000F9CF8091E0038460F5CF4091E3038D3C04
:1019000059F48091E40387FF0DC01092E403411560
:1019100059F41092DF0308C08E3C81F48091E403F7
:1019200018169CF3411581F08091E5039091E60330
:10193000892B8111A5CF1092DE03A2CF8F3C41F4F9
:1019400047FFF0CF1092E3038091E4038115E0CFCD
:10195000803D19F41416B4F3E5CF9091E503893D69
:1019600029F41916FCF61092E503DCCF8A3D19F430
:1019700097FFD8CFF8CF9091E6038B3D29F497FFDE
:10198000D1CF1092E603CECF8C3D19F41916CCF3CB
:10199000C9CF9FE2980F983090F4815D990B21E0B8
:1019A00030E0B90102C0660F771F8A95E2F7CB01DC
:1019B00080959091E20389238093E203B3CF8D3D1C
:1019C00031F48091E0038E7F8093E003ABCF8E3DB6
:1019D00021F48091E0038D7FF7CF8F3D09F0A2CFF6
:1019E0008091E0038B7FF0CF2FB7F8946091B20223
:1019F0007091B3028091B4029091B5022FBF089507
:101A0000CF92DF92EF92FF92CF93DF93D82FC92F1F
:101A1000C0900F04D0901004E0901104F0901204D4
:101A20000E94F40C6C197D098E099F09643F714076
:101A30008105910518F10E94F40C6B017C0182E391
:101A400090E0A0E0B0E0C0927A03D0927B03E092F5
:101A50007C03F0927D038093760390937703A093A9
:101A60007803B0937903D0930D04C0930E04DF91F3
:101A7000CF91FF90EF90DF90CF90089584EF91E0A9
:101A8000A0E0B0E0E0CFFC019B018091A802909122
:101A9000A9028617970740F0672B29F48091E80088
:101AA0008E778093E800C90140E0009741F441112E
:101AB00006C08091E80082FF2FC080E00895209149
:101AC00093032115A9F12530A9F12091E80023FD08
:101AD0002DC02091E80022FDECCF2091E80020FFEE
:101AE000E4CF3091F3002091F200009719F02830F4
:101AF000310558F041E02830310509F040E02091EF
:101B0000E8002E772093E800D0CF41914093F10078
:101B100001972F5F3F4FE9CF80919303811541F0EB
:101B2000853041F08091E80083FFC3CF81E00895C4
:101B300082E0089583E008958091A20287FF13C098
:101B40008091E80082FF06C08091E8008B77809347
:101B5000E8000895809193038111F2CF0895809158
:101B600093038115D9F38091E80080FFF8CF80912D
:101B7000E8008E77ECCF2091E4003091E50095E607
:101B8000A9012091EC00822F817020FF06C0809176
:101B9000E80080FF06C080E008952091E80022FD63
:101BA0001AC080919303811589F0853089F0809166
:101BB000EB0085FD0FC02091E4003091E500421755
:101BC0005307F9F29A95E1F684E0089582E00895CA
:101BD00083E0089581E00895E8EDF0E080818E7F54
:101BE00080831092E2001092DA001092E100A0EEE1
:101BF000B0E08C9181608C9380818F77808319BC59
:101C0000A7EDB0E08C918E7F8C9380818F7E808356
:101C10001092A10208959091710492FF10C0982F24
:101C2000990F990F990F936090932A040E940808C6
:101C30000E94BA0B90932C0480932B0408950E9469
:101C4000080808950E94190480937C018330A1F054
:101C5000843041F0823099F40E940B0E81E00E94A2
:101C60003D08089580917204811531F082FF04C00F
:101C700082E00E941408089582E00E9408080895F6
:101C80000E94190480937A018330A9F0843049F0CE
:101C90008230A1F483E00E940B0E81E00E943D0897
:101CA000089580917204811531F083FF04C083E0B0
:101CB0000E941408089583E00E9408080895982F50
:101CC0009093E900891771F07091EC002091ED007C
:101CD0005091F00021FD09C09F5F973089F78093F4
:101CE000E9000895762F242F50E03091EB003E7FDD
:101CF0003093EB003091ED003D7F3093ED0030915B
:101D0000EB0031603093EB007093EC002093ED001A
:101D10005093F0002091EE0027FDDECF0895A0E063
:101D2000B0E0E5E9FEE00C943B30C8EDD0E08881FE
:101D30008F7E8883E7EDF0E080818160808384E09E
:101D400082BF81E08093A10288818E7F888302EE2A
:101D500010E0F80110821092DA0081EEC82ED12C2A
:101D6000F601108288818F778883888180688883D4
:101D700088818F7D888319BC109293031092A002F2
:101D800010926A0310929F0290EEE92EF12CF70157
:101D900080818B7F808388818160888342E060E0DE
:101DA00080E00E945F0EF60180818E7F8083F801C3
:101DB000808181608083808188608083F701808159
:101DC0008E7F8083888180618883CDB7DEB7E8E02D
:101DD0000C945730E091300490912F0427E0E913E0
:101DE00002C080E00895AE2FB0E02E9FF0011124D4
:101DF000EF5CFB4F3181361306C03081381303C0CE
:101E00003581341304C0FD013196E770E8CF81E0DD
:101E100008953EB13B7F2EB124604FB7F8948AEB12
:101E200092E0FC010196508168E02EB9000000C0EC
:101E300057FF3EB9550F000000C000C000C03EB9BA
:101E400000C06A9591F752E0863F950751F74FBF62
:101E50008FE594E00197F1F700C00000089581E05C
:101E60008093E00080E28093D8001092C9008FE157
:101E70009EE40197F1F700C0000087E090EBDC01E1
:101E80008093730490937404A0937504B0937604C4
:101E900088E19CE00FB6F894A895809360000FBE8F
:101EA00090936000FFCF0F931F93CF93DF938B012D
:101EB000EA0190919303943059F58093E9008FEFF4
:101EC0009091E80095FD06C095ED9A95F1F7000018
:101ED0008A95B1F78091E80085FF1AC00E94BB0D7A
:101EE000811111C08091E80085FD06C08091E80055
:101EF0008E778093E800F2CFF80181918F01809373
:101F0000F100219779F78091E8008E778093E800BF
:101F1000DF91CF911F910F910895CF93DF93D82F29
:101F2000C92F48E050E0682F792F81E00E94530FBD
:101F300088E0ED2FFC2FAAEAB2E001900D928A957D
:101F4000E1F7DF91CF910895BC0140E250E084E0D9
:101F50000E94530F0895BC0146E050E084E00E94C7
:101F6000530F0895BC0143E050E084E00E94530FFA
:101F700008959091710492FB222720F9281779F097
:101F800080FB92F9909371046091700470917104D8
:101F900084E090E00E945F3182E00E943D08089555
:101FA0001F93CF93DF93C62F122F632F8430D0F46B
:101FB000C530C0F44031B0F490E2C99FE001112473
:101FC000C40FD11DC40FD11D90EA899FC00DD11D32
:101FD0001124CE0188960E944131612FCE0189964D
:101FE0000E944131DF91CF911F910895AF92BF922E
:101FF000CF92DF92FF920F931F93CF93DF93A12C89
:10200000B12C00E0650110E013C0FE012591349170
:102010004F2D612F802F0E94D00F2296F39480E1E4
:10202000F812F3CF80E1C80ED11C1F5F153039F0D4
:10203000E601CC0FDD1FCD58DD4FF12CE6CF0F5F51
:1020400080E5A80EB11C0430E9F6DF91CF911F9115
:102050000F91FF90DF90CF90BF90AF900895CF93F6
:10206000DF93C8EAD2E060E0CE010E9441312196C0
:10207000C11584E0D807B9F7DF91CF910895CF93C8
:10208000C82F65E2811101C06FEF84E290E00E94E9
:102090004131C11569F0C3E06C2F85E290E00E94E8
:1020A00041316C2F86E290E00E944131CF9108953A
:1020B000CFEFF2CF80E00E943F1060E087E290E037
:1020C0000E9441310E94F60F0E942F1081E00E9471
:1020D0003F1008950F931F93CF93DF93843028F51B
:1020E000653018F5403108F520E2629FE0011124C7
:1020F000C40FD11DC40FD11D30EA839FC00DD11D67
:102100001124CE0188960E941D31082F10E0102F57
:102110000027CE0189960E941D319801282BC90104
:10212000DF91CF911F910F91089580E090E0F8CF5B
:10213000462F672F753038F4403128F4843018F476
:102140000E946A10089580E090E00895A0E0B0E059
:10215000ECEAF0E10C943C307C0100917204809137
:102160002804082BC3E0D0E010E0C8010C2E02C008
:10217000959587950A94E2F780FD09C02197A8F705
:10218000D12C8D2DCDB7DEB7E7E00C945830DC2E86
:10219000B7018C2F0E9498100E94E405019771F3FB
:1021A000F0CF0F931F93CF93FC01858100811181A4
:1021B000811591F0611581F0C8010E94A610C82F09
:1021C000682FC8010E947104B8018C2F0E949810DA
:1021D000CF911F910F910895C8010E94A404C82FA8
:1021E000F3CFCF93DF93D82FC92F0E94A6106D2F66
:1021F0007C2F0E9498100E94E405DF91CF910895F2
:10220000FC0184818115A1F0808191810E94F110EF
:10221000282F92959F70963099F060F4925F9F708E
:10222000923030F4203FB1F038F481E0283E38F0AD
:1022300080E008959A5FF3CF81E0243FC9F70895C5
:1022400091E0213F09F090E081E0283E08F080E035
:10225000892B089581E008950F931F93CF93DF9307
:102260008C01FC01C081D181CE010E941D312196DB
:10227000F801D183C083DF91CF911F910F91089511
:1022800084E290E00E941D31853289F485E290E07D
:102290000E941D31833059F486E290E00E941D3186
:1022A00091E0833009F090E0892F8170089580E0FB
:1022B000FCCF80912601813059F58091700487FF11
:1022C00027C00E94C60B80937B0240E250E066E983
:1022D00073E08AE792E00E941031892BC1F080E21E
:1022E000EAE7F2E0A6E9B3E001900D928A95E1F702
:1022F000E091B603F091B703309749F086E0809300
:102300007A020480F581E02D8AE792E0099508952C
:102310000E94C60B8093720248E050E068EB73E0C5
:1023200082E792E00E941031892B89F388E0E2E78E
:10233000F2E0A8EBB3E001900D928A95E1F7E0910D
:10234000B603F091B703309711F30280F381E02DCB
:1023500082E792E0DBCF811539F090912504892B3B
:10236000809325040E9459110895811539F09091A8
:102370002904892B809329040E94591108958115FD
:1023800021F00E94E1040E9459110895811541F045
:102390008095909129048923809329040E945911E2
:1023A0000895CF93C82F8115C9F08238C9F40E94CF
:1023B000FE0A81FD13C089E30E94570B0E94591148
:1023C0002FEF37EE83E0215030408040E1F700C02E
:1023D000000089E30E948B0B0E945911CF91089550
:1023E0008338A1F40E94FE0A80FDF8CF83E50E94A5
:1023F000570B0E9459119FEF21EE34E0915020407D
:102400003040E1F700C0000083E5E4CF8438A1F458
:102410000E94FE0A82FDE2CF87E40E94570B0E94D1
:1024200059118FEF91EE24E0815090402040E1F768
:1024300000C0000087E4CECF8CEF8C0F813A90F57E
:1024400080912601813071F0E4E7F2E08AE792E0C2
:102450002191C21709F18E179F07D1F78C2F0E9487
:10246000570BBACF8091700487FFEECFEC2FE69523
:10247000E695E695F0E0E658FD4F828190E04C2F1E
:10248000477021E030E002C0220F331F4A95E2F787
:1024900082239323892B11F38C2F0E948B0B0E9494
:1024A0005911DCCF80E28C0F883068F4C77081E06E
:1024B00090E001C0880FCA95EAF7C0912504C82BA7
:1024C000C093250489CF8BE58C0F833038F42C2FF3
:1024D0002452330BC9010E940B0B80CFE8E5EC0FAF
:1024E000EB3150F4F0E0EE0FFF1FEF5CFD4F808109
:1024F00091810E94310B72CF83E38C0F833108F0FE
:102500006DCF61E08C2F0E942F0C68CFCF93DF93AB
:10251000EC01805E9109089720F065EB71E120974E
:1025200011F46BEA71E1CE010E9451048C2F0E94DC
:10253000D111DF91CF910895CF93DF93EC01FB018F
:102540008A81823039F4828193810E9486128D8142
:1025500082608D83DF91CF910895FB01808191810D
:102560000E9486120895811509F456C0823879F4C4
:102570000E94FE0A81FF50C089E30E94570B0E940F
:10258000591189E30E948B0B0E94591108958338D9
:1025900059F40E94FE0A80FF3FC083E50E94570B5A
:1025A0000E94591183E5EECF843859F40E94FE0A47
:1025B00082FF32C087E40E94570B0E94591187E4C2
:1025C000E1CF9CEF980F913AE8F290E2980F9830A3
:1025D00050F4877091E001C0990F8A95EAF7892F2E
:1025E0000E94E104D1CF9BE5980F933028F480E05E
:1025F00090E00E940B0B089598E5980F9B3128F40A
:1026000080E090E00E94310B089593E3980F93319E
:1026100018F460E00E942F0C0895CF93DF93EC0133
:102620000E94B312CE01805E9109089720F066ECFB
:1026300071E1209711F46FEB71E1CE010E9451041A
:10264000DF91CF910895FB01DC0112968C918130CE
:1026500029F4808191810E940D1308958230E9F759
:1026600082819381F8CF0F931F93CF93C82F8B0153
:102670000E94D1110115110539F48C2F0E94B3125B
:10268000CF911F910F9108958FE99FE00197F1F786
:1026900000C0000001501109EDCF0E941904809381
:1026A0007E018330A1F0843041F0823099F460E5FE
:1026B00070E089E30E9433130895809172048115BC
:1026C00031F081FF04C081E00E941408089581E088
:1026D0000E9408080895EF92FF920F931F93CF93E3
:1026E000DF93C62FD42F122F8115A9F06093190400
:1026F0000E94BA0B90939E0280939D02C77081E066
:1027000001C0880FCA95EAF70E94AB11CDB7DEB7BA
:10271000E6E00C94593080911904681334C0E090BD
:102720009D02F0909E020E94BA0B8E199F09883C70
:10273000910548F500E20D0FCD17A9F0C770FF24F1
:10274000F3948F2D01C0880FCA95EAF70E94BF113C
:10275000083048F48D2F877001C0FF0C8A95EAF786
:102760008F2D0E94AB1160E070E0812F0E94331327
:10277000083060F6D77081E001C0880FDA95EAF77B
:102780000E94BF11C3CFC77081E001C0880FCA95F6
:10279000EAF7F6CF1092250480912601813039F5B1
:1027A0008091700487FF23C0ECE7F2E08EE1DF0147
:1027B0001D928A95E9F780E090E00E940B0B80E083
:1027C00090E00E94310B109229040E94591186E07A
:1027D000E1EEF3E0DF011D928A95E9F71092DF0345
:1027E0001092DE031092E0030E94070C0895E4E7C4
:1027F000F2E086E0DCCF0E94CA132FEF84E39CE076
:10280000215080409040E1F700C0000088E19CE04A
:102810000FB6F894A895809360000FBE9093600067
:10282000FFCFAAE2B0E0E7E1F4E10C94403082EAA5
:1028300092E0FC0101962091F100208322E08A3A87
:102840009207B9F78091A302893009F45AC0C8F4FD
:10285000823009F4B7C0833009F486C0813091F129
:102860008091E80083FFEBC08091A2029091A302C7
:102870009A3008F0E4C0E92FF0E0E351FE4C0C94EC
:1028800015308A3009F48DC08B3051F78091A20247
:10289000813231F78091A6029091A702892B01F72E
:1028A0008091E800877F8093E8000E949C0D81E082
:1028B0009091A402911101C080E0809326010E94B2
:1028C000CA13CECF8091A202813A51F68091E800DE
:1028D000877F8093E8008091A6029091A702892BC0
:1028E00061F060E080E090E070E00E94430D809134
:1028F000E8008B778093E800B3CF68E08AEA92E043
:10290000F3CF8091A202813209F0AACF8091A60272
:102910009091A7028D7F892B09F0A2CF8091E800CA
:10292000877F8093E8008091E80082FF18C0909133
:10293000F3008091F200029731F48091F100813030
:1029400011F0863021F48091F1008093250180916F
:10295000E8008B778093E8000E949C0D81CF8091E6
:1029600093038111E0CF7CCF8091A202813A09F0DC
:1029700077CF8091A6029091A702892B09F070CFA2
:102980008091E800877F8093E8008091E80080FFD5
:10299000FCCF809126018093F1008091E8008E7732
:1029A000D9CF8091A202813209F05ACF8091E800FC
:1029B000877F8093E8000E949C0D8091A502809300
:1029C00024014ECF8091A202813A09F049CF809133
:1029D000E800877F8093E8008091E80080FFFCCFCB
:1029E00080912401D8CF803889F0823841F58091D8
:1029F000A6028F70873018F58093E9008091EB0074
:102A000085FB882780F91092E90006C080916A034F
:102A1000880F90919F02892B9091E800977F909367
:102A2000E8008093F1001092F1008091E8008E7729
:102A300023C0811116C08091A402813011F18091D0
:102A4000E80083FF0AC08091E800877F8093E80058
:102A50008091EB0080628093EB00AA96E3E00C94F7
:102A60005C30823061F78091A402811589F0109268
:102A7000E9008091E800877F8093E8000E949C0D28
:102A8000DECF81E0933009F080E080936A03EFCFDE
:102A90008091A6028F702FEF280F263080F680934A
:102AA000E9002091EB0020FFE2CF933031F48091D8
:102AB000EB0080628093EB00DACF9091EB009061A5
:102AC0009093EB0021E030E0A90102C0440F551FB4
:102AD0008A95E2F74093EA001092EA008091EB00B9
:102AE0008860E8CF8111ABCF1091A4021F7780914D
:102AF000E3008078812B8093E3008091E800877F5A
:102B00008093E8000E949C0D8091E80080FFFCCF3C
:102B10008091E30080688093E30083E0111101C09D
:102B200082E0809393038BCF8058823008F087CF68
:102B30008091A4029091A5028C3D53E0950799F5F0
:102B400083E08A838AE289834FB7F894DE01139683
:102B500020E03EE051E2E32FF0E0509357008491F3
:102B600020FF03C082958F703F5F8F708A30C8F05E
:102B7000895C90E08D939D932F5F243161F74FBF67
:102B80008091E800877F8093E8006AE270E0CE01E0
:102B900001960E94430D8091E8008B778093E800B6
:102BA0004ECF805DE6CF292F33272330310509F43E
:102BB0004EC078F52130310509F47DC08BE590E0F9
:102BC000E8ECF1E02230310509F039CF2091E8003E
:102BD000277F2093E8002091A8023091A902821754
:102BE000930708F49C0140E02115310509F068C005
:102BF000411166C08091E80082FDCDCF80919303A2
:102C0000811549F2853039F28091E80083FFF2CFD7
:102C1000C2CF8091A6029091A7022132310509F41A
:102C20003BC02232310509F00ACF8330910508F00C
:102C300006CFFC01EE0FFF1FE155FE4F0190F08122
:102C4000E02D84559E4FDC018C9190E011C09C01D9
:102C50003327813089F022303105B1F0232B09F080
:102C6000EECEEFE6F2E0E4918E2F90E0EFE6F2E0B8
:102C7000009709F4E4CEAACFE3E5F2E0E4918E2FC9
:102C800090E0E3E5F2E0F4CFE5E3F2E0E4918E2FAB
:102C900090E0E5E3F2E0ECCF8330910508F0CFCE91
:102CA000FC01EE0FFF1FEB54FE4F0190F081E02D71
:102CB00089E090E08BCF82E190E0E3E2F2E086CF22
:102CC00080919303811509F466CF853009F463CFB1
:102CD0008091E80083FD5FCF8091E80082FD8ACF7C
:102CE0008091E80080FF80CF9091F3008091F20006
:102CF0002115310519F08830910550F041E0089711
:102D000009F040E08091E8008E778093E8006CCF76
:102D100044914093F1003196215031090196E8CF5A
:102D2000803809F08CCE8091E800877F8093E8009E
:102D30008091A0028093F10078CE811180CE109115
:102D4000A402123008F07BCE8091E800877F809348
:102D5000E8001093A0020E949C0D1115F9F084E088
:102D60008093930342E061EC81E00E945F0E42E2B7
:102D700061EC84E00E945F0E42E261EC82E00E941E
:102D80005F0E42E260EC83E00E945F0E809193034D
:102D9000843051F482E08093270151CE8091E3008A
:102DA00087FDDDCF81E0DCCF81E0F5CFCF93DF93EE
:102DB000EC014A855B856E857F850E94F90A9B81BF
:102DC0009095809129048923809329048C810E9405
:102DD000E1040E94591186E0FE0111928A95E9F7FB
:102DE000DF91CF910895CF93DF93EC018D8181FD29
:102DF00017C082608D83809129049B81892B8093E9
:102E00002904809125049C81892B809325040E94AC
:102E10005911488559856E857F85CE010E94F90A32
:102E200010921604109215048D8180FD03C0CE010E
:102E30000E94D616DF91CF9108951F93CF93DF9311
:102E4000182FA0910B04B0910C04109709F44AC0FC
:102E500010920E0410920D041092090410920804AE
:102E60001696CD91DC911797CE019A9581159F41C9
:102E700008F4D07ED1E0C11101C0D0E01996ED91E7
:102E8000FC911A97309731F01B966D917C9180E000
:102E90000995D823D11539F08CEF8C0F813A30F594
:102EA0008C2F0E948B0B1115A9F0E0910B04F0916F
:102EB0000C04808584FD0EC080910A04811551F0B8
:102EC000808191819C01215031092F333E4710F4BC
:102ED0000E94000D0E94591110920C0410920B04D4
:102EE00010920A04DF91CF911F9108950E94591109
:102EF0008C2F0E94B312D7CFA0E0B0E0E2E8F7E158
:102F00000C943530FC018280648081E08483E3EF9F
:102F1000F4E09490E2E7F5E0E49100912004069556
:102F2000015810E0000F111F012F1127C6EFD2E04A
:102F3000C12CD12CAA24AA94B12C77247A94E91913
:102F4000EE2EF12C83E0881630F480911E048883E5
:102F500080911F04898361101AC01B821A824A81E2
:102F6000493C08F048EC9601698188810E948A07F3
:102F70008FEFC81AD80A259684E1C816D10411F734
:102F80000E94AF07CDB7DEB7EEE00C9451308B81D5
:102F90008115E9F081508B83789EC00111246C81EA
:102FA00070E00E94ED2FFB01FF27ED50FB4F849155
:102FB000E82FE9197E9EC0011124B7010E94ED2F70
:102FC00080912004689FB00111247A83C8CF0E94A9
:102FD000F330B5010E940130801791070CF0BFCF8C
:102FE00083E0881688F00E94F330B5010E9401301A
:102FF00088830E94F33020911F042695622F70E091
:103000000E940130280F29831A8280912004893C74
:1030100020F088EC8C838B83A2CF8431D8F784E1B5
:10302000F9CFA0E0B0E0E7E1F8E10C943B30890192
:10303000D42FC52F6B017C010E949A07A8016D2F28
:103040007C2F88E090E00E94533198014D2F5C2F37
:10305000B601C70100E20E948330622F83E290E054
:103060000E944131CDB7DEB7E8E00C945730809133
:103070002104833018F48F5F8093210420911D0474
:1030800030911E0440911F0450912004609121044E
:103090007091220480912304909124040E941118BD
:1030A000089580912104811519F0815080932104A5
:1030B00020911D0430911E0440911F045091200462
:1030C0006091210470912204809123049091240442
:1030D0000E9411180895A0E0B0E0E1E7F8E10C9437
:1030E0003630082FF62E142FE22E90911D0490FFFB
:1030F00032C0E92FE695E695AE2FB0E0A554BE4F5D
:103100008C9180931B049C7F943051F5842F493C13
:1031100008F088EC602F7F2D0E940307962F672F01
:10312000482F892F0E94C60700931E04F0921F04A7
:1031300010932004E11479F020911D046091210482
:1031400070912204302F4F2D512F809123049091A4
:1031500024040E941118CDB7DEB7EDE00C94523074
:10316000823019F410912004DFCF863019F40091D9
:103170001E04DACF8930D9F38931B1F6E9518E2FA7
:103180008170782EE695F0E0ED50FA4FE491CE2F65
:10319000D0E0A12CB12CC12CD12C84E1882E912C13
:1031A000C501B4010E94ED2F802F711015C0860F4C
:1031B000412F193C08F048EC96016F2D0E948A07B8
:1031C0008FEFC81AD80AAC0EBD1E84E1C816D10410
:1031D00039F70E94AF07A8CF861BEACFEDE1F4E0F4
:1031E000818121E043816281885F0E946B1808958C
:1031F000EDE1F4E0818121E04381628188500E9409
:103200006B180895EDE1F4E0628128E0620F08F4A4
:103210006FEF21E0438181810E946B180895EDE1F9
:10322000F4E0628128E0621B08F460E021E0438161
:1032300081810E946B180895EDE1F4E0438128E05C
:10324000420F08F44FEF21E0628181810E946B18E8
:103250000895EDE1F4E0438128E0421B08F440E0EA
:1032600021E0628181810E946B18089560911D04A4
:103270006695669570E04BE050E08FE091E00E942B
:103280000331892B19F481E080931C040E94BA0B4E
:1032900090937F0380937E03089590911D0490FF87
:1032A0003BC08115D1F18B32D0F58F73282F220FBF
:1032B000220F80911D048370282B20931D0461151B
:1032C00081F030911E0440911F04509120046091C0
:1032D00021047091220480912304909124040E947F
:1032E000111860911D046695669570E04BE050E002
:1032F0008FE091E00E940331892B99F010921C0419
:1033000081E08093810320E04091200460911F04BC
:1033100080911E040E946B18089581E0C7CF8AE255
:10332000C5CF0E943619ECCF80911D0486958695F5
:103330008F5F8B3208F081E061E00E944D190895A3
:1033400080911D04869586958A9509F48AE261E04C
:103350000E944D1908952F923F925F926F927F9233
:103360008F929F92AF92BF92CF92DF92EF92FF9295
:103370000F931F93CF93DF93CDB7DEB728970FB688
:10338000F894DEBF0FBECDBF3C01DC0114968C91DA
:10339000811509F402C161E0C3010E94D1104C0102
:1033A000F3018581811521F1809115049091160416
:1033B0000097F1F088169906D9F0FC01FF278530B7
:1033C00008F0A0C064E0EE0FFF1F6A95E1F7E75D2B
:1033D000FE4F85818460858391828082CF010E9427
:1033E000F3161092290461E0C3010E94D1104C0130
:1033F000D30115965C90C401815A92454F9708F00D
:1034000084C0F401B0EAEB27B2E5FB275110DEC01F
:10341000D090E703E090E803F090E9031091EA030D
:10342000B091EB03A091EC03F091ED03C090EE039B
:1034300021E030E040E050E060E070E080E090E0CB
:103440000E2F0E946830A22EAD20B32EBE20E42F96
:10345000EF21D52ED122E62EEB22F72EFA22082FCD
:103460000F23192F1C21CE2E0E949E3009F484C0F8
:103470008091280181118BC4C40197558115914019
:1034800008F036C6F401FF27B5E08B1608F074C0CB
:1034900034E0EE0FFF1F3A95E1F78F01075D1E4FF5
:1034A000D30115968C91E25DFE4F908180FB90F9DF
:1034B0009083811509F4FFC50E94BA0B90931804FC
:1034C00080931704F80182818F5F828380912904A1
:1034D00090912504892B83838091260484834681DF
:1034E000578166857785C8010E94F90AD80115962B
:1034F0008C9181FDDDC5982D892D909315048093C5
:103500001604E4C4E0E0F0E064CF511409F4FDC215
:103510008114E1E09E0608F458C0F9E58F16FCE737
:103520009F0621F110920704C40197578038910536
:1035300008F456C3EEE58E16ECE79E0609F423C4A4
:10354000FFE58F16FCE79F0659F00DE580160CE7A6
:10355000900609F08DCF80912801811509F413C4DC
:103560001092280180E00E941D1706C08091070478
:1035700091E089278093070480912A048770811540
:1035800061F0D30115968C91811539F08091710409
:1035900082FF03C082E00E943D0828960FB6F8948F
:1035A000DEBF0FBECDBFDF91CF911F910F91FF9076
:1035B000EF90DF90CF90BF90AF909F908F907F90D3
:1035C0006F905F903F902F900895F40180910704D1
:1035D000811509F4E7C010920704E03CF10508F0FA
:1035E0003FC0E038F10508F0A7C08F010054110971
:1035F0000034110508F46DC021E030E040E050E0F7
:1036000060E070E080E090E00E2F0E946830A091B2
:10361000E7032A2BA091E8033A2BA091E9034A2B58
:10362000A091EA035A2BA091EB036A2BA091EC0323
:103630007A2BA091ED038A2BA091EE03A92B209366
:10364000E7033093E8034093E9035093EA03609360
:10365000EB037093EC038093ED03A093EE0335C06E
:1036600021E030E040E050E060E070E080E090E099
:103670008F01005C11090E946830A091FF032A2B82
:10368000A09100043A2BA09101044A2BA0910204BE
:103690005A2BA09103046A2BA09104047A2BA091C9
:1036A00005048A2BA0910604A92B2093FF033093D5
:1036B0000004409301045093020460930304709348
:1036C000040480930504A09306044F01511032CFE7
:1036D000CFCE21E030E040E050E060E070E080E0FC
:1036E00090E00E946830A091EF032A2BA091F00394
:1036F0003A2BA091F1034A2BA091F2035A2BA091EF
:10370000F3036A2BA091F4037A2BA091F5038A2B83
:10371000A091F603A92B2093EF033093F00340937D
:10372000F1035093F2036093F3037093F4038093D7
:10373000F503A093F603C9CF21E030E040E050E06C
:1037400060E070E080E090E08F01005811090E9475
:103750006830A091F7032A2BA091F8033A2BA0918F
:10376000F9034A2BA091FA035A2BA091FB036A2B71
:10377000A091FC037A2BA091FD038A2BA091FE035C
:10378000A92B2093F7033093F8034093F903509348
:10379000FA036093FB037093FC038093FD03A093F3
:1037A000FE0393CFE034F10508F084C0E090E70316
:1037B000F090E8031091E903B091EA03A091EB03C4
:1037C000D090EC03C090ED03B090EE0321E030E028
:1037D00040E050E060E070E080E090E00E2F0E945A
:1037E0006830A22EAE20232E2F20342E3122B52376
:1037F000E62EEA22F72EFD20082F0C21192F1B217F
:10380000B22CC32CDB2E0E949E3009F05FCF8F01BB
:10381000E03CF10508F0ACC0E038F10508F030C13B
:10382000005411090034110508F4E7C021E030E02C
:1038300040E050E060E070E080E090E00E2F0E94F9
:103840006830E22EE094F32EF094042F0095152FAB
:103850001095B62FB095A72FA095F82FF095E92FCA
:10386000E0952091E7032E213091E8033F2140911C
:10387000E90340235091EA0351236091EB036B234A
:103880007091EC037A238091ED038F239091EE03E6
:103890009E232093E7033093E8034093E90350937A
:1038A000EA036093EB037093EC038093ED03909332
:1038B000EE0362CEE038F105F0F4E090EF03F09013
:1038C000F0031091F103B091F203A091F303D090B3
:1038D000F403C090F503B090F60321E030E040E03F
:1038E00050E060E070E080E090E01F0100E4201A0A
:1038F0003108022D74CFE03CF105E8F4E090F703C5
:10390000F090F8031091F903B091FA03A091FB0332
:10391000D090FC03C090FD03B090FE0321E030E0A6
:1039200040E050E060E070E080E090E01F0100E8DF
:10393000201A3108DECFE090FF03F09000041091D0
:103940000104B0910204A0910304D0900404C0903B
:103950000504B090060421E030E040E050E060E073
:1039600070E080E090E01F0100EC201A3108C1CF28
:10397000005C110921E030E040E050E060E070E0E0
:1039800080E090E00E946830E22EE094F32EF09404
:10399000042F0095152F1095B62FB095A72FA09541
:1039A000F82FF095E92FE0952091FF032E2130911B
:1039B00000043F214091010440235091020451230F
:1039C000609103046B23709104047A2380910504B1
:1039D0008F23909106049E232093FF0330930004CD
:1039E0004093010450930204609303047093040411
:1039F0008093050490930604BFCD21E030E040E0C1
:103A000050E060E070E080E090E00E946830E22EDC
:103A1000E094F32EF094042F0095152F1095B62FF7
:103A2000B095A72FA095F82FF095E92FE09520915C
:103A3000EF032E213091F0033F214091F103402309
:103A40005091F20351236091F3036B237091F403BF
:103A50007A238091F5038F239091F6039E23209380
:103A6000EF033093F0034093F1035093F20360931C
:103A7000F3037093F4038093F5039093F6037CCDE6
:103A80000058110921E030E040E050E060E070E0D3
:103A900080E090E00E946830E22EE094F32EF094F3
:103AA000042F0095152F1095B62FB095A72FA09530
:103AB000F82FF095E92FE0952091F7032E21309112
:103AC000F8033F214091F90340235091FA03512319
:103AD0006091FB036B237091FC037A238091FD03BB
:103AE0008F239091FE039E232093F7033093F803D6
:103AF0004093F9035093FA036093FB037093FC0324
:103B00008093FD039093FE0337CD811421E092064C
:103B100008F0AECC30E48316910410F4F40178CCB4
:103B200040E884169104F0F4D090EF03E090F003A5
:103B3000F090F1031091F203B091F303A091F4031C
:103B4000F091F503C090F60321E030E040E050E052
:103B500060E070E080E090E05401E0E4AE1AB1086B
:103B60000A2D6FCCF0EC8F169104E8F4D090F70397
:103B7000E090F803F090F9031091FA03B091FB0381
:103B8000A091FC03F091FD03C090FE0321E030E022
:103B900040E050E060E070E080E090E0540100E838
:103BA000A01AB108DDCFD090FF03E0900004F090A0
:103BB000010410910204B0910304A0910404F09157
:103BC0000504C090060421E030E040E050E060E0F1
:103BD00070E080E090E05401E0ECAE1AB108C0CF94
:103BE000F0E18F1608F0C8CC8FEF93E00E941D31F2
:103BF00008EA12E08111C0CC811021C01A83098328
:103C00008E010F5F1F4FC8010E942C11C02EB12ED4
:103C1000811509F4B1CC813009F05CC0C8010E9463
:103C20002C118130D1F4C8010E942C1160E570E0A4
:103C3000893311F060E070E00E943313E4CF011586
:103C400024E0120709F498CCC8010E941D310F5FCF
:103C50001F4F8111F4CF8A94CFCF823031F4C80145
:103C60000E942C110E94D111CECF833031F4C801B3
:103C70000E942C110E94B312C6CF843089F4C8016F
:103C80000E942C11E12CF12C5AE0D52E482F4053E4
:103C9000550B9A014A30510530F0E114F10481F4DA
:103CA0008111B1CF69CCDE9CC001DF9C900D112445
:103CB0007901E80EF91E8C2D9B2D0E942C11E6CF68
:103CC000AFE9BFE01197F1F700C00000B1E0EB1AD7
:103CD000F108E3CFE82FF0E0E35CF84F9490282F51
:103CE00026952695269530E0F901E35DF84FE4909E
:103CF0008770F12C082E02C0F594E7940A94E2F73D
:103D0000E0FAEE24FF24E0F8F901E35EF84FC490F6
:103D1000D12C082E02C0D594C7940A94E2F7C0FAB9
:103D2000CC24DD24C0F8F901E35FF84FA490B12C56
:103D300002C0B594A7948A95E2F7A0FAAA24BB24FE
:103D4000A0F8E114F10419F081EE0E94D111C11420
:103D5000D10419F086EE0E94D11160E070E0892D47
:103D60000E943313CD2819F086EE0E94B312EF287B
:103D700019F081EE0E94B312AB2809F444CF60E041
:103D800070E08CE259CF81E080932801F5CB74017B
:103D900030EEE31AF1082090270480912504282AA8
:103DA00080912604282A48E0E416F10408F061C056
:103DB00094012770332781E090E001C0880F2A9595
:103DC000EAF7511409F452C0282AD3018D919C912D
:103DD0000E94A40421E030E0F90102C0EE0FFF1FB1
:103DE0008A95E2F7F887EF8320910B0430910C0459
:103DF0003C832B8340911304509114045E834D83C4
:103E000047E6A42E42E0B42ED5010D911D915D012F
:103E10000115110509F446C0211004C0F801828182
:103E200081111EC0D80113968C91139790E0EF81F9
:103E3000F8858E239F23892B99F018968C91982FC3
:103E40009770911101C087E0F8E0EF16F10408F0D7
:103E500075C0511409F46EC086958170811173C0CC
:103E6000AFE6B2E0AA15BB0579F61CC08095282202
:103E7000ACCF51104CC0809113049091140488155C
:103E8000990581F4109214041092130410920F04F7
:103E900010921004109211041092120410920E0449
:103EA00010920D0480910B0490910C04009709F47A
:103EB000E3CAB8E0EB16F10408F0E3C0622D0E94FB
:103EC000850A811103C081E00E941D17D301159658
:103ED0009C91911509F4F0C1109219049401305786
:103EE0002332310508F036C584E090E00E942B3182
:103EF0009093710480937004F401E150F047E23232
:103F0000F10508F01FC1E950FE4C0C941530909259
:103F10001404809213040E94F40C60930F047093B5
:103F20001004809311049093120410920E041092C6
:103F30000D044BCF82FB882780F990CF511409F4F0
:103F40008FCF80FF8DCFD801CD90DC908C149D0455
:103F500019F4511409F484CFEB81FC81E017F107C7
:103F600009F47ECFD8011D96ED91FC91309721F098
:103F70008081811509F474CF622DC8010E94850AE1
:103F8000811509F46DCF81E08C149D0409F080E067
:103F9000382E3520C114D10441F0311006C0ED8116
:103FA000FE81CE16DF0609F05BCF80E00E941D1770
:103FB00010930C0400930B0481E080930A04D80151
:103FC00015968C9115978093090431100CC0CD285B
:103FD00051F08D919C919C0124503109213A310579
:103FE000A0F50E948B0BF801C680D780C6019A9578
:103FF00081159F4110F420EED222BB24B394C60158
:1040000001978F339E4708F0B12CD8011996ED9196
:10401000FC911A97309731F01B966D917C9181E05D
:104020000995B822B11471F0F801868197810E9438
:10403000270480930804C601F8E0EF16F10440F469
:104040000E94000D0E9459110AC00E94B312CBCFEA
:104050000497813A910548F48C2D0E94570B311436
:1040600009F40ACA0E94591187CA0E9459118FE3A4
:104070009CE90197F1F700C000008C2D0E94D1113E
:10408000EECFFC01208131812815390541F4511012
:1040900009C010920A0480E00E941D17EDC9511456
:1040A00009F4EAC9DC0118968C9185FDE5C9F3CFC6
:1040B00090E080E022CAF8014485558566857785C1
:1040C000C8010E94F90AD80115968C9181FFFECE95
:1040D000C8010E94D6168091150490911604881686
:1040E000990609F0F3CE1092160410921504EECE44
:1040F000F3018581F401E851FC47E730F10508F050
:10410000E5CEE75EFD4C0C94153026E241EE61EE03
:104110000E946B1331CA27E245EE65EEF9CF26E225
:1041200041EE60EEF5CF27E245EE64EEF1CF26E2F8
:1041300041EE62EEEDCF27E245EE66EEE9CF28E2F2
:1041400041E0EBCF809170048160809370046091B6
:1041500070047091710484E090E00E945F310E94CD
:10416000CA130ACA80917104886080937104EFCFEA
:10417000809170048260E9CF809170048460E5CF03
:10418000809170048860E1CF809171048160EDCFEF
:10419000809171048260E9CF809170048061D5CFF5
:1041A000809170048062D1CF809170048064CDCF03
:1041B0000E94CA13809170048068C7CF80917004F8
:1041C0008C60C3CF809171048360CFCF80917004E5
:1041D0008E7FBBCF80917104877FC7CF80917004A1
:1041E0008D7FB3CF809170048B7FAFCF80917004AF
:1041F000877FABCF809171048E7FB7CF80917104A0
:104200008D7FB3CF809170048F7E9FCF809170049B
:104210008F7D9BCF809170048F7B97CF0E94CA13B4
:10422000809170048F7791CF80917004837F8DCFC0
:10423000809171048C7F99CF80917004992782FFBF
:10424000939590FB82F990FB83F97FCF8091710465
:10425000982F909590FB80F990FB81F986CF9091F3
:104260007004892F8F7B96FF80646FCF0E94CA13E2
:1042700090917004892F97FB87F9805866CF61E091
:104280008EE090E00E94413162CF60E0F9CF9091E2
:104290007004892F8F7E94FF806157CF90917004B6
:1042A000892F8E7F90FF816050CF90917104892F6C
:1042B000877F93FF886059CFB6E18B16BCE79B06DA
:1042C00009F03EC380912504282F21718A7A21119B
:1042D00080E0911571F091E0811101C090E0909320
:1042E0001A04811521F085E30E94570BBBCE89E2A9
:1042F000FBCF80911A04811521F085E30E948B0B7E
:10430000B1CE89E2FBCF80911D0480FF19C0282F18
:104310002E7F20931D0430911E0440911F04509164
:1043200020046091210470912204809123049091D3
:1043300024040E94111810921C040E94AF071CC98B
:10434000816080931D0461E0869586950E944D19D9
:1043500013C9811529F00E94A0190EC98115D9F33E
:104360000E94941909C9811529F00E94F81804C9FE
:104370008115D9F30E94EE18FFC8811529F00E941B
:104380000F19FAC88115D9F30E940219F5C88115D1
:1043900029F00E942919F0C88115D9F30E941C192F
:1043A000EBC8811529F00E945118E6C88115D9F390
:1043B0000E943718E1C8E7E78E16ECE79E0609F180
:1043C000F8E78F16FCE79F0629F19401205E32453D
:1043D0002032310520F591113DC0082D0F7181E08B
:1043E00090E09C0102C0220F331F0A95E2F74901B9
:1043F000622F83E090E00E944131882D0E946E047C
:10440000BBC881E00E94080843E062E081E00E94AE
:104410005908B2C882E0911509F499C2F3CF9115F9
:10442000C9F03AE583163CE7930609F48CC008F01E
:1044300061C051E085165CE7950609F482C083E00F
:1044400088168CE7980609F476C081149CE79906D3
:1044500009F464C0F3018581E080F180811509F4DD
:1044600076C0C7010E94A610182F682FC7010E94AE
:104470007104B701812F0E9498100E94E4058C01FD
:10448000D3011596DC9015971696CC90C2942FE028
:10449000C22280912A048770811501F1ED2CD1147C
:1044A000F1F0812F807F803461F080E2800F8830CE
:1044B000A8F0812F807E803221F4023078F0C11480
:1044C00069F08091710482FF09C082E00E943D087A
:1044D00080912A048770EE24E3948111E12CE12F6E
:1044E000E295EF70103C08F09DC0F0E0E05EFD4CFE
:1044F0000C941530ABE58A16ACE79A0631F1809141
:104500007104002482FF0394802DBCE58B16BCE768
:104510009B0609F09FCF0E94B90F9CCF0E94CA133F
:10452000EFEFF4E30CE0E150F0400040E1F700C0B1
:1045300000000E942F0F6FEF7FEF80E090E00E945D
:104540005F310E94FB1381E0E6CF80E0E4CFC7013A
:104550000E94A404182F8DCFB12FBF70FB2E1031F5
:1045600018F0F29490EFF922D114B9F0F11469F037
:1045700080E2800F883010F0011109C0809125047D
:104580008F29809325040E945911802F43C0809168
:1045900029048F2980932904F6CF802F0E94B3121B
:1045A000F11409F43FC080E2800F883010F001114F
:1045B00004C08F2D0E94E10406C0F094809129046C
:1045C0008F21809329040E9459112CC0E12FEF7094
:1045D000FE2E107F103219F0F29480EFF8220115B0
:1045E00049F0013009F47AC0D11409F486C0C1142D
:1045F000B9F1CBCF8091710482FD2EC0D11469F046
:10460000F11439F0809125048F29809325040E94AC
:10461000591180E00E94D11105C080E00E94B312C0
:10462000F110C7CFE11409F4CAC080912A0480FDBB
:10463000C6C0D30115961C928695869586950E94D4
:104640000808C3010E94AB1980912A0486958695BB
:1046500086950E941408B3C0D114C9F0C11004C0DB
:104660008F2D0E94AB11DECFF1E0CF12DBCF109186
:1046700026048F2D8123F816A9F20E94BA0B90937D
:104680002E0480932D041F2910932604CBCFC11034
:10469000C9CF8F2D0E94BF11909126048F2D8923A1
:1046A000811569F08F2D80958923809326048115CB
:1046B00091F00E94BA0B80932D0490932E04809168
:1046C00027049F2D9823911509F4ACCFF094F8227C
:1046D000F0922704A7CF80E090E0EDCFD11429F02D
:1046E00003E0C01608F09ECFBBCF22E0C21608F050
:1046F00099CF8F2D0E94BF1195CFC114D1F30933EB
:1047000049F43FEF47EE53E0315040405040E1F76D
:1047100000C00000802F0E94B31284CF812F8695A5
:1047200086958370811561F0813009F07BCFC801D7
:104730009370D11002C080E090E00E94310B72CFE4
:10474000C8019370D11002C080E090E00E940B0B72
:1047500069CF6D2D802F0E942F0C64CF812F837025
:1047600081113BC0D11027C0402F4295469547701C
:10477000440F440F802F8F70042E01C0880F0A94BD
:10478000EAF7202F207104FF07C02FE030E001C0BE
:10479000220F4A95EAF72095169516951370123058
:1047A000B9F0133099F030912804113071F0822B58
:1047B00083230E946E040E94FE0A0E947A0860E031
:1047C000C3010E94D1100C94CD1A832B822BF1CF00
:1047D000822B909128048927ECCFD11451F110FF3E
:1047E000EACF402F429546954770440F440F802FE3
:1047F0008F70042E01C0880F0A94EAF7202F2071D1
:1048000004FF07C02FE030E001C0220F4A95EAF70D
:104810002095169516951370123091F0133071F0A3
:1048200030917204113049F0822B83230E940308D7
:10483000C2CF823008F4BFCFD4CF832B822BF6CFE8
:10484000822B909172048927F1CF1F70D11439F017
:10485000812F0E940808802F0E94AB11ACCF802FBF
:104860000E94BF11812F0E941408A5CF023F69F159
:1048700070F4003FC9F0013F91F0D11409F44CC02D
:10488000C11409F446C0802F0E94D11194CF033F78
:1048900019F1043F91F78091710482FD28C0812FA6
:1048A0008F71D11401F315C0D11461F082E0C816E4
:1048B00008F081CF1F7181E090E001C0880F1A9548
:1048C000EAF7BFCF93E0C916F3CF812F8F71D110D4
:1048D000CACF0E9408086FCF80E0D11409F4A6CF98
:1048E0001F7181E001C0880F1A95EAF79FCFD1149C
:1048F00029F0812F8F710E940B0E5DCF81E00E9405
:104900003D08A2E0CA1608F456CF82E00E943D0896
:1049100052CF812F8F71DDCFC11479F0093349F463
:10492000BFEFE7EEF3E0B150E040F040E1F700C048
:104930000000802F0E94B3123ECF812F8F7193CF42
:10494000B7E78B16BCE79B0609F03ACD81E00E94E1
:1049500014085ACDE6E18E16ECE79E0609F4B2CCB7
:10496000809125048272F401E052F847EB30F105A2
:1049700008F021CDE45DFD4C0C94153080916F045E
:10498000803178F480916E04811559F0E091300403
:1049900020912F0430916A044091690457E02E134E
:1049A00001C008956E2F70E05E9FF0011124DF01B9
:1049B000AF5CBB4F14968C911497811561F11196E1
:1049C0008C911197831327C08C91841324C0159662
:1049D0008C91159781111FC012968D919C91A09179
:1049E0006B04B0916C048A1B9B0B883C910598F476
:1049F00080916F048F70806180936F04E95CFB4F3E
:104A000080818F708061808389E694E00E94AB1979
:104A10000E94D7040895FB013196E770C0CFADE046
:104A2000B0E0E5E1F5E20C9435308C0186E0F80168
:104A3000DE01189601900D928A95E1F7F801F58054
:104A4000848199E6892E94E0992E60906D0461101E
:104A500018C0811599F0F11409F415C1C8010E941C
:104A60000011811509F40FC187E0F801A9E6B4E04F
:104A700001900D928A95E1F70E94BE24FF24F394E1
:104A800056C07080A280B380D0906E0420916B04D9
:104A900030916C04A501421B530BD11409F4C3C01F
:104AA000483C510508F079C0811541F380916A04B2
:104AB000C180E0906F0450E1E51608F059C0C812BB
:104AC00015C080916904871111C0F1104BC08E2D63
:104AD0008F70806180936F0489E694E00E94AB1927
:104AE00080916F04F8018683F12C21C0F1103AC047
:104AF00040E06C2D872D0E94EA0E40E06C2D872D42
:104B00000E94EA0EF82E8111EFCF888599850E94C8
:104B1000F110292F22952F70903470F49F7022305D
:104B2000A0F09115B1F0F8019681903190F48F2D9D
:104B30002D96EEE00C9451302A5F2F70223068F0F1
:104B4000C8010E94AB19FD2CF2CF911511F081150F
:104B500071F3805E883058F3F3CF803F40F3815F7C
:104B60008330F9CF80916F04816080936F04BCCF54
:104B7000C8123BC080916904871137C0F11035C05D
:104B8000E682C8010E94AB1987E0F801A9E6B4E00B
:104B900001900D928A95E1F771CFE0906F04F0E1FA
:104BA000EF1650F489E694E00E94AB1987E0F40117
:104BB00011928A95E9F798CF811509F45FCF90910A
:104BC0006A04F8018181981310C0809169048711EB
:104BD0000CC0F1100AC0E682C8010E94AB1987E040
:104BE000F40111928A95E9F749CFC8010E9400119A
:104BF000811509F448C0F11409F445C080916F048F
:104C0000803208F431CF8091690490916A049A83CC
:104C10008983BC82AB826D821E82EF82CE010196B7
:104C20000E94AB1921CF483C510508F0BFCF811538
:104C300009F424CFF11439F190916A048181981319
:104C400018C080916904871114C080916F0480FDA1
:104C50009BCF803108F498CF8683807F803F09F412
:104C600090CF8681982F907F905F8F70892B86835D
:104C700088CFC8010E9400118111F6CE80916F0487
:104C8000816080936F04C8010E94AB19F7CEABE13D
:104C9000B0E0EDE4F6E20C943F304E8B5F8B688F12
:104CA000798F8A8F192F9B8F9111109229041D8A59
:104CB00086E0FE017696DE011F9601900D928A95A0
:104CC000E1F70A8D8091710482FF1FC00E94BA0B28
:104CD00020912B0430912C04821B930B8C3D95402A
:104CE00038F080912A0482FD03C082E00E943D08D2
:104CF0000E94BA0B20912D0430912E04821B930B3D
:104D00008C3D954010F00E94E904011561F00B8B79
:104D10001C8B61E0CE010F960E94D11061E0CE01A4
:104D20000F960E94D1100B8B1C8B87E0FE013F96E3
:104D3000DE01189601900D928A95E1F7CE01089652
:104D40000E940F25811110C020912F043091300452
:104D500087E0FE013896DE01119601900D928A954A
:104D6000E1F78C8581110BC017E0809130049091A0
:104D70002F0489132BC06B96E4E00C945B30822FD8
:104D800090E00196877099273817190671F40E94F0
:104D9000CA1310922F041092300487E0E9E6F4E081
:104DA000DF011D928A95E9F7DFCF97E0929FD0014E
:104DB0001124AF5CBB4FFE01319601900D929A9584
:104DC000E1F780932F040E94D704CECF189FC00133
:104DD00011248F5C9B4F0E940F25811561F28091F9
:104DE000300490E001968770992780933004BDCFFE
:104DF000A6E0B0E0EEEFF6E20C943F300E94BA0B72
:104E00008C0180919403909195038017910779F01C
:104E100019821A820E94BA0BBC0149815A8180E032
:104E200090E00E94472610939503009394032696E2
:104E3000E4E00C945B30EDE1F4E0808181608083FC
:104E400060E0869586950E944D190895AAE0B0E02D
:104E5000ECE2F7E20C943330FE0131968AE0DF0198
:104E60001D928A95E9F796EEC92E91E0D92E8F0111
:104E70002F0166246394712C3BEF832E31E0932E37
:104E8000F60181916F018F3F09F445C0F894E82F36
:104E9000E295EF70F0E021A18F70A30102C0440FF2
:104EA000551F8A95E2F7CA01922F982B91A392A1E0
:104EB0008095892382A3789400C0EBEEF1E021E095
:104EC00030E0A12CB12C41914F3F81F0A42FA2954D
:104ED000AF70A05EB0E08C9190E04F7002C09595ED
:104EE00087954A95E2F7790180FF02C0E12CF12C09
:104EF000AE28BF28220F331F8E169F0621F7F6011A
:104F000082918F3F11F00E94E90650EA5A95F1F71D
:104F1000D801AD92BC920E5F1F4FBBEECB16B1E035
:104F2000DB0609F0ADCF4AE050E0B2018CE593E03A
:104F30000E941031892BA9F08AE0F201ACE5B3E0C0
:104F400001900D928A95E1F781E080939C020E9486
:104F5000BA0B90939B0280939A022A96E0E10C94FC
:104F60004F3080919C028115C1F300919A021091FB
:104F70009B020E94BA0B801B910B059770F34AE0CD
:104F800050E06CE573E089E893E00E941031892BD2
:104F900049F08AE0ECE5F3E0A9E8B3E001900D9276
:104FA0008A95E1F710929C02D8CFCDB7DEB7A497CF
:104FB0000FB6F894DEBF0FBECDBF85B7806885BF42
:104FC00085B7806885BF84B7877F84BF0FB6F894A4
:104FD000A8958091600088618093600010926000C5
:104FE0000FBE80E890E00FB6F89480936100909334
:104FF00061000FBE81E08093270187EE96E09093D9
:105000007102809370020E94EC0D0E948F0E8091BD
:10501000E20084608093E20078948091930381158C
:1050200099F08091E9001091EC008F70179511278D
:105030001795182B1092E9008091E80083FD0E94DB
:1050400011141F701093E90082E084BD93E095BDB8
:105050009AEF97BD80936E000E944011811102C0AB
:105060000E945A1006EE11E0ABEEAA2EA1E0BA2E75
:10507000D8018D918D018F3F11F00E94E906A01695
:10508000B106B1F70BEE11E0FBEFAF2EF1E0BF2E52
:10509000F80181918F018F3F11F00E94E906A0165F
:1050A000B106B1F78AE0E9E8F3E0DF01082F1D92CD
:1050B0000A95E9F7ECE5F3E0DF011D928A95E9F73F
:1050C00040E060E080E00E94C60780E090E00E943F
:1050D0002B31853E9E4F21F40E944011811163C007
:1050E00065EE7EEF80E090E00E945F3160E082E05C
:1050F00090E00E94413181E08093280461E083E0E8
:1051000090E00E94413160E074E184E090E00E9410
:105110005F3160E086E090E00E94413160E087E02E
:1051200090E00E94413140E050E0BA0188E090E018
:105130000E94533160E083E290E00E94413160E0E0
:105140008CE090E00E94413160E08DE090E00E94B0
:10515000413119821A821B821C821D821E821F828B
:10516000188648E050E067E170E0CE0101960E94A9
:10517000313140E050E0BA018FE190E00E945331BC
:1051800080E00E943F100E945A1040E050E0BA01B7
:105190008FE090E00E94533140E050E0BA0183E19B
:1051A00090E00E94533182E090E00E941D31809394
:1051B0006B0384E090E00E942B3190937104809304
:1051C00070040E942627EFEFF6E701E0E150F0407F
:1051D0000040E1F700C000000E942627809189036B
:1051E00080FF08C06FEF7FEF80E090E00E945F31AA
:1051F0000E942F0F83E090E00E941D310E946E04F8
:10520000809172040E94E507879A8F9A80916603C5
:10521000811184C088E090E00E94253169A37AA3BF
:105220008BA39CA383E290E00E941D31282F30E0E5
:1052300040E050E060E070E080E090E000E20E943A
:105240006830F90109A11AA12BA13CA1480159011B
:10525000202F2E2B3F2F39294A295B2920931D040B
:1052600030931E0440931F04509320046093210444
:105270007093220480932304909324042430E0F557
:1052800025E020931D0410921E0410921F0410921A
:1052900020041092210430E040E050E060E00E94E1
:1052A000111888E090E00E9425312B013C0183E237
:1052B00090E00E941D31282F30E040E050E060E097
:1052C00070E080E090E000E20E946830530142010B
:1052D000242939294A295B2920931D0430931E046F
:1052E00040931F0450932004609321047093220480
:1052F00080932304909324040E949A0710921C0424
:105300000E94780A80911D0480FF05C060E08695A8
:1053100086950E944D1981E0809366038091700408
:10532000806880937004609170047091710484E0CF
:1053300090E00E945F318AE191E09093B7038093FF
:10534000B60378E1872E912CE3E94E2EE3E05E2E42
:105350008091930310E4853009F49FC00E942627B2
:105360005CE6A52E53E0B52E69E8662E63E0762E46
:10537000D301F501219131918D919D9103E0E637A3
:10538000F00709F49FC028173907A1F3312CD30186
:105390000D911D913D01F501C190D1905F01C016A5
:1053A000D10659F1C026D126212CEE24E394F12C0C
:1053B000C6018E219F21892BB9F029823A820E9451
:1053C000BA0B9C838B83F1E0FD8391E098012E2141
:1053D0003F21232B09F490E09E8349815A816B8100
:1053E0007C818D810E9447262394EE0CFF1C20E1D6
:1053F0002212DECFF50112930293339435E033127B
:10540000C6CF0E94F40C64C080919303843009F4E9
:1054100038C080E00E947A0810921C0480916903D1
:1054200081110EC021E02093690380911D04982F03
:105430009170909368038E7F80931D040E94AF0744
:10544000109267030FB6F894A895809260000FBE83
:105450001093600083B7817F846083BF83B78160CE
:1054600083BF7894889583B78E7F83BF0FB6F894F7
:10547000A895809160008861809360001092600020
:105480000FBE0E942627E9E8F3E081919191892BD4
:1054900009F0EEC34E165F06C1F780919303853085
:1054A00009F4B2CF0E94CA130E94FE0A0E947A0831
:1054B000109269038091680381110E941B270E944A
:1054C00036194CCF2817390709F060CF0E94F8260B
:1054D00000910D0410910E040115110591F1C09079
:1054E0007A03D0907B03E0907C03F0907D030E94D0
:1054F000F40C6C197D098E099F09C0907603D09039
:105500007703E0907803F09079036C157D058E05A4
:105510009F05B8F0C8010E94861210920E041092E6
:105520000D0410927A0310927B0310927C03109268
:105530007D031092760310927703109278031092F5
:105540007903009115041091160401151105E9F075
:10555000E0901704F09018040E94BA0B8E199F096E
:10556000893C910590F0C8019927053008F05DC18C
:1055700024E0880F991F2A95E1F7875D9E4FDC0193
:1055800015962C9122FF0E94F31680911C04811520
:1055900009F444C080911B04E0911D04E695E69552
:1055A000E81BE0938003853109F4A5C108F04FC1E1
:1055B000893009F494C108F03BC1823009F479C103
:1055C000863009F481C100ED17E082E0E82E87E023
:1055D000F82E80918103811561F0109281030E9461
:1055E000BA0B90937F0380937E03109283031092F3
:1055F00082030E94BA0B20917E0330917F03821BAD
:10560000930B8F3F9F4750F4200F311F30937F0340
:1056100020937E038EE793E0F701099586E0E1EEA3
:10562000F3E0DE01119601900D928A95E1F7B090BA
:10563000E203D090E303F090E403C090E503E09030
:10564000E6031092E3031092E4031092E503109234
:10565000E6038F2D8D29811509F441C00091860341
:10566000109187030E94BA0B9C01201B310B909173
:10567000DF03911509F4F7C22531310580F19F3F11
:1056800019F09F5F9093DF03D11459F00E94B40A80
:1056900091E01D140CF09FEF899F802D11248093C1
:1056A000E303F11459F00E94B40A91E01F140CF0C6
:1056B0009FEF899F802D11248093E4038091E30361
:1056C000811569F01091E403111549F00E94A60AB2
:1056D0008093E303812F0E94A60A8093E4038C2D1C
:1056E0008E29811509F441C000918403109185032E
:1056F0000E94BA0B9C01201B310B9091DE03911587
:1057000009F4ACC22135310580F19F3F19F09F5F4C
:105710009093DE03C11459F00E94D40A91E01C1446
:105720000CF09FEF899F802D11248093E503E114F5
:1057300059F00E94D40A91E01E140CF09FEF899F4B
:10574000802D11248093E6038091E503811569F093
:105750001091E603111549F00E94A60A8093E50313
:10576000812F0E94A60A8093E6038091E203B8127B
:1057700019C08091E303811511F08D1113C02091A0
:10578000E403211511F02F110DC09091E60391153E
:1057900011F09E1107C03091E503311103C0822B37
:1057A000892B81110E94070C86E0FE013196A1EE43
:1057B000B3E001900D928A95E1F70E94FE0A182F3E
:1057C00080918803181739F0109388030E94F40C15
:1057D000812F0E947A0880919303843009F0B8CD1C
:1057E00083E08093E9008091E80082FFB1CD809151
:1057F000E80090E085FF06C00E94BB0D811509F40A
:1058000085C091E08091E8008B778093E800911546
:1058100009F49ECD8981EFEFE80FE33108F09FC0D6
:10582000F0E0E95CFD4C0C94153080E090E0A7CEF0
:105830008F3009F0C8CEE695F0E0E050F94FE491E2
:105840000E2F10E0EAE0EE2EE9E0FE2EC2CE04EFCD
:1058500011E04FE3E42E4AE0F42E843209F4B9CE8D
:10586000A8F408E210E039EBE32E39E0F32E88319A
:1058700009F4AFCE833209F0A6CEEBEFF6E0059146
:1058800014916AE8E62E68E0F62EA3CE853209F080
:105890009ACE8E2F63E00E94D32FE92FF0E0E850DC
:1058A000F94FE4910E2F10E05CE7E52E57E1F52E5D
:1058B00090CEF0E0E75FF84FE4910E2F10E0BBECE4
:1058C000EB2EB8E0FB2E85CEF0E0EA5FF84FE491D6
:1058D0000E2F10E0ABEBEA2EA8E0FA2E7ACEE6957A
:1058E000F0E0ED5FF84FE4910E2F10E0FFEDEF2EAA
:1058F000F8E0FF2E6ECEF0E0E350F94FE4910E2F6A
:1059000010E07AE6E72E79E0F72E63CE00E210E0B1
:105910009E012F5F3F4F79018091E80085FD0AC00D
:105920008091E8008B778093E8000E94BB0D811581
:1059300099F367CF8091F100D7018D937D010150DC
:10594000104051F75ECF1A828CE08B831AC08A8197
:10595000833049F138F4813061F08230D9F08FEF33
:1059600089830FC08430D9F71B821C821D821E825E
:1059700008C00E94F40C0E941B306B837C838D83D3
:105980009E8340E250E0BE016F5F7F4F82E00E9445
:10599000530FDECC87E290E00E941D311B821C82F7
:1059A0001D828E83EECF8B8190E0FE013196329680
:1059B0008530910534F7DC01AA0FBB1FA757BC4FF8
:1059C0002C9111963C91318322830196F0CF8A81EC
:1059D000823081F0853019F680911D0480FF15C05A
:1059E00080911D048E7F80931D0410921C040E94E0
:1059F000AF07C7CF6B817C818D819E810E941B3058
:105A000087E290E00E944131BCCF0E941B27B9CFB2
:105A10004C816B818A810E946A1098278927982778
:105A20009E838D83AECF2D813E813227232732275F
:105A30004C816B818A810E94D00FA3CF0E94F60F08
:105A4000A0CF9A81923009F08ACF8830B1F18930A5
:105A500009F45FC08B81833061F180F48130B9F04B
:105A6000823009F08ECF8C81811509F4B9CF0E9464
:105A70001B2760E08C810E944D1983CF843009F090
:105A800080CF20E0409120046D818C810FC08C81FB
:105A9000B8EC8B9FC00111246FEF70E00E94ED2FD6
:105AA000462F20E060911F0480911E040E946B1815
:105AB00068CF8C818093210464CF8B81833031F156
:105AC00068F48130A9F0823009F05BCF80911D0429
:105AD00080FF1AC0869586958C8353CF843009F059
