:100000000C9452030C948A030C948A030C948A0374
:100010000C948A030C948A030C948A030C948A032C
:100020000C948A030C948A030C94B6240C947224C6
:100030000C94B3250C948A030C948A030C948A03C1
:100040000C948A030C948A030C948A030C948A03FC
:100050000C948A030C948F250C948A030C948A03C5
:100060000C948A030C948A030C948A030C948A03DC
:100070000C948A030C948A030C948A030C948A03CC
:100080000C948A030C948A030C948A030C948A03BC
:100090000C948A030C948A030C948A030C948A03AC
:1000A0000C948A030C948A030C948A0305010902B8
:1000B000A10185020901A1000509190129081500FE
:1000C0002501950875018102050109300931158165
:1000D000257F95027508810609381581257F9501D0
:1000E00075088106050C0A38021581257F95017572
:1000F000088106C0C005010980A101850319012AF4
:10010000B700150126B700950175108100C0050CD8
:100110000901A101850419012AA002150126A002E6
:10012000950175108100C005010906A1018506052C
:100130000719E029E71500250195087501810205D9
:1001400007190029EF1500250195F07501810205B9
:10015000081901290595057501910295017503910D
:1001600001C00660FF0961A1010962150026FF00B8
:100170009520750881020963150026FF00952075FA
:10018000089102C005010906A101050719E029E748
:1001900015002501950875018102950175088101F9
:1001A0000507190029FF150026FF0095067508812F
:1001B000000508190129051500250195057501910E
:1001C00002950175039101C00000000000000000CD
:1001D000000000000000000000000000000000001F
:1001E0000000000000000000000000007E0F00D4AE
:1001F000FFFFFFC7000000780000000000000000C3
:100200002A2B280000000000000000000000000071
:1002100000000029000000002C1E3420212224347C
:100220002627252E362D3738271E1F20212223244E
:1002300025263333362E37381F0405060708090AEA
:100240000B0C0D0E0F101112131415161718191A86
:100250001B1C1D2F3130232D350405060708090A04
:100260000B0C0D0E0F101112131415161718191A66
:100270001B1C1D2F3130354C000101010101010112
:10028000010102020202020202020203030303034B
:10029000030303040404040404040505050505061A
:1002A00006060606070707070708080808090909D8
:1002B000090A0A0A0B0B0B0C0C0C0D0D0D0E0E0E81
:1002C0000F0F0F1010111111121213131414151512
:1002D00016161717181819191A1A1B1B1C1D1D1E84
:1002E0001E1F2020212222232424252626272829D8
:1002F000292A2B2C2D2D2E2F303132323334353606
:100300003738393A3B3C3D3E3F4041424344454605
:100310004748494A4C4D4E4F5051535455565859E1
:100320005A5B5D5E5F616264656668696B6C6D6F88
:100330007072737577787A7B7D7E808283858788FB
:100340008A8C8E8F91939596989A9C9EA0A2A3A535
:10035000A7A9ABADAFB1B3B5B7BABCBEC0C2C4C636
:10036000C9CBCDCFD1D4D6D8DBDDDFE2E4E7E9EBF2
:10037000EEF0F3F5F8FAFDFF167C1E001F002000DA
:1003800021002200230024002500260027002D0044
:100390002E002A004C00A8002B0014001A000800B0
:1003A000150017001C0018000C00120013002F008D
:1003B00030003100035704570057040016000700AF
:1003C00009000A000B000D000E000F00330034007E
:1003D0002800000000000000E10000001D001B00DC
:1003E0000600190005001100100036003700380023
:1003F000E500015752000000E000E300E2000000C9
:10040000000000002C00000000000000E600025781
:10041000E400500051004F0035003A003B003C0022
:100420003D003E003F0040004100420043004400C8
:1004300045004C004900460001004A0052004D00B2
:100440004B0001000100010001000100010001005A
:1004500001000100010001000100500051004F00A7
:100460004E00010001000100010001000100010037
:100470002801000000000000010000000100010050
:10048000B20001000100110A29030100010001006E
:100490000100010001000000010001000100000056
:1004A000000000004C0000000000000001000100FE
:1004B000652101000100010035000100010001007B
:1004C0000100010001005F006000610001005600B2
:1004D00057004C020100A60001004A0052004D00E6
:1004E0004B00010001005C005D005E000100550052
:1004F00054000100010001000100500051004F00B4
:100500004E000100010059005A005B00010001008B
:1005100028010000000000000100000001000100AF
:10052000B20001000100010062006200630053009C
:10053000010001000100000001000B70010000003B
:1005400000000000010000000000000001000100A8
:10055000010001000100010020782B78010001005A
:100560001370AA00A900AE00A8000100010001005C
:100570000100010001000100010001000100010073
:100580000100010001000100010001000100010063
:10059000010001000100007C0100010001000100D8
:1005A0000100010001000100010001000100010043
:1005B0000100000000000000010000000100010037
:1005C0000100010001000100100301000100010011
:1005D0000100010001000000010001000100000015
:1005E00000000000010000000000000001000052B7
:1005F000010001000100010009025B00030100A0ED
:10060000FA090400000103010100092111010001A0
:1006100022440007058103080001090401000203C8
:1006200000000009211101000122220007058203B8
:100630002000010705030320000109040200010353
:1006400000000009211101000122B6000705840302
:1006500020000112010002000000086B701100016F
:1006600000010200011C0369006B006B0069003689
:1006700000380020004100750072006F00720061B8
:100680000000001A037700750071007500650020F6
:1006900000730074007500640069006F00000004BE
:1006A0000309040011241FBECFEFDAE0DEBFCDBF87
:1006B00004B603FE18C08091990390919A03A0910B
:1006C0009B03B0919C038730904BA740B04B59F4EB
:1006D0001092990310929A0310929B0310929C031C
:1006E000E0E0F8E3099511E0A0E0B1E0EAE7F9E520
:1006F00002C005900D92AA3FB107D9F723E0AAEFF7
:10070000B1E001C01D92A939B207E1F70E94DA25D4
:100710000C94542C0C940000482F2091900390913D
:10072000570357E0291302C080E0089530E0529F3C
:10073000F001539FF00D1124E85AFC4F818168139A
:1007400006C08081481303C085818111EECF2F5FE1
:100750003F4F2770E7CFE8EDF0E080818E7F808308
:100760001092E2001092DA001092E100A0EEB0E0E8
:100770008C9181608C9380818F77808319BCA7EDE9
:10078000B0E08C918E7F8C9380818F7E80831092DD
:10079000280308952091E4003091E50095E6A90131
:1007A0002091EC00822F817020FF06C08091E8002C
:1007B00080FF06C080E008952091E80022FD1AC065
:1007C00080914D03882389F0853089F08091EB007A
:1007D00085FD0FC02091E4003091E50042175307DA
:1007E000F9F29150E1F684E0089582E0089583E003
:1007F000089581E0089580914F0387FF13C0809191
:10080000E80082FF06C08091E8008B778093E800C3
:1008100004C080914D038111F2CF089580914D0362
:100820008823D9F38091E80080FFF8CF8091E80019
:100830008E77ECCF982F9093E900242F762F50E0FD
:10084000891731F07091EC002091ED005091F0008B
:1008500021FD07C09F5F973071F78093E90081E029
:1008600008953091EB003E7F3093EB003091ED0026
:100870003D7F3093ED003091EB0031603093EB0021
:100880007093EC002093ED005093F0002091EE0067
:1008900027FDE0CF80E00895B0E0A0E0E2E5F4E0DD
:1008A0000C94832BC8EDD0E088818F7E8883E7EDA0
:1008B000F0E080818160808384E082BF81E080936A
:1008C000280388818E7F888302EE10E0F801108271
:1008D0001092DA0081EEC82ED12CF60110828881A8
:1008E0008F77888388818068888388818F7D8883DB
:1008F00019BC10924D0310924E0310924C031092AB
:100900004B0390EEE92EF12CF70180818B7F8083E1
:1009100088818160888342E060E080E00E941A0460
:10092000F60180818E7F8083F801808181608083E1
:10093000808188608083F70180818E7F80838881B9
:1009400080618883CDB7DEB7E8E00C949F2BFC0173
:10095000809155039091560386179707A0F0611573
:10096000710529F49091E8009E779093E80090E05B
:100970006115710551F4911108C08091E80082FF62
:1009800034C080E00895BC01F2CF80914D038823EC
:10099000C1F18530C1F18091E80083FD30C08091C4
:1009A000E80082FDEACF8091E80080FFE1CF8091EE
:1009B000F3002091F200382F6115710519F02830ED
:1009C000310558F091E02830310509F090E0209190
:1009D000E8002E772093E800CBCF81918093F1003F
:1009E000615071092F5F3F4FE7CF80914D038823FE
:1009F00041F0853041F08091E80083FFBECF81E077
:100A0000089582E0089583E0089580912A0308956F
:100A10009C014FB7F8948091240390912503A091F5
:100A20002603B09127034FBF821B930B08952FB766
:100A3000F89460912403709125038091260390918E
:100A400027032FBF08952FB7F89480912403909126
:100A50002503A0912603B09127032FBF0895A3E09B
:100A6000B0E0E5E3F5E00C94892B2091210330916F
:100A7000220328173907A1F09093220380932103C2
:100A8000E0911F03F0912003309751F024E0298377
:100A90009B838A830680F781E02DCE01019609951C
:100AA0002396E2E00C94A52BA3E0B0E0EAE5F5E0A4
:100AB0000C94892B20911D0330911E0328173907B0
:100AC000A1F090931E0380931D03E0911F03F0910A
:100AD0002003309751F023E029839B838A8306808B
:100AE000F781E02DCE01019609952396E2E00C9462
:100AF000A52BE0911F03F0912003309729F001907E
:100B0000F081E02D0995089580E008954115510583
:100B100011F0FA0109950895CF93DF93EC0140910C
:100B20000E0350910F0360911003709111032FB7C2
:100B3000F8948091240390912503A0912603B0910D
:100B400027032FBF841B950BA60BB70B843F914047
:100B5000A105B10518F580910E0390910F03A091A6
:100B60001003B091110380930A0390930B03A09399
:100B70000C03B0930D0384EF91E0A0E0B0E080930C
:100B8000060390930703A0930803B0930903D0933F
:100B90001603C0931503DF91CF9108950E941705A6
:100BA00060930A0370930B0380930C0390930D03DF
:100BB00082E390E0A0E0B0E0E2CFFC0184818623F4
:100BC00051F492819923B9F06923808583FF05C090
:100BD00081E061110FC080E00895892F8F70929598
:100BE0009F70982B862F8F7062956F70682B81E0B5
:100BF0009613F1CF089581E0FDCFFA01811101C074
:100C0000FB01099508958091FE02982F9E7F71F453
:100C10008091FE02817082608093FE0280910103C8
:100C2000893C18F088EC809301030895843080F7A4
:100C3000F5CF0E9423059C019091BE028091BF02D6
:100C4000982B21F03093BB022093BA029091C002FE
:100C50008091C102982B21F03093B9022093B80201
:100C6000E0911F03F0912003309749F082E08093D8
:100C7000BC020480F581E02D8CEB92E0099508958B
:100C80008091B70280FD16C081FD16C082FD16C09E
:100C90008091B6028823A1F0883280F428E0829FF8
:100CA000C001112468E270E00E94582B862F672B48
:100CB00039F0089582E0089584E0089588E0089569
:100CC00081E008958091B70280FD14C081FD14C0B9
:100CD00082FD16C08091B502882381F08E3180F4A8
:100CE00020E5829FC00111246EE170E00E94582B24
:100CF000862F089584E1089588E2089588E0089594
:100D000080E50895282F35EB2303C001112497FFB8
:100D100004C080589109892F089580589F4FFBCFB8
:100D200080E00895F894E82FE295EF70F0E031A1AB
:100D3000282F2F7081E090E001C0880F2A95EAF7F4
:100D4000982F9095932391A392A1892B82A37894B5
:100D500008959091970392FF10C041E0282F2471CD
:100D6000243009F040E031E0282F2871283009F0C4
:100D700030E0431711F02CE0822793FF10C041E0D0
:100D8000282F2471243109F040E031E0282F287108
:100D9000283109F030E0431711F02CE08227309120
:100DA000980330FF10C051E0282F2171213009F045
:100DB00050E041E0282F2871283009F040E0541716
:100DC00011F029E0822731FF10C041E0282F217166
:100DD000213109F040E031E0282F2871283109F055
:100DE00030E0431711F029E0822794FD877E0895B3
:100DF00082389105B9F1B0F48133910509F47DC0D1
:100E000048F48932910509F46DC08A32910509F4DC
:100E10007BC008958533910509F45FC0893391053E
:100E200009F10895833E9105D9F138F4803E91058A
:100E300029F1823E910579F10895863E9105D9F117
:100E4000873E910509F43EC0843E910541F520910D
:100E5000980321FF24C08091970384FD19C087EE79
:100E600090E0089520919703237009F05AC02091D3
:100E7000980323FF14C089E290E00895209197031E
:100E800020FD38C03091980330FF09C024FF43C0D3
:100E900090E080E008952091970322FDF7CF089518
:100EA0002091970322FD3AC03091980330FD39C05C
:100EB00024FFF5CFEDCF2091970323FFF0CF24FD42
:100EC000E7CFCDCF2091970323FD2EC0309198031B
:100ED00031FFEECF84EE90E008952091970325FF37
:100EE000DECFC9CF2091970325FD21C02091980323
:100EF00023FFD5CF89E390E0D2CF2091970326FF3F
:100F0000CECF8AE290E008952091970326FFC7CFC5
:100F100081E390E0089583EE90E0089582EE90E002
:100F2000089580EE90E0089586EE90E0089585E3C0
:100F300090E008951F93CF93DF930E94F806EC0191
:100F4000C11580E5D807F0F5C11580E4D80708F091
:100F50009CC0C03ED10520F5CD3CD10508F082C033
:100F6000C83AD10578F4C53AD10508F073C0C1304C
:100F7000D10519F1209709F1C430D105F0F4D0E082
:100F8000C0E01BC0C33CD105D0F7C85AD0E0CC0F9D
:100F9000DD1FC056DE4F0990D881C02DD4640DC02E
:100FA000C11580E2D80708F0D1C0C11581E0D8078B
:100FB00008F05AC0C83ED10510F7CE01DF91CF919D
:100FC0001F910895C03682E5D80718F5C03482E530
:100FD000D80708F06BC0C03282E5D80708F05FC0C0
:100FE000C11582E5D80708F497C02C2F26952695C1
:100FF00080E2289F900111248C2F8370C1E0D0E003
:1010000002C0CC0FDD1F8A95E2F7C22BD32BDD681F
:10101000D4CFC03A82E5D80760F4C03882E5D8075B
:1010200008F459C0CF71D0E0DC2FCC27C46FD06A50
:10103000C4CFC03C82E5D80708F462C0C03E82E558
:10104000D80708F09CCFDC2FCC27CC27DF71C06FEE
:10105000D06AB3CFC55AD0E0C356DE4FC881D0E0C6
:10106000D064ABCFD065A9CF8D2F0E94A906182FD1
:10107000CE0199270E94F806C12FD0E0DC2FCC27A3
:10108000CC27DF71C82BD92B98CFCE0199270E948E
:10109000F806CC27DF70C82BD92BD06A8ECFCF7142
:1010A000D0E0DC2FCC27C16FD06A87CF2C2F2695BC
:1010B0002695277080E2289F900111248C2F837041
:1010C000C1E0D0E002C0CC0FDD1F8A95E2F7C22B51
:1010D000D32BDC6872CF2C2F26952695277080E2C3
:1010E000289F900111248C2F8370C1E0D0E002C0B2
:1010F000CC0FDD1F8A95E2F7C22BD32BDA685DCFC8
:101100008C2F8F710E94A906C82FD0E0DC2FCC272E
:10111000CC27DF71D06251CF8C2F8F710E94A9062E
:1011200055E0D695C7955A95E1F7CF70D0E0DC2F02
:10113000CC27282F30E084FF05C044E0220F331F66
:101140004A95E1F7C22BD32BD06937CF8D2F8F7102
:101150000E94A906182FCE0199270E94F806C12FD8
:10116000D0E0DC2FCC27CC27DF71C82BD92BD2CFF6
:1011700080918802882331F01092880210928702B1
:101180001092860208958095909119039823909368
:1011900019030895809590911A03982390931A0348
:1011A000089590916F019923D1F09091970397FF43
:1011B00016C0E82FE695E695E695EE31E0F4F0E00E
:1011C000E450FE4F282F277081E090E001C0880F87
:1011D0002A95EAF780959281892382830895EEEF1C
:1011E000F1E09191891303C0DF0111971C9292E005
:1011F000E430F907B1F7089590916F019923C1F098
:101200009091970397FF14C0E82FE695E695E69531
:10121000EE31F8F4F0E0E450FE4F877021E030E06A
:1012200001C0220F8A95EAF78281822B828308957A
:10123000AEEFB1E0EFEF90E02D91821751F0EF3F6C
:1012400019F4211101C0E92F9F5F9630A9F7EF3FF4
:1012500009F408950E2E000CFF0BE450FE4FE6CF6C
:101260008091900390915703981301C008958F5F68
:101270008770FACF953080F5803170F540E1949F0A
:1012800090011124820F932F911D682F677023E026
:10129000969587952A95E1F7FC01EE0FFF1FE80F61
:1012A000F91FEF5BFD4F50E040E080E0219130E01E
:1012B000062E02C0369527950A94E2F7217033274F
:1012C000042E01C0220F0A94EAF7822B4F5F5F4F72
:1012D0004330510559F7089580E00895953098F509
:1012E000803188F540E1949F90011124820F932F63
:1012F000911D282F277041E001C0440F2A95EAF77D
:1013000023E0969587952A95E1F7FC01EE0FFF1FE4
:10131000E80FF91FEF5BFD4F90E080E070E0519126
:10132000DF0111979B01082E02C0369527950A947C
:10133000E2F7217021952527242325272C93019658
:101340008330910561F7089580938902089566239B
:1013500009F45DC08D3C41F40E9462068195809342
:10136000BF020E94190608958E3C19F40E9462067D
:10137000F6CF8F3C31F40E94620681958093BE02C5
:10138000F0CF803D19F40E946206F8CF893D29F420
:101390000E9440068093C002E4CF8A3D21F40E945F
:1013A00040068195F7CF8B3D31F40E944006819530
:1013B0008093C102D6CF8C3D19F40E944006F8CF2D
:1013C0009FE2980F983070F4815D990B21E030E036
:1013D00001C0220F8A95EAF78091BD02822B80938B
:1013E000BD02BFCF8D3D31F48091B7028160809303
:1013F000B702B7CF8E3D21F48091B7028260F7CF5C
:101400008F3D09F0AECF8091B7028460F0CF40915C
:10141000BE028D3C59F48091BF0287FF0DC010922F
:10142000BF0241110BC01092B50208C08E3C81F47E
:101430008091BF0218169CF3442381F08091C00272
:101440009091C102892B09F08CCF1092B60289CFFE
:101450008F3C49F447FFF0CF1092BE028091BF024B
:101460008111ECCFE0CF803D19F41416ACF3E4CF3A
:101470009091C002893D29F41916F4F61092C00229
:10148000DBCF8A3D19F497FFD7CFF8CF9091C102F7
:101490008B3D29F497FFD0CF1092C102CDCF8C3D68
:1014A00019F41916CCF3C8CF9FE2980F983090F436
:1014B000815D990B21E030E0B90102C0660F771F12
:1014C0008A95E2F7CB0180959091BD0289238093A4
:1014D000BD02B2CF8D3D31F48091B7028E7F8093F3
:1014E000B702AACF8E3D21F48091B7028D7FF7CF4E
:1014F0008F3D09F0A1CF8091B7028B7FF0CF982F5D
:1015000092959F7011F0892F94E0282F26952695AB
:1015100011F09E5F822F869509F09F5F892F0895B5
:101520009C013A9521153F4150F5FC01EE27F170E1
:10153000BC0166277270AC01442754709C012227BD
:10154000387094FF0EC080E1EF2B09F480E0672B28
:1015500009F08062452B09F08064232B89F08068B4
:10156000089581E0EF2B09F480E0672B09F0826099
:10157000452B09F08460232B19F08860089580E0E2
:101580000895FC019281913029F4858180FF06C085
:1015900083E00895923021F081E0089582E008957B
:1015A00084E008950F931F93CF93DF938B01EA019B
:1015B00090914D03943061F58093E9008FEF909105
:1015C000E800815095FD06C095ED9A95F1F7000071
:1015D0008111F5CF8091E80085FF1AC00E94CA03EF
:1015E000811111C08091E80085FD06C08091E8005E
:1015F0008E778093E800F2CFF80181918F0180937C
:10160000F100219779F78091E8008E778093E800C8
:10161000DF91CF911F910F91089543E050E0BC01FD
:1016200084E00E94D20A089546E050E0BC0184E0C4
:101630000E94D20A0895CF93DF93EC0180916F014D
:10164000811111C048E050E0BE0181E00E94D20A41
:1016500080E2FE01ABE2B3E001900D928A95E1F7E2
:10166000DF91CF9108958091970387FF05C040E2F5
:1016700084E050E0BE01EACF48E081E0FACF81E0AB
:101680008093E00080E28093D8001092C9008FE13F
:101690009EE40197F1F700C0000087E090EBDC01C9
:1016A0008093990390939A03A0939B03B0939C0318
:1016B00088E19CE00FB6F894A895809360000FBE77
:1016C00090936000FFCF8091FE0280FD0AC0E2ECA3
:1016D000F2E0118210821282339652E0EE3FF5075B
:1016E000C1F76A9A3EB13B7F2EB124604FB7F894A0
:1016F00082EC92E0FC015191CF0168E02EB900002C
:1017000000C057FF3EB9550F000000C000C000C028
:101710003EB900C06A9591F7F2E08E3F9F0751F7FE
:101720004FBF8FE594E00197F1F700C000000895E6
:101730009091FE0290FF0CC0E2ECF2E081836083A6
:101740004283339692E0EE3FF907C1F70E94630BA4
:101750000895CF93C82F4AE468E281FD02C040E0BB
:1017600060E080E00E94980BC1FD04C08F9A81E088
:10177000CF9108958F98FBCFCF93C82F0E947F0AF7
:10178000823061F0833071F0813081F441E16CECA2
:101790008AEA0E94980B8C2FCF91089540E069E966
:1017A0008FEFF7CF47E760E08EEEF3CF40E060E0E9
:1017B00080E0EFCF0E94BC0B809399020895909136
:1017C000990221E030E0F90101C0EE0F8A95EAF7B5
:1017D000D90102C0AA0FBB1F6A95E2F7EA2B01C02C
:1017E000220F4A95EAF7892F8E23E81305C0292B8B
:1017F000822F0E94DA0B089520952923F9CF21E04A
:1018000030E001C0220F8A95EAF720958091990275
:1018100082230E94DA0B0895909196038095892384
:1018200080939603282F277089F4891779F0909177
:10183000980392FF0BC08695869586950E94FF0BB4
:10184000109296031092950310929403089580913C
:101850001501833011F40E94FF0B0895809113014C
:10186000833019F482E00E94FF0B089580911101EA
:10187000833019F481E00E94FF0B1092110108954A
:1018800021E030E001C0220F8A95EAF780919902A9
:10189000822B0E94DA0B08959091980392FF10C05A
:1018A00098E0899F900111242360209396030E9461
:1018B000400C0E9423059093950380939403089510
:1018C0000E94400C08950E94C10A80931501833044
:1018D000A9F0843049F08230A1F483E00E944C0CDE
:1018E00081E00E940C0C089580919902882331F0C8
:1018F00083FF04C083E00E94FF0B089583E00E94F1
:10190000400C08950E94C10A809313018330A1F016
:10191000843041F0823099F40E944C0C81E00E94A6
:101920000C0C089580919902882331F082FF04C045
:1019300082E00E94FF0B089582E00E94400C08950F
:10194000CF93DF93C9EAD2E060E0CE010E94132C6E
:101950002196C11584E0D807B9F7DF91CF9108959A
:101960001F93CF93DF93122F8430E0F46530D0F4CF
:101970004031C0F490E2699FE001112450E0440F2F
:10198000551FC40FD51F90EA899FC00DD11D11248A
:10199000632FCE0189960E94132C612FCE018A9667
:1019A0000E94132CDF91CF911F910895AF92BF92A7
:1019B000CF92DF92EF92FF921F93CF93DF9388E74E
:1019C000C82E83E0D82ED0E07601C0E014C0F50127
:1019D00025913491412F6C2F8D2F0E94B00C82E005
:1019E000A80EB11C1F5F103191F780E2E80EF11CC8
:1019F000CF5FC53019F0570110E0E9CFDF5F80EA13
:101A0000C80ED11CD43001F7DF91CF911F91FF9008
:101A1000EF90DF90CF90BF90AF900895CF93C82FF5
:101A20006FEF811163E285E290E00E94132C6FEF6B
:101A3000C11169E086E290E00E94132C6FEFC111A2
:101A400063E187E290E00E94132CCF91089580E03B
:101A50000E940E0D60E088E290E00E94132C0E942C
:101A6000D60C0E94A00C81E00E940E0D08950F93E9
:101A70001F93CF93DF93843030F5653020F54031EC
:101A800010F520E2629F8001112450E0440F551FA1
:101A9000040F151F30EA839F000D111D1124C8018A
:101AA00089960E94EF2BC82FD0E0DC2FCC27C801ED
:101AB0008A960E94EF2B9E01282BC901DF91CF91BE
:101AC0001F910F91089590E080E0F8CF462F753078
:101AD00040F4603130F4843020F4672F0E94370DD9
:101AE000089590E080E00895CF92DF92FF920F93E7
:101AF0001F93CF93DF936C0100919902809189022B
:101B0000082BC3E0D0E010E0FC2EC8010C2E02C070
:101B1000959587950A94E2F780FD0CC02197A0F770
:101B2000F12C8F2DDF91CF911F910F91FF90DF90BE
:101B3000CF900895B6018C2F0E94660D0E949A07DF
:101B4000019761F3EECFCF93DF93EC010E94740D08
:101B5000BE010E94660D0E949A07DF91CF91089501
:101B6000FC0124812223C1F0808191810E94A30D78
:101B700092959F70963091F058F4925F9F709230DA
:101B800058F4803F19F030F4883E30F481E0089535
:101B90009A5FF4CF843FD1F380E00895883EB0F39C
:101BA000813FD1F7F3CFA6E0B0E0E9EDFDE00C9482
:101BB000882B26E0FC01DE01119601900D922A95FA
:101BC000E1F7FC01258189819A81222399F066231E
:101BD00089F00E94740D182F682F89819A810E94C4
:101BE0006E0969817A81812F0E94660D2696E3E055
:101BF0000C94A42B0E943A09182FF3CF85E290E0B1
:101C00000E94EF2B833289F486E290E00E94EF2B52
:101C1000893059F487E290E00E94EF2B91E0833104
:101C200009F090E0892F8170089580E0FCCFB0E04A
:101C3000A0E0EDE1FEE00C947F2B49015A016B011D
:101C40007C010E9403068401A4016A2D7B2D88E09B
:101C500090E00E94252C94014A2D5B2DB601C7010E
:101C600000E20E94CB2B622F84E290E00E94132CB2
:101C7000CDB7DEB7ECE00C949B2BB0E0A0E0E3E442
:101C8000FEE00C947F2B182FC62FD42F022F8091AB
:101C9000FE0280FF28C08E7F823079F4E42F493C19
:101CA00008F0E8ECF0E0E858FD4FC11121C0649164
:101CB000462FE62F8E2F0E94980B1093FF02C093A1
:101CC0000003D0930103002371F02091FE02609184
:101CD000020370910303312FAE01809104039091B0
:101CE00005030E94170ECDB7DEB7ECE00C949B2BDA
:101CF000CC2ED12CE491FE2FAE2EB12C26E0129FDB
:101D0000C00111242FEF30E0B9010E94442BCB0118
:101D1000412F50E0440F551FA5E5A89FB001A99F92
:101D2000700D1124461B570B942E990C940EA9018B
:101D30004C195D094A9DD0014B9DB00D5A9DB00DC7
:101D400011244B2FC99DB0011124672F77277901EA
:101D5000E61AF70AB7016A9D70016B9DF00C7A9D37
:101D6000F00C1124B901691971094B018C9CB00167
:101D70008D9C700D9C9C700D1124672F7727261B5E
:101D8000370B2A9D60012B9DD00C3A9DD00C11245D
:101D90006D2D8230910589F040F4009709F48ACFC7
:101DA000019779F06B2F4F2D85CF8430910561F02D
:101DB00078F0069709F47ECFF5CF6E2FEB2F4D2DDF
:101DC00079CF6E2FEF2D76CF6B2F4E2FED2D72CF5B
:101DD000EB2F4F2F6F2D6ECFEEEFF2E0438128E017
:101DE000421B08F440E021E0628181810E943D0EA7
:101DF0000895EEEFF2E0438128E0420F08F44FEF40
:101E000021E0628181810E943D0E0895EEEFF2E0B3
:101E1000628128E0621B08F460E021E04381818157
:101E20000E943D0E0895EEEFF2E0628128E0620F1D
:101E300008F46FEF21E0438181810E943D0E0895F7
:101E4000EEEFF2E0818121E04381628188500E94BF
:101E50003D0E0895EEEFF2E0818121E04381628141
:101E6000885F0E943D0E089580910203882319F037
:101E70008150809302032091FE023091FF02409135
:101E8000000350910103609102037091030380915C
:101E90000403909105030E94170E08958091020398
:101EA000833018F48F5F809302032091FE023091FB
:101EB000FF02409100035091010360910203709171
:101EC000030380910403909105030E94170E089567
:101ED0002091FE0220FF1FC0217022602093FE028D
:101EE000662381F03091FF0240910003509101037D
:101EF00060910203709103038091040390910503A4
:101F00000E94170E20E04091010360910003809130
:101F1000FF020E943D0E0895EEEFF2E080818160A5
:101F2000808360E086950E94680F08958091FE028C
:101F30008695815009F481E061E00E94680F089560
:101F400061E081E00E94680F0895EEEFF2E083E027
:101F500080831182128213821482758123E030E023
:101F600040E050E060E0868197810E94170E08955E
:101F70009091980392FB222720F9281779F080FB93
:101F800092F990939803609197037091980384E07D
:101F900090E00E94312C82E00E940C0C089590E0A9
:101FA00080E00E94FD2B863E9E4F19F40E94FE0D9C
:101FB000089580E00895CF9380911A0390911903BA
:101FC000892B8093FC0180918802882339F10E943B
:101FD00023052091860230918702821B930B8C3D52
:101FE000954010F00E94B8088091FC019091880201
:101FF000892B8093FC0180916F01882309F447C0ED
:102000008091970387FF43C08EE1EEEFF1E090E00F
:10201000815008F03EC091110E94B808C09112038F
:10202000C0958091FC01C82380911303C82BC093F5
:10203000FC0140E250E066E672E08CEF91E00E9425
:10204000472C892B11F180E2ECEFF1E0A6E6B2E03B
:1020500001900D928A95E1F7E0911F03F091200322
:10206000309799F080916F01882349F08091970310
:1020700087FF05C0C093FD0186E08093FC010280CC
:10208000F381E02D8CEF91E00995CF91089586E0E2
:10209000BCCF2191222309F4BBCF9F5FB9CFCF934F
:1020A000DF93EC014A855B856E857F850E948605FE
:1020B0008B810E94C3088C810E94CA080E94DB0F9A
:1020C00086E0FE0111928A95E9F7DF91CF9108959C
:1020D000CF93DF93EC018D8181FD17C082608D83EA
:1020E000809119039B81892B8093190380911A0396
:1020F0009C81892B80931A030E94DB0F48855985A8
:102100006E857F85CE010E94860510921C03109279
:102110001B038D8180FD03C0CE010E944F10DF9113
:10212000CF91089510921A0380916F01EEEFF1E0C4
:10213000882329F18091970387FF21C08EE1DF0179
:102140001D928A95E9F790E080E00E94540590E0A6
:1021500080E00E942F05109219030E94DB0F86E099
:10216000ECEBF2E0DF011D928A95E9F71092B502DF
:102170001092B6021092B7020E941906089586E0E6
:10218000DECFAAE2B0E0E7ECF0E10C94882B8FE41C
:1021900093E02091F100DC012D93CD01B3E0873570
:1021A0009B07B9F780915003833009F472C0B8F4EB
:1021B000813009F449C0823009F4B3C08091E8004D
:1021C00083FF8BC280914F03909150039A3008F0A7
:1021D00084C2E92FF0E0EA5AF34D0C946C2B8A305C
:1021E00009F48EC08B3009F471C0893039F78091C1
:1021F0004F03813219F78091530390915403009754
:1022000011F00297D9F68091E800877F8093E8006B
:102210008091E80082FF38C09091F3008091F20035
:10222000029731F48091F100813011F0863021F471
:102230008091F10080932A038091E8008B7780934E
:10224000E8000E94FB03BACF80914F03813A09F066
:10225000B5CF8091E800877F8093E8008091530399
:1022600090915403892B61F460E28BE293E070E07B
:102270000E94A7048091E8008B778093E8009ECFAE
:1022800060E090E080E0F3CF80914D038111C0CFFA
:1022900095CF80914F03813A09F090CF80915303FD
:1022A00090915403892B09F089CF8091E800877FB2
:1022B0008093E8008091E80080FFFCCF80916F015F
:1022C0008093F1008091E8008E77B9CF80914F0321
:1022D000813209F073CF8091530390915403892B7D
:1022E00009F06CCF8091E800877F8093E8000E941E
:1022F000FB038091510380936F010E9492105ECF87
:1023000080914F03813209F059CF8091E800877F97
:102310008093E8000E94FB0380915203809329037D
:102320004DCF80914F03813A09F048CF8091E8006A
:10233000877F8093E8008091E80080FFFCCF809148
:102340002903BECF803899F0823809F0C6C1809148
:1023500053038F70873008F0C0C18093E9008091EB
:10236000EB0085FB882780F91092E90006C0809178
:102370004B0390914C03911182609091E800977FFC
:102380009093E8008093F1001092F1008091E800B2
:102390008E779FC1882309F48DC1823009F09DC1D9
:1023A00080915103811190C1809153038F702FEF61
:1023B000280F263008F091C18093E9002091EB00AE
:1023C00020FF82C1933031F48091EB0080628093D2
:1023D000EB007AC19091EB0090619093EB0021E0CB
:1023E00030E001C0220F8A95EAF72093EA001092AC
:1023F000EA008091EB008860EACF81116EC11091F4
:1024000051031F778091E3008078812B8093E30054
:102410008091E800877F8093E8000E94FB03809111
:10242000E80080FFFCCF8091E30080688093E300A8
:1024300082E0111183E080934D034FC180588230B8
:1024400008F04BC120915103309152032C3DE3E041
:102450003E07A1F583E08A838AE289834FB7F89427
:10246000DE01139620E03EE051E2E32FF0E05093CE
:102470005700E49120FF03C0E295EF703F5FEF70DB
:102480008E2F90E0EA30C0F0C7968D939D932F5F1A
:10249000243159F74FBF8091E800877F8093E8008F
:1024A0006AE270E0CE0101960E94A7048091E800E4
:1024B0008B778093E80011C1C096E7CF80915303DA
:1024C00090915403432F55274330510509F44AC0D6
:1024D00078F54130510509F47AC08BE590E0E8EFDA
:1024E000F5E04230510509F0F8C02091E800277F5F
:1024F0002093E800209155033091560382179307EB
:1025000008F49C0140E02115310509F065C0411136
:1025100063C08091E80082FDC9CF80914D0388237C
:1025200029F2853019F28091E80083FFF2CFBECF07
:102530004132510509F43CC04232510509F0CDC089
:102540008330910508F0C9C0FC01EE0FFF1FE25176
:10255000FE4F0190F081E02D85519E4FDC018C9162
:1025600090E01AC0332721303105D1F02115310513
:1025700061F02230310509F0B0C0E5E6F6E0E49103
:102580008E2F90E0E5E6F6E007C0EFE9F6E0E49193
:102590008E2F90E0EFE9F6E0009709F49EC0A5CFFA
:1025A000E3E8F6E0E4918E2F90E0E3E8F6E0F4CF84
:1025B0008330910508F091C0880F991FFC01EC5001
:1025C000FE4F0190F081E02D89E090E08ECF82E116
:1025D00090E0E3E5F6E089CF80914D03882309F48C
:1025E00065CF853009F462CF8091E80083FD5ECF2E
:1025F0008091E80082FD8DCF8091E80080FF83CF3D
:102600009091F3008091F2002115310519F0883086
:10261000910550F041E0089709F040E08091E80012
:102620008E778093E8006FCF44914093F10031960C
:10263000215031090196E8CF803809F04EC08091D1
:10264000E800877F8093E80080914E038093F1003B
:102650009DCE811142C0109151031230F0F580914E
:10266000E800877F8093E80010934E030E94FB03ED
:10267000112311F084E005C08091E30087FDFACFBB
:1026800081E080934D0342E061EC81E00E941A04F6
:1026900042E261EC84E00E941A0442E261EC82E0D2
:1026A0000E941A0442E260EC83E00E941A048091C6
:1026B0004D0313C080915103813079F481E0933050
:1026C00009F080E080934C031092E9008091E800CB
:1026D000877F8093E8000E94FB038091E80083FFDE
:1026E0000AC08091E800877F8093E8008091EB002A
:1026F00080628093EB00AA96E3E00C94A42B0E94E6
:1027000092102FEF84E39CE0215080409040E1F74D
:1027100000C0000088E19CE00FB6F894A895809373
:1027200060000FBE90936000FFCF882321F00E94CD
:10273000C3080E94DB0F0895882339F09091190394
:10274000982B909319030E94DB0F0895882321F0A2
:102750000E94CA080E94DB0F0895882339F09091E7
:102760001A03982B90931A030E94DB0F0895882375
:1027700009F456C0823879F40E94790581FF50C06F
:1027800089E30E94FC080E94DB0F89E30E94D108C4
:102790000E94DB0F0895833859F40E94790580FF69
:1027A0003FC083E50E94FC080E94DB0F83E5EECF6B
:1027B000843859F40E94790582FF32C087E40E9470
:1027C000FC080E94DB0F87E4E1CF9CEF980F913A61
:1027D000E8F290E2980F983050F4877091E001C0D1
:1027E000990F8A95EAF7892F0E94CA08D1CF9BE5F5
:1027F000980F933028F490E080E00E9454050895EB
:1028000098E5980F9B3128F490E080E00E942F0516
:10281000089593E3980F933118F460E00E94A7099C
:102820000895FF920F931F93CF93DF93F82E00919B
:102830001703109118030115110509F449C01092EE
:102840001603109215031092120310921303D8016D
:102850001696CD91DC919E013A9521153F4108F4E1
:10286000D07ED1E0C11101C0D0E0D8011996ED9120
:10287000FC911A97309731F01B966D917C9180E016
:102880000995D823DD2339F08CEF8C0F813A30F590
:102890008C2F0E94D108FF2099F0E0911703F0914E
:1028A0001803808584FD0CC080911403882341F0B7
:1028B000808191819C01215031092F333E47A0F046
:1028C0000E94DB0F1092180310921703109214034A
:1028D000C801CDB7DEB7E5E00C94A22B0E94DB0F58
:1028E0008C2F0E94B713D7CF0E948C05E9CFCF93CE
:1028F000DF93EC010E94B713CE010E94900A9E0163
:10290000205E31092830310510F0CD2B29F40E94CA
:10291000A613DF91CF9108950E949513FACFFC0181
:102920008281813031F4FB01808191810E94771492
:1029300008958230E9F7FB0182819381F7CFCF932D
:10294000C82F8823C9F08238C9F40E94790581FD17
:1029500013C089E30E94FC080E94DB0F2FEF87EE73
:1029600093E0215080409040E1F700C0000089E3EF
:102970000E94D1080E94DB0FCF9108958338A1F403
:102980000E94790580FDF8CF83E50E94FC080E9433
:10299000DB0F2FEF81EE94E0215080409040E1F773
:1029A00000C0000083E5E4CF8438A1F40E947905DB
:1029B00082FDE2CF87E40E94FC080E94DB0F2FEF2C
:1029C00081EE94E0215080409040E1F700C000008B
:1029D00087E4CECF8CEF8C0F813A88F580916F0120
:1029E000882301F18091970387FF1CC0EC2FE695A7
:1029F000E695E695F0E0E450FE4F828190E04C2FA2
:102A0000477021E030E002C0220F331F4A95E2F701
:102A100082239323892B79F08C2F0E94D1080E9466
:102A2000DB0F09C0EEEFF1E08191C817A9F322E0B6
:102A3000E430F207C9F78C2F0E94FC089BCF80E29C
:102A40008C0F883068F4C77021E030E001C0220F9D
:102A5000CA95EAF780911A03822B80931A038ACFD2
:102A6000EBE5EC0FE33040F4F0E0E356FE4F8081FD
:102A700090E00E94540580CFE8E5EC0FEB3150F474
:102A8000F0E0EE0FFF1FE056FE4F808191810E9423
:102A90002F0572CF83E38C0F833108F06DCF61E097
:102AA0008C2F0E94A70968CF1F93CF93DF93182F15
:102AB000D0E0C0E0893311F4C0E5D0E0812F0E945E
:102AC0009F14209739F4812F0E94B713DF91CF9183
:102AD0001F9108958FE99FE00197F1F700C0000072
:102AE0002197EFCF0F931F93CF93DF93C62FD42F50
:102AF000022FFC0185818823A9F0609393030E9433
:102B000023059093920380939103C77081E001C0E5
:102B1000880FCA95EAF70E94AD13DF91CF911F91FC
:102B20000F91089580919303681332C080919103AF
:102B3000909192030E940805883C910548F510E2A7
:102B40001D0FCD17B9F080E28C0F883040F4C770AC
:102B500081E001C0880FCA95EAF70E94A6131830D9
:102B600048F481E09D2F977001C0880F9A95EAF78D
:102B70000E94AD13802F0E945415183070F6D77044
:102B800081E001C0880FDA95EAF70E94A613C5CF4D
:102B9000C77081E001C0880FCA95EAF7F6CF0E949E
:102BA000C10A80931101833091F0843031F082307A
:102BB00089F489E30E94541508958091990288232D
:102BC00031F081FF04C081E00E94FF0B089581E095
:102BD0000E94400C0895CF93DF93EC010E94900A6D
:102BE0009E01205E31092830310510F0209741F414
:102BF0000E94AD138C2F0E949F14DF91CF910895F6
:102C00000E949C13F7CFFB01808191810E94EB15FC
:102C10000895CF93DF93EC018A81823041F4FB0168
:102C2000828193810E94EB158D8182608D83DF917B
:102C3000CF910895ADE0B0E0E0E2F6E10C94792B9D
:102C40003C01DC0114968C91882309F45DC061E09D
:102C5000C3010E94D30D2C01F3018581882319F152
:102C600080911B0390911C030097E9F048165906C8
:102C7000D1F09927E4E0880F991FEA95E1F7FC016C
:102C8000EC5DFE4F208124602083815E9E4FDC013D
:102C90004D925C920E9468101092190361E0C3018A
:102CA0000E94D30D2C01C201815A9245F2014F9727
:102CB00020F4B0EAEB27B2E5FB27D30115969C90F0
:102CC000992009F4DEC2EF3FF10511F108F1E93571
:102CD000FC4721F010923C02F20160C080913C025E
:102CE00091E0892780933C0280919603877061F080
:102CF000D30115968C91882339F08091980382FF37
:102D000003C082E00E940C0C2D96E2E10C94952BFE
:102D100080913C02882309F448C110923C02E03CB7
:102D2000F10508F09BC0E038F10508F008C1E03477
:102D3000F10508F0CEC021E030E040E050E060E076
:102D400070E080E090E00E2F0E94B02BA0911C025A
:102D50002A2BA0911D023A2BA0911E024A2BA09172
:102D60001F025A2BA09120026A2BA09121027A2BDC
:102D7000A09122028A2BA09123029A2B20931C025D
:102D800030931D0240931E0250931F026093200255
:102D9000709321028093220290932302CF019757D0
:102DA0008038910510F00C94AE200E2FE03108F021
:102DB0009BCF8FEF93E00E94EF2B811195CF79EAA3
:102DC000C72E72E0D72E011167C3FE01339686E04D
:102DD000DF011D928A95E9F76AE0562E86010F5FA2
:102DE0001F4FC6010E94EF2B89831A82882309F4A2
:102DF0007BCF813009F087C37601B2E0EB0EF11C86
:102E0000C8010E94EF2B8A83882309F46DCF9FEFBE
:102E1000980F933008F04FC3E3E0CE0ED11CC701EA
:102E20000E94EF2B8B83882309F45ECF1C828E01D6
:102E30000F5F1F4FD8012C91222381F2213009F01E
:102E40009CC311969C91119712968C91913009F028
:102E50005CC30E5F1F4F0E9454155DC3EF3FF10529
:102E600011F008F068CF21E030E040E050E060E091
:102E700070E080E090E08F01005C11090E94B02BAF
:102E8000A09134022A2BA09135023A2BA091360250
:102E90004A2BA09137025A2BA09138026A2BA0919D
:102EA00039027A2BA0913A028A2BA0913B029A2BED
:102EB0002093340230933502409336025093370208
:102EC000609338027093390280933A0290933B02E8
:102ED00065CF21E030E040E050E060E070E080E06D
:102EE00090E08F01005411090E94B02BA0912402A0
:102EF0002A2BA09125023A2BA09126024A2BA091C1
:102F000027025A2BA09128026A2BA09129027A2B22
:102F1000A0912A028A2BA0912B029A2B20932402A3
:102F20003093250240932602509327026093280293
:102F30007093290280932A0290932B022FCF21E0D5
:102F400030E040E050E060E070E080E090E08F0131
:102F5000005811090E94B02BA0912C022A2BA0919D
:102F60002D023A2BA0912E024A2BA0912F025A2B10
:102F7000A09130026A2BA09131027A2BA0913202EB
:102F80008A2BA09133029A2B20932C0230932D028E
:102F900040932E0250932F026093300270933102BF
:102FA0008093320290933302F9CEE034F10508F0B9
:102FB0006DC0A0911C02B0911D0220911E022987B4
:102FC00080901F02309120023B87809121028D87E3
:102FD000309022022090230221E030E040E050E0D7
:102FE00060E070E080E090E00E2F0E94B02BA22EF7
:102FF000AA22B32EBB22C984C422D52ED820EB84AA
:10300000E622FD84F722082F0321192F12210E94A6
:10301000E62B09F061CEE03CF10508F09AC0E038FB
:10302000F10508F0FDC0E034F10508F0C8C021E06A
:1030300030E040E050E060E070E080E090E00E2F93
:103040000E94B02B209530954095509560957095D5
:10305000809590952A233B23A9854A235821BB8537
:103060006B23ED857E238321922120931C023093D4
:103070001D0240931E0250931F0260932002709322
:10308000210280932202909323022ECEE038F10594
:10309000F8F4A0912402B09125029091260299871C
:1030A00080902702209128022B87309129023D87AA
:1030B00030902A0220902B0221E030E040E050E0E6
:1030C00060E070E080E090E08F01005411098DCF46
:1030D000E03CF105F8F4A0912C02B0912D02809112
:1030E0002E02898780902F02909130029B87209139
:1030F00031022D87309032022090330221E030E0FF
:1031000040E050E060E070E080E090E08F01005827
:1031100011096BCFA0913402B09135023091360283
:10312000398780903702809138028B8790913902DD
:103130009D8730903A0220903B0221E030E040E051
:1031400050E060E070E080E090E08F01005C1109E9
:103150004CCFEF3FF10511F008F069CF8F01005C13
:10316000110921E030E040E050E060E070E080E0F4
:1031700090E00E94B02B2095309540955095609539
:103180007095809590952A233B23B9854B23582130
:10319000EB856E23FD857F238321922120933402CA
:1031A00030933502409336025093370260933802D1
:1031B0007093390280933A0290933B0295CD8F0130
:1031C0000054110921E030E040E050E060E070E0A0
:1031D00080E090E00E94B02B20953095409550956E
:1031E00060957095809590952A233B23F9854F2310
:1031F0005821AB856A23BD857B23832192212093AF
:1032000024023093250240932602509327026093B4
:1032100028027093290280932A0290932B0264CD96
:103220008F010058110921E030E040E050E060E0FB
:1032300070E080E090E00E94B02B209530954095A2
:10324000509560957095809590952A233B23E9854C
:103250004E235821FB856F23AD857A23832192214C
:1032600020932C0230932D0240932E0250932F0274
:103270006093300270933102809332029093330254
:1032800033CDEF3FF10509F060F5E034F10508F0CA
:10329000C4C0A0901C02B0901D02C0901E02D0902D
:1032A0001F02E0902002F0902102A09122021091D2
:1032B000230221E030E040E050E060E070E080E098
:1032C00090E00E2F0E94B02BA222B322C422D5225E
:1032D000E622F722082F0A2319230E94E62B09F47D
:1032E00003CD80911601882309F412C66201F0EE25
:1032F000CF1AD1083090880280914002382A8091FC
:103300001A03382A28E0C216D10408F09CC19201A1
:103310002770332781E090E001C0880F2A95EAF7F3
:10332000992009F48DC1382AD3018D919C910E9476
:103330003A0921E030E0590102C0AA0CBB1C8A9571
:10334000E2F7E0911703F0911803FA87E9872091DB
:103350003D0230913E023C872B87212CE22DF0E08C
:10336000EE0FFF1FE050FF4F008111810115110585
:1033700009F428C6311005C0D80112968C9181112C
:103380009CC1F801838190E08A219B21892B09F45B
:1033900094C18085982F977009F487E0F8E0CF16E4
:1033A000D10408F06AC1992009F463C1869581703F
:1033B000882309F482C1D801ED90FC90E414F5044F
:1033C00019F4992009F479C1E985FA850E171F07C8
:1033D00009F473C1D8011D96ED91FC91309721F04D
:1033E0008081882309F469C1632DC8010E94DD052D
:1033F000882309F462C1E414F50409F056C6E11407
:10340000F10409F457C6911057C6EB85FC85EE16FA
:10341000FF0609F052C1912C4FC6E038F10598F42F
:10342000A0902402B0902502C0902602D0902702DE
:10343000E0902802F0902902A0912A0210912B021C
:10344000E054F10936CFE03CF10598F4A0902C024D
:10345000B0902D02C0902E02D0902F02E09030024A
:10346000F0903102A091320210913302E058F1093C
:1034700020CFA0903402B0903502C0903602D09098
:103480003702E0903802F0903902A0913A02109190
:103490003B02E05CF1090DCFC11424E0D20609F42F
:1034A00023CCC6010E94EF2B811101C001503FEFD8
:1034B000C31AD30A88CC6701843009F0B8CC02E083
:1034C00010E06701FFEFCF1ADF0AC7010E94EF2B60
:1034D000E1E0F0E0EC0FFD1FE00FF11F8083882397
:1034E00009F402CC8C3741F4E2E0F0E0EC0FFD1F70
:1034F000E00FF11F10829BCC0F5F1F4F760107304A
:103500001105F9F6F1CB680192CC923039F40E5FD7
:103510001F4F0E949F140F5F1F4F8CCC933029F4D4
:103520000E5F1F4F0E94B713F6CF943019F00F5F54
:103530001F4FF1CF0E5F1F4F30E020E0B8016F5FEB
:103540007F4FF80141818053990B8A30910550F0EB
:103550002150310900F38FE99FE00197F1F700C096
:103560000000F6CF529EF001539EF00D11249C01F5
:103570002E0F3F1F842F8B01E1CFE22FF0E0E850A8
:10358000FE4F4490822F86958695869590E0FC01AB
:10359000E851FE4FA4902770B12C022E02C0B594C2
:1035A000A7940A94E2F7A1E0AA22BB24FC01E85206
:1035B000FE4F8490912C022E02C0959487940A9419
:1035C000E2F7B1E08B229924FC01E853FE4FE4902E
:1035D000F12C02C0F594E7942A95E2F7E1E0EE229F
:1035E000FF24A114B10419F081EE0E949F148114EC
:1035F000910419F086EE0E949F14842D0E945415A8
:103600008114910419F086EE0E94B713A114B1043D
:1036100019F081EE0E94B713E114F10409F47BCF95
:103620008CE219CC80911601882331F0109216019A
:1036300080E00E94111458CB81E08093160154CB96
:103640008095382271CE992009F4A5C450923E028B
:1036500040923D020E94170560930E0370930F0382
:103660008093100390931103109216031092150388
:103670005BCE82FB882780F99BCE9920F1F0817088
:1036800097CE0E94B71337C50497813A910548F445
:103690008E2D0E94FC08992009F43AC40E94DB0F89
:1036A00023CB0E94DB0F8FE39CE90197F1F700C069
:1036B00000008E2D0E949F14EECF23944FCEFC016C
:1036C000208131812415350509F01BC491101BC4DC
:1036D0001092140380E00E9411141AC4942D852DB9
:1036E00055C4F8014485558566857785C8010E94D3
:1036F0008605D80115968C9181FF78C4C8010E9477
:103700004F1080911B0390911C038415950509F0BF
:103710006DC410921C0310921B0368C426E241EE94
:1037200061EEC3010E947215DFCA27E245EE65EE25
:10373000F8CF26E241EE60EEF4CF27E245EE64EEEC
:10374000F0CF26E241EE62EEECCF27E245EE66EEE8
:10375000E8CF28E241E0EBCF80919703816080932E
:10376000970395C0809198038860809398038FC0D9
:10377000809197038260F3CF809197038460EFCFAD
:10378000809197038860EBCF809198038160EDCFA3
:10379000809198038260E9CF809197038061DFCFA9
:1037A000809197038062DBCF809197038064D7CFAD
:1037B0000E949210809197038068D1CF80919703E7
:1037C0008C60CDCF809198038360CFCF8091970399
:1037D0008E7FC5CF80919803877FC7CF8091970355
:1037E0008D7FBDCF809197038B7FB9CF8091970359
:1037F000877FB5CF809198038E7FB7CF8091980354
:103800008D7FB3CF809197038F7EA9CF809197034F
:103810008F7DA5CF809197038F7BA1CF0E949210BF
:10382000809197038F779BCF80919703837F97CF6A
:10383000809198038C7F99CF8091970382FB992781
:1038400090F921E0922790FB82F990FB83F987CFD2
:1038500080919803982F909591708E7F892B90FB83
:1038600081F983CF90919703892F8F7B96FF806496
:1038700076CF0E94921090919703892F97FB87F93A
:1038800080586DCF61E08EE090E00E94132C609133
:1038900097037091980384E090E00E94312C0E947D
:1038A000921022CA60E0EFCF90919703892F8F7E0C
:1038B00094FF806154CF90919703892F8E7F90FF62
:1038C00081604DCF90919803892F877F93FF886007
:1038D0004CCFF6E14F16FCE75F0609F0B0C38091CC
:1038E0001A03282F21718A7A211180E0992371F01F
:1038F00091E0811101C090E090933F02811104C0DA
:1039000089E20E94FC08CACE85E3FBCF80913F028A
:10391000811104C089E20E94D108C0CE85E3FBCFAB
:103920008091FE0280FF17C0282F2E7F2093FE0279
:103930003091FF0240910003509101036091020316
:103940007091030380910403909105030E94170E68
:103950000E94630BC9C981608093FE0261E0869575
:103960000E94680FC1C946E95FE060EA7FE00E94FB
:10397000FD05BAC940EA5FE066E97FE0F8CF40E2C2
:103980005FE06AE27FE0F3CF4AE25FE060E27FE07F
:10399000EECF46E05FE063E17FE0E9CF43E15FE047
:1039A00066E07FE0E4CF4CEE5EE069EF7EE0DFCFE3
:1039B00049EF5EE06CEE7EE0DACF44E35FE06EE478
:1039C0007FE0D5CF4EE45FE064E37FE0D0CF61E0FD
:1039D00081E0C6CF27E742162CE7520609F460C003
:1039E00038E743163CE7530609F45EC0F3018581CE
:1039F00000811181882309F48BC0C8010E94740DD5
:103A0000F82E682FC8010E946E09B8018F2D0E9400
:103A1000660D0E949A078C01A82ED3011596CC90B2
:103A200015971696BC90B2943FE0B322809196030E
:103A30008770F1F0EC2CCC20E1F0812F807F803476
:103A400051F080E2800F883098F0B11004C0812FCF
:103A5000807E803269F08091980382FF09C082E005
:103A60000E940C0C809196038770EE24E3948111E0
:103A7000E12CD12ED2942FE0D222BBE0BD1508F468
:103A8000A8C0ED2DF0E0E05AF34D0C946C2B81E0D2
:103A90000E94400C43E062E081E00E94DF0B24C9F9
:103AA00081E00E94FF0BF6CF82E0FBCFEBE54E16E4
:103AB000ECE75E0659F1FCE54F16FCE75F06E1F026
:103AC0002AE542162CE7520609F090CF81E01BC090
:103AD0000E9492103FEF84E39CE031508040904080
:103AE000E1F700C000000E943F0B6FEF7FEF90E016
:103AF00080E00E94312CC3C28091980382FB88270A
:103B000080F991E089270E94B80F70CF80E0FBCF49
:103B1000C8010E943A09F82E78CFE12FEF70FE2EEF
:103B2000107F19F0F29490EFF922CC20B9F0FF2029
:103B300069F080E2800F883010F0A11009C08091F8
:103B40001A03F82AF0921A030E94DB0F802F3FC05D
:103B500080911903F82AF0921903F6CF802F0E9462
:103B6000B713FF20B1F1005E8F2D083010F0A110C7
:103B700003C00E94CA0802C00E94C3080E94DB0F53
:103B800028C0F12FFF70FF2E107F103219F0F29431
:103B900080EFF822AA2059F021E0A21609F485C08E
:103BA000CC2009F491C0BB2009F443C0CFCF809151
:103BB000980382FD3AC0CC2089F1FF2039F0809132
:103BC0001A03F82AF0921A030E94DB0F80E00E9489
:103BD0009F14AD2DA850BB0B149720F40E947905BB
:103BE0000E94A90BEE20A9F08091960380FD11C0E0
:103BF000F30115828695869586950E94400CC30137
:103C00000E941A16809196038695869586950E9445
:103C1000FF0B60E0C3010E94D30D76C880E00E94D4
:103C2000B713FF20B1F28F2DA4CFCC20C9F0B11073
:103C300004C08F2D0E94AD13CCCF31E0B312C9CF99
:103C4000109188028F2D8123F81619F20E94230506
:103C50009093870280938602F12AF0928802B9CF6E
:103C6000B110B7CF8F2D0E94A613909188028F2D8F
:103C7000892369F08F2D809589238093880288237A
:103C800089F00E9423059093870280938602809199
:103C900040029F2D982309F49CCFF094F822F092D3
:103CA000400297CF90E080E0EECFCC2029F082E078
:103CB0008B1508F48ECFBDCF91E09B1508F489CF0A
:103CC0008F2D0E94A61385CFBB20D1F3A9E3AA12A2
:103CD00009C0BFEFE7EEF3E0B150E040F040E1F79C
:103CE00000C00000802F0E94B71373CF812F8695EC
:103CF0008695837061F0813009F06BCFC8019370B5
:103D0000C11002C080E090E00E942F0562CFC80180
:103D10009370C11002C080E090E00E94540559CF1A
:103D20006C2D802F0E94A70954CF812F837089F5B5
:103D3000C1104FCF402F429546954770440F440F16
:103D4000802F8F70042E01C0880F0A94EAF7202F6D
:103D5000207104FF07C02FE030E001C0220F4A9518
:103D6000EAF72095169516951370123069F050F405
:103D700030918902113029F0822B83230E94A409FB
:103D800028CF832B822BFACF282B80918902822780
:103D9000F5CF8695CC2011F0812F8170882309F40E
:103DA00018CF402F429546954770440F440F802FFF
:103DB0008F70042E01C0880F0A94EAF7202F20711B
:103DC00004FF07C02FE030E001C0220F4A95EAF758
:103DD0002095169516951370123069F050F43091B5
:103DE0009902113029F0822B83230E94DA0BF1CE45
:103DF000832B822BFACF282B809199028227F5CF33
:103E00001F70CC2029F0812F0E94400C802F12CFF0
:103E1000802F0E94A613812F0E94FF0BDACE802FE5
:103E200022EFA216B1F12A1570F030EFA316D1F0EF
:103E300091EFA91691F0CC2009F453C0B11086CEB1
:103E4000812F8F712AC0A3EFAA1651F1B4EFAB12E4
:103E5000F2CF8091980382FD2FC0812F8F71CC20EB
:103E6000D9F21BC0CC2081F0E1E0EB1508F4B1CE13
:103E70001F7181E090E0012E01C0880F0A94EAF7DB
:103E8000909199028927B1CFF2E0FB1508F4A1CEF9
:103E9000EFCF812F8F71C110BFCF0E94400C99CE00
:103EA00080E0CC2009F4A1CF1F7181E0012E01C078
:103EB000880F0A94EAF799CFCC2041F01F71812F27
:103EC0000E94400C812F0E944C0C83CE81E00E9406
:103ED0000C0C21E02B1508F07CCE82E00E940C0C2B
:103EE00078CEBB2059F0893309F0FCCE3FEF87EE46
:103EF00093E0315080409040E1F7F2CE812F8F71F6
:103F00008BCF992029F0DC0118968C9185FFE2CBAC
:103F1000C2019755F2018F3F910511F008F086C05C
:103F2000FF2744E0EE0FFF1F4A95E1F78F01015E86
:103F30001E4FD30115968C91EC5DFE4F908180FB56
:103F400090F99083882309F4CCCB0E9423059093A9
:103F5000A9028093A802F80182818F5F82838091F9
:103F6000190390911A03892B83838091880284839B
:103F70004681578166857785C8010E948605D801EC
:103F800015968C9181FFAACB90E080E090931B0363
:103F900080931C032BC080913D0290913E028415BA
:103FA000950581F410923E0210923D0210920E038C
:103FB00010920F0310921003109211031092160327
:103FC000109215038091170390911803009709F43C
:103FD0009FCFA8E0CA16D10408F071CB632D0E94D0
:103FE000DD05811103C081E00E941114F301958168
:103FF000992309F446C0109293039201305723325B
:10400000310508F066CC84E090E00E94FD2B90938F
:10401000980380939703F201E150F047E232F105F3
:1040200008F09ACBE459F34D0C946C2BE851FC4703
:10403000E730F105D8F6E257F34D0C946C2BB7E757
:104040004B16BCE75B0609F422CD82E0E8E74E168A
:10405000ECE75E0609F41CCD83E048168CE75806B1
:1040600009F443CD08F022CD4114ACE75A0609F417
:104070002FCDB1E04B16BCE75B0609F0B7CC0E9430
:104080007F13F6E14F16FCE75F0609F428CC809118
:104090001A038272F201E052F847E531F10508F0A7
:1040A00099CCEB56F34D0C946C2BE114F10409F010
:1040B000ACC9912CF12CE12C80E00E9411141093DA
:1040C00018030093170381E080931403D801159619
:1040D0008C918093120391100EC0EF2861F0D801EB
:1040E0008D919C919C0124503109213A310508F0B1
:1040F000C8CA0E94D108F801E680F780C7019A95E6
:1041000081159F4110F420EEF222BB24B394C70125
:1041100001978F339E4708F0B12CD8011996ED9185
:10412000FC911A97309731F01B966D917C9181E04C
:104130000995B822BB2079F0F801868197810E9409
:10414000900A80931303C701F8E0CF16D10408F05A
:104150009BCA0E948C050E94DB0F9DCAEE352CE79E
:10416000F20709F469CAEF353CE7F30709F45ECAC0
:10417000ED358CE7F80709F455CA2F01B2C8CF9383
:10418000DF9380916502807F09F04DC080916402C9
:10419000882309F448C0E091900350915703C091DF
:1041A0006002D0915F02609161027091620247E00B
:1041B0005E17C9F18E2F90E0E49FF0011124E85AB8
:1041C000FC4F2481222391F1489FF001499FF00D7B
:1041D0001124DF01A85ABC4F11962C9111972C1372
:1041E00025C02C912D1322C015962C9115972111C5
:1041F0001DC012962D913C91261B370B283C310592
:10420000A8F4809165028F70806180936502E25A04
:10421000FC4F80818F70806180838FE592E00E94E7
:104220001A160E943009DF91CF910895FC01319652
:10423000E770BECFA4E1B0E0E0E2F1E20C947F2BA6
:104240008C0186E0F801DE011F9601900D928A959F
:10425000E1F7F8018481E5809FE5A92E92E0B92E6F
:1042600090916302911128C0882319F1EE20F1F09A
:10427000C8010E94B00DF82E8823C1F087E0F80134
:10428000D50101900D928A95E1F78091630281300A
:1042900031F480915F02909160020E94A30D0E9410
:1042A000BF208F2D6496ECE00C949B2BC8010E94DC
:1042B0001A16FF24F394F5CFD080C18082809380BA
:1042C000F09064022091610230916202A401421BCD
:1042D000530BFF2009F4D9C0483C510508F092C0A7
:1042E0008823F9F29091600280916502282F207F47
:1042F00009F056C0C91214C090915F02D91210C0C3
:10430000E11048C08F708061809365028FE592E074
:104310000E941A1680916502F8018683F12CC1CFA4
:10432000E11038C06C2D8D2D0E948C036C2D8D2DCD
:104330000E948C03E82E8111F1CFDF86C88A8F8519
:1043400098890E94A30D292F22952F70243058F4AC
:104350009F70223088F0992399F0F8019681907F20
:1043600079F4FE2C9ECF2A5F2F70223068F0C801AE
:104370000E941A16EF2CF5CF992311F0882389F3A8
:10438000805E883070F3F3CF803F58F3815F8330D5
:1043900070F7E7CF80916502816080936502BECFA0
:1043A000C91207C090915F02D91203C0EE2009F430
:1043B0008DC0C8010E94B00D882309F477CFEE208C
:1043C00009F474CF80916502803288F020915F02F9
:1043D00030916002398728879B868A869091630294
:1043E0009C871D868E87CE0108960E941A1687E04C
:1043F000F801AFE5B2E001900D928A95E1F70E94D5
:10440000BF2057CF90916502292F207F51F48FE56F
:1044100092E00E941A1687E0F50111928A95E9F759
:104420007DCF882309F43DCF809160028C1110C0AC
:1044300080915F02D8120CC0E1100AC09683C801B7
:104440000E941A1687E0F50111928A95E9F729CFA3
:10445000C8010E94B00D882309F428CFEE2009F48A
:1044600025CF80916502803210F220915F02309159
:1044700060023A8329839C828B82909163029D83A0
:104480001E828F83CE010196B0CF483C5105D0F6F5
:10449000882309F40ECFFE2CEE2009F407CF80917B
:1044A00060028C1120C080915F02D8121CC08091E4
:1044B000650280FD0FC0982F907F61F08683903F4A
:1044C00031F0982F907F905F8F70892B8683C80181
:1044D0000E941A1687E0F801AFE5B2E001900D9254
:1044E0008A95E1F7DECEC8010E94B00D81117FCF21
:1044F00080916502816080936502C8010E941A164E
:10450000D0CEABE1B0E0E7E8F2E20C94882B4E8B22
:104510005F8B688F798F8A8F9B8F9111109219030F
:104520001D8A86E0FE017696DE011F9601900D92AF
:104530008A95E1F78091980382FF1CC00E942305B1
:104540002091940330919503821B930B8C3D9540F1
:1045500020F08091960382FF7AC00E94230520916B
:10456000860230918702821B930B8C3D954010F0A0
:104570000E94B8088B89882329F061E0CE010F964C
:104580000E94D30D87E0FE013F96DE011896019050
:104590000D928A95E1F7CE0108960E941A218111A9
:1045A0000CC087E0FE013896DE01119601900D9255
:1045B0008A95E1F78C8581110BC017E080919003FB
:1045C00090915703891331C06B96E3E00C94A42BB0
:1045D0002091570330E0C9010196877099274091D7
:1045E00090034817190699F097E0929FD001939F86
:1045F000B00D1124A85ABC4FFE01319601900D92C6
:104600009A95E1F7809357030E943009D6CF0E9414
:104610009210109257031092900387E0EFE5F2E0BA
:10462000DF011D928A95E9F7C8CF819FC00111244F
:10463000885A9C4F0E941A21882331F2809190035E
:1046400090E001968770992780939003B7CF82E01E
:104650000E940C0C82CFA6E0B0E0E1E3F3E20C9400
:10466000872B0E9423058C0180918A0290918B02F6
:104670008017910781F019821A820E942305682F02
:1046800049815A81792F80E090E00E948122109325
:104690008B0200938A022696E4E00C94A32BAAE0F6
:1046A000B0E0E5E5F3E20C947F2B8E010F5F1F4F26
:1046B0008AE0F80111928A95E9F796EDE92E91E0EA
:1046C000F92E6801AA24A394B12CF70181917F01EE
:1046D0008F3F09F446C0F894E82FE295EF70F0E0C0
:1046E00021A18F70A50102C0440F551F8A95E2F7E2
:1046F000CA01922F982B91A392A18095892382A31E
:10470000789400C0EBEDF1E021E030E0912C812CB9
:1047100041914F3F09F467C0A42FA295AF70B0E05C
:1047200090968C9190E04F7002C0959587954A9530
:10473000E2F780FD58C0C901882A992A220F331F49
:1047400051E0EB3EF50721F7F701319780818F3F6C
:1047500011F00E94920680EA8A95F1F7F6019182A3
:104760008082F2E0CF0ED11C4BEDE41641E0F4065E
:1047700009F0ABCF4AE050E0B8018FE892E00E9428
:10478000472C892B99F18AE0F801AFE8B2E001905B
:104790000D928A95E1F781E080938E020E942305B5
:1047A00090938D0280938C0280918C0290918D0267
:1047B0000E9408050597F0F04AE050E06FE872E0CB
:1047C0008BEA92E00E94472C892BC9F08AE0EFE83F
:1047D000F2E0ABEAB2E001900D928A95E1F781E058
:1047E00010928E0208C090E080E0A6CF80918E02E9
:1047F0008111DACF80E02A96ECE00C949B2B80E0CC
:10480000EFCFA8E0B0E0E7E0F4E20C94892B66EE8D
:104810007EEF90E080E00E94312C60E082E090E04A
:104820000E94132C60E083E090E00E94132C109211
:10483000890260E074E184E090E00E94312C60E045
:1048400086E090E00E94132C6FEF87E090E00E94DA
:10485000132C40E050E0BA0188E090E00E94252C43
:1048600060E084E290E00E94132C60E087E190E039
:104870000E94132C60E08CE090E00E94132C60E01A
:104880008DE090E00E94132C19821A821B821C82F8
:104890001D821E821F82188648E050E068E170E0A9
:1048A000CE0101960E94032C40E050E0BA0180E264
:1048B00090E00E94252C80E00E940E0D0E94270DA2
:1048C00040E050E0BA018FE090E00E94252C40E0EB
:1048D00050E0BA0183E190E00E94252C2896E2E0A6
:1048E0000C94A52B1F920F920FB60F9211242F93A9
:1048F0003F934F935F936F937F938F939F93AF9368
:10490000BF93CF93DF93EF93FF93D091E900DF70D4
:104910008091EC00C82FC17080FDC0E81092E900C2
:104920008091F000877F8093F00078940E94C110FE
:104930001092E9008091F00088608093F000CD2B08
:10494000CF70C093E900FF91EF91DF91CF91BF91BC
:10495000AF919F918F917F916F915F914F913F9117
:104960002F910F900FBE0F901F9018951F920F92CE
:104970000FB60F9211242F933F934F935F936F9332
:104980007F938F939F93AF93BF93EF93FF93809108
:10499000E10082FF09C08091E20082FF05C08091A2
:1049A000E1008B7F8093E1008091DA0080FF24C0DA
:1049B0008091D80080FF20C08091DA008E7F8093A4
:1049C000DA008091D90080FF9DC080E189BD82E13D
:1049D00089BD09B400FEFDCF81E080934D03809135
:1049E0002803811109C00E94AB030E944C048091EE
:1049F000E20084608093E2008091E10080FF17C0B4
:104A00008091E20080FF13C08091E2008E7F80934E
:104A1000E2008091E20080618093E2008091D80002
:104A200080628093D80019BC85E080934D0380910B
:104A3000E10084FF2BC08091E20084FF27C080E169
:104A400089BD82E189BD89B5982F917080FFFBCF28
:104A50008091D8008F7D8093D8008091E1008F7E77
:104A60008093E1008091E2008F7E8093E20080914C
:104A7000E20081608093E20080914E03882309F474
:104A800047C084E080934D0380914D038091E10005
:104A900083FF27C08091E20083FF23C08091E10063
:104AA000877F8093E10082E080934D0310924E0354
:104AB0008091E1008E7F8093E1008091E2008E7F03
:104AC0008093E2008091E20080618093E20042E006
:104AD00060E080E00E941A048091F000886080937A
:104AE000F000FF91EF91BF91AF919F918F917F91D6
:104AF0006F915F914F913F912F910F900FBE0F904B
:104B00001F90189519BC10924D031092280374CF72
:104B10008091E30087FD93E090934D03B5CF7894A7
:104B20001F921FB61F9211248F939F93AF93BF9331
:104B30008091240390912503A0912603B09127032F
:104B40000196A11DB11D8093240390932503A0938A
:104B50002603B0932703BF91AF919F918F911F9030
:104B60001FBE1F9018951F921FB61F9211248F937E
:104B70009F93AF93BF9380912303811113C08091C2
:104B8000240390912503A0912603B0912703419619
:104B9000A11DB11D8093240390932503A0932603A8
:104BA000B0932703BF91AF919F918F911F901FBE2C
:104BB0001F901895CDB7DEB7A6970FB6F894DEBF55
:104BC0000FBECDBF85B7806885BF85B7806885BFBC
:104BD00084B7877F84BF0FB6F894A8958091600052
:104BE000886180936000109260000FBE80E890E0C2
:104BF0000FB6F89480936100909361000FBE80E936
:104C000096E09093FB018093FA010E94AB030E940F
:104C10004C048091E20084608093E200789480915B
:104C20004D038823A1F01091E9001F709091EC00D2
:104C3000892F817090FD80E8182B1092E9008091F7
:104C4000E80083FD0E94C1101F701093E90082E00C
:104C500084BD93E095BD9AEF97BD80936E000E944E
:104C6000FE0D811102C00E94270D06ED11E0D80152
:104C70008D918D018F3F11F00E949206B1E00B3DA6
:104C80001B07A9F70BED11E0BBEEEB2EB1E0FB2EFD
:104C9000F80181918F018F3F11F00E949206E0167A
:104CA000F106B1F78AE0EBEAF2E0DF01282F1D926E
:104CB0002A95E9F7EFE8F2E0DF011D928A95E9F71E
:104CC00040E060E080E00E94980B0E94CF0F8111CD
:104CD00002C00E94012482E090E00E94EF2B8093AA
:104CE0009D0284E090E00E94FD2B909398038093B6
:104CF00097030E944F23BFEFE6E7F1E0B150E04099
:104D0000F040E1F700C000000E944F238091AB0209
:104D100080FF08C06FEF7FEF90E080E00E94312CB1
:104D20000E943F0B83E090E00E94EF2B0E94A409B9
:104D3000809199020E94BC0B879A8F9A80919A0267
:104D4000811171C00E94CF0F811104C00E94012403
:104D50000E94A50F88E090E00E94F72B4B015C01B8
:104D600084E290E00E94EF2B282F30E040E050E0FA
:104D700060E070E080E090E000E20E94B02B282923
:104D800039294A295B292093FE023093FF02409380
:104D90000003509301036093020370930303809315
:104DA0000403909305032E7F89F50E94A50F88E0E8
:104DB00090E00E94F72B6B017C0184E290E00E945E
:104DC000EF2B282F30E040E050E060E070E080E022
:104DD00090E00E94B02BB22FA32FF42FE52F5B01A0
:104DE00097018601BC29A12BFE29E32BB093FE027B
:104DF000A093FF02F0930003E0930103609302038A
:104E0000B092030380930403909305030E9403066A
:104E10008091FE0280FF04C060E086950E94680FCA
:104E200081E080939A028091970380688093970332
:104E3000609197037091980384E090E00E94312C78
:104E400087E191E09093200380931F03A8E16A2EED
:104E5000712C552453944424439480914D0300E1D4
:104E600012E1853009F4A4C00E944F23EEE9AE2E72
:104E7000E2E0BE2EFBEA8F2EF2E09F2E48EA52E0DF
:104E8000D401F501219131918D919D914E175F07CC
:104E900009F4A3C028173907A9F3312CD4010D91C7
:104EA0001D914D01F501C190D1905F01C016D10651
:104EB00061F1C026D126212CEE24E394F12CC60109
:104EC0008E219F21892BB9F029A23AA20E942305A5
:104ED0009CA38BA3F1E0FDA391E098012E213F213B
:104EE000232B09F490E09EA349A15AA16BA17CA1B8
:104EF0008DA10E9481222394EE0CFF1C20E122123E
:104F0000DECFF501329711830083339485E03812A8
:104F1000C5CF0E94170567C080914D03843009F406
:104F200036C080E00E94A90B80919C0281110DC0C7
:104F300040929C028091FE02982F917090939B0268
:104F40008E7F8093FE020E94630B1092230320E465
:104F50000FB6F894A895609260000FBE2093600091
:104F600083B7817F846083BF83B7816083BF789478
:104F7000889583B78E7F83BF0FB6F894A8958091EC
:104F80006000886180936000109260000FBE809185
:104F90004C03882369F00E944F23EBEAF2E08191F1
:104FA0009191892B09F042C382E0E53BF807B9F7FC
:104FB00080914D03853009F4AFCF0E9492100E947A
:104FC00079050E94A90B10929C0280919B02882374
:104FD00009F44ACF0E948C0F47CF2817390709F0F0
:104FE0005CCF0E942B238091150390911603892B8F
:104FF00009F43EC040910A0350910B0360910C03E9
:1050000070910D032FB7F89480912403909125039C
:10501000A0912603B09127032FBF841B950BA60BED
:10502000B70B4091060350910703609108037091FC
:10503000090384179507A607B707D0F080911503D9
:10504000909116030E94EB1510921603109215030F
:1050500010920A0310920B0310920C0310920D038E
:10506000109206031092070310920803109209038E
:1050700000911B0310911C0301151105D1F08091C3
:10508000A8029091A9020E940805893C910588F028
:10509000C801992754E0880F991F5A95E1F7FC0140
:1050A000EC5DFE4F208122FD04C0815E9E4F0E9478
:1050B000681086E0ECEBF2E0DE01119601900D92B3
:1050C0008A95E1F7D090BD020091BE02F090BF0238
:1050D000E090C0021091C1021092BE021092BF0275
:1050E0001092C0021092C102802F8F2909F445C08E
:1050F0008091BA029091BB020E9408059C01909198
:10510000B502992309F4BBC225313105B0F19F3FA7
:1051100019F09F5F9093B502002359F00E94620638
:105120009FEF10160CF491E0899F802D112480933D
:10513000BE02FF2059F00E94620691E01F140CF09D
:105140009FEF899F802D11248093BF028091BE0222
:10515000882399F0C090BF02CC2079F00E9482068B
:10516000882309F4B5C08093BE028C2D0E9482066C
:10517000882309F4B0C08093BF02812F8E2909F4DF
:1051800045C08091B8029091B9020E9408059C0127
:105190009091B602992309F46DC221353105B0F121
:1051A0009F3F19F09F5F9093B602EE2059F00E9446
:1051B00040069FEF1E140CF491E0899F802D11246E
:1051C0008093C002112359F00E94400691E011160D
:1051D0000CF09FEF899F802D11248093C102809154
:1051E000C002882399F0E090C102EE2079F00E947D
:1051F0008206882309F472C08093C0028E2D0E941B
:105200008206882309F46DC08093C1028091BD029B
:105210008D1117C08091BE02882311F0081311C0B0
:105220002091BF02222311F0F2120BC09091C10213
:10523000992311F0191305C03091C002332309F4EA
:105240000BC20E94190686E0FE013196ACEBB2E07B
:1052500001900D928A95E1F70E947905182F8091AF
:10526000AA02181739F01093AA020E941705812F7D
:105270000E94A90B80914D03843009F0EECD83E0AC
:105280008093E9008091E80082FFE7CD8091E800FB
:1052900090E085FF0BC00E94CA0340E2E42EF12C8F
:1052A0008E010F5F1F4F882341F191E08091E8004C
:1052B0008B778093E800992309F4CFCD8981EFEFB4
:1052C000E80FE33198F5F0E0E655F34D0C946C2BC4
:1052D0005092BE024ACF5092BF024FCF5092C002AE
:1052E0008DCF5092C10292CF8091F100D8018D9361
:1052F0008D01B1E0EB1AF108C1F28091E80085FD63
:10530000F3CF8091E8008B778093E8000E94CA0376
:10531000882399F3CACF1A828CE08B831BC08A81C1
:10532000823009F49EC128F4813061F08FEF8983C7
:1053300011C08330C1F08430C9F71B821C821D82EA
:105340001E8208C00E9417050E94722B6B837C830B
:105350008D839E8340E250E0BE016F5F7F4F82E00D
:105360000E94D20A7ACD2B81822F90E0FE013196E5
:10537000225F8530910570F7DC01AA0FBB1FA55590
:10538000BD4F3C9111964C914383348301963296E4
:105390002813EFCFDFCF8A81823071F0853031F66C
:1053A0008091FE0280FF13C08091FE028E7F809369
:1053B000FE020E94630BCECF6B817C818D819E812A
:1053C0000E94722B88E290E00E94132CC3CF0E94AF
:1053D0008C0FC0CF4C816B818A810E94370D98273A
:1053E000892798279E838D83B5CF2D813E813227D3
:1053F000232732274C816B818A810E94B00CAACF6F
:105400000E94D60CA7CF9A81923009F08FCF8830B6
:10541000B1F1893009F45EC08B81823009F1A8F4C2
:10542000813009F097CF8C81E8EC8E9FC001112468
:105430006FEF70E00E94442B462F20E06091000344
:105440008091FF020E943D0E85CF8330A1F0843011
:1054500009F080CF20E0409101036D818C81F2CF73
:105460008C81882309F4A0CF0E948C0F60E08C818E
:105470000E94680F6FCF8C81809302036BCF8B816A
:105480008230E1F078F4813009F064CF809101033B
:10549000FFEF8F9FC001112468EC70E00E94442B45
:1054A0006C8358CF833099F0843009F053CF8091CA
:1054B000FF028C83809100038D834CCF8091FE028C
:1054C00080FF03C086958C8345CF80E0FCCF809120
:1054D0000203F9CF2091FE023091FF0240910003B8
:1054E00050910103609102037091030380910403C2
:1054F000909105030E94170E2DCF80E18A832ACF59
:105500005A8287E50ACF0A811B81102701271027BD
:10551000CE0101967C01CC80DC01AC0DB11D6D018A
:10552000C80187559D4FEC14FD0409F413CF0735CE
:10553000B1E01B0750F40E94EF2BF70184830F5F4B
:105540001F4FBFEFEB1AFB0AEBCFD70114961C924B
:10555000F6CF0A811B81102701271027FE01319603
:105560006F01EC80E00EF12EF11CC80187559D4FB4
:105570000E151F0509F4EECE0735F1E01F0728F4DC
:10558000D60114966C910E94132CBFEFCB1ADB0A44
:105590000F5F1F4FEACF0E94A00CDCCE84E0AECF9D
:1055A0000A811B81102701271027FE0131967F01F8
:1055B000CC80CF018C0D911D6C01C8018996CE1451
:1055C000DF0409F4C7CE0038A2E01A0750F40E94A5
:1055D000EF2BF70184830F5F1F4FBFEFEB1AFB0A1E
:1055E000ECCFD70114961C92F6CF0A811B811027AD
:1055F00001271027FE0131966F01EC80E00EF12E9D
:10560000F11CC8018996E016F10609F4A3CE003812
:10561000F2E01F0728F4D60114966C910E94132C17
:10562000BFEFCB1ADB0A0F5F1F4FEBCF09BD19BDD0
:1056300009B400FEFDCF8091D8008F7D8093D80003
:105640008091E00082608093E0008091E00081FD25
:10565000FCCF0E949210ACCC822B892B09F4F3CDA5
:10566000F0CD88E290E00E94EF2B1B821C821D820D
:105670008E8370CE2B30310508F094CDC7CD2B3002
:10568000310508F046CD79CDAA1BBB1B51E107C0FF
:10569000AA1FBB1FA617B70710F0A61BB70B881FC2
:1056A000991F5A95A9F780959095BC01CD01089551
:1056B00097FB072E16F4009407D077FD09D00E94BF
:1056C000442B07FC05D03EF4909581959F4F08959B
:1056D000709561957F4F0895EE0FFF1F0590F4912F
:1056E000E02D099469279627692778278727782747
:1056F00008952F923F924F925F926F927F928F9276
:105700009F92AF92BF92CF92DF92EF92FF920F9350
:105710001F93CF93DF93CDB7DEB7CA1BDB0B0FB65A
:10572000F894DEBF0FBECDBF09942A883988488817
:105730005F846E847D848C849B84AA84B984C884AD
:10574000DF80EE80FD800C811B81AA81B981CE0FA4
:10575000D11D0FB6F894DEBF0FBECDBFED01089589
:10576000002E083090F0982F872F762F652F542F1A
:10577000432F322F22270850F4CF220F331F441F0C
:10578000551F661F771F881F991F0A95B2F7002DB6
:10579000089597FD1094002E083098F00850232F9C
:1057A000342F452F562F672F782F892F912DF4CF27
:1057B000159497958795779567955795479537955C
:1057C00027950A95AAF71124002D08952A153B055F
:1057D0004C055D056E057F05800791070895F999D1
:1057E000FECF92BD81BDF89A992780B50895A6E1B4
:1057F000B0E044E050E00C94392CA8E1B0E042E085
:1058000050E00C94392CDC01A40FB51F41505040DE
:1058100048F0CB01840F951F2E910E94142C41500B
:105820005040D0F70895262FF999FECF92BD81BD43
:10583000F89A019700B4021639F01FBA20BD0FB6CE
:10584000F894FA9AF99A0FBE08950396272F0E94AA
:10585000142C0E94132C252F0E94142C242F0C94FE
:10586000142C0196272F0E94142C0C94132CDC016D
:10587000CB01FC01F999FECF06C0F2BDE1BDF89A5B
:10588000319600B40D9241505040B8F70895FB0195
:10589000DC0104C08D910190801921F441505040E9
:1058A000C8F7881B990B0895F894FFCFA211CA116D
:1058B0006D13CA116D13FD111E126D131C132913E4
:1058C0008D1D8D1DC11DC11D761E901EE91DE91D7A
:1058D000951E001F0F1F0F1FE61B5B1CEE1BB81B46
:1058E000BC1BF21BC01BF61B021CCC1B541CD01B88
:1058F000061CD41B0A1C321CD81B0E1C391CDE1BB8
:10590000141C1C1CC41BFA1BC81BFE1BE21B181C0E
:10591000281C421C521CB21BEA1B621C991B9D1BBB
:105920008E1B951BA11BA51BA91B901CB31CBA1C8D
:10593000BF1CC41CC91CCE1CD31CD81CDD1CE21C03
:10594000E71C74167416741674167416741674168E
:10595000741674168B298F29CB29EA29F529002A78
:10596000032A032A032A962996297D2A802A832A34
:0A597000A92ACB2ACE2AD02AF52A54
:10597A008E017F01700100004E004D004B004A006D
:10598A000100010001000105051B0B140B0D0B00A2
:10599A0000000000000000CF15360C0000000000D7
:1059AA0000000000000000630C270C00000000004B
:1059BA0000000000000000820C2E0C000000000015
:1059CA000000000000091603168F1400000C0100E5
:1059DA000000000000091603168F140000080101D8
:1059EA002D0010FF00104502070000000000002EE5
:1059FA000010FF00104504070000000000002A0004
:105A0A0022FF00224C000700000000000081828370
:105A1A00E200E900EA00B500B600B700CD00830154
:105A2A00CC008A0192019401210223022402250258
:105A3A00260227022A02B300B4006F0070009F01F9
:105A4A00CB019F02A0023733323130959392919065
:105A5A00F0F1C63534979694F4F5F64422B68401EB
:0A5A6A006201AC000A0623064306A1
:00000001FF
