:100000000C94DD030C9415040C9415040C94150445
:100010000C9415040C9415040C9415040C941504FC
:100020000C9415040C9415040C945A280C9416285E
:100030000C9457290C9415040C9415040C94150475
:100040000C9415040C9415040C9415040C941504CC
:100050000C9415040C9433290C9415040C94150479
:100060000C9415040C9415040C9415040C941504AC
:100070000C9415040C9415040C9415040C9415049C
:100080000C9415040C9415040C9415040C9415048C
:100090000C9415040C9415040C9415040C9415047C
:1000A0000C9415040C9415040C9415040501090214
:1000B000A10185020901A1000509190129081500FE
:1000C0002501950875018102050109300931158165
:1000D000257F95027508810609381581257F9501D0
:1000E00075088106050C0A38021581257F95017572
:1000F000088106C0C005010980A101850319012AF4
:10010000B700150126B700950175108100C0050CD8
:100110000901A101850419012AA002150126A002E6
:10012000950175108100C005010906A1018506052C
:100130000719E029E71500250195087501810205D9
:1001400007190029EF1500250195F07501810205B9
:10015000081901290595057501910295017503910D
:1001600001C00660FF0961A1010962150026FF00B8
:100170009520750881020963150026FF00952075FA
:10018000089102C005010906A101050719E029E748
:1001900015002501950875018102950175088101F9
:1001A0000507190029FF150026FF0095067508812F
:1001B000000508190129059505750191029501753C
:1001C000039101C0000000000000000000000000DA
:1001D000000000000000000000000000000000001F
:1001E00000000000000000007E0F00D4FFFFFFC7EA
:1001F0000000007800000000000000002A2B28000A
:1002000000000000000000000000000000000029C5
:10021000000000002C1E3420212224342627252E05
:10022000362D3738271E1F2021222324252633333D
:10023000362E37381F0405060708090A0B0C0D0E69
:100240000F101112131415161718191A1B1C1D2F35
:100250003130232D350405060708090A0B0C0D0E55
:100260000F101112131415161718191A1B1C1D2F15
:100270003130354C1E0F0500047F3F1F643214647B
:100280003214783C1E1E140A05000101010101010F
:10029000010101020202020202020202030303033D
:1002A000030303030404040404040405050505050D
:1002B00006060606060707070707080808080909CB
:1002C00009090A0A0A0B0B0B0C0C0C0D0D0D0E0E76
:1002D0000E0F0F0F10101111111212131314141509
:1002E0001516161717181819191A1A1B1B1C1D1D7D
:1002F0001E1E1F20202122222324242526262728D3
:1003000029292A2B2C2D2D2E2F3031323233343502
:10031000363738393A3B3C3D3E3F40414243444505
:10032000464748494A4C4D4E4F50515354555658E4
:10033000595A5B5D5E5F616264656668696B6C6D8E
:100340006F7072737577787A7B7D7E808283858704
:10035000888A8C8E8F91939596989A9C9EA0A2A342
:10036000A5A7A9ABADAFB1B3B5B7BABCBEC0C2C447
:10037000C6C9CBCDCFD1D4D6D8DBDDDFE2E4E7E907
:10038000EBEEF0F3F5F8FAFDFFFFAA7F55402223CC
:10039000252628292A2C2D2F3032333536383A3B62
:1003A0003D3E4042434547494A4C4E5051535557B4
:1003B000595A5C5E6062646668696B6D6F717375D3
:1003C00077797B7D7F81838587898A8C8E909294D3
:1003D00096989A9C9E9FA1A3A5A7A8AAACAEAFB1E0
:1003E000B3B4B6B8B9BBBCBEBFC1C2C3C5C6C7C92A
:1003F000CACBCCCDCED0D1D2D2D3D4D5D6D7D7D8E4
:10040000D9D9DADADBDBDBDCDCDCDCDCDDDDDDDD35
:10041000DCDCDCDCDCDBDBDBDADAD9D9D8D7D7D63D
:10042000D5D4D3D2D2D1D0CECDCCCBCAC9C7C6C5F4
:10043000C3C2C1BFBEBCBBB9B8B6B4B3B1AFAEAC3A
:10044000AAA8A7A5A3A19F9E9C9A98969492908EE5
:100450008C8A89878583817F7D7B79777573716FBE
:100460006D6B6968666462605E5C5A59575553519A
:10047000504E4C4A4947454342403E3D3B3A383650
:10048000353332302F2D2C2A292826252322165C9D
:100490001E001F0020002100220023002400250050
:1004A000260027002D002E002A004A00A8002B005D
:1004B00014001A000800150017001C0018000C009A
:1004C000120013002F00300031004D004C00005787
:1004D00004001600070009000A000B000D000E00C2
:1004E0000F00330034002800000000000000E1008D
:1004F00000001D001B00060019000500110010007F
:10050000360037003800E500015752000000E000D7
:10051000E300E2000000000000002C0000000000EA
:100520000000E6000257E400500051004F00350083
:100530003A003B003C003D003E003F0040004100CF
:1005400042004300440045004C0001004900010006
:100550004A0052004D004B00010001000100010063
:10056000010001000100010001000100460001003E
:10057000500051004F004E00010001000100010039
:10058000010001000100280100000000000001003E
:10059000000001000100B20001000100110A29035E
:1005A0000100010001000100010001000000010044
:1005B000010001000000000000004C0000000000ED
:1005C000000001000100656101000100010035002B
:1005D0000100010001000100010001005F00600056
:1005E000610001005600570001000100A600010053
:1005F0004A0052004D004B00010001005C005D000C
:100600005E000100550054000100010001000100DE
:10061000500051004F004E000100010059005A00E7
:100620005B00010001002801000000000000010043
:10063000000001000100B2000100010001006200A1
:10064000620063005300010001000100000001008E
:10065000615D0100000000000000010000000000DA
:100660000000010001000100010001000100C25C66
:10067000CD5C01000100145CAA00A900AE00A80036
:10068000010001000100010001000100005C010007
:100690000100010001000100010001000100010052
:1006A0000100010001000100010001000100010042
:1006B0000100010001000100010001000100010032
:1006C0000100010001000100000000000000010025
:1006D0000000010001000100010001000100100301
:1006E0000100010001000100010001000000010003
:1006F00001000100000000000000010000000000F7
:100700000000010000500100010001000100090289
:100710005B00030100A0FA090400000103010100CD
:100720000921110100012240000705810308000191
:100730000904010002030000000921110100012247
:1007400022000705820320000107050303200001A2
:100750000904020001030000000921110100012227
:10076000B60007058403200001120100020000000A
:10077000086B7011000100010200011C0369006B8D
:10078000006B0069003600380020004100750072DF
:10079000006F007200610000001A0377007500719D
:1007A0000075006500200073007400750064006926
:1007B000006F000000040309040011241FBECFEFE6
:1007C000DAE0DEBFCDBF04B603FE18C08091E103BE
:1007D0009091E203A091E303B091E4038730904B42
:1007E000A740B04B59F41092E1031092E20310922B
:1007F000E3031092E403E0E0F8E3099523E0A4EEBC
:10080000B1E001C01D92A13EB207E1F711E0A0E006
:10081000B1E0E6E0F3E602C005900D92A43EB10718
:10082000D9F70E947E290C9458310C940000E8ED11
:10083000F0E080818E7F80831092E2001092DA00D7
:100840001092E100A0EEB0E08C9181608C938081E9
:100850008F77808319BCA7EDB0E08C918E7F8C934D
:1008600080818F7E80831092AB0308952091E400F5
:100870003091E50095E6A9012091EC00822F81706E
:1008800020FF06C08091E80080FF06C080E0089548
:100890002091E80022FD1AC08091D003882389F0BE
:1008A000853089F08091EB0085FD0FC02091E40038
:1008B0003091E50042175307F9F29150E1F684E0D8
:1008C000089582E0089583E0089581E0089580917D
:1008D000D20387FF13C08091E80082FF06C0809199
:1008E000E8008B778093E80004C08091D0038111E9
:1008F000F2CF08958091D0038823D9F38091E80046
:1009000080FFF8CF8091E8008E77ECCF982F9093FE
:10091000E900242F762F50E0891731F07091EC0018
:100920002091ED005091F00021FD07C09F5F9730AE
:1009300071F78093E90081E008953091EB003E7FEC
:100940003093EB003091ED003D7F3093ED0030911E
:10095000EB0031603093EB007093EC002093ED00DE
:100960005093F0002091EE0027FDE0CF80E0089545
:10097000B0E0A0E0EEEBF4E00C94E82FC8EDD0E09E
:1009800088818F7E8883E7EDF0E0808181608083BD
:1009900084E082BF81E08093AB0388818E7F88836F
:1009A00002EE10E0F80110821092DA0081EEC82EFB
:1009B000D12CF601108288818F77888388818068A6
:1009C000888388818F7D888319BC1092D003109210
:1009D000D1031092CF031092CE0390EEE92EF12CAA
:1009E000F70180818B7F808388818160888342E0EA
:1009F00060E080E00E948604F60180818E7F808323
:100A0000F801808181608083808188608083F70124
:100A100080818E7F8083888180618883CDB7DEB7B7
:100A2000E8E00C940430FC018091D8039091D90344
:100A300086179707A0F06115710529F49091E800D9
:100A40009E779093E80090E06115710551F4911143
:100A500008C08091E80082FF34C080E00895BC01A6
:100A6000F2CF8091D0038823C1F18530C1F180910C
:100A7000E80083FD30C08091E80082FDEACF8091DC
:100A8000E80080FFE1CF8091F3002091F200382F41
:100A90006115710519F02830310558F091E02830C2
:100AA000310509F090E02091E8002E772093E800CE
:100AB000CBCF81918093F100615071092F5F3F4F3F
:100AC000E7CF8091D003882341F0853041F08091B9
:100AD000E80083FFBECF81E0089582E0089583E0BF
:100AE00008958091AD0308959C014FB7F8948091CB
:100AF000A7039091A803A091A903B091AA034FBFA7
:100B0000821B930B08952FB7F8946091A7037091FF
:100B1000A8038091A9039091AA032FBF08952FB72E
:100B2000F8948091A7039091A803A091A903B09194
:100B3000AA032FBF0895A3E0B0E0E1EAF5E00C942A
:100B4000EE2F2091A4033091A50328173907A1F0B7
:100B50009093A5038093A403E091A203F091A303D3
:100B6000309751F024E029839B838A830680F781A4
:100B7000E02DCE01019609952396E2E00C940A300F
:100B8000A3E0B0E0E6ECF5E00C94EE2F2091A0039A
:100B90003091A10328173907A1F09093A103809306
:100BA000A003E091A203F091A303309751F023E05A
:100BB00029839B838A830680F781E02DCE010196ED
:100BC00009952396E2E00C940A30E091A203F0919B
:100BD000A303309729F00190F081E02D0995089545
:100BE00080E00895CF93DF93EC0140919103509101
:100BF000920360919303709194032FB7F8948091BE
:100C0000A7039091A803A091A903B091AA032FBFB5
:100C1000841B950BA60BB70B843F9140A105B10532
:100C200018F58091910390919203A0919303B09154
:100C3000940380938D0390938E03A0938F03B093BE
:100C4000900384EF91E0A0E0B0E08093890390935B
:100C50008A03A0938B03B0938C03D0939903C09322
:100C60009803DF91CF9108950E94830560938D03CF
:100C700070938E0380938F039093900382E390E0B0
:100C8000A0E0B0E0E2CFFC018481862351F49281A0
:100C90009923B9F06923808583FF05C081E0611144
:100CA0000FC080E00895892F8F7092959F70982BC8
:100CB000862F8F7062956F70682B81E09613F1CF4D
:100CC000089581E0FDCFFA01811101C0FB01099572
:100CD0000895089580918403982F9E7F61F4817018
:100CE00082608093840380918703893C18F088ECAC
:100CF0008093870308958635B0F381708465F1CFC2
:100D0000AF92BF92DF92EF92FF920F931F93CF9318
:100D1000DF93182F062FE901493C08F048ECE42F37
:100D2000F0E0E757FD4F011110C0E4915E2F4E2F08
:100D30004983E8835A83DF91CF911F910F91FF90F0
:100D4000EF90DF90BF90AF900895202F30E0449156
:100D5000D42EE42EF12C56E0159FC0011124EFEFA4
:100D6000F0E0BF010E949A2F812F90E0880F991F19
:100D700055E5569FD001579FB00D11248A1B9B0B40
:100D8000982F990F890F5F01A21AB30AAE9CD00168
:100D9000AF9CB00DBE9CB00D11245B2F089F80014D
:100DA0001124012F11275F01A01AB10AAE9C800106
:100DB000AF9C100DBE9C100D11245F01A81AB10844
:100DC000A29EC001A39E900DB29E900D1124892F6A
:100DD0009927E81BF90BEE9DC001EF9D900DFE9D3C
:100DE000900D1124E92F62307105A1F050F46115C6
:100DF000710509F49DCF6130710581F0EB2F512F02
:100E000097CF6430710569F080F06630710509F4A0
:100E10008FCFF4CFE42F4B2F592F8ACFE42F412FC0
:100E200087CFEB2F542F492F83CF4B2F5D2DE12FF1
:100E30007FCF0E948F059C019091D5028091D602B0
:100E4000982B21F03093D2022093D1029091D702B7
:100E50008091D802982B21F03093D0022093CF02BA
:100E6000E091A203F091A303309749F082E08093D0
:100E7000D3020480F581E02D83ED92E00995089579
:100E80008091CE0280FD16C081FD16C082FD16C085
:100E90008091CD028823A1F0883280F428E0829FDF
:100EA000C001112468E270E00E94AE2F862F672BEC
:100EB00039F0089582E0089584E0089588E0089567
:100EC00081E008958091CE0280FD14C081FD14C0A0
:100ED00082FD16C08091CC02882381F08E3180F48F
:100EE00020E5829FC00111246EE170E00E94AE2FC8
:100EF000862F089584E1089588E2089588E0089592
:100F000080E5089580E00895F894E82FE295EF7069
:100F1000F0E031A1282F2F7081E090E001C0880F10
:100F20002A95EAF7982F9095932391A392A1892B64
:100F300082A3789408959091DF0392FF06C0282F32
:100F400028712830F9F4877F846093FF06C0282F2A
:100F500028712831F1F4877E84612091E00320FF1D
:100F600006C0382F38713830D9F4877F816021FF6F
:100F700006C0282F28712831D1F4877E816194FD25
:100F8000877E0895282F24712430F9F68B7F88609E
:100F9000DCCF282F2471243101F78B7E8861DDCFCF
:100FA000382F3171313019F78E7F8860E0CF282FCC
:100FB0002171213121F78E7E8861E1CFCF93DF93BC
:100FC000EC0182389105B1F108F040C08133910500
:100FD00009F49DC048F58932910509F48DC08A97BE
:100FE00009F49CC0C11521E5D20708F0C3C0C115A2
:100FF00030E5D30708F01EC1C83ED10508F0A3C0F4
:10100000C13ED10588F5C83AD10508F08EC0C53A71
:10101000D10508F007C1C130D10531F1209721F188
:10102000C430D10508F545C08533910509F45FC08A
:10103000C997C1F68091DF03837009F043C18091A5
:10104000E00383FF11C0C9E2D0E00EC0833E9105EA
:1010500099F170F4803E910501F1823E910511F6FF
:101060008091DF0382FD21C0CE01DF91CF910895F1
:10107000863E910561F1873E910571F1843E9105AF
:1010800009F0B0CF8091E00381FFEECF8091DF03C4
:10109000C7EED0E084FD0DC0E7CF8091DF0380FD77
:1010A00033C09091E00390FFDFCFC3EED0E084FF28
:1010B000DBCFD0E0C0E0D8CF8091DF0382FDFFC05E
:1010C0009091E00390FDFEC084FFCECFF2CF8091DF
:1010D000DF0383FDDDCFC8CF8091DF0383FDF5C043
:1010E0009091E00391FFF0CFC4EED0E0BDCF8091AE
:1010F000DF0385FFB9CFA7CF8091DF0385FDE8C06F
:101100008091E00383FFB0CFC9E3D0E0ADCF809101
:10111000DF0386FFA9CFCAE2D0E0A6CF8091DF032C
:1011200086FFA2CFC1E3D0E09FCFC13CD10508F636
:10113000C85AD0E0CC0FDD1FCE59DE4F0990D881C0
:10114000C02DD46491CFC11540E2D40758F4C11525
:1011500081E0D80708F088CFC03FD10508F4A9CFB7
:10116000D06582CFC11520E4D20708F4A2CFDF708A
:10117000D06A7ACFC11535E5D30718F5C11544E516
:10118000D40708F084C0C11583E5D80708F06BC008
:10119000C11522E5D20708F461C0CE0183709927FA
:1011A00021E030E002C0220F331F8A95E2F7C69596
:1011B000C69580E2C89FE0011124C22BD32BDC68C6
:1011C00053CFC11539E5D307A8F4C11548E5D407B5
:1011D00008F062C0C11586E5D80708F06ACF8C2FE9
:1011E0000E949B07C82FD0E0DC2FCC27CC27DF71D3
:1011F000D0623ACFC1152AE5D20708F452C0CE0119
:1012000090568115904208F054CF8D2F8F710E9417
:101210009B0790E0982F882788279F719C012C2B93
:10122000E901E6CFC55AD0E0C15ADE4FC881D0E00F
:10123000D0641ACFCE018370992721E030E002C03C
:10124000220F331F8A95E2F7C695C69540E2C49FE8
:10125000E0011124C22BD32BDD6806CFDC2FCC2775
:10126000C16FD06A01CFCE018370992721E030E0B1
:1012700002C0220F331F8A95E2F7C695C69540E259
:10128000C49FE0011124C22BD32BDA68EDCEDC2FF2
:10129000CC27C46FD06AE8CEDC2FCC27C06FD06AD1
:1012A000E3CE8C2F8F700E949B0734E0D695C795B4
:1012B0003A95E1F7CF709C2FEC01D069D5CEC2EE04
:1012C000D0E0D2CEC0EED0E0CFCEC6EED0E0CCCED5
:1012D000C5E3D0E0C9CE8091A00281111092A00296
:1012E0000895809590919D03982390939D03089570
:1012F00090914F019923D1F09091DF0397FF16C091
:10130000E82FE695E695E695EE31E0F4F0E0EA5157
:10131000FE4F282F277081E090E001C0880F2A95AA
:10132000EAF780959281892382830895E8EEF1E0BF
:101330009191891303C0DF0111971C9291E0EE3E59
:10134000F907B1F7089590914F019923C1F0909159
:10135000DF0397FF14C0E82FE695E695E695EE319A
:10136000F8F4F0E0EA51FE4F877021E030E001C070
:10137000220F8A95EAF78281822B82830895A8EE54
:10138000B1E0EFEF90E02D91821751F0EF3F19F4AB
:10139000211101C0E92F9F5F9630A9F7EF3F09F4B3
:1013A00008950E2E000CFF0BEA51FE4FE6CF809100
:1013B0007F0290914E02981301C008958F5F87704D
:1013C000FACF953080F5803170F540E1949F90011F
:1013D0001124820F932F911D682F677023E096953B
:1013E00087952A95E1F7FC01EE0FFF1FE80FF91F23
:1013F000E65DFD4F50E040E080E0219130E0062EB8
:1014000002C0369527950A94E2F721703327042EFF
:1014100001C0220F0A94EAF7822B4F5F5F4F4330DF
:10142000510559F7089580E00895953098F5803179
:1014300088F540E1949F90011124820F932F911D14
:10144000282F277041E001C0440F2A95EAF723E0D6
:10145000969587952A95E1F7FC01EE0FFF1FE80F9F
:10146000F91FE65DFD4F90E080E070E05191DF01F3
:1014700011979B01082E02C0369527950A94E2F732
:10148000217021952527242325272C93019683302D
:10149000910561F70895662309F45DC0803F41F42A
:1014A0000E94620781958093D6020E9419070895D1
:1014B000813F19F40E946207F6CF823F31F40E9407
:1014C000620781958093D502F0CF833F19F40E9483
:1014D0006207F8CF893F29F40E9440078093D70222
:1014E000E4CF8A3F21F40E9440078195F7CF8B3FDC
:1014F00031F40E94400781958093D802D6CF8C3F6B
:1015000019F40E944007F8CF9CE0980F953070F4D2
:10151000845F990B21E030E001C0220F8A95EAF741
:101520008091D402822B8093D402BFCF8D3F31F4BF
:101530008091CE0281608093CE02B7CF8E3F21F49E
:101540008091CE028260F7CF8F3F09F0AECF8091BD
:10155000CE028460F0CF4091D502803F59F4809153
:10156000D60287FF0DC01092D60241110BC0109217
:10157000CC0208C0813F81F48091D60218169CF3FA
:10158000442381F08091D7029091D802892B09F0F1
:101590008CCF1092CD0289CF823F49F447FFF0CF24
:1015A0001092D5028091D6028111ECCFE0CF833F1B
:1015B00019F41416ACF3E4CF9091D702893F29F4C3
:1015C0001916F4F61092D702DBCF8A3F19F497FF71
:1015D000D7CFF8CF9091D8028B3F29F497FFD0CF87
:1015E0001092D802CDCF8C3F19F41916CCF3C8CF86
:1015F0009CE0980F953090F4845F990B21E030E0E7
:10160000B90102C0660F771F8A95E2F7CB0180957A
:101610009091D40289238093D402B2CF8D3F31F4CC
:101620008091CE028E7F8093CE02AACF8E3F21F48E
:101630008091CE028D7FF7CF8F3F09F0A1CF8091AF
:10164000CE028B7FF0CF982F92959F7011F0892F4B
:1016500094E0282F2695269511F09E5F822F86957F
:1016600009F09F5F892F08959C013A9521153F410C
:1016700050F5FC01EE27F170BC0166277270AC01D9
:10168000442754709C012227387094FF0EC080E1DB
:10169000EF2B09F480E0672B09F08062452B09F0FD
:1016A0008064232B89F08068089581E0EF2B09F492
:1016B00080E0672B09F08260452B09F08460232BC2
:1016C00019F08860089580E00895FC0192819130BE
:1016D00029F4858180FF06C083E00895923021F0CF
:1016E00081E0089582E0089584E008950F931F93A8
:1016F000CF93DF938B01EA019091D003943061F591
:101700008093E9008FEF9091E800815095FD06C02D
:1017100095ED9A95F1F700008111F5CF8091E800E1
:1017200085FF1AC00E943604811111C08091E80023
:1017300085FD06C08091E8008E778093E800F2CFA7
:10174000F80181918F018093F100219779F78091C1
:10175000E8008E778093E800DF91CF911F910F9181
:10176000089543E050E0BC0184E00E94760B0895A8
:1017700046E050E0BC0184E00E94760B0895CF93D0
:10178000DF93EC0180914F01811111C048E050E0DE
:10179000BE0181E00E94760B80E2FE01AEEAB3E07A
:1017A00001900D928A95E1F7DF91CF910895809194
:1017B000DF0387FF05C040E284E050E0BE01EACFCE
:1017C00048E081E0FACF81E08093E00080E28093FE
:1017D000D8001092C9008FE19EE40197F1F700C094
:1017E000000087E090EBDC018093E1039093E2033B
:1017F000A093E303B093E40388E19CE00FB6F89470
:10180000A895809360000FBE90936000FFCF8091F9
:10181000840380FD0AC0E4EEF2E01182108212829D
:10182000339653E0E032F507C1F76A9A3EB13B7F49
:101830002EB124604FB7F89484EE92E0FC015191F0
:10184000CF0168E02EB9000000C057FF3EB9550F28
:10185000000000C000C000C03EB900C06A9591F70A
:10186000F3E080329F0751F74FBF8FE594E0019777
:10187000F1F700C000000895EF92FF920F931F93BD
:10188000CF93DF938C01C4EED2E0F12CE12CF80170
:1018900094816091860380918503FAE0EF16F1044C
:1018A000ECF49923E9F09E01409187030E948006A1
:1018B0002FEFE21AF20A239684E1E816F10439F7D1
:1018C0000E94070CF801848190E0019681709927AD
:1018D0008483CDB7DEB7E6E00C940630992319F384
:1018E0009E0140E0E3CFB0E0A0E0E9E7FCE00C942B
:1018F000E42FEC014C81042F10E09801D8010E94E4
:1019000049319B01AC010E9414314B015C01E0E2C2
:10191000F0E0E01BF10BA5E5B0E0AC019B010E94FB
:1019200014316B017C019F01DF010E94CF2F9B01CD
:10193000AC010E941F319B01AC01280D391D4A1DCD
:101940005B1DC701B6010E942731F22E822F90E065
:1019500039E23F1598F143E0249F90011124359519
:101960002795122F109594EEC92E92E0D92E00E003
:1019700085E5E82EEF188E2D01FD8F2D9601412F64
:10198000609186030E9480060F5F53E0C50ED11C54
:10199000043189F70E94070C9C8181E0992319F09A
:1019A000903219F48FEF80934E0180914E01890F90
:1019B0008C83CDB7DEB7ECE00C94003025E530E049
:1019C000A901481B590BCA019A01220F331F280F86
:1019D000391F37FFC4CF2F5F3F4FC1CF0F931F93E6
:1019E000CF93DF93C4EED2E0FE0111821082128207
:1019F000339683E0E032F807C1F710E000E0809111
:101A0000E202082E000C990B081719078CF180913F
:101A10004D01082E000C990B801791074CF19E0187
:101A20004091870360918603809185030E94800620
:101A30000F5F1F4F23960431110509F70E94070C11
:101A400080914C019091E202980F9093E2022091D4
:101A50004D01280F20934D01121614F493311CF000
:101A6000819580934C01DF91CF911F910F91089543
:101A7000198218821A82DCCFB0E0A0E0E2E4FDE037
:101A80000C94E72FFC018281DD24DA9480FD02C0F2
:101A9000DD24D39404EE12E0D0E0C0E024E1B22EC5
:101AA000F80111821082128294E0E92EF12CC12CEF
:101AB0008091E1028C0D8531C4F16B2D0E948C2F39
:101AC000892F082E000C990B8C179D0791F480919B
:101AD00087038E9DA0018F9D500D1124559547952C
:101AE00055954795980160918603809185030E94E2
:101AF0008006CD0CF1E0EF1AF108D1F621960D5FCA
:101B00001F4FC431D10561F60E94070C8091E1029C
:101B100091E0D91210C081110CC083E18093E102E1
:101B2000CDB7DEB7E9E00C94033087FFCACF8C5EF7
:101B3000C8CF8150F3CF90E00196BE010E94AE2F36
:101B4000EDCFEF92FF921F93CF93DF93EC0184EEE2
:101B5000E82E82E0F82E10E08C81970140918703F7
:101B600060918603810F0E948006145F83E0E80E77
:101B7000F11C103F89F70E94070C9A818C8190FF1D
:101B800008C08F5F8C83DF91CF911F91FF90EF9002
:101B900008958150F7CF9091840390FF0CC0E4EE3C
:101BA000F2E0818360834283339693E0E032F90769
:101BB000C1F70E94070C0895A3E0B0E0E2EEFDE05B
:101BC0000C94EC2F8C018091E30281110AC09E01DC
:101BD0002F5F3F4F48EC6FEF0E9480068A81809311
:101BE000E302F8016481613069F08091E30240E032
:101BF000662361F040E0623011F44091E30280E03E
:101C000060E004C06091E30240E080E00E94CB0D00
:101C1000F801848190E0019663E070E00E94AE2FAD
:101C200084832396E4E00C940830A3E0B0E0EBE179
:101C3000FEE00C94EE2F9091840390FF0AC09E0169
:101C40002F5F3F4F0E9480064B8169818A810E94ED
:101C5000CB0D2396E2E00C940A30CF93DF93EC0196
:101C6000E4E8F3E0438162818C810E94150E8C814F
:101C70008F5F8C83DF91CF910895CF93DF93EC0139
:101C8000EC81F0E0E257FC4F4491E4E8F3E062813C
:101C900081810E94150E8C818F5F8C83DF91CF91A3
:101CA0000895CF93C82F4AE468E281FD02C040E066
:101CB00060E080E00E94CB0DC1FD03C08F9ACF9100
:101CC00008958F98FCCFCF93C82F0E94230B8230AA
:101CD00061F0833071F0813081F441E16CEC8AEA8B
:101CE0000E94CB0D8C2FCF91089540E069E98FEFD2
:101CF000F7CF47E760E08EEEF3CF40E060E080E0B2
:101D0000EFCFCF93DF93C6EAD2E060E0CE010E942E
:101D1000C1302196C11584E0D807B9F7DF91CF9182
:101D200008951F93CF93DF93122F8430E0F4653032
:101D3000D0F44031C0F490E2699FE001112450E0FA
:101D4000440F551FC40FD51F90EA899FC00DD11DA8
:101D50001124632FCE0186960E94C130612FCE01DF
:101D600087960E94C130DF91CF911F910895AF9265
:101D7000BF92CF92DF92EF92FF921F93CF93DF93A8
:101D80008EE8C82E84E0D82ED0E07601C0E014C0E2
:101D9000F50125913491412F6C2F8D2F0E94910ECA
:101DA00082E0A80EB11C1F5F103191F780E2E80EAF
:101DB000F11CCF5FC53019F0570110E0E9CFDF5FAC
:101DC00080EAC80ED11CD43001F7DF91CF911F916A
:101DD000FF90EF90DF90CF90BF90AF900895CF939A
:101DE000C82F6FEF811161E282E290E00E94C13062
:101DF0006FEFC11167E083E290E00E94C1306FEFA6
:101E0000C11165E184E290E00E94C130CF91089554
:101E100080E00E94EF0E60E085E290E00E94C13019
:101E20000E94B70E0E94810E81E00E94EF0E08957D
:101E30000F931F93CF93DF93843030F5653020F5F7
:101E4000403110F520E2629F8001112450E0440FE0
:101E5000551F040F151F30EA839F000D111D11241B
:101E6000C80186960E94AD30C82FD0E0DC2FCC2769
:101E7000C80187960E94AD309E01282BC901DF91D1
:101E8000CF911F910F91089590E080E0F8CF462FF9
:101E9000753040F4603130F4843020F4672F0E94B4
:101EA000180F089590E080E00895CF92DF92FF929E
:101EB0000F931F93CF93DF936C010091DD0380910B
:101EC000A102082BC7E0D0E010E0FC2EC8010C2EC8
:101ED00002C0959587950A94E2F780FD0CC0219782
:101EE000A0F7F12C8F2DDF91CF911F910F91FF90D3
:101EF000DF90CF900895B6018C2F0E94470F0E946B
:101F0000DE07019761F3EECFCF93DF93EC010E94E0
:101F1000550FBE010E94470F0E94DE07DF91CF914F
:101F20000895FC0183819481892B29F0808191811E
:101F300089238F3F51F480E00895843FE1F717C073
:101F4000883EA8F0813FB9F712C0808191810E943C
:101F5000840F92959F70963099F358F4925F9F701A
:101F6000923048F7803F19F040F7883E20F781E033
:101F700008959A5FF4CFA5E0B0E0E1ECFFE00C94A7
:101F8000ED2F49835A8389819A81662399F0222310
:101F900089F00E94550F182F682F89819A810E941D
:101FA000150A69817A81812F0E94470F2596E3E007
:101FB0000C9409300E94E109182FF3CF82E290E0DF
:101FC0000E94AD30813289F483E290E00E94AD300E
:101FD000873059F484E290E00E94AD3091E0853181
:101FE00009F090E0892F8170089580E0FCCFB0E087
:101FF000A0E0EDEFFFE00C94E02FFC016280448054
:1020000081E08483EEE8F3E07490EDE0F4E0E491A5
:10201000C0E2D3E034EEE32E32E0F32E44E8C42EE7
:1020200043E0D42E52E0A52EBB24B39488248A9496
:10203000912C55245A94E7190E2F10E082E0861552
:1020400030F08091850388838091860389834110D5
:1020500016C01B821A8297014A81698188810E9479
:102060008006259683E0E80EF11CCC16DD0631F7DC
:102070000E94070CCDB7DEB7E0E10C94FC2F8B81FA
:102080008823E9F081508B83859DC00111246C81E8
:1020900070E00E949A2FFB01FF27E257FC4F8491CA
:1020A000E82FE719E59DC0011124B8010E949A2F7D
:1020B00080918703689FB00111247A83CCCF0E945E
:1020C000833020918703269521582A9DA0012B9DBE
:1020D000500D1124452F5527841795070CF0BBCFC1
:1020E00082E0861588F40E948330B4010E94AE2FEE
:1020F00088830E948330209186032695622F70E0AA
:102100000E94AE2F280F29831A8280918703893C71
:1021100020F088EC8C838B839ECF8431D8F784E1C8
:10212000F9CF60918403669570E04BE050E081E464
:1021300091E00E949330892B19F481E08093E002B2
:102140000E948F059093DA028093D9020895CF926E
:10215000DF92EF92FF926B017C010E946A06B70149
:10216000A60188E090E00E94D330FF90EF90DF90CE
:10217000CF900895A3E0B0E0E0ECF0E10C94E12F03
:10218000F82E762EE42E622E9091840390FF29C0C3
:10219000E92FE695AE2FB0E0A755BE4F8C91809306
:1021A000DF029E7F923009F59E012F5F3F4F8F2DFA
:1021B0000E9480064B8169818A810E94CB0DF0923A
:1021C000850370928603E0928703662051F0609148
:1021D00084037091850380918603909187030E9408
:1021E000A7102396EFE00C94FD2F823019F4E090B5
:1021F0008703E5CF863019F4F0908503E0CF89306E
:10220000D9F38931E1F6E9518E2F8170582EE69588
:10221000F0E0E757FC4FE4910E2F10E084EEC82E5B
:1022200082E0D82EB12CA12C94E1892E912CC501ED
:10223000B4010E949A2F8F2D511013C0860F960162
:102240004E2D672D0E948006A00EB11E83E0C80EA1
:10225000D11C80E2C81683E0D80649F70E94070C1B
:10226000AECF861BECCFE4E8F3E0438128E0421BCD
:1022700008F440E021E0628181810E94BA10089553
:10228000E4E8F3E0438128E0420F08F44FEF21E057
:10229000628181810E94BA100895E4E8F3E06281CE
:1022A00028E0621B08F460E021E0438181810E9404
:1022B000BA100895E4E8F3E0628128E0620F08F4C0
:1022C0006FEF21E0438181810E94BA100895E4E814
:1022D000F3E0818121E04381628188500E94BA103D
:1022E0000895E4E8F3E0818121E043816281885F21
:1022F0000E94BA10089580918803882319F08150B4
:102300008093880360918403709185038091860394
:10231000909187030E94A7100895809188038330CD
:1023200018F48F5F80938803609184037091850314
:1023300080918603909187030E94A7100895909141
:10234000840390FF2CC0917081112AC092609093F9
:102350008403662351F0609184037091850380911A
:102360008603909187030E94A7106091840366956D
:1023700070E04BE050E081E491E00E949330892BC3
:10238000B1F01092E00281E08093DC0220E0409105
:10239000870360918603809185030E94BA10089597
:1023A0008B3210F09465D3CF880F982BD0CF0E943A
:1023B0009110E9CF809184038695815009F48AE2D7
:1023C00061E00E949F1108958091840386958F5F3C
:1023D0008B3208F081E061E00E949F110895909196
:1023E000840390FF08C09695981728F0961718F464
:1023F0000E94E411089561E00E949F110895E4E8AD
:10240000F3E083E0808311828FEF828388EC838303
:10241000148260817181828193810E94A710089546
:10242000CF9380919D0390919C03892B8093E6012B
:102430009091A0029923B1F0892B8093E6018091BD
:102440004F01882309F447C08091DF0387FF43C011
:102450008EE1E8EEF1E090E0815008F03EC091118D
:102460000E946B09C0919503C0958091E601C82335
:1024700080919603C82BC093E60140E250E060E8EB
:1024800072E086EE91E00E94A030892B11F180E28B
:10249000E6EEF1E0A0E8B2E001900D928A95E1F756
:1024A000E091A203F091A303309799F080914F013E
:1024B000882349F08091DF0387FF05C0C093E701BF
:1024C00086E08093E6010280F381E02D86EE91E0C4
:1024D0000995CF91089586E0BCCF2191222309F47C
:1024E000BBCF9F5FB9CFCF93DF93EC01EA85FB852C
:1024F000309719F06C857D8509958B81982F909583
:1025000080919C03892380939C038C810E94710994
:102510000E94101286E0FE0111928A95E9F7DF9180
:10252000CF910895CF93DF93EC018D8181FD18C089
:1025300082608D8380919C039B81892B80939C0377
:1025400080919D039C81892B80939D030E94101292
:10255000E885F985309721F06C857D85CE01099558
:1025600010929F0310929E038D8180FD03C0CE01C7
:102570000E947312DF91CF91089590E080E00E9455
:10258000C00590E080E00E949B0510929C030E9491
:10259000101286E0E3EDF2E0DF011D928A95E9F783
:1025A0001092CC021092CD021092CE020E94190716
:1025B00008950E94630E8093DD030E94BD1208956A
:1025C0008091DD03982F9670963021F488600E94E8
:1025D000D9120895877FFBCF21E030E001C0220FA0
:1025E0008A95EAF720958091DD0382230E94D91213
:1025F00008959091DE03809589238093DE03282F30
:10260000277091F4282F082E000C330B9217130615
:1026100059F09091E00392FF07C0859585958595C7
:102620000E94EC121092DE03089580910D01833018
:1026300011F40E94EC12089580910B01833019F47B
:1026400082E00E94EC12089580910901833019F410
:1026500081E00E94EC1210920901089521E030E01F
:1026600001C0220F8A95EAF78091DD03822B0E9438
:10267000D91208959091E00392FF07C098E0899FD6
:102680009001112423602093DE030E942E130895ED
:102690000E94650B80930D018330A9F0843049F0CE
:1026A0008230A1F483E00E943A1381E00E94F91283
:1026B00008958091DD03882331F083FF04C083E017
:1026C0000E94EC12089583E00E942E1308950E9448
:1026D000650B80930B018330A1F0843041F0823090
:1026E00099F40E943A1381E00E94F91208958091B2
:1026F000DD03882331F082FF04C082E00E94EC12E7
:10270000089582E00E942E1308958093A1020E94F2
:10271000BD120895882339F090919C03982B9093D3
:102720009C030E9410120895882321F00E947109D1
:102730000E9410120895882339F090919D03982BE0
:1027400090939D030E9410120895882309F454C0A9
:10275000823879F40E94E50581FF4EC089E30E942A
:10276000A3090E94101289E30E9478090E941012A6
:102770000895833859F40E94E50580FF3DC083E544
:102780000E94A3090E94101283E5EECF843859F409
:102790000E94E50582FF30C087E40E94A3090E94E1
:1027A000101287E4E1CF9CEF980F913AE8F290E2A3
:1027B000980F983050F4877091E001C0990F8A9576
:1027C000EAF7892F0E947109D1CF9BE5980F9330CA
:1027D00028F490E080E00E94C005089598E5980FE5
:1027E000993128F490E080E00E949B050895803F95
:1027F00018F060E00E944B0A0895FF920F931F9318
:10280000CF93DF93F82E00919A0310919B0301154B
:10281000110509F449C0109299031092980310927F
:10282000950310929603D8011696CD91DC919E01E6
:102830003A9521153F4108F4D07ED1E0C11101C085
:10284000D0E0D8011996ED91FC911A97309731F0AC
:102850001B966D917C9180E00995D823DD2339F09A
:102860008CEF8C0F813A30F58C2F0E947809FF2075
:1028700099F0E0919A03F0919B03808584FD0CC050
:1028800080919703882341F0808191819C012150A0
:102890003109243B3D45A0F00E94101210929B0389
:1028A00010929A0310929703C801CDB7DEB7E5E006
:1028B0000C9407300E9410128C2F0E94A513D7CFC2
:1028C0000E94F205E9CFCF93C82F8823C9F0823840
:1028D000C9F40E94E50581FD13C089E30E94A309A4
:1028E0000E9410122FEF87EE93E02150804090401D
:1028F000E1F700C0000089E30E9478090E941012ED
:10290000CF9108958338A1F40E94E50580FDF8CFAA
:1029100083E50E94A3090E9410122FEF81EE94E03C
:10292000215080409040E1F700C0000083E5E4CFF3
:102930008438A1F40E94E50582FDE2CF87E40E947D
:10294000A3090E9410122FEF81EE94E021508040E5
:102950009040E1F700C0000087E4CECF8CEF8C0FF1
:10296000813A88F580914F01882301F18091DF033E
:1029700087FF1CC0EC2FE695E695E695F0E0EA515E
:10298000FE4F828190E04C2F477021E030E002C082
:10299000220F331F4A95E2F782239323892B79F084
:1029A0008C2F0E9478090E94101209C0E8EEF1E015
:1029B0008191C817A9F321E0EE3EF207C9F78C2FE9
:1029C0000E94A3099BCF80E28C0F883068F4C77007
:1029D00021E030E001C0220FCA95EAF780919D0303
:1029E000822B80939D038ACFEBE5EC0FE33040F41C
:1029F000F0E0E15AFE4F808190E00E94C00580CF58
:102A0000E8E5EC0FE93150F4F0E0EE0FFF1FEE596E
:102A1000FE4F808191810E949B0572CFC03F08F4D8
:102A20006FCF61E08C2F0E944B0A6ACF1F93CF9328
:102A3000DF93182FD0E0C0E0893311F4C0E5D0E077
:102A4000812F0E946314209739F4812F0E94A513CF
:102A5000DF91CF911F9108958FE99FE00197F1F7E2
:102A600000C000002197EFCF0F931F93CF93DF9308
:102A7000C62FD42F022FFC0182818823A9F06093F6
:102A8000DC030E948F059093DB038093DA03C77009
:102A900081E001C0880FCA95EAF70E949B13DF917D
:102AA000CF911F910F9108958091DC03681332C07C
:102AB0008091DA039091DB030E947405883C9105B4
:102AC00048F510E21D0FCD17B9F080E28C0F883069
:102AD00040F4C77081E001C0880FCA95EAF70E94F0
:102AE0009413183048F481E09D2F977001C0880F2F
:102AF0009A95EAF70E949B13802F0E9416151830B2
:102B000070F6D77081E001C0880FDA95EAF70E946D
:102B10009413C5CFC77081E001C0880FCA95EAF74A
:102B2000F6CF0E94650B80930901833091F08430C9
:102B300031F0823089F489E30E941615089580915E
:102B4000DD03882331F081FF04C081E00E94EC1294
:102B5000089581E00E942E1308959091E00392FB66
:102B6000222720F9281779F080FB92F99093E0034F
:102B70006091DF037091E00384E090E00E94DF3019
:102B800082E00E94F912089567EE7EEF90E080E007
:102B90000E94DF3060E082E090E00E94C13060E09F
:102BA00083E090E00E94C1301092A10260E074E1E5
:102BB00084E090E00E94DF3060E086E090E00E94D8
:102BC000C1306FEF87E090E00E94C13040E050E0FC
:102BD000BA0188E090E00E94D33060E08DE090E0A0
:102BE0000E94C13040E050E0BA0188E190E00E94CC
:102BF000D33060E087E190E00E94C13040E050E0D7
:102C0000BA018CE190E00E94D33070E060E080E295
:102C100090E00E94DF3040E050E0BA0188E190E0AF
:102C20000E94D33080E00E94EF0E0E94080F40E027
:102C300050E0BA018FE090E00E94D33040E050E0D5
:102C4000BA0183E190E00E94D330089590E080E0E3
:102C50000E94BB30873E9E4F19F40E94DE0F0895FC
:102C600080E0089510929D0380914F01E8EEF1E01D
:102C7000882361F08091DF0387FF08C08EE1DF01C8
:102C80001D928A95E9F70E94BD12089586E0F7CF5C
:102C9000AAE2B0E0EEE4F6E10C94ED2F82ED93E0D1
:102CA0002091F100DC012D93CD01B3E08A3D9B071B
:102CB000B9F78091D303833009F472C0B8F481303E
:102CC00009F449C0823009F4B3C08091E80083FF61
:102CD0008BC28091D2039091D3039A3008F084C2C2
:102CE000E92FF0E0E65AFE4C0C94C22F8A3009F42A
:102CF0008EC08B3009F471C0893039F78091D203CE
:102D0000813219F78091D6039091D703009711F083
:102D10000297D9F68091E800877F8093E800809140
:102D2000E80082FF38C09091F3008091F200029792
:102D300031F48091F100813011F0863021F48091DE
:102D4000F1008093AD038091E8008B778093E800D9
:102D50000E946704BACF8091D203813A09F0B5CFBF
:102D60008091E800877F8093E8008091D60390915E
:102D7000D703892B61F460E28EEA93E070E00E9451
:102D800013058091E8008B778093E8009ECF60E088
:102D900090E080E0F3CF8091D0038111C0CF95CF38
:102DA0008091D203813A09F090CF8091D60390911F
:102DB000D703892B09F089CF8091E800877F809322
:102DC000E8008091E80080FFFCCF80914F01809364
:102DD000F1008091E8008E77B9CF8091D2038132E3
:102DE00009F073CF8091D6039091D703892B09F016
:102DF0006CCF8091E800877F8093E8000E94670491
:102E00008091D40380934F010E9432165ECF80914F
:102E1000D203813209F059CF8091E800877F8093F7
:102E2000E8000E9467048091D5038093AC034DCFE6
:102E30008091D203813A09F048CF8091E800877FE2
:102E40008093E8008091E80080FFFCCF8091AC0384
:102E5000BECF803899F0823809F0C6C18091D60380
:102E60008F70873008F0C0C18093E9008091EB003B
:102E700085FB882780F91092E90006C08091CE0377
:102E80009091CF03911182609091E800977F909389
:102E9000E8008093F1001092F1008091E8008E77B5
:102EA0009FC1882309F48DC1823009F09DC18091B2
:102EB000D403811190C18091D6038F702FEF280F1A
:102EC000263008F091C18093E9002091EB0020FFAB
:102ED00082C1933031F48091EB0080628093EB00EB
:102EE0007AC19091EB0090619093EB0021E030E08B
:102EF00001C0220F8A95EAF72093EA001092EA00B7
:102F00008091EB008860EACF81116EC11091D403EB
:102F10001F778091E3008078812B8093E30080917C
:102F2000E800877F8093E8000E9467048091E800B2
:102F300080FFFCCF8091E30080688093E30082E013
:102F4000111183E08093D0034FC18058823008F084
:102F50004BC12091D4033091D5032C3DE3E03E07D3
:102F6000A1F583E08A838AE289834FB7F894DE0172
:102F7000139620E03EE051E2E32FF0E0509357003B
:102F8000E49120FF03C0E295EF703F5FEF708E2F5A
:102F900090E0EA30C0F0C7968D939D932F5F243167
:102FA00059F74FBF8091E800877F8093E8006AE27D
:102FB00070E0CE0101960E9413058091E8008B77A6
:102FC0008093E80011C1C096E7CF8091D60390911D
:102FD000D703432F55274330510509F44AC078F5EC
:102FE0004130510509F47AC08BE590E0EEE0F7E05E
:102FF0004230510509F0F8C02091E800277F209366
:10300000E8002091D8033091D9038217930708F480
:103010009C0140E02115310509F065C0411163C0F4
:103020008091E80082FDC9CF8091D003882329F2E6
:10303000853019F28091E80083FFF2CFBECF413294
:10304000510509F43CC04232510509F0CDC083302E
:10305000910508F0C9C0FC01EE0FFF1FE952FE4FB9
:103060000190F081E02D8C529E4FDC018C9190E01C
:103070001AC0332721303105D1F02115310561F017
:103080002230310509F0B0C0EBE7F7E0E4918E2F74
:1030900090E0EBE7F7E007C0E5EBF7E0E4918E2F77
:1030A00090E0E5EBF7E0009709F49EC0A5CFE9E9D1
:1030B000F7E0E4918E2F90E0E9E9F7E0F4CF833078
:1030C000910508F091C0880F991FFC01E352FE4F53
:1030D0000190F081E02D89E090E08ECF82E190E0D8
:1030E000E9E6F7E089CF8091D003882309F465CF22
:1030F000853009F462CF8091E80083FD5ECF809136
:10310000E80082FD8DCF8091E80080FF83CF909111
:10311000F3008091F2002115310519F088309105F6
:1031200050F041E0089709F040E08091E8008E7788
:103130008093E8006FCF44914093F1003196215085
:1031400031090196E8CF803809F04EC08091E8003F
:10315000877F8093E8008091D1038093F1009DCE1A
:10316000811142C01091D4031230F0F58091E80033
:10317000877F8093E8001093D1030E946704112396
:1031800011F084E005C08091E30087FDFACF81E073
:103190008093D00342E061EC81E00E94860442E229
:1031A00061EC84E00E94860442E261EC82E00E94CD
:1031B000860442E260EC83E00E9486048091D003A2
:1031C00013C08091D403813079F481E0933009F009
:1031D00080E08093CF031092E9008091E800877F20
:1031E0008093E8000E9467048091E80083FF0AC092
:1031F0008091E800877F8093E8008091EB008062F7
:103200008093EB00AA96E3E00C9409300E943216FA
:103210002FEF84E39CE0215080409040E1F700C014
:10322000000088E19CE00FB6F894A89580936000B8
:103230000FBE90936000FFCFA9E0B0E0E2E2F9E1B9
:103240000C94DE2F3C01DC0113968D919C91149718
:10325000892B51F04C9111965C911197842F852305
:103260008F3F11F00C94C7232996E2E10C94FA2FBA
:103270008091260291E08927809326028091DE03C7
:10328000877091F3D30112968C91882369F3809112
:10329000E00382FFE9CF82E00E94F912E5CF80913E
:1032A0002602882309F43AC11092260230EC431614
:1032B000510408F08BC040E84416510408F0F8C0EF
:1032C00050E44516510408F0BDC021E030E040E074
:1032D00050E060E070E080E090E0042D0E94153046
:1032E000E09106022E2BE09107023E2BE0910802AE
:1032F0004E2BE09109025E2BE0910A026E2BE091C9
:103300000B027E2BE0910C028E2BE0910D029E2B86
:10331000209306023093070240930802509309025B
:1033200060930A0270930B0280930C0290930D023B
:10333000C20182519F45409710F00C949E238FEF5D
:1033400093E00E94AD30811199CF0EEE040D66EA34
:10335000862E62E0962E011175C31C821B824424C6
:1033600043945AE0552E84010F5F1F4FC4010E9401
:10337000AD3089831A82882309F480CF9FEF980F9C
:10338000933008F06EC38A834982F2E08F0E911C5D
:10339000C8010E94AD308B83882309F46FCF8E0162
:1033A0000F5F1F4FD8012C912223E9F2213009F041
:1033B00092C311969C91119712968C91913009F0BD
:1033C00052C30E5F1F4F0E94161553C38FEF48164E
:1033D000510411F008F079CF21E030E040E050E0F6
:1033E00060E070E080E090E08201005C11090E94E2
:1033F0001530E0911E022E2BE0911F023E2BE09132
:1034000020024E2BE09121025E2BE09122026E2BD6
:10341000E09123027E2BE09124028E2BE091250285
:103420009E2B20931E0230931F0240932002509344
:1034300021026093220270932302809324029093CE
:10344000250276CF21E030E040E050E060E070E01F
:1034500080E090E08201005411090E941530E09153
:103460000E022E2BE0910F023E2BE09110024E2B0C
:10347000E09111025E2BE09112026E2BE09113029B
:103480007E2BE09114028E2BE09115029E2B20934F
:103490000E0230930F02409310025093110260937A
:1034A000120270931302809314029093150240CF7E
:1034B00021E030E040E050E060E070E080E090E04B
:1034C0008201005811090E941530E09116022E2B3E
:1034D000E09117023E2BE09118024E2BE091190269
:1034E0005E2BE0911A026E2BE0911B027E2BE09185
:1034F0001C028E2BE0911D029E2B2093160230930E
:103500001702409318025093190260931A027093A5
:103510001B0280931C0290931D020ACF90E449166F
:10352000510408F071C0E0910602F0910702A091E9
:103530000802B091090220910A022D8380900B02AB
:1035400030910C023F8340910D02498721E030E029
:1035500040E050E060E070E080E090E0042D0E94E8
:103560001530A22EAE22B32EBF22C42ECA22D52ED3
:10357000DB22ED80E622F72EF8200F810823198543
:1035800019230E942E3011F00C94232440EC441691
:10359000510408F09EC050E84516510408F001C1DE
:1035A00080E44816510408F0CBC021E030E040E050
:1035B00050E060E070E080E090E0042D0E94153063
:1035C0002095309540955095609570958095909593
:1035D0002E233F234A235B23AD816A237821BF81B9
:1035E0008B23E9859E2320930602309307024093A4
:1035F00008025093090260930A0270930B028093B1
:103600000C0290930D023ACE50E845165104F8F49E
:10361000E0910E02F0910F02A0911002B091110200
:10362000809112028D8380901302909114029F83E7
:1036300020911502298721E030E040E050E060E071
:1036400070E080E090E082010054110988CF30ECF6
:1036500043165104F8F4E0911602F0911702A0917C
:103660001802B091190240911A024D8380901B02FA
:1036700050911C025F8380911D02898721E030E018
:1036800040E050E060E070E080E090E082010058AF
:10369000110965CFE0911E02F0911F02A091200256
:1036A000B0912102909122029D838090230220916B
:1036B00024022F8330912502398721E030E040E059
:1036C00050E060E070E080E090E08201005C110971
:1036D00046CF9FEF4916510411F008F066CF8201E2
:1036E000005C110921E030E040E050E060E070E073
:1036F00080E090E00E9415302095309540955095DF
:1037000060957095809590952E233F234A235B23E7
:10371000BD816B237821EF818E23F9859F23209330
:103720001E0230931F0240932002509321026093A7
:1037300022027093230280932402909325029ECD4F
:1037400082010054110921E030E040E050E060E0E7
:1037500070E080E090E00E94153020953095409513
:10376000509560957095809590952E233F234A2320
:103770005B23FD816F237821AF818A23B9859B2349
:1037800020930E0230930F024093100250931102C7
:1037900060931202709313028093140290931502A7
:1037A0006DCD82010058110921E030E040E050E089
:1037B00060E070E080E090E00E9415302095309548
:1037C0004095509560957095809590952E233F2358
:1037D0004A235B23ED816E237821FF818F23A98506
:1037E0009A232093160230931702409318025093A5
:1037F000190260931A0270931B0280931C0290932B
:103800001D023CCD2FEF4216510409F068F530E45B
:103810004316510408F0D2C0A0900602B0900702EF
:10382000C0900802D0900902E0900A02F0900B02CA
:10383000E0910C0210910D0221E030E040E050E0F8
:1038400060E070E080E090E0042D0E941530A2223C
:10385000B322C422D522E622F722082F0E231923F1
:103860000E942E3009F40ACDE0E12E16EFE53E0667
:1038700009F48CC1F1E12F16FFE53F0609F48EC172
:10388000210180910E01882309F484C6620140EE73
:10389000C41AD1083090A00280919D03382A58E0C4
:1038A000C516D10408F083C192012770332781E047
:1038B00090E001C0880F2A95EAF7992009F474C1B5
:1038C000382AD3018D919C910E94E10921E030E0DA
:1038D000F90102C0EE0FFF1F8A95E2F7FE83ED8328
:1038E000A0909A03B0909B03209127023091280268
:1038F00038872F83212CE22DF0E0EE0FFF1FEC5FC5
:10390000FE4F008111810115110509F4A6C6311081
:1039100005C0D80112968C91811183C1F801838171
:1039200090E02D813E8182239323892B09F479C174
:103930008085982F977009F487E038E0C316D1048A
:1039400008F04FC1992009F448C1869581708823F9
:1039500009F467C1D801ED90FC90E414F50419F462
:10396000992009F45EC10A151B0509F45AC1D80152
:103970001D96ED91FC91309721F08081882309F408
:1039800050C1632DC8010E944306882309F449C130
:10399000E414F50411F00C94CA24E114F10411F4B8
:1039A0000C94D02491100C94D224EF81F885EE165B
:1039B000FF0609F036C1912C0C94D22440E844163D
:1039C0005104A0F4A0900E02B0900F02C09010021B
:1039D000D0901102E0901202F0901302E0911402D4
:1039E0001091150250E4451A510826CF80EC481674
:1039F0005104A0F4A0901602B0901702C0901802D3
:103A0000D0901902E0901A02F0901B02E0911C0283
:103A100010911D0290E8491A51080ECFA0901E0285
:103A2000B0901F02C0902002D0902102E0902202AC
:103A3000F0902302E091240210912502A0EC4A1A92
:103A40005108FACE8114B4E09B0609F417CCC401E6
:103A50000E94AD30811101C00150EFEF8E1A9E0A15
:103A60007ACC48019CCC923039F40E5F1F4F0E94F3
:103A700063140F5F1F4F96CC933029F40E5F1F4FD6
:103A80000E94A513F6CF943019F00F5F1F4FF1CFAE
:103A90000E5F1F4F30E020E0B8016F5F7F4FF801ED
:103AA00041818053990B8A30910550F021503109A2
:103AB00000F38FE99FE00197F1F700C00000F6CF17
:103AC000529EF001539EF00D11249C012E0F3F1FBA
:103AD000842F8B01E1CFE22FF0E0EC50FE4F3490C9
:103AE000822F86958695869590E0FC01EC51FE4FDD
:103AF000C4902770D12C022E02C0D594C7940A948A
:103B0000E2F7A1E0CA22DD24FC01EC52FE4FA490B2
:103B1000B12C022E02C0B594A7940A94E2F7B1E04A
:103B2000AB22BB24FC01EC53FE4FE490F12C02C00D
:103B3000F594E7942A95E2F7E1E0EE22FF24C11420
:103B4000D10419F081EE0E946314A114B10419F09C
:103B500086EE0E946314832D0E941615A114B104F1
:103B600019F086EE0E94A513C114D10419F081EE5C
:103B70000E94A513E114F10409F47BCF8CE223CC5D
:103B800081E00E942E130E94E01278CB81E00E9417
:103B9000EC12F9CF992011F082E0F3CF82E0F7CF59
:103BA00081E080930E016ACB809538228ACE9920DD
:103BB00009F43CC550922802409227020E948305D6
:103BC0006093910370939203809393039093940373
:103BD000109299031092980374CE82FB882780F983
:103BE000B6CE9920F1F08170B2CE0E94A513F8C62E
:103BF0000497813A910548F48E2D0E94A3099920DB
:103C000009F4C8C40E94101239CB0E9410128FE32D
:103C10009CE90197F1F700C000008E2D0E9463140B
:103C2000EECF239468CEFC01208131812415350527
:103C300009F0A9C49110A9C41092970380E00E94D2
:103C4000FD13A8C4942D852DECC4F801858181FF56
:103C500018C5C8010E94731214C527E245EE65EE2F
:103C600011C626E241EE60EE0DC627E245EE64EE97
:103C700009C626E241EE62EE05C628E241E0EFCF3A
:103C800030EB43163DE55306F0F44DEA44164DE59E
:103C9000540608F016C555EA45165DE5550609F4C3
:103CA00010C5B6E14B16BCE55B0609F033C2809146
:103CB0009D038A7A91E009F490E0909329028111A2
:103CC0004CC189E24BC184EB48168DE5580649F793
:103CD000F8C487E048168CE5580609F4D9C008F402
:103CE000D3C0A8E04A16ACE55A0609F4D5C0B9E03D
:103CF0004B16BCE55B0609F015C50E943216809193
:103D0000DF038068B2C0EEE04E16ECE55E0609F413
:103D1000D3C0B0F48091DF038D7F2CE042162CE5F8
:103D2000520609F4A2C08091DF038E7F3DE0431666
:103D30003CE5530608F499C08091DF038B7F95C062
:103D400040E144164CE5540609F4C6C008F4C0C06E
:103D500081E148168CE5580609F4C2C092E1491683
:103D60009CE5590609F0DEC40E9432168091DF03FB
:103D70008F777BC04114ADE55A0609F4C5C090F5B4
:103D8000EBEF4E16ECE55E0609F47AC0A0F425E1EF
:103D900042162CE5520609F4ABC008F4BFC080916E
:103DA000E00381604AEF44164CE5540609F0BAC4BA
:103DB0008093E003B7C45DEF45165CE5550609F452
:103DC00083C008F47DC09EEF49169CE5590609F4AE
:103DD0006BC08091E0038C7FAFEF4A16ACE55A06CA
:103DE00039F3A0C4B5EA4B16BDE55B0609F4A7C0DC
:103DF000A8F4F2E04F16FDE55F0609F49EC008F452
:103E000096C031E643163DE5530609F08BC4909108
:103E1000DF03892F8F7E94FF806127C04EEA44160E
:103E20004DE5540609F444C050F48DEA48168DE57A
:103E3000580609F077C48091E0038860B9CF9FEA03
:103E400049169DE5590609F481C0A4EB4A16ADE573
:103E50005A0609F067C49091DF03892F8F7B96FF84
:103E6000806403C08091DF0382608093DF035AC4C3
:103E70008091DF038460F9CF8091DF038860F5CF04
:103E80008091E003826094CF8091DF038061EDCF69
:103E90008091DF038062E9CF8091DF038064E5CF0A
:103EA0008091DF038C60E1CF8091E003836080CF5D
:103EB0008091E003877F7CCF8091DF03877FD5CF20
:103EC0008091E0038E7F74CF8091E0038D7F70CF6F
:103ED0008091DF038F7EC9CF8091DF038F7DC5CFB7
:103EE0008091DF038F7BC1CF8091DF03837FBDCFC4
:103EF0008091DF0382FB992790F921E0922790FBC4
:103F000082F990FB83F9B1CF8091E003982F9095CF
:103F100091708E7F892B90FB81F94ACF0E943216D7
:103F20009091DF03892F97FB87F980589ECF61E03E
:103F30008EE090E00E94C130F5C360E0F9CF90912F
:103F4000DF03892F8E7F90FF81608FCF9091E003F8
:103F5000892F877F93FF88602BCF85E30E94A30979
:103F600051CE85E30E9478094DCE94EC49169CE52C
:103F7000590609F49CC047E651E161E771E1A5ECFF
:103F80004A16ACE55A0609F0BAC40E94630676C91F
:103F9000B9EC4B16BCE55B0609F498C080F4F7EC6D
:103FA0004F16FCE55F0609F48CC04AE551E16DE46B
:103FB00071E128EC42162CE5520639F3A0C43AEC24
:103FC00043163CE5530609F486C04BEC44164CE519
:103FD000540609F094C44BE751E16DE871E1D5CF87
:103FE00051ED45165CE5550609F488C0C8F49EEC11
:103FF00049169CE5590609F47BC008F476C0BFEC6D
:104000004B16BCE55B0609F476C06EE089E0E0ED96
:104010004E16ECE55E0609F072C40E94EF112EC93F
:10402000F4ED4F16FCE55F0609F46EC088F432ED3E
:1040300043163CE5530609F464C061E088E143EDB2
:1040400044164CE5540609F05AC40E949F1116C943
:1040500055ED45165CE5550609F459C08DE5481641
:10406000580609F04CC46AE285E2D7CF80918403F8
:1040700080FF12C08E7F80938403609184037091CF
:10408000850380918603909187030E94A710109268
:10409000E0020E94070CF2C881608093840361E013
:1040A0008695D3CF4AED51E164EE71E16ECF44EED7
:1040B00051E16AED71E169CF41E751E167E671E1F4
:1040C00064CF4DE451E16AE571E15FCF43E351E133
:1040D00060E471E15ACF40E451E163E371E155CF0F
:1040E0004DE851E16BE771E150CF61E081E0ADCF88
:1040F00065E082E092CF68E086E08FCF64E18FE0F8
:104100008CCF67E185E189CF62E289E186CF61E00A
:1041100083E29BCF9AE549169DE55906B9F188F4EB
:104120004114BCE55B06D9F0EEED4E16ECE55E06FB
:1041300009F0E5C36FEF7FEF90E080E00E94DF3091
:104140000CC0FCE54F16FDE55F06B1F008F137EA5B
:1041500043163DE5530609F0D2C30E9406190E949A
:1041600032164FEF54E38CE0415050408040E1F76D
:1041700000C000000E94E30B8091E00382FB8827CF
:1041800080F991E089270E94AD15B9C381E0FBCF8A
:1041900080E0F9CFC8010E94E109F82EBFC3E12FEA
:1041A000EF70EE2E107F19F0E29490EFE922FF20DD
:1041B000B9F0EE2069F080E2800F883010F0A11095
:1041C00009C080919D03E82AE0929D030E9410128D
:1041D000802F4DC080919C03E82AE0929C03F6CF8B
:1041E000802F0E94A513EE2009F443C0005E083022
:1041F00010F0A11004C08E2D0E94710906C0E09439
:1042000080919C03E822E0929C030E94101231C02E
:10421000F12FFF70EF2E107F103219F0E29480EF33
:10422000E822AA20A1F021E0A21609F482C0FF2012
:1042300009F48CC0DD2009F482C0D30115968C915D
:10424000159780FFC5CF8F7015968C9378C02091FD
:10425000E00322FD46C0FF20F1F1EE2039F080910D
:104260009D03E82AE0929D030E94101280E00E94C4
:104270006314AB2DA850BB0B149720F40E94E505E6
:104280000E94510ECC20A9F08091DE0380FD11C068
:10429000F30112828595859585950E942E13C301A1
:1042A0000E941C198091DE038595859585950E9455
:1042B000EC1220E0D3014C9111965C91119712966B
:1042C0006C91129713967C91139714968C910E947F
:1042D000BB0F0C94341980E00E94A513EE2049F224
:1042E0008ACFFF20A1F09091A002892F8E29D110B2
:1042F00003C00E949B13BDCF31E0D312FACF22FF3F
:10430000B8CF891709F4B5CF8093A002B2CFD110EE
:1043100006C00E946B098E2D0E949413AACF41E023
:10432000D41609F4A6CF8E2D0E9494130E946B0917
:10433000A0CFFF2031F055E05D1508F49ACF8E2D07
:10434000D8CF84E08D1508F494CFE5CFDD2019F3A4
:10435000B9E3AB1209C0EFEFF7EE23E0E150F04014
:104360002040E1F700C00000802F0E94A51381CFFC
:10437000812F86958695837061F0813009F079CF21
:10438000C8019370F11002C080E090E00E949B058C
:1043900070CFC8019370F11002C080E090E00E94DD
:1043A000C00567CF6F2D802F0E944B0A62CF812FEF
:1043B000837089F5F1105DCF402F42954695477087
:1043C000440F440F802F8F70042E01C0880F0A9471
:1043D000EAF7202F207104FF07C02FE030E001C072
:1043E000220F4A95EAF7209516951695137012300C
:1043F00069F050F43091A102113029F0822B83230F
:104400000E94851336CF832B822BFACF282B8091E5
:10441000A1028227F5CF8695FF2011F0812F8170B0
:10442000882309F426CF402F429546954770440FC4
:10443000440F802F8F70042E01C0880F0A94EAF772
:10444000202F207104FF07C02FE030E001C0220FB1
:104450004A95EAF72095169516951370123069F073
:1044600050F43091DD03113029F0822B83230E9418
:10447000D912FFCE832B822BFACF282B8091DD031C
:104480008227F5CF1F70FF2029F0812F0E942E1365
:10449000802F2FCF802F0E949413812F0E94EC1227
:1044A000E8CE802F32EFA316B1F13A1570F040EF4D
:1044B000A416D1F051EFA51691F0FF2009F453C0D6
:1044C000D11086CE812F8F712AC093EFA91651F19A
:1044D000A4EFAA12F2CF8091E00382FD2FC0812FBA
:1044E0008F71FF20D9F21BC0FF2081F0B4E0BD1511
:1044F00008F4BFCE1F7181E090E0012E01C0880F4B
:104500000A94EAF79091DD038927B1CFE5E0ED1534
:1045100008F4AFCEEFCF812F8F71F110BFCF0E9483
:104520002E13A7CE80E0FF2009F4A1CF1F7181E0F8
:10453000012E01C0880F0A94EAF799CFFF2041F0BD
:104540001F71812F0E942E13812F0E943A1391CE4A
:1045500081E00E94F912F1E0FD1508F08ACE82E0B8
:104560000E94F91286CEDD2059F0893309F0FCCE85
:104570002FEF37EE43E0215030404040E1F7F2CEDC
:10458000812F8F718BCF992029F0DC0118968C91A7
:1045900085FF54CBC20197558F3F910511F008F06C
:1045A00055C17201FF24BEE04B9EF00111248F0122
:1045B000095E1E4FD30112968C91E45EFE4F9081EE
:1045C00080FB90F99083882309F43FCB0E948F05EC
:1045D0009093C0028093BF02F80182818F5F828333
:1045E00080919C0390919D03892B83838091A002ED
:1045F00084830680F781E02D309731F0D8011C9636
:104600006D917C91C80109958EE08E9DF0018F9D82
:10461000F00D1124E95EFE4F858181FF13CB90E000
:1046200080E090939E0380939F032BC0809127028C
:10463000909128028415950581F410922802109219
:1046400027021092910310929203109293031092FA
:104650009403109299031092980380919A03909179
:104660009B03009709F496CFA8E0CA16D10408F07E
:10467000DACA632D0E944306811103C081E00E94C3
:10468000FD13D30112968C91882309F411C1109265
:10469000DC03B1E64B16BDE55B0699F008F0F0CA05
:1046A000F2E04F16FCE55F0608F4FBCA26E142166D
:1046B0002CE5520630F0C2018A5F9C45099708F04C
:1046C000F0CA84E090E00E94BB309093E0038093B6
:1046D000DF0393E149169CE5590609F405CC08F07F
:1046E00049CBBAE04B16BCE55B0609F4D9CB08F020
:1046F0000ACBF5E04F16FCE55F0609F4BDCB08F0E8
:10470000E8CA33E043163CE5530609F4ABCB08F0A6
:10471000AFCB8091DF03816052E045165CE5550622
:1047200009F4A3CB6091DF037091E00384E090E093
:104730000E94DF300E9432160C943E19F0E14F16B1
:10474000FFE55F0609F41CCA21E142162FE5520677
:1047500009F420CAFFE54F16FDE55F0609F420CAFB
:1047600020E642162DE5520659F03EE543163DE59A
:10477000530609F086C880910E01882309F410CAF7
:1047800010920E0180E00E94FD130C943E1921E06E
:1047900012966C91129713967C91139714968C91A4
:1047A0000E94BB0F1C01F3018281882369F1809173
:1047B0009E0390919F03009739F18215930521F193
:1047C000BEE08B9FC0011124FC01E45EFE4F2081FE
:1047D00024602083895E9E4FFC01318220820E94EA
:1047E000921210929C0321E0D3014C9111965C919E
:1047F000119712966C91129713967C9113971496B9
:104800008C910E94BB0F1C01C10181509545210173
:104810008F3F910510F4B5E55B26F3019280992056
:1048200011F40C94021CFFEF4F16510409F010F420
:104830000C944F192AE242162DE5520611F40C94FD
:1048400038191092260221010C949819F3EF4F1693
:10485000FCE55F0609F405CAD0F438ED43163CE5E3
:10486000530609F4FAC949ED44164CE5540609F417
:1048700004CA57ED45165CE5550609F002CF26E25D
:1048800041EE61EEC3010E9434150C943E1985EF90
:1048900048168CE5580609F4ECC908F4E6C927E285
:1048A00045EE66EEA6EF4A16ACE55A0659F3E9CE98
:1048B000B6E14B16BCE55B0609F4C5C080919D03CB
:1048C0008272ECEC4E16ECE55E0609F409CC08F0B9
:1048D00087CB26EC42162CE5520609F4EDCB08F006
:1048E00057CB43EC44164CE5540609F4DBCB08F0F7
:1048F0003CCB82EC48168CE5580609F4B7CBF301A3
:10490000828100811181882309F444CCC8010E946E
:10491000550FF82E682FC8010E94150AB8018F2D77
:104920000E94470F0E94DE078C01A82ED301129629
:10493000FC9012971596DC90D2943FE0D3228091A0
:10494000DE038770C1F0CF2CFF20B1F0812F807F74
:10495000803421F080E2800F883068F08091E0039D
:1049600082FF09C082E00E94F9128091DE03877005
:10497000CC24C3948111C12CB12EB2942FE0B22269
:10498000BBE0BB1508F475CCEB2DF0E0EC59FE4C08
:104990000C94C22FE114F10411F00C94D51C912C4D
:1049A000F12CE12C80E00E94FD1310939B030093F7
:1049B0009A0381E080939703F801858180939503A2
:1049C00091100EC0EF2861F0D8018D919C919C014F
:1049D00024503109213A310508F007C90E947809AD
:1049E000F801E680F780C7019A9581159F4110F480
:1049F00020EEF222BB24B394C7010197843B9D456E
:104A000008F0B12CD8011996ED91FC911A973097C6
:104A100031F01B966D917C9181E00995B822BB2005
:104A200079F0F801868197810E94340B8093960378
:104A3000C701F8E0CF16D10408F0DAC80E94F205E9
:104A40000E941012DCC88091290281118ACA89E271
:104A500089CA1F93CF93DF9380914D02807F09F025
:104A600049C080914A02882309F444C080917F02A2
:104A7000D0914E026091480270914902A0914B0280
:104A8000B0914C02C62FC72316E0D81799F190E0D9
:104A9000109711F0CF3F19F401968770F6CF189F49
:104AA0009001199F300D1124F901E15BFD4F418107
:104AB0004713F2CF40814613EFCF42814111ECCF33
:104AC000438154814A1B5B0B483C510528F7809178
:104AD0004D028F70806180934D02F901EC5AFD4FB9
:104AE00080818F708061808388E492E00E941C192D
:104AF0000E94D709DF91CF911F910895A1E1B0E005
:104B0000E4E8F5E20C94E62F8C0185E0F801DE0183
:104B10001D9601900D928A95E1F7F801E28088E4F4
:104B2000A82E82E0B82E60914B0270914C02611564
:104B3000710509F426C19091480240914902892FDC
:104B400084238F3F09F41DC120813181C380D4802B
:104B5000F0904A02F601E61BF70BFF2009F4DCC0D7
:104B600080914D02582F507FE83CF10508F09FC01E
:104B700051116BC0FE2C431314C0921312C0E110EC
:104B800010C08F70806180934D02C5010E941C1976
:104B900080914D02F80185838F2D6196EAE00C9497
:104BA0000230C114D10429F0822F83238F3F09F0F2
:104BB00003C180E0F82FF170DF2E80FF3CC08091B0
:104BC0007F0240914E0256E0841315C02D873E8728
:104BD0008D859E850E94840F292F22952F7022306B
:104BE000F0F0243018F59F70F1F0F8019581907F76
:104BF000D1F4D12C1EC090E0589FF001599FF00DC8
:104C00001124E15BFD4F6181361306C060812613DC
:104C100003C06281E6120FC001968770D5CF9F70E6
:104C200011F0882331F3805E883018F3C8010E94A8
:104C30001C19FD2CB1CFEE2009F4AECF80914D02AE
:104C4000816080934D02F12CA7CF431306C09213CD
:104C500004C0F801EE2009F479C0C8010E94910F48
:104C6000882309F1EE20F9F080914D02803270F036
:104C7000209148023091490238872F831986DB86BC
:104C8000CA868C87CE0107960E941C1986E0F8011F
:104C9000A8E4B2E001900D928A95E1F70E942925DF
:104CA000FF24F39479CFC8010E941C19F9CF511148
:104CB0000AC088E492E00E941C1986E0F501119276
:104CC0008A95E9F7C0CF43130FC092130DC0E110CE
:104CD0000BC0F8018583C8010E941C1986E0F5010C
:104CE00011928A95E9F758CFC8010E94910F882345
:104CF000D1F2EE20C1F280914D02803238F2209143
:104D00004802309149023A8329831B82DD82CC829A
:104D10008E83CE010196B8CFE83CF105F8F6FE2C63
:104D2000EE2009F243131FC092131DC080914D0263
:104D300080FD10C0982F907F69F0F8018583903F27
:104D400031F0982F907F905F8F70892B8583C801F9
:104D50000E941C1986E0F801A8E4B2E001900D92CF
:104D60008A95E1F719CFC8010E94910F81118ECF6A
:104D700080914D02816080934D02C8010E941C19F0
:104D80000BCFEE2009F48FCFC8010E94910FF82EAF
:104D9000882309F488CF86E0F801A8E4B2E0019006
:104DA0000D928A95E1F780914802909149020E9404
:104DB000840F0E942925F0CE81E08E25FBCEA7E14D
:104DC000B0E0E5EEF6E20C94ED2F4B8B5C8B6D8B37
:104DD0007E8B8F8B611110929C031A8A198A85E051
:104DE000FE017396DE011D9601900D928A95E1F702
:104DF00086E0FE013D96DE01179601900D928A95A0
:104E0000E1F7CE0107960E947E25882359F016E02F
:104E100080917F0290914E02891343C06796E3E030
:104E20000C94093086E0FE013796DE011196019060
:104E30000D928A95E1F78A859B85892B41F38F81B5
:104E4000988589238F3F19F320914E0230E0C901E4
:104E500001968770992740917F024817190671F4CF
:104E60000E94321610924E0210927F0286E0E8E411
:104E7000F2E0DF011D928A95E9F7C9CF96E0929F93
:104E8000D001939FB00D1124A15BBD4FFE0131965F
:104E900001900D929A95E1F780934E020E94D709F6
:104EA000B6CF819FC0011124815B9D4F0E947E255A
:104EB000882309F4B3CF80917F0290E00196877038
:104EC000992780937F02A4CFAAE0B0E0EAE6F7E258
:104ED0000C94E42F8E010F5F1F4F8AE0F8011192AE
:104EE0008A95E9F794E9E92E91E0F92E6801AA2460
:104EF000A394B12CF70181917F018F3F09F446C043
:104F0000F894E82FE295EF70F0E021A18F70A501F1
:104F100002C0440F551F8A95E2F7CA01922F982BC1
:104F200091A392A18095892382A3789400C0E9E996
:104F3000F1E021E030E0912C812C41914F3F09F4C8
:104F400067C0A42FA295AF70B0E090968C9190E0CE
:104F50004F7002C0959587954A95E2F780FD58C03D
:104F6000C901882A992A220F331F51E0E93AF5072F
:104F700021F7F701319780818F3F11F00E9484075C
:104F800080EA8A95F1F7F60191828082F2E0CF0EF5
:104F9000D11C49E9E41641E0F40609F0ABCF4AE040
:104FA00050E0B80185EA92E00E94A030892B99F187
:104FB0008AE0F801A5EAB2E001900D928A95E1F746
:104FC00081E08093A4020E948F059093A3028093B6
:104FD000A2028091A2029091A3020E9474050597FB
:104FE000F0F04AE050E065EA72E082EC92E00E9464
:104FF000A030892BC9F08AE0E5EAF2E0A2ECB2E049
:1050000001900D928A95E1F781E01092A40208C008
:1050100090E080E0A6CF8091A4028111DACF80E0F9
:105020002A96ECE00C94003080E0EFCF1F920F92B4
:105030000FB60F9211242F933F934F935F936F936B
:105040007F938F939F93AF93BF93CF93DF93EF9310
:10505000FF93D091E900DF708091EC00C82FC17000
:1050600080FDC0E81092E9008091F000877F809376
:10507000F00078940E9448161092E9008091F000A8
:1050800088608093F000CD2BCF70C093E900FF9132
:10509000EF91DF91CF91BF91AF919F918F917F91D0
:1050A0006F915F914F913F912F910F900FBE0F9095
:1050B0001F9018951F920F920FB60F9211242F93E5
:1050C0003F934F935F936F937F938F939F93AF9390
:1050D000BF93EF93FF938091E10082FF09C080911D
:1050E000E20082FF05C08091E1008B7F8093E100A8
:1050F0008091DA0080FF24C08091D80080FF20C01A
:105100008091DA008E7F8093DA008091D90080FF51
:105110009DC080E189BD82E189BD09B400FEFDCF5B
:1051200081E08093D0038091AB03811109C00E947C
:1051300017040E94B8048091E20084608093E2002A
:105140008091E10080FF17C08091E20080FF13C0D2
:105150008091E2008E7F8093E2008091E200806186
:105160008093E2008091D80080628093D80019BCBF
:1051700085E08093D0038091E10084FF2BC0809173
:10518000E20084FF27C080E189BD82E189BD89B545
:10519000982F917080FFFBCF8091D8008F7D8093F6
:1051A000D8008091E1008F7E8093E1008091E20041
:1051B0008F7E8093E2008091E20081608093E20024
:1051C0008091D103882309F447C084E08093D00301
:1051D0008091D0038091E10083FF27C08091E2009D
:1051E00083FF23C08091E100877F8093E10082E00C
:1051F0008093D0031092D1038091E1008E7F809341
:10520000E1008091E2008E7F8093E2008091E200D5
:1052100080618093E20042E060E080E00E948604CA
:105220008091F00088608093F000FF91EF91BF9132
:10523000AF919F918F917F916F915F914F913F912E
:105240002F910F900FBE0F901F90189519BC1092C0
:10525000D0031092AB0374CF8091E30087FD93E0FD
:105260009093D003B5CF78941F921FB61F9211244C
:105270008F939F93AF93BF938091A7039091A803BF
:10528000A091A903B091AA030196A11DB11D80931D
:10529000A7039093A803A093A903B093AA03BF9177
:1052A000AF919F918F911F901FBE1F9018951F92D5
:1052B0001FB61F9211248F939F93AF93BF9380913A
:1052C000A603811113C08091A7039091A803A09118
:1052D000A903B091AA034196A11DB11D8093A70314
:1052E0009093A803A093A903B093AA03BF91AF9191
:1052F0009F918F911F901FBE1F901895CDB7DEB75D
:10530000AA970FB6F894DEBF0FBECDBF85B78068F1
:1053100085BF85B7806885BF84B7877F84BF0FB698
:10532000F894A89580916000886180936000109245
:1053300060000FBE80E890E00FB6F89480936100A3
:10534000909361000FBE82E897E09093E50180930F
:10535000E4010E9417040E94B8048091E200846076
:105360008093E20078948091D0038823A1F010917B
:10537000E9001F709091EC00892F817090FD80E80A
:10538000182B1092E9008091E80083FD0E944816D6
:105390001F701093E90082E084BD93E095BD9AEF01
:1053A00097BD80936E000E94DE0F811102C00E94A3
:1053B000080F04E911E0D8018D918D018F3F11F0A4
:1053C0000E948407B1E009391B07A9F709E911E038
:1053D00099EAE92E91E0F92EF80181918F018F3F32
:1053E00011F00E948407E016F106B1F78AE0E2ECC2
:1053F000F2E0DF01282F1D922A95E9F7E5EAF2E0B5
:10540000DF011D928A95E9F740E060E080E00E94AC
:10541000CB0D0E942616811102C00E94C41582E0A5
:1054200090E00E94AD308093B40284E090E00E944E
:10543000BB309093E0038093DF030E946427EFE387
:10544000FCE93197F1F700C000000E9464278091C9
:10545000C20280FF08C06FEF7FEF90E080E00E9403
:10546000DF300E94E30B83E090E00E94AD300E94A9
:1054700085138091DD030E94630E879A8F9A809135
:10548000AF02811133C00E942616811104C00E9410
:10549000C4150E94FF1188E090E00E94B53060932F
:1054A00084037093850380938603909387036E7FB4
:1054B00071F40E94FF1188E090E00E94B530609383
:1054C00084037093850380938603909387030E94DF
:1054D0006A061092E0028091840380FF04C060E0BD
:1054E00086950E949F1181E08093AF028091DF0337
:1054F00080688093DF036091DF037091E00384E0B4
:1055000090E00E94DF300E94E50580FF03C083E544
:105510000E9416158FE091E09093A3038093A2035D
:1055200088E1682E712C552453944424439480912F
:10553000D00300E112E1853009F4A5C00E94642780
:1055400015EBA12E12E0B12E02EC802E02E0902E7F
:105550004FEB52E0D401F501219131918D919D9154
:105560004E175F0709F4ACC028173907A9F3312C8F
:10557000D4010D911D914D01F501C190D1905F01B4
:10558000C016D10659F1C026D126212CEE24E39471
:10559000F12CC6018E219F21892BB1F02EA23FA2B2
:1055A00021E0C8018E219F21892B09F420E028A742
:1055B0000E948F058160782F9AA789A74EA15FA1CD
:1055C00068A58AA50E94DF262394EE0CFF1CF0E15B
:1055D0002F12DFCFF501329711830083339425E03A
:1055E0003212C6CF0E9483058DC08091D0038430D3
:1055F00009F438C080E00E94510E1092E0028091C0
:10560000B10281110DC04092B10280918403982FA4
:1056100091709093B0028E7F809384030E94070C58
:105620001092A603F0E40FB6F894A895609260007B
:105630000FBEF093600083B7817F846083BF83B720
:10564000816083BF7894889583B78E7F83BF0FB6C0
:10565000F894A89580916000886180936000109212
:1056600060000FBE8091CF03882369F00E946427F9
:10567000E2ECF2E081919191892B09F018C422E0CB
:10568000EC3CF207B9F78091D003853009F4ADCF37
:105690000E9432160E94E5050E94510E1092B1023E
:1056A0008091B002882349F08091840381608093C7
:1056B000840360E086950E949F110E9491103ECF66
:1056C0002817390709F053CF0E948F058C0180916C
:1056D000B2029091B30208171907A1F08FEF89A3C6
:1056E0008AA31BA20E948F058160782F9DA38CA3A3
:1056F00049A15AA16BA18DA10E94DF261093B3028C
:105700000093B2028091980390919903892B09F438
:105710004EC040918D0350918E0360918F03709124
:1057200090032FB7F8948091A7039091A803A091BC
:10573000A903B091AA032FBF841B950BA60BB70B2F
:105740004091890350918A0360918B0370918C037F
:1057500084179507A607B70750F100919803109199
:105760009903C8010E94340B9801205E310928304A
:10577000310520F00115110509F07DC10E949B1330
:10578000802F0E9463141092990310929803109234
:105790008D0310928E0310928F031092900310923B
:1057A000890310928A0310928B0310928C0300914C
:1057B0009E0310919F0301151105B9F08091BF025E
:1057C0009091C0020E947405893C910570F04EE0F2
:1057D000049FC0011124FC01E45EFE4F208122FDE4
:1057E00004C0895E9E4F0E9492128091E00288233D
:1057F000D1F18091DF02E0918403E695E81BE0930C
:10580000DB02823009F03AC1F0E0EB57FD4FE49142
:105810000E2F10E0FDE3EF2EFEE0FF2E8091DC0264
:10582000882361F01092DC020E948F059093DA02C7
:105830008093D9021092DE021092DD020E948F0541
:10584000E091D902F091DA028E1B9F0B8F3F9F47A8
:1058500050F4E00FF11FF093DA02E093D90289EDE2
:1058600092E0F701099586E0E3EDF2E0DE011196A2
:1058700001900D928A95E1F71092D5021092D6020E
:105880001092D7021092D8028B819C81892B09F447
:105890004AC08091D1029091D2020E9474059C016D
:1058A0009091CC02992309F426C325313105D8F112
:1058B0009F3F19F09F5F9093CC021B81112359F0F9
:1058C0000E9462079FEF11160CF491E0899F802DD2
:1058D00011248093D5021C81112359F00E94620784
:1058E0009FEF11160CF491E0899F802D1124809375
:1058F000D6023091D5023323B1F02091D602222373
:1059000091F045EB3403C0011124992309F422C11D
:105910009093D50245EB240390011124332309F41D
:105920001CC13093D6028D819E81892B09F44AC017
:105930008091CF029091D0020E9474059C019091B9
:10594000CD02992309F4D2C221353105D8F19F3F08
:1059500019F09F5F9093CD021D81112359F00E9491
:1059600040079FEF11160CF491E0899F802D1124C0
:105970008093D7021E81112359F00E9440079FEFA8
:1059800011160CF491E0899F802D11248093D80288
:105990003091D7023323B1F02091D802222391F025
:1059A00045EB3403C0011124992309F4D9C0909325
:1059B000D70245EB240390011124332309F4D3C00B
:1059C0003093D80246E050E0BE016F5F7F4F83ED19
:1059D00092E00E94A030892B61F48091D5029091D1
:1059E000D602892B9091D702892B9091D802892BCE
:1059F00011F00E94190786E0FE013196A3EDB2E096
:105A000001900D928A95E1F70E94E505182F80918B
:105A1000C102181739F01093C1020E948305812F2B
:105A20000E94510E8091D003843009F080CD83E034
:105A30008093E9008091E80082FF79CD8091E800B1
:105A400090E085FF06C00E943604882309F48EC0CA
:105A500091E08091E8008B778093E800992309F426
:105A600066CDE981E150E33108F0F6C0F0E0E0599D
:105A7000FE4C0C94C22F0E948A1382CE863059F4B9
:105A8000F0E0EE57FD4FE4910E2F10E0EDE2EE2E28
:105A9000EEE0FE2EC3CE893061F4E695F0E0E158E9
:105AA000FD4FE4910E2F10E071EAE72E7DE0F72E16
:105AB000B5CE8F3061F4E695F0E0E458FD4FE49107
:105AC0000E2F10E06CE3E62E6DE0F62EA7CE8531AA
:105AD00059F4F0E0E758FD4FE4910E2F10E05EEE30
