:100000000C94DB030C9413040C9413040C9413044D
:100010000C9413040C9413040C9413040C94130404
:100020000C9413040C9413040C945A280C94162862
:100030000C9457290C9413040C9413040C9413047B
:100040000C9413040C9413040C9413040C941304D4
:100050000C9413040C9433290C9413040C9413047F
:100060000C9413040C9413040C9413040C941304B4
:100070000C9413040C9413040C9413040C941304A4
:100080000C9413040C9413040C9413040C94130494
:100090000C9413040C9413040C9413040C94130484
:1000A0000C9413040C9413040C941304050109021A
:1000B000A10185020901A1000509190129081500FE
:1000C0002501950875018102050109300931158165
:1000D000257F95027508810609381581257F9501D0
:1000E00075088106050C0A38021581257F95017572
:1000F000088106C0C005010980A101850319012AF4
:10010000B700150126B700950175108100C0050CD8
:100110000901A101850419012AA002150126A002E6
:10012000950175108100C005010906A1018506052C
:100130000719E029E71500250195087501810205D9
:1001400007190029EF1500250195F07501810205B9
:10015000081901290595057501910295017503910D
:1001600001C00660FF0961A1010962150026FF00B8
:100170009520750881020963150026FF00952075FA
:10018000089102C005010906A101050719E029E748
:1001900015002501950875018102950175088101F9
:1001A0000507190029FF150026FF0095067508812F
:1001B000000508190129059505750191029501753C
:1001C000039101C0000000000000000000000000DA
:1001D000000000000000000000000000000000001F
:1001E00000000000000000007E0F00D4FFFFFFC7EA
:1001F0000000007800000000000000002A2B28000A
:1002000000000000000000000000000000000029C5
:10021000000000002C1E3420212224342627252E05
:10022000362D3738271E1F2021222324252633333D
:10023000362E37381F0405060708090A0B0C0D0E69
:100240000F101112131415161718191A1B1C1D2F35
:100250003130232D350405060708090A0B0C0D0E55
:100260000F101112131415161718191A1B1C1D2F15
:100270003130354C00047F3F1F64321464321478EF
:100280003C1E1E140A0500010101010101010101CA
:100290000202020202020202020303030303030337
:1002A0000304040404040404050505050506060604
:1002B0000606070707070708080808090909090AC1
:1002C0000A0A0B0B0B0C0C0C0D0D0D0E0E0E0F0F66
:1002D0000F101011111112121313141415151616F4
:1002E0001717181819191A1A1B1B1C1D1D1E1E1F63
:1002F0002020212222232424252626272829292AB2
:100300002B2C2D2D2E2F30313232333435363738D9
:10031000393A3B3C3D3E3F404142434445464748D5
:10032000494A4C4D4E4F50515354555658595A5BAB
:100330005D5E5F616264656668696B6C6D6F70724B
:10034000737577787A7B7D7E8082838587888A8CB7
:100350008E8F91939596989A9C9EA0A2A3A5A7A9EB
:10036000ABADAFB1B3B5B7BABCBEC0C2C4C6C9CBE2
:10037000CDCFD1D4D6D8DBDDDFE2E4E7E9EBEEF098
:10038000F3F5F8FAFDFFFFAA7F5540222325262822
:10039000292A2C2D2F3032333536383A3B3D3E401A
:1003A00042434547494A4C4E5051535557595A5C60
:1003B0005E6062646668696B6D6F71737577797B77
:1003C0007D7F81838587898A8C8E90929496989A76
:1003D0009C9E9FA1A3A5A7A8AAACAEAFB1B3B4B68B
:1003E000B8B9BBBCBEBFC1C2C3C5C6C7C9CACBCCE6
:1003F000CDCED0D1D2D2D3D4D5D6D7D7D8D9D9DAB9
:10040000DADBDBDBDCDCDCDCDCDDDDDDDDDCDCDC2D
:10041000DCDCDBDBDBDADAD9D9D8D7D7D6D5D4D355
:10042000D2D2D1D0CECDCCCBCAC9C7C6C5C3C2C12A
:10043000BFBEBCBBB9B8B6B4B3B1AFAEACAAA8A787
:10044000A5A3A19F9E9C9A98969492908E8C8A893F
:10045000878583817F7D7B79777573716F6D6B691C
:1004600068666462605E5C5A5957555351504E4CF1
:100470004A4947454342403E3D3B3A3836353332A0
:10048000302F2D2C2A29282625232229001E001F43
:100490000020002100220023002400250026002740
:1004A000002D002E002A004A004B002B0014001AD9
:1004B000000800150017001C0018000C00120013A3
:1004C000002F00300031004D004E00005704001690
:1004D00000070009000A000B000D000E000F00339A
:1004E00000340028002A0000000000E100E1001DA7
:1004F000001B00060019000500110010003600372F
:10050000003800E500015752000000E000E300E27F
:100510000000002C0000002C0000002C000000E671
:10052000000257E400500051004F0035003A003BF4
:10053000003C003D003E003F0040004100420043BF
:10054000004400450001000100490001004A00523A
:10055000004D004B000100010001000100010001FD
:10056000000100010001000100460001005000519F
:10057000004F004E000100010001000100010001D8
:1005800000010028014C00000000000100010001F2
:10059000000100B20001000100110A29030100015D
:1005A0000001000100010001000000010001000144
:1005B000000000010000004C0000000100000001EC
:1005C000000100656101000100010001000100015E
:1005D0000001000100010001005F006000610001F6
:1005E000005600570001000100A60001004A005219
:1005F000004D004B00010001005C005D005E000149
:10060000005500540001000100010001005000519C
:10061000004F004E000100010059005A005B00012C
:10062000000100280101000000000001000100019C
:10063000000100B2000100010001006200620063DD
:1006400000530001000100010000000100615D0194
:100650000000000100000001000000010000000196
:100660000001000100010001000100C25CCD5C013D
:10067000000100145CAA00A900AE00A8000100015E
:10068000000100010001000100005C010001000107
:100690000001000100010001000100010001000152
:1006A0000001000100010001000100010001000142
:1006B0000001000100010001000100010001000132
:1006C0000001000100010000000000010001000124
:1006D0000001000100010001000100100301000100
:1006E0000001000100010001000000010001000103
:1006F00000000001000000010000000100000001F6
:10070000001050010001000100010009025B00031C
:100710000100A0FA090400000103010100092111F0
:1007200001000122400007058103080001090401BE
:10073000000203000000092111010001222200072C
:1007400005820320000107050303200001090402BC
:1007500000010300000009211101000122B6000779
:1007600005840320000112010002000000086B70E4
:1007700011000100010200011C0369006B006B0005
:1007800069003600380020004100750072006F00DB
:100790007200610000001A03770075007100750097
:1007A00065002000730074007500640069006F002C
:1007B00000000403090411241FBECFEFDAE0DEBFFE
:1007C000CDBF04B603FE18C08091930390919403AB
:1007D000A0919503B09196038730904BA740B04B02
:1007E00059F410929303109294031092950310926F
:1007F0009603E0E0F8E3099511E0A0E0B1E0E0E362
:10080000F2E602C005900D92A43FB107D9F723E0AC
:10081000A4EFB1E001C01D92A339B207E1F70E9435
:100820007E290C94ED300C940000E8EDF0E080811E
:100830008E7F80831092E2001092DA001092E10025
:10084000A0EEB0E08C9181608C9380818F77808363
:1008500019BCA7EDB0E08C918E7F8C9380818F7E48
:10086000808310925B0308952091E4003091E500AD
:1008700095E6A9012091EC00822F817020FF06C02F
:100880008091E80080FF06C080E008952091E80094
:1008900022FD1AC080918003882389F0853089F079
:1008A0008091EB0085FD0FC02091E4003091E500C0
:1008B00042175307F9F29150E1F684E0089582E07F
:1008C000089583E0089581E00895EF92FF920F93D9
:1008D0001F93CF937C018B010E943404C82F811198
:1008E00017C08091E80085FD0BC08091E8008E77ED
:1008F0008093E8000E943404882399F3C82F08C02D
:10090000F70181917F018093F1000150110949F7AE
:100910008C2FCF911F910F91FF90EF9008958091B0
:10092000820387FF13C08091E80082FF06C0809198
:10093000E8008B778093E80004C0809180038111E8
:10094000F2CF0895809180038823D9F38091E80045
:1009500080FFF8CF8091E8008E77ECCF982F9093AE
:10096000E900242F762F50E0891731F07091EC00C8
:100970002091ED005091F00021FD07C09F5F97305E
:1009800071F78093E90081E008953091EB003E7F9C
:100990003093EB003091ED003D7F3093ED003091CE
:1009A000EB0031603093EB007093EC002093ED008E
:1009B0005093F0002091EE0027FDE0CF80E00895F5
:1009C000B0E0A0E0E6EEF4E00C943030C8EDD0E00A
:1009D00088818F7E8883E7EDF0E08081816080836D
:1009E00084E082BF81E080935B0388818E7F88836F
:1009F00002EE10E0F80110821092DA0081EEC82EAB
:100A0000D12CF601108288818F7788838881806855
:100A1000888388818F7D888319BC1092800310920F
:100A2000810310927F0310927E0390EEE92EF12C49
:100A3000F70180818B7F808388818160888342E099
:100A400060E080E00E94AE04F60180818E7F8083AA
:100A5000F801808181608083808188608083F701D4
:100A600080818E7F8083888180618883CDB7DEB767
:100A7000E8E00C944C30FC0180918803909189034C
:100A800086179707A0F06115710529F49091E80089
:100A90009E779093E80090E06115710551F49111F3
:100AA00008C08091E80082FF34C080E00895BC0156
:100AB000F2CF809180038823C1F18530C1F180910C
:100AC000E80083FD30C08091E80082FDEACF80918C
:100AD000E80080FFE1CF8091F3002091F200382FF1
:100AE0006115710519F02830310558F091E0283072
:100AF000310509F090E02091E8002E772093E8007E
:100B0000CBCF81918093F100615071092F5F3F4FEE
:100B1000E7CF80918003882341F0853041F08091B8
:100B2000E80083FFBECF81E0089582E0089583E06E
:100B30000895089580915D0308959C014FB7F8943E
:100B40008091540390915503A0915603B09157039F
:100B50004FBF821B930B08952FB7F89460915403F5
:100B60007091550380915603909157032FBF0895BC
:100B70002FB7F8948091540390915503A091560398
:100B8000B09157032FBF0895209151033091520324
:100B90002817390771F09093520380935103E09125
:100BA0004F03F0915003309721F00084F185E02D40
:100BB0000995089520914D0330914E032817390768
:100BC00071F090934E0380934D03E0914F03F091A9
:100BD0005003309721F00680F781E02D09950895A4
:100BE000E0914F03F0915003309729F00190F0818C
:100BF000E02D0995089580E00895CF93DF93EC01EF
:100C000040913E0350913F03609140037091410336
:100C10002FB7F8948091540390915503A0915603F7
:100C2000B09157032FBF841B950BA60BB70B843FC6
:100C30009140A105B10518F580913E0390913F03C5
:100C4000A0914003B091410380933A0390933B03FA
:100C5000A0933C03B0933D0384EF91E0A0E0B0E0AB
:100C60008093360390933703A0933803B0933903EE
:100C7000D0934603C0934503DF91CF9108950E941E
:100C8000AC0560933A0370933B0380933C039093CD
:100C90003D0382E390E0A0E0B0E0E2CFFC0184817C
:100CA000862351F492819923B9F06923808583FFCB
:100CB00005C081E061110FC080E00895892F8F7019
:100CC00092959F70982B862F8F7062956F70682B0E
:100CD00081E09613F1CF089581E0FDCFFA018111F3
:100CE00001C0FB0109950895089580913103982F63
:100CF0009E7F61F481708260809331038091340320
:100D0000893C18F088EC8093340308958A34B0F35A
:100D100081708864F1CFAF92BF92DF92EF92FF9221
:100D20000F931F93CF93DF93082F162FE901E42F22
:100D3000F0E0EA57FD4F611110C0E4915E2F4E2F95
:100D40004983E8835A83DF91CF911F910F91FF90E0
:100D5000EF90DF90BF90AF900895E62EF12C449174
:100D6000D42EE42FF0E026E0829FC00111242FEF63
:100D700030E0B9010E949E2F802F90E0880F991FCC
:100D800055E5569FD001579FB00D11248A1B9B0B30
:100D9000982F990F890F5901AE18BF08AE9ED00148
:100DA000AF9EB00DBE9EB00D11245B2F189F800129
:100DB0001124012F11275901A01AB10AAE9E8001FA
:100DC000AF9E100DBE9E100D11245901A81AB10836
:100DD000AE9CC001AF9C900DBE9C900D1124892F3C
:100DE0009927281B390B2E9FC0012F9F900D3E9FE6
:100DF000900D1124E92F62307105A1F050F46115B6
:100E0000710509F49DCF6130710581F0EB2F512FF1
:100E100097CF6430710569F080F06630710509F490
:100E20008FCFF4CFE42F4B2F592F8ACFE42F412FB0
:100E300087CFEB2F542F492F83CF4B2F5D2DE12FE1
:100E40007FCF0E94B8059C019091E4028091E50259
:100E5000982B21F03093E1022093E0029091E6027A
:100E60008091E702982B21F03093DF022093DE027D
:100E7000E0914F03F0915003309749F082E0809366
:100E8000E2020480F581E02D82EE92E0099508955A
:100E90004091E402803F59F48091E50287FF0DC044
:100EA0001092E50241110BC01092DC0208C0813F94
:100EB00081F48091E50218169CF3442381F080911F
:100EC000E6029091E702892B09F05AC01092DB02EA
:100ED0000895823F49F447FFF0CF1092E4028091D9
:100EE000E5028111ECCFE0CF833F19F41416ACF387
:100EF000E4CF9091E602893F29F41916F4F6109296
:100F0000E602DBCF8A3F19F497FFD7CFF8CF909155
:100F1000E7028B3F29F497FFD0CF1092E702CDCFA5
:100F20008C3F19F41916CCF3C8CF9CE0980F95307C
:100F300090F4845F990B21E030E0B90102C0660FA4
:100F4000771F8A95E2F7CB0180959091E302892380
:100F50008093E302B2CF8D3F31F48091DD028E7F2A
:100F60008093DD02AACF8E3F21F48091DD028D7F38
:100F7000F7CF8F3F09F0A1CF8091DD028B7FF0CFBB
:100F800008958091DD0280FD16C081FD16C082FDAE
:100F900016C08091DB028823A1F0883280F428E01B
:100FA000829FC001112468E270E00E94B22F862F58
:100FB000672B39F0089582E0089584E0089588E071
:100FC000089581E008958091DD0280FD14C081FDC7
:100FD00014C082FD16C08091DC02882381F08E311E
:100FE00080F420E5829FC00111246EE170E00E9430
:100FF000B22F862F089584E1089588E2089588E04D
:10100000089580E50895803F31F40E94E3078195BB
:101010008093E5020895813F19F40E94E307F8CF19
:10102000823F31F40E94E30781958093E4020895A2
:10103000833F19F40E94E307F8CF893F29F40E9407
:10104000C1078093E60208958A3F21F40E94C107F8
:101050008195F7CF8B3F31F40E94C1078195809332
:10106000E70208958C3F19F40E94C107F8CF9CE075
:10107000980F953070F4845F990B21E030E001C047
:10108000220F8A95EAF78091E302822B8093E30294
:1010900008958D3F31F48091DD0281608093DD02FF
:1010A00008958E3F21F48091DD028260F7CF8F3F5B
:1010B000B9F78091DD028460F1CF80E00895F89463
:1010C000E82FE295EF70F0E031A1282F2F7081E03A
:1010D00090E001C0880F2A95EAF7982F9095932306
:1010E00091A392A1892B82A3789408959091910362
:1010F00092FF06C0282F28712830F9F4877F84607A
:1011000093FF06C0282F28712831F1F4877E84616F
:101110002091920320FF06C0382F38713830D9F45F
:10112000877F816021FF06C0282F28712831D1F4E4
:10113000877E816194FD877E0895282F2471243055
:10114000F9F68B7F8860DCCF282F2471243101F7DA
:101150008B7E8861DDCF382F3171313019F78E7F6A
:101160008860E0CF282F2171213121F78E7E8861A0
:10117000E1CFCF93DF93EC0182389105A9F1D8F547
:101180008133910509F496C048F58932910509F437
:101190008AC08A9709F495C0C11521E5D20708F0E5
:1011A000BCC0C11530E5D30708F014C1C83ED10555
:1011B00008F09CC0C03ED10560F5C83AD10508F0E2
:1011C00087C0C53AD10508F0FDC0C130D10509F18D
:1011D0002097F9F0C430D105E0F440C08533910583
:1011E00009F45AC0C997C1F680919103837089F0C0
:1011F000C0EED0E00EC0833E910599F170F4803EC0
:10120000910501F1823E910539F68091910382FDAD
:1012100021C0CE01DF91CF910895863E910561F105
:10122000873E910571F1843E910509F0B5CF80911B
:10123000920381FFEECF80919103C7EED0E084FD51
:101240000DC0E7CF8091910380FD12C19091920370
:1012500090FFDFCFC3EED0E084FFDBCFD0E0C0E073
:10126000D8CF8091910382FD06C19091920390FDA9
:10127000BFCF84FFCECFF2CF8091910383FDDDCF2E
:10128000C8CF8091910383FDF9C09091920391FFA3
:10129000F0CFC4EED0E0BDCF8091910385FFB9CFF0
:1012A000C9E2D0E0B6CF8091910385FFB2CFC5E30C
:1012B000D0E0AFCF8091910386FFABCFCAE2D0E000
:1012C000A8CF8091910386FFA4CFC1E3D0E0A1CF46
:1012D000CF3BD10518F6C85AD0E0CC0FDD1FC4585B
:1012E000DE4F0990D881C02DD46493CFC11540E260
:1012F000D40758F4C11581E0D80708F08ACFC03F61
:10130000D10508F4ABCFD06584CFC11590E4D907DF
:1013100008F4A4CFDF70D06A7CCFC11525E5D207D1
:1013200000F5C11534E5D30708F08AC0C11543E5BF
:10133000D40708F071C0C11582E5D80708F467C06A
:10134000CE018370992721E030E002C0220F331FC5
:101350008A95E2F7C695C69580E2C89FE001112400
:1013600052C0C11599E5D907A8F4C11528E5D207DF
:1013700008F06BC0C11536E5D30708F06FCF8C2F8E
:101380000E947608C82FD0E0DC2FCC27CC27DF7155
:10139000D0623FCFC1154AE5D40708F45BC0CE0147
:1013A00090568115904208F059CF8D2F8F710E9471
:1013B000760890E0982F882788279F719C012C2B16
:1013C000E901E6CFC55AD0E0C758DE4FC881D0E06A
:1013D000D0641FCFCE01E4E096958795EA95E1F7BA
:1013E00083702C2F26952695237040E2249F900130
:1013F0001124382B8C2F8370C1E0D0E002C0CC0FB9
:10140000DD1F8A95E2F7C22BD32BDC6802CFDC2FDD
:10141000CC27C16FD06AFDCECE018370992721E021
:1014200030E002C0220F331F8A95E2F7C695C695B9
:1014300090E2C99FE0011124C22BD32BDA68E9CED8
:10144000DC2FCC27C46FD06AE4CEDC2FCC27C06F52
:10145000D06ADFCE8C2F8F700E94760834E0D6954C
:10146000C7953A95E1F7CF709C2FEC01D069D1CEAA
:10147000C9E3D0E0CECEC2EED0E0CBCEC6EED0E017
:10148000C8CE8091B202882331F01092B20210923D
:10149000B1021092B0020895809590914C03982368
:1014A00090934C030895909169019923D1F0909104
:1014B000910397FF16C0E82FE695E695E695EE3185
:1014C000E0F4F0E0EA50FE4F282F277081E090E032
:1014D00001C0880F2A95EAF780959281892382833B
:1014E0000895E8EFF1E09191891303C0DF011197AE
:1014F0001C9291E0EE3FF907B1F7089590916901D0
:101500009923C1F09091910397FF14C0E82FE695BD
:10151000E695E695EE31F8F4F0E0EA50FE4F87707C
:1015200021E030E001C0220F8A95EAF78281822B08
:1015300082830895A8EFB1E0EFEF90E02D9182173C
:1015400051F0EF3F19F4211101C0E92F9F5F963050
:10155000A9F7EF3F09F408950E2E000CFF0BEA5097
:10156000FE4FE6CF80918F0290915E02981301C0EA
:1015700008958F5F8770FACF953080F5803170F5D0
:1015800040E1949F90011124820F932F911D682FA9
:10159000677023E0969587952A95E1F7FC01EE0F99
:1015A000FF1FE80FF91FE65CFD4F50E040E080E0D0
:1015B000219130E0062E02C0369527950A94E2F775
:1015C00021703327042E01C0220F0A94EAF7822BE0
:1015D0004F5F5F4F4330510559F7089580E00895FC
:1015E000953098F5803188F540E1949F9001112461
:1015F000820F932F911D282F277041E001C0440FC7
:101600002A95EAF723E0969587952A95E1F7FC015C
:10161000EE0FFF1FE80FF91FE65CFD4F90E080E042
:1016200070E05191DF0111979B01082E02C03695A1
:1016300027950A94E2F72170219525272423252751
:101640002C9301968330910561F7089581FD02C0C6
:101650008F9A08958F980895982F92959F7011F002
:10166000892F94E0282F2695269511F09E5F822FD2
:10167000869509F09F5F892F08959C013A95211561
:101680003F4150F5FC01EE27F170BC0166277270F6
:10169000AC01442754709C012227387094FF0EC07F
:1016A00080E1EF2B09F480E0672B09F08062452B85
:1016B00009F08064232B89F08068089581E0EF2B86
:1016C00009F480E0672B09F08260452B09F0846003
:1016D000232B19F08860089580E00895FC01908123
:1016E000913029F48285882331F083E00895923087
:1016F00021F081E0089582E0089584E008958093C8
:10170000580370935A036093590380918003843087
:10171000F9F48093E9008FEF9091E800815095FDF6
:1017200006C095ED9A95F1F700008111F5CF8091F3
:10173000E80085FF0DC050E040E063E070E088E520
:1017400093E00E9465048091E8008E778093E80022
:101750000895BC0184E00E947F0B0895BC0183E0E2
:101760000E947F0B08959C0184E08093E9009FEF25
:101770008091E800915085FD06C085ED8A95F1F7CE
:1017800000009111F5CF8091E80085FF0CC050E07A
:1017900040E066E070E0C9010E9465048091E800C5
:1017A0008E778093E8000895CF93DF93EC018091CA
:1017B00069018823B1F18091910387FF32C060E213
:1017C00084E08093E9008FEF9091E800815095FDCF
:1017D00006C095ED9A95F1F700008111F5CF809143
:1017E000E80085FF1BC08091690170E050E040E097
:1017F000811104C050E040E068E070E0CE010E943A
:1018000065048091E8008E778093E80080E2FE0115
:10181000AEE5B3E001900D928A95E1F7DF91CF91AB
:10182000089568E081E0CDCF81E08093E00080E220
:101830008093D8001092C9008FE19EE40197F1F7E0
:1018400000C0000087E090EBDC018093930390934D
:101850009403A0939503B093960388E19CE00FB6A0
:10186000F894A895809360000FBE90936000FFCF1E
:101870008091310380FD0AC0E5EFF2E01182108211
:101880001282339653E0E133F507C1F76A9A3EB10D
:101890003B7F2EB124604FB7F89485EF92E0FC01B6
:1018A0005191CF0168E02EB9000000C057FF3EB94A
:1018B000550F000000C000C000C03EB900C06A95CE
:1018C00091F7F3E081339F0751F74FBF8FE594E025
:1018D0000197F1F700C000000895EF92FF920F9377
:1018E0001F93CF93DF938C01C5EFD2E0F12CE12C55
:1018F000F80194816091330380913203FAE0EF168E
:10190000F10404F5992301F140913403493C08F0B6
:1019100048EC9E010E948B062FEFE21AF20A2396F2
:1019200084E1E816F10421F70E94380CF801848163
:1019300090E00196817099278483CDB7DEB7E6E009
:101940000C944E30992301F39E0140E0E3CFB0E0C8
:10195000A0E0EDEAFCE00C942C30EC014C81042F6B
:1019600010E09801D8010E94FD2F9B01AC010E945C
:1019700013304B015C01E0E2F0E0E01BF10BA5E568
:10198000B0E0AC019B010E9413306B017C019F0110
:10199000DF010E94F52F9B01AC010E941E309B01CC
:1019A000AC01280D391D4A1D5B1DC701B6010E94FF
:1019B000C62FF22E822F90E039E23F15B0F143E0BE
:1019C000249F9001112435952795122F109595EF9E
:1019D000C92E92E0D92E00E085E5E82EEF188E2D75
:1019E00001FD8F2D412F193C08F048EC96016091C4
:1019F00033030E948B060F5F53E0C50ED11C0431E8
:101A000071F70E94380C9C8181E0992319F0903283
:101A100019F48FEF8093260180912601890F8C8322
:101A2000CDB7DEB7ECE00C94483025E530E0A901F5
:101A3000481B590BCA019A01220F331F280F391F67
:101A400037FFC1CF2F5F3F4FBECF0F931F93CF9371
:101A5000DF93C5EFD2E0FE0111821082128233962D
:101A600083E0E133F807C1F710E000E08091F30272
:101A7000082E000C990B08171907A4F18091250175
:101A8000082E000C990B8017910764F140913403E4
:101A9000493C08F048EC9E01609133038091320389
:101AA0000E948B060F5F1F4F239604311105F1F63C
:101AB0000E94380C809124019091F302980F90932A
:101AC000F30220912501280F20932501121614F40A
:101AD00093311CF0819580932401DF91CF911F9168
:101AE0000F910895198218821A82DCCFB0E0A0E02D
:101AF000ECE7FDE00C942F30FC018281DD24DA94C8
:101B000080FD02C0DD24D39405EF12E0D0E0C0E0F8
:101B100024E1B22EF80111821082128294E0E92EA3
:101B2000F12CC12C8091F2028C0D8531DCF16B2DF2
:101B30000E94902F892F082E000C990B8C179D075F
:101B4000A9F4809134038E9DA0018F9D500D112426
:101B50005595479555954795493C08F048EC9801AF
:101B600060913303809132030E948B06CD0CF1E02B
:101B7000EF1AF108B9F621960D5F1F4FC431D10558
:101B800049F60E94380C8091F20291E0D91210C0FF
:101B900081110CC083E18093F202CDB7DEB7E9E09A
:101BA0000C944B3087FFC7CF8C5EC5CF8150F3CFED
:101BB00090E00196BE010E94B22FEDCFEF92FF920E
:101BC0001F93CF93DF93EC0185EFE82E82E0F82E90
:101BD00010E040913403493C08F048EC8C819701B7
:101BE00060913303810F0E948B06145F83E0E80E3F
:101BF000F11C103F71F70E94380C9A818C8190FF84
:101C000008C08F5F8C83DF91CF911F91FF90EF9081
:101C100008958150F7CF9091310390FF0CC0E5EF0C
:101C2000F2E0818360834283339693E0E133F907E6
:101C3000C1F70E94380C0895A3E0B0E0E2E2FEE0B4
:101C40000C9434308C018091F40281110AC09E0101
:101C50002F5F3F4F48EC6FEF0E948B068A81809385
:101C6000F402F8016481613069F08091F40240E08F
:101C7000662361F040E0623011F44091F40280E0AC
:101C800060E004C06091F40240E080E00E940B0E2E
:101C9000F801848190E0019663E070E00E94B22F29
:101CA00084832396E4E00C945030A3E0B0E0EBE5AD
:101CB000FEE00C9436309091310390FF0DC0493C0A
:101CC00008F048EC9E012F5F3F4F0E948B064B812E
:101CD00069818A810E940B0E2396E2E00C945230B7
:101CE000CF93DF93EC01E1E3F3E0438162818C81E8
:101CF0000E94550E8C818F5F8C83DF91CF91089568
:101D0000CF93DF93EC01EC81F0E0E557FC4F449179
:101D1000E1E3F3E0628181810E94550E8C818F5F47
:101D20008C83DF91CF910895CF93C82F0E942C0B05
:101D3000823071F0833081F04FEF6FEF813051F4DA
:101D400041E16CEC8AEA0E940B0E8C2FCF91089532
:101D500040E069E98FEFF7CF47E760E08EEEF3CF21
:101D6000CF93DF93C7EAD2E060E0CE010E949F30BC
:101D70002196C11584E0D807B9F7DF91CF91089576
:101D80001F93CF93DF93122F8430E0F46530D0F4AB
:101D90004031C0F490E2699FE001112450E0440F0B
:101DA000551FC40FD51F90EA899FC00DD11D112466
:101DB000632FCE0187960E949F30612FCE018896B7
:101DC0000E949F30DF91CF911F910895AF92BF92F3
:101DD000CF92DF92EF92FF921F93CF93DF938BE826
:101DE000C82E84E0D82ED0E07601C0E014C0F50102
:101DF00025913491412F6C2F8D2F0E94C00E82E0CF
:101E0000A80EB11C1F5F103191F780E2E80EF11CA3
:101E1000CF5FC53019F0570110E0E9CFDF5F80EAEE
:101E2000C80ED11CD43001F7DF91CF911F91FF90E4
:101E3000EF90DF90CF90BF90AF900895CF93C82FD1
:101E40006FEF811161E283E290E00E949F306FEFBB
:101E5000C11167E084E290E00E949F306FEFC111F2
:101E600065E185E290E00E949F30CF91089580E087
:101E70000E941E0F60E086E290E00E949F300E9468
:101E8000E60E0E94B00E81E00E941E0F0895CF93CF
:101E9000C92F682F84E090E00E949F306C2F82E26F
:101EA00090E00E949F30CF9108950F931F93CF939E
:101EB000DF93843030F5653020F5403110F520E2B5
:101EC000629F8001112450E0440F551F040F151F1D
:101ED00030EA839F000D111D1124C80187960E94CE
:101EE0008B30C82FD0E0DC2FCC27C80188960E9409
:101EF0008B309E01282BC901DF91CF911F910F914B
:101F0000089590E080E0F8CF462F843040F475309B
:101F100030F4603120F4672F0E94550F089590E04F
:101F200080E00895CF92DF92FF920F931F93CF939B
:101F3000DF936C0100918D038091B302082BC7E001
:101F4000D0E010E0FC2EC8010C2E02C095958795BC
:101F50000A94E2F780FD0CC02197A0F7F12C8F2D99
:101F6000DF91CF911F910F91FF90DF90CF90089557
:101F7000B6018C2F0E94840F0E94B908019761F36B
:101F8000EECFCF93DF93EC010E94920FBE010E942F
:101F9000840F0E94B908DF91CF910895FC018081E0
:101FA00091810E94C10F92959F70963091F058F4E4
:101FB000925F9F70923058F4803F19F030F4883E61
:101FC00030F481E008959A5FF4CF843FD1F380E04C
:101FD0000895883EB0F3813FD1F7F3CF83E290E0DC
:101FE0000E948B30813289F484E290E00E948B3031
:101FF000873059F485E290E00E948B3091E0853182
:1020000009F090E0892F8170089580E0FCCFCF9394
:1020100084E090E00E948B30C82F82E290E00E9422
:102020008B30982F8C2FCF91089560913103669556
:1020300070E04BE050E089E191E00E94D330892BC1
:1020400019F481E08093F1020E94B8059093EB02AD
:102050008093EA020895CF92DF92EF92FF926B0194
:102060007C010E947506B701A60188E090E00E94FD
:10207000B130FF90EF90DF90CF900895A3E0B0E0F3
:10208000E4E4F0E10C942930E82E762EF42E622E52
:102090009091310390FF2EC0E92FE695AE2FB0E06E
:1020A000A154BE4F8C918093F0029E7F923031F507
:1020B00088EC841708F448EC9E012F5F3F4F672D92
:1020C0008E2D0E948B064B8169818A810E940B0EA6
:1020D000E092320370923303F0923403662051F0A1
:1020E00060913103709132038091330390913403F6
:1020F0000E942B102396EFE00C944530823019F4A7
:10210000F0903403E5CF863019F4E0903203E0CF4D
:102110008930D9F38931E1F6E9519E2F9170592E1A
:10212000E695F0E0EA57FC4FE4910E2F10E085EFC2
:10213000C82E82E0D82EB12CA12C94E1892E912CAE
:10214000C501B4010E949E2F8E2D511017C0860F1D
:102150004F2D98EC9F1508F448EC9601672D0E94CE
:102160008B06A00EB11E83E0C80ED11C91E3C916E8
:1021700093E0D90629F70E94380CAACF861BE8CF36
:10218000E1E3F3E0438128E0421B08F440E021E072
:10219000628181810E943E100895E1E3F3E0438172
:1021A00028E0420F08F44FEF21E0628181810E9414
:1021B0003E100895E1E3F3E0628128E0621B08F439
:1021C00060E021E0438181810E943E100895E1E3B7
:1021D000F3E0628128E0620F08F46FEF21E04381B1
:1021E00081810E943E100895E1E3F3E0818121E0C6
:1021F0004381628188500E943E100895E1E3F3E03C
:10220000818121E043816281885F0E943E100895B0
:1022100080913503882319F08150809335036091B4
:1022200031037091320380913303909134030E9403
:102230002B10089580913503833018F48F5F8093BD
:102240003503609131037091320380913303909193
:1022500034030E942B1008959091310390FF2CC0FD
:10226000917081112AC0926090933103662351F0DE
:102270006091310370913203809133039091340364
:102280000E942B1060913103669570E04BE050E0A6
:1022900089E191E00E94D330892BB1F01092F102D4
:1022A00081E08093ED0220E040913403609133039C
:1022B000809132030E943E100895853210F0986498
:1022C000D3CF880F982BD0CF0E941510E9CF109252
:1022D000E9028091E802882349F08091310381600E
:1022E0008093310360E086950E942C110E941510A6
:1022F0000895809131038695815009F484E261E06C
:102300000E942C1108958091310386958F5F85324C
:1023100008F081E061E00E942C1108959091310352
:1023200090FF08C09695981728F0961718F40E9409
:102330008311089561E00E942C110895E1E3F3E018
:1023400083E080831182128288EC8383148260810F
:102350007181828193810E942B100895AAE0B0E0E0
:10236000E4EBF1E10C9428308E010F5F1F4F8AE0FF
:10237000F80111928A95E9F79AEAE92E91E0F92E8F
:1023800068012FEA422E21E0522E66246394712CBC
:102390004FEB842E41E0942EF70181917F018F3F16
:1023A00009F445C0F894E82FE295EF70F0E021A120
:1023B0008F70A30102C0440F551F8A95E2F7CA012E
:1023C000922F982B91A392A18095892382A3789430
:1023D00000C0EFEAF1E021E030E0B12CA12C419106
:1023E0004F3F09F47EC0A42FA295AF70B0E0909645
:1023F0008C9190E04F7002C0959587954A95E2F7D1
:1024000080FD6FC0C901A82AB92A220F331F8E167A
:102410009F0629F7F701319780818F3F11F00E94C5
:102420005F0850EA5A95F1F7F601B182A082F2E016
:10243000CF0ED11C4E145F0409F0AECF4AE050E03D
:10244000B80187EB92E00E94E030FF24F3940097FC
:1024500009F4F12C892B09F447C08AE0F801A7EBB5
:10246000B2E001900D928A95E1F781E08093B60287
:102470000E94B8059093B5028093B4028091B40293
:102480009091B5020E949D05059790F18091B70249
:102490009091B8029093CF028093CE028091B902BE
:1024A0009091BA029093D1028093D0028091BB02A6
:1024B0009091BC029093D3028093D2028091BD028E
:1024C0009091BE029093D5028093D4028091BF0276
:1024D0009091C0029093D7028093D6021092B602D8
:1024E00007C090E080E08FCF8091B6028111C6CF07
:1024F0008F2D2A96E0E10C944430CF9380914C03C9
:1025000090914B03892B8093F6018091B20288232E
:1025100039F10E94B8052091B0023091B102821BBE
:10252000930B8C3D954010F00E94410A8091F6017A
:102530009091B202892B8093F601809169018823E2
:1025400009F447C08091910387FF43C08EE1E8EF13
:10255000F1E090E0815008F03EC091110E94410AE4
:10256000C0914203C0958091F601C8238091430336
:10257000C82BC093F60140E250E060E972E086EFBC
:1025800091E00E94E030892B11F180E2E6EFF1E06A
:10259000A0E9B2E001900D928A95E1F7E0914F0336
:1025A000F0915003309799F080916901882349F0A8
:1025B0008091910387FF05C0C093F70186E0809367
:1025C000F6010280F381E02D86EF91E00995CF912D
:1025D000089586E0BCCF2191222309F4BBCF9F5FF1
:1025E000B9CFCF93DF93EC0181E0898B80914C03CD
:1025F0009F81892B80934C0380914B039885892B75
:1026000080934B030E947D12EA81FB81309729F071
:102610006C897D89CE0106960995DF91CF91089549
:10262000EF92FF920F931F93CF93DF93EC018A8574
:10263000811139C0EB80FC8087E5F81A26E12E9DD8
:10264000C0012F9D900D1124DC01A95DBE4F149691
:10265000ED91FC911597309731F054966D917C91E6
:10266000835D9E4F099586E18E9D80018F9D100DA3
:102670001124095D1E4FF80187810E944C0AF80160
:102680008085982F909580914B03892380934B03ED
:102690000E947D12188219861B861E821D8210924E
:1026A0004A0310924903CDB7DEB7E6E00C944E30F2
:1026B00090E080E00E94DA0590E080E00E94C4058E
:1026C00010924B030E947D1286E0E2EEF2E0DF0101
:1026D0001D928A95E9F71092DC021092DB021092AB
:1026E000DD020E94210708950E94940E80938D03BD
:1026F0000E945813089580918D03982F96709630FC
:1027000021F488600E9474130895877FFBCF21E035
:1027100030E001C0220F8A95EAF7209580918D0361
:1027200082230E94741308959091900380958923C9
:1027300080939003282F2770B1F4282F082E000CC7
:10274000330B9217130679F09091920392FF0BC00E
:102750008595859585950E94871310929003109218
:102760008F0310928E0308959091920392FB22277B
:1027700020F9281769F080FB92F9909392038091D9
:102780009103909192030E94470F82E00E9494135C
:10279000089580910901833011F40E9487130895F0
:1027A00080910701833019F482E00E948713089515
:1027B00080910501833019F481E00E948713109203
:1027C0000501089521E030E001C0220F8A95EAF763
:1027D00080918D03822B0E9474130895909192032F
:1027E00092FF10C098E0899F9001112423602093EC
:1027F00090030E94E2130E94B80590938F03809388
:102800008E0308950E94E21308950E946E0B809338
:1028100009018330A9F0843049F08230A1F483E0CB
:102820000E94EE1381E00E949413089580918D031D
:10283000882331F083FF04C083E00E94871308954A
:1028400083E00E94E21308950E946E0B80930701BB
:102850008330A1F0843041F0823099F40E94EE136D
:1028600081E00E949413089580918D03882331F0B4
:1028700082FF04C082E00E948713089582E00E94D4
:10288000E21308958093B3020E9458130895882399
:1028900039F090914B03982B90934B030E947D123B
:1028A0000895882321F00E944C0A0E947D12089509
:1028B000882339F090914C03982B90934C030E94FD
:1028C0007D120895882309F455C0823879F40E9456
:1028D000F00581FF4FC089E30E947E0A0E947D12AD
:1028E00089E30E94530A0E947D120895833859F4A7
:1028F0000E94F00580FF3EC083E50E947E0A0E9490
:102900007D1283E5EECF843859F40E94F00582FFF2
:1029100031C087E40E947E0A0E947D1287E4E1CFE5
:102920009CEF980F913AE8F290E2980F983050F4AB
:10293000877091E001C0990F8A95EAF7892F0E946C
:102940004C0AD1CF9BE5980F933028F490E080E0BB
:102950000E94DA05089598E5980F973128F490E0E1
:1029600080E00E94C4050895803F20F00E9448073F
:102970000E9421070895FF920F931F93CF93DF9337
:10298000F82E00914703109148030115110509F431
:1029900049C01092460310924503109242031092D0
:1029A0004303D8011696CD91DC919E013A952115ED
:1029B0003F4108F4D07ED1E0C11101C0D0E0D80180
:1029C0001996ED91FC911A97309731F01B966D9105
:1029D0007C9180E00995D823DD2339F08CEF8C0FB2
:1029E000813A30F58C2F0E94530AFF2099F0E09134
:1029F0004703F0914803808584FD0CC08091440317
:102A0000882341F0808191819C01215031092C3A29
:102A10003D45A0F00E947D1210924803109247039A
:102A200010924403C801CDB7DEB7E5E00C944F30F7
:102A30000E947D128C2F0E946214D7CF0E94FD0548
:102A4000E9CFCF93C82F8823C9F08238C9F40E94F8
:102A5000F00581FD13C089E30E947E0A0E947D1269
:102A60002FEF81EE94E0215080409040E1F700C0CC
:102A7000000089E30E94530A0E947D12CF910895BD
:102A80008338A1F40E94F00580FDF8CF83E50E9411
:102A90007E0A0E947D122FEF81EE94E0215080404B
:102AA0009040E1F700C0000083E5E4CF8438A1F452
:102AB0000E94F00582FDE2CF87E40E947E0A0E9418
:102AC0007D122FEF81EE94E0215080409040E1F79D
:102AD00000C0000087E4CECF8CEF8C0F813A88F5E0
:102AE00080916901882301F18091910387FF1CC0C7
:102AF000EC2FE695E695E695F0E0EA50FE4F8281F0
:102B000090E04C2F477021E030E002C0220F331FCD
:102B10004A95E2F782239323892B79F08C2F0E9428
:102B2000530A0E947D1209C0E8EFF1E08191C817B5
:102B3000A9F321E0EE3FF207C9F78C2F0E947E0A2D
:102B40009BCF80E28C0F883068F4C77021E030E0C2
:102B500001C0220FCA95EAF780914C03822B809323
:102B60004C038ACFEBE5EC0FE33040F4F0E0E7589C
:102B7000FE4F808190E00E94DA0580CFE8E5EC0FFF
:102B8000E73150F4F0E0EE0FFF1FE458FE4F808174
:102B900091810E94C40572CFC03F08F46FCF8C2F83
:102BA0000E9403080E94210769CF1F93CF93DF93F0
:102BB000182FD0E0C0E0893311F4C0E5D0E0812FB8
:102BC0000E942115209739F4812F0E946214DF9111
:102BD000CF911F9108958FE99FE00197F1F700C011
:102BE00000002197EFCF0F931F93CF93DF93C62F52
:102BF000D42F022FFC0182818823A9F060938C03DB
:102C00000E94B80590938B0380938A03C77081E07C
:102C100001C0880FCA95EAF70E945814DF91CF913E
:102C20001F910F91089580918C03681332C0809199
:102C30008A0390918B030E949D05883C910548F57D
:102C400010E21D0FCD17B9F080E28C0F883040F4F0
:102C5000C77081E001C0880FCA95EAF70E9451143D
:102C6000183048F481E09D2F977001C0880F9A9525
:102C7000EAF70E945814802F0E94D515183070F67C
:102C8000D77081E001C0880FDA95EAF70E945114ED
:102C9000C5CFC77081E001C0880FCA95EAF7F6CFAB
:102CA0000E946E0B80930501833091F0843031F0E7
:102CB000823089F489E30E94D515089580918D03AF
:102CC000882331F081FF04C081E00E9487130895BA
:102CD00081E00E94E213089568EE7EEF90E080E0CC
:102CE0000E94BD3060E082E090E00E949F3060E092
:102CF00083E090E00E949F301092B30260E084E095
:102D000090E00E949F3064E082E290E00E949F3059
:102D100060E085E090E00E949F3060E086E090E017
:102D20000E949F306FEF87E090E00E949F3040E06C
:102D300050E0BA0188E090E00E94B13060E08DE0A0
:102D400090E00E949F3040E050E0BA0188E190E0BE
:102D50000E94B13060E087E190E00E949F3040E047
:102D600050E0BA018CE190E00E94B13070E060E088
:102D700080E290E00E94BD3040E050E0BA0188E17E
:102D800090E00E94B13080E00E941E0F0E94370F39
:102D900040E050E0BA018FE090E00E94B13040E0A6
:102DA00050E0BA0183E190E00E94B13008951092A2
:102DB0004C0380916901E8EFF1E0882361F0809194
:102DC000910387FF08C08EE1DF011D928A95E9F724
:102DD0000E945813089586E0F7CFAAE2B0E0E3EF2F
:102DE000F6E10C94353082E893E02091F100DC01AB
:102DF0002D93CD01B3E08A389B07B9F78091830307
:102E0000833009F472C0B8F4813009F449C08230CB
:102E100009F4B3C08091E80083FF8BC280918203E4
:102E2000909183039A3008F084C2E92FF0E0E151D9
:102E3000FF4C0C94E82F8A3009F48EC08B3009F4D3
:102E400071C0893039F780918203813219F78091FE
:102E5000860390918703009711F00297D9F680912D
:102E6000E800877F8093E8008091E80082FF38C007
:102E70009091F3008091F200029731F48091F1007B
:102E8000813011F0863021F48091F10080935D0350
:102E90008091E8008B778093E8000E948F04BACF7E
:102EA00080918203813A09F0B5CF8091E800877F55
:102EB0008093E8008091860390918703892B61F4C9
:102EC00060E28EE593E070E00E943B058091E800AF
:102ED0008B778093E8009ECF60E090E080E0F3CFB6
:102EE000809180038111C0CF95CF80918203813A78
:102EF00009F090CF8091860390918703892B09F088
:102F000089CF8091E800877F8093E8008091E80076
:102F100080FFFCCF809169018093F1008091E800EF
:102F20008E77B9CF80918203813209F073CF80917F
:102F3000860390918703892B09F06CCF8091E8007C
:102F4000877F8093E8000E948F04809184038093A0
:102F500069010E94D7165ECF80918203813209F009
:102F600059CF8091E800877F8093E8000E948F040A
:102F70008091850380935C034DCF80918203813AD9
:102F800009F048CF8091E800877F8093E800809126
:102F9000E80080FFFCCF80915C03BECF803899F0C1
:102FA000823809F0C6C1809186038F70873008F09F
:102FB000C0C18093E9008091EB0085FB882780F9F0
:102FC0001092E90006C080917E0390917F039111D9
:102FD00082609091E800977F9093E8008093F100E1
:102FE0001092F1008091E8008E779FC1882309F448
:102FF0008DC1823009F09DC180918403811190C1FF
:10300000809186038F702FEF280F263008F091C132
:103010008093E9002091EB0020FF82C1933031F4CE
:103020008091EB0080628093EB007AC19091EB007D
:1030300090619093EB0021E030E001C0220F8A956F
:10304000EAF72093EA001092EA008091EB00886092
:10305000EACF81116EC1109184031F778091E30044
:103060008078812B8093E3008091E800877F8093B4
:10307000E8000E948F048091E80080FFFCCF8091DF
:10308000E30080688093E30082E0111183E0809385
:1030900080034FC18058823008F04BC120918403D7
:1030A000309185032C3DE3E03E07A1F583E08A8360
:1030B0008AE289834FB7F894DE01139620E03EE060
:1030C00051E2E32FF0E050935700E49120FF03C05A
:1030D000E295EF703F5FEF708E2F90E0EA30C0F026
:1030E000C7968D939D932F5F243159F74FBF8091E1
:1030F000E800877F8093E8006AE270E0CE010196E5
:103100000E943B058091E8008B778093E80011C115
:10311000C096E7CF8091860390918703432F552770
:103120004330510509F44AC078F54130510509F49E
:103130007AC08BE590E0EBE0F7E04230510509F012
:10314000F8C02091E800277F2093E80020918803B1
:10315000309189038217930708F49C0140E0211500
:10316000310509F065C0411163C08091E80082FD1E
:10317000C9CF80918003882329F2853019F280918C
:10318000E80083FFF2CFBECF4132510509F43CC0C5
:103190004232510509F0CDC08330910508F0C9C015
:1031A000FC01EE0FFF1FE951FE4F0190F081E02D71
:1031B0008C519E4FDC018C9190E01AC03327213056
:1031C0003105D1F02115310561F02230310509F0CA
:1031D000B0C0E8E7F7E0E4918E2F90E0E8E7F7E091
:1031E00007C0E2EBF7E0E4918E2F90E0E2EBF7E02E
:1031F000009709F49EC0A5CFE6E9F7E0E4918E2F91
:1032000090E0E6E9F7E0F4CF8330910508F091C053
:10321000880F991FFC01E351FE4F0190F081E02DD2
:1032200089E090E08ECF82E190E0E6E6F7E089CF9A
:1032300080918003882309F465CF853009F462CF3B
:103240008091E80083FD5ECF8091E80082FD8DCF04
:103250008091E80080FF83CF9091F3008091F2008D
:103260002115310519F08830910550F041E008979B
:1032700009F040E08091E8008E778093E8006FCFFE
:1032800044914093F1003196215031090196E8CFE5
:10329000803809F04EC08091E800877F8093E80075
:1032A000809181038093F1009DCE811142C01091E5
:1032B00084031230F0F58091E800877F8093E80066
:1032C000109381030E948F04112311F084E005C044
:1032D0008091E30087FDFACF81E08093800342E094
:1032E00061EC81E00E94AE0442E261EC84E00E9465
:1032F000AE0442E261EC82E00E94AE0442E260EC85
:1033000083E00E94AE048091800313C08091840307
:10331000813079F481E0933009F080E080937F037D
:103320001092E9008091E800877F8093E8000E9476
:103330008F048091E80083FF0AC08091E800877FB6
:103340008093E8008091EB0080628093EB00AA9666
:10335000E3E00C9451300E94D7162FEF84E39CE0F9
:10336000215080409040E1F700C0000088E19CE0DF
:103370000FB6F894A895809360000FBE90936000FC
:10338000FFCFAAE0B0E0E7ECF9E10C9426303C0175
:10339000DC0113968D919C911497892B41F08C91AF
:1033A00011969C9189238F3F11F00C94CC242A967E
:1033B000E2E10C9442300E94920F182F682F89810D
:1033C0009A810E94F00A69817A81812F0E94840F7C
:1033D0001C01F301828181111EC0C10181509545FC
:1033E00021018F3F910508F452C0D30112969C90A1
:1033F000992009F419C3BFEF4B16510409F008F4E2
:1034000061C0EAE24E16EDE55E0609F443C0109293
:1034100036022101A0C080911701909118010196F8
:10342000E1F207E211E0F12CE12CDD24D39480914C
:103430001701909118018E159F057CF2D801169600
:103440008C9116978823E9F019968D919C9182159D
:10345000930539F48091490390914A0382159305AD
:1034600081F0F801D786348623868189811103C0D3
:10347000C8010E94F112C80106960E941013109212
:103480004B03FFEFEF1AFF0A0A5E1F4FD0CF25E56F
:103490005226ABCF8091360291E089278093360285
:1034A00080919003877009F482CFF3018281882391
:1034B00009F47DCF8091920382FF79CF82E00E9450
:1034C000941375CF80913602882309F43AC1109283
:1034D0003602F0EC4F16510408F08BC020E842167B
:1034E000510408F0F8C030E44316510408F0BDC0A0
:1034F00021E030E040E050E060E070E080E090E00B
:10350000042D0E945D30E09116022E2BE0911702EF
:103510003E2BE09118024E2BE09119025E2BE091B8
:103520001A026E2BE0911B027E2BE0911C028E2B67
:10353000E0911D029E2B20931602309317024093B8
:1035400018025093190260931A0270931B02809321
:103550001C0290931D02C20182519F45409710F0BA
:103560000C94A3248FEF93E00E948B30811198CFAD
:103570000EEE040D67EA862E62E0962E011170C3EE
:103580001C821B82442443945AE0552E84010F5F11
:103590001F4FC4010E948B3089831A82882309F44B
:1035A0007FCF9FEF980F933008F069C38A834982D9
:1035B00082E0880E911CC8010E948B308B83882387
:1035C00009F46ECF8E010F5F1F4FD8012C9122237B
:1035D000E9F2213009F08DC311969C911197129652
:1035E0008C91913009F04DC30E5F1F4F0E94D5158D
:1035F0004EC38FEF4816510411F008F079CF21E047
:1036000030E040E050E060E070E080E090E0820177
:10361000005C11090E945D30E0912E022E2BE0919A
:103620002F023E2BE09130024E2BE09131025E2BB7
:10363000E09132026E2BE09133027E2BE091340256
:103640008E2BE09135029E2B20932E0230932F0279
:1036500040933002509331026093320270933302F0
:10366000809334029093350276CF21E030E040E041
:1036700050E060E070E080E090E0820100541109C9
:103680000E945D30E0911E022E2BE0911F023E2B26
:10369000E09120024E2BE09121025E2BE09122026C
:1036A0006E2BE09123027E2BE09124028E2BE09181
:1036B00025029E2B20931E0230931F02409320026E
:1036C000509321026093220270932302809324027C
:1036D0009093250240CF21E030E040E050E060E0F0
:1036E00070E080E090E08201005811090E945D3096
:1036F000E09126022E2BE09127023E2BE09128023A
:103700004E2BE09129025E2BE0912A026E2BE09174
:103710002B027E2BE0912C028E2BE0912D029E2B12
:1037200020932602309327024093280250932902C7
:1037300060932A0270932B0280932C0290932D02A7
:103740000ACF90E44916510408F070C0E0911602C7
:10375000F0911702A0911802B091190220911A025B
:103760002E8380901B0230911C02388780911D02AD
:103770008A8721E030E040E050E060E070E080E0E7
:1037800090E0042D0E945D30A22EAE22B32EBF2207
:10379000C42ECA22D52EDB22EE80E622F72EF82098
:1037A000088508231A8519230E94763009F031CE46
:1037B00080EC4816510408F09EC090E84916510468
:1037C00008F001C120E44216510408F0CBC021E00A
:1037D00030E040E050E060E070E080E090E0042DF8
:1037E0000E945D302095309540955095609570957C
:1037F000809590952E233F234A235B23AE816A2335
:103800007821B8858B23EA859E2320931602309376
:103810001702409318025093190260931A02709392
:103820001B0280931C0290931D023ACE90E8491629
:103830005104F8F4E0911E02F0911F02A0912002C1
:10384000B0912102209122022E8380902302309198
:1038500024023887809125028A8721E030E040E009
:1038600050E060E070E080E090E0820100541109D7
:1038700089CF90EC49165104F8F4E0912602F091BA
:103880002702A0912802B091290220912A022E83BA
:1038900080902B0230912C02388780912D028A87EC
:1038A00021E030E040E050E060E070E080E090E057
:1038B00082010058110966CFE0912E02F0912F028B
:1038C000A0913002B0913102909132029E8380909B
:1038D0003302209134022887309135023A8721E063
:1038E00030E040E050E060E070E080E090E0820195
:1038F000005C110947CF3FEF4316510411F008F067
:1039000066CF8201005C110921E030E040E050E028
:1039100060E070E080E090E00E945D30209530959E
:103920004095509560957095809590952E233F23F6
:103930004A235B23BE816B237821E8858E23FA8599
:103940009F2320932E0230932F02409330025093F6
:103950003102609332027093330280933402909369
:1039600035029ECD82010054110921E030E040E093
:1039700050E060E070E080E090E00E945D302095D3
:1039800030954095509560957095809590952E2333
:103990003F234A235B23FE816F237821A8858A2356
:1039A000BA859B2320931E0230931F02409320026E
:1039B0005093210260932202709323028093240289
:1039C000909325026DCD82010058110921E030E06D
:1039D00040E050E060E070E080E090E00E945D3008
:1039E000209530954095509560957095809590956F
:1039F0002E233F234A235B23EE816E237821F88513
:103A00008F23AA859A23209326023093270240937E
:103A100028025093290260932A0270932B0280930C
:103A20002C0290932D023CCD2FEF4216510409F049
:103A300068F530E44316510408F0CEC0A090160299
:103A4000B0901702C0901802D0901902E0901A02AC
:103A5000F0901B02E0911C0210911D0221E030E069
:103A600040E050E060E070E080E090E0042D0E94D3
:103A70005D30A222B322C422D522E622F722082FEB
:103A80000E2319230E94763009F40ACDE0E12E16A8
:103A9000EFE53E0609F488C1F1E12F16FFE53F0688
:103AA00009F48AC1210180910A01882309F482C6A0
:103AB000620180EEC81AD1083090B20280914C03A6
:103AC000382A98E0C916D10408F07FC19201277006
:103AD000332781E090E001C0880F2A95EAF799200A
:103AE00009F470C1382AD3018D919C910E94BC0ABF
:103AF00021E030E0590102C0AA0CBB1C8A95E2F714
:103B0000E0914703F0914803FF83EE832091370251
:103B10003091380239872887212CE22DF0E0EE0F12
:103B2000FF1FE050FF4F008111810115110509F4BD
:103B3000F5C6311005C0D80112968C9181117FC154
:103B4000F801838190E08A219B21892B09F477C1B8
:103B50008085982F977009F487E0F8E0CF16D1049C
:103B600008F04DC1992009F446C1869581708823DB
:103B700009F465C1D801ED90FC90E414F50419F442
:103B8000992009F45CC1EE81FF810E171F0709F42B
:103B900056C1D8011D96ED91FC91309721F080819E
:103BA000882309F44CC1632DC8010E944E06882366
:103BB00009F445C1E414F50409F074C7E114F104F3
:103BC00009F475C7911075C7E885F985EE16FF06EB
:103BD00009F035C1912C6DC780E848165104A0F456
:103BE000A0901E02B0901F02C0902002D09021022F
:103BF000E0902202F0902302E0912402109125022D
:103C000090E4491A51082ACFA0EC4A165104A0F4B6
:103C1000A0902602B0902702C0902802D0902902DE
:103C2000E0902A02F0902B02E0912C0210912D02DC
:103C3000B0E84B1A510812CFA0902E02B0902F027C
:103C4000C0903002D0903102E0903202F090330206
:103C5000E091340210913502F0EC4F1A5108FECE7B
:103C6000811424E0920609F41BCCC4010E948B301D
:103C7000811101C001503FEF831A930A7FCC4801A4
:103C8000A1CC923039F40E5F1F4F0E9421150F5FB7
:103C90001F4F9BCC933029F40E5F1F4F0E9462147C
:103CA000F6CF943019F00F5F1F4FF1CF0E5F1F4F0B
:103CB00030E020E0B8016F5F7F4FF8014181805311
:103CC000990B8A30910550F02150310900F38FE9AA
:103CD0009FE00197F1F700C00000F6CF529EF0017F
:103CE000539EF00D11249C012E0F3F1F842F8B013A
:103CF000E1CFE22FF0E0EC50FE4F3490822F86951A
:103D00008695869590E0FC01EC51FE4FC49027709B
:103D1000D12C022E02C0D594C7940A94E2F7A1E0F8
:103D2000CA22DD24FC01EC52FE4FA490B12C022EDD
:103D300002C0B594A7940A94E2F7B1E0AB22BB2489
:103D4000FC01EC53FE4FE490F12C02C0F594E79493
:103D50002A95E2F7E1E0EE22FF24C114D10419F024
:103D600081EE0E942115A114B10419F086EE0E9483
:103D70002115832D0E94D515A114B10419F086EEEA
:103D80000E946214C114D10419F081EE0E946214E1
:103D9000E114F10409F47BCF8CE228CC81E00E948D
:103DA000E2130E947B137CCB81E00E948713F9CF42
:103DB000992011F082E0F3CF82E0F7CF81E0809389
:103DC0000A016ECB809538228ECE992009F48FC5DA
:103DD00050923802409237020E94AC0560933E0335
:103DE00070933F03809340039093410310924603E6
:103DF0001092450378CE82FB882780F9B8CE9920AF
:103E0000F1F08170B4CE0E94621472C60497813AB8
:103E1000910548F48E2D0E947E0A992009F4CAC4A7
:103E20000E947D123DCB0E947D128FE39CE9019799
:103E3000F1F700C000008E2D0E942115EECF2394D3
:103E40006CCEFC01208131812415350509F0ABC40D
:103E50009110ABC41092440380E072C5882309F42A
:103E6000F7C4F8018189882309F4F2C4C701835D8E
:103E70009E4F0E941013ECC4F3EF4F16FCE55F0653
:103E800061F1A0F438ED43163CE5530611F189EDDC
:103E900048168CE5580669F197ED49169CE55906D8
:103EA00009F0D6C426E241EE61EE0FC0A5EF4A1636
:103EB000ACE55A06D1F0A8F027E245EE66EEE6EF53
:103EC0004E16ECE55E0609F0C3C4C3010E94F3156B
:103ED000E7CA27E245EE65EEF8CF26E241EE60EE56
:103EE000F4CF27E245EE64EEF0CF26E241EE62EE3B
:103EF000ECCF28E241E0EFCFF1E64F16FDE55F069B
:103F000009F4BFC435EA43163DE5530609F4B9C4C4
:103F100096E149169CE5590609F002C280914C03CE
:103F2000982F947409F015C1982F9A7A817109F02D
:103F300090E0222309F40FC181E0911101C080E0DB
:103F40008093390289E2911185E30E947E0A68CF4D
:103F500080919103806297E049169CE5590609F427
:103F6000A9C0809191038061A8E04A16ACE55A0689
:103F700008F4A0C08091910380649CC0809191035B
:103F80008B7FBDE04B16BCE55B0609F493C0B0F433
:103F9000809191038E7FFBE04F16FCE55F0609F4EC
:103FA00089C0809191038C602CE042162CE552066A
:103FB00008F480C0809191038D7F7CC08091910333
:103FC0008F7E3FE043163CE5530609F473C008F4C6
:103FD0008AC0809191038F7D6DC09DEF49169CE54D
:103FE000590609F488C078F5B5E14B16BCE55B06C7
:103FF00009F48FC0A0F480919103837FF3E14F1601
:10400000FCE55F0609F456C008F47DC00E94D7168F
:1040100090919103892F97FB87F980584BC03BEF14
:1040200043163CE5530609F454C008F060C0809183
:10403000920381609AEF49169CE5590609F04DC438
:10404000809392034AC4A1E04A16ADE55A0609F4EA
:104050006CC0C8F4809192038C7FEFEF4E16ECE5B4
:104060005E0671F38091920383604114FDE55F0663
:1040700038F380919203982F909591708E7F892BC1
:1040800090FB81F9DDCF21E642162DE5520609F4B9
:1040900052C035EA43163DE5530609F453C082E0A9
:1040A00048168DE5580609F018C460E03FC08091BD
:1040B000910381608093910310C480919103826089
:1040C000F9CF809191038460F5CF8091910388604E
:1040D000F1CF809192038260B3CF0E94D716809176
:1040E00091038068E7CF80919103877FE3CF809130
:1040F00092038E7FA5CF809192038D7FA1CF809177
:1041000091038F7BD7CF0E94D716809191038F7731
:10411000D1CF8091910382FB992790F921E09227DA
:1041200090FB82F990FB83F9C5CF61E08EE090E0CF
:104130000E949F30D2C390919103892F8F7E94FF6C
:104140008061B8CF90919103892F8E7F90FF81601D
:10415000B1CF90E0EBCE80913902811104C089E2A9
:104160000E94530A5DCE85E3FBCF94EC49169CE593
:10417000590609F4A2C044EF50E16EEF70E1A5ECDE
:104180004A16ACE55A0609F043C40E946E0688C977
:10419000B9EC4B16BCE55B0609F49EC080F4F7EC65
:1041A0004F16FCE55F0609F492C047EE50E16AED58
:1041B00070E128EC42162CE5520639F329C43AEC9A
:1041C00043163CE5530609F48CC048E051E16AE12E
:1041D00071E19BEC49169CE55906B9F219C4A1EDB1
:1041E0004A16ACE55A0609F48FC0C8F4EEEC4E1638
:1041F000ECE55E0609F482C008F47DC02FEC42169F
:104200002CE5520609F47DC06EE089E030ED4316DE
:104210003CE5530609F0FCC30E948E1141C984EDB0
:1042200048168CE5580609F475C088F4A2ED4A16C4
:10423000ACE55A0609F46BC061E088E1B3ED4B16BA
:10424000BCE55B0609F0E4C30E942C1129C9E5ED29
:104250004E16ECE55E0609F460C0FDE54F165F06FC
:1042600009F41EC9D5C38091310380FF1BC08E7F26
:104270008093310360913103709132038091330355
:10428000909134030E942B101092F1022FEF30E72F
:1042900082E0215030408040E1F700C000000E94E1
:1042A000380CFEC881608093310361E08695CCCFE5
:1042B00049E751E163E871E168CF43E851E169E71B
:1042C00071E163CF4EEF50E164EF70E15ECF4AEDF4
:1042D00050E167EE70E159CF40EC50E16DEC70E1D8
:1042E00054CF4DEC50E160EC70E14FCF4AE151E129
:1042F00068E071E14ACF61E081E0A6CF65E082E04D
:104300008BCF68E086E088CF64E18FE085CF67E1FE
:1043100085E182CF62E289E17FCF61E083E294CFE1
:104320009AE549169DE5590699F168F44114BCE5F2
:104330005B06B9F0EEED4E16ECE55E0609F068C3DB
:104340000E946C160CC0FCE54F16FDE55F06B1F04F
:1043500008F137EA43163DE5530609F059C30E94B8
:10436000AB190E94D7168FEF94E3ACE081509040D8
:10437000A040E1F700C000000E94140C809192035D
:1043800082FB882780F991E089270E94B41340C3FB
:1043900081E0FBCF80E0F9CFC8010E94BC0AF82E73
:1043A00048C3212F2F70E22E107F19F0E29490EF76
:1043B000E922FF20B9F0EE2069F080E2800F88301A
:1043C00010F0A11009C080914C03E82AE0924C0340
:1043D0000E947D12802F4EC080914B03E82AE0920C
:1043E0004B03F6CF802F0E946214EE2009F444C0E4
:1043F000005E083010F0A11004C08E2D0E944C0AFF
:1044000006C0E09480914B03E822E0924B030E94A7
:104410007D1232C0312F3F70E32E107F103219F021
:10442000E29480EFE822AA20A1F081E0A81609F426
:104430008BC0FF2009F494C0DD2009F463C0D301D0
:1044400015968C91159780FFC5CF8F7015968C931C
:1044500059C09091920392FD4EC0FF2009F445C0CF
:10446000EE2039F080914C03E82AE0924C030E9440
:104470007D1280E00E942115EB2DE850FF0B349750
:1044800020F40E94F0050E94260BCC20B1F0809110
:10449000900380FD12C0D30112961C9285958595DC
:1044A00085950E94E213C3010E94C1198091900377
:1044B0008595859585950E948713F30182818823D0
:1044C00011F40C94D7190E94B8059093D9028093E7
:1044D000D8028091DA02882311F40C94D719109233
:1044E000DA020E9467110C94D71980E00E946214CE
:1044F000EE2011F282CFFF20D1F08091B202E82AA3
:10450000D11004C08E2D0E945814B6CFA1E0DA124B
:10451000F9CF92FFB1CF8E1509F4AECF0E94B80546
:104520009093B1028093B002E092B202A5CFD11075
:1045300006C00E94410A8E2D0E9451149DCFB1E009
:10454000DB1609F499CFF5CFFF2029F0E2E0ED1555
:1045500008F492CFD7CFF1E0FD1508F48DCFEBCF63
:10456000DD2049F3B9E3AB1209C0EFEFF7EE23E02A
:10457000E150F0402040E1F700C00000802F0E9491
:1045800062147ACF812F86958695837061F0813091
:1045900009F072CFC8019370F11002C090E080E082
:1045A0000E94C40569CFC8019370F11002C090E069
:1045B00080E00E94DA0560CF802FFF2029F00E9462
:1045C00003080E94210758CF0E944807FACF812F85
:1045D000837089F5F11050CF402F42954695477072
:1045E000440F440F802F8F70042E01C0880F0A944F
:1045F000EAF7202F207104FF07C02FE030E001C050
:10460000220F4A95EAF720951695169513701230E9
:1046100069F050F43091B302113029F0822B8323DA
:104620000E94421429CF832B822BFACF282B809112
:10463000B3028227F5CF8695FF2011F0812F81707C
:10464000882309F419CF402F429546954770440FAF
:10465000440F802F8F70042E01C0880F0A94EAF750
:10466000202F207104FF07C02FE030E001C0220F8F
:104670004A95EAF72095169516951370123069F051
:1046800050F430918D03113029F0822B83230E9446
:104690007413F2CE832B822BFACF282B80918D03BB
:1046A0008227F5CF1F70FF2029F0812F0E94E2138F
:1046B000802F29CF802F0E945114812F0E948713B1
:1046C000DBCE802F32EFA316B1F13A1570F090EFE8
:1046D000A916D1F0A1EFAA1691F0FF2009F453C05A
:1046E000D11078CE812F8F712AC0B3EFAB1651F164
:1046F000E4EFAE12F2CF8091920382FD2FC0812FA2
:104700008F71FF20D9F21BC0FF2081F0F1E0FD1571
:1047100008F4B2CE1F7181E090E0012E01C0880F35
:104720000A94EAF790918D038927B1CF22E02D15E5
:1047300008F4A2CEEFCF812F8F71F110BFCF0E946E
:10474000E2139ACE80E0FF2009F4A1CF1F7181E02F
:10475000012E01C0880F0A94EAF799CFFF2041F09B
:104760001F71812F0E94E213812F0E94EE1384CECD
:1047700081E00E94941331E03D1508F07DCE82E087
:104780000E94941379CEDD2059F0893309F0F6CEDA
:104790008FEF97EEA3E081509040A040E1F7ECCE80
:1047A000812F8F718BCF992029F0DC0118968C9185
:1047B00085FF52CBC20197558F3F910511F008F04C
:1047C0005BCB20911701309118012817390724F489
:1047D0009093180180931701F301228136E1389FED
:1047E0007001399FF00C11248701095D1E4FD8011B
:1047F00050962C935097928116968C9116979923E8
:1048000009F42CCB1A965C924E9219978F5F1696EC
:104810008C930E94B805F801968785878091B20233
:10482000878380914B0390914C03892B8087019063
:10483000F081E02D309741F0D80154966D917C9134
:10484000C701835D9E4F099550924A0340924903E8
:10485000D30112962C91222309F4B3C010928C0339
:10486000B3E04B16BDE55B0608F046CBEAEF4E160B
:10487000ECE55E0630F4C20182509C45449708F096
:1048800047CB0E940710909392038093910381E19C
:1048900048168CE5580609F432CC08F09ECBA9E006
:1048A0004A16ACE55A0609F418CC08F067CBE5E0E7
:1048B0004E16ECE55E0609F408CC08F049CB23E07F
:1048C00042162CE5520609F4F8CB08F0FACB82E048
:1048D00048168CE5580609F4EACB80919103909133
:1048E00092030E94470F0E94D7160C94501A809191
:1048F0003702909138028415950581F410923802A0
:104900001092370210923E0310923F031092400320
:104910001092410310924603109245038091470381
:1049200090914803009709F445CFA8E0CA16D10436
:1049300008F087CA632D0E944E0681113BCF81E0AB
:104940000E94BB1437CFB0E14B16BFE55B0609F4FC
:1049500025CAE1E14E16EFE55E0609F429CAFFE536
:104960004F16FDE55F0609F429CA20E642162DE53B
:10497000520659F03EE543163DE5530609F093C84B
:1049800080910A01882309F419CA10920A0180E073
:104990000E94BB140C94501A85E0F301DE011196BD
:1049A00001900D928A95E1F7D30112962C9189819D
:1049B0009A8121110C94DB190E94BC0A182F0C94C7
:1049C000E319B6E14B16BCE55B0609F4A7CA809172
:1049D0004C038272ACEC4A16ACE55A0609F486CC5C
:1049E00008F0FDCBE6EC4E16ECE55E0609F46ACC69
:1049F00008F0CECB23EC42162CE5520609F458CC35
:104A000008F0B3CB82EC48168CE5580609F42BCCA1
:104A1000D30112968C9112970D911C91882309F461
:104A2000BBCCC8010E94920FF82E682FC8010E94CB
:104A3000F00AB8018F2D0E94840F0E94B9088C01E2
:104A4000A82EF301F280D580D2943FE0D32280914A
:104A500090038770C1F0CF2CFF20B1F0812F807FB1
:104A6000803421F080E2800F883068F080919203DA
:104A700082FF09C082E00E949413809190038770A6
:104A8000CC24C3948111C12CB12EB2942FE0B22258
:104A9000FBE0FB1508F4F0CCEB2DF0E0E750FF4C09
:104AA0000C94E82FE114F10409F08EC8912CF12C3C
:104AB000E12C80E00E94BB1410934803009347034D
:104AC00081E080934403D80115968C918093420332
:104AD00091100EC0EF2861F0D8018D919C919C013E
:104AE00024503109213A310508F08DC90E94530A3A
:104AF000F801E680F780C7019A9581159F4110F46F
:104B000020EEF222BB24B394C70101978C3A9D4555
:104B100008F0B12CD8011996ED91FC911A973097B5
:104B200031F01B966D917C9181E00995B822BB20F4
:104B300079F0F801868197810E943D0B80934303B1
:104B4000C701F8E0CF16D10408F060C90E94FD0546
:104B50000E947D1262C91F93CF93DF9380915D0203
:104B6000807F09F049C080915A02882309F444C02B
:104B700080918F02D0915E0260915802709159022B
:104B8000A0915B02B0915C02C62FC72316E0D81734
:104B900099F190E0109711F0CF3F19F401968770CA
:104BA000F6CF189F9001199F300D1124F901E15A99
:104BB000FD4F41814713F2CF40814613EFCF428131
:104BC0004111ECCF438154814A1B5B0B483C51059A
:104BD00028F780915D028F70806180935D02F901FA
:104BE000EC59FD4F80818F708061808388E592E071
:104BF0000E94C1190E94B20ADF91CF911F910895BE
:104C0000A1E1B0E0E6E0F6E20C942E308C0185E004
:104C1000F801DE011D9601900D928A95E1F7F801E9
:104C2000E28088E5A82E82E0B82E60915B02709148
:104C30005C026115710509F426C1909158024091FA
:104C40005902892F84238F3F09F41DC120813181AE
:104C5000C380D480F0905A02F601E61BF70BFF20C8
:104C600009F4DCC080915D02582F507FE83CF105CB
:104C700008F09FC051116BC0FE2C431314C0921357
:104C800012C0E11010C08F70806180935D02C50179
:104C90000E94C11980915D02F80185838F2D619674
:104CA000EAE00C944A30C114D10429F0822F832306
:104CB0008F3F09F003C180E0F82FF170DF2E80FFF5
:104CC0003CC080918F0240915E0256E0841315C073
:104CD0002D873E878D859E850E94C10F292F2295A5
:104CE0002F702230F0F0243018F59F70F1F0F801A9
:104CF0009581907FD1F4D12C1EC090E0589FF00197
:104D0000599FF00D1124E15AFD4F6181361306C001
:104D10006081261303C06281E6120FC0019687707E
:104D2000D5CF9F7011F0882331F3805E883018F35F
:104D3000C8010E94C119FD2CB1CFEE2009F4AECFFD
:104D400080915D02816080935D02F12CA7CF4313B7
:104D500006C0921304C0F801EE2009F479C0C8011E
:104D60000E94CE0F882309F1EE20F9F080915D02B8
:104D7000803270F0209158023091590238872F8389
:104D80001986DB86CA868C87CE0107960E94C119D8
:104D900086E0F801A8E5B2E001900D928A95E1F76E
:104DA0000E94AB25FF24F39479CFC8010E94C1195A
:104DB000F9CF51110AC088E592E00E94C11986E03E
:104DC000F50111928A95E9F7C0CF43130FC09213F2
:104DD0000DC0E1100BC0F8018583C8010E94C11904
:104DE00086E0F50111928A95E9F758CFC8010E9433
:104DF000CE0F8823D1F2EE20C1F280915D02803285
:104E000038F220915802309159023A8329831B824B
:104E1000DD82CC828E83CE010196B8CFE83CF105CD
:104E2000F8F6FE2CEE2009F243131FC092131DC0AA
:104E300080915D0280FD10C0982F907F69F0F8018D
:104E40008583903F31F0982F907F905F8F70892BF2
:104E50008583C8010E94C11986E0F801A8E5B2E087
:104E600001900D928A95E1F719CFC8010E94CE0FEB
:104E700081118ECF80915D02816080935D02C801B7
:104E80000E94C1190BCFEE2009F48FCFC8010E94F8
:104E9000CE0FF82E882309F488CF86E0F801A8E524
:104EA000B2E001900D928A95E1F7809158029091BD
:104EB00059020E94C10F0E94AB25F0CE81E08E25E1
:104EC000FBCEA7E1B0E0E7E6F7E20C9435304B8B80
:104ED0005C8B6D8B7E8B8F8B611110924B031A8ACA
:104EE000198A85E0FE017396DE011D9601900D92F0
:104EF0008A95E1F78091920382FF1CC00E94B80559
:104F000020918E0330918F03821B930B8C3D954033
:104F100020F08091900382FF79C00E94B805209113
:104F2000B0023091B102821B930B8C3D954010F082
:104F30000E94410A86E0FE013D96DE01179601902F
:104F40000D928A95E1F7CE0107960E9400268823EC
:104F500059F016E080918F0290915E02891343C050
:104F60006796E3E00C94513086E0FE013796DE014F
:104F7000119601900D928A95E1F78A859B85892B80
:104F800041F38F81988589238F3F19F320915E0229
:104F900030E0C90101968770992740918F02481728
:104FA000190671F40E94D71610925E0210928F02B9
:104FB00086E0E8E5F2E0DF011D928A95E9F7C9CFC6
:104FC00096E0929FD001939FB00D1124A15ABD4F3E
:104FD000FE01319601900D929A95E1F780935E0261
:104FE0000E94B20AB6CF819FC0011124815A9D4F01
:104FF0000E940026882309F4B3CF80918F0290E0AD
:1050000001968770992780938F02A4CF82E00E9437
:10501000941383CF90E080E00E949930883E9E4FA9
:1050200019F40E94EE0F089580E008951F920F92E8
:105030000FB60F9211242F933F934F935F936F936B
:105040007F938F939F93AF93BF93CF93DF93EF9310
:10505000FF93D091E900DF708091EC00C82FC17000
:1050600080FDC0E81092E9008091F000877F809376
:10507000F00078940E94ED161092E9008091F00003
:1050800088608093F000CD2BCF70C093E900FF9132
:10509000EF91DF91CF91BF91AF919F918F917F91D0
:1050A0006F915F914F913F912F910F900FBE0F9095
:1050B0001F9018951F920F920FB60F9211242F93E5
:1050C0003F934F935F936F937F938F939F93AF9390
:1050D000BF93EF93FF938091E10082FF09C080911D
:1050E000E20082FF05C08091E1008B7F8093E100A8
:1050F0008091DA0080FF24C08091D80080FF20C01A
:105100008091DA008E7F8093DA008091D90080FF51
:105110009DC080E189BD82E189BD09B400FEFDCF5B
:1051200081E08093800380915B03811109C00E941C
:1051300015040E94E0048091E20084608093E20004
:105140008091E10080FF17C08091E20080FF13C0D2
:105150008091E2008E7F8093E2008091E200806186
:105160008093E2008091D80080628093D80019BCBF
:1051700085E0809380038091E10084FF2BC08091C3
:10518000E20084FF27C080E189BD82E189BD89B545
:10519000982F917080FFFBCF8091D8008F7D8093F6
:1051A000D8008091E1008F7E8093E1008091E20041
:1051B0008F7E8093E2008091E20081608093E20024
:1051C00080918103882309F447C084E080938003A1
:1051D000809180038091E10083FF27C08091E200ED
:1051E00083FF23C08091E100877F8093E10082E00C
:1051F00080938003109281038091E1008E7F8093E1
:10520000E1008091E2008E7F8093E2008091E200D5
:1052100080618093E20042E060E080E00E94AE04A2
:105220008091F00088608093F000FF91EF91BF9132
:10523000AF919F918F917F916F915F914F913F912E
:105240002F910F900FBE0F901F90189519BC1092C0
:10525000800310925B0374CF8091E30087FD93E09D
:1052600090938003B5CF78941F921FB61F9211249C
:105270008F939F93AF93BF93809154039091550365
:10528000A0915603B09157030196A11DB11D8093C3
:10529000540390935503A0935603B0935703BF91C3
:1052A000AF919F918F911F901FBE1F9018951F92D5
:1052B0001FB61F9211248F939F93AF93BF9380913A
:1052C0005303811113C08091540390915503A09111
:1052D0005603B09157034196A11DB11D809354030D
:1052E00090935503A0935603B0935703BF91AF918A
:1052F0009F918F911F901FBE1F901895CDB7DEB75D
:10530000AA970FB6F894DEBF0FBECDBF85B78068F1
:1053100085BF85B7806885BF84B7877F84BF0FB698
:10532000F894A89580916000886180936000109245
:1053300060000FBE80E890E00FB6F89480936100A3
:10534000909361000FBE8DE598E09093F5018093F6
:10535000F4010E9415040E94E0048091E200846040
:105360008093E2007894809180038823A1F01091CB
:10537000E9001F709091EC00892F817090FD80E80A
:10538000182B1092E9008091E80083FD0E94ED1631
:105390001F701093E90082E084BD93E095BD9AEF01
:1053A00097BD80936E000E94EE0F811102C00E9493
:1053B000370F0AEA11E0D8018D918D018F3F11F06E
:1053C0000E945F08B1E00F3A1B07A9F70FEA11E04E
:1053D0007FEBE72E71E0F72EF80181918F018F3F6F
:1053E00011F00E945F08E016F106B1F78AE0EEECDA
:1053F000F2E0DF01282F1D922A95E9F7E7EBF2E0B2
:10540000DF011D928A95E9F70E940A28811102C0E6
:105410000E946C1682E090E00E948B308093C20262
:105420000E94071090939203809391030E94AE1103
:10543000EFE3FCE93197F1F700C000000E94AE11E4
:105440008091CE0280FF08C06FEF7FEF90E080E098
:105450000E94BD300E94140C83E090E00E948B30CB
:105460000E94421480918D030E94940E879A8F9A15
:105470008091C102811133C00E940A28811104C0A9
:105480000E946C160E949E1188E090E00E9493306A
:10549000609331037093320380933303909334030A
:1054A0006E7F71F40E949E1188E090E00E9493301C
:1054B00060933103709332038093330390933403EA
:1054C0000E9475061092F1028091310380FF04C0A2
:1054D00060E086950E942C1181E08093C10280914A
:1054E000910380688093910380919103909192033E
:1054F0000E94470F4FEF6FEF8FEF0E940B0E0E943D
:10550000F00580FF03C083E50E94D5158BE091E094
:105510009093500380934F0358E1E52EF12C60E403
:10552000762EDD24D394CC24C3948091800300E1B3
:1055300012E1853009F4E5C10E94AE1181110E948B
:10554000AC05AEECB2E0E3ECF2E010E000E0702F6E
:105550008D919D91219131912817390709F4E5C169
:105560002827392760E0AA24A394B12CA9014A2155
:105570005B21452B09F4D3C169A37AA39C012A219D
:105580003B2191E0232B09F490E09BA30E94B805F6
:105590008160782F9DA38CA349A15AA16BA18DA1F5
:1055A0000E946127000F111FF801ED53FD4F80810C
:1055B0009181A826B926B182A0828091450390915D
:1055C0004603892B09F44EC040913A0350913B03A6
:1055D00060913C0370913D032FB7F8948091540380
:1055E00090915503A0915603B09157032FBF841B90
:1055F000950BA60BB70B4091360350913703609182
:1056000038037091390384179507A607B70750F13F
:105610000091450310914603C8010E943D0B98017B
:10562000205E31092830310520F00115110509F0FF
:1056300093C10E945814802F0E9421151092460396
:105640001092450310923A0310923B0310923C03D0
:1056500010923D03109236031092370310923803D4
:10566000109239038091170190911801B12CF6E145
:10567000AF2E019609F0A7C18091F1028111ADC151
:1056800086E0E2EEF2E0DE01119601900D928A953D
:10569000E1F71092E4021092E5021092E6021092F5
:1056A000E7028B819C81892B09F44AC08091E0023A
:1056B0009091E1020E949D059C019091DC0299234A
:1056C00009F429C425313105D8F19F3F19F09F5FB6
:1056D0009093DC021B81112359F00E94E3079FEF96
:1056E00011160CF491E0899F802D11248093E4021F
:1056F0001C81112359F00E94E3079FEF11160CF44F
:1057000091E0899F802D11248093E5023091E4027D
:105710003323B1F02091E502222391F045EB3403CD
:10572000C0011124992309F4EDC19093E40245EBE3
:10573000240390011124332309F4E7C13093E502D7
:105740008D819E81892B09F44AC08091DE0290915F
:10575000DF020E949D059C019091DB02992309F4D0
:10576000D5C321353105D8F19F3F19F09F5F909344
:10577000DB021D81112359F00E94C1079FEF111612
:105780000CF491E0899F802D11248093E6021E8104
:10579000112359F00E94C1079FEF11160CF491E0FC
:1057A000899F802D11248093E7023091E6023323F4
:1057B000B1F02091E702222391F045EB3403C001C0
:1057C0001124992309F4A4C19093E60245EB240324
:1057D00090011124332309F49EC13093E70246E07F
:1057E00050E0BE016F5F7F4F82EE92E00E94E0309A
:1057F000892B61F48091E4029091E502892B9091CC
:10580000E602892B9091E702892B11F00E94210773
:1058100086E0FE013196A2EEB2E001900D928A95EB
:10582000E1F70E94F0059091CD02891721F0809355
:10583000CD020E94260B80918003843009F46EC152
:105840008091DA02811171CE8091D8029091D902B3
:105850000E949D056ACE80918003843009F440C087
:1058600080E00E94260B1092F1028091E9028111E2
:1058700016C0C092E90280913103982F91709093E5
:10588000E8028E7F80933103FFEF20E742E0F15082
:1058900020404040E1F700C000000E94380C109208
:1058A00053030FB6F894A895E09260000FBE709273
:1058B000600083B7817F846083BF83B7816083BFCB
:1058C0007894889583B78E7F83BF0FB6F894A89598
:1058D00080916000886180936000109260000FBE2C
:1058E00080917F03882369F00E94AE11EEECF2E014
:1058F00081919191892B09F0EAC282E0E83DF80795
:10590000B9F780918003853009F4A5CF0E94D7169E
:105910000E94F0050E94260B0E9467110DCE6F5F5A
:10592000AA0CBB1C603109F021CE0F5F1F4F053060
:10593000110509F00CCE8FEF8EA38FA318A60E943D
:10594000B8058160782F9AA789A74EA15FA168A5A5
:105950008AA50E94612731CE0E9447146CCEA89E72
:10596000F001A99EF00D1124E95DFE4F8288938815
:105970008114910419F4A8EC8A2E912CA89E800120
:10598000A99E100D1124095D1E4FF8018681882300
:10599000C9F0858596850E949D058816990690F424
:1059A000BA9C40011124D80151968C91811105C0F7
:1059B000C401895D9E4F0E94F112C401835D9E4F18
:1059C0000E941013B3948B2D90E020911701309119
:1059D0001801281739071CF64FCE8091F002E0918C
:1059E0003103E695E81BE093EC02823089F5F0E0A4
:1059F000EE57FD4FE4910E2F10E0E0E8AE2EEEE002
:105A0000BE2E8091ED02882361F01092ED020E947B
:105A1000B8059093EB028093EA021092EF02109285
:105A2000EE020E94B805E091EA02F091EB028E1BB3
:105A30009F0B8F3F9F4708F023CEE00FF11FF0939D
:105A4000EB02E093EA028AEE92E0F501099518CEA6
:105A5000863059F4F0E0E158FD4FE4910E2F10E04C
:105A600070E7A72E7EE0B72ECCCF893061F4E695A3
:105A7000F0E0E458FD4FE4910E2F10E06EEDA62EFD
:105A80006DE0B62EBECF8F3061F4E695F0E0E758BA
:105A9000FD4FE4910E2F10E056E7A52E5DE0B52EE8
:105AA000B0CF853159F4F0E0EA58FD4FE4910E2F64
:105AB00010E045E2A42E4DE0B42EA3CF08E210E0A2
:105AC00097EAA92E9CE0B92E883109F49ACF833247
:105AD00049F4E4E7F2E0059114913CE1A32E3EE0A5
