:10000000DEC3000014C4000012C4000010C40000CD
:100010000EC400000CC400000AC4000008C40000A4
:1000200006C4000004C400000C94A32D0C948B2E75
:100030000C94582DFCC30000FAC30000F8C3000064
:10004000F6C30000F4C30000F2C30000F0C30000D8
:10005000EEC300000C947F2DEAC30000E8C300004B
:10006000E6C30000E4C30000E2C30000E0C30000F8
:10007000DEC30000DCC30000DAC30000D8C3000008
:10008000D6C30000D4C30000D2C30000D0C3000018
:10009000CEC30000CCC30000CAC30000C8C3000028
:1000A000C6C30000C4C30000C2C3000005010902AA
:1000B000A10185020901A1000509190129081500FE
:1000C0002501950875018102050109300931158165
:1000D000257F95027508810609381581257F9501D0
:1000E00075088106050C0A38021581257F95017572
:1000F000088106C0C005010980A101850319012AF4
:10010000B700150126B700950175108100C0050CD8
:100110000901A101850419012AA002150126A002E6
:10012000950175108100C005010906A1018506052C
:100130000719E029E71500250195087501810205D9
:1001400007190029EF1500250195F07501810205B9
:10015000081901290595057501910295017503910D
:1001600001C00660FF0961A1010962150026FF00B8
:100170009520750881020963150026FF00952075FA
:10018000089102C005010906A101050719E029E748
:1001900015002501950875018102950175088101F9
:1001A0000507190029FF150026FF0095067508812F
:1001B000000508190129051500250195057501910E
:1001C00002950175039101C009025B00030100A0C3
:1001D000FA090400000103010100092111010001D5
:1001E00022440007058103080001090401000203FD
:1001F00000000009211101000122220007058203ED
:100200002000010705030320000109040200010387
:1002100000000009211101000122B6000705840336
:1002200020000112010002000000086B70110001A3
:1002300000010200011C0369006B006B00690036BD
:1002400000380020004100750072006F00720061EC
:100250000000001A0377007500710075006500202A
:1002600000730074007500640069006F00000004F2
:10027000030904167C1E001F002000210022002319
:100280000024002500260027002D002E002A004C07
:1002900000A8002B0014001A000800150017001C0D
:1002A0000018000C00120013002F00300031000372
:1002B000570457005704001600070009000A000BF6
:1002C000000D000E000F0033003400280000000075
:1002D000000000E10000001D001B000600190005E1
:1002E0000011001000360037003800E500015752B9
:1002F000000000E000E300E2000000000000002C2D
:1003000000000000000000E6000257E40050005129
:10031000004F0035003A003B003C003D003E003FEE
:10032000004000410042004300440045004C0049A9
:1003300000460001004A0052004D004B0001000140
:1003400000010001000100010001000100010001A5
:100350000001000100500051004F004E000100015B
:10036000005009500A4F0A4F090100280000000000
:1003700000000001000000B6002A00B700010001E3
:1003800000110A2903010001000100010001000120
:100390000000000100010001000000000000004C0E
:1003A00000000000000000010001006521010001C3
:1003B00000010035001E001F0020000100010001A7
:1003C000000100010001000100010001004C0201D8
:1003D00000A600010021002200230001000100010D
:1003E0000001000100010001000100010001000105
:1003F0000001000100240025002600010001000189
:10040000005009500A4F0A4F090100010000000086
:100410000000000100000027000100B200010001FF
:100420000001002903010001000100010001002A70
:1004300000000001000B700100000000000000013E
:1004400000000000000000010001000100B6003EB5
:1004500000B70020782B78010001001370AA00A9D2
:1004600000AE00A800010001000100680069000161
:100470000001000100010001000100010001000174
:100480000001000100010001000100010001000164
:100490007C007C010001000100010001000100015D
:1004A0000001000100010001000100037C000000C8
:1004B0000000000100000001000100010001000136
:1004C0000001001003010001000100010001000112
:1004D0000000000100010001000000000000000118
:1004E00000000000000000010000520100010001B6
:1004F0000001002223252628292A2C2D2F303233D3
:100500003536383A3B3D3E4042434547494A4C4EDA
:100510005051535557595A5C5E6062646668696B06
:100520006D6F71737577797B7D7F81838587898A0C
:100530008C8E90929496989A9C9E9FA1A3A5A7A812
:10054000AAACAEAFB1B3B4B6B8B9BBBCBEBFC1C242
:10055000C3C5C6C7C9CACBCCCDCED0D1D2D2D3D4D5
:10056000D5D6D7D7D8D9D9DADADBDBDBDCDCDCDCF3
:10057000DCDDDDDDDDDCDCDCDCDCDBDBDBDADAD9C1
:10058000D9D8D7D7D6D5D4D3D2D2D1D0CECDCCCB43
:10059000CAC9C7C6C5C3C2C1BFBEBCBBB9B8B6B461
:1005A000B3B1AFAEACAAA8A7A5A3A19F9E9C9A98F1
:1005B000969492908E8C8A89878583817F7D7B79C2
:1005C000777573716F6D6B6968666462605E5C5AA3
:1005D0005957555351504E4C4A4947454342403E66
:1005E0003D3B3A3836353332302F2D2C2A292826F8
:1005F000252322FFAA7F55400001010101010101CD
:1006000001010202020202020202020303030303C7
:100610000303030404040404040405050505050696
:100620000606060607070707070808080809090954
:10063000090A0A0A0B0B0B0C0C0C0D0D0D0E0E0EFD
:100640000F0F0F101011111112121313141415158E
:1006500016161717181819191A1A1B1B1C1D1D1E00
:100660001E1F202021222223242425262627282954
:10067000292A2B2C2D2D2E2F303132323334353682
:100680003738393A3B3C3D3E3F4041424344454682
:100690004748494A4C4D4E4F50515354555658595E
:1006A0005A5B5D5E5F616264656668696B6C6D6F05
:1006B0007072737577787A7B7D7E80828385878878
:1006C0008A8C8E8F91939596989A9C9EA0A2A3A5B2
:1006D000A7A9ABADAFB1B3B5B7BABCBEC0C2C4C6B3
:1006E000C9CBCDCFD1D4D6D8DBDDDFE2E4E7E9EB6F
:1006F000EEF0F3F5F8FAFDFF1E0F0500047F3F1F33
:10070000643214643214783C1E1E140A0500000082
:1007100000000000000000000000000000000000D9
:1007200000000000000000000000000000000000C9
:10073000007E0F00D4FFFFFFC7000000780000001C
:1007400000000000002A2B2800000000000000002C
:10075000000000000000000029000000002C1E34F2
:1007600020212224342627252E362D3738271E1FF8
:10077000202122232425263333362E37381F040523
:10078000060708090A0B0C0D0E0F10111213141591
:10079000161718191A1B1C1D2F3130232D3504056F
:1007A000060708090A0B0C0D0E0F10111213141571
:1007B000161718191A1B1C1D2F3130354C00112427
:1007C0001FBECFEFDAE0DEBFCDBF04B603FE18C018
:1007D0008091850490918604A0918704B09188044B
:1007E0008730904BA740B04B59F41092850410927B
:1007F00086041092870410928804E0E0F8E30995DB
:1008000024E0A2E8B2E001C01D92A538B207E1F7EA
:1008100012E0A0E0B1E0E4E6F2E602C005900D923D
:10082000A238B107D9F70E945C270C94C030E8CBFE
:10083000FC018281813021F4858181708E5F089571
:10084000823011F484E0089581E008959C019A9526
:1008500081159F4118F5F32FF270EE27832F8170D9
:10086000732F74706627532F5870442734FF0CC0C1
:100870008295807FEF2B09F08062672B09F08064FE
:10088000452B69F080680895EF2B09F08260672B93
:1008900009F08460452B19F08860089580E0089580
:1008A000CF93DF93EB01D2DFFE010995DF91CF916A
:1008B0000895982F92959F7024E0911102C020E036
:1008C000982F892F86958695811511F02E5F982F88
:1008D000892F8695820F089580933A040895953064
:1008E00080F5803170F540E1949F90011124280F2C
:1008F000311D877041E001C0440F8A95EAF783E01B
:10090000369527958A95E1F7F901EE0FFF1FE20F63
:10091000F31FEE52FC4F80E090E070E05191DF0158
:100920009B01082E02C0369527950A94E2F72170A4
:1009300021952527242325272E9301968330910581
:1009400069F70895953078F5803168F540E1949F16
:1009500090011124280F311D982F977083E0369550
:1009600027958A95E1F7F901EE0FFF1FE20FF31FBC
:10097000EE52FC4F40E050E080E0219130E0092E43
:1009800002C0369527950A94E2F721703327042E8A
:1009900001C0220F0A94EAF7822B4F5F5F4F43306A
:1009A000510559F7089580E008958091420490918F
:1009B0004104981301C008958F5F8770FACF982F74
:1009C000909580913704892380933704089580910E
:1009D0003804811531F010923804109240041092BE
:1009E0003F0408959C01803E910509F448C0D8F465
:1009F0008133910509F47DC048F48932910509F4E9
:100A00006DC08A9709F47CC0C901089589339105A6
:100A100051F18238910539F1C597B1F7809182047F
:100A200085FFF2CF29C0843E910509F447C048F400
:100A3000823E910599F1833E9105A9F121EE30E0C6
:100A4000E3CF863E910509F444C0873E9105E1F667
:100A50008091820483FD61C09091830491FF2BC03B
:100A600024EE30E0D1CF809182048370811152C096
:100A70008091830483FFC8CF29E230E0C5CF809105
:100A8000820480FD33C09091830490FFBDCF23EE9C
:100A900030E084FFB9CF20E030E0B6CF809182040F
:100AA00082FDF5CFB1CF8091820482FD30C090915C
:100AB000830490FD2FC084FFA7CFEDCF80918304E6
:100AC00081FFA2CF8091820427EE30E084FDE3CF46
:100AD0009BCF8091820483FDF7CF96CF80918204D3
:100AE00085FD1EC08091830483FF8ECF29E330E013
:100AF0008BCF8091820486FF87CF2AE230E084CFBB
:100B00008091820486FF80CF21E330E07DCF22EE0A
:100B100030E07ACF20EE30E077CF26EE30E074CFB1
:100B200025E330E071CF9091820492FF10C041E044
:100B3000282F2471243009F040E031E0282F28715B
:100B4000283009F030E0431711F02CE0822793FFA2
:100B500010C041E0282F2471243109F040E031E039
:100B6000282F2871283109F030E0431711F02CE0CC
:100B700082273091830430FF10C051E0282F21716B
:100B8000213009F050E041E0282F2871283009F089
:100B900040E0541711F029E0822731FF10C041E0F6
:100BA000282F2171213109F040E031E0282F2871F0
:100BB000283109F030E0431711F029E0822794FD35
:100BC000877E08951F93CF93DF930CDFEC0181158F
:100BD00022E5920708F052C0811540E5940708F01D
:100BE000CDC0803E910520F58D3C910508F0A1C057
:100BF000883A910570F4853A910508F097C08130E4
:100C00009105B9F10497813A910598F1C0E0D0E0DF
:100C100030C0885A91094B97C8F7C85AD0E0CC0F1A
:100C2000DD1FC45FDD4F0990D881C02DD46421C081
:100C3000811550E49507B0F4C11580E2D80708F09B
:100C4000B3C0C83ED105A8F0CE019A9581159F4149
:100C5000E8F68D2F68DF182FCE019927C3DEEC014F
:100C6000D12B07C09927BEDECC27DF70C82BD92B2C
:100C7000D06ACE01DF91CF911F910895803842E56F
:100C80009407C8F5803652E5950708F05BC0C0347C
:100C900082E5D807D0F4C03292E5D90708F04BC0FE
:100CA0008C2F8695869520E2829FC0011124C37007
:100CB00021E030E0A90102C0440F551FCA95E2F7B8
:100CC000EA01C82BD92BDD68D4CF8C2F8695869569
:100CD000877050E2859FC0011124C37021E030E08D
:100CE000A90102C0440F551FCA95E2F7EA01C82BBB
:100CF000D92BDC68BECF803C52E5950758F48F7144
:100D0000C03AD245A0F590E0982F8827EC01C46F37
:100D1000D06AAFCF805C9245809708F077CFDC2F08
:100D2000CC27CC27DF71C06FD06AA3CFA497D06443
:100D3000A0CFD0659ECFCF71D0E0DC2FCC27C16F84
:100D4000D06A97CF86958695877020E2829FC001F2
:100D50001124C37021E030E0A90102C0440F551FE7
:100D6000CA95E2F7EA01C82BD92BDA6882CFDBDE1D
:100D7000C82FD0E0DC2FCC27D0627BCF8F71D3DEA1
:100D800093E0CC0FDD1F9A95E1F7CC27DF70282F79
:100D900030E084FF05C050E1859F90011124332786
:100DA000C22BD32BD06965CF8D2F8F71BCDE182F4E
:100DB000CE01992717DEEC01D12BDECF80E008951C
:100DC000F894E82FE295EF70F0E041A18F7021E0F8
:100DD00030E0B90102C0660F771F8A95E2F7CB01B8
:100DE000962F9095942391A392A1892B82A3789416
:100DF00008950895CF92DF92EF92FF921F93CF93C1
:100E0000DF93172FE82FF0E0E850FA4F71110CC074
:100E1000E4918E2F7E2F6E2FDF91CF911F91FF9047
:100E2000EF90DF90CF900895E62EF12CC72ED12CB5
:100E3000F491EF2F86E0689F90011124CFEFD0E06E
:100E4000C901BE010E94EF2EAB01EE0CFF1C65E54F
:100E5000649FC001659F900D1124E81AF90A6E2D58
:100E6000660F6E0D7E01EC18FD08FE9DD001FF9D02
:100E7000B00D11248B2F169F70011124EF2CFF242D
:100E80006E01CE18DF087601FE9D6001FF9DD00C3B
:100E900011247E01E61AF108B701169F7001179F11
:100EA000F00C1124EF2CFF24CE19DF09FC9F7001F8
:100EB000FD9FF00C11247F2D43305105C1F02C3FD4
:100EC000334058F441305105B1F04230510509F03A
:100ED000A2CFEB2F8F2D7F2F9ECF4430510571F085
:100EE0004630510509F497CF7B2F8D2D94CF7D2D62
:100EF000EB2F8F2F90CF7F2FED2D8DCFEF2D7B2FD1
:100F0000F8CFCF93982F762F842FC22F692F72DFBF
:100F1000472F282F8C2F90E0BCD2CF91089580913D
:100F20002F04843060F48370846080932F04809158
:100F30003204893C18F088EC8093320408958C3A8E
:100F4000B0F38370886AF1CFCF93DF9380912F0441
:100F500080FD0BC0C0E0D0E020E040E060E0CE01CA
:100F600098D22196C431D105B9F709D7DF91CF9135
:100F70000895FF920F931F93CF93DF93182F062F9F
:100F8000F42E80912F0480FF0CC0C0E0D0E02F2D04
:100F9000402F612FCE017DD22196C431D105B9F702
:100FA000D3DFCDB7DEB7E5E00C94582FCF93C82F31
:100FB00080DC823059F0833069F0813079F441E18E
:100FC0006CEC8AEAD6DF8C2FCF91089540E069E976
:100FD0008FEFF8CF47E760E08EEEF4CF40E060E0BF
:100FE00080E0F0CFE3DF80938404089521E030E0D7
:100FF00001C0220F8A95EAF780918404822BF2CFF8
:1010000021E030E0A90102C0440F551F8A95E2F7A4
:10101000CA018095909184048923E4CF8091800156
:10102000833011F481E0ECDF10928001089580910B
:101030007E01833011F482E0E3CF089580917C013A
:10104000833009F4DDCF089590913C048095892385
:1010500080933C04282F2770211110C0891771F04C
:101060009091830492FF0AC0869586958695C8DF85
:1010700010923C0410923E0410923D040895909109
:10108000840421E030E0F90101C0EE0F8A95EAF70F
:10109000D90102C0AA0FBB1F6A95E2F7EA2B01C073
:1010A000220F4A95EAF7892F8E23E81303C0892F70
:1010B000822B98CF2095822F8923FBCF81FF06C0FA
:1010C0004AE468E280E055DF8F98089540E060E0F0
:1010D00080E04FDF8F9A0895CF93DF93EC0120914A
:1010E00032049C81892F817090FD822F692F62705C
:1010F00091FD622F492F447092FD422F3ADF8C817F
:1011000090E00196877099278C83DF91CF910895A5
:10111000982F762F842F20912F0420FF0AC0493C5E
:1011200008F088EC692F66DE962F672F482F892FED
:1011300020CF0895CF93DF93EC01EFE2F4E04381F9
:1011400062818C81E5DF8C818F5F8C83DF91CF9111
:101150000895CF93DF93EC01EC81F0E0ED50FB4F6D
:101160004491EFE2F4E062818181D2DF8C818F5F74
:101170008C83DF91CF910895FF920F931F93CF93AC
:10118000DF93EC01F12C00E010E040913204493C87
:1011900008F048EC8C819801609131048F0DB1DE2C
:1011A0000F5F1F4F8CE0F80E0431110571F7CCDE94
:1011B0008C819A8190FF07C08F5F8C83CDB7DEB79B
:1011C000E5E00C94582F8150F8CFEF92FF920F93E7
:1011D0001F93CF93DF93FC018281FF24F39480FF60
:1011E00002C0FF24FA94C0E0D0E020E040E060E0DC
:1011F000CE014FD104E010E0E12C80916D038E0D03
:101200008531A4F164E10E94E22E892F082E001C92
:1012100000088C170D0691F4409132040403A001DC
:1012200011245595479555954795493C08F048EC4C
:101230009E01609131048091300463DEEF0C015017
:101240001040D9F62196C431D10579F67DDE809122
:101250006D03F1E0FF120EC0811591F08150809373
:101260006D03CDB7DEB7E6E00C94572F87FFCECFE6
:101270008C5ECCCF90E00196BE010E94032FEFCF91
:1012800083E1EDCFCF93DF93C0E0D0E020E040E0FA
:1012900060E0CE01FED02196C431D105B9F7C0E09F
:1012A000D0E080916C03082E001C0008C817D00500
:1012B00074F180910E01082E001C00088C170D0699
:1012C00034F140913204493C08F048EC9E016091B1
:1012D00031048091300415DE2196C431D10509F71F
:1012E00033DE80910D0190916C03980F90936C0305
:1012F00020910E01280F20930E01121614F4933141
:101300001CF0819580930D01DF91CF91089520E02D
:1013100040E060E0CE01BDD0DFCFA6E0B0E0E3E981
:10132000F9E00C94392F8D839E83AD81BE81149694
:10133000FC912F2F30E0D9010E94B1309B01AC010C
:101340000E947F306B017C0180E290E09C012F1BAA
:101350003109F901A5E5B0E0A70196010E947F30AF
:1013600069837A838B839C839F01DF010E94232FF3
:101370009B010E94292F9B01AC012C0D3D1D4E1D90
:101380005F1D69817A818B819C810E948F30022F41
:1013900030E00A32B8F5C901880F991F820F931FF8
:1013A00095958795182F1095E12CF12C85E5D82E71
:1013B000D01A8D2DE1FC802F412F193C08F048EC0C
:1013C0009701609131049DDD5FEFE51AF50A84E134
:1013D000E816F10471F7B8DDAD81BE8114969C91D9
:1013E00081E0911519F0903219F48FEF80930C0180
:1013F00080910C01890FED81FE8184832696E8E0BF
:101400000C94552F85E590E0AC01421B530B9A01DB
:10141000CA01880F991F820F931F97FFC1CF0196B2
:10142000BFCF0F931F93CF93DF93EC0120E030E009
:1014300060913104809130049C8189010F5F1F4FBE
:101440002A30310554F4911501F140913204493CA0
:1014500008F048EC56DD9801EBCF911116C0409191
:101460003204493C08F048EC4CDD98010431110588
:10147000F9F66ADD8C8190E00196817099278C8362
:10148000DF91CF911F910F91089540E0EDCF6A9ABF
:101490000895FC01EE0FFF1FE80FF91FE453FD4F05
:1014A0006183408322830895FC0184818623811116
:1014B0000AC082818115B9F06823908593FF05C029
:1014C00081E061110FC080E00895282F22952F70D0
:1014D0008F70282B962F92959F706F70962B81E0BE
:1014E0002913F1CF089581E00895282F35EB2303C8
:1014F000C001112497FF04C080589109892F0895D5
:1015000080589F4FFBCF8091F20380FD14C081FD76
:1015100014C082FD16C08091F103811581F08E31D7
:1015200080F420E5829FC00111246EE170E00E94EA
:10153000032F862F089584E1089588E2089588E0B6
:10154000089580E508958091F20380FD17C081FD24
:1015500017C082FD19C08091F003811599F088327F
:1015600098F428E0829FC001112468E270E00E9494
:10157000032F6115710551F0862F089562E0FCCFAD
:1015800064E0FACF61E0F8CF68E0F6CF81E008953B
:10159000FA01309709F009950895E091C803F09198
:1015A000C903309739F00190F081E02D309711F0A8
:1015B0000995089580E00895A3E0B0E0E2EEFAE036
:1015C0000C943F2F9C018091CA029091CB0282170C
:1015D0009307B1F03093CB022093CA02E091C80385
:1015E000F091C903309761F00084F185E02D3097C8
:1015F00039F083E089833B832A83CE0101960995E4
:101600002396E2E00C945B2FA3E0B0E0EAE0FBE07D
:101610000C943F2F9C018091C8029091C9028217BF
:101620009307B1F03093C9022093C802E091C80338
:10163000F091C903309761F00084F185E02D309777
:1016400039F084E089833B832A83CE010196099592
:101650002396E2E00C945B2F90912801913091F059
:10166000A6E8B2E0EFEF90E02D91821751F0EF3F46
:1016700019F4211101C0E92F9F5F9630A9F7EF3FC0
:10168000C9F408959091820497FFEACFE82FE69578
:10169000E695E695803FA8F7F0E0E457FD4F8770A8
:1016A00021E030E001C0220F8A95EAF78281822B87
:1016B000828308950E2E000CFF0BEC57FD4FF8CFE0
:1016C00090912801913021F49091820497FD0CC0F3
:1016D000E6E8F2E09191891302C0DF011E9252E028
:1016E000EC38F507B9F70895E82FE695E695E69505
:1016F000803FC8F7F0E0E457FD4F877021E030E00D
:10170000A90102C0440F551F8A95E2F7CA018095CE
:1017100092818923828308958091270108952FB7AC
:10172000F8948091C4029091C502A091C602B09134
:10173000C7022FBF0895CF93DF93C09137048091E4
:101740003B04C82B809138048115F1F0E8DF20912B
:101750003F0430914004821B930B8C3D954008F070
:1017600036D9D091380480912801813021F48091BC
:10177000820487FD13C086E026E832E090E08150C5
:1017800088F4911124D9CD2B80911B0480958C2352
:1017900090911A04892BDF91CF9108958EE12EE864
:1017A00032E0ECCFF90141919F01411541F39F5F78
:1017B000E6CFB5DF2091F5033091F603232B2115F9
:1017C00021F080939803909399032091F70330912F
:1017D000F803232B211521F0809396039093970310
:1017E000E091C803F091C903309759F00680F78162
:1017F000E02D309731F082E08093F30383EF93E0A4
:1018000009950895611509F441C0E3E3E80FE33158
:1018100048F4F0E0EE53FF4C0C94162F74DE8195E3
:101820008093F603C6CF6FDEFBCF6DDE819580938C
:10183000F503F8CF68DEFBCF86DE8093F703F2CFA7
:1018400082DE8195FACF7FDE81958093F803EACF1F
:101850007ADEFBCF815D990B21E030E001C0220FE1
:101860008A95EAF78091F403822B8093F403DACF10
:101870008091F20381608093F203D4CF8091F203D0
:101880008260F9CF8091F2038460F5CF4091F50337
:101890008D3C59F48091F60387FF0DC01092F6033A
:1018A000411559F41092F10308C08E3C81F48091E7
:1018B000F60318169CF3411581F08091F70390917F
:1018C000F803892B8111AECF1092F003ABCF8F3C80
:1018D00041F447FFF0CF1092F5038091F603811594
:1018E000E0CF803D19F41416B4F3E5CF9091F703DF
:1018F000893D29F41916FCF61092F703DCCF8A3DD6
:1019000019F497FFD8CFF8CF9091F8038B3D29F4C5
:1019100097FFD1CF1092F803CECF8C3D19F4191652
:10192000CCF3C9CF9FE2980F983090F4815D990B6A
:1019300021E030E0B90102C0660F771F8A95E2F717
:10194000CB0180959091F40389238093F403B3CF66
:101950008D3D31F48091F2038E7F8093F203ABCF03
:101960008E3D21F48091F2038D7FF7CF8F3D09F0FA
:10197000A2CF8091F2038B7FF0CF2FB7F8946091C4
:10198000C4027091C5028091C6029091C7022FBF18
:101990000895CF92DF92EF92FF92CF93DF93D82FEB
:1019A000C92FC0902104D0902204E0902304F0902D
:1019B0002404E3DF6C197D098E099F09643F71409F
:1019C0008105910510F1D9DF6B017C0182E390E084
:1019D000A0E0B0E0C0928C03D0928D03E0928E0321
:1019E000F0928F038093880390938903A0938A03D6
:1019F000B0938B03D0931F04C0932004DF91CF9149
:101A0000FF90EF90DF90CF90089584EF91E0A0E0F9
:101A1000B0E0E0CFFC019B018091BA029091BB0243
:101A20008617970740F0672B29F48091E8008E779E
:101A30008093E800C90140E0009741F4411106C0DD
:101A40008091E80082FF2FC080E008952091A503D7
:101A50002115A9F12530A9F12091E80023FD2DC021
:101A60002091E80022FDECCF2091E80020FFE4CF98
:101A70003091F3002091F200009719F028303105E1
:101A800058F041E02830310509F040E02091E800AD
:101A90002E772093E800D0CF41914093F100019739
:101AA0002F5F3F4FE9CF8091A503811541F085302D
:101AB00041F08091E80083FFC3CF81E0089582E088
:101AC000089583E008958091B40287FF13C0809148
:101AD000E80082FF06C08091E8008B778093E800E1
:101AE00008958091A5038111F2CF08958091A503F7
:101AF0008115D9F38091E80080FFF8CF8091E8004C
:101B00008E77ECCF2091E4003091E50095E6A901B5
:101B10002091EC00822F817020FF06C08091E800A8
:101B200080FF06C080E008952091E80022FD1AC0E1
:101B30008091A503811589F0853089F08091EB00B3
:101B400085FD0FC02091E4003091E5004217530756
:101B5000F9F29A95E1F684E0089582E0089583E031
:101B6000089581E00895E8EDF0E080818E7F808324
:101B70001092E2001092DA001092E100A0EEB0E0C4
:101B80008C9181608C9380818F77808319BCA7EDC5
:101B9000B0E08C918E7F8C9380818F7E80831092B9
:101BA000B30208959091830492FF0EC0982F990F6D
:101BB000990F990F936090933C0418DAB0DD9093DD
:101BC0003E0480933D04089511CA0E941804809336
:101BD0007E01833079F0843029F0823069F4E2DFCD
:101BE00081E032CA80918404811521F082FF02C015
:101BF00082E006CA82E0FAC908950E941804809320
:101C00007C01833081F0843031F0823071F483E0E4
:101C1000C9DF81E019CA80918404811521F083FF16
:101C200002C083E0EDC983E0E1C90895982F909345
:101C3000E900891771F07091EC002091ED0050914E
:101C4000F00021FD09C09F5F973089F78093E9007C
:101C50000895762F242F50E03091EB003E7F309393
:101C6000EB003091ED003D7F3093ED003091EB00C3
:101C700031603093EB007093EC002093ED005093B3
:101C8000F0002091EE0027FDDECF0895A0E0B0E047
:101C9000ECE4FEE00C94392FC8EDD0E088818F7E13
:101CA0008883E7EDF0E080818160808384E082BFFB
:101CB00081E08093B30288818E7F888302EE10E0FA
:101CC000F80110821092DA0081EEC82ED12CF601B4
:101CD000108288818F778883888180688883888153
:101CE0008F7D888319BC1092A5031092B2021092C6
:101CF0007C031092B10290EEE92EF12CF701808165
:101D00008B7F808388818160888342E060E080E00F
:101D10008DDFF60180818E7F8083F8018081816074
:101D20008083808188608083F70180818E7F8083BB
:101D3000888180618883CDB7DEB7E8E00C94552FA9
:101D4000E09142049091410427E0E91302C080E051
:101D50000895AE2FB0E02E9FF0011124ED5BFB4FF4
:101D60003181361306C03081381303C035813413F6
:101D700004C0FD013196E770E8CF81E008953EB1DF
:101D80003B7F2EB124604FB7F8948CEC92E0FC01BD
:101D90000196508168E02EB9000000C057FF3EB99F
:101DA000550F000000C000C000C03EB900C06A95D9
:101DB00091F753E08830950751F74FBF8FE594E0D6
:101DC0000197F1F700C00000089581E08093E000E2
:101DD00080E28093D8001092C9008FE19EE40197C1
:101DE000F1F700C0000087E090EBDC0180938504F0
:101DF00090938604A0938704B093880488E19CE0C4
:101E00000FB6F894A895809360000FBE9093600081
:101E1000FFCF0F931F93CF93DF938B01EA01909134
:101E2000A503943051F58093E9008FEF9091E8007D
:101E300095FD06C095ED9A95F1F700008A95B1F7EA
:101E40008091E80085FF19C05DDE811111C080918D
:101E5000E80085FD06C08091E8008E778093E80059
:101E6000F3CFF80181918F018093F100219779F7E9
:101E70008091E8008E778093E800DF91CF911F91E9
:101E80000F910895792F603229F440E250E0682FD5
:101E900082E0BFCF0895CF93DF93D82FC92F48E0BA
:101EA00050E0682F792F81E0B4DF88E0ED2FFC2F20
:101EB000ACEBB2E001900D928A95E1F7DF91CF9102
:101EC0000895BC0140E250E084E0A3CFBC0146E0AD
:101ED00050E084E09ECFBC0143E050E084E099CF25
:101EE0009091830492FB222720F9281771F080FB40
:101EF00092F990938304609182047091830484E04A
:101F000090E00E944F3082E09FC808951F93CF93C6
:101F1000DF93C62F122F632F8430D0F4C530C0F466
:101F20004031B0F490E2C99FE0011124C40FD11DEB
:101F3000C40FD11D90EA899FC00DD11D1124CE017F
:101F400089960E943530612FCE018A960E943530E5
:101F5000DF91CF911F910895AF92BF92CF92DF9200
:101F6000FF920F931F93CF93DF93A12CB12C00E02E
:101F7000650110E012C0FE01259134914F2D612FB3
:101F8000802FC4DF2296F39480E1F812F4CF80E131
:101F9000C80ED11C1F5F153039F0E601CC0FDD1FD4
:101FA000CD58DD4FF12CE7CF0F5F80E5A80EB11CB7
:101FB0000430F1F6DF91CF911F910F91FF90DF90E8
:101FC000CF90BF90AF90089580912801813061F546
:101FD0008091820487FF28C0AEDB80938D0240E2AF
:101FE00050E068EA73E08CE892E00E940730892BA9
:101FF000D1F080E2ECE8F2E0A8EAB3E001900D92C3
:102000008A95E1F7E091C803F091C903309759F040
:102010000480F581E02D309731F086E080938C02CA
:102020008CE892E00995089586DB8093840248E06D
:1020300050E06AEC73E084E892E00E940730892B5C
:1020400091F388E0E4E8F2E0AAECB3E001900D92AD
:102050008A95E1F7E091C803F091C903309719F32D
:102060000280F381E02D3097F1F284E892E0DACF3C
:10207000811531F090913704892B80933704A4CFD8
:102080000895811531F090913B04892B80933B0496
:102090009BCF0895811519F00E94DF0495CF089514
:1020A000811539F0809590913B04892380933B04FE
:1020B0008BCF0895CF93C82F8115A1F08238A1F45A
:1020C0006CDA81FD0FC089E3C7DA7EDF2FEF37EED0
:1020D00083E0215030408040E1F700C0000089E3F8
:1020E000EFDA72DFCF910895833889F456DA80FDF4
:1020F000F9CF83E5B1DA68DF9FEF21EE34E091504C
:1021000020403040E1F700C0000083E5E9CF84388B
:1021100089F443DA82FDE6CF87E49EDA55DF8FEF5C
:1021200091EE24E0815090402040E1F700C0000093
:1021300087E4D6CF8CEF8C0F813A78F58091280117
:10214000813069F0E6E8F2E08CE892E02191C21774
:1021500001F18E179F07D1F78C2F7EDAC2CF8091C5
:10216000820487FFEFCFEC2FE695E695E695F0E049
:10217000E457FD4F828190E04C2F477021E030E022
:1021800002C0220F331F4A95E2F782239323892B43
:1021900019F38C2F95DA18DFDFCF80E28C0F8830AF
:1021A00068F4C77081E090E001C0880FCA95EAF733
:1021B000C0913704C82BC093370493CF8BE58C0FA5
:1021C000833030F42C2F2452330BC901F5D98ACF38
:1021D000E8E5EC0FEB3148F4F0E0EE0FFF1FEE5BAB
:1021E000FD4F8081918110DA7DCF83E38C0F8331A5
:1021F00008F078CF61E08C2F05DB74CFCF93DF93AD
:10220000EC01805E9109089720F061E470E120976D
:1022100011F468E370E1CE010E9450048C2F4ADF74
:10222000DF91CF910895CF93DF93EC01FB018A8179
:10223000823031F482819381E1DF8D8182608D83F0
:10224000DF91CF910895FB0180819181D7CF8115D6
:1022500009F445C0823849F4A0D981FF40C089E320
:10226000FBD9B2DE89E32CDAAFCE833841F495D9BD
:1022700080FF35C083E5F0D9A7DE83E5F4CF84384D
:1022800041F48BD982FF2BC087E4E6D99DDE87E439
:10229000EACF9CEF980F913A30F390E2980F983084
:1022A00050F4877091E001C0990F8A95EAF7892F61
:1022B0000E94DF04D9CF9BE5980F933018F480E09B
:1022C00090E07AC998E5980F9B3118F480E090E08F
:1022D0009BC993E3980F933110F460E093CA08957B
:1022E000CF93DF93EC01B3DFCE01805E91090897B5
:1022F00020F060E570E1209711F46AE470E1CE010E
:102300000E945004DF91CF910895FB01DC011296E9
:102310008C91813021F480819181E2CF08958230C7
:10232000E9F782819381F9CF0F931F93CF93C82F41
:102330008B01C0DE0115110531F48C2F88DFCF91A0
:102340001F910F9108958FE99FE00197F1F700C069
:10235000000001501109EECF0E9418048093800103
:10236000833089F0843031F0823081F460E570E0B0
:1023700089E3DACF80918404811529F081FF03C0BD
:1023800081E00C94000881E00C94F6070895EF9228
:10239000FF920F931F93CF93DF93C62FD42F122F4B
:1023A000811599F060932B04BAD99093B002809371
:1023B000AF02C77081E001C0880FCA95EAF758DE06
:1023C000CDB7DEB7E6E00C94572F80912B0468134D
:1023D0002FC0E090AF02F090B002A1D98E199F09F2
:1023E000883C910528F500E20D0FCD1799F0C770D4
:1023F000FF24F3948F2D01C0880FCA95EAF74ADEB7
:10240000083040F48D2F877001C0FF0C8A95EAF7E1
:102410008F2D2EDE60E070E0812F86DF083080F6A1
:10242000D77081E001C0880FDA95EAF733DEC8CFB4
:10243000C77081E001C0880FCA95EAF7F7CF109204
:10244000370480912801813011F58091820487FF43
:102450001EC0EEE8F2E08EE1DF011D928A95E9F7F9
:1024600080E090E0A9D880E090E0CED810923B04C4
:10247000ABDD86E0E3EFF3E0DF011D928A95E9F73B
:102480001092F1031092F0031092F20392C9E6E861
:10249000F2E086E0E1CFD3DF2FEF84E39CE0215030
:1024A00080409040E1F700C0000088E19CE00FB65A
:1024B000F894A895809360000FBE90936000FFCFC2
:1024C000AAE2B0E0E6E6F2E10C943E2F84EB92E063
:1024D000FC0101962091F100208322E08C3B9207C1
:1024E000B9F78091B502893009F457C0C8F4823039
:1024F00009F4B2C0833009F482C0813081F1809147
:10250000E80083FFE6C08091B4029091B5029A3052
:1025100008F0DFC0E92FF0E0EB52FF4C0C94162FCF
:102520008A3009F489C08B3051F78091B40281322E
:1025300031F78091B8029091B902892B01F780910F
:10254000E800877F8093E800BEDA81E09091B602D0
:10255000911101C080E08093280171DFD0CF80917C
:10256000B402813A61F68091E800877F8093E800A9
:102570008091B8029091B902892B59F060E080E017
:1025800090E070E047DA8091E8008B778093E80074
:10259000B6CF68E08CEB92E0F4CF8091B402813248
:1025A00009F0ADCF8091B8029091B9028D7F892B4F
:1025B00009F0A5CF8091E800877F8093E8008091A3
:1025C000E80082FF17C09091F3008091F20002971B
:1025D00031F48091F100813011F0863021F4809146
:1025E000F100809327018091E8008B778093E800C9
:1025F0006ADA85CF8091A5038111E1CF80CF8091E8
:10260000B402813A09F07BCF8091B8029091B9026F
:10261000892B09F074CF8091E800877F8093E800D0
:102620008091E80080FFFCCF809128018093F10029
:102630008091E8008E77DACF8091B402813209F080
:102640005ECF8091E800877F8093E8003CDA80913C
:10265000B7028093260153CF8091B402813A09F0EA
:102660004ECF8091E800877F8093E8008091E8005A
:1026700080FFFCCF80912601D9CF803889F0823845
:1026800041F58091B8028F70873018F58093E9008A
:102690008091EB0085FB882780F91092E90006C045
:1026A00080917C03880F9091B102892B9091E80072
:1026B000977F9093E8008093F1001092F100809151
:1026C000E8008E7723C0811116C08091B602813058
:1026D00009F18091E80083FF0AC08091E800877FBC
:1026E0008093E8008091EB0080628093EB00AA96D3
:1026F000E3E00C945A2F823061F78091B602811585
:1027000081F01092E9008091E800877F8093E800D3
:10271000DAD9DFCF81E0933009F080E080937C0349
:10272000F0CF8091B8028F702FEF280F263088F6F7
:102730008093E9002091EB0020FFE3CF933031F448
:102740008091EB0080628093EB00DBCF9091EB00F7
:1027500090619093EB0021E030E0A90102C0440FAA
:10276000551F8A95E2F74093EA001092EA008091A3
:10277000EB008860E8CF8111ACCF1091B6021F77D3
:102780008091E3008078812B8093E3008091E800C2
:10279000877F8093E80097D98091E80080FFFCCF85
:1027A0008091E30080688093E30083E0111101C011
:1027B00082E08093A5038DCF8058823008F089CFC6
:1027C0008091B6029091B7028C3D53E0950791F548
:1027D00083E08A838AE289834FB7F894DE011396F7
:1027E00020E03EE051E2E32FF0E050935700849167
:1027F00020FF03C082958F703F5F8F708A30C0F0DA
:10280000895C90E08D939D932F5F243161F74FBFDA
:102810008091E800877F8093E8006AE270E0CE0153
:102820000196F8D88091E8008B778093E80051CF2B
:10283000805DE7CF292F33272330310509F44EC0BF
:1028400078F52130310509F47DC08BE590E0E8ECA6
:10285000F1E02230310509F03CCF2091E800277FDC
:102860002093E8002091BA023091BB0282179307AF
:1028700008F49C0140E02115310509F068C04111C0
:1028800066C08091E80082FDCDCF8091A5038115BF
:1028900049F2853039F28091E80083FFF2CFC2CF50
:1028A0008091B8029091B9022132310509F43BC000
:1028B0002232310509F00DCF8330910508F009CFA0
:1028C000FC01EE0FFF1FE054FE4F0190F081E02D60
:1028D00083549E4FDC018C9190E011C09C01332702
:1028E000813089F022303105B1F0232B09F0F1CE8F
:1028F000EFE6F2E0E4918E2F90E0EFE6F2E0009751
:1029000009F4E7CEAACFE3E5F2E0E4918E2F90E060
:10291000E3E5F2E0F4CFE5E3F2E0E4918E2F90E01E
:10292000E5E3F2E0ECCF8330910508F0D2CEFC0174
:10293000EE0FFF1FEA53FE4F0190F081E02D89E07A
:1029400090E08BCF82E190E0E3E2F2E086CF8091ED
:10295000A503811509F466CF853009F463CF809112
:10296000E80083FD5FCF8091E80082FD8ACF8091EF
:10297000E80080FF80CF9091F3008091F200211554
:10298000310519F08830910550F041E0089709F0C1
:1029900040E08091E8008E778093E8006CCF44910E
:1029A0004093F1003196215031090196E8CF8038EB
:1029B00009F08FCE8091E800877F8093E8008091B6
:1029C000B2028093F1007BCE811183CE1091B602CA
:1029D000123008F07ECE8091E800877F8093E80077
:1029E0001093B20270D81115D9F084E08093A5033A
:1029F00042E061EC81E01AD942E261EC84E016D950
:102A000042E261EC82E012D942E260EC83E00ED94E
:102A10008091A503843051F482E08093290159CE3E
:102A20008091E30087FDE1CF81E0E0CF81E0F5CF49
:102A3000CF93DF93EC014A855B856E857F850E948D
:102A4000C80A9B81909580913B04892380933B0425
:102A50008C810E94DF04B8DA86E0FE0111928A952B
:102A6000E9F7DF91CF910895CF93DF93EC018D814A
:102A700081FD16C082608D8380913B049B81892BF0
:102A800080933B04809137049C81892B8093370489
:102A90009BDA488559856E857F85CE010E94C80ADC
:102AA00010922804109227048D8180FD02C0CE016F
:102AB000BFDFDF91CF9108951F93CF93DF93182F3E
:102AC000A0911D04B0911E04109709F449C0109202
:102AD000200410921F0410921B0410921A041696E0
:102AE000CD91DC911797CE019A9581159F4108F4FD
:102AF000D07ED1E0C11101C0D0E01996ED91FC91DA
:102B00001A97309731F01B966D917C9180E0099572
:102B1000D823D11539F08CEF8C0F813A28F58C2F02
:102B20000E94600B1115A9F0E0911D04F0911E04A4
:102B3000808584FD0EC080911C04811551F0808138
:102B400091819C01215031092F333E4710F40E949E
:102B5000C90C3ADA10921E0410921D0410921C0443
:102B6000DF91CF911F9108952FDA8C2F70DBDACF90
:102B70000F931F93CF93DF93843028F5653018F5BA
:102B8000403108F520E2629FE0011124C40FD11DFD
:102B9000C40FD11D30EA839FC00DD11D1124CE0179
:102BA00089960E941430082F10E0102F0027CE01C4
:102BB0008A960E9414309801282BC901DF91CF9189
:102BC0001F910F91089580E090E0F8CF462F672F76
:102BD000753028F4403118F4843008F4C9CF80E00F
:102BE00090E00895A0E0B0E0E8EFF5E10C943A2F12
:102BF0007C010091840480913A04082BC3E0D0E06A
:102C000010E0C8010C2E02C0959587950A94E2F752
:102C100080FD09C02197A8F7D12C8D2DCDB7DEB747
:102C2000E7E00C94562FDC2EB7018C2FCFDF0E94EB
:102C3000E205019779F3F1CF0F931F93CF93FC0136
:102C4000858100811181811581F0611571F0C801C4
:102C5000C9DFC82F682FC8010E946F04B8018C2FEC
:102C6000B5DFCF911F910F910895C8010E94A20472
:102C7000C82FF4CFCF93DF93D82FC92FB3DF6D2F99
:102C80007C2FA4DF0E94E205DF91CF910895FC0123
:102C90008481811599F080819181ECDF282F9295B4
:102CA0009F70963099F060F4925F9F70923030F48C
:102CB000203FB1F038F481E0283E38F080E00895FC
:102CC0009A5FF3CF81E0243FC9F7089591E0213F57
:102CD00009F090E081E0283E08F080E0892B08951B
:102CE00081E008950F931F938B019C0107351140DC
:102CF0002105310540F4CB0187559D4F0E941430CA
:102D00001F910F91089580E0FBCFCF92DF92EF9259
:102D1000FF92CF93DF93EC01C880D980EA80FB80DB
:102D2000C701B601DFDF9FEFC91AD90AE90AF90A1C
:102D3000C882D982EA82FB82DF91CF91FF90EF9027
:102D4000DF90CF90089585E290E00E9414308532A4
:102D500089F486E290E00E941430873059F487E2CB
:102D600090E00E94143091E0823109F090E0892FC8
:102D70008170089580E0FCCFA0E0B0E0E2ECF6E1E5
:102D80000C94332FFC018280648081E08483E3EF24
:102D9000F4E09490E2E7F5E0E491009132040695C6
:102DA000015810E0000F111F012F1127C8E0D3E0D8
:102DB000C12CD12CAA24AA94B12C77247A94E91995
:102DC000EE2EF12C83E0881630F480913004888355
:102DD00080913104898361101AC01B821A824A8152
:102DE000493C08F048EC9601698188810E9481077E
:102DF0008FEFC81AD80A259684E1C816D10411F7B6
:102E00000E94A407CDB7DEB7EEE00C944F2F8B8164
:102E10008115E9F081508B83789EC00111246C816B
:102E200070E00E94EF2EFB01FF27ED50FB4F8491D5
:102E3000E82FE9197E9EC0011124B7010E94EF2EF0
:102E400080913204689FB00111247A83C8CF0E9418
:102E5000EC2FB5010E94032F801791070CF0BFCF14
:102E600083E0881688F00E94EC2FB5010E94032FA2
:102E700088830E94EC2F209131042695622F70E008
:102E80000E94032F280F29831A8280913204893CE3
:102E900020F088EC8C838B83A2CF8431D8F784E137
:102EA000F9CF0F93CF93DF93CFE2D4E048815981DC
:102EB0006A817B8188E090E00E94473028813981D7
:102EC0004A815B816C817D818E819F8100E20E94BD
:102ED000812F622F83E290E00E943530DF91CF9105
:102EE0000F910895EFE2F4E085E080831182128271
:102EF00013821482CF01D5CF80913304833018F42C
:102F00008F5F809333048FE294E0CBCF80913304C2
:102F1000811519F08150809333048FE294E0C1CF82
:102F2000A0E0B0E0E6E9F7E10C94342F082FF62E8C
:102F3000142FE22E90912F0490FF26C0E92FE695E2
:102F4000E695AE2FB0E0A453BE4F8C9180932D0434
:102F50009C7F9430F1F4842F493C08F088EC602F7A
:102F60007F2D0E94FA06962F672F482F892F0E94E7
:102F7000B90700933004F092310410933204E11445
:102F800019F08FE294E08DDFCDB7DEB7EDE00C9461
:102F9000502F823019F410913204EBCF863019F49F
:102FA00000913004E6CF8930D9F3893111F7E95126
:102FB0008E2F8170782EE695F0E0ED50FA4FE49177
:102FC000CE2FD0E0A12CB12CC12CD12C84E1882EA5
:102FD000912CC501B4010E94EF2E802F711015C0F5
:102FE000860F412F193C08F048EC96016F2D0E9486
:102FF00081078FEFC81AD80AAC0EBD1E84E1C8162F
:10300000D10439F70E94A407B4CF861BEACFEFE2C0
:10301000F4E0818121E043816281885F81CFEFE22A
:10302000F4E0818121E043816281885079CFEFE231
:10303000F4E0628128E0620F08F46FEF21E0438141
:1030400081816ECFEFE2F4E0628128E0621B08F438
:1030500060E021E04381818163CFEFE2F4E04381CE
:1030600028E0420F08F44FEF21E06281818158CFC0
:10307000EFE2F4E0438128E0421B08F440E021E065
:10308000628181814DCF60912F046695669570E0D5
:103090004BE050E08FE091E00E94FA2F892B19F469
:1030A00081E080932E040E948F0B90939103809374
:1030B0009003089590912F0490FF2CC0811559F131
:1030C0008B3258F58F73880F880F90912F0493706F
:1030D000892B80932F04611519F08FE294E0E1DED3
:1030E00060912F046695669570E04BE050E08FE0AC
:1030F00091E00E94FA2F892B91F010922E0481E02A
:103100008093930320E040913204609131048091D8
:10311000300406CF089581E0D6CF8AE2D4CFB3DF62
:10312000EECF80912F04869586958F5F8B3208F0C5
:1031300081E061E0BFCF80912F04869586958A95C6
:1031400009F48AE261E0B6CF2F923F925F926F92CC
:103150007F928F929F92AF92BF92CF92DF92EF9227
:10316000FF920F931F93CF93DF93CDB7DEB72A97CC
:103170000FB6F894DEBF0FBECDBF3C01DC01149644
:103180008C91811509F4FEC061E0C30155DD4C014D
:10319000F3018581811511F1809127049091280414
:1031A0000097E1F088169906C9F0FC01FF278530E9
:1031B00008F09EC064E0EE0FFF1F6A95E1F7E55D41
:1031C000FE4F85818460858391828082CF014CDCB3
:1031D00010923B0461E0C3012FDD4C01D301159631
:1031E0005C90C401815A92454F9708F084C0F40165
:1031F000B0EAEB27B2E5FB275110DDC0D090F90310
:10320000E090FA03F090FB031091FC03B091FD03F2
:10321000A091FE03F091FF03C090000421E030E094
:1032200040E050E060E070E080E090E00E2F0E940F
:10323000662FA22EAD20B32EBE20E42FEF21D52E77
:10324000D122E62EEB22F72EFA22082F0F23192F78
:103250001C21CE2E0E949C2F09F483C080912A014C
:1032600081118DC4C40197558115914008F038C66D
:10327000F401FF27B5E08B1608F073C034E0EE0FC1
:10328000FF1F3A95E1F78F01055D1E4FD30115969B
:103290008C91E05DFE4F908180FB90F990838115C9
:1032A00009F401C60E948F0B90932A04809329048D
:1032B000F80182818F5F828380913B049091370473
:1032C000892B838380913804848346815781668566
:1032D0007785C8010E94C80AD80115968C9181FD96
:1032E000DFC5982D892D9093270480932804E6C488
:1032F000E0E0F0E066CF511409F4FCC28114E1E093
:103300009E0608F457C0F9E58F16FCE79F0619F1F1
:1033100010921904C40197578038910508F455C3D9
:10332000EEE58E16ECE79E0609F425C4FFE58F1640
:10333000FCE79F0659F00DE580160CE7900609F0B2
:103340008DCF80912A01811509F415C410922A01AC
:1033500080E0B2DB06C08091190491E08927809358
:10336000190480913C048770811561F0D301159692
:103370008C91811539F08091830482FF03C082E033
:103380000E9424082A960FB6F894DEBF0FBECDBF68
:10339000DF91CF911F910F91FF90EF90DF90CF9031
:1033A000BF90AF909F908F907F906F905F903F9075
:1033B0002F900895F40180911904811509F4E7C054
:1033C00010921904E03CF10508F03FC0E038F10527
:1033D00008F0A7C08F01005411090034110508F44A
:1033E0006DC021E030E040E050E060E070E080E05F
:1033F00090E00E2F0E94662FA091F9032A2BA09136
:10340000FA033A2BA091FB034A2BA091FC035A2B01
:10341000A091FD036A2BA091FE037A2BA091FF03DC
:103420008A2BA0910004A92B2093F9033093FA036F
:103430004093FB035093FC036093FD037093FE03E2
:103440008093FF03A093000435C021E030E040E00A
:1034500050E060E070E080E090E08F01005C1109D6
:103460000E94662FA09111042A2BA09112043A2BDE
:10347000A09113044A2BA09114045A2BA091150477
:103480006A2BA09116047A2BA09117048A2BA09185
:103490001804A92B209311043093120440931304B1
:1034A00050931404609315047093160480931704CA
:1034B000A09318044F01511033CFD0CE21E030E05B
:1034C00040E050E060E070E080E090E00E94662F15
:1034D000A09101042A2BA09102043A2BA09103048D
:1034E0004A2BA09104045A2BA09105046A2BA091A9
:1034F00006047A2BA09107048A2BA0910804A92B1B
:103500002093010430930204409303045093040475
:10351000609305047093060480930704A093080445
:10352000C9CF21E030E040E050E060E070E080E0B2
:1035300090E08F01005811090E94662FA0910904A4
:103540002A2BA0910A043A2BA0910B044A2BA0919C
:103550000C045A2BA0910D046A2BA0910E047A2B17
:10356000A0910F048A2BA0911004A92B2093090489
:1035700030930A0440930B0450930C0460930D04A1
:1035800070930E0480930F04A093100493CFE03443
:10359000F10508F084C0E090F903F090FA0310916F
:1035A000FB03B091FC03A091FD03D090FE03C090FB
:1035B000FF03B090000421E030E040E050E060E024
:1035C00070E080E090E00E2F0E94662FA22EAE20C9
:1035D000232E2F20342E3122B523E62EEA22F72E79
:1035E000FD20082F0C21192F1B21B22CC32CDB2E00
:1035F0000E949C2F09F05FCF8F01E03CF10508F09D
:10360000ACC0E038F10508F030C1005411090034B5
:10361000110508F4E7C021E030E040E050E060E050
:1036200070E080E090E00E2F0E94662FE22EE09482
:10363000F32EF094042F0095152F1095B62FB0950A
:10364000A72FA095F82FF095E92FE0952091F90389
:103650002E213091FA033F214091FB0340235091EA
:10366000FC0351236091FD036B237091FE037A23C9
:103670008091FF038F23909100049E232093F903F0
:103680003093FA034093FB035093FC036093FD03D4
:103690007093FE038093FF039093000462CEE038A2
:1036A000F105F0F4E0900104F0900204109103049D
:1036B000B0910404A0910504D0900604C0900704C2
:1036C000B090080421E030E040E050E060E070E0BD
:1036D00080E090E01F0100E4201A3108022D74CF31
:1036E000E03CF105E8F4E0900904F0900A04109140
:1036F0000B04B0910C04A0910D04D0900E04C09066
:103700000F04B090100421E030E040E050E060E0B1
:1037100070E080E090E01F0100E8201A3108DECF61
:10372000E0901104F090120410911304B09114046D
:10373000A0911504D0901604C0901704B0901804FE
:1037400021E030E040E050E060E070E080E090E0B8
:103750001F0100EC201A3108C1CF005C110921E0E3
:1037600030E040E050E060E070E080E090E00E94F7
:10377000662FE22EE094F32EF094042F0095152F7F
:103780001095B62FB095A72FA095F82FF095E92F9B
:10379000E095209111042E21309112043F21409197
:1037A00013044023509114045123609115046B239A
:1037B000709116047A23809117048F239091180436
:1037C0009E232093110430931204409313045093CA
:1037D0001404609315047093160480931704909357
:1037E0001804BFCD21E030E040E050E060E070E040
:1037F00080E090E00E94662FE22EE094F32EF09499
:10380000042F0095152F1095B62FB095A72FA095D2
:10381000F82FF095E92FE095209101042E213091A9
:1038200002043F214091030440235091040451239A
:10383000609105046B23709106047A23809107043C
:103840008F23909108049E23209301043093020457
:10385000409303045093040460930504709306049A
:1038600080930704909308047CCD0058110921E04F
:1038700030E040E050E060E070E080E090E00E94E6
:10388000662FE22EE094F32EF094042F0095152F6E
:103890001095B62FB095A72FA095F82FF095E92F8A
:1038A000E095209109042E2130910A043F21409196
:1038B0000B04402350910C04512360910D046B23A1
:1038C00070910E047A2380910F048F23909110043D
:1038D0009E232093090430930A0440930B045093D1
:1038E0000C0460930D0470930E0480930F04909366
:1038F000100437CD811421E0920608F0AFCC30E4FB
:103900008316910410F4F40179CC40E884169104F4
:10391000F0F4D0900104E0900204F09003041091C0
:103920000404B0910504A0910604F0910704C0902E
:10393000080421E030E040E050E060E070E080E02A
:1039400090E05401E0E4AE1AB1080A2D70CCF0EC1E
:103950008F169104E8F4D0900904E0900A04F090E6
:103960000B0410910C04B0910D04A0910E04F09181
:103970000F04C090100421E030E040E050E060E02F
:1039800070E080E090E0540100E8A01AB108DDCFBB
:10399000D0901104E0901204F090130410911404DC
:1039A000B0911504A0911604F0911704C09018046A
:1039B00021E030E040E050E060E070E080E090E046
:1039C0005401E0ECAE1AB108C0CF182D103108F048
:1039D000C8CC66E571E080E090E084D9C12CD12CA0
:1039E00076018111BECC111120C0C982DA82EB822E
:1039F000FC828E010F5F1F4FC80187D9C02EB12EE8
:103A0000811509F4AECC813009F05CC0C8017DD9C4
:103A10008130F9F4C80179D960E570E0893311F09B
:103A200060E070E00E949411E7CFF7E5CF16F1E077
:103A3000DF06E104F10409F494CCC701B60152D9C0
:103A40000FEFC01AD00AE00AF00A8111EECF115030
:103A5000CACF823029F4C80158D90E945A10CCCF5D
:103A6000833029F4C80151D90E942711C5CF843071
:103A700081F4C8014AD9E12CF12C5AE0D52E482F07
:103A80004053550B9A014A30510530F0E114F104CE
:103A900079F48111B1CF65CCDE9CC001DF9C900D23
:103AA00011247901E80EF91E8C2D9B2D2ED9E7CF1C
:103AB000AFE9BFE01197F1F700C00000B1E0EB1AE9
:103AC000F108E4CFE82FF0E0E35CF84F9490282F62
:103AD00026952695269530E0F901E35DF84FE490B0
:103AE0008770F12C082E02C0F594E7940A94E2F74F
:103AF000E0FAEE24FF24E0F8F901E35EF84FC49009
:103B0000D12C082E02C0D594C7940A94E2F7C0FACB
:103B1000CC24DD24C0F8F901E35FF84FA490B12C68
:103B200002C0B594A7948A95E2F7A0FAAA24BB2410
:103B3000A0F8E114F10419F081EE0E945A10C114AA
:103B4000D10419F086EE0E945A1060E070E0892DD1
:103B50000E949411CD2819F086EE0E942711EF28BB
:103B600019F081EE0E942711AB2809F445CF60E0DF
:103B700070E08CE257CF81E080932A01F2CB740190
:103B800030EEE31AF1082090390480913704282A96
:103B900080913804282A48E0E416F10408F061C056
:103BA00094012770332781E090E001C0880F2A95A7
:103BB000EAF7511409F452C0282AD3018D919C913F
:103BC0000E94A20421E030E0F90102C0EE0FFF1FC5
:103BD0008A95E2F7FA87E98720911D0430911E0447
:103BE0003E832D83409125045091260458874F83AE
:103BF00048E7A42E42E0B42ED5010D911D915D0140
:103C00000115110509F446C0211004C0F801828194
:103C100081111EC0D80113968C91139790E0E9850D
:103C2000FA858E239F23892B99F018968C91982FD3
:103C30009770911101C087E0F8E0EF16F10408F0E9
:103C400075C0511409F46EC086958170811173C0DE
:103C5000A2E8B2E0AA15BB0579F61CC0809528221F
:103C6000ACCF51104CC0809125049091260488154A
:103C7000990581F4109226041092250410922104D3
:103C80001092220410922304109224041092200413
:103C900010921F0480911D0490911E04009709F456
:103CA000E1CAB8E0EB16F10408F0E3C0622D0E940F
:103CB000540A811103C081E00E945C15D30115965E
:103CC0009C91911509F4F0C110922B049401305786
:103CD0002332310508F028C584E090E00E942130AD
:103CE0009093830480938204F401E150F047E23220
:103CF000F10508F01FC1E152FF4C0C94162F909271
:103D00002604809225040E94BD0C609321047093C8
:103D10002204809323049093240410922004109290
:103D20001F044BCF82FB882780F990CF511409F4F0
:103D30008FCF80FF8DCFD801CD90DC908C149D0467
:103D400019F4511409F484CFED81FE81E017F107D5
:103D500009F47ECFD8011D96ED91FC91309721F0AA
:103D60008081811509F474CF622DC8010E94540A24
:103D7000811509F46DCF81E08C149D0409F080E079
:103D8000382E3520C114D10441F0311006C0EF8126
:103D9000F885CE16DF0609F05BCF80E00E945C1547
:103DA00010931E0400931D0481E080931C04D8012D
:103DB00015968C91159780931B0431100CC0CD285B
:103DC00051F08D919C919C0124503109213A31058B
:103DD000A0F50E94600BF801C680D780C6019A95B5
:103DE00081159F4110F420EED222BB24B394C6016A
:103DF00001978F339E4708F0B12CD8011996ED91A9
:103E0000FC911A97309731F01B966D917C9181E06F
:103E10000995B822B11471F0F801868197810E944A
:103E2000260480931A04C601F8E0EF16F10440F46A
:103E30000E94C90C0E94E40F0AC00E942711CBCF38
:103E40000497813A910548F48C2D0E942C0B311473
:103E500009F408CA0E94E40F84CA0E94E40F8FE3A9
:103E60009CE90197F1F700C000008C2D0E945A10C8
:103E7000EECFFC01208131812815390541F4511024
:103E800009C010921C0480E00E945C15EBC951141B
:103E900009F4E8C9DC0118968C9185FDE3C9F3CFDC
:103EA00090E080E020CAF8014485558566857785D5
:103EB000C8010E94C80AD80115968C9181FFFECED8
:103EC000C8010E9418158091270490912804881633
:103ED000990609F0F3CE1092280410922704EECE32
:103EE000F3018581F401E851FC47E730F10508F062
:103EF000E5CEEF5FFE4C0C94162F26E241EE61EE0C
:103F00000E94C7112ECA27E245EE65EEF9CF26E2E0
:103F100041EE60EEF5CF27E245EE64EEF1CF26E20A
:103F200041EE62EEEDCF27E245EE66EEE9CF28E204
:103F300041E0EBCF809182048160809382046091A4
:103F400082047091830484E090E00E944F300E94CC
:103F50001F1207CA80918304886080938304EFCF87
:103F6000809182048260E9CF809182048460E5CFF1
:103F7000809182048860E1CF809183048160EDCFDD
:103F8000809183048260E9CF809182048061D5CFE3
:103F9000809182048062D1CF809182048064CDCFF1
:103FA0000E941F12809182048068C7CF8091820492
:103FB0008C60C3CF809183048360CFCF80918204D3
:103FC0008E7FBBCF80918304877FC7CF809182048F
:103FD0008D7FB3CF809182048B7FAFCF809182049D
:103FE000877FABCF809183048E7FB7CF809183048E
:103FF0008D7FB3CF809182048F7E9FCF809182048A
:104000008F7D9BCF809182048F7B97CF0E941F1260
:10401000809182048F7791CF80918204837F8DCFAE
:10402000809183048C7F99CF80918204992782FFAD
:10403000939590FB82F990FB83F97FCF8091830465
:10404000982F909590FB80F990FB81F986CF909105
:104050008204892F8F7B96FF80646FCF0E941F128E
:1040600090918204892F97FB87F9805866CF61E091
:104070008EE090E00E94353062CF60E0F9CF909101
:104080008204892F8F7E94FF806157CF90918204A4
:10409000892F8E7F90FF816050CF90918304892F6C
:1040A000877F93FF886059CFB6E18B16BCE79B06EC
:1040B00009F030C380913704282F21718A7A2111A9
:1040C00080E0911571F091E0811101C090E0909332
:1040D0002C04811521F085E30E942C0BBBCE89E2D4
:1040E000FBCF80912C04811521F085E30E94600BA9
:1040F000B1CE89E2FBCF80912F0480FF0CC08E7F70
:1041000080932F048FE294E00E94511710922E04A6
:104110000E94A40726C9816080932F0461E08695E0
:1041200086950E945A181DC9811521F004D819C915
:104130008115E1F30E94911814C9811529F00E949C
:104140000F180FC98115D9F30E9407180AC98115E4
:1041500029F00E94221805C98115D9F30E94171869
:1041600000C9811529F00E943818FBC88115D9F3C0
:104170000E942D18F6C8811529F00E948617F1C8F3
:104180008115D9F30E947C17ECC8E7E78E16ECE79F
:104190009E0609F1F8E78F16FCE79F0629F19401C6
:1041A000205E32452032310520F591113DC0082DA9
:1041B0000F7181E090E09C0102C0220F331F0A952D
:1041C000E2F74901622F83E090E00E943530882DAC
:1041D0000E946C04C6C881E00E94F60743E062E0DA
:1041E00081E00E943F08BDC882E0911509F499C2A0
:1041F000F3CF9115C9F03AE583163CE7930609F42D
:104200008CC008F061C051E085165CE7950609F4A2
:1042100082C083E088168CE7980609F476C0811482
:104220009CE7990609F464C0F3018581E080F18080
:10423000811509F476C0C7010E94F215182F682F66
:10424000C7010E946F04B701812F0E94E6150E94EA
:10425000E2058C01D3011596DC9015971696CC904B
:10426000C2942FE0C22280913C048770811501F135
:10427000ED2CD114F1F0812F807F803461F080E249
:10428000800F8830A8F0812F807E803221F40230A8
:1042900078F0C11469F08091830482FF09C082E044
:1042A0000E94240880913C048770EE24E3948111DD
:1042B000E12CE12FE295EF70103C08F09DC0F0E09A
:1042C000E85FFE4C0C94162FABE58A16ACE79A0615
:1042D00031F180918304002482FF0394802DBCE59A
:1042E0008B16BCE79B0609F09FCF0E94700F9CCFF6
:1042F0000E941F12EFEFF4E30CE0E150F0400040A9
:10430000E1F700C000000E94E50E6FEF7FEF80E054
:1043100090E00E944F300E944B1281E0E6CF80E097
:10432000E4CFC7010E94A204182F8DCFB12FBF7018
:10433000FB2E103118F0F29490EFF922D114B9F05D
:10434000F11469F080E2800F883010F0011109C08B
:10435000809137048F29809337040E94E40F802FC7
:1043600043C080913B048F2980933B04F6CF802F7C
:104370000E942711F11409F43FC080E2800F8830B9
:1043800010F0011104C08F2D0E94DF0406C0F094CC
:1043900080913B048F2180933B040E94E40F2CC04A
:1043A000E12FEF70FE2E107F103219F0F29480EFA3
:1043B000F822011549F0013009F47AC0D11409F44A
:1043C00086C0C114B9F1CBCF8091830482FD2EC089
:1043D000D11469F0F11439F0809137048F2980935A
:1043E00037040E94E40F80E00E945A1005C080E06C
:1043F0000E942711F110C7CFE11409F4CAC08091BF
:104400003C0480FDC6C0D30115961C928695869506
:1044100086950E94F607C3010E94A41880913C046F
:104420008695869586950E940008B3C0D114C9F080
:10443000C11004C08F2D0E943810DECFF1E0CF12E2
:10444000DBCF109138048F2D8123F816A9F20E943A
:104450008F0B9093400480933F041F2910933804DE
:10446000CBCFC110C9CF8F2D0E944A109091380434
:104470008F2D8923811569F08F2D80958923809355
:104480003804811591F00E948F0B80933F04909324
:104490004004809139049F2D9823911509F4ACCFE5
:1044A000F094F822F0923904A7CF80E090E0EDCFAD
:1044B000D11429F003E0C01608F09ECFBBCF22E054
:1044C000C21608F099CF8F2D0E944A1095CFC114C3
:1044D000D1F3093349F43FEF47EE53E03150404008
:1044E0005040E1F700C00000802F0E94271184CFC8
:1044F000812F869586958370811561F0813009F052
:104500007BCFC8019370D11002C080E090E00E9480
:10451000040B72CFC8019370D11002C080E090E00C
:104520000E94DC0A69CF6D2D802F0E94020C64CF9F
:10453000812F837081113BC0D11027C0402F42953D
:1045400046954770440F440F802F8F70042E01C092
:10455000880F0A94EAF7202F207104FF07C02FE08C
:1045600030E001C0220F4A95EAF72095169516957E
:1045700013701230B9F0133099F030913A041130C1
:1045800071F0822B83230E946C040E94CD0A0E944A
:104590005E0860E0C3010E941C160C94C219832BB4
:1045A000822BF1CF822B90913A048927ECCFD11442
:1045B00051F110FFEACF402F429546954770440FC6
:1045C000440F802F8F70042E01C0880F0A94EAF7E1
:1045D000202F207104FF07C02FE030E001C0220F20
:1045E0004A95EAF72095169516951370123091F0BA
:1045F000133071F030918404113049F0822B832301
:104600000E94F207C2CF823008F4BFCFD4CF832BF1
:10461000822BF6CF822B909184048927F1CF1F70D3
:10462000D11439F0812F0E94F607802F0E94381094
:10463000ACCF802F0E944A10812F0E940008A5CF86
:10464000023F69F170F4003FC9F0013F91F0D114CD
:1046500009F44CC0C11409F446C0802F0E945A10BE
:1046600094CF033F19F1043F91F78091830482FDB9
:1046700028C0812F8F71D11401F315C0D11461F0BE
:1046800082E0C81608F081CF1F7181E090E001C080
:10469000880F1A95EAF7BFCF93E0C916F3CF812FA1
:1046A0008F71D110CACF0E94F6076FCF80E0D1146E
:1046B00009F4A6CF1F7181E001C0880F1A95EAF7AF
:1046C0009FCFD11429F0812F8F710E94D20D5DCF21
:1046D00081E00E942408A2E0CA1608F456CF82E0C6
:1046E0000E94240852CF812F8F71DDCFC11479F041
:1046F000093349F4BFEFE7EEF3E0B150E040F0409A
:10470000E1F700C00000802F0E9427113ECF812FCB
:104710008F7193CFB7E78B16BCE79B0609F03ACDB4
:1047200081E00E9400085ACDE6E18E16ECE79E0675
:1047300009F4C0CC809137048272F401E052F8474A
:10474000EB30F10508F021CDEC5EFE4C0C94162FF9
:1047500080918104803178F480918004811559F032
:10476000E09142042091410430917C0440917B040B
:1047700057E02E1301C008956E2F70E05E9FF00188
:104780001124DF01AD5BBB4F14968C9114978115FA
:1047900059F111968C911197831326C08C91841333
:1047A00023C015968C91159781111EC012968D917C
:1047B0009C91A0917D04B0917E048A1B9B0B883C48
:1047C000910590F4809181048F70806180938104C1
:1047D000E75BFB4F80818F70806180838BE794E083
:1047E0000E94A4180C94D504FB013196E770C1CF48
:1047F000ADE0B0E0EEEFF3E20C94332F8C0186E0F5
:10480000F801DE01189601900D928A95E1F7F80102
:10481000F58084819BE7892E94E0992E60907F0437
:10482000611017C0811591F0F11409F414C1C80189
:104830000E944716811509F40EC187E0F801ABE725
:10484000B4E001900D928A95E1F782DFFF24F394A2
:1048500056C07080A280B380D090800420917D04E7
:1048600030917E04A501421B530BD11409F4C3C03F
:10487000483C510508F079C0811541F380917C04D2
:10488000C180E090810450E1E51608F059C0C812DB
:1048900015C080917B04871111C0F1104BC08E2D83
:1048A0008F708061809381048BE794E00E94A4184C
:1048B00080918104F8018683F12C21C0F1103AC067
:1048C00040E06C2D872D0E94A00E40E06C2D872DBE
:1048D0000E94A00EF82E8111EFCF888599850E9445
:1048E0003A16292F22952F70903470F49F70223041
:1048F000A0F09115B1F0F8019681903190F48F2DD0
:104900002D96EEE00C944F2F2A5F2F70223068F026
:10491000C8010E94A418FD2CF2CF911511F0811549
:1049200071F3805E883058F3F3CF803F40F3815FAE
:104930008330F9CF80918104816080938104BCCF62
:10494000C8123BC080917B04871137C0F11035C07D
:10495000E682C8010E94A41887E0F801ABE7B4E042
:1049600001900D928A95E1F771CFE0908104F0E11A
:10497000EF1650F48BE794E00E94A41887E0F4014E
:1049800011928A95E9F798CF811509F45FCF90913C
:104990007C04F8018181981310C080917B048711F9
:1049A0000CC0F1100AC0E682C8010E94A41887E07A
:1049B000F40111928A95E9F749CFC8010E94471680
:1049C000811509F448C0F11409F445C080918104AF
:1049D000803208F432CF80917B0490917C049A83DA
:1049E0008983BC82AB826D821E82EF82CE010196EA
:1049F0000E94A41822CF483C510508F0BFCF811572
:104A000009F424CFF11439F190917C048181981339
:104A100018C080917B04871114C08091810480FDAF
:104A20009BCF803108F498CF8683807F803F09F444
:104A300090CF8681982F907F905F8F70892B86838F
:104A400088CFC8010E9447168111F7CE809181045A
:104A5000816080938104C8010E94A418F7CEABE165
:104A6000B0E0E5E3F5E20C943D2F4E8B5F8B688F51
:104A7000798F8A8F192F9B8F911110923B041D8A79
:104A800086E0FE017696DE011F9601900D928A95D2
:104A9000E1F70A8D8091830482FF1FC00E948F0B73
:104AA00020913D0430913E04821B930B8C3D954038
:104AB00038F080913C0482FD03C082E00E9424080B
:104AC0000E948F0B20913F0430914004821B930B76
:104AD0008C3D954010F00E94E704011561F00B8BAE
:104AE0001C8B61E0CE010F960E941C1661E0CE0186
:104AF0000F960E941C160B8B1C8B87E0FE013F96C5
:104B0000DE01189601900D928A95E1F7CE01089684
:104B10006FDE811110C0209141043091420487E082
:104B2000FE013896DE01119601900D928A95E1F70B
:104B30008C8581110BC017E0809142049091410453
:104B400089132BC06B96E4E00C94592F822F90E0D0
:104B50000196877099273817190671F40E941F1261
:104B6000109241041092420487E0EBE7F4E0DF0189
:104B70001D928A95E9F7DFCF97E0929FD00111242B
:104B8000AD5BBB4FFE01319601900D929A95E1F716
:104B9000809341040E94D504CECF189FC0011124F8
:104BA0008D5B9B4F25DE811569F28091420490E078
:104BB00001968770992780934204BECFA6E0B0E0AB
:104BC000E4EEF5E20C943D2F0E948F0B8C01809156
:104BD000A6039091A7038017910771F019821A829A
:104BE0000E948F0BBC0149815A8180E090E037DF41
:104BF0001093A7030093A6032696E4E00C94592F84
:104C0000EFE2F4E080818160808360E086958695A4
:104C10000C945A18A0E1B0E0E0E1F6E20C94312FD8
:104C2000FE01319680E1DF011D928A95E9F706E1E8
:104C300010E099EAA92E92E0B92E27E5422E5524DC
:104C40005394612C712C4F0173016201B1E14B1639
:104C50005104610471041CF080E1C82ED12CA6011E
:104C6000B501C4010E942630AC0CBD1C0D2C000CFB
:104C7000EE08FF084C185D086E087F0801501040D0
:104C800019F76096E0E10C944D2F6FEF85E290E00C
:104C90000E9435306FEF86E290E00E9435306FEF72
:104CA00087E290E00E94353060E088E290E00E9468
:104CB00035300E94AC0FAEDF65E285E290E00E94E5
:104CC000353067E086E290E00E94353062E187E2AD
:104CD00090E00C9435308F929F92AF92BF92CF921A
:104CE000DF92EF92FF920F93CF93DF9388E090E0F3
:104CF0000E941C304B015C01CFE2D4E068839982B2
:104D0000AA82BB821C821D821E821F8283E290E0E7
:104D10000E941430282F30E040E050E060E070E066
:104D200080E090E000E20E94662F282939294A2974
:104D30005B29288339834A835B836C837D838E83DD
:104D40009F83DF91CF910F91FF90EF90DF90CF90F5
:104D5000BF90AF909F908F900895AAE0B0E0E3EBF2
:104D6000F6E20C94312FFE0131968AE0DF011D92AC
:104D70008A95E9F797EFC92E91E0D92E8F012F017F
:104D800066246394712C3CE0832E32E0932EF6016E
:104D900081916F018F3F09F445C0F894E82FE295A7
:104DA000EF70F0E021A18F70A30102C0440F551FE6
:104DB0008A95E2F7CA01922F982B91A392A1809530
:104DC000892382A3789400C0ECEFF1E021E030E089
:104DD000A12CB12C41914F3F81F0A42FA295AF702F
:104DE000A05EB0E08C9190E04F7002C095958795E1
:104DF0004A95E2F7790180FF02C0E12CF12CAE2840
:104E0000BF28220F331F8E169F0621F7F6018291CD
:104E10008F3F11F00E94E00650EA5A95F1F7D80151
:104E2000AD92BC920E5F1F4FBCEFCB16B1E0DB061C
:104E300009F0ADCF4AE050E0B2018EE693E00E9467
:104E40000730892BA9F08AE0F201AEE6B3E00190C9
:104E50000D928A95E1F781E08093AE020E948F0B5C
:104E60009093AD028093AC022A96E0E10C944D2F12
:104E70008091AE028115C1F30091AC021091AD0298
:104E80000E948F0B801B910B059770F34AE050E056
:104E90006EE673E08BE993E00E940730892B49F0BE
:104EA0008AE0EEE6F3E0ABE9B3E001900D928A957B
:104EB000E1F71092AE02D8CFCDB7DEB7A0970FB60C
:104EC000F894DEBF0FBECDBF85B7806885BF85B7BC
:104ED000806885BF84B7877F84BF0FB6F894A89594
:104EE00080916000886180936000109260000FBE26
:104EF00080E890E00FB6F894809361009093610091
:104F00000FBE81E0809329018EED96E0909383029D
:104F1000809382020E94B30D0E94460E8091E200AF
:104F200084608093E20078948091A503811599F0C4
:104F30008091E9001091EC008F701795112717955B
:104F4000182B1092E9008091E80083FD0E94601206
:104F50001F701093E90082E084BD93E095BD9AEF45
:104F600097BD80936E000E94A316811101C08DDE53
:104F700007EF11E0FCEFEF2EF1E0FF2ED8018D914D
:104F80008D018F3F11F00E94E006E016F106B1F7A7
:104F90000CEF11E0ECE0EE2EE2E0FE2EF801819144
:104FA0008F018F3F11F00E94E006E016F106B1F785
:104FB0008AE0EBE9F3E0DF01282F1D922A95E9F75B
:104FC000EEE6F3E0DF011D928A95E9F740E060E04C
:104FD00080E00E94B90780E090E00E942130833E8B
:104FE0009E4F21F40E94A31681112AC063EE7EEF2A
:104FF00080E090E00E944F3060E082E090E00E940C
:10500000353081E080933A0461E083E090E00E94D3
:10501000353060E074E184E090E00E944F300E94FF
:10502000721733DE40E050E0BA018FE090E00E945A
:10503000473040E050E0BA0183E190E00E94473001
:1050400082E090E0F1D780937D0384E090E0F9D78F
:10505000909383048093820480DEEFEFF6E721E0F3
:10506000E150F0402040E1F700C0000076DE809182
:105070009B0380FF08C06FEF7FEF80E090E00E940D
:105080004F300E94E50E83E090E0CED70E946C0482
:10509000809184040E94D607879A8F9A8091780322
:1050A00081111EC08FE294E016DE80912F048430BF
:1050B00028F40E9472178FE294E00DDE0E948F07A1
:1050C00010922E040E94470A80912F0480FF05C091
:1050D00060E0869586950E945A1881E08093780357
:1050E0008091820480688093820460918204709130
:1050F000830484E090E0D3D78AE191E09093C903E0
:105100008093C80375EA672E73E0772E8091A5031C
:1051100010E4853009F49EC020DE5EE7A52E53E042
:10512000B52E6BE9862E63E0962ED401F501219110
:1051300031918D919D9143E0E838F40709F49EC0C8
:1051400028173907A1F3512CD4010D911D914D0160
:10515000F501C190D1905F01C016D10651F1C02672
:10516000D126412CEE24E394F12CC6018E219F21FF
:10517000892BB1F049825A820E948F0B9C838B83CA
:10518000F1E0FD8391E098012E213F21232B09F4CA
:1051900090E09E8349815A816B817C818D815FDCA7
:1051A0004394EE0CFF1C20E14212DFCFF501129375
:1051B0000293539445E05412C7CF0E94BD0C63C0C4
:1051C0008091A503843009F43AC080E00E945E0813
:1051D00010922E0480917B0381110EC041E0409318
:1051E0007B0380912F04982F917090937A038E7F88
:1051F00080932F040E94A4071092790388E190E025
:105200000FB6F894A895809360000FBE10936000CD
:1052100083B7817F846083BF83B7816083BF7894C5
:10522000889583B78E7F83BF0FB6F894A895809139
:105230006000886180936000109260000FBE8DDD79
:10524000EBE9F3E081919191892B09F014C46E167A
:105250007F06C1F78091A503853009F4B1CF0E9484
:105260001F120E94CD0A0E945E0810927B0380915B
:105270007A038111C5DC0E9443184ECF28173907E5
:1052800009F061CF9BDC00911F04109120040115EF
:10529000110591F1C0908C03D0908D03E0908E03A6
:1052A000F0908F030E94BD0C6C197D098E099F0937
:1052B000C0908803D0908903E0908A03F0908B031C
:1052C0006C157D058E059F05B8F0C8010E94FE1083
:1052D0001092200410921F0410928C0310928D03E0
:1052E00010928E0310928F031092880310928903FC
:1052F00010928A0310928B030091270410912804C6
:1053000001151105E9F0E0902904F0902A040E94AB
:105310008F0B8E199F09893C910590F0C801992740
:10532000053008F05CC124E0880F991F2A95E1F749
:10533000855D9E4FDC0115962C9122FF0E9434154D
:1053400080912E04811509F444C080912D04E091D0
:105350002F04E695E695E81BE0939203853109F466
:10536000A3C108F04EC1893009F492C108F03AC1D6
:10537000823009F477C1863009F47FC100ED17E06F
:1053800089EFE82E86E0F82E80919303811561F075
:10539000109293030E948F0B90939103809390033C
:1053A00010929503109294030E948F0B209190030A
:1053B00030919103821B930B8F3F9F4750F4200F36
:1053C000311F309391032093900380E993E0F7011C
:1053D000099586E0E3EFF3E0DE01119601900D926E
:1053E0008A95E1F7B090F403D090F503F090F603BE
:1053F000C090F703E090F8031092F5031092F603C3
:105400001092F7031092F8038F2D8D29811509F45E
:1054100041C000919803109199030E948F0B9C0149
:10542000201B310B9091F103911509F41FC3253115
:10543000310580F19F3F19F09F5F9093F103D114E4
:1054400059F00E94830A91E01D140CF09FEF899F90
:10545000802D11248093F503F11459F00E94830AE2
:1054600091E01F140CF09FEF899F802D11248093F1
:10547000F6038091F503811569F01091F60311157B
:1054800049F00E94750A8093F503812F0E94750AE6
:105490008093F6038C2D8E29811509F441C000916B
:1054A0009603109197030E948F0B9C01201B310BD8
:1054B0009091F003911509F4D4C22135310580F1A2
:1054C0009F3F19F09F5F9093F003C11459F00E9421
:1054D000A30A91E01C140CF09FEF899F802D1124EA
:1054E0008093F703E11459F00E94A30A91E01E147F
:1054F0000CF09FEF899F802D11248093F8038091F9
:10550000F703811569F01091F803111549F00E9415
:10551000750A8093F703812F0E94750A8093F80320
:105520008091F4038B1119C08091F503811511F05E
:105530008D1113C02091F603211511F02F110DC00C
:105540009091F803911511F09E1107C03091F70367
:10555000311103C0822B892B81110E94D90B86E067
:10556000FE013196A3EFB3E001900D928A95E1F729
:105570000E94CD0A182F80919A03181739F01093C2
:105580009A030E94BD0C812F0E945E088091A503A2
:10559000843009F0BBCD83E08093E9008091E8007E
:1055A00082FFB4CD8091E80090E085FF06C00E94A4
:1055B000820D811509F483C091E08091E8008B771A
:1055C0008093E800911509F4A1CD8981EFEFE80FF0
:1055D000E33108F09CC0F0E0E15EFE4C27C480E0BF
:1055E00090E0A8CE8F3009F0C9CEE695F0E0E0500B
:1055F000F94FE4910E2F10E0E5EEEE2EE8E0FE2EDE
:10560000C3CE04EF11E041E1E42E4AE0F42E8432EF
:1056100009F4BACEA8F408E210E03DE8E32E39E040
:10562000F32E883109F4B0CE833209F0A7CEEBEF28
:10563000F6E0059114916CE6E62E68E0F62EA4CE15
:10564000853209F09BCE8E2F63E0B0D3E92FF0E0D6
:10565000E850F94FE4910E2F10E05CEBE52E56E197
:10566000F52E92CEF0E0E75FF84FE4910E2F10E0B8
:10567000B9EAEB2EB8E0FB2E87CEF0E0EA5FF84FF8
:10568000E4910E2F10E0AAE9EA2EA8E0FA2E7CCED3
:10569000E695F0E0ED5FF84FE4910E2F10E0FCEBA3
:1056A000EF2EF8E0FF2E70CEF0E0E350F94FE491DA
:1056B0000E2F10E072E4E72E79E0F72E65CE00E2BF
:1056C00010E0CE0101967C018091E80085FD0AC0C2
:1056D0008091E8008B778093E8000E94820D81150D
:1056E00099F36ACF8091F100D7018D937D0101502C
:1056F000104051F761CF1A828CE08B8319C08A81E8
:10570000833081F138F4813061F0823019F18FEF0C
:1057100089830EC08430D9F71B821C821D821E82B1
:1057200007C00E94BD0C88D36B837C838D839E83CE
:10573000E091C803F091C903309709F4E7CC0284E3
:10574000F385E02D309709F4E1CC60E2CE010196BB
:105750000995DCCC88E290E067D41B821C821D8214
:105760008E83E6CF8B8190E0FE01319632968530B4
:105770009105F4F6DC01AA0FBB1FA556BC4F2C9176
:1057800011963C91318322830196F0CF8A81823039
:1057900089F0853009F0BBCF80912F0480FF13C0C2
:1057A00080912F048E7F80932F0410922E040E94EC
:1057B000A407BECF6B817C818D819E813DD388E221
:1057C00090E053D4B5CF1CDAB3CF4C816B818A8182
:1057D0000E94B8159827892798279E838D83A8CF84
:1057E0002D813E813227232732274C816B818A818C
:1057F0000E94860F9DCF0E94AC0F9ACF9A81923063
:1058000009F085CF8830A1F1893009F45CC08B8123
:10581000833051F178F48130B1F0823009F088CFD3
:105820008C81811509F4BCCFEBD960E08C810E949A
:105830005A187ECF843009F07BCF20E040913204AB
:105840006D818C810EC08C81B8EC8B9FC0011124BE
:105850006FEF70E0C4D2462F20E060913104809158
:1058600030040E94901764CF8C818093330460CF02
:105870008B81833029F168F48130A9F0823009F0FE
:1058800057CF80912F0480FF19C0869586958C8311
:105890004FCF843009F04CCF809130048C838091BD
:1058A00031048D8345CF80913204EFEF8E9FC0018C
:1058B000112468EC70E093D26C833ACF80E0E7CF9C
:1058C00080913304E4CF0E948F078FE294E00E941E
:1058D00051172ECF80E18A832BCF81E08A8387E521
:1058E0000CCF8A809B80982489249824A12CB12CE9
:1058F0008E010F5F1F4F8C817801E80EF11C0E1591
:105900001F0509F415CF80E0F7E58F16F1E09F063B
:10591000A104B10420F4C40187559D4F85D3D8015B
:1059200014968C930F5F1F4FBFEF8B1A9B0AAB0A25
:10593000BB0AE5CF8C80912CA12CB12CCA80DB80D6
:10594000DC24CD24DC24E12CF12C8E010F5F1F4FD1
:10595000212C312C2101281439044A045B0408F05D
:10596000E7CEE7E5CE16E1E0DE06E104F10438F427
:10597000D80114966C91C60187559D4F76D3BFEF21
:105980002B1A3B0A4B0A5B0AEFEFCE1ADE0AEE0A2D
:10599000FE0A0F5F1F4FDFCF3DD9CACE84E09BCFF9
:1059A0008C80912CA12CB12CCA80DB80DC24CD24EE
:1059B000DC24E12CF12C212C312C21018E010B5FF8
:1059C0001F4F281439044A045B0408F0B1CE80E06C
:1059D000F0E8CF16F2E0DF06E104F10418F4C601A6
:1059E000899622D3D8018D938D01BFEF2B1A3B0AE4
:1059F0004B0A5B0AEFEFCE1ADE0AEE0AFE0AE1CF8F
:105A00008C80912CA12CB12CCA80DB80DC24CD248D
:105A1000DC24E12CF12C8E010F5F1F4F212C312C47
:105A20002101281439044A045B0408F081CEF0E80F
:105A3000CF16F2E0DF06E104F10430F4D801149649
:105A40006C91C601899611D3BFEF2B1A3B0A4B0A02
:105A50005B0AEFEFCE1ADE0AEE0AFE0A0F5F1F4F57
:105A6000E0CF2B30310508F02DCD5ACD2B3031054C
:105A700008F0E2CC0FCD80917C03811509F4EACBCC
:105A800090E199BDA2E1A9BD09B400FEFDCF8091CE
:105A9000D8008F7D8093D8008091E0008260809351
:105AA000E0008091E00081FDFCCF0E941F12D2CB6C
:105AB0001F921FB61F9211248F939F93AF93BF9392
:105AC00080917903811113C08091C4029091C50225
:105AD000A091C602B091C7024196A11DB11D80934D
