:100000000C9450030C9488030C9488030C9488037C
:100010000C9488030C9488030C9488030C94880334
:100020000C9488030C9488030C94B3230C946F23D2
:100030000C94B0240C9488030C9488030C948803CB
:100040000C9488030C9488030C9488030C94880304
:100050000C9488030C948C240C9488030C948803CF
:100060000C9488030C9488030C9488030C948803E4
:100070000C9488030C9488030C9488030C948803D4
:100080000C9488030C9488030C9488030C948803C4
:100090000C9488030C9488030C9488030C948803B4
:1000A0000C9488030C9488030C94880305010902BE
:1000B000A10185020901A1000509190129081500FE
:1000C0002501950875018102050109300931158165
:1000D000257F95027508810609381581257F9501D0
:1000E00075088106050C0A38021581257F95017572
:1000F000088106C0C005010980A101850319012AF4
:10010000B700150126B700950175108100C0050CD8
:100110000901A101850419012AA002150126A002E6
:10012000950175108100C005010906A1018506052C
:100130000719E029E71500250195087501810205D9
:1001400007190029EF1500250195F07501810205B9
:10015000081901290595057501910295017503910D
:1001600001C00660FF0961A1010962150026FF00B8
:100170009520750881020963150026FF00952075FA
:10018000089102C005010906A101050719E029E748
:1001900015002501950875018102950175088101F9
:1001A0000507190029FF150026FF0095067508812F
:1001B000000508190129059505750191029501753C
:1001C000039101C0000000000000000000000000DA
:1001D000000000000000000000000000000000001F
:1001E00000000000000000007E0F00D4FFFFFFC7EA
:1001F0000000007800000000000000002A2B28000A
:1002000000000000000000000000000000000029C5
:10021000000000002C1E3420212224342627252E05
:10022000362D3738271E1F2021222324252633333D
:10023000362E37381F0405060708090A0B0C0D0E69
:100240000F101112131415161718191A1B1C1D2F35
:100250003130232D350405060708090A0B0C0D0E55
:100260000F101112131415161718191A1B1C1D2F15
:100270003130354C0001010101010101010102028F
:100280000202020202020203030303030303030444
:10029000040404040404050505050506060606060F
:1002A000070707070708080808090909090A0A0AC9
:1002B0000B0B0B0C0C0C0D0D0D0E0E0E0F0F0F106B
:1002C00010111111121213131414151516161717F5
:1002D000181819191A1A1B1B1C1D1D1E1E1F202061
:1002E000212222232424252626272829292A2B2CAB
:1002F0002D2D2E2F30313232333435363738393ACE
:100300003B3C3D3E3F404142434445464748494AC5
:100310004C4D4E4F50515354555658595A5B5D5E93
:100320005F616264656668696B6C6D6F707273752E
:1003300077787A7B7D7E8082838587888A8C8E8F92
:1003400091939596989A9C9EA0A2A3A5A7A9ABADC0
:10035000AFB1B3B5B7BABCBEC0C2C4C6C9CBCDCFAE
:10036000D1D4D6D8DBDDDFE2E4E7E9EBEEF0F3F55C
:10037000F8FAFDFF167C1E001F002000210022005D
:10038000230024002500260027002D002E002A002F
:100390004A00A8002B0014001A00080015001700DE
:1003A0001C0018000C00120013002F003000310058
:1003B0004D004C00005704001600070009000A0019
:1003C0000B000D000E000F00330034002800000069
:1003D00000000000E10000001D001B0006001900E5
:1003E000050011001000360037003800E500015705
:1003F00052000000E000E300E20000000000000006
:100400002C00000000000000E6000257E40050004D
:1004100051004F0035003A003B003C003D003E00DB
:100420003F004000410042004300440045004C00B2
:100430000100490001004A0052004D004B0001003C
:1004400001000100010001000100010001000100A4
:10045000010046000100500051004F004E00010015
:10046000010001000100010001000100280100005D
:10047000000000000100000001000100B2000100C6
:100480000100110A2903010001000100010001001F
:100490000100000001000100010000000000000058
:1004A0004C00000000000000010001006521010077
:1004B0000100010035000100010001000100010000
:1004C00001005F00600061000100560057004C020F
:1004D0000100A60001004A0052004D004B0001003F
:1004E00001005C005D005E00010055005400010049
:1004F000010001000100500051004F004E000100BA
:10050000010059005A005B000100010028010000B1
:10051000000000000100000001000100B200010025
:10052000010001006200620063005300010001004D
:100530000100000001000B7001000000000000003D
:1005400001000000000000000100010001000100A6
:100550000100010020782B78010001001370AA002F
:10056000A900AE00A8000100010001000100010087
:100570000100007C010001000100010001000100F8
:100580000100010001000100010001000100010063
:100590000100010001000100010001000100010053
:1005A0000100010001000100010001000100000044
:1005B0000000000001000000010001000100010036
:1005C0000100010010030100010001000100010011
:1005D0000100000001000100010000000000000017
:1005E00001000000000000000100005201000100B5
:1005F0000100010009025B00030100A0FA090400E8
:10060000000103010100092111010001224000073E
:10061000058103080001090401000203000000092C
:100620002111010001222200070582032000010799
:100630000503032000010904020001030000000972
:10064000211101000122B6000705840320000112D8
:10065000010002000000086B70110001000102009F
:10066000011C0369006B006B006900360038002034
:10067000004100750072006F007200610000001AF6
:100680000377007500710075006500200073007429
:10069000007500640069006F000000040309040095
:1006A00011241FBECFEFDAE0DEBFCDBF04B603FEDC
:1006B00018C080915A0390915B03A0915C03B091A4
:1006C0005D038730904BA740B04B59F410925A030A
:1006D00010925B0310925C0310925D03E0E0F8E37C
:1006E000099511E0A0E0B1E0EEE1F7E502C0059068
:1006F0000D92A83CB107D9F723E0A8ECB1E001C006
:100700001D92AA35B207E1F70E94D7240C94262B3C
:100710000C940000E8EDF0E080818E7F80831092E1
:10072000E2001092DA001092E100A0EEB0E08C91AD
:1007300081608C9380818F77808319BCA7EDB0E0B6
:100740008C918E7F8C9380818F7E80831092220388
:1007500008952091E4003091E50095E6A9012091EB
:10076000EC00822F817020FF06C08091E80080FF9E
:1007700006C080E008952091E80022FD1AC0809113
:100780004703882389F0853089F08091EB0085FD4F
:100790000FC02091E4003091E50042175307F9F2B1
:1007A0009150E1F684E0089582E0089583E0089591
:1007B00081E008958091490387FF13C08091E8008C
:1007C00082FF06C08091E8008B778093E80004C028
:1007D000809147038111F2CF0895809147038823C8
:1007E000D9F38091E80080FFF8CF8091E8008E7700
:1007F000ECCF982F9093E900242F762F50E08917A3
:1008000031F07091EC002091ED005091F00021FD4D
:1008100007C09F5F973071F78093E90081E00895EA
:100820003091EB003E7F3093EB003091ED003D7F47
:100830003093ED003091EB0031603093EB0070931A
:10084000EC002093ED005093F0002091EE0027FD86
:10085000E0CF80E00895B0E0A0E0E1E3F4E00C94A4
:10086000822AC8EDD0E088818F7E8883E7EDF0E0B2
:1008700080818160808384E082BF81E08093220355
:1008800088818E7F888302EE10E0F801108210923A
:10089000DA0081EEC82ED12CF601108288818F7784
:1008A000888388818068888388818F7D888319BC4C
:1008B000109247031092480310924603109245038A
:1008C00090EEE92EF12CF70180818B7F8083888167
:1008D0008160888342E060E080E00E94F903F601D5
:1008E00080818E7F8083F801808181608083808118
:1008F00088608083F70180818E7F8083888180611A
:100900008883CDB7DEB7E8E00C949E2AFC01809185
:100910004F039091500386179707A0F0611571055A
:1009200029F49091E8009E779093E80090E061159B
:10093000710551F4911108C08091E80082FF34C024
:1009400080E00895BC01F2CF809147038823C1F174
:100950008530C1F18091E80083FD30C08091E800CE
:1009600082FDEACF8091E80080FFE1CF8091F30023
:100970002091F200382F6115710519F028303105EA
:1009800058F091E02830310509F090E02091E8001E
:100990002E772093E800CBCF81918093F1006150B6
:1009A00071092F5F3F4FE7CF80914703882341F0C4
:1009B000853041F08091E80083FFBECF81E008954B
:1009C00082E0089583E008958091240308959C01B6
:1009D0004FB7F89480911E0390911F03A0912003BC
:1009E000B09121034FBF821B930B08952FB7F8944A
:1009F00060911E0370911F03809120039091210349
:100A00002FBF08952FB7F89480911E0390911F0374
:100A1000A0912003B09121032FBF0895A3E0B0E07F
:100A2000E4E1F5E00C94882A20911B0330911C032B
:100A300028173907A1F090931C0380931B03E091C2
:100A40001903F0911A03309751F024E029839B8316
:100A50008A830680F781E02DCE01019609952396C1
:100A6000E2E00C94A42AA3E0B0E0E9E3F5E00C9402
:100A7000882A209117033091180328173907A1F00D
:100A80009093180380931703E0911903F0911A03D0
:100A9000309751F023E029839B838A830680F78176
:100AA000E02DCE01019609952396E2E00C94A42A4C
:100AB000E0911903F0911A03309729F00190F08129
:100AC000E02D0995089580E00895CF93DF93EC0120
:100AD000409108035091090360910A0370910B0340
:100AE0002FB7F89480911E0390911F03A0912003CB
:100AF000B09121032FBF841B950BA60BB70B843F2E
:100B00009140A105B10518F5809108039091090362
:100B1000A0910A03B0910B03809304039093050303
:100B2000A0930603B093070384EF91E0A0E0B0E048
:100B30008093000390930103A0930203B0930303F7
:100B4000D0931003C0930F03DF91CF9108950E94BB
:100B5000F604609304037093050380930603909357
:100B6000070382E390E0A0E0B0E0E2CFFC018481E3
:100B7000862351F492819923B9F06923808583FFFC
:100B800005C081E061110FC080E00895892F8F704A
:100B900092959F70982B862F8F7062956F70682B3F
:100BA00081E09613F1CF089581E0FDCFFA01811124
:100BB00001C0FB01099508958091FB02982F9E7F4B
:100BC00071F48091FB02817082608093FB028091BE
:100BD000FE02893C18F088EC8093FE020895843070
:100BE00080F7F5CF0E9402059C019091BB02809195
:100BF000BC02982B21F03093B8022093B702909159
:100C0000BD028091BE02982B21F03093B602209352
:100C1000B502E0911903F0911A03309749F082E090
:100C20008093B9020480F581E02D89EB92E009956B
:100C300008958091B40280FD16C081FD16C082FD2A
:100C400016C08091B3028823A1F0883280F428E096
:100C5000829FC001112468E270E00E94572A862F0B
:100C6000672B39F0089582E0089584E0089588E0C4
:100C7000089581E008958091B40280FD14C081FD43
:100C800014C082FD16C08091B202882381F08E319B
:100C900080F420E5829FC00111246EE170E00E9483
:100CA000572A862F089584E1089588E2089588E000
:100CB000089580E5089580E00895F894E82FE2957E
:100CC000EF70F0E031A1282F2F7081E090E001C09B
:100CD000880F2A95EAF7982F9095932391A392A1D4
:100CE000892B82A3789408959091580392FF06C0AF
:100CF000282F28712830F9F4877F846093FF06C07D
:100D0000282F28712831F1F4877E846120915903BE
:100D100020FF06C0382F38713830D9F4877F8160C2
:100D200021FF06C0282F28712831D1F4877E8161E8
:100D300094FD877E0895282F24712430F9F68B7F47
:100D40008860DCCF282F2471243101F78B7E8861E5
:100D5000DDCF382F3171313019F78E7F8860E0CFC9
:100D6000282F2171213121F78E7E8861E1CFCF9329
:100D7000DF93EC0182389105B9F108F041C081336D
:100D8000910509F49FC050F58932910509F48FC08F
:100D90008A9709F49EC0C11520E5D20708F0BDC0AE
:100DA000C11530E4D30708F00AC1C03ED10508F0F0
:100DB000A5C0CD3CD10508F000C1C83AD10508F066
:100DC0008FC0C53AD10508F0F0C0C130D10539F166
:100DD000209729F1C430D10510F546C0853391051F
:100DE00009F460C0C997B9F680915803837009F07F
:100DF00044C18091590383FF12C0C9E2D0E00FC003
:100E0000833E9105A1F178F4803E910509F1823E7F
:100E1000910509F0C0CF8091580382FD21C0CE0119
:100E2000DF91CF910895863E910561F1873E91054E
:100E300071F1843E910509F0AECF8091590381FF95
:100E4000EECF80915803C7EED0E084FD0DC0E7CF10
:100E50008091580380FD33C09091590390FFDFCFFC
:100E6000C3EED0E084FFDBCFD0E0C0E0D8CF8091EC
:100E7000580382FDFFC09091590390FDFEC084FF8E
:100E8000CECFF2CF8091580383FDDDCFC8CF8091C4
:100E9000580383FDF5C09091590391FFF0CFC4EE44
:100EA000D0E0BDCF8091580385FFB9CFA6CF809108
:100EB000580385FDE8C08091590383FFB0CFC9E393
:100EC000D0E0ADCF8091580386FFA9CFCAE2D0E031
:100ED000A6CF8091580386FFA2CFC1E3D0E09FCF79
:100EE000C13CD10508F6C85AD0E0CC0FDD1FCE5862
:100EF000DE4F0990D881C02DD46491CFC11540E256
:100F0000D40708F0AAC0C11581E0D80708F087CF40
:100F1000C83ED10508F483CFA7CFC03622E5D2075B
:100F200018F5C03432E5D30708F053C0C03242E5AB
:100F3000D40708F047C0C11582E5D80708F47FC080
:100F40002C2F2695269540E2249F900111248C2F6A
:100F50008370C1E0D0E002C0CC0FDD1F8A95E2F7BC
:100F6000C22BD32BDD685BCFC03A22E5D20760F4F9
:100F7000C03832E5D30708F441C0CF71D0E0DC2F90
:100F8000CC27C46FD06A4BCFC03C42E5D40708F4ED
:100F90004AC0C03E82E5D80708F066CFDC2FCC27D8
:100FA000CC27DF71C06FD06A3ACFC55AD0E0C159A3
:100FB000DE4FC881D0E0D06432CFD06530CFDF7053
:100FC000D06A2DCFCF71D0E0DC2FCC27C16FD06A93
:100FD00026CF2C2F26952695277080E2289F9001FA
:100FE00011248C2F8370C1E0D0E002C0CC0FDD1F34
:100FF0008A95E2F7C22BD32BDC6811CF2C2F2695D4
:101000002695277040E2249F900111248C2F837035
:10101000C1E0D0E002C0CC0FDD1F8A95E2F7C22B01
:10102000D32BDA68FCCE8C2F8F710E947406C82FE8
:10103000D0E0DC2FCC27CC27DF71D062F0CE8C2F14
:101040008F710E94740635E0D695C7953A95E1F701
:10105000CF709C2FEC01D069E2CE8D2F8F710E9452
:10106000740690E0982F882788279F719C012C2B6D
:10107000E901E3CFC2EED0E0D2CEC0EED0E0CFCED9
:10108000C6EED0E0CCCEC5E3D0E0C9CE80918602DA
:10109000882331F010928602109285021092840209
:1010A00008958095909114039823909314030895C4
:1010B000909141019923D1F09091580397FF16C068
:1010C000E82FE695E695E695EE31E0F4F0E0E6539C
:1010D000FE4F282F277081E090E001C0880F2A95ED
:1010E000EAF780959281892382830895ECECF1E000
:1010F0009191891303C0DF0111971C9291E0E23DA9
:10110000F907B1F70895909141019923C1F09091A9
:10111000580397FF14C0E82FE695E695E695EE3163
:10112000F8F4F0E0E653FE4F877021E030E001C0B4
:10113000220F8A95EAF78281822B82830895ACEC94
:10114000B1E0EFEF90E02D91821751F0EF3F19F4ED
:10115000211101C0E92F9F5F9630A9F7EF3F09F4F5
:1011600008950E2E000CFF0BE653FE4FE6CF2091A4
:1011700063029091320256E0291302C080E0089584
:1011800030E0529FF001539FF00D1124ED5CFD4FB4
:101190007181761306C07081781303C07281741355
:1011A00004C02F5F3F4F2770E7CF81E00895809103
:1011B000630290913202981301C008958F5F877087
:1011C000FACF953080F5803170F540E1949F900121
:1011D0001124820F932F911D682F677023E096953D
:1011E00087952A95E1F7FC01EE0FFF1FE80FF91F25
:1011F000E25FFD4F50E040E080E0219130E0062EBC
:1012000002C0369527950A94E2F721703327042E01
:1012100001C0220F0A94EAF7822B4F5F5F4F4330E1
:10122000510559F7089580E00895953098F580317B
:1012300088F540E1949F90011124820F932F911D16
:10124000282F277041E001C0440F2A95EAF723E0D8
:10125000969587952A95E1F7FC01EE0FFF1FE80FA1
:10126000F91FE25FFD4F90E080E070E05191DF01F7
:1012700011979B01082E02C0369527950A94E2F734
:10128000217021952527242325272C93019683302F
:10129000910561F70895809387020895662309F404
:1012A0005DC08D3C41F40E943B0681958093BC0259
:1012B0000E94F20508958E3C19F40E943B06F6CF79
:1012C0008F3C31F40E943B0681958093BB02F0CFA6
:1012D000803D19F40E943B06F8CF893D29F40E9415
:1012E00019068093BD02E4CF8A3D21F40E941906BD
:1012F0008195F7CF8B3D31F40E941906819580933B
:10130000BE02D6CF8C3D19F40E941906F8CF9FE299
:10131000980F983070F4815D990B21E030E001C0A6
:10132000220F8A95EAF78091BA02822B8093BA0243
:10133000BFCF8D3D31F48091B40281608093B402BF
:10134000B7CF8E3D21F48091B4028260F7CF8F3DFC
:1013500009F0AECF8091B4028460F0CF4091BB021F
:101360008D3C59F48091BC0287FF0DC01092BC02E5
:1013700041110BC01092B20208C08E3C81F48091E2
:10138000BC0218169CF3442381F08091BD02909119
:10139000BE02892B09F08CCF1092B30289CF8F3C0B
:1013A00049F447FFF0CF1092BB028091BC0281113B
:1013B000ECCFE0CF803D19F41416ACF3E4CF90915C
:1013C000BD02893D29F41916F4F61092BD02DBCF57
:1013D0008A3D19F497FFD7CFF8CF9091BE028B3D8D
:1013E00029F497FFD0CF1092BE02CDCF8C3D19F4D7
:1013F0001916CCF3C8CF9FE2980F983090F4815D16
:10140000990B21E030E0B90102C0660F771F8A9581
:10141000E2F7CB0180959091BA0289238093BA02BA
:10142000B2CF8D3D31F48091B4028E7F8093B402AF
:10143000AACF8E3D21F48091B4028D7FF7CF8F3DEE
:1014400009F0A1CF8091B4028B7FF0CF982F9295B5
:101450009F7011F0892F94E0282F2695269511F082
:101460009E5F822F869509F09F5F892F08959C01CA
:101470003A9521153F4150F5FC01EE27F170BC0172
:1014800066277270AC01442754709C012227387083
:1014900094FF0EC080E1EF2B09F480E0672B09F088
:1014A0008062452B09F08064232B89F080680895C1
:1014B00081E0EF2B09F480E0672B09F08260452B77
:1014C00009F08460232B19F08860089580E0089566
:1014D000FC019281913029F4858180FF06C083E070
:1014E0000895923021F081E0089582E0089584E02B
:1014F00008950F931F93CF93DF938B01EA0190918F
:101500004703943061F58093E9008FEF9091E800F4
:10151000815095FD06C095ED9A95F1F70000811177
:10152000F5CF8091E80085FF1AC00E94A9038111C0
:1015300011C08091E80085FD06C08091E8008E779B
:101540008093E800F2CFF80181918F018093F10040
:10155000219779F78091E8008E778093E800DF91FA
:10156000CF911F910F91089543E050E0BC0184E0BA
:101570000E94790A089546E050E0BC0184E00E9490
:10158000790A0895CF93DF93EC0180914101811195
:1015900011C048E050E0BE0181E00E94790A80E27B
:1015A000FE01A5E2B3E001900D928A95E1F7DF918B
:1015B000CF9108958091580387FF05C040E284E0F1
:1015C00050E0BE01EACF48E081E0FACF81E08093AD
:1015D000E00080E28093D8001092C9008FE19EE481
:1015E0000197F1F700C0000087E090EBDC018093E9
:1015F0005A0390935B03A0935C03B0935D0388E16F
:101600009CE00FB6F894A895809360000FBE90936D
:101610006000FFCF8091FB0280FD0AC0EFEBF2E09B
:10162000118210821282339652E0EB3FF507C1F728
:101630006A9A3EB13B7F2EB124604FB7F8948FEB8E
:1016400092E0FC015191CF0168E02EB9000000C08A
:1016500057FF3EB9550F000000C000C000C03EB9A2
:1016600000C06A9591F7F2E08B3F9F0751F74FBF9B
:101670008FE594E00197F1F700C000000895909184
:10168000FB0290FF0CC0EFEBF2E0818360834283AA
:10169000339692E0EB3FF907C1F70E940A0B0895D9
:1016A000CF93C82F4AE468E281FD02C040E060E0C9
:1016B00080E00E943F0BC1FD04C08F9A81E0CF9172
:1016C00008958F98FBCFCF93C82F0E94260A8230AF
:1016D00061F0833071F0813081F441E16CEC8AEA91
:1016E0000E943F0B8C2FCF91089540E069E98FEF66
:1016F000F7CF47E760E08EEEF3CF40E060E080E0B8
:10170000EFCF0E94630B809354030895809154039C
:10171000982F9670963021F488600E94810B08956E
:10172000877FFBCF21E030E001C0220F8A95EAF7E6
:1017300020958091540382230E94810B08959091FB
:1017400057038095892380935703282F2770B1F47E
:10175000282F082E000C330B9217130679F0909166
:10176000590392FF0BC08595859585950E94920B34
:1017700010925703109256031092550308958091CA
:101780000D01833011F40E94920B089580910B019A
:10179000833019F482E00E94920B08958091090130
:1017A000833019F481E00E94920B10920901089590
:1017B00021E030E001C0220F8A95EAF780915403BE
:1017C000822B0E94810B08959091590392FF10C0C3
:1017D00098E0899F900111242360209357030E9471
:1017E000D80B0E94020590935603809355030895E9
:1017F0000E94D80B08950E94680A80930D018330DF
:10180000A9F0843049F08230A1F483E00E94E40B17
:1018100081E00E949F0B089580915403882331F04A
:1018200083FF04C083E00E94920B089583E00E942E
:10183000D80B08950E94680A80930B018330A1F0B1
:10184000843041F0823099F40E94E40B81E00E94E0
:101850009F0B089580915403882331F082FF04C0C8
:1018600082E00E94920B089582E00E94D80B0895B6
:10187000CF93DF93C6EAD2E060E0CE010E94E52A72
:101880002196C11584E0D807B9F7DF91CF9108956B
:101890001F93CF93DF93122F8430E0F46530D0F4A0
:1018A0004031C0F490E2699FE001112450E0440F00
:1018B000551FC40FD51F90EA899FC00DD11D11245B
:1018C000632FCE0186960E94E52A612FCE0187966E
:1018D0000E94E52ADF91CF911F910895AF92BF92A8
:1018E000CF92DF92EF92FF921F93CF93DF9384E723
:1018F000C82E83E0D82ED0E07601C0E014C0F501F8
:1019000025913491412F6C2F8D2F0E94480C82E03D
:10191000A80EB11C1F5F103191F780E2E80EF11C98
:10192000CF5FC53019F0570110E0E9CFDF5F80EAE3
:10193000C80ED11CD43001F7DF91CF911F91FF90D9
:10194000EF90DF90CF90BF90AF900895CF93C82FC6
:101950006FEF811163E282E290E00E94E52A6FEF6F
:10196000C11161E083E290E00E94E52A6FEFC111AE
:1019700064E184E290E00E94E52ACF91089580E03E
:101980000E94A60C60E085E290E00E94E52A0E9499
:101990006E0C0E94380C81E00E94A60C08950F93F3
:1019A0001F93CF93DF93843030F5653020F54031BD
:1019B00010F520E2629F8001112450E0440F551F72
:1019C000040F151F30EA839F000D111D1124C8015B
:1019D00086960E94D12AC82FD0E0DC2FCC27C801E0
:1019E00087960E94D12A9E01282BC901DF91CF91B1
:1019F0001F910F91089590E080E0F8CF462F753049
:101A000040F4603130F4843020F4672F0E94CF0C12
:101A1000089590E080E00895CF92DF92FF920F93B7
:101A20001F93CF93DF936C01009154038091870241
:101A3000082BC3E0D0E010E0FC2EC8010C2E02C041
:101A4000959587950A94E2F780FD0CC02197A0F741
:101A5000F12C8F2DDF91CF911F910F91FF90DF908F
:101A6000CF900895B6018C2F0E94FE0C0E94B706FD
:101A7000019761F3EECFCF93DF93EC010E940C0D41
:101A8000BE010E94FE0C0E94B706DF91CF9108951F
:101A9000FC0183819481892B29F0808191818923A4
:101AA0008F3F51F480E00895843FE1F717C0883EEE
:101AB000A8F0813FB9F712C0808191810E943B0D4F
:101AC00092959F70963099F358F4925F9F70923080
:101AD00048F7803F19F040F7883E20F781E00895ED
:101AE0009A5FF4CFA5E0B0E0E8E7FDE00C94872A28
:101AF00049835A8389819A81662399F0222389F048
:101B00000E940C0D182F682F89819A810E94150957
:101B100069817A81812F0E94FE0C2596E3E00C9466
:101B2000A32A0E94E108182FF3CF82E290E00E94DE
:101B3000D12A833289F483E290E00E94D12A813055
:101B400059F484E290E00E94D12A91E0843109F0B6
:101B500090E0892F8170089580E0FCCFCF92DF92D2
:101B6000EF92FF926B017C010E94DC05B701A60198
:101B700088E090E00E94F72AFF90EF90DF90CF90EE
:101B80000895B0E0A0E0E7ECFDE00C947E2AF82E8A
:101B9000C62FD42FE22E8091FB0280FF24C08E7FBF
:101BA000823079F4E42F493C08F0E8ECF0E0EC589E
:101BB000FD4FC1111DC06491462FE62F8E2F0E944C
:101BC0003F0BF092FC02C093FD02D093FE02EE2088
:101BD00051F06091FB027091FC028091FD029091A6
:101BE000FE020E94AE0DCDB7DEB7ECE00C949A2A4F
:101BF000CC2ED12CE491FE2FAE2EB12C06E0F09E1F
:101C0000C00111242FEF30E0B9010E94432ACB011B
:101C10004F2D50E0440F551FA5E5A89FB001A99F87
:101C2000700D1124461B570B942E990C940EA9018C
:101C30004C195D094A9DD0014B9DB00D5A9DB00DC8
:101C400011244B2FC99DB0011124672F77278901DB
:101C5000061B170BB8016A9D80016B9D100D7A9DC4
:101C6000100D1124B901691971094B018C9CB00147
:101C70008D9C700D9C9C700D1124672F7727261B5F
:101C8000370B2A9D60012B9DD00C3A9DD00C11245E
:101C90006D2D8230910589F040F4009709F48ECFC4
:101CA000019779F06B2F412F89CF8430910561F036
:101CB00078F0069709F482CFF5CF6E2FEB2F4D2DDC
:101CC0007DCF6E2FE12F7ACF6B2F4E2FED2D76CF5C
:101CD000EB2F4F2F612F72CFEBEFF2E0438128E023
:101CE000421B08F440E021E0628181810E94C10D25
:101CF0000895EBEFF2E0438128E0420F08F44FEF44
:101D000021E0628181810E94C10D0895EBEFF2E034
:101D1000628128E0621B08F460E021E04381818158
:101D20000E94C10D0895EBEFF2E0628128E0620F9E
:101D300008F46FEF21E0438181810E94C10D089575
:101D4000EBEFF2E0818121E04381628188500E94C3
:101D5000C10D0895EBEFF2E0818121E043816281C2
:101D6000885F0E94C10D08958091FF02882319F0B9
:101D700081508093FF026091FB027091FC02809180
:101D8000FD029091FE020E94AE0D08958091FF0227
:101D9000833018F48F5F8093FF026091FB02709193
:101DA000FC028091FD029091FE020E94AE0D08950A
:101DB0008091FB0280FF19C0817082608093FB02DA
:101DC000662351F06091FB027091FC028091FD024C
:101DD0009091FE020E94AE0D20E04091FE026091C3
:101DE000FD028091FC020E94C10D0895EBEFF2E02C
:101DF00080818160808360E086950E94D80E08957E
:101E00008091FB028695815009F481E061E00E9497
:101E1000D80E089561E081E00E94D80E0895EBEF9E
:101E2000F2E083E080831182128213821482608147
:101E30007181828193810E94AE0D0895CF9380912C
:101E4000140390911303892B8093CA018091860219
:101E5000882339F10E940205209184023091850285
:101E6000821B930B8C3D954010F00E944608809198
:101E7000CA0190918602892B8093CA018091410109
:101E8000882309F447C08091580387FF43C08EE13F
:101E9000ECECF1E090E0815008F03EC091110E941E
:101EA0004608C0910C03C0958091CA01C823809157
:101EB0000D03C82BC093CA0140E250E064E672E013
:101EC0008AEC91E00E94192B892B11F180E2EAEC57
:101ED000F1E0A4E6B2E001900D928A95E1F7E0917D
:101EE0001903F0911A03309799F0809141018823EA
:101EF00049F08091580387FF05C0C093CB0186E06D
:101F00008093CA010280F381E02D8AEC91E009956B
:101F1000CF91089586E0BCCF2191222309F4BBCF55
:101F20009F5FB9CFCF93DF93EC01EA85FB853097B4
:101F300019F06C857D8509958B81982F90958091FE
:101F400013038923809313038C810E9451080E94FC
:101F50001E0F86E0FE0111928A95E9F7DF91CF917D
:101F60000895CF93DF93EC018D8181FD18C08260CD
:101F70008D83809113039B81892B80931303809120
:101F800014039C81892B809314030E941E0FE88503
:101F9000F985309721F06C857D85CE0109951092E9
:101FA0001603109215038D8180FD03C0CE010E949F
:101FB000920FDF91CF910895882339F09091130308
:101FC000982B909313030E941E0F0895882321F0ED
:101FD0000E9451080E941E0F0895882339F09091A5
:101FE0001403982B909314030E941E0F08958823C6
:101FF00009F456C0823879F40E94580581FF50C018
:1020000089E30E9483080E941E0F89E30E945808FA
:102010000E941E0F0895833859F40E94580580FFCE
:102020003FC083E50E9483080E941E0F83E5EECF28
:10203000843859F40E94580582FF32C087E40E9418
:1020400083080E941E0F87E4E1CF9CEF980F913A1E
:10205000E8F290E2980F983050F4877091E001C058
:10206000990F8A95EAF7892F0E945108D1CF9BE5F5
:10207000980F933028F490E080E00E943305089593
:1020800098E5980F993128F490E080E00E940E05C1
:10209000089593E3980F933118F460E00E944E097D
:1020A0000895FF920F931F93CF93DF93F82E009123
:1020B0001103109112030115110509F449C0109282
:1020C000100310920F0310920C0310920D03D8010D
:1020D0001696CD91DC919E013A9521153F4108F469
:1020E000D07ED1E0C11101C0D0E0D8011996ED91A8
:1020F000FC911A97309731F01B966D917C9180E09E
:102100000995D823DD2339F08CEF8C0F813A30F517
:102110008C2F0E945808FF2099F0E0911103F09154
:102120001203808584FD0CC080910E03882341F04A
:10213000808191819C01215031092F3F3D47A0F0C2
:102140000E941E0F109212031092110310920E03A0
:10215000C801CDB7DEB7E5E00C94A12A0E941E0F9E
:102160008C2F0E94F70FD7CF0E946505E9CFCF9340
:10217000C82F8823C9F08238C9F40E94580581FD10
:1021800013C089E30E9483080E941E0F2FEF87EE81
:1021900093E0215080409040E1F700C0000089E3C7
:1021A0000E9458080E941E0FCF9108958338A1F411
:1021B0000E94580580FDF8CF83E50E9483080E94A5
:1021C0001E0F2FEF81EE94E0215080409040E1F708
:1021D00000C0000083E5E4CF8438A1F40E945805D4
:1021E00082FDE2CF87E40E9483080E941E0F2FEF3A
:1021F00081EE94E0215080409040E1F700C0000063
:1022000087E4CECF8CEF8C0F813A88F58091410125
:10221000882301F18091580387FF1CC0EC2FE695BD
:10222000E695E695F0E0E653FE4F828190E04C2F74
:10223000477021E030E002C0220F331F4A95E2F7D9
:1022400082239323892B79F08C2F0E9458080E94B7
:102250001E0F09C0ECECF1E08191C817A9F321E051
:10226000E23DF207C9F78C2F0E9483089BCF80E2E2
:102270008C0F883068F4C77021E030E001C0220F75
:10228000CA95EAF780911403822B809314038ACFB6
:10229000EBE5EC0FE33040F4F0E0E159FE4F8081D4
:1022A00090E00E94330580CFE8E5EC0FE93150F46F
:1022B000F0E0EE0FFF1FEE58FE4F808191810E94EB
:1022C0000E0572CF83E38C0F833108F06DCF61E090
:1022D0008C2F0E944E0968CF1F93CF93DF93182F46
:1022E000D0E0C0E0893311F4C0E5D0E0812F0E9436
:1022F000B710209739F4812F0E94F70FDF91CF910B
:102300001F9108958FE99FE00197F1F700C0000049
:102310002197EFCF0F931F93CF93DF93C62FD42F27
:10232000022FFC0182818823A9F0609353030E944D
:1023300002059093520380935103C77081E001C05E
:10234000880FCA95EAF70E94ED0FDF91CF911F9198
:102350000F91089580915303681332C08091510307
:10236000909152030E94E704883C910548F510E2E1
:102370001D0FCD17B9F080E28C0F883040F4C77084
:1023800081E001C0880FCA95EAF70E94E60F183075
:1023900048F481E09D2F977001C0880F9A95EAF765
:1023A0000E94ED0F802F0E946C11183070F6D770CC
:1023B00081E001C0880FDA95EAF70E94E60FC5CFE9
:1023C000C77081E001C0880FCA95EAF7F6CF0E9476
:1023D000680A80930901833091F0843031F08230B3
:1023E00089F489E30E946C11089580915403882335
:1023F00031F081FF04C081E00E94920B089581E0DA
:102400000E94D80B08959091590392FB222720F93E
:10241000281779F080FB92F9909359036091580343
:102420007091590384E090E00E94032B82E00E94A7
:102430009F0B089567EE7EEF90E080E00E94032BF3
:1024400060E082E090E00E94E52A60E083E090E0B6
:102450000E94E52A1092870260E074E184E090E037
:102460000E94032B60E086E090E00E94E52A6FEF77
:1024700087E090E00E94E52A40E050E0BA0188E061
:1024800090E00E94F72A60E08DE090E00E94E52A4B
:1024900040E050E0BA0188E190E00E94F72A60E055
:1024A00087E190E00E94E52A40E050E0BA018CE12B
:1024B00090E00E94F72A70E060E080E290E00E94E5
:1024C000032B40E050E0BA0188E190E00E94F72A37
:1024D00080E00E94A60C0E94BF0C40E050E0BA01D0
:1024E0008FE090E00E94F72A40E050E0BA0183E1DB
:1024F00090E00E94F72A089590E080E00E94DF2A91
:10250000873E9E4F19F40E94950D089580E008952E
:102510001092140380914101ECECF1E0882329F141
:102520008091580387FF21C08EE1DF011D928A95BB
:10253000E9F790E080E00E94330590E080E00E949F
:102540000E05109213030E941E0F86E0E9EBF2E0E5
:10255000DF011D928A95E9F71092B2021092B30240
:102560001092B4020E94F205089586E0DECFAAE23E
:10257000B0E0EDEBF2E10C94872A89E493E020913E
:10258000F100DC012D93CD01B3E081359B07B9F754
:1025900080914A03833009F472C0B8F4813009F4A1
:1025A00049C0823009F4B3C08091E80083FF8BC238
:1025B0008091490390914A039A3008F084C2E92F30
:1025C000F0E0E85DF44D0C946B2A8A3009F48EC07B
:1025D0008B3009F471C0893039F780914903813219
:1025E00019F780914D0390914E03009711F00297D7
:1025F000D9F68091E800877F8093E8008091E80019
:1026000082FF38C09091F3008091F200029731F47C
:102610008091F100813011F0863021F48091F10039
:10262000809324038091E8008B778093E8000E94D8
:10263000DA03BACF80914903813A09F0B5CF80918E
:10264000E800877F8093E80080914D0390914E03CE
:10265000892B61F460E285E293E070E00E948604D9
:102660008091E8008B778093E8009ECF60E090E057
:1026700080E0F3CF809147038111C0CF95CF809147
:102680004903813A09F090CF80914D0390914E0318
:10269000892B09F089CF8091E800877F8093E8003B
:1026A0008091E80080FFFCCF809141018093F10090
:1026B0008091E8008E77B9CF80914903813209F08B
:1026C00073CF80914D0390914E03892B09F06CCF0D
:1026D0008091E800877F8093E8000E94DA03809170
:1026E0004B03809341010E9488125ECF8091490381
:1026F000813209F059CF8091E800877F8093E8000C
:102700000E94DA0380914C03809323034DCF809184
:102710004903813A09F048CF8091E800877F809390
:10272000E8008091E80080FFFCCF80912303BECFBA
:10273000803899F0823809F0C6C180914D038F70BE
:10274000873008F0C0C18093E9008091EB0085FBE1
:10275000882780F91092E90006C080914503909186
:102760004603911182609091E800977F9093E80072
:102770008093F1001092F1008091E8008E779FC164
:10278000882309F48DC1823009F09DC180914B03EB
:10279000811190C180914D038F702FEF280F26304B
:1027A00008F091C18093E9002091EB0020FF82C1E5
:1027B000933031F48091EB0080628093EB007AC11A
:1027C0009091EB0090619093EB0021E030E001C02C
:1027D000220F8A95EAF72093EA001092EA0080918E
:1027E000EB008860EACF81116EC110914B031F7717
:1027F0008091E3008078812B8093E3008091E80052
:10280000877F8093E8000E94DA038091E80080FFD0
:10281000FCCF8091E30080688093E30082E0111197
:1028200083E0809347034FC18058823008F04BC14A
:1028300020914B0330914C032C3DE3E03E07A1F582
:1028400083E08A838AE289834FB7F894DE01139686
:1028500020E03EE051E2E32FF0E050935700E49196
:1028600020FF03C0E295EF703F5FEF708E2F90E086
:10287000EA30C0F0C7968D939D932F5F243159F7AE
:102880004FBF8091E800877F8093E8006AE270E0A4
:10289000CE0101960E9486048091E8008B77809398
:1028A000E80011C1C096E7CF80914D0390914E038F
:1028B000432F55274330510509F44AC078F541307C
:1028C000510509F47AC08BE590E0E4EFF5E0423081
:1028D000510509F0F8C02091E800277F2093E80017
:1028E00020914F03309150038217930708F49C0105
:1028F00040E02115310509F065C0411163C08091A8
:10290000E80082FDC9CF80914703882329F28530F2
:1029100019F28091E80083FFF2CFBECF413251051A
:1029200009F43CC04232510509F0CDC08330910515
:1029300008F0C9C0FC01EE0FFF1FE454FE4F0190E8
:10294000F081E02D87549E4FDC018C9190E01AC0FD
:10295000332721303105D1F02115310561F02230C6
:10296000310509F0B0C0E1E6F6E0E4918E2F90E089
:10297000E1E6F6E007C0EBE9F6E0E4918E2F90E0A7
:10298000EBE9F6E0009709F49EC0A5CFEFE7F6E08B
:10299000E4918E2F90E0EFE7F6E0F4CF83309105DD
:1029A00008F091C0880F991FFC01EE53FE4F019073
:1029B000F081E02D89E090E08ECF82E190E0EFE4BD
:1029C000F6E089CF80914703882309F465CF8530ED
:1029D00009F462CF8091E80083FD5ECF8091E8002A
:1029E00082FD8DCF8091E80080FF83CF9091F3002E
:1029F0008091F2002115310519F08830910550F0D1
:102A000041E0089709F040E08091E8008E778093DC
:102A1000E8006FCF44914093F10031962150310985
:102A20000196E8CF803809F04EC08091E800877F9A
:102A30008093E800809148038093F1009DCE81113E
:102A400042C010914B031230F0F58091E800877F6F
:102A50008093E800109348030E94DA03112311F0D9
:102A600084E005C08091E30087FDFACF81E0809388
:102A7000470342E061EC81E00E94F90342E261EC2D
:102A800084E00E94F90342E261EC82E00E94F903D3
:102A900042E260EC83E00E94F9038091470313C097
:102AA00080914B03813079F481E0933009F080E02C
:102AB000809346031092E9008091E800877F80931D
:102AC000E8000E94DA038091E80083FF0AC0809149
:102AD000E800877F8093E8008091EB00806280931C
:102AE000EB00AA96E3E00C94A32A0E9488122FEF31
:102AF00084E39CE0215080409040E1F700C000005A
:102B000088E19CE00FB6F894A895809360000FBE12
:102B100090936000FFCFADE0B0E0E1E9F5E10C9407
:102B2000782A3C01DC0113968D919C911497892B96
:102B300051F04C9111965C911197842F85238F3F12
:102B400011F00C947C1F2D96E2E10C94942A809154
:102B50000A0291E0892780930A02809157038770C7
:102B600091F3F3018281882371F38091590382FFED
:102B7000EACF82E00E949F0BE6CF80910A02882371
:102B800009F44AC110920A0230EC4316510408F0CD
:102B90009BC040E84416510408F008C150E44516B3
:102BA000510408F0CDC021E030E040E050E060E0AA
:102BB00070E080E090E0042D0E94AF2AE091EA01ED
:102BC0002E2BE091EB013E2BE091EC014E2BE0919E
:102BD000ED015E2BE091EE016E2BE091EF017E2B7B
:102BE000E091F0018E2BE091F1019E2B2093EA0100
:102BF0003093EB014093EC015093ED016093EE01B3
:102C00007093EF018093F0019093F101C201825023
:102C10009747409710F00C94541F8FEF93E00E9459
:102C2000D12A81119ACF4A944A9466EAC62E62E06C
:102C3000D62E411080C3FE01339686E0DF011D923F
:102C40008A95E9F75AE0552E86010F5F1F4FC6019E
:102C50000E94D12A89831A82882309F47ECF813089
:102C600009F0A0C37601B2E0EB0EF11CC8010E948E
:102C7000D12A8A83882309F470CF9FEF980F93306D
:102C800008F068C3E3E0CE0ED11CC7010E94D12A30
:102C90008B83882309F461CF1C828E010F5F1F4F45
:102CA000D8012C91222381F2213009F0B5C311966D
:102CB0009C91119712968C91913009F075C30E5F1B
:102CC0001F4F0E946C1176C38FEF4816510411F00C
:102CD00008F069CF21E030E040E050E060E070E0D3
:102CE00080E090E08201005C11090E94AF2AE0912F
:102CF00002022E2BE09103023E2BE09104024E2BA8
:102D0000E09105025E2BE09106026E2BE091070236
:102D10007E2BE09108028E2BE09109029E2B2093DE
:102D20000202309303024093040250930502609321
:102D3000060270930702809308029093090266CFFF
:102D400021E030E040E050E060E070E080E090E0C2
:102D50008201005411090E94AF2AE091F2012E2B4A
:102D6000E091F3013E2BE091F4014E2BE091F5014F
:102D70005E2BE091F6016E2BE091F7017E2BE09146
:102D8000F8018E2BE091F9019E2B2093F2013093F4
:102D9000F3014093F4015093F5016093F6017093B1
:102DA000F7018093F8019093F90130CF21E030E0F2
:102DB00040E050E060E070E080E090E08201005888
:102DC00011090E94AF2AE091FA012E2BE091FB013C
:102DD0003E2BE091FC014E2BE091FD015E2BE0913A
:102DE000FE016E2BE091FF017E2BE09100028E2B05
:102DF000E09101029E2B2093FA013093FB01409356
:102E0000FC015093FD016093FE017093FF018093DC
:102E1000000290930102FACE90E44916510408F0A2
:102E200071C0F091EA01A091EB01B091EC01E09149
:102E3000ED01E9878090EE01E091EF01EB87E091F1
:102E4000F001ED87E091F10121E030E040E050E059
:102E500060E070E080E090E0042D0E94AF2AA22E96
:102E6000AF22B32EBA22C42ECB22D984D522E62E8D
:102E7000E820FB84F7220D850823192F1E230E94CA
:102E8000C82A11F00C94D81F20EC4216510408F007
:102E90009EC030E84316510408F001C140E44416D6
:102EA000510408F0CBC021E030E040E050E060E0A9
:102EB00070E080E090E0042D0E94AF2A20953095CC
:102EC0004095509560957095809590952F233A2365
:102ED0004B23A9855A236821BB857B23FD858F233E
:102EE0009E232093EA013093EB014093EC01509331
:102EF000ED016093EE017093EF018093F0019093E8
:102F0000F1012BCEF0E84F165104F8F4F091F201E4
:102F1000A091F301B091F401E091F501E98780906F
:102F2000F601E091F701EB87E091F801ED87E09180
:102F3000F90121E030E040E050E060E070E080E046
:102F400090E082010054110988CFF0EC4F16510433
:102F5000F8F4F091FA01A091FB01B091FC01E0912D
:102F6000FD01E9878090FE01E091FF01EB87E09190
:102F70000002ED87E091010221E030E040E050E006
:102F800060E070E080E090E082010058110965CFB8
:102F9000F0910202A0910302B0910402E0910502B7
:102FA000E98780900602E0910702EB87E091080232
:102FB000ED87E091090221E030E040E050E060E080
:102FC00070E080E090E08201005C110946CF5FEF85
:102FD0004516510411F008F066CF8201005C11091A
:102FE00021E030E040E050E060E070E080E090E020
:102FF0000E94AF2A20953095409550956095709528
:10300000809590952F233A234B23A9855A23682135
:10301000BB857B23FD858F239E2320930202309363
:1030200003024093040250930502609306027093DA
:10303000070280930802909309028FCD8201005409
:10304000110921E030E040E050E060E070E080E015
:1030500090E00E94AF2A209530954095509560955C
:103060007095809590952F233A234B23A9855A2359
:103070006821BB857B23FD858F239E232093F2014E
:103080003093F3014093F4015093F5016093F601FE
:103090007093F7018093F8019093F9015ECD82015E
:1030A0000058110921E030E040E050E060E070E0BD
:1030B00080E090E00E94AF2A209530954095509591
:1030C00060957095809590952F233A234B23A98581
:1030D0005A236821BB857B23FD858F239E23209364
:1030E000FA013093FB014093FC015093FD01609382
:1030F000FE017093FF0180930002909301022DCD99
:103100002FEF4216510409F068F530E443165104DC
:1031100008F0CDC0A090EA01B090EB01C090EC01A6
:10312000D090ED01E090EE01F090EF01F091F00110
:103130001091F10121E030E040E050E060E070E00B
:1031400080E090E0042D0E94AF2AA222B322C42284
:10315000D522E622F722082F0F2319230E94C82A1E
:1031600009F4FBCC211427E7320609F4B0C131E0A1
:10317000231637E7330609F4B2C1210180910E010D
:10318000882309F4FAC5620140EEC41AD1083090D0
:10319000860280911403382A58E0C516D10408F03D
:1031A000A7C192012770332781E090E001C0880F0A
:1031B0002A95EAF7992009F498C1382AD3018D910C
:1031C0009C910E94E10821E030E0F90102C0EE0F7D
:1031D000FF1F8A95E2F7FA87E987A0901103B09064
:1031E000120320910B0230910C023C872B87212C7B
:1031F000E22DF0E0EE0FFF1FE050FF4F0081118144
:103200000115110509F41CC6311005C0D80112962C
:103210008C918111A7C1F801838190E029853A85BD
:1032200082239323892B09F49DC18085982F977061
:1032300009F487E038E0C316D10408F073C199207F
:1032400009F46CC186958170882309F48BC1D8017B
:10325000ED90FC90E414F50419F4992009F482C16E
:103260000A151B0509F47EC1D8011D96ED91FC914C
:10327000309721F08081882309F474C1632DC8013F
:103280000E94B605882309F46DC1E414F50409F021
:10329000B1C6E114F10409F4B2C69110B2C6EB85CF
:1032A000FC85EE16FF0609F05DC1912CAAC640E828
:1032B00044165104A0F4A090F201B090F301C09024
:1032C000F401D090F501E090F601F090F701F09153
:1032D000F8011091F90150E4451A51082BCF80EC08
:1032E00048165104A0F4A090FA01B090FB01C090E0
:1032F000FC01D090FD01E090FE01F090FF01F09103
:1033000000021091010290E8491A510813CFA090D1
:103310000202B0900302C0900402D0900502E09037
:103320000602F0900702F091080210910902A0EC49
:103330004A1A5108FFCEC114B4E0DB0609F40DCCE3
:10334000C6010E94D12A811101C04A94EFEFCE1A22
:10335000DE0A6FCC6701843009F09FCC02E010E0F8
:103360006701FFEFCF1ADF0AC7010E94D12AE1E00F
:10337000F0E0EC0FFD1FE00FF11F8083882309F4BC
:10338000ECCB8C3741F4E2E0F0E0EC0FFD1FE00FF6
:10339000F11F108282CC0F5F1F4F7601073011059D
:1033A000F9F6DBCB680179CC923039F40E5F1F4F10
:1033B0000E94B7100F5F1F4F73CC933029F40E5F3C
:1033C0001F4F0E94F70FF6CF943019F00F5F1F4F79
:1033D000F1CF0E5F1F4F30E020E0B8016F5F7F4FED
:1033E000F80141818053990B8A30910550F02150AA
:1033F000310900F38FE99FE00197F1F700C0000069
:10340000F6CF529EF001539EF00D11249C012E0F19
:103410003F1F842F8B01E1CFE22FF0E0EC50FE4FF5
:103420004490822F86958695869590E0FC01EC511C
:10343000FE4FA4902770B12C022E02C0B594A79421
:103440000A94E2F7A1E0AA22BB24FC01EC52FE4F51
:103450008490912C022E02C0959487940A94E2F7EE
:10346000B1E08B229924FC01EC53FE4FE490F12C47
:1034700002C0F594E7942A95E2F7E1E0EE22FF24FA
:10348000A114B10419F081EE0E94B71081149104C7
:1034900019F086EE0E94B710842D0E946C118114E1
:1034A000910419F086EE0E94F70FA114B10419F0EF
:1034B00081EE0E94F70FE114F10409F47BCF8CE256
:1034C00000CC81E00E94D80B0E94860B46CB81E0A5
:1034D0000E94920BF9CF992011F082E0F3CF82E0A5
:1034E000F7CF81E080930E0138CB8095382266CEED
:1034F000992009F48EC450920C0240920B020E9453
:10350000F604609308037093090380930A03909371
:103510000B031092100310920F0350CE82FB8827EA
:1035200080F992CE9920F1F081708ECE0E94F70F33
:1035300086C50497813A910548F48E2D0E94830830
:10354000992009F41AC40E941E0F07CB0E941E0F77
:103550008FE39CE90197F1F700C000008E2D0E94D7
:10356000B710EECF239444CEFC0120813181241585
:10357000350509F0FBC39110FBC310920E0380E0E8
:103580000E945110FAC3942D852D3EC4F801858107
:1035900081FF6AC4C8010E94920F66C426E241EE10
:1035A00061EEC3010E948A11D8CA27E245EE65EE9A
:1035B000F8CF26E241EE60EEF4CF27E245EE64EE6E
:1035C000F0CF26E241EE62EEECCF27E245EE66EE6A
:1035D000E8CF28E241E0EBCF8091580381608093EF
:1035E000580395C0809159038860809359038FC018
:1035F000809158038260F3CF809158038460EFCFAD
:10360000809158038860EBCF809159038160EDCFA2
:10361000809159038260E9CF809158038061DFCFA8
:10362000809158038062DBCF809158038064D7CFAC
:103630000E948812809158038068D1CF80915803EE
:103640008C60CDCF809159038360CFCF8091580398
:103650008E7FC5CF80915903877FC7CF8091580354
:103660008D7FBDCF809158038B7FB9CF8091580358
:10367000877FB5CF809159038E7FB7CF8091590353
:103680008D7FB3CF809158038F7EA9CF809158034F
:103690008F7DA5CF809158038F7BA1CF0E94881288
:1036A000809158038F779BCF80915803837F97CF6A
:1036B000809159038C7F99CF8091580382FB992781
:1036C00090F921E0922790FB82F990FB83F987CF54
:1036D00080915903982F909591708E7F892B90FB44
:1036E00081F983CF90915803892F8F7B96FF806457
:1036F00076CF0E94881290915803892F97FB87F903
:1037000080586DCF61E08EE090E00E94E52A6091E4
:1037100058037091590384E090E00E94032B0E94AB
:1037200088121BCA60E0EFCF90915803892F8F7EDB
:1037300094FF806154CF90915803892F8E7F90FF22
:1037400081604DCF90915903892F877F93FF8860C7
:103750004CCFB6E14B16BCE75B0609F077C0809111
:103760001403982F947499F4982F9A7A817109F020
:1037700090E0222371F081E0911101C080E08093FC
:103780000D0289E2911185E30E948308DCCE90E06E
:10379000EDCF80910D02811104C089E20E9458088A
:1037A000D2CE85E3FBCF8091FB0280FF10C08E7FDD
:1037B0008093FB026091FB027091FC028091FD02FC
:1037C0009091FE020E94AE0D0E940A0BC6C9816054
:1037D0008093FB0261E086950E94D80EBEC940E04E
:1037E0005FE06AE07FE00E94D605B7C94AE05FE08B
:1037F00060E07FE0F8CF40EA5EE06AEA7EE0F3CF87
:103800004AEA5EE060EA7EE0EECF46E85EE063E929
:103810007EE0E9CF43E95EE066E87EE0E4CF4CE697
:103820005EE069E77EE0DFCF49E75EE06CE67EE0E0
:10383000DACF44EB5EE066EC7EE0D5CF46EC5EE0AE
:1038400064EB7EE0D0CF61E081E0C6CFE3E04E16CE
:10385000ECE75E0609F47CC008F05BC041142CE77D
:10386000520609F468C031E043163CE7530609F4F8
:1038700075C0D30112968C9112970D911C918823DB
:1038800009F47AC0C8010E940C0DF82E682FC801F7
:103890000E941509B8018F2D0E94FE0C0E94B706E8
:1038A0008C01A82EF301F280D580D2943FE0D32280
:1038B000809157038770F1F0CF2CFF20E1F0812F2A
:1038C000807F803451F080E2800F883098F0D110F2
:1038D00004C0812F807E803269F08091590382FF7D
:1038E00009C082E00E949F0B809157038770CC240F
:1038F000C3948111C12CB12EB2942FE0B222FBE00F
:10390000FB1508F4A5C0EB2DF0E0EE5CF44D0C9433
:103910006B2A4BE544164CE7540661F15CE545160D
:103920005CE75506E9F08AE548168CE7580609F089
:10393000A0CF81E01CC00E9488129FEFA4E3BCE0EE
:103940009150A040B040E1F700C000000E94E60A9C
:103950006FEF7FEF90E080E00E94032B0E947515CF
:103960008091590382FB882780F991E089270E9482
:1039700003127FCF80E0FBCFC8010E94E108F82E40
:1039800089CF212F2F70E22E107F19F0E29490EF53
:10399000E922FF20B9F0EE2069F080E2800F883044
:1039A00010F0A11009C080911403E82AE0921403DA
:1039B0000E941E0F802F4AC080911303E82AE092D4
:1039C0001303F6CF802F0E94F70FEE2009F440C0BA
:1039D000005E083010F0A11004C08E2D0E94510826
:1039E00006C0E09480911303E822E09213030E9442
:1039F0001E0F2EC0312F3F70E32E107F103219F0B2
:103A0000E29480EFE822AA2089F041E0A41609F4AC
:103A100084C0FF2009F48DC0DD2009F457C0F301F4
:103A2000858180FFC7CF8F70858350C090915903E7
:103A300092FD45C0FF20E9F1EE2039F0809114039A
:103A4000E82AE09214030E941E0F80E00E94B71043
:103A5000AB2DA850BB0B149720F40E9458050E9470
:103A6000500BCC20A9F08091570380FD11C0F301C9
:103A700012828595859585950E94D80BC3010E9479
:103A80008B15809157038595859585950E94920B9E
:103A900020E0D3014C9111965C91119712966C9194
:103AA000129713967C91139714968C910E94720D25
:103AB0004AC880E00E94F70FEE2051F28ECFFF201F
:103AC000D1F080918602E82AD11004C08E2D0E9488
:103AD000ED0FBECF51E0D512F9CF92FFB9CF8E15C1
:103AE00009F4B6CF0E940205909385028093840268
:103AF000E0928602ADCFD11006C00E9446088E2DFE
:103B00000E94E60FA5CF81E0D81609F4A1CF8E2D33
:103B10000E94E60F0E9446089BCFFF2029F092E00A
:103B20009D1508F495CFD2CFA1E0AD1508F490CF44
:103B3000E6CFDD2021F3F9E3AF1209C02FEF37EE16
:103B400043E0215030404040E1F700C00000802FAA
:103B50000E94F70F7DCF812F86958695837061F047
:103B6000813009F075CFC8019370F11002C080E078
:103B700090E00E940E056CCFC8019370F11002C056
:103B800080E090E00E94330563CF6F2D802F0E946C
:103B90004E095ECF812F837089F5F11059CF402FE8
:103BA000429546954770440F440F802F8F70042E26
:103BB00001C0880F0A94EAF7202F207104FF07C084
:103BC0002FE030E001C0220F4A95EAF720951695C4
:103BD00016951370123069F050F43091870211304D
:103BE00029F0822B83230E944B0932CF832B822B17
:103BF000FACF282B809187028227F5CF8695FF2068
:103C000011F0812F8170882309F422CF402F429533
:103C100046954770440F440F802F8F70042E01C0CB
:103C2000880F0A94EAF7202F207104FF07C02FE0C5
:103C300030E001C0220F4A95EAF7209516951695B7
:103C40001370123069F050F430915403113029F0A0
:103C5000822B83230E94810BFBCE832B822BFACFF6
:103C6000282B809154038227F5CF1F70FF2029F065
:103C7000812F0E94D80B802F2ACF802F0E94E60F21
:103C8000812F0E94920BE4CE802F52EFA516B1F146
:103C90005A1570F090EFA916D1F0A1EFAA1691F085
:103CA000FF2009F453C0D11085CE812F8F712AC017
:103CB000B3EFAB1651F1E4EFAE12F2CF809159039E
:103CC00082FD2FC0812F8F71FF20D9F21BC0FF20F2
:103CD00081F0F1E0FD1508F4BBCE1F7181E090E0AA
:103CE000012E01C0880F0A94EAF7909154038927A6
:103CF000B1CF22E02D1508F4ABCEEFCF812F8F711D
:103D0000F110BFCF0E94D80BA3CE80E0FF2009F4B2
:103D1000A1CF1F7181E0012E01C0880F0A94EAF73C
:103D200099CFFF2041F01F71812F0E94D80B812F66
:103D30000E94E40B8DCE81E00E949F0B31E03D1587
:103D400008F086CE82E00E949F0B82CEDD2059F0E3
:103D5000893309F0FCCE4FEF57EE83E041505040DD
:103D60008040E1F7F2CE812F8F718BCF992029F01F
:103D7000DC0118968C9185FF02CCC20197558F3FCC
:103D8000910511F008F017C17201FF24BEE04B9EAF
:103D9000F00111248F01095E1E4FD30112968C9100
:103DA000E45EFE4F908180FB90F99083882309F4B4
:103DB000EDCB0E9402059093A6028093A502F80124
:103DC00082818F5F82838091130390911403892BEA
:103DD00083838091860284830680F781E02D30976B
:103DE00031F0D8011C966D917C91C80109958EE047
:103DF0008E9DF0018F9DF00D1124E95EFE4F8581AF
:103E000081FFC1CB90E080E090931503809316036F
:103E10002BC080910B0290910C028415950581F4C2
:103E200010920C0210920B021092080310920903D8
:103E300010920A0310920B031092100310920F03BA
:103E40008091110390911203009709F496CFA8E096
:103E5000CA16D10408F088CB632D0E94B6058111E3
:103E600003C081E00E945110D30112962C912223AD
:103E700009F4ACC010925303C2019057839708F025
:103E800068CC84E090E00E94DF2A909359038093ED
:103E90005803F201E150F047E232F10508F09CCB03
:103EA000E25CF44D0C946B2A4114F7E75F0609F4C9
:103EB00008CB21E0421627E7520609F40CCBFEE5B9
:103EC0004F16FCE75F0609F40CCB2FE542162CE7F2
:103ED000520659F03DE543163CE7530609F04EC93A
:103EE00080910E01882309F4FCCA10920E0180E033
:103EF0000E9451100C94AD1521E012966C9112970E
:103F000013967C91139714968C910E94720D1C014C
:103F1000F3018281882369F1809115039091160342
:103F2000009739F18215930521F1BEE08B9FC00106
:103F30001124FC01E45EFE4F208124602083895E11
:103F40009E4FFC01318220820E94B10F1092130318
:103F500021E0D3014C9111965C91119712966C91CE
:103F6000129713967C91139714968C910E94720D60
:103F70001C01C101815A924521014F9720F4B0EAFA
:103F80004B26B2E55B26F3019280992009F4B8C86C
:103F9000FFEF4F16510409F010F40C94BD1529E5FC
:103FA00042162CE7520611F40C94A71510920A023F
:103FB00021010C940616F201E851FC47E730F105A7
:103FC00008F052CFE05AF44D0C946B2AF6E14F16EC
:103FD000FCE75F0609F4C3CB809114038272F201FF
:103FE000E052F847E531F10508F043CCE959F44DCA
:103FF0000C946B2AE114F10409F051C9912CF12CB5
:10400000E12C80E00E9451101093120300931103E1
:1040100081E080930E03F801858180930C03911059
:104020000EC0EF2861F0D8018D919C919C01245025
:104030003109213A310508F079CA0E945808F8017F
:10404000E680F780C7019A9581159F4110F420EE14
:10405000F222BB24B394C70101978F3F9D4708F01C
:10406000B12CD8011996ED91FC911A97309731F047
:104070001B966D917C9181E00995B822BB2079F067
:10408000F801868197810E94370A80930D03C7014A
:10409000F8E0CF16D10408F04CCA0E9465050E94D2
:1040A0001E0F4ECA1F93CF93DF9380913102807F02
:1040B00009F04BC080912E02882309F446C08091FC
:1040C0006302C091320240912C0250912D02609106
:1040D0002F0270913002D42FD52316E0C817A9F112
:1040E00090E061157105A9F1DF3F99F1189FF0018A
:1040F000199FF00D1124DF01AD5CBD4F11962C917D
:104100001197251326C02C91241323C012962C91AD
:10411000129721111EC013962D913C91261B370B2F
:10412000283C3105B0F4809131028F70806180931A
:104130003102E85CFD4F80818F70806180838CE26A
:1041400092E00E948B150E94D708DF91CF911F91BA
:10415000089501968770C2CFA1E1B0E0E2EBF0E2F2
:104160000C947E2A8C0185E0F801DE011D960190F9
:104170000D928A95E1F7F801E2808CE2882E82E0C8
:10418000982E40912F02509130024115510509F4AB
:1041900030C190912C0220912D02892F82238F3FD4
:1041A00009F427C1D080C180A380B480F0902E0292
:1041B000B501641B750BFF2009F4E7C08091310243
:1041C000382F307F683C710508F0ABC0311178C0E2
:1041D000FE2C2C1114C09D1112C0E11010C08F7064
:1041E000806180933102C4010E948B15809131025D
:1041F000F80185838F2D6196ECE00C949A2AA11426
:10420000B104C9F18D2D8C218F3FA9F181E08E255C
:1042100080FF05C04E2D6C2D8D2D0E94B708A11476
:10422000B10459F18D2D8C218F3F39F181E08E251C
:10423000F82FF170BF2E80FF39C04E2D6C2D8D2DC3
:104240000E94B708A82E811131C0DD86CE868D85EB
:104250009E850E943B0D292F22952F70243078F4E3
:104260009F702230A8F09923B9F0F8019581907FD2
:1042700099F4FA2CBFCF80E0CBCF80E0D9CF2A5F72
:104280002F70223068F0C8010E948B15AB2CF1CF43
:10429000992311F0882369F3805E883050F3F3CFBF
:1042A000803F38F3815F833070F7E3CFEE2009F46D
:1042B000A1CF80913102816080933102F12C9ACF9D
:1042C0002C1105C09D1103C0EE2009F477C0C80170
:1042D0000E94480D882309F1EE20F9F08091310207
:1042E000803270F020912C0230912D0238872F837C
:1042F0001986BB86AA868C87CE0107960E948B15ED
:1043000086E0F801ACE2B2E001900D928A95E1F707
:104310000E945220FF24F3946DCFC8010E948B1598
:10432000F9CF31110AC08CE292E00E948B1586E031
:10433000F40111928A95E9F7C1CF2C110EC09D119D
:104340000CC0E1100AC08583C8010E948B1586E06D
:10435000F40111928A95E9F74DCFC8010E94480DEA
:104360008823D9F2EE20C9F280913102803240F2E6
:1043700020912C0230912D023A8329831B82BD8229
:10438000AC828E83CE010196B9CF683C7105F8F6F8
:10439000FE2CEE2011F22C111EC09D111CC080912C
:1043A000310280FD0FC0982F907F61F08583903F90
:1043B00031F0982F907F905F8F70892B8583C80193
:1043C0000E948B1586E0F801ACE2B2E001900D92FC
:1043D0008A95E1F70FCFC8010E94480D811190CF57
:1043E00080913102816080933102C8010E948B1557
:1043F00001CFEE2009F491CFC8010E94480DF82E9C
:10440000882309F48ACF86E0F801ACE2B2E001909B
:104410000D928A95E1F780912C0290912D020E94D5
:104420003B0D0E945220E6CEA7E1B0E0EAE1F2E2C5
:104430000C94872A4B8B5C8B6D8B7E8B8F8B6111E1
:10444000109213031A8A198A85E0FE017396DE0121
:104450001D9601900D928A95E1F78091590382FF94
:104460001CC00E9402052091550330915603821B07
:10447000930B8C3D954020F08091570382FF79C0CB
:104480000E9402052091840230918502821B930BC9
:104490008C3D954010F00E94460886E0FE013D9656
:1044A000DE01179601900D928A95E1F7CE010796ED
:1044B0000E94AC20882359F016E08091630290910D
:1044C0003202891343C06796E3E00C94A32A86E086
:1044D000FE013796DE01119601900D928A95E1F763
:1044E0008A859B85892B41F38F81988589238F3F0E
:1044F00019F32091320230E0C901019687709927A3
:10450000409163024817190671F40E9488121092B4
:1045100032021092630286E0ECE2F2E0DF011D92CB
:104520008A95E9F7C9CF96E0929FD001939FB00D8D
:104530001124AD5CBD4FFE01319601900D929A950C
:10454000E1F7809332020E94D708B6CF819FC00165
:1045500011248D5C9D4F0E94AC20882309F4B3CFB9
:104560008091630290E0019687709927809363029F
:10457000A4CF82E00E949F0B83CFAAE0B0E0E3ECDF
:10458000F2E20C947E2A8E010F5F1F4F8AE0F80141
:1045900011928A95E9F794EAE92E91E0F92E6801E3
:1045A000AA24A394B12CF70181917F018F3F09F4D4
:1045B00046C0F894E82FE295EF70F0E021A18F70EB
:1045C000A50102C0440F551F8A95E2F7CA01922F38
:1045D000982B91A392A18095892382A3789400C0FF
:1045E000E9EAF1E021E030E0912C812C41914F3F4C
:1045F00009F467C0A42FA295AF70B0E090968C919B
:1046000090E04F7002C0959587954A95E2F780FD3E
:1046100058C0C901882A992A220F331F51E0E93B6B
:10462000F50721F7F701319780818F3F11F00E9444
:104630005D0680EA8A95F1F7F60191828082F2E0C8
:10464000CF0ED11C49EAE41641E0F40609F0ABCFE5
:104650004AE050E0B8018BE892E00E94192B892BC8
:1046600099F18AE0F801ABE8B2E001900D928A95E9
:10467000E1F781E080938A020E940205909389020B
:104680008093880280918802909189020E94E704B9
:104690000597F0F04AE050E06BE872E088EA92E0BB
:1046A0000E94192B892BC9F08AE0EBE8F2E0A8EA16
:1046B000B2E001900D928A95E1F781E010928A02B2
:1046C00008C090E080E0A6CF80918A028111DACF05
:1046D00080E02A96ECE00C949A2A80E0EFCF1F92BB
:1046E0000F920FB60F9211242F933F934F935F9326
:1046F0006F937F938F939F93AF93BF93CF93DF93EA
:10470000EF93FF93D091E900DF708091EC00C82F08
:10471000C17080FDC0E81092E9008091F000877FB1
:104720008093F00078940E94B7121092E900809173
:10473000F00088608093F000CD2BCF70C093E9002B
:10474000FF91EF91DF91CF91BF91AF919F918F91A9
:104750007F916F915F914F913F912F910F900FBE7D
:104760000F901F9018951F920F920FB60F92112461
:104770002F933F934F935F936F937F938F939F9369
:10478000AF93BF93EF93FF938091E10082FF09C045
:104790008091E20082FF05C08091E1008B7F8093D1
:1047A000E1008091DA0080FF24C08091D80080FF72
:1047B00020C08091DA008E7F8093DA008091D9004A
:1047C00080FF9DC080E189BD82E189BD09B400FE02
:1047D000FDCF81E08093470380912203811109C0BE
:1047E0000E948A030E942B048091E20084608093DF
:1047F000E2008091E10080FF17C08091E20080FF1D
:1048000013C08091E2008E7F8093E2008091E200ED
:1048100080618093E2008091D80080628093D8000C
:1048200019BC85E0809347038091E10084FF2BC091
:104830008091E20084FF27C080E189BD82E189BDCB
:1048400089B5982F917080FFFBCF8091D8008F7D24
:104850008093D8008091E1008F7E8093E100809169
:10486000E2008F7E8093E2008091E200816080937D
:10487000E20080914803882309F447C084E08093D4
:104880004703809147038091E10083FF27C0809117
:10489000E20083FF23C08091E100877F8093E100E5
:1048A00082E080934703109248038091E1008E7F5D
:1048B0008093E1008091E2008E7F8093E2008091FE
:1048C000E20080618093E20042E060E080E00E94CC
:1048D000F9038091F00088608093F000FF91EF91E0
:1048E000BF91AF919F918F917F916F915F914F9108
:1048F0003F912F910F900FBE0F901F90189519BCEC
:10490000109247031092220374CF8091E30087FD39
:1049100093E090934703B5CF78941F921FB61F92F0
:1049200011248F939F93AF93BF9380911E03909117
:104930001F03A0912003B09121030196A11DB11D79
:1049400080931E0390931F03A0932003B093210331
:10495000BF91AF919F918F911F901FBE1F9018958F
:104960001F921FB61F9211248F939F93AF93BF93F3
:1049700080911D03811113C080911E0390911F032C
:10498000A0912003B09121034196A11DB11D8093F8
:104990001E0390931F03A0932003B0932103BF91A4
:1049A000AF919F918F911F901FBE1F901895CDB70B
:1049B000DEB7AA970FB6F894DEBF0FBECDBF85B79E
:1049C000806885BF85B7806885BF84B7877F84BFCF
:1049D0000FB6F894A895809160008861809360007C
:1049E000109260000FBE80E890E00FB6F8948093BC
:1049F0006100909361000FBE8BE596E09093C90132
:104A00008093C8010E948A030E942B048091E200D7
:104A100084608093E2007894809147038823A1F01A
:104A20001091E9001F709091EC00892F817090FD2A
:104A300080E8182B1092E9008091E80083FD0E9425
:104A4000B7121F701093E90082E084BD93E095BD1A
:104A50009AEF97BD80936E000E94950D811102C060
:104A60000E94BF0C04EA11E0E9EAEE2EE1E0FE2E1E
:104A7000D8018D918D018F3F11F00E945D06E016E7
:104A8000F106B1F709EA11E079EBE72E71E0F72EB4
:104A9000F80181918F018F3F11F00E945D06E016B1
:104AA000F106B1F78AE0E8EAF2E0DF01282F1D9273
:104AB0002A95E9F7EBE8F2E0DF011D928A95E9F724
:104AC00040E060E080E00E943F0B0E947C12811178
:104AD00002C00E941A1282E090E00E94D12A8093C4
:104AE0009A0284E090E00E94DF2A90935903809319
:104AF00058030E94BD22EFE3FCE93197F1F700C0B3
:104B000000000E94BD228091A80280FF08C06FEFC4
:104B10007FEF90E080E00E94032B0E94E60A83E092
:104B200090E00E94D12A0E944B09809154030E9478
:104B3000630B879A8F9A80919502811131C00E94F0
:104B40007C12811104C00E941A120E940F0F88E08B
:104B500090E00E94D92A6093FB027093FC0280933C
:104B6000FD029093FE026E7F71F40E940F0F88E0A9
:104B700090E00E94D92A6093FB027093FC0280931C
:104B8000FD029093FE020E94DC058091FB0280FFF3
:104B900004C060E086950E94D80E81E08093950263
:104BA00080915803806880935803609158037091F6
:104BB000590384E090E00E94032B0E94580580FF77
:104BC00003C083E50E946C118FE091E090931A037B
:104BD0008093190352EB452E52E0552E68EC662E59
:104BE000712C80914703FF24F39400E112E185309A
:104BF00009F4A3C00E94BD223BE9A32E32E0B32EEC
:104C000048EA842E42E0942ED401F501219131919D
:104C10008D919D9142E0E53AF40709F4A3C028176D
:104C20003907A1F3312CD4010D911D914D01F501EE
:104C3000C190D1905F01C016D10659F1C026D1268E
:104C4000212CEE24E394F12CC6018E219F21892B87
:104C5000B1F02EA23FA221E0C8018E219F21892B15
:104C600009F420E028A70E9402058160782F9AA706
:104C700089A74EA15FA168A58AA50E94142223944A
:104C8000EE0CFF1CF0E12F12DFCFF50132971183FC
:104C90000083339425E03212C6CF0E94F60484C00C
:104CA00080914703843009F438C080E00E94500BA3
:104CB0008091970281110DC0F09297028091FB02C2
:104CC000982F9170909396028E7F8093FB020E94A2
:104CD0000A0B10921D0388E190E0A0E40FB6F8944F
:104CE000A895809360000FBEA093600083B7817F7A
:104CF000846083BF83B7816083BF7894889583B7CE
:104D00008E7F83BF0FB6F894A8958091600088616C
:104D100080936000109260000FBE8091460388234C
:104D200061F00E94BD22E8EAF2E081919191892B25
:104D300009F080C34E165F06C1F7809147038530A6
:104D400009F4AECF0E9488120E9458050E94500BB1
:104D50001092970280919602882309F44BCF0E940B
:104D6000F60E48CF2817390709F05CCF0E940205DC
:104D70008C01809198029091990208171907A1F06F
:104D80008FEF89A38AA31BA20E9402058160782F5E
:104D90009DA38CA349A15AA16BA18DA10E941422AD
:104DA000109399020093980280910F039091100341
:104DB000892B09F44EC04091040350910503609182
:104DC0000603709107032FB7F89480911E0390910A
:104DD0001F03A0912003B09121032FBF841B950BCB
:104DE000A60BB70B409100035091010360910203A1
:104DF0007091030384179507A607B70750F1009138
:104E00000F0310911003C8010E94370A9801205E19
:104E100031092830310520F00115110509F03FC195
:104E20000E94ED0F802F0E94B71010921003109275
:104E30000F031092040310920503109206031092C0
:104E400007031092000310920103109202031092C4
:104E50000303009115031091160301151105B9F014
:104E60008091A5029091A6020E94E704893C9105D9
:104E700070F04EE0049FC0011124FC01E45EFE4F7F
:104E8000208122FD04C0895E9E4F0E94B10F86E002
:104E9000E9EBF2E0DE01119601900D928A95E1F7BF
:104EA0001092BB021092BC021092BD021092BE0280
:104EB0008B819C81892B09F44AC08091B702909123
:104EC000B8020E94E7049C019091B202992309F470
:104ED000D5C225313105D8F19F3F19F09F5F9093DE
:104EE000B2021B81112359F00E943B069FEF11165D
:104EF0000CF491E0899F802D11248093BB021C81CA
:104F0000112359F00E943B069FEF11160CF491E01B
:104F1000899F802D11248093BC023091BB023323E2
:104F2000B1F02091BC02222391F045EB3403C00183
:104F30001124992309F4B6C09093BB0245EB2403D6
:104F400090011124332309F4B1C03093BC028D8148
:104F50009E81892B09F44AC08091B5029091B602D6
:104F60000E94E7049C019091B302992309F481C245
:104F700021353105D8F19F3F19F09F5F9093B3021F
:104F80001D81112359F00E9419069FEF11160CF490
:104F900091E0899F802D11248093BD021E811123F1
:104FA00059F00E9419069FEF11160CF491E0899FA9
:104FB000802D11248093BE023091BD023323B1F0C5
:104FC0002091BE02222391F045EB3403C00111244D
:104FD000992309F46FC09093BD0245EB240390011F
:104FE0001124332309F46AC03093BE0246E050E036
:104FF000BE016F5F7F4F89EB92E00E94192B892BD6
:1050000061F48091BB029091BC02892B9091BD020A
:10501000892B9091BE02892B11F00E94F20586E047
:10502000FE013196A9EBB2E001900D928A95E1F76D
:105030000E945805182F8091A702181739F0109375
:10504000A7020E94F604812F0E94500B8091470313
:10505000843009F0C6CD83E08093E9008091E800B8
:1050600082FFBFCD8091E80090E085FF05C00E94DF
:10507000A903882339F191E08091E8008B77809330
:10508000E800992309F4ADCD8981EFEFE80FE33112
:1050900008F041C0F0E0E458F44D0C946B2A0E94F3
:1050A000DC0FC0CE81E08093BB0248CF81E08093CB
:1050B000BC024DCF81E08093BD028FCF81E0809311
:1050C000BE0294CF80E2E82EF12C8E010F5F1F4FBD
:1050D0008091E80085FD0AC08091E8008B7780937D
:1050E000E8000E94A903882399F3C5CF8091F100BD
:1050F000D8018D938D01B1E0EB1AF10849F7BBCFD0
:105100001A828BE08B831BC08A81823009F4A8C18C
:1051100028F4813061F08FEF898311C08330C1F0B2
:105120008430C9F71B821C821D821E8208C00E9427
:10513000F6040E94712A6B837C838D839E8340E2F8
:1051400050E0BE016F5F7F4F82E00E94790A49CD37
:105150008091A8029091A9029827892798279C837B
:105160008B838091AA029091AB0298278927982778
:105170009E838D838091AC029091AD029827892700
:10518000982798878F838091AE029091AF029827DD
:10519000892798279A8789878091B0029091B102D8
:1051A0009827892798279C878B87C9CF8A81823047
:1051B00079F0853009F0AFCF8091FB0280FF13C0FA
:1051C0008091FB028E7F8093FB020E940A0BB7CF77
:1051D0006B817C818D819E810E94712A85E290E0A5
:1051E0000E94E52AACCF0E94F60EA9CF4C816B81BC
:1051F0008A810E94CF0C9827892798279E838D83C8
:105200009ECF2D813E813227232732274C816B810F
:105210008A810E94480C93CF0E946E0C90CF9A8195
:10522000923009F078CF8830B1F1893009F45DC04F
:105230008B81823009F1A8F4813009F080CF8C8114
:10524000E8EC8E9FC00111246FEF70E00E94432AAA
:10525000462F20E06091FD028091FC020E94C10D6A
:105260006ECF8330A1F0843009F069CF20E0409107
:10527000FE026D818C81F2CF8C81882309F4A0CF4E
:105280000E94F60E60E08C810E94D80E58CF8C816F
:105290008093FF0254CF8B818230D9F070F481303B
:1052A00009F04DCF8091FE02FFEF8F9FC0011124C6
:1052B000B3010E94432A6C8342CF833099F084303B
:1052C00009F03DCF8091FC028C838091FD028D839B
:1052D00036CF8091FB0280FF03C086958C832FCF51
:1052E00080E0FCCF8091FF02F9CF6091FB027091CA
:1052F000FC028091FD029091FE020E94AE0D1FCF34
:1053000080E18A831CCF81E08A838AE5FBCE0A8113
:105310001B81102701271027CE0101967C01CC802C
:10532000DC01AC0DB11D6D01C8018A559D4FCE1435
:10533000DF0409F404CF0A35B1E01B0750F40E94E2
:10534000D12AF70184830F5F1F4FBFEFEB1AFB0ACF
:10535000EBCFD70114961C92F6CF0A811B81102740
:1053600001271027FE0131966F01EC80E00EF12E2F
:10537000F11CC8018A559D4FE016F10609F4DFCEF5
:105380000A35F1E01F0728F4D60114966C910E94AB
:10539000E52ABFEFCB1ADB0A0F5F1F4FEACF0E944F
:1053A000380CCDCE84E0ADCF0A811B8110270127B8
:1053B0001027FE0131967F01CC80CF018C0D911D0D
:1053C0006C01C8018696EC14FD0409F4B8CE0038CF
:1053D000A2E01A0750F40E94D12AF70184830F5FDC
:1053E0001F4FBFEFEB1AFB0AECCFD70114961C92AC
:1053F000F6CF0A811B81102701271027FE01319665
:105400006F01EC80E00EF12EF11CC8018696E016CB
:10541000F10609F494CE0038F2E01F0728F4D60113
:1054200014966C910E94E52ABFEFCB1ADB0A0F5F3E
:105430001F4FEBCF09BD19BD09B400FEFDCF809110
:10544000D8008F7D8093D8008091E00082608093A7
:10545000E0008091E00081FDFCCF0E9488126DCCBD
:1054600085E290E00E94D12A1B821C821D828E83DD
:1054700066CE2B30310508F080CDB8CD2B3031050C
:1054800008F02CCD64CDAA1BBB1B51E107C0AA1F9D
:10549000BB1FA617B70710F0A61BB70B881F991FD5
:1054A0005A95A9F780959095BC01CD01089597FB79
:1054B000072E16F4009407D077FD09D00E94432AE6
:1054C00007FC05D03EF4909581959F4F0895709507
:1054D00061957F4F0895EE0FFF1F0590F491E02D29
:1054E00009946927962769277827872778270895B9
:1054F0002F923F924F925F926F927F928F929F92E4
:10550000AF92BF92CF92DF92EF92FF920F931F93D1
:10551000CF93DF93CDB7DEB7CA1BDB0B0FB6F89482
:10552000DEBF0FBECDBF09942A88398848885F84C2
:105530006E847D848C849B84AA84B984C884DF8033
:10554000EE80FD800C811B81AA81B981CE0FD11D17
:105550000FB6F894DEBF0FBECDBFED010895002E4B
:10556000083090F0982F872F762F652F542F432FD8
:10557000322F22270850F4CF220F331F441F551F0C
:10558000661F771F881F991F0A95B2F7002D08958F
:105590002A153B054C055D056E057F0580079107C3
:1055A0000895F999FECF92BD81BDF89A992780B5EB
:1055B0000895A6E1B0E044E050E00C940B2BA8E184
:1055C000B0E042E050E00C940B2B262FF999FECF6F
:1055D00092BD81BDF89A019700B4021639F01FBA46
:1055E00020BD0FB6F894FA9AF99A0FBE0895039663
:1055F000272F0E94E62A0E94E52A252F0E94E62AEC
:10560000242F0C94E62A0196272F0E94E62A0C9458
:10561000E52ADC01CB01FC01F999FECF06C0F2BD01
:10562000E1BDF89A319600B40D9241505040B8F760
:105630000895FB01DC0104C08D910190801921F4D3
:1056400041505040C8F7881B990B0895F894FFCF3C
:105650009813C0136315C0136315F3131414631563
:1056600012151F15C11CC11CFA1CFA1CAB1DC51D4F
:10567000281D281DCA1D351E441E441E261B9B1BAB
:105680002E1BF81AFC1A321B001B361B421B0C1B6C
:10569000941B101B461B141B4A1B721B181B4E1B12
:1056A000791B1E1B541B5C1B041B3A1B081B3E1B57
:1056B000221B581B681B821B921BF21A2A1BA21B5F
:1056C000D91ADD1ACE1AD51AE11AE51AE91AD31B2E
:1056D000EF1BF61BFB1B001C051C0A1C0F1C141CDB
:1056E000191C1E1C231CAD15AD15AD15AD15AD1542
:1056F000AD15AD15AD15AD1580288428D628F62832
:1057000001290C290F290F290F298B288B28802983
:0E57100083298729AD29CF29D229D429F92947
:10571E00600151014201000001000100010001E49D
:10572E0004C20ABB0AB40A0000000000000000E731
:10573E0011CE0B00000000000000000000FB0BBFAC
:10574E000B000000000000000000001A0CC60B0049
:10575E0000012D0010FF00104502070000000000A0
:10576E00002E0010FF00104504070000000000008E
:10577E002A0022FF00224C000700000000000081DA
:10578E008283E200E900EA00B500B600B700CD0062
:10579E008301CC008A01920194012102230224028A
:1057AE002502260227022A02B300B4006F00700001
:1057BE009F01CB0137333231309593929190F0F1B6
:1057CE00C63534979694F4F5F64022B684016201FC
:0857DE00AC0006061F063F06A1
:00000001FF
