:100000000C9450030C9488030C9488030C9488037C
:100010000C9488030C9488030C9488030C94880334
:100020000C9488030C9488030C947D230C9439233E
:100030000C947A240C9488030C9488030C94880301
:100040000C9488030C9488030C9488030C94880304
:100050000C9488030C9456240C9488030C94880305
:100060000C9488030C9488030C9488030C948803E4
:100070000C9488030C9488030C9488030C948803D4
:100080000C9488030C9488030C9488030C948803C4
:100090000C9488030C9488030C9488030C948803B4
:1000A0000C9488030C9488030C94880305010902BE
:1000B000A10185020901A1000509190129081500FE
:1000C0002501950875018102050109300931158165
:1000D000257F95027508810609381581257F9501D0
:1000E00075088106050C0A38021581257F95017572
:1000F000088106C0C005010980A101850319012AF4
:10010000B700150126B700950175108100C0050CD8
:100110000901A101850419012AA002150126A002E6
:10012000950175108100C005010906A1018506052C
:100130000719E029E71500250195087501810205D9
:1001400007190029EF1500250195F07501810205B9
:10015000081901290595057501910295017503910D
:1001600001C00660FF0961A1010962150026FF00B8
:100170009520750881020963150026FF00952075FA
:10018000089102C005010906A101050719E029E748
:1001900015002501950875018102950175088101F9
:1001A0000507190029FF150026FF0095067508812F
:1001B000000508190129059505750191029501753C
:1001C000039101C0000000000000000000000000DA
:1001D000000000000000000000000000000000001F
:1001E00000000000000000007E0F00D4FFFFFFC7EA
:1001F0000000007800000000000000002A2B28000A
:1002000000000000000000000000000000000029C5
:10021000000000002C1E3420212224342627252E05
:10022000362D3738271E1F2021222324252633333D
:10023000362E37381F0405060708090A0B0C0D0E69
:100240000F101112131415161718191A1B1C1D2F35
:100250003130232D350405060708090A0B0C0D0E55
:100260000F101112131415161718191A1B1C1D2F15
:100270003130354C0001010101010101010102028F
:100280000202020202020203030303030303030444
:10029000040404040404050505050506060606060F
:1002A000070707070708080808090909090A0A0AC9
:1002B0000B0B0B0C0C0C0D0D0D0E0E0E0F0F0F106B
:1002C00010111111121213131414151516161717F5
:1002D000181819191A1A1B1B1C1D1D1E1E1F202061
:1002E000212222232424252626272829292A2B2CAB
:1002F0002D2D2E2F30313232333435363738393ACE
:100300003B3C3D3E3F404142434445464748494AC5
:100310004C4D4E4F50515354555658595A5B5D5E93
:100320005F616264656668696B6C6D6F707273752E
:1003300077787A7B7D7E8082838587888A8C8E8F92
:1003400091939596989A9C9EA0A2A3A5A7A9ABADC0
:10035000AFB1B3B5B7BABCBEC0C2C4C6C9CBCDCFAE
:10036000D1D4D6D8DBDDDFE2E4E7E9EBEEF0F3F55C
:10037000F8FAFDFF167C1E001F002000210022005D
:10038000230024002500260027002D002E002A002F
:100390004A00A8002B0014001A00080015001700DE
:1003A0001C0018000C00120013002F003000310058
:1003B0004D004C00005704001600070009000A0019
:1003C0000B000D000E000F00330034002800000069
:1003D00000000000E10000001D001B0006001900E5
:1003E000050011001000360037003800E500015705
:1003F00052000000E000E300E20000000000000006
:100400002C00000000000000E6000257E40050004D
:1004100051004F0035003A003B003C003D003E00DB
:100420003F004000410042004300440045004C00B2
:100430000100490001004A0052004D004B0001003C
:1004400001000100010001000100010001000100A4
:10045000010046000100500051004F004E00010015
:10046000010001000100010001000100280100005D
:10047000000000000100000001000100B2000100C6
:100480000100110A2903010001000100010001001F
:100490000100000001000100010000000000000058
:1004A0004C00000000000000010001006521010077
:1004B0000100010035000100010001000100010000
:1004C00001005F00600061000100560057004C020F
:1004D0000100A60001004A0052004D004B0001003F
:1004E00001005C005D005E00010055005400010049
:1004F000010001000100500051004F004E000100BA
:10050000010059005A005B000100010028010000B1
:10051000000000000100000001000100B200010025
:10052000010001006200620063005300010001004D
:100530000100000001000B7001000000000000003D
:1005400001000000000000000100010001000100A6
:100550000100010020782B78010001001370AA002F
:10056000A900AE00A8000100010001000100010087
:100570000100007C010001000100010001000100F8
:100580000100010001000100010001000100010063
:100590000100010001000100010001000100010053
:1005A0000100010001000100010001000100000044
:1005B0000000000001000000010001000100010036
:1005C0000100010010030100010001000100010011
:1005D0000100000001000100010000000000000017
:1005E00001000000000000000100005201000100B5
:1005F0000100010009025B00030100A0FA090400E8
:10060000000103010100092111010001224000073E
:10061000058103080001090401000203000000092C
:100620002111010001222200070582032000010799
:100630000503032000010904020001030000000972
:10064000211101000122B6000705840320000112D8
:10065000010002000000086B70110001000102009F
:10066000011C0369006B006B006900360038002034
:10067000004100750072006F007200610000001AF6
:100680000377007500710075006500200073007429
:10069000007500640069006F000000040309040095
:1006A00011241FBECFEFDAE0DEBFCDBF04B603FEDC
:1006B00018C08091380390913903A0913A03B0910A
:1006C0003B038730904BA740B04B59F4109238034E
:1006D0001092390310923A0310923B03E0E0F8E3E2
:1006E000099511E0A0E0B1E0E2EBF6E502C005906B
:1006F0000D92A63AB107D9F723E0A6EAB1E001C00E
:100700001D92A833B207E1F70E94A1240C94F02AAD
:100710000C940000E8EDF0E080818E7F80831092E1
:10072000E2001092DA001092E100A0EEB0E08C91AD
:1007300081608C9380818F77808319BCA7EDB0E0B6
:100740008C918E7F8C9380818F7E808310920003AA
:1007500008952091E4003091E50095E6A9012091EB
:10076000EC00822F817020FF06C08091E80080FF9E
:1007700006C080E008952091E80022FD1AC0809113
:100780002503882389F0853089F08091EB0085FD71
:100790000FC02091E4003091E50042175307F9F2B1
:1007A0009150E1F684E0089582E0089583E0089591
:1007B00081E008958091270387FF13C08091E800AE
:1007C00082FF06C08091E8008B778093E80004C028
:1007D000809125038111F2CF08958091250388230C
:1007E000D9F38091E80080FFF8CF8091E8008E7700
:1007F000ECCF982F9093E900242F762F50E08917A3
:1008000031F07091EC002091ED005091F00021FD4D
:1008100007C09F5F973071F78093E90081E00895EA
:100820003091EB003E7F3093EB003091ED003D7F47
:100830003093ED003091EB0031603093EB0070931A
:10084000EC002093ED005093F0002091EE0027FD86
:10085000E0CF80E00895B0E0A0E0E1E3F4E00C94A4
:100860004C2AC8EDD0E088818F7E8883E7EDF0E0E8
:1008700080818160808384E082BF81E08093000377
:1008800088818E7F888302EE10E0F801108210923A
:10089000DA0081EEC82ED12CF601108288818F7784
:1008A000888388818068888388818F7D888319BC4C
:1008B0001092250310922603109224031092230312
:1008C00090EEE92EF12CF70180818B7F8083888167
:1008D0008160888342E060E080E00E94F903F601D5
:1008E00080818E7F8083F801808181608083808118
:1008F00088608083F70180818E7F8083888180611A
:100900008883CDB7DEB7E8E00C94682AFC018091BB
:100910002D0390912E0386179707A0F0611571059E
:1009200029F49091E8009E779093E80090E061159B
:10093000710551F4911108C08091E80082FF34C024
:1009400080E00895BC01F2CF809125038823C1F196
:100950008530C1F18091E80083FD30C08091E800CE
:1009600082FDEACF8091E80080FFE1CF8091F30023
:100970002091F200382F6115710519F028303105EA
:1009800058F091E02830310509F090E02091E8001E
:100990002E772093E800CBCF81918093F1006150B6
:1009A00071092F5F3F4FE7CF80912503882341F0E6
:1009B000853041F08091E80083FFBECF81E008954B
:1009C00082E0089583E008958091020308959C01D8
:1009D0004FB7F8948091FC029091FD02A091FE0225
:1009E000B091FF024FBF821B930B08952FB7F8946D
:1009F0006091FC027091FD028091FE029091FF02D5
:100A00002FBF08952FB7F8948091FC029091FD02BA
:100A1000A091FE02B091FF022FBF0895A3E0B0E0C5
:100A2000E4E1F5E00C94522A2091F9023091FA02A7
:100A300028173907A1F09093FA028093F902E09108
:100A4000F702F091F802309751F024E029839B835C
:100A50008A830680F781E02DCE01019609952396C1
:100A6000E2E00C946E2AA3E0B0E0E9E3F5E00C9438
:100A7000522A2091F5023091F60228173907A1F089
:100A80009093F6028093F502E091F702F091F8025C
:100A9000309751F023E029839B838A830680F78176
:100AA000E02DCE01019609952396E2E00C946E2A82
:100AB000E091F702F091F802309729F00190F0816F
:100AC000E02D0995089580E00895CF93DF93EC0120
:100AD0004091E6025091E7026091E8027091E902CC
:100AE0002FB7F8948091FC029091FD02A091FE0234
:100AF000B091FF022FBF841B950BA60BB70B843F51
:100B00009140A105B10518F58091E6029091E702A8
:100B1000A091E802B091E9028093E2029093E3028F
:100B2000A093E402B093E50284EF91E0A0E0B0E08E
:100B30008093DE029093DF02A093E002B093E10283
:100B4000D093EE02C093ED02DF91CF9108950E9401
:100B5000F6046093E2027093E3028093E4029093C0
:100B6000E50282E390E0A0E0B0E0E2CFFC01848106
:100B7000862351F492819923B9F06923808583FFFC
:100B800005C081E061110FC080E00895892F8F704A
:100B900092959F70982B862F8F7062956F70682B3F
:100BA00081E09613F1CF089581E0FDCFFA01811124
:100BB00001C0FB01099508958091D902982F9E7F6D
:100BC00071F48091D902817082608093D902809102
:100BD000DC02893C18F088EC8093DC0208958430B4
:100BE00080F7F5CF0E9402059C01909199028091B7
:100BF0009A02982B21F030939602209395029091BF
:100C00009B0280919C02982B21F0309394022093B8
:100C10009302E091F702F091F802309749F082E0F8
:100C2000809397020480F581E02D87E992E0099591
:100C300008958091920280FD16C081FD16C082FD4C
:100C400016C0809191028823A1F0883280F428E0B8
:100C5000829FC001112468E270E00E94212A862F41
:100C6000672B39F0089582E0089584E0089588E0C4
:100C7000089581E008958091920280FD14C081FD65
:100C800014C082FD16C080919002882381F08E31BD
:100C900080F420E5829FC00111246EE170E00E9483
:100CA000212A862F089584E1089588E2089588E036
:100CB000089580E5089580E00895F894E82FE2957E
:100CC000EF70F0E031A1282F2F7081E090E001C09B
:100CD000880F2A95EAF7982F9095932391A392A1D4
:100CE000892B82A3789408959091360392FF06C0D1
:100CF000282F28712830F9F4877F846093FF06C07D
:100D0000282F28712831F1F4877E846120913703E0
:100D100020FF06C0382F38713830D9F4877F8160C2
:100D200021FF06C0282F28712831D1F4877E8161E8
:100D300094FD877E0895282F24712430F9F68B7F47
:100D40008860DCCF282F2471243101F78B7E8861E5
:100D5000DDCF382F3171313019F78E7F8860E0CFC9
:100D6000282F2171213121F78E7E8861E1CFCF9329
:100D7000DF93EC0182389105B9F108F041C081336D
:100D8000910509F49FC050F58932910509F48FC08F
:100D90008A9709F49EC0C11520E5D20708F0BDC0AE
:100DA000C11530E4D30708F00AC1C03ED10508F0F0
:100DB000A5C0CD3CD10508F000C1C83AD10508F066
:100DC0008FC0C53AD10508F0F0C0C130D10539F166
:100DD000209729F1C430D10510F546C0853391051F
:100DE00009F460C0C997B9F680913603837009F0A1
:100DF00044C18091370383FF12C0C9E2D0E00FC025
:100E0000833E9105A1F178F4803E910509F1823E7F
:100E1000910509F0C0CF8091360382FD21C0CE013B
:100E2000DF91CF910895863E910561F1873E91054E
:100E300071F1843E910509F0AECF8091370381FFB7
:100E4000EECF80913603C7EED0E084FD0DC0E7CF32
:100E50008091360380FD33C09091370390FFDFCF40
:100E6000C3EED0E084FFDBCFD0E0C0E0D8CF8091EC
:100E7000360382FDFFC09091370390FDFEC084FFD2
:100E8000CECFF2CF8091360383FDDDCFC8CF8091E6
:100E9000360383FDF5C09091370391FFF0CFC4EE88
:100EA000D0E0BDCF8091360385FFB9CFA6CF80912A
:100EB000360385FDE8C08091370383FFB0CFC9E3D7
:100EC000D0E0ADCF8091360386FFA9CFCAE2D0E053
:100ED000A6CF8091360386FFA2CFC1E3D0E09FCF9B
:100EE000C13CD10508F6C85AD0E0CC0FDD1FC05B6D
:100EF000DE4F0990D881C02DD46491CFC11540E256
:100F0000D40708F0AAC0C11581E0D80708F087CF40
:100F1000C83ED10508F483CFA7CFC03622E5D2075B
:100F200018F5C03432E5D30708F053C0C03242E5AB
:100F3000D40708F047C0C11582E5D80708F47FC080
:100F40002C2F2695269540E2249F900111248C2F6A
:100F50008370C1E0D0E002C0CC0FDD1F8A95E2F7BC
:100F6000C22BD32BDD685BCFC03A22E5D20760F4F9
:100F7000C03832E5D30708F441C0CF71D0E0DC2F90
:100F8000CC27C46FD06A4BCFC03C42E5D40708F4ED
:100F90004AC0C03E82E5D80708F066CFDC2FCC27D8
:100FA000CC27DF71C06FD06A3ACFC55AD0E0C35B9F
:100FB000DE4FC881D0E0D06432CFD06530CFDF7053
:100FC000D06A2DCFCF71D0E0DC2FCC27C16FD06A93
:100FD00026CF2C2F26952695277080E2289F9001FA
:100FE00011248C2F8370C1E0D0E002C0CC0FDD1F34
:100FF0008A95E2F7C22BD32BDC6811CF2C2F2695D4
:101000002695277040E2249F900111248C2F837035
:10101000C1E0D0E002C0CC0FDD1F8A95E2F7C22B01
:10102000D32BDA68FCCE8C2F8F710E947406C82FE8
:10103000D0E0DC2FCC27CC27DF71D062F0CE8C2F14
:101040008F710E94740635E0D695C7953A95E1F701
:10105000CF709C2FEC01D069E2CE8D2F8F710E9452
:10106000740690E0982F882788279F719C012C2B6D
:10107000E901E3CFC2EED0E0D2CEC0EED0E0CFCED9
:10108000C6EED0E0CCCEC5E3D0E0C9CE80916402FC
:10109000882331F01092640210926302109262026F
:1010A000089580959091F20298239093F20208950A
:1010B00090913D019923D1F09091360397FF16C08E
:1010C000E82FE695E695E695EE31E0F4F0E0E85598
:1010D000FE4F282F277081E090E001C0880F2A95ED
:1010E000EAF780959281892382830895EAEAF1E004
:1010F0009191891303C0DF0111971C9291E0E03BAD
:10110000F907B1F7089590913D019923C1F09091AD
:10111000360397FF14C0E82FE695E695E695EE3185
:10112000F8F4F0E0E855FE4F877021E030E001C0B0
:10113000220F8A95EAF78281822B82830895AAEA98
:10114000B1E0EFEF90E02D91821751F0EF3F19F4ED
:10115000211101C0E92F9F5F9630A9F7EF3F09F4F5
:1011600008950E2E000CFF0BE855FE4FE6CF809140
:10117000410290911002981301C008958F5F87700B
:10118000FACF953080F5803170F540E1949F900161
:101190001124820F932F911D682F677023E096957D
:1011A00087952A95E1F7FC01EE0FFF1FE80FF91F65
:1011B000E451FE4F50E040E080E0219130E0062E07
:1011C00002C0369527950A94E2F721703327042E42
:1011D00001C0220F0A94EAF7822B4F5F5F4F433022
:1011E000510559F7089580E00895953098F58031BC
:1011F00088F540E1949F90011124820F932F911D57
:10120000282F277041E001C0440F2A95EAF723E018
:10121000969587952A95E1F7FC01EE0FFF1FE80FE1
:10122000F91FE451FE4F90E080E070E05191DF0142
:1012300011979B01082E02C0369527950A94E2F774
:10124000217021952527242325272C93019683306F
:10125000910561F70895809365020895662309F466
:101260005DC08D3C41F40E943B06819580939A02BB
:101270000E94F20508958E3C19F40E943B06F6CFB9
:101280008F3C31F40E943B06819580939902F0CF08
:10129000803D19F40E943B06F8CF893D29F40E9455
:1012A000190680939B02E4CF8A3D21F40E9419061F
:1012B0008195F7CF8B3D31F40E941906819580937B
:1012C0009C02D6CF8C3D19F40E941906F8CF9FE2FC
:1012D000980F983070F4815D990B21E030E001C0E7
:1012E000220F8A95EAF780919802822B80939802C8
:1012F000BFCF8D3D31F48091920281608093920244
:10130000B7CF8E3D21F4809192028260F7CF8F3D5E
:1013100009F0AECF809192028460F0CF40919902A3
:101320008D3C59F480919A0287FF0DC010929A0269
:1013300041110BC01092900208C08E3C81F4809144
:101340009A0218169CF3442381F080919B0290919D
:101350009C02892B09F08CCF1092910289CF8F3C8F
:1013600049F447FFF0CF1092990280919A028111BF
:10137000ECCFE0CF803D19F41416ACF3E4CF90919C
:101380009B02893D29F41916F4F610929B02DBCFDB
:101390008A3D19F497FFD7CFF8CF90919C028B3DEF
:1013A00029F497FFD0CF10929C02CDCF8C3D19F439
:1013B0001916CCF3C8CF9FE2980F983090F4815D56
:1013C000990B21E030E0B90102C0660F771F8A95C2
:1013D000E2F7CB018095909198028923809398023F
:1013E000B2CF8D3D31F4809192028E7F8093920234
:1013F000AACF8E3D21F4809192028D7FF7CF8F3D51
:1014000009F0A1CF809192028B7FF0CF982F929517
:101410009F7011F0892F94E0282F2695269511F0C2
:101420009E5F822F869509F09F5F892F08959C010A
:101430003A9521153F4150F5FC01EE27F170BC01B2
:1014400066277270AC01442754709C0122273870C3
:1014500094FF0EC080E1EF2B09F480E0672B09F0C8
:101460008062452B09F08064232B89F08068089501
:1014700081E0EF2B09F480E0672B09F08260452BB7
:1014800009F08460232B19F08860089580E00895A6
:10149000FC019281913029F4858180FF06C083E0B0
:1014A0000895923021F081E0089582E0089584E06B
:1014B00008950F931F93CF93DF938B01EA019091CF
:1014C0002503943061F58093E9008FEF9091E80057
:1014D000815095FD06C095ED9A95F1F700008111B8
:1014E000F5CF8091E80085FF1AC00E94A903811101
:1014F00011C08091E80085FD06C08091E8008E77DC
:101500008093E800F2CFF80181918F018093F10080
:10151000219779F78091E8008E778093E800DF913A
:10152000CF911F910F91089543E050E0BC0184E0FA
:101530000E94590A089546E050E0BC0184E00E94F0
:10154000590A0895CF93DF93EC0180913D018111F9
:1015500011C048E050E0BE0181E00E94590A80E2DB
:10156000FE01A3E0B3E001900D928A95E1F7DF91CF
:10157000CF9108958091360387FF05C040E284E053
:1015800050E0BE01EACF48E081E0FACF81E08093ED
:10159000E00080E28093D8001092C9008FE19EE4C1
:1015A0000197F1F700C0000087E090EBDC01809329
:1015B000380390933903A0933A03B0933B0388E137
:1015C0009CE00FB6F894A895809360000FBE9093AE
:1015D0006000FFCF8091D90280FD0AC0EDE9F2E002
:1015E000118210821282339652E0E93DF507C1F76D
:1015F0006A9A3EB13B7F2EB124604FB7F8948DE9D3
:1016000092E0FC015191CF0168E02EB9000000C0CA
:1016100057FF3EB9550F000000C000C000C03EB9E2
:1016200000C06A9591F7F2E0893D9F0751F74FBFDF
:101630008FE594E00197F1F700C0000008959091C4
:10164000D90290FF0CC0EDE9F2E081836083428310
:10165000339692E0E93DF907C1F70E94EA0A08953E
:10166000CF93C82F4AE468E281FD02C040E060E009
:1016700080E00E941F0BC1FD03C08F9ACF91089597
:101680008F98FCCFCF93C82F0E94060A823061F05A
:10169000833071F0813081F441E16CEC8AEA0E9480
:1016A0001F0B8C2FCF91089540E069E98FEFF7CFA2
:1016B00047E760E08EEEF3CF40E060E080E0EFCF00
:1016C0000E94420B80933203089580913203982F39
:1016D0009670963021F488600E94600B0895877F91
:1016E000FBCF21E030E001C0220F8A95EAF7209578
:1016F0008091320382230E94600B089590913503FC
:101700008095892380933503282F2770B1F4282FE3
:10171000082E000C330B9217130679F090913703C3
:1017200092FF0BC08595859585950E94710B10924F
:101730003503109234031092330308958091090108
:10174000833011F40E94710B08958091070183305A
:1017500019F482E00E94710B089580910501833095
:1017600019F481E00E94710B10920501089521E0A7
:1017700030E001C0220F8A95EAF780913203822B74
:101780000E94600B08959091370392FF10C098E07B
:10179000899F900111242360209335030E94B70B89
:1017A0000E940205909334038093330308950E94AE
:1017B000B70B08950E94480A809309018330A9F06D
:1017C000843049F08230A1F483E00E94C30B81E0B1
:1017D0000E947E0B089580913203882331F083FFAD
:1017E00004C083E00E94710B089583E00E94B70B50
:1017F00008950E94480A809307018330A1F0843045
:1018000041F0823099F40E94C30B81E00E947E0B6C
:10181000089580913203882331F082FF04C082E072
:101820000E94710B089582E00E94B70B0895CF9338
:10183000DF93C6EAD2E060E0CE010E94AF2A219693
:10184000C11584E0D807B9F7DF91CF9108951F93B0
:10185000CF93DF93122F8430E0F46530D0F4403121
:10186000C0F490E2699FE001112450E0440F551F3D
:10187000C40FD51F90EA899FC00DD11D1124632F7D
:10188000CE0186960E94AF2A612FCE0187960E94D4
:10189000AF2ADF91CF911F910895AF92BF92CF925F
:1018A000DF92EF92FF921F93CF93DF9384E7C82ECE
:1018B00083E0D82ED0E07601C0E014C0F501259178
:1018C0003491412F6C2F8D2F0E94270C82E0A80E9F
:1018D000B11C1F5F103191F780E2E80EF11CCF5F61
:1018E000C53019F0570110E0E9CFDF5F80EAC80E7C
:1018F000D11CD43001F7DF91CF911F91FF90EF9071
:10190000DF90CF90BF90AF900895CF93C82F6FEF27
:10191000811162E282E290E00E94AF2A6FEFC11172
:1019200062E183E290E00E94AF2A6FEFC11167E1AC
:1019300084E290E00E94AF2ACF91089580E00E9457
:10194000850C60E085E290E00E94AF2A0E944D0C79
:101950000E94170C81E00E94850C08950F931F933D
:10196000CF93DF93843030F5653020F5403110F5AA
:1019700020E2629F8001112450E0440F551F040FA4
:10198000151F30EA839F000D111D1124C801869692
:101990000E949B2AC82FD0E0DC2FCC27C801879655
:1019A0000E949B2A9E01282BC901DF91CF911F9194
:1019B0000F91089590E080E0F8CF462F753040F405
:1019C000603130F4843020F4672F0E94AE0C08950B
:1019D00090E080E00895CF92DF92FF920F931F93E3
:1019E000CF93DF936C010091320380916502082B45
:1019F000C7E0D0E010E0FC2EC8010C2E02C0959587
:101A000087950A94E2F780FD0CC02197A0F7F12C8E
:101A10008F2DDF91CF911F910F91FF90DF90CF908D
:101A20000895B6018C2F0E94DD0C0E94B706019725
:101A300061F3EECFCF93DF93EC010E94EB0CBE017C
:101A40000E94DD0C0E94B706DF91CF910895FC0142
:101A500083819481892B29F08081918189238F3F13
:101A600051F480E00895843FE1F717C0883EA8F064
:101A7000813FB9F712C0808191810E941A0D929521
:101A80009F70963099F358F4925F9F70923048F7A8
:101A9000803F19F040F7883E20F781E008959A5F73
:101AA000F4CFA5E0B0E0E7E5FDE00C94512A4983CE
:101AB0005A8389819A81662399F0222389F00E94B2
:101AC000EB0C182F682F89819A810E94F508698193
:101AD0007A81812F0E94DD0C2596E3E00C946D2A1B
:101AE0000E94C108182FF3CF82E290E00E949B2A47
:101AF000823289F483E290E00E949B2A823159F479
:101B000084E290E00E949B2A91E0873109F090E006
:101B1000892F8170089580E0FCCFCF92DF92EF9201
:101B2000FF926B017C010E94DC05B701A60188E0F1
:101B300090E00E94C12AFF90EF90DF90CF9008952F
:101B4000B0E0A0E0E6EAFDE00C94482AF82EC62FAB
:101B5000D42FE22E8091D90280FF24C08E7F823064
:101B600079F4E42F493C08F0E8ECF0E0EC58FD4F44
:101B7000C1111DC06491462FE62F8E2F0E941F0BAE
:101B8000F092DA02C093DB02D093DC02EE2051F037
:101B90006091D9027091DA028091DB029091DC02AF
:101BA0000E948D0DCDB7DEB7ECE00C94642ACC2EEC
:101BB000D12CE491FE2FAE2EB12C06E0F09EC00198
:101BC00011242FEF30E0B9010E940D2ACB014F2DD7
:101BD00050E0440F551FA5E5A89FB001A99F700DC7
:101BE0001124461B570B942E990C940EA9014C19E5
:101BF0005D094A9DD0014B9DB00D5A9DB00D112439
:101C00004B2FC99DB0011124672F77278901061B2F
:101C1000170BB8016A9D80016B9D100D7A9D100D08
:101C20001124B901691971094B018C9CB0018D9C7B
:101C3000700D9C9C700D1124672F7727261B370B86
:101C40002A9D60012B9DD00C3A9DD00C11246D2D46
:101C50008230910589F040F4009709F48ECF019706
:101C600079F06B2F412F89CF8430910561F078F0A6
:101C7000069709F482CFF5CF6E2FEB2F4D2D7DCF38
:101C80006E2FE12F7ACF6B2F4E2FED2D76CFEB2FCE
:101C90004F2F612F72CFE9EDF2E0438128E0421B24
:101CA00008F440E021E0628181810E94A00D089546
:101CB000E9EDF2E0438128E0420F08F44FEF21E024
:101CC000628181810E94A00D0895E9EDF2E06281B8
:101CD00028E0621B08F460E021E0438181810E94DA
:101CE000A00D0895E9EDF2E0628128E0620F08F4AA
:101CF0006FEF21E0438181810E94A00D0895E9EDFD
:101D0000F2E0818121E04381628188500E94A00D30
:101D10000895E9EDF2E0818121E043816281885FED
:101D20000E94A00D08958091DD02882319F0815052
:101D30008093DD026091D9027091DA028091DB021A
:101D40009091DC020E948D0D08958091DD02833018
:101D500018F48F5F8093DD026091D9027091DA02EE
:101D60008091DB029091DC020E948D0D089580919C
:101D7000D90280FF19C0817082608093D9026623E6
:101D800051F06091D9027091DA028091DB0290915A
:101D9000DC020E948D0D20E04091DC026091DB02AC
:101DA0008091DA020E94A00D0895E9EDF2E08081B1
:101DB0008160808360E086950E94B70E08958091CF
:101DC000D9028695815009F481E061E00E94B70E46
:101DD000089561E081E00E94B70E0895E9EDF2E018
:101DE00083E0808311821282138214826081718168
:101DF000828193810E948D0D0895CF938091F2028C
:101E00009091F102892B8093A8018091640288232C
:101E100039F10E9402052091620230916302821B17
:101E2000930B8C3D954010F00E9446088091A801CC
:101E300090916402892B8093A80180913D018823B1
:101E400009F447C08091360387FF43C08EE1EAEA78
:101E5000F1E090E0815008F03EC091110E944608E8
:101E6000C091EA02C0958091A801C8238091EB023D
:101E7000C82BC093A80140E250E062E472E088EA17
:101E800091E00E94E32A892B11F180E2E8EAF1E077
:101E9000A2E4B2E001900D928A95E1F7E091F70299
:101EA000F091F802309799F080913D01882349F034
:101EB0008091360387FF05C0C093A90186E0809317
:101EC000A8010280F381E02D88EA91E00995CF9185
:101ED000089586E0BCCF2191222309F4BBCF9F5FF8
:101EE000B9CFCF93DF93EC01EA85FB85309719F0EA
:101EF0006C857D8509958B81982F90958091F10255
:101F000089238093F1028C810E9451080E94FD0E6A
:101F100086E0FE0111928A95E9F7DF91CF9108954D
:101F2000CF93DF93EC018D8181FD18C082608D839A
:101F30008091F1029B81892B8093F1028091F202C2
:101F40009C81892B8093F2020E94FD0EE885F98521
:101F5000309721F06C857D85CE0109951092F402B1
:101F60001092F3028D8180FD03C0CE010E94710F9B
:101F7000DF91CF910895882339F09091F102982B49
:101F80009093F1020E94FD0E0895882321F00E9493
:101F900051080E94FD0E0895882339F09091F202B5
:101FA000982B9093F2020E94FD0E0895882309F465
:101FB00056C0823879F40E94580581FF50C089E3E9
:101FC0000E9483080E94FD0E89E30E9458080E9427
:101FD000FD0E0895833859F40E94580580FF3FC0D4
:101FE00083E50E9483080E94FD0E83E5EECF8438CE
:101FF00059F40E94580582FF32C087E40E9483088A
:102000000E94FD0E87E4E1CF9CEF980F913AE8F231
:1020100090E2980F983050F4877091E001C0990FCA
:102020008A95EAF7892F0E945108D1CF9BE5980F36
:10203000933028F490E080E00E943305089598E5FD
:10204000980F993128F490E080E00E940E050895E1
:1020500093E3980F933118F460E00E942E090895DD
:10206000FF920F931F93CF93DF93F82E0091EF020F
:102070001091F0020115110509F449C01092EE0209
:102080001092ED021092EA021092EB02D80116961D
:10209000CD91DC919E013A9521153F4108F4D07E07
:1020A000D1E0C11101C0D0E0D8011996ED91FC91A9
:1020B0001A97309731F01B966D917C9180E00995CD
:1020C000D823DD2339F08CEF8C0F813A30F58C2F3B
:1020D0000E945808FF2099F0E091EF02F091F00281
:1020E000808584FD0CC08091EC02882341F08081C2
:1020F00091819C01215031092F3F3D47A0F00E9462
:10210000FD0E1092F0021092EF021092EC02C80144
:10211000CDB7DEB7E5E00C946B2A0E94FD0E8C2F44
:102120000E94D60FD7CF0E946505E9CFCF93C82F65
:102130008823C9F08238C9F40E94580581FD13C074
:1021400089E30E9483080E94FD0E2FEF87EE93E043
:10215000215080409040E1F700C0000089E30E94D8
:1021600058080E94FD0ECF9108958338A1F40E9473
:10217000580580FDF8CF83E50E9483080E94FD0E7C
:102180002FEF81EE94E0215080409040E1F700C0B5
:10219000000083E5E4CF8438A1F40E94580582FD55
:1021A000E2CF87E40E9483080E94FD0E2FEF81EEAC
:1021B00094E0215080409040E1F700C0000087E4A7
:1021C000CECF8CEF8C0F813A88F580913D0188232A
:1021D00001F18091360387FF1CC0EC2FE695E69550
:1021E000E695F0E0E855FE4F828190E04C2F477075
:1021F00021E030E002C0220F331F4A95E2F782232C
:102200009323892B79F08C2F0E9458080E94FD0E91
:1022100009C0EAEAF1E08191C817A9F321E0E03BA7
:10222000F207C9F78C2F0E9483089BCF80E28C0FA6
:10223000883068F4C77021E030E001C0220FCA95F1
:10224000EAF78091F202822B8093F2028ACFEBE5CB
:10225000EC0FE33040F4F0E0E35BFE4F808190E070
:102260000E94330580CFE8E5EC0FE93150F4F0E04F
:10227000EE0FFF1FE05BFE4F808191810E940E05F3
:1022800072CF83E38C0F833108F06DCF61E08C2F28
:102290000E942E0968CF1F93CF93DF93182FD0E0B1
:1022A000C0E0893311F4C0E5D0E0812F0E94961080
:1022B000209739F4812F0E94D60FDF91CF911F9183
:1022C00008958FE99FE00197F1F700C00000219782
:1022D000EFCF0F931F93CF93DF93C62FD42F022FEF
:1022E000FC0182818823A9F0609331030E940205DA
:1022F0009093300380932F03C77081E001C0880F53
:10230000CA95EAF70E94CC0FDF91CF911F910F91F0
:10231000089580913103681332C080912F0390910A
:1023200030030E94E704883C910548F510E21D0F38
:10233000CD17B9F080E28C0F883040F4C77081E08F
:1023400001C0880FCA95EAF70E94C50F183048F4FB
:1023500081E09D2F977001C0880F9A95EAF70E943F
:10236000CC0F802F0E944B11183070F6D77081E08F
:1023700001C0880FDA95EAF70E94C50FC5CFC77074
:1023800081E001C0880FCA95EAF7F6CF0E94480A9B
:1023900080930501833091F0843031F0823089F4EC
:1023A00089E30E944B11089580913203882331F014
:1023B00081FF04C081E00E94710B089581E00E94BA
:1023C000B70B08959091370392FB222720F9281725
:1023D00079F080FB92F99093370360913603709106
:1023E000370384E090E00E94CD2A82E00E947E0BB9
:1023F000089567EE7EEF90E080E00E94CD2A60E0D5
:1024000082E090E00E94AF2A60E083E090E00E94CA
:10241000AF2A1092650260E074E184E090E00E94CF
:10242000CD2A60E086E090E00E94AF2A6FEF87E05F
:1024300090E00E94AF2A40E050E0BA0188E090E0CE
:102440000E94C12A60E08DE090E00E94AF2A40E047
:1024500050E0BA0188E190E00E94C12A60E087E183
:1024600090E00E94AF2A40E050E0BA018CE190E099
:102470000E94C12A70E060E080E290E00E94CD2AD4
:1024800040E050E0BA0188E190E00E94C12A80E07B
:102490000E94850C0E949E0C40E050E0BA018FE043
:1024A00090E00E94C12A40E050E0BA0183E190E050
:1024B0000E94C12A089590E080E00E94A92A873EE8
:1024C0009E4F19F40E94740D089580E008951092B3
:1024D000F20280913D01EAEAF1E0882329F180913E
:1024E000360387FF21C08EE1DF011D928A95E9F74F
:1024F00090E080E00E94330590E080E00E940E05AD
:102500001092F1020E94FD0E86E0E7E9F2E0DF01A1
:102510001D928A95E9F71092900210929102109202
:1025200092020E94F205089586E0DECFAAE2B0E0B2
:10253000ECE9F2E10C94512A87E293E02091F1005A
:10254000DC012D93CD01B3E08F329B07B9F7809169
:102550002803833009F472C0B8F4813009F449C00B
:10256000823009F4B3C08091E80083FF8BC2809170
:102570002703909128039A3008F084C2E92FF0E0F5
:10258000EE50F54D0C94352A8A3009F48EC08B300C
:1025900009F471C0893039F780912703813219F726
:1025A00080912B0390912C03009711F00297D9F69C
:1025B0008091E800877F8093E8008091E80082FFA7
:1025C00038C09091F3008091F200029731F480912D
:1025D000F100813011F0863021F48091F100809378
:1025E00002038091E8008B778093E8000E94DA0371
:1025F000BACF80912703813A09F0B5CF8091E800E6
:10260000877F8093E80080912B0390912C03892B86
:1026100061F460E283E093E070E00E9486048091C0
:10262000E8008B778093E8009ECF60E090E080E048
:10263000F3CF809125038111C0CF95CF80912703DF
:10264000813A09F090CF80912B0390912C03892B34
:1026500009F089CF8091E800877F8093E80080911E
:10266000E80080FFFCCF80913D018093F1008091D4
:10267000E8008E77B9CF80912703813209F073CFBC
:1026800080912B0390912C03892B09F06CCF8091C2
:10269000E800877F8093E8000E94DA038091290395
:1026A00080933D010E9467125ECF809127038132A3
:1026B00009F059CF8091E800877F8093E8000E945D
:1026C000DA0380912A03809301034DCF8091270381
:1026D000813A09F048CF8091E800877F8093E80035
:1026E0008091E80080FFFCCF80910103BECF80384D
:1026F00099F0823809F0C6C180912B038F70873022
:1027000008F0C0C18093E9008091EB0085FB882729
:1027100080F91092E90006C0809123039091240370
:10272000911182609091E800977F9093E8008093E8
:10273000F1001092F1008091E8008E779FC188230C
:1027400009F48DC1823009F09DC180912903811166
:1027500090C180912B038F702FEF280F263008F047
:1027600091C18093E9002091EB0020FF82C193305A
:1027700031F48091EB0080628093EB007AC19091FC
:10278000EB0090619093EB0021E030E001C0220F5C
:102790008A95EAF72093EA001092EA008091EB0014
:1027A0008860EACF81116EC1109129031F77809153
:1027B000E3008078812B8093E3008091E800877F9D
:1027C0008093E8000E94DA038091E80080FFFCCF4C
:1027D0008091E30080688093E30082E0111183E040
:1027E000809325034FC18058823008F04BC120915F
:1027F000290330912A032C3DE3E03E07A1F583E055
:102800008A838AE289834FB7F894DE01139620E029
:102810003EE051E2E32FF0E050935700E49120FFB7
:1028200003C0E295EF703F5FEF708E2F90E0EA30CB
:10283000C0F0C7968D939D932F5F243159F74FBFFA
:102840008091E800877F8093E8006AE270E0CE0123
:1028500001960E9486048091E8008B778093E800BF
:1028600011C1C096E7CF80912B0390912C03432F89
:1028700055274330510509F44AC078F541305105D8
:1028800009F47AC08BE590E0E4EFF5E042305105C1
:1028900009F0F8C02091E800277F2093E8002091FC
:1028A0002D0330912E038217930708F49C0140E01A
:1028B0002115310509F065C0411163C08091E80020
:1028C00082FDC9CF80912503882329F2853019F232
:1028D0008091E80083FFF2CFBECF4132510509F469
:1028E0003CC04232510509F0CDC08330910508F05B
:1028F000C9C0FC01EE0FFF1FE656FE4F0190F081AC
:10290000E02D89569E4FDC018C9190E01AC0332750
:1029100021303105D1F02115310561F0223031052A
:1029200009F0B0C0E1E6F6E0E4918E2F90E0E1E638
:10293000F6E007C0EBE9F6E0E4918E2F90E0EBE9DA
:10294000F6E0009709F49EC0A5CFEFE7F6E0E4912A
:102950008E2F90E0EFE7F6E0F4CF8330910508F09A
:1029600091C0880F991FFC01E056FE4F0190F08145
:10297000E02D89E090E08ECF82E190E0EFE4F6E098
:1029800089CF80912503882309F465CF853009F428
:1029900062CF8091E80083FD5ECF8091E80082FDE8
:1029A0008DCF8091E80080FF83CF9091F3008091DC
:1029B000F2002115310519F08830910550F041E001
:1029C000089709F040E08091E8008E778093E80056
:1029D0006FCF44914093F100319621503109019617
:1029E000E8CF803809F04EC08091E800877F80935F
:1029F000E800809126038093F1009DCE811142C0B2
:102A0000109129031230F0F58091E800877F8093C0
:102A1000E800109326030E94DA03112311F084E0EA
:102A200005C08091E30087FDFACF81E08093250304
:102A300042E061EC81E00E94F90342E261EC84E053
:102A40000E94F90342E261EC82E00E94F90342E253
:102A500060EC83E00E94F9038091250313C080910C
:102A60002903813079F481E0933009F080E080938C
:102A700024031092E9008091E800877F8093E800AA
:102A80000E94DA038091E80083FF0AC08091E80089
:102A9000877F8093E8008091EB0080628093EB0059
:102AA000AA96E3E00C946D2A0E9467122FEF84E34C
:102AB0009CE0215080409040E1F700C0000088E198
:102AC0009CE00FB6F894A895809360000FBE909399
:102AD0006000FFCFADE0B0E0E0E7F5E10C94422A02
:102AE0003C01DC0113968D919C911497892B51F038
:102AF0004C9111965C911197842F85238F3F11F093
:102B00000C94511F2D96E2E10C945E2A8091E8010D
:102B100091E089278093E80180913503877091F3D4
:102B2000D30112968C91882369F38091370382FF39
:102B3000E9CF82E00E947E0BE5CF8091E8018823F7
:102B400009F44AC11092E80130EC4316510408F030
:102B50009BC080E84816510408F008C190E449166B
:102B6000510408F0CDC021E030E040E050E060E0EA
:102B700070E080E090E0042D0E94792AE091C80185
:102B80002E2BE091C9013E2BE091CA014E2BE09122
:102B9000CB015E2BE091CC016E2BE091CD017E2B21
:102BA000E091CE018E2BE091CF019E2B2093C801A6
:102BB0003093C9014093CA015093CB016093CC017B
:102BC0007093CD018093CE019093CF01C2018250CA
:102BD0009747409710F00C94291F8FEF93E00E94C5
:102BE0009B2A811199CF4A944A9466EAC62E62E0E4
:102BF000D62E411080C3FE01339686E0DF011D9280
:102C00008A95E9F75AE0552E86010F5F1F4FC601DE
:102C10000E949B2A89831A82882309F47DCF813000
:102C200009F0A0C37601B2E0EB0EF11CC8010E94CE
:102C30009B2A8A83882309F46FCF9FEF980F9330E4
:102C400008F068C3E3E0CE0ED11CC7010E949B2AA6
:102C50008B83882309F460CF1C828E010F5F1F4F86
:102C6000D8012C91222381F2213009F0B5C31196AD
:102C70009C91119712968C91913009F075C30E5F5B
:102C80001F4F0E944B1176C3AFEF4A16510411F04B
:102C900008F069CF21E030E040E050E060E070E013
:102CA00080E090E08201005C11090E94792AE091A5
:102CB000E0012E2BE091E1013E2BE091E2014E2B51
:102CC000E091E3015E2BE091E4016E2BE091E501E0
:102CD0007E2BE091E6018E2BE091E7019E2B209365
:102CE000E0013093E1014093E2015093E3016093EE
:102CF000E4017093E5018093E6019093E70166CFCC
:102D000021E030E040E050E060E070E080E090E002
:102D10008201005411090E94792AE091D0012E2BE2
:102D2000E091D1013E2BE091D2014E2BE091D301F5
:102D30005E2BE091D4016E2BE091D5017E2BE091CA
:102D4000D6018E2BE091D7019E2B2093D00130939A
:102D5000D1014093D2015093D3016093D401709379
:102D6000D5018093D6019093D70130CF21E030E098
:102D700040E050E060E070E080E090E082010058C8
:102D800011090E94792AE091D8012E2BE091D901F6
:102D90003E2BE091DA014E2BE091DB015E2BE091BE
:102DA000DC016E2BE091DD017E2BE091DE018E2BAC
:102DB000E091DF019E2B2093D8013093D9014093FD
:102DC000DA015093DB016093DC017093DD018093A5
:102DD000DE019093DF01FACEB0E44B16510408F007
:102DE00071C0F091C801A091C901B091CA01E091F0
:102DF000CB01E9878090CC01E091CD01EB87E09198
:102E0000CE01ED87E091CF0121E030E040E050E0DD
:102E100060E070E080E090E0042D0E94792AA22E0C
:102E2000AF22B32EBA22C42ECB22D984D522E62ECD
:102E3000E820FB84F7220D850823192F1E230E940A
:102E4000922A11F00C94AD1F20EC4216510408F0A8
:102E50009EC030E84316510408F001C180E44816D2
:102E6000510408F0CBC021E030E040E050E060E0E9
:102E700070E080E090E0042D0E94792A2095309542
:102E80004095509560957095809590952F233A23A5
:102E90004B23A9855A236821BB857B23FD858F237E
:102EA0009E232093C8013093C9014093CA015093D7
:102EB000CB016093CC017093CD018093CE019093B0
:102EC000CF012ACEF0E84F165104F8F4F091D0016A
:102ED000A091D101B091D201E091D301E987809016
:102EE000D401E091D501EB87E091D601ED87E09127
:102EF000D70121E030E040E050E060E070E080E0A9
:102F000090E082010054110988CFF0EC4F16510473
:102F1000F8F4F091D801A091D901B091DA01E091D3
:102F2000DB01E9878090DC01E091DD01EB87E09136
:102F3000DE01ED87E091DF0121E030E040E050E08C
:102F400060E070E080E090E082010058110965CFF8
:102F5000F091E001A091E101B091E201E091E30183
:102F6000E9878090E401E091E501EB87E091E601DB
:102F7000ED87E091E70121E030E040E050E060E0E3
:102F800070E080E090E08201005C110946CF9FEF85
:102F90004916510411F008F066CF8201005C110956
:102FA00021E030E040E050E060E070E080E090E060
:102FB0000E94792A2095309540955095609570959E
:102FC000809590952F233A234B23A9855A23682176
:102FD000BB857B23FD858F239E232093E0013093C7
:102FE000E1014093E2015093E3016093E4017093A7
:102FF000E5018093E6019093E7018ECD82010054B4
:10300000110921E030E040E050E060E070E080E055
:1030100090E00E94792A20953095409550956095D2
:103020007095809590952F233A234B23A9855A2399
:103030006821BB857B23FD858F239E232093D001B0
:103040003093D1014093D2015093D3016093D401C6
:103050007093D5018093D6019093D7015DCD820105
:103060000058110921E030E040E050E060E070E0FD
:1030700080E090E00E94792A209530954095509507
:1030800060957095809590952F233A234B23A985C1
:103090005A236821BB857B23FD858F239E232093A4
:1030A000D8013093D9014093DA015093DB0160934A
:1030B000DC017093DD018093DE019093DF012CCD64
:1030C0002FEF4216510409F068F530E4431651041D
:1030D00008F0CDC0A090C801B090C901C090CA014D
:1030E000D090CB01E090CC01F090CD01F091CE01D9
:1030F0001091CF0121E030E040E050E060E070E06E
:1031000080E090E0042D0E94792AA222B322C422FA
:10311000D522E622F722082F0F2319230E94922A94
:1031200009F4FACC211427E7320609F4B0C131E0E2
:10313000231637E7330609F4B2C1210180910A0151
:10314000882309F4EFC5620180EEC81AD1083090D7
:1031500064028091F202382A98E0C916D10408F07E
:10316000A7C192012770332781E090E001C0880F4A
:103170002A95EAF7992009F498C1382AD3018D914C
:103180009C910E94C10821E030E0590102C0AA0CC4
:10319000BB1C8A95E2F7E091EF02F091F002FA870A
:1031A000E9872091E9013091EA013C872B87212CA6
:1031B000E22DF0E0EE0FFF1FE050FF4F0081118184
:1031C0000115110509F411C6311005C0D801129678
:1031D0008C918111A7C1F801838190E08A219B2104
:1031E000892B09F49FC18085982F977009F487E097
:1031F000F8E0CF16D10408F075C1992009F46EC12A
:1032000086958170882309F48DC1D801ED90FC90DA
:10321000E414F50419F4992009F484C1E985FA85C8
:103220000E171F0709F47EC1D8011D96ED91FC9180
:10323000309721F08081882309F474C1632DC8017F
:103240000E94B605882309F46DC1E414F50409F061
:10325000A6C6E114F10409F4A7C69110A7C6EB8530
:10326000FC85EE16FF0609F05DC1912C9FC680E833
:1032700048165104A0F4A090D001B090D101C090A4
:10328000D201D090D301E090D401F090D501F0911B
:10329000D6011091D70190E4491A51082BCFA0EC28
:1032A0004A165104A0F4A090D801B090D901C09062
:1032B000DA01D090DB01E090DC01F090DD01F091CB
:1032C000DE011091DF01B0E84B1A510813CFA09036
:1032D000E001B090E101C090E201D090E301E09004
:1032E000E401F090E501F091E6011091E701E0ECD6
:1032F0004E1A5108FFCEC114F4E0DF0609F40CCCDD
:10330000C6010E949B2A811101C04A942FEFC21A64
:10331000D20A6FCC6701843009F09FCC02E010E044
:103320006701FFEFCF1ADF0AC7010E949B2AE1E085
:10333000F0E0EC0FFD1FE00FF11F8083882309F4FC
:10334000EBCB8C3741F4E2E0F0E0EC0FFD1FE00F37
:10335000F11F108282CC0F5F1F4F760107301105DD
:10336000F9F6DACB680179CC923039F40E5F1F4F51
:103370000E9496100F5F1F4F73CC933029F40E5F9D
:103380001F4F0E94D60FF6CF943019F00F5F1F4FDA
:10339000F1CF0E5F1F4F30E020E0B8016F5F7F4F2D
:1033A000F80141818053990B8A30910550F02150EA
:1033B000310900F38FE99FE00197F1F700C00000A9
:1033C000F6CF529EF001539EF00D11249C012E0F5A
:1033D0003F1F842F8B01E1CFE22FF0E0EC50FE4F36
:1033E0004490822F86958695869590E0FC01EC515D
:1033F000FE4FA4902770B12C022E02C0B594A79462
:103400000A94E2F7A1E0AA22BB24FC01EC52FE4F91
:103410008490912C022E02C0959487940A94E2F72E
:10342000B1E08B229924FC01EC53FE4FE490F12C87
:1034300002C0F594E7942A95E2F7E1E0EE22FF243A
:10344000A114B10419F081EE0E9496108114910428
:1034500019F086EE0E949610842D0E944B11811463
:10346000910419F086EE0E94D60FA114B10419F050
:1034700081EE0E94D60FE114F10409F47BCF8CE2B7
:1034800000CC81E00E94B70B0E94650B45CB81E028
:103490000E94710BF9CF992011F082E0F3CF82E006
:1034A000F7CF81E080930A0137CB8095382266CE32
:1034B000992009F483C45092EA014092E9010E94E4
:1034C000F6046093E6027093E7028093E80290931B
:1034D000E9021092EE021092ED0250CE82FB882794
:1034E00080F990CE9920F1F081708CCE0E94D60F99
:1034F0007CC50497813A910548F48E2D0E9483087B
:10350000992009F40FC40E94FD0E06CB0E94FD0E07
:103510008FE39CE90197F1F700C000008E2D0E9417
:103520009610EECF239444CEFC01208131812415E6
:10353000350509F0F0C39110F0C31092EC0280E061
:103540000E943010EFC3942D852D33C4F80185817E
:1035500081FF5FC4C8010E94710F5BC426E241EE87
:1035600061EEC3010E946911D7CA27E245EE65EEFC
:10357000F8CF26E241EE60EEF4CF27E245EE64EEAE
:10358000F0CF26E241EE62EEECCF27E245EE66EEAA
:10359000E8CF28E241E0EBCF809136038160809351
:1035A000360395C0809137038860809337038FC0BE
:1035B000809136038260F3CF809136038460EFCF31
:1035C000809136038860EBCF809137038160EDCF27
:1035D000809137038260E9CF809136038061DFCF2D
:1035E000809136038062DBCF809136038064D7CF31
:1035F0000E946712809136038068D1CF8091360394
:103600008C60CDCF809137038360CFCF809136031C
:103610008E7FC5CF80913703877FC7CF80913603D8
:103620008D7FBDCF809136038B7FB9CF80913603DC
:10363000877FB5CF809137038E7FB7CF80913703D7
:103640008D7FB3CF809136038F7EA9CF80913603D3
:103650008F7DA5CF809136038F7BA1CF0E9467120B
:10366000809136038F779BCF80913603837F97CFEE
:10367000809137038C7F99CF8091360382FB992705
:1036800090F921E0922790FB82F990FB83F987CF94
:1036900080913703982F909591708E7F892B90FBA6
:1036A00081F983CF90913603892F8F7B96FF8064B9
:1036B00076CF0E94671290913603892F97FB87F986
:1036C00080586DCF61E08EE090E00E94AF2A60915B
:1036D00036037091370384E090E00E94CD2A0E9467
:1036E00067121ACA60E0EFCF90913603892F8F7E60
:1036F00094FF806154CF90913603892F8E7F90FF85
:1037000081604DCF90913703892F877F93FF886029
:103710004CCFB6E14B16BCE75B0609F077C0809151
:10372000F202982F947499F4982F9A7A817109F083
:1037300090E0222371F081E0911101C080E080933C
:10374000EB0189E2911185E30E948308DCCE90E0D1
:10375000EDCF8091EB01811104C089E20E945808ED
:10376000D2CE85E3FBCF8091D90280FF10C08E7F3F
:103770008093D9026091D9027091DA028091DB02C4
:103780009091DC020E948D0D0E94EA0AC5C98160F9
:103790008093D90261E086950E94B70EBDC94FEDB6
:1037A0005EE069EE7EE00E94D605B6C949EE5EE0B5
:1037B0006FED7EE0F8CF4FE75EE069E87EE0F3CFA3
:1037C00049E85EE06FE77EE0EECF45E65EE062E767
:1037D0007EE0E9CF42E75EE065E67EE0E4CF4BE4E1
:1037E0005EE068E57EE0DFCF48E55EE06BE47EE02A
:1037F000DACF43E95EE065EA7EE0D5CF45EA5EE0F8
:1038000063E97EE0D0CF61E081E0C6CFE3E04E1611
:10381000ECE75E0609F477C008F056C041142CE7C7
:10382000520609F463C031E043163CE7530609F43D
:1038300070C0F301828100811181882309F477C06F
:10384000C8010E94EB0CF82E682FC8010E94F508F1
:10385000B8018F2D0E94DD0C0E94B7068C01A82EA6
:10386000D3011296FC9012971596DC90D2943FE00B
:10387000D322809135038770C1F0CF2CFF20B1F0A7
:10388000812F807F803421F080E2800F883068F0C3
:103890008091370382FF09C082E00E947E0B8091F5
:1038A00035038770CC24C3948111C12CB12EB294FE
:1038B0002FE0B222BBE0BB1508F4A5C0EB2DF0E071
:1038C000E450F54D0C94352A8BE548168CE75806E4
:1038D00061F19CE549169CE75906E9F0AAE54A160C
:1038E000ACE75A0609F0A5CF81E01CC00E94671220
:1038F000BFEFE4E3FCE0B150E040F040E1F700C08E
:1039000000000E94C60A6FEF7FEF90E080E00E9407
:10391000CD2A0E9454158091370382FB882780F9B5
:1039200091E089270E94E21184CF80E0FBCFC8019B
:103930000E94C108F82E8CCFE12FEF70EE2E107F81
:1039400019F0E29490EFE922FF20B9F0EE2069F03F
:1039500080E2800F883010F0A11009C08091F2023F
:10396000E82AE092F2020E94FD0E802F4AC0809168
:10397000F102E82AE092F102F6CF802F0E94D60FE2
:10398000EE2009F440C0005E083010F0A11004C021
:103990008E2D0E94510806C0E0948091F102E82229
:1039A000E092F1020E94FD0E2EC0F12FFF70EF2E6B
:1039B000107F103219F0E29480EFE822AA2089F0FB
:1039C00021E0A21609F47EC0FF2009F487C0DD20A3
:1039D00009F451C0F301858180FFC7CF8F708583C3
:1039E0004AC09091370392FD3FC0FF20B9F1EE200D
:1039F00039F08091F202E82AE092F2020E94FD0E74
:103A000080E00E949610EB2DE850FF0B349720F4D5
:103A10000E9458050E94300BCC20B1F080913503F4
:103A200080FD12C0D30112961C92859585958595CF
:103A30000E94B70BC3010E946A15809135038595DA
:103A4000859585950E94710B20E0F301408151819D
:103A50006281738184810E94510D54C880E00E946C
:103A6000D60FEE2081F294CFFF20D1F08091640236
:103A7000E82AD11004C08E2D0E94CC0FC4CF31E0B3
:103A8000D312F9CF92FFBFCF8E1509F4BCCF0E949D
:103A900002059093630280936202E0926402B3CFC6
:103AA000D11006C00E9446088E2D0E94C50FABCFD4
:103AB00081E0D81609F4A7CF8E2D0E94C50F0E9471
:103AC0004608A1CFFF2029F092E09D1508F49BCF76
:103AD000D2CFA1E0AD1508F496CFE6CFDD2021F3DB
:103AE000F9E3AF1209C02FEF37EE83E021503040E9
:103AF0008040E1F700C00000802F0E94D60F83CFE6
:103B0000812F86958695837061F0813009F07BCF97
:103B1000C8019370F11002C080E090E00E940E0591
:103B200072CFC8019370F11002C080E090E00E9453
:103B3000330569CF6F2D802F0E942E0964CF812F0E
:103B4000837089F5F1105FCF402F429546954770FD
:103B5000440F440F802F8F70042E01C0880F0A94E9
:103B6000EAF7202F207104FF07C02FE030E001C0EA
:103B7000220F4A95EAF72095169516951370123084
:103B800069F050F430916502113029F0822B8323C3
:103B90000E942B0938CF832B822BFACF282B8091C0
:103BA00065028227F5CF8695FF2011F0812F817065
:103BB000882309F428CF402F429546954770440F3B
:103BC000440F802F8F70042E01C0880F0A94EAF7EB
:103BD000202F207104FF07C02FE030E001C0220F2A
:103BE0004A95EAF72095169516951370123069F0EC
:103BF00050F430913203113029F0822B83230E943C
:103C0000600B01CF832B822BFACF282B80913203BC
:103C10008227F5CF1F70FF2029F0812F0E94B70B5C
:103C2000802F2ACF802F0E94C50F812F0E94710BF9
:103C3000EACE802F92EFA916B1F19A1570F0A0EF9D
:103C4000AA16D1F0B1EFAB1691F0FF2009F453C0E2
:103C5000D1108BCE812F8F712AC0E3EFAE1651F1B8
:103C6000F4EFAF12F2CF8091370382FD2FC0812F86
:103C70008F71FF20D9F21BC0FF2081F021E02D15AC
:103C800008F4C1CE1F7181E090E0012E01C0880FC1
:103C90000A94EAF7909132038927B1CF32E03D15BB
:103CA00008F4B1CEEFCF812F8F71F110BFCF0E94FA
:103CB000B70BA9CE80E0FF2009F4A1CF1F7181E0EE
:103CC000012E01C0880F0A94EAF799CFFF2041F036
:103CD0001F71812F0E94B70B812F0E94C30B93CEBF
:103CE00081E00E947E0B81E08D1508F08CCE82E091
:103CF0000E947E0B88CEDD2059F0893309F0FCCE7E
:103D00009FEFA7EEB3E09150A040B040E1F7F2CEB4
:103D1000812F8F718BCF992029F0DC0118968C911F
:103D200085FF0DCCC20197558F3F910511F008F02A
:103D300017C17201FF24BEE04B9EF00111248F01D8
:103D40000D5E1E4FD30112968C91E85EFE4F90815E
:103D500080FB90F99083882309F4F8CB0E94020538
:103D60009093840280938302F80182818F5F828323
:103D70008091F1029091F202892B838380916402F9
:103D800084830680F781E02D309731F0D8011C96AE
:103D90006D917C91C80109958EE08E9DF0018F9DFB
:103DA000F00D1124ED5EFE4F858181FFCCCB90E0BC
:103DB00080E09093F3028093F4022BC08091E9019C
:103DC0009091EA018415950581F41092EA01109210
:103DD000E9011092E6021092E7021092E8021092B6
:103DE000E9021092EE021092ED028091EF029091A2
:103DF000F002009709F496CFA8E0CA16D10408F0A3
:103E000093CB632D0E94B605811103C081E00E940F
:103E10003010D30112962C91222309F4ACC01092D9
:103E20003103C2019057839708F073CC84E090E08F
:103E30000E94A92A9093370380933603F201E15040
:103E4000F047E232F10508F0A7CBE85FF44D0C949F
:103E5000352A4114B7E75B0609F413CBE1E04E16AF
:103E6000E7E75E0609F417CBFEE54F16FCE75F06B1
:103E700009F417CB2FE542162CE7520659F03DE521
:103E800043163CE7530609F059C980910A0188237B
:103E900009F407CB10920A0180E00E9430100C94C4
:103EA0008C1521E012966C91129713967C911397C2
:103EB00014968C910E94510D1C01F301828188237C
:103EC00069F18091F3029091F402009739F1821523
:103ED000930521F1BEE08B9FC0011124FC01E85E37
:103EE000FE4F2081246020838D5E9E4FFC01318235
:103EF00020820E94900F1092F10221E0D3014C9198
:103F000011965C91119712966C91129713967C9171
:103F1000139714968C910E94510D1C01C101815A76
:103F2000924521014F9720F4B0EA4B26B2E55B267B
:103F3000F3019280992009F4C3C8FFEF4F16510492
:103F400009F010F40C949D1529E542162CE7520651
:103F500011F40C9486151092E80121010C94E615D9
:103F6000F201E851FC47E730F10508F052CFE65D79
:103F7000F44D0C94352AF6E14F16FCE75F0609F480
:103F8000CECB8091F2028272F201E052F847E53125
:103F9000F10508F04ECCEF5CF44D0C94352AE11499
:103FA000F10409F05CC9912CF12CE12C80E00E9415
:103FB00030101093F0020093EF0281E08093EC0246
:103FC000D80115968C918093EA0291100EC0EF28CB
:103FD00061F0D8018D919C919C0124503109213AC6
:103FE000310508F083CA0E945808F801E680F7807E
:103FF000C7019A9581159F4110F420EEF222BB244F
:10400000B394C70101978F3F9D4708F0B12CD801A9
:104010001996ED91FC911A97309731F01B966D919E
:104020007C9181E00995B822BB2079F0F801868166
:1040300097810E94170A8093EB02C701F8E0CF1620
:10404000D10408F056CA0E9465050E94FD0E58CAA8
:104050001F93CF93DF9380910F02807F09F049C0B7
:1040600080910C02882309F444C080914102D091D0
:10407000100260910A0270910B02A0910D02B091A2
:104080000E02C62FC72316E0D81799F190E01097BB
:1040900011F0CF3F19F401968770F6CF189F900169
:1040A000199F300D1124F901EF5EFD4F4181471337
:1040B000F2CF40814613EFCF42814111ECCF4381D3
:1040C00054814A1B5B0B483C510528F780910F0235
:1040D0008F70806180930F02F901EA5EFD4F80814D
:1040E0008F70806180838AE092E00E946A150E944E
:1040F000B708DF91CF911F910895A1E1B0E0E3E807
:10410000F0E20C944A2A8C0185E0F801DE011D964C
:1041100001900D928A95E1F7F801E2808AE0A82EDD
:1041200082E0B82E60910D0270910E02611571054A
:1041300009F426C190910A0240910B02892F842331
:104140008F3F09F41DC120813181C380D480F0905C
:104150000C02F601E61BF70BFF2009F4DCC080918E
:104160000F02582F507FE83CF10508F09FC0511115
:104170006BC0FE2C431314C0921312C0E11010C088
:104180008F70806180930F02C5010E946A15809133
:104190000F02F80185838F2D6196EAE00C94662A60
:1041A000C114D10429F0822F83238F3F09F003C16A
:1041B00080E0F82FF170DF2E80FF3CC0809141023B
:1041C0004091100256E0841315C02D873E878D85DF
:1041D0009E850E941A0D292F22952F702230F0F013
:1041E000243018F59F70F1F0F8019581907FD1F49B
:1041F000D12C1EC090E0589FF001599FF00D112462
:10420000EF5EFD4F6181361306C06081261303C047
:104210006281E6120FC001968770D5CF9F7011F0B2
:10422000882331F3805E883018F3C8010E946A1534
:10423000FD2CB1CFEE2009F4AECF80910F0281604A
:1042400080930F02F12CA7CF431306C0921304C032
:10425000F801EE2009F479C0C8010E94270D8823D7
:1042600009F1EE20F9F080910F02803270F0209178
:104270000A0230910B0238872F831986DB86CA86A3
:104280008C87CE0107960E946A1586E0F801AAE0A5
:10429000B2E001900D928A95E1F70E942820FF2458
:1042A000F39479CFC8010E946A15F9CF51110AC061
:1042B0008AE092E00E946A1586E0F50111928A95E3
:1042C000E9F7C0CF43130FC092130DC0E1100BC02C
:1042D000F8018583C8010E946A1586E0F5011192F4
:1042E0008A95E9F758CFC8010E94270D8823D1F29B
:1042F000EE20C1F280910F02803238F220910A0242
:1043000030910B023A8329831B82DD82CC828E831B
:10431000CE010196B8CFE83CF105F8F6FE2CEE2070
:1043200009F243131FC092131DC080910F0280FD3C
:1043300010C0982F907F69F0F8018583903F31F08D
:10434000982F907F905F8F70892B8583C8010E9482
:104350006A1586E0F801AAE0B2E001900D928A9514
:10436000E1F719CFC8010E94270D81118ECF8091EE
:104370000F02816080930F02C8010E946A150BCF63
:10438000EE2009F48FCFC8010E94270DF82E882354
:1043900009F488CF86E0F801AAE0B2E001900D921E
:1043A0008A95E1F780910A0290910B020E941A0D02
:1043B0000E942820F0CE81E08E25FBCEA7E1B0E060
:1043C000E4EEF1E20C94512A4B8B5C8B6D8B7E8B6F
:1043D0008F8B61111092F1021A8A198A85E0FE0111
:1043E0007396DE011D9601900D928A95E1F78091FA
:1043F000370382FF1CC00E940205209133033091D5
:104400003403821B930B8C3D954020F08091350343
:1044100082FF79C00E9402052091620230916302FE
:10442000821B930B8C3D954010F00E94460886E05D
:10443000FE013D96DE01179601900D928A95E1F7F7
:10444000CE0107960E947D20882359F016E08091C6
:10445000410290911002891343C06796E3E00C94E7
:104460006D2A86E0FE013796DE01119601900D92CD
:104470008A95E1F78A859B85892B41F38F81988501
:1044800089238F3F19F32091100230E0C901019672
:1044900087709927409141024817190671F40E94CC
:1044A0006712109210021092410286E0EAE0F2E0F8
:1044B000DF011D928A95E9F7C9CF96E0929FD0015E
:1044C000939FB00D1124AF5EBD4FFE013196019058
:1044D0000D929A95E1F7809310020E94B708B6CF2B
:1044E000819FC00111248F5E9D4F0E947D208823F3
:1044F00009F4B3CF8091410290E00196877099272B
:1045000080934102A4CF82E00E947E0B83CFAAE079
:10451000B0E0EDE8F2E20C94482A8E010F5F1F4FE5
:104520008AE0F80111928A95E9F792E8E92E91E084
:10453000F92E6801AA24A394B12CF70181917F017F
:104540008F3F09F446C0F894E82FE295EF70F0E051
:1045500021A18F70A50102C0440F551F8A95E2F773
:10456000CA01922F982B91A392A18095892382A3AF
:10457000789400C0E7E8F1E021E030E0912C812C54
:1045800041914F3F09F467C0A42FA295AF70B0E0EE
:1045900090968C9190E04F7002C0959587954A95C2
:1045A000E2F780FD58C0C901882A992A220F331FDB
:1045B00051E0E739F50721F7F701319780818F3F07
:1045C00011F00E945D0680EA8A95F1F7F60191826A
:1045D0008082F2E0CF0ED11C47E8E41641E0F406F9
:1045E00009F0ABCF4AE050E0B80189E692E00E94C2
:1045F000E32A892B99F18AE0F801A9E6B2E001905B
:104600000D928A95E1F781E0809368020E9402058D
:104610009093670280936602809166029091670290
:104620000E94E7040597F0F04AE050E069E672E086
:1046300086E892E00E94E32A892BC9F08AE0E9E645
:10464000F2E0A6E8B2E001900D928A95E1F781E0F0
:104650001092680208C090E080E0A6CF80916802C6
:104660008111DACF80E02A96ECE00C94642A80E095
:10467000EFCF1F920F920FB60F9211242F933F93FB
:104680004F935F936F937F938F939F93AF93BF935A
:10469000CF93DF93EF93FF93D091E900DF70809188
:1046A000EC00C82FC17080FDC0E81092E900809135
:1046B000F000877F8093F00078940E949612109209
:1046C000E9008091F00088608093F000CD2BCF70DE
:1046D000C093E900FF91EF91DF91CF91BF91AF912E
:1046E0009F918F917F916F915F914F913F912F910A
:1046F0000F900FBE0F901F9018951F920F920FB63C
:104700000F9211242F933F934F935F936F937F9357
:104710008F939F93AF93BF93EF93FF938091E100AB
:1047200082FF09C08091E20082FF05C08091E10014
:104730008B7F8093E1008091DA0080FF24C080911C
:10474000D80080FF20C08091DA008E7F8093DA004D
:104750008091D90080FF9DC080E189BD82E189BD43
:1047600009B400FEFDCF81E0809325038091000312
:10477000811109C00E948A030E942B048091E200EB
:1047800084608093E2008091E10080FF17C08091F7
:10479000E20080FF13C08091E2008E7F8093E200F0
:1047A0008091E20080618093E2008091D800806275
:1047B0008093D80019BC85E0809325038091E100A7
:1047C00084FF2BC08091E20084FF27C080E189BD77
:1047D00082E189BD89B5982F917080FFFBCF8091D0
:1047E000D8008F7D8093D8008091E1008F7E8093E8
:1047F000E1008091E2008F7E8093E2008091E200F0
:1048000081608093E20080912603882309F447C0E9
:1048100084E080932503809125038091E10083FF4C
:1048200027C08091E20083FF23C08091E100877F51
:104830008093E10082E0809325031092260380910B
:10484000E1008E7F8093E1008091E2008E7F809373
:10485000E2008091E20080618093E20042E060E04B
:1048600080E00E94F9038091F00088608093F0005E
:10487000FF91EF91BF91AF919F918F917F916F9138
:104880005F914F913F912F910F900FBE0F901F900E
:10489000189519BC109225031092000374CF8091D3
:1048A000E30087FD93E090932503B5CF78941F92A2
:1048B0001FB61F9211248F939F93AF93BF93809144
:1048C000FC029091FD02A091FE02B091FF020196C0
:1048D000A11DB11D8093FC029093FD02A093FE02E6
:1048E000B093FF02BF91AF919F918F911F901FBE18
:1048F0001F9018951F921FB61F9211248F939F939C
:10490000AF93BF938091FB02811113C08091FC0291
:104910009091FD02A091FE02B091FF024196A11D6F
:10492000B11D8093FC029093FD02A093FE02B09310
:10493000FF02BF91AF919F918F911F901FBE1F905B
:104940001895CDB7DEB7AA970FB6F894DEBF0FBEA5
:10495000CDBF85B7806885BF85B7806885BF84B7C0
:10496000877F84BF0FB6F894A89580916000886116
:1049700080936000109260000FBE80E890E00FB658
:10498000F89480936100909361000FBE8BE596E0F0
:104990009093A7018093A6010E948A030E942B0492
:1049A0008091E20084608093E200789480912503F6
:1049B0008823A1F01091E9001F709091EC00892FDD
:1049C000817090FD80E8182B1092E9008091E8003A
:1049D00083FD0E9496121F701093E90082E084BD4F
:1049E00093E095BD9AEF97BD80936E000E94740D81
:1049F000811102C00E949E0C02E811E0E7E8EE2E51
:104A0000E1E0FE2ED8018D918D018F3F11F00E94C3
:104A10005D06E016F106B1F707E811E077E9E72E49
:104A200071E0F72EF80181918F018F3F11F00E9404
:104A30005D06E016F106B1F78AE0E6E8F2E0DF0194
:104A4000282F1D922A95E9F7E9E6F2E0DF011D9291
:104A50008A95E9F740E060E080E00E941F0B0E9429
:104A60005B12811102C00E94F91182E090E00E9465
:104A70009B2A8093780284E090E00E94A92A909378
:104A80003703809336030E948722EFE3FCE93197D6
:104A9000F1F700C000000E9487228091860280FF0B
:104AA00008C06FEF7FEF90E080E00E94CD2A0E9467
:104AB000C60A83E090E00E949B2A0E942B09809105
:104AC00032030E94420B879A8F9A80917302811160
:104AD00031C00E945B12811104C00E94F9110E9432
:104AE000EE0E88E090E00E94A32A6093D9027093B2
:104AF000DA028093DB029093DC026E7F71F40E94F5
:104B0000EE0E88E090E00E94A32A6093D902709391
:104B1000DA028093DB029093DC020E94DC05809134
:104B2000D90280FF04C060E086950E94B70E81E044
:104B3000809373028091360380688093360360917E
:104B400036037091370384E090E00E94CD2A0E94E2
:104B5000580580FF03C083E50E944B118BE091E074
:104B60009093F8028093F70250E9452E52E0552EBB
:104B700068EC662E712C80912503FF24F39400E1EC
:104B800012E1853009F4A3C00E94872239E7A32EE1
:104B900032E0B32E46E8842E42E0942ED401F50193
:104BA000219131918D919D9142E0E338F40709F410
:104BB000A3C028173907A1F3312CD4010D911D9101
:104BC0004D01F501C190D1905F01C016D10659F198
:104BD000C026D126212CEE24E394F12CC6018E218F
:104BE0009F21892BB1F02EA23FA221E0C8018E2186
:104BF0009F21892B09F420E028A70E9402058160EB
:104C0000782F9AA789A74EA15FA168A58AA50E94BF
:104C1000DE212394EE0CFF1CF0E12F12DFCFF50113
:104C2000329711830083339425E03212C6CF0E945D
:104C3000F60484C080912503843009F438C080E0F4
:104C40000E94300B8091750281110DC0F0927502A7
:104C50008091D902982F9170909374028E7F8093E7
:104C6000D9020E94EA0A1092FB0288E190E0A0E4D7
:104C70000FB6F894A895809360000FBEA0936000D3
:104C800083B7817F846083BF83B7816083BF78945B
:104C9000889583B78E7F83BF0FB6F894A8958091CF
:104CA0006000886180936000109260000FBE809168
:104CB0002403882361F00E948722E6E8F2E08191D4
:104CC0009191892B09F080C34E165F06C1F7809140
:104CD0002503853009F4AECF0E9467120E94580563
:104CE0000E94300B1092750280917402882309F49F
:104CF0004BCF0E94D50E48CF2817390709F05CCF5B
:104D00000E9402058C01809176029091770208172B
:104D10001907A1F08FEF89A38AA31BA20E940205A5
:104D20008160782F9DA38CA349A15AA16BA18DA16D
:104D30000E94DE2110937702009376028091ED02AB
:104D40009091EE02892B09F44EC04091E2025091FD
:104D5000E3026091E4027091E5022FB7F89480912C
:104D6000FC029091FD02A091FE02B091FF022FBFC4
:104D7000841B950BA60BB70B4091DE025091DF020E
:104D80006091E0027091E10284179507A607B707CA
:104D900050F10091ED021091EE02C8010E94170A35
:104DA0009801205E31092830310520F001151105E8
:104DB00009F03FC10E94CC0F802F0E9496101092E4
:104DC000EE021092ED021092E2021092E3021092B3
:104DD000E4021092E5021092DE021092DF021092BD
:104DE000E0021092E1020091F3021091F402011529
:104DF0001105B9F080918302909184020E94E7042A
:104E0000893C910570F04EE0049FC0011124FC0123
:104E1000E85EFE4F208122FD04C08D5E9E4F0E9401
:104E2000900F86E0E7E9F2E0DE01119601900D9225
:104E30008A95E1F71092990210929A0210929B02C1
:104E400010929C028B819C81892B09F44AC080912D
:104E50009502909196020E94E7049C019091900225
:104E6000992309F4D5C225313105D8F19F3F19F0B6
:104E70009F5F909390021B81112359F00E943B0683
:104E80009FEF11160CF491E0899F802D11248093DF
:104E900099021C81112359F00E943B069FEF1116C5
:104EA0000CF491E0899F802D112480939A02309117
:104EB00099023323B1F020919A02222391F045EB1D
:104EC0003403C0011124992309F4B6C090939902C8
:104ED00045EB240390011124332309F4B1C030932E
:104EE0009A028D819E81892B09F44AC08091930298
:104EF000909194020E94E7049C0190919102992361
:104F000009F481C221353105D8F19F3F19F09F5F27
:104F1000909391021D81112359F00E9419069FEF71
:104F200011160CF491E0899F802D112480939B022F
:104F30001E81112359F00E9419069FEF11160CF4DF
:104F400091E0899F802D112480939C0230919B02D7
:104F50003323B1F020919C02222391F045EB3403DE
:104F6000C0011124992309F46FC090939B0245EB73
:104F7000240390011124332309F46AC030939C0266
:104F800046E050E0BE016F5F7F4F87E992E00E94EC
:104F9000E32A892B61F48091990290919A02892BDE
:104FA00090919B02892B90919C02892B11F00E9479
:104FB000F20586E0FE013196A7E9B2E001900D927C
:104FC0008A95E1F70E945805182F809185021817DD
:104FD00039F0109385020E94F604812F0E94300B55
:104FE00080912503843009F0C6CD83E08093E900E9
:104FF0008091E80082FFBFCD8091E80090E085FFBE
:1050000005C00E94A903882339F191E08091E8004E
:105010008B778093E800992309F4ADCD8981EFEF78
:10502000E80FE33108F041C0F0E0EA5BF44D0C9486
:10503000352A0E94BB0FC0CE81E08093990248CFF1
:1050400081E080939A024DCF81E080939B028FCFC5
:1050500081E080939C0294CF80E2E82EF12C8E01B7
:105060000F5F1F4F8091E80085FD0AC08091E80026
:105070008B778093E8000E94A903882399F3C5CF1A
:105080008091F100D8018D938D01B1E0EB1AF10808
:1050900049F7BBCF1A828BE08B831BC08A81823099
:1050A00009F4A8C128F4813061F08FEF898311C021
:1050B0008330C1F08430C9F71B821C821D821E829E
:1050C00008C00E94F6040E943B2A6B837C838D8378
:1050D0009E8340E250E0BE016F5F7F4F82E00E94FE
:1050E000590A49CD80918602909187029827892795
:1050F00098279C838B8380918802909189029827BE
:10510000892798279E838D8380918A0290918B02B4
:1051100098278927982798878F8380918C02909170
:105120008D029827892798279A87898780918E02F0
:1051300090918F029827892798279C878B87C9CFC2
:105140008A81823079F0853009F0AFCF8091D90221
:1051500080FF13C08091D9028E7F8093D9020E9474
:10516000EA0AB7CF6B817C818D819E810E943B2AA8
:1051700085E290E00E94AF2AACCF0E94D50EA9CF65
:105180004C816B818A810E94AE0C982789279827D1
:105190009E838D839ECF2D813E8132272327322708
:1051A0004C816B818A810E94270C93CF0E944D0C09
:1051B00090CF9A81923009F078CF8830B1F1893060
:1051C00009F45DC08B81823009F1A8F4813009F0C7
:1051D00080CF8C81E8EC8E9FC00111246FEF70E0CE
:1051E0000E940D2A462F20E06091DB028091DA02B6
:1051F0000E94A00D6ECF8330A1F0843009F069CFFA
:1052000020E04091DC026D818C81F2CF8C8188237B
:1052100009F4A0CF0E94D50E60E08C810E94B70EE9
:1052200058CF8C818093DD0254CF8B818230D9F0AE
:1052300070F4813009F04DCF8091DC02FFEF8F9F39
:10524000C0011124B3010E940D2A6C8342CF833028
:1052500099F0843009F03DCF8091DA028C838091FF
:10526000DB028D8336CF8091D90280FF03C0869503
:105270008C832FCF80E0FCCF8091DD02F9CF60914D
:10528000D9027091DA028091DB029091DC020E94D7
:105290008D0D1FCF80E18A831CCF81E08A838AE550
:1052A000FBCE0A811B81102701271027CE01019612
:1052B0007C01CC80DC01AC0DB11D6D01C8018A55AB
:1052C0009D4FCE14DF0409F404CF0A35B1E01B076B
:1052D00050F40E949B2AF70184830F5F1F4FBFEF9A
:1052E000EB1AFB0AEBCFD70114961C92F6CF0A817A
:1052F0001B81102701271027FE0131966F01EC80DA
:10530000E00EF12EF11CC8018A559D4FE016F10602
:1053100009F4DFCE0A35F1E01F0728F4D601149610
:105320006C910E94AF2ABFEFCB1ADB0A0F5F1F4FB1
:10533000EACF0E94170CCDCE84E0ADCF0A811B814D
:10534000102701271027FE0131967F01CC80CF0165
:105350008C0D911D6C01C8018696EC14FD0409F4B6
:10536000B8CE0038A2E01A0750F40E949B2AF70139
:1053700084830F5F1F4FBFEFEB1AFB0AECCFD701FF
:1053800014961C92F6CF0A811B8110270127102743
:10539000FE0131966F01EC80E00EF12EF11CC80188
:1053A0008696E016F10609F494CE0038F2E01F0765
:1053B00028F4D60114966C910E94AF2ABFEFCB1A45
:1053C000DB0A0F5F1F4FEBCF09BD19BD09B400FE0B
:1053D000FDCF8091D8008F7D8093D8008091E00030
:1053E00082608093E0008091E00081FDFCCF0E940C
:1053F00067126DCC85E290E00E949B2A1B821C8282
:105400001D828E8366CE2B30310508F080CDB8CD5D
:105410002B30310508F02CCD64CDAA1BBB1B51E10C
:1054200007C0AA1FBB1FA617B70710F0A61BB70B14
:10543000881F991F5A95A9F780959095BC01CD01B9
:10544000089597FB072E16F4009407D077FD09D036
:105450000E940D2A07FC05D03EF4909581959F4F40
:105460000895709561957F4F0895EE0FFF1F059089
:10547000F491E02D099469279627692778278727D3
:10548000782708952F923F924F925F926F927F926A
:105490008F929F92AF92BF92CF92DF92EF92FF9244
:1054A0000F931F93CF93DF93CDB7DEB7CA1BDB0BF0
:1054B0000FB6F894DEBF0FBECDBF09942A88398895
:1054C00048885F846E847D848C849B84AA84B9849C
:1054D000C884DF80EE80FD800C811B81AA81B981A8
:1054E000CE0FD11D0FB6F894DEBF0FBECDBFED01BC
:1054F0000895002E083090F0982F872F762F652F73
:10550000542F432F322F22270850F4CF220F331F5E
:10551000441F551F661F771F881F991F0A95B2F7F2
:10552000002D08952A153B054C055D056E057F0588
:10553000800791070895F999FECF92BD81BDF89A31
:10554000992780B50895A6E1B0E044E050E00C94BE
:10555000D52AA8E1B0E042E050E00C94D52A262FED
:10556000F999FECF92BD81BDF89A019700B4021659
:1055700039F01FBA20BD0FB6F894FA9AF99A0FBE07
:1055800008950396272F0E94B02A0E94AF2A252F44
:105590000E94B02A242F0C94B02A0196272F0E9433
:1055A000B02A0C94AF2ADC01CB01FC01F999FECFA3
:1055B00006C0F2BDE1BDF89A319600B40D9241509B
:1055C0005040B8F70895FB01DC0104C08D910190B3
:1055D000801921F441505040C8F7881B990B089559
:1055E000F894FFCF77139F1342159F134215D213E0
:1055F000F3134215F114FE149C1C9C1CD51CD51CE5
:10560000801D9A1D031D031D9F1D0A1E191E191EB4
:10561000061B7B1B0E1BD81ADC1A121BE01A161B6A
:10562000221BEC1A741BF01A261BF41A2A1B521B9D
:10563000F81A2E1B591BFE1A341B3C1BE41A1A1BAA
:10564000E81A1E1B021B381B481B621B721BD21A56
:105650000A1B821BB91ABD1AAE1AB51AC11AC51A8D
:10566000C91AB31BCF1BD61BDB1BE01BE51BEA1BB8
:10567000EF1BF41BF91BFE1B031C8C158C158C15E2
:105680008C158C158C158C158C158C154A284E286C
:10569000A028C028CB28D628D928D928D9285528E9
:1056A00055284A294D295129772999299C299E292C
:0256B000C3290C
:1056B2003E01000001000100010001E404A20A9B76
:1056C2000A940A0000000000000000C611AD0B00A1
:1056D200000000000000000000DA0B9E0B0000003A
:1056E20000000000000000F90BA50B0000012A00D9
:1056F20022FF00224C00070000000000008182838C
:10570200E200E900EA00B500B600B700CD0083016F
:10571200CC008A0192019401210223022402250273
:10572200260227022A02B300B4006F0070009F0114
:10573200CB0137333231309593929190F0F1C635E7
:1057420034979694F4F5F64022B684016201AC00D7
:0657520006061F063F06DB
:00000001FF
