:10000000DEC3000015C4000013C4000011C40000CA
:100010000FC400000DC400000BC4000009C40000A0
:1000200007C4000005C400000C94F32C0C94DB2DD5
:100030000C94A82CFDC30000FBC30000F9C3000012
:10004000F7C30000F5C30000F3C30000F1C30000D4
:10005000EFC300000C94CF2CEBC30000E9C30000F9
:10006000E7C30000E5C30000E3C30000E1C30000F4
:10007000DFC30000DDC30000DBC30000D9C3000004
:10008000D7C30000D5C30000D3C30000D1C3000014
:10009000CFC30000CDC30000CBC30000C9C3000024
:1000A000C7C30000C5C30000C3C3000005010902A7
:1000B000A10185020901A1000509190129081500FE
:1000C0002501950875018102050109300931158165
:1000D000257F95027508810609381581257F9501D0
:1000E00075088106050C0A38021581257F95017572
:1000F000088106C0C005010980A101850319012AF4
:10010000B700150126B700950175108100C0050CD8
:100110000901A101850419012AA002150126A002E6
:10012000950175108100C005010906A1018506052C
:100130000719E029E71500250195087501810205D9
:1001400007190029EF1500250195F07501810205B9
:10015000081901290595057501910295017503910D
:1001600001C00660FF0961A1010962150026FF00B8
:100170009520750881020963150026FF00952075FA
:10018000089102C005010906A101050719E029E748
:1001900015002501950875018102950175088101F9
:1001A0000507190029FF150026FF0095067508812F
:1001B000000508190129051500250195057501910E
:1001C00002950175039101C009025B00030100A0C3
:1001D000FA090400000103010100092111010001D5
:1001E00022440007058103080001090401000203FD
:1001F00000000009211101000122220007058203ED
:100200002000010705030320000109040200010387
:1002100000000009211101000122B6000705840336
:1002200020000112010002000000086B70110001A3
:1002300000010200011C0369006B006B00690036BD
:1002400000380020004100750072006F00720061EC
:100250000000001A0377007500710075006500202A
:1002600000730074007500640069006F00000004F2
:10027000030904167C1E001F002000210022002319
:100280000024002500260027002D002E002A004C07
:1002900000A8002B0014001A000800150017001C0D
:1002A0000018000C00120013002F00300031000372
:1002B000570457005704001600070009000A000BF6
:1002C000000D000E000F0033003400280000000075
:1002D000000000E10000001D001B000600190005E1
:1002E0000011001000360037003800E500015752B9
:1002F000000000E000E300E2000000000000002C2D
:1003000000000000000000E6000257E40050005129
:10031000004F0035003A003B003C003D003E003FEE
:10032000004000410042004300440045004C0049A9
:1003300000460001004A0052004D004B0001000140
:1003400000010001000100010001000100010001A5
:100350000001000100500051004F004E000100015B
:10036000005009500A4F0A4F090100280000000000
:1003700000000001000000B6002A00B700010001E3
:1003800000110A2903010001000100010001000120
:100390000000000100010001000000000000004C0E
:1003A00000000000000000010001006521010001C3
:1003B00000010035001E001F0020000100010001A7
:1003C000000100010001000100010001004C0201D8
:1003D00000A600010021002200230001000100010D
:1003E0000001000100010001000100010001000105
:1003F0000001000100240025002600010001000189
:1004000000010001000100010001000100000000E6
:100410000000000100000027000100B200010001FF
:100420000001002903010001000100010001002A70
:1004300000000001000B700100000000000000013E
:1004400000000000000000010001000100B6003EB5
:1004500000B7002078A800AA00A900AC00AE00AB4D
:1004600000010001000100010001006800690001B5
:100470000001000100010001000100010001000174
:100480000001000100010001000100010001000164
:100490007C007C010001000100010001000100015D
:1004A0000001000100010001000100037C000000C8
:1004B0000000000100000001000100010001000136
:1004C0000001001003010001000100010001000112
:1004D0000000000100010001000000000000000118
:1004E00000000000000000010000520100010001B6
:1004F0000001002223252628292A2C2D2F303233D3
:100500003536383A3B3D3E4042434547494A4C4EDA
:100510005051535557595A5C5E6062646668696B06
:100520006D6F71737577797B7D7F81838587898A0C
:100530008C8E90929496989A9C9E9FA1A3A5A7A812
:10054000AAACAEAFB1B3B4B6B8B9BBBCBEBFC1C242
:10055000C3C5C6C7C9CACBCCCDCED0D1D2D2D3D4D5
:10056000D5D6D7D7D8D9D9DADADBDBDBDCDCDCDCF3
:10057000DCDDDDDDDDDCDCDCDCDCDBDBDBDADAD9C1
:10058000D9D8D7D7D6D5D4D3D2D2D1D0CECDCCCB43
:10059000CAC9C7C6C5C3C2C1BFBEBCBBB9B8B6B461
:1005A000B3B1AFAEACAAA8A7A5A3A19F9E9C9A98F1
:1005B000969492908E8C8A89878583817F7D7B79C2
:1005C000777573716F6D6B6968666462605E5C5AA3
:1005D0005957555351504E4C4A4947454342403E66
:1005E0003D3B3A3836353332302F2D2C2A292826F8
:1005F000252322FFAA7F55400001010101010101CD
:1006000001010202020202020202020303030303C7
:100610000303030404040404040405050505050696
:100620000606060607070707070808080809090954
:10063000090A0A0A0B0B0B0C0C0C0D0D0D0E0E0EFD
:100640000F0F0F101011111112121313141415158E
:1006500016161717181819191A1A1B1B1C1D1D1E00
:100660001E1F202021222223242425262627282954
:10067000292A2B2C2D2D2E2F303132323334353682
:100680003738393A3B3C3D3E3F4041424344454682
:100690004748494A4C4D4E4F50515354555658595E
:1006A0005A5B5D5E5F616264656668696B6C6D6F05
:1006B0007072737577787A7B7D7E80828385878878
:1006C0008A8C8E8F91939596989A9C9EA0A2A3A5B2
:1006D000A7A9ABADAFB1B3B5B7BABCBEC0C2C4C6B3
:1006E000C9CBCDCFD1D4D6D8DBDDDFE2E4E7E9EB6F
:1006F000EEF0F3F5F8FAFDFF1E0F0500047F3F1F33
:10070000643214643214783C1E1E140A0500000082
:1007100000000000000000000000000000000000D9
:1007200000000000000000000000000000000000C9
:10073000007E0F00D4FFFFFFC7000000780000001C
:1007400000000000002A2B2800000000000000002C
:10075000000000000000000029000000002C1E34F2
:1007600020212224342627252E362D3738271E1FF8
:10077000202122232425263333362E37381F040523
:10078000060708090A0B0C0D0E0F10111213141591
:10079000161718191A1B1C1D2F3130232D3504056F
:1007A000060708090A0B0C0D0E0F10111213141571
:1007B000161718191A1B1C1D2F3130354C00112427
:1007C0001FBECFEFDAE0DEBFCDBF04B603FE19C017
:1007D0008091860490918704A0918804B091890447
:1007E0008730904BA740B04B61F410928604109272
:1007F00087041092880410928904E0E0F8E30995D8
:1008000000C024E0A4E6B2E001C01D92A638B20701
:10081000E1F712E0A0E0B1E0E6EBF0E602C00590FF
:100820000D92A436B107D9F70E949A260C94E92FAD
:10083000E7CBFC019281913021F4858181708E5F3C
:100840000895923011F484E0089581E008959C01A8
:1008500091509F31B0F4832F817034FF0AC082958C
:10086000807F31FD806232FD806433FF0BC0806881
:10087000089531FD826032FD846033FF03C08860DB
:10088000089580E00895CF93DF93EB01E0DFFE0150
:100890000995DF91CF910895982F92959F7061F4FB
:1008A00020E0982F892F8695869511F02E5F982F3E
:1008B000892F8695820F089524E0F4CF8093330426
:1008C0000895953090F5803180F540E1949F900136
:1008D0001124280F311D51E081FD54E080FD550F9A
:1008E00082FD529583E0369527958A95E1F7F901C7
:1008F000EE0FFF1FE20FF31FED52FC4F20E030E040
:1009000070E04191DF01CB01022E02C096958795E0
:100910000A94E2F78695880B8427852384278E9393
:100920002F5F3F4F2330310561F70895953070F503
:10093000803160F540E1949F90011124280F311D12
:100940008770982F83E0369527958A95E1F7F9010E
:10095000EE0FFF1FE20FF31FED52FC4F40E050E09F
:1009600080E0219130E0092E02C0369527950A9447
:10097000E2F72170042E01C0220F0A94EAF7822BBD
:100980004F5F5F4F4330510561F7089580E0089550
:10099000E0913B0490913A04E91302C080E008958D
:1009A0009F0157E0E59FF0011124E45CFB4F51816A
:1009B000561306C05081581303C05581541305C007
:1009C0002F5F3F4FF901E770E7CF81E008958091F5
:1009D0003B0420913A04281301C0089501968770C2
:1009E000FACF8095982F809130048923809330042A
:1009F000089580913104811531F0109231041092E4
:100A00003804109239040895803E9105D1F1C8F45C
:100A10008133910509F481C048F48932910509F4C4
:100A200071C08A32910509F47FC008958933910518
:100A3000E1F082389105C9F08533910509F45DC074
:100A40000895843E9105D1F148F4823E910531F13B
:100A5000833E910541F181EE90E00895863E910537
:100A6000C1F1873E9105F1F1089520917B04237037
:100A700009F064C020917C0423FF14C089E290E057
:100A8000089520917B0420FD45C030917C0430FF07
:100A900009C024FD24C083EE90E0089520917B04DA
:100AA00022FDF7CF089520917B0422FD44C03091B0
:100AB0007C0430FD43C024FFF5CF11C020917C049D
:100AC00021FFF0CF80917B0484FD09C087EE90E088
:100AD000089520917B0423FFE5CF24FFF7CF80E02A
:100AE00090E0089520917B0423FD2BC030917C047D
:100AF00031FFE1CF84EE90E0089520917B0425FF43
:100B0000D1CFBCCF20917B0425FD1EC020917C0459
:100B100023FFC8CF89E390E0089520917B0426FF4E
:100B2000C1CF8AE290E0089520917B0426FFBACFDE
:100B300081E390E0089582EE90E0089580EE90E0E9
:100B4000089586EE90E0089585E390E008959091F1
:100B50007B0492FF10C041E0282F2471243009F05B
:100B600040E031E0282F2871283009F030E04317A9
:100B700011F02CE0822793FF10C041E0282F247150
:100B8000243109F040E031E0282F2871283109F0A4
:100B900030E0431711F02CE0822730917C0430FFC5
:100BA00010C051E0282F2171213009F050E041E0C0
:100BB000282F2871283009F040E0541711F029E05F
:100BC000822731FF10C041E0282F2171213109F027
:100BD00040E031E0282F2871283109F030E0431738
:100BE00011F029E0822794FF02C083FD877E0895DB
:100BF0000F931F93CF93DF9307DFEC01D23508F0FB
:100C00004DC0D03508F0C3C0C03ED10530F5CD3C55
:100C1000D10508F09AC0C83AD10578F4C53AD10593
:100C200008F090C0C130D10599F1CE010497813A06
:100C3000910570F1C0E0D0E02BC0CE01885A910937
:100C40004B97C0F7C85AD0E0CC0FDD1FC251DE4F22
:100C50000990D881C02DD4641BC0D03490F4D03218
:100C600008F0A8C0C83ED10598F0CE0191509F3140
:100C700008F78D2F6CDF082F8C2F90E0C5DE902BAE
:100C800054C08C2F90E0C0DEDF70C82FD92BD06A03
:100C9000CE01DF91CF911F910F910895C03882E569
:100CA000D807B8F5C03682E5D80708F056C0C0347A
:100CB00082E5D807C8F4C03282E5D80708F047C0FB
:100CC0008C2F8695869520E2829FC0011124C370E7
:100CD00021E030E002C0220F331FCA95E2F7E9019C
:100CE000C82BD92BDD68D4CF8C2F8695869587703D
:100CF00020E2829FC0011124C37021E030E002C0D5
:100D0000220F331FCA95E2F7E901C82BD92BDC6803
:100D1000BFCFC03C82E5D80750F48C2F8F71C03A0A
:100D2000D24580F5982F84EF906AEC01B1CFCE01C7
:100D3000805C9245809708F07DCFDC2FDF71C0EF9B
:100D4000D06AA6CFA497D064A3CFD065A1CF8C2FB3
:100D50008F71D82FC1EFD06A9BCF8C2F8695869547
:100D6000877020E2829FC0011124C37021E030E02F
:100D700002C0220F331FCA95E2F7E901C82BD92B15
:100D8000DA6886CFE4DEC0E0D82FD06281CF8C2F26
:100D90008F71DDDE93E0CC0FDD1F9A95E1F7DF70F8
:100DA000282F84FF04C090E1899F90011124C22F55
:100DB000D0696ECF8D2F8F71CADE082F8C2F90E0F7
:100DC00023DE902BEC01E1CF80E00895F894E82F2A
:100DD000E295EF70F0E041A18F7021E001C0220F99
:100DE0008A95EAF7922F9095942391A392A1822F4E
:100DF000892B82A3789408950895CF92DF92EF9281
:100E0000FF921F93CF93DF93462F172FE82FF0E029
:100E1000E850FA4F71110CC0E4918E2F7E2F6E2F87
:100E2000DF91CF911F91FF90EF90DF90CF900895C9
:100E3000F491EF2F86E0689FE00111242FEF30E05E
:100E4000CE01B9010E943D2EDB01CA01880F991F16
:100E500065E56A9FA0016B9F500D1124841B482FEC
:100E6000440F480FC901811B9109F89F7001F99F38
:100E7000F00C11248F2D149FB0011124672F70E006
:100E80006901C61AD70AB601F69F6001F79FD00C18
:100E90001124A330B10549F1B901641B7109AB01FB
:100EA000149FB001159F700D1124672F70E0261B51
:100EB000370BF29FA001F39F500D1124752FCC3FEB
:100EC000D34050F4A130B105A1F0129709F0A7CF9B
:100ED000EF2D852F7F2FA3CFA430B10569F0169792
:100EE00009F49DCF7F2D8D2D9ACF7D2DEF2D8F2F46
:100EF00096CF7F2FED2D93CFE52F7F2DF8CFCF937A
:100F0000762FC22F682F842F78DF472F282F8C2F22
:100F100090E0B5D2CF91089580917E04843060F442
:100F20008370846080937E0480918104893C18F0F2
:100F300088EC8093810408958C3AB0F38370886ABA
:100F4000F1CFCF93DF9380917E0480FD0BC0C0E092
:100F5000D0E020E040E060E0CE0191D22196C431A3
:100F6000D105B9F714D7DF91CF910895FF920F9370
:100F70001F93CF93DF93182F062FF42E80917E04BA
:100F800080FF0CC0C0E0D0E02F2D402F612FCE019C
:100F900076D22196C431D105B9F7D3DFCDB7DEB70C
:100FA000E5E00C94AA2F1F93CF93DF93182F74DCE6
:100FB0008230E9F0833001F1813011F541E265EAD8
:100FC00089EDD4DF80917E0480FF0CC0C0E1D0E0C9
:100FD00020E040E060E0CE0152D22196C331D1053D
:100FE000B9F7AFDF812FDF91CF911F91089540E0D6
:100FF0006FEF80E8BBDFF6CF4DE46CE78FEFFACF01
:1010000040E060E080E0F6CFCEDF80937D0408957D
:1010100021E001C0220F8A95EAF780917D04822B9E
:10102000F3CF21E001C0220F8A95EAF7822F809545
:1010300090917D048923E8CF80916201833011F47F
:1010400081E0EFDF109262010895809160018330AA
:1010500011F482E0E6CF089580915E01833009F4B7
:10106000E0CF0895909135048095892380933504CD
:10107000282F277081F4891771F090917C0492FFDA
:101080000AC0869586958695CCDF1092350410921D
:10109000360410923704089590917D0421E030E0E9
:1010A000F90101C0EE0F8A95EAF7D90101C0AA0F34
:1010B0006A95EAF7EA2B01C0220F4A95EAF7892FD1
:1010C0008E23E81303C0892F822B9ECF2095822F79
:1010D0008923FBCF81FF06C04FEF6FEF8FEF46DF15
:1010E0008F98089540E060E080E040DF8F9A089597
:1010F000CF93DF93EC01209181049C81892F817033
:1011000090FD822F692F627091FD622F492F4470EC
:1011100092FD422F2BDF8C81019687708C83DF91AB
:10112000CF910895762F90917E0490FF0BC0493C9B
:1011300008F048EC682F842F60DE962F672F482F29
:10114000892F14CF0895CF93DF93EC01EEE7F4E0FD
:10115000438162818C81E6DF8C818F5F8C83DF919C
:10116000CF910895CF93DF93EC01EC81F0E0ED5047
:10117000FB4F4491EEE7F4E062818181D3DF8C8103
:101180008F5F8C83DF91CF910895FF920F931F9310
:10119000CF93DF93EC01F12C00E010E0409181044B
:1011A000493C08F048EC8C819801609180048F0DD7
:1011B000A6DE0F5F1F4F8CE0F80E0431110571F7AA
:1011C000C0DE8C819A8190FF07C08F5F8C83CDB782
:1011D000DEB7E5E00C94AA2F8150F8CFEF92FF9292
:1011E0000F931F93CF93DF93FC018281EE24E3944E
:1011F00080FF02C0EE24EA94C0E0D0E020E040E0AE
:1012000060E0CE013CD104E010E0F12C809161035C
:101210008F0D8531A4F164E10E94302E892F082EB4
:10122000001C00088C170D0691F440918104040302
:10123000A00111245595479555954795493C08F0CF
:1012400048EC9E016091800480917F0458DEFE0C82
:1012500001501040D9F62196C431D10579F671DEDE
:10126000809161039E2D913071F4811591F0815030
:1012700080936103CDB7DEB7E6E00C94A92F87FF1A
:10128000CECF8C5ECCCF90E00196BE010E94512E55
:10129000EFCF83E1EDCFCF93DF93C0E0D0E020E04C
:1012A00040E060E0CE01EBD02196C431D105B9F722
:1012B000C0E0D0E080916003082E001C0008C81731
:1012C000D00574F180910E01082E001C00088C17C7
:1012D0000D0634F140918104493C08F048EC9E0130
:1012E0006091800480917F040ADE2196C431D1058B
:1012F00009F727DE80910D0190916003980F90937C
:10130000600320910E01280F20930E01121614F491
:1013100093311CF0819580930D01DF91CF91089559
:1013200020E040E060E0CE01AAD0DFCFA0E0B0E056
:10133000ECE9F9E00C94892FEC01FC812F2F30E0CF
:10134000D9010E94B82F9B01AC010E94712F7B0133
:101350008C0180E290E08F1B9109FC01A5E59701CB
:10136000A8010E94712F5B016C019F01DF010E94A7
:101370001E2E9B010E94712E9B01AC012E0D3F1D64
:10138000401F511FB501C6010E94C72F022F30E038
:101390000A3298F5C901880F991F820F931F9595FE
:1013A0008795182F1095E12CF12C85E5801BD82E00
:1013B0008D2DE1FC802F412F193C08F048EC97015E
:1013C000609180049CDD8FEFE81AF80A84E1E8164A
:1013D000F10471F7B6DD9C8181E0911519F090322E
:1013E00019F48FEF80930C0180910C01890F8C838D
:1013F000CDB7DEB7EAE00C94A52F85E590E0821B1F
:10140000930B9C01880F991F820F931F42F6019640
:10141000C6CF0F931F93CF93DF93EC0120E030E012
:101420006091800480917F049C8189010F5F1F4F30
:101430002A30310554F49115F1F040918104493C72
:1014400008F048EC5CDD9801EBCF911114C040919D
:101450008104493C08F048EC52DD98010431110543
:10146000F9F66FDD8C81019681708C83DF91CF91CD
:101470001F910F91089540E0EFCF6A9A0895FC0103
:10148000EE0FFF1FE80FF91FE054FD4F618340830B
:1014900022830895FC018481862351F49281911561
:1014A000B9F06923808583FF05C081E061110FC019
:1014B00080E00895292F22952F709F70292B962F59
:1014C00092959F706F70962B81E02913F1CF08954C
:1014D00081E00895382F25EB3203C001112497FFD6
:1014E00004C080589109892F089580589F4FFBCFE1
:1014F0008091F30380FD14C081FD14C082FD16C0ED
:101500008091F203811581F08E3180F420E5829F75
:10151000C00111246EE170E00E94512E862F0895C3
:1015200084E1089588E2089588E0089580E50895AB
:101530008091F30380FD17C081FD17C082FD19C0A3
:101540008091F103811599F0883298F428E0829F08
:10155000C001112468E270E00E94512E61157105EE
:1015600051F0862F089562E0FCCF64E0FACF61E08D
:10157000F8CF68E0F6CF81E00895853068F5E9EAB4
:10158000F2E040E050E097E0949F9001959F300D8D
:101590001124D901A255BD4F7C9173FF07C07681FC
:1015A000781304C0C90187559D4F08954F5F5F4F61
:1015B00037964330510541F7611571F09091AE02B5
:1015C00093FF0DC09091B50293FF1CC09091BC0297
:1015D00042E050E093FF05C080E090E0089540E0D5
:1015E00050E097E0949FD001959FB00D1124FD012C
:1015F000E755FD4F8683A255BD4F8C9188608C9333
:10160000CF01089541E050E0ECCF4115510511F0B4
:10161000FA0109950895E091C903F091CA03309742
:1016200039F00190F081E02D309711F0099508957F
:1016300080E00895A3E0B0E0E0E2FBE00C94912F9D
:101640002091A7023091A80228173907B1F08093A2
:10165000A7029093A802E091C903F091CA033097C2
:1016600061F00084F185E02D309739F023E0298383
:101670008A839B83CE01019609952396E2E00C9420
:10168000AD2FA3E0B0E0E7E4FBE00C94912F2091B4
:10169000A5023091A60228173907B1F08093A50260
:1016A0009093A602E091C903F091CA03309761F0CC
:1016B0000084F185E02D309739F024E029838A8376
:1016C0009B83CE01019609952396E2E00C94AD2F01
:1016D00090912801913099F0A8E6B2E0EFEF90E008
:1016E0002C91821759F01196EF3F19F4211101C086
:1016F000E92F9F5F9630A1F7EF3FC1F408959091D5
:101700007B0497FFE9CFE82FE695E695E695803FC5
:10171000A8F7F0E0E259FD4F877021E001C0220FE9
:101720008A95EAF78281822B82830895FE2FFF0F2C
:10173000FF0BEA59FD4FF8CF90912801913021F429
:1017400090917B0497FD0CC0E8E6F2E0919189133B
:1017500002C0DF011E9292E0EE36F907B9F7089554
:10176000E82FE695E695E695803FC8F7F0E0E25968
:10177000FD4F9DEF81FD97EF80FF959582FD92953E
:1017800082818923828308958091270108952FB74C
:10179000F8948091A1029091A202A091A302B0912D
:1017A000A4022FBF0895CF93C091300480913404D8
:1017B000C82B80913104811529F1E9DF209138048B
:1017C00030913904821B930B8C3D954008F011D960
:1017D00080913104C82B80912801813021F48091BF
:1017E0007B0487FD18C086E028E632E090E0815057
:1017F000F90140812F5F3F4F41119F5F8111F7CF6A
:101800009111F7D880911C0480958C2390911B0432
:10181000892BCF9108958EE120E732E0E7CF9091B8
:101820007C0492FF0EC0982F990F990F990F936027
:1018300090933504EDDBABDF80933604909337044F
:101840000895E6CB0E94190480936001833079F0FB
:10185000843029F0823069F4E2DF81E003CC8091AA
:101860007D04811521F082FF02C082E0DACB82E0A4
:10187000CFCB08950E94190480935E01833089F0D4
:10188000843031F0823071F483E0C9DF81E0EACB4B
:1018900080917D04811521F083FF02C083E0C1CBDC
:1018A00083E0B6CB089573DF9C019091F60380919D
:1018B000F703982B21F020938C0330938D039091A4
:1018C000F8038091F903982B21F020938A03309339
:1018D0008B03E091C903F091CA03309759F0068059
:1018E000F781E02D309731F082E08093F40384EFAC
:1018F00093E009950895611509F440C0E82FED5C67
:10190000E33148F4F0E0E551F04D0C94642EF0DD45
:1019100081958093F703C7CFEBDDFBCFE9DD8195A0
:101920008093F603F8CFE4DDFBCF02DE8093F8036B
:10193000F2CFFEDD8195FACFFBDD81958093F9032F
:10194000EACFF6DDFBCF815D990B21E001C0220FCC
:101950008A95EAF78091F503822B8093F503DBCF1C
:101960008091F30381608093F303D5CF8091F303DB
:101970008260F9CF8091F3038460F5CF4091F60344
:101980008D3C59F48091F70387FF0DC01092F70347
:10199000411559F41092F20308C08E3C81F48091F5
:1019A000F70318169CF3411581F08091F80390918C
:1019B000F903892B09F0AFCF1092F103ACCF8F3C24
:1019C00041F447FFF0CF1092F6038091F7038115A1
:1019D000E0CF803D19F41416B4F3E5CF9091F803ED
:1019E000893D29F41916FCF61092F803DCCF8A3DE4
:1019F00019F497FFD8CFF8CF9091F9038B3D29F4D4
:101A000097FFD1CF1092F903CECF8C3D19F4191660
:101A1000CCF3C9CF982F915D983078F4815D990B04
:101A200021E001C0220F8A95EAF7822F80959091DC
:101A3000F50389238093F503B6CF8D3D31F4809172
:101A4000F3038E7F8093F303AECF8E3D21F480911C
:101A5000F3038D7FF7CF8F3D09F0A5CF8091F3037E
:101A60008B7FF0CF2FB7F8946091A1027091A20202
:101A70008091A3029091A4022FBF0895CF92DF928C
:101A8000EF92FF92CF93DF93EC01C0902204D090AD
:101A90002304E0902404F0902504E4DFDC01CB0172
:101AA0008C199D09AE09BF09843F9140A105B1057C
:101AB00008F1D8DF6B017C0182E390E0C0928003E3
:101AC000D0928103E0928203F092830380937C039F
:101AD00090937D0310927E0310927F03CE01C093FA
:101AE000200490932104DF91CF91FF90EF90DF903D
:101AF000CF90089584EF91E0E1CFFC01209197020F
:101B0000309198022617370748F06115710529F4BE
:101B10009091E8009E779093E8009B0190E021155A
:101B2000310541F4911106C08091E80082FF32C076
:101B300080E0089580918F038115C1F18530C1F156
:101B40008091E80083FD30C08091E80082FDECCFF9
:101B50008091E80080FFE3CF8091F3004091F20094
:101B6000582F2115310519F04830510558F091E0F2
:101B70004830510509F090E04091E8004E774093DD
:101B8000E800CDCF81918093F100215031094F5F62
:101B90005F4FE7CF80918F03811541F0853041F091
:101BA0008091E80083FFC0CF81E0089582E008952E
:101BB00083E00895982F9093E900891771F0709150
:101BC000EC002091ED005091F00021FD09C09F5FD5
:101BD000973089F78093E9000895762F242F50E0FD
:101BE0003091EB003E7F3093EB003091ED003D7F74
:101BF0003093ED003091EB0031603093EB00709347
:101C0000EC002093ED005093F0002091EE0027FDB2
:101C1000DECF08958091910287FF13C08091E80084
:101C200082FF06C08091E8008B778093E8000895DA
:101C300080918F038111F2CF089580918F038115D8
:101C4000D9F38091E80080FFF8CF8091E8008E778B
:101C5000ECCF2091E4003091E50095E6A9012091B8
:101C6000EC00822F817020FF06C08091E80080FF89
:101C700006C080E008952091E80022FD1AC08091FE
:101C80008F03811589F0853089F08091EB0085FD07
:101C90000FC02091E4003091E50042175307F9F29C
:101CA0009150E1F684E0089582E0089583E008957C
:101CB00081E00895CF93DF93C8EDD0E088818F7ED7
:101CC0008883E7EDF0E080818160808384E082BFDB
:101CD00081E08093900288818E7F8883E2EE10827B
:101CE0001092DA00A1EEB0E01C9288818F77888391
:101CF00088818068888388818F7D888319BC109251
:101D00008F0310928F021092660310928E02A0EE43
:101D10008C918B7F8C9388818160888342E060E026
:101D200080E048DFA1EEB0E08C918E7F8C93E2EEF4
:101D3000F0E0808181608083808188608083E0EE34
:101D400080818E7F8083888180618883DF91CF91BD
:101D50000895E8EDF0E080818E7F80831092E200AC
:101D60001092DA001092E100A0EEB0E08C91816058
:101D70008C9380818F77808319BCA7ED8C918E7FA7
:101D80008C9380818F7E80831092900208953EB163
:101D90003B7F2EB124604FB7F89480EC92E0FC01B9
:101DA0000196508168E02EB9000000C057FF3EB98F
:101DB000550F000000C000C000C03EB900C06A95C9
:101DC00091F752E08C3F950751F74FBF8FE594E0B4
:101DD0000197F1F700C00000089581E08093E000D2
:101DE00080E28093D8001092C9008FE19EE40197B1
:101DF000F1F700C00000A7E0B0EBCD0180938604AE
:101E000090938704A0938804B093890488E19CE0B0
:101E10000FB6F894A895809360000FBE9093600071
:101E2000FFCF0F931F93CF93DF93EB018A01909124
:101E30008F03943059F58093E9008FEF9091E8007B
:101E400095FD06C095ED9A95F1F700008150B1F728
:101E50008091E80085FF1AC0FCDE811112C08091DC
:101E6000E80085FD06C08091E8008E778093E80049
:101E7000F3CF88818093F1000150104011F021963A
:101E8000EECF8091E8008E778093E800DF91CF91CC
:101E90001F910F910895603229F440E250E0BC0197
:101EA00082E0BFCF0895CF93DF93EC0148E050E08C
:101EB000BC0181E0B6DF88E0FE01A9E9B2E0019053
:101EC0000D928A95E1F7DF91CF91089540E250E0BD
:101ED000BC0184E0A6CF46E050E0BC0184E0A1CF85
:101EE00043E050E0BC0184E09CCF90917C0492FBE5
:101EF000222720F9281771F080FB92F990937C0437
:101F000060917B0470917C0484E090E00E94412FFA
:101F100082E0A8C808951F93CF93DF93122F8430D7
:101F2000D8F46530C8F44031B8F490E2699FE0011C
:101F30001124C40FD11DC40FD11D90EA899FC00D7B
:101F4000D11D1124632FCE0189960E94272F612F66
:101F5000CE018A960E94272FDF91CF911F9108957D
:101F6000AF92BF92CF92DF92FF920F931F93CF93C6
:101F7000DF93A12CB12C00E0650110E012C0FE013E
:101F8000259135914F2D612F802FC5DF2296F39437
:101F90008F2D8031A1F780E1C80ED11C1F5F153055
:101FA00039F0E601CC0FDD1FCD58DD4FF12CE7CF26
:101FB0000F5F80E5A80EB11C0430F1F6DF91CF91E0
:101FC0001F910F91FF90DF90CF90BF90AF90089539
:101FD00080912801813061F580917B0487FF28C0C2
:101FE000E2DB80936F0240E250E069EA73E08EE644
:101FF00092E00E94F92E892BD1F080E2EEE6F2E029
:10200000A9EAB3E001900D928A95E1F7E091C90346
:10201000F091CA03309759F00480F581E02D309794
:1020200031F086E080936E028EE692E00995089585
:10203000BADB8093660248E050E06BEC73E086E622
:1020400092E00E94F92E892B91F388E0E6E6F2E017
:10205000ABECB3E001900D928A95E1F7E091C903F2
:10206000F091CA03309719F30280F381E02D309785
:10207000F1F286E692E0DACF811531F090913004EA
:10208000982B90933004A4CF0895811531F090914E
:102090003404982B909334049BCF0895811519F044
:1020A0000E94F10495CF0895811539F080959091A3
:1020B00034048923809334048BCF0895CF93C82FA1
:1020C0008115A1F08238A1F4A6DA81FD0FC089E361
:1020D000FFDA7EDF8FEF97EE23E0815090402040C3
:1020E000E1F700C0000089E327DB72DFCF9108959C
:1020F000833889F490DA80FDF9CF83E5E9DA68DF87
:102100008FEF91EE24E0815090402040E1F700C035
:10211000000083E5E9CF843889F47DDA82FDE6CFDB
:1021200087E4D6DA55DF8FEF91EE24E081509040BE
:102130002040E1F700C0000087E4D6CF8450813A08
:1021400068F580912801813021F480917B0487FD1E
:102150000EC0E8E6F2E08EE692E02081C217D1F0F0
:1021600031968E179F07C9F78C2FB2DABECFEC2FAE
:10217000E695E695E695F0E0E259FD4F828190E024
:102180004C2F477021E001C0220F4A95EAF78223C5
:10219000892B51F38C2FD0DA1BDFE6CF8C2F805E9A
:1021A000883060F4C77081E001C0880FCA95EAF7F3
:1021B000C0913004C82BC093300497CF8C2F855A20
:1021C000833028F48C2F8452990B34DA8FCFEC2F84
:1021D000E85AEB3148F4F0E0EE0FFF1FEC5DFD4FE5
:1021E000808191814EDA82CF8C2F8D5C833108F013
:1021F0007DCF61E08C2F7FDB79CFCF93DF93EC0134
:10220000805E9109089720F065E470E1209711F451
:102210006CE370E1CE010E9443048C2F4FDFDF910D
:10222000CF910895CF93DF93EC018A81823039F406
:10223000FB0182819381E1DF8D8182608D83DF915B
:10224000CF910895FB0180819181D7CF811509F449
:1022500046C0823849F4DFD981FF41C089E338DACA
:10226000B7DE89E369DAB4CE833841F4D4D980FF8C
:1022700036C083E52DDAACDE83E5F4CF843841F453
:10228000CAD982FF2CC087E423DAA2DE87E4EACF32
:10229000982F9450913A30F3982F905E983058F4DC
:1022A000982F81E091FD84E090FD880F92FD82954A
:1022B0000E94F104D8CF982F955A933018F480E0FB
:1022C00090E0B8C9982F985A9B3118F480E090E0BC
:1022D000D8C9982F9D5C933110F460E00CCB089521
:1022E000CF93DF93EC01B2DFCE01805E91090897B6
:1022F00020F064E570E1209711F46EE470E1CE0106
:102300000E944304DF91CF910895FC0182818130C6
:1023100029F4FB0180819181E3CF08958230E9F7B0
:10232000FB0182819381F8CF1F93CF93DF93182F06
:10233000EB01C4DE209731F4812F88DFDF91CF914C
:102340001F9108958FE99FE00197F1F700C0000009
:102350002197F0CF0E94190480936201833089F0A5
:10236000843031F0823081F460E570E089E3DCCFC5
:1023700080917D04811529F081FF03C081E00C94D8
:10238000110881E00C9408080895FF920F931F93A1
:10239000CF93DF93C62FD42FF22E8115A1F0609337
:1023A0002C04F5D98093BE029093BF0281E0C1FD59
:1023B00084E0C0FD880FC2FD82955EDECDB7DEB73A
:1023C000E5E00C94AA2F80912C0468132FC0009193
:1023D000BE021091BF02DBD9801B910B883C910596
:1023E00028F51D2F105ECD1791F0C77001E0802FEA
:1023F00001C0880FCA95EAF751DE183040F48D2FDE
:10240000877001C0000F8A95EAF7802F35DE60E003
:1024100070E08F2D89DF81E0D1FD84E0D0FD880F51
:10242000D2FD8295183050F639DEC8CF81E0C1FD6B
:1024300084E0C0FD880FC2FD8295F6CF1092300473
:1024400080912801813001F580917B0487FF1CC0B9
:10245000E0E7F2E08EE111928A95E9F780E090E002
:10246000E9D880E090E00DD910923404B1DDE4EFBA
:10247000F3E086E011928A95E9F71092F203109248
:10248000F1031092F3030FCAE8E6F2E086E0E3CF2F
:10249000D5DF8FEF94E32CE0815090402040E1F7AE
:1024A00000C0000088E19CE00FB6F894A8958093E6
:1024B00060000FBE90936000FFCFAAE2B0E0E3E6B9
:1024C000F2E10C94902F81E992E0FC0101962091B9
:1024D000F100208322E089399207B9F780919202B6
:1024E000893009F457C0C8F4823009F4B3C083308E
:1024F00009F483C0813081F18091E80083FFE7C057
:1025000080919102909192029A3008F0E0C0E92FF8
:10251000F0E0E250F04D0C94642E8A3009F48AC049
:102520008B3051F780919102813231F78091950281
:1025300090919602892B01F78091E800877F809324
:10254000E80068DB81E090919302911101C080E086
:102550008093280173DFD0CF80919102813A61F698
:102560008091E800877F8093E800809195029091A8
:102570009602892B59F060E080E090E070E0BDDACF
:102580008091E8008B778093E800B6CF68E089E916
:1025900092E0F4CF80919102813209F0ADCF809129
:1025A0009502909196028D7F892B09F0A5CF80919D
:1025B000E800877F8093E8008091E80082FF18C0E0
:1025C0002091F3008091F200922F029731F48091D4
:1025D000F100813011F0863021F48091F100809378
:1025E00027018091E8008B778093E80013DB84CF8C
:1025F00080918F038111E0CF7FCF80919102813A4A
:1026000009F07ACF8091950290919602892B09F07A
:1026100073CF8091E800877F8093E8008091E80085
:1026200080FFFCCF809128018093F1008091E80029
:102630008E77DACF80919102813209F05DCF80915F
:10264000E800877F8093E800E5DA80919402809328
:10265000260152CF80919102813A09F04DCF8091AD
:10266000E800877F8093E8008091E80080FFFCCF3E
:1026700080912601D9CF803889F0823841F5809148
:1026800095028F70873018F58093E9008091EB00F8
:1026900085FB882780F91092E90006C080916603C7
:1026A000880F90918E02892B9091E800977F9093EC
:1026B000E8008093F1001092F1008091E8008E779D
:1026C00023C0811116C080919302813009F180915D
:1026D000E80083FF0AC08091E800877F8093E800CC
:1026E0008091EB0080628093EB00AA96E3E00C946B
:1026F000AC2F823061F780919302811579F01092AE
:10270000E9008091E800877F8093E80083DADFCFDB
:10271000933009F080E080936603F1CF80919502B9
:102720008F70282F2150263090F68093E900209159
:10273000EB0020FFE4CF933031F48091EB00806216
:102740008093EB00DCCF9091EB0090619093EB00D5
:1027500021E001C0220F8A95EAF72093EA00109247
:10276000EA008091EB008860EBCF8111B0CF8091BF
:1027700093028F77182F8091E3008078812B8093CC
:10278000E3008091E800877F8093E80043DA80913E
:10279000E80080FFFCCF8091E30080688093E30035
:1027A00083E0111101C082E080938F0390CF8058A5
:1027B000823008F08CCF80919302909194028C3DEE
:1027C00023E0920789F583E08A838AE289834FB701
:1027D000F894DE01139620E03EE051E2E32FF0E0B2
:1027E00050935700849120FF03C082958F703F5F04
:1027F0008F708A30B8F0895C8D931D922F5F2431E1
:1028000069F74FBF8091E800877F8093E8006AE214
:1028100070E0CE01019671D98091E8008B778093AA
:10282000E80055CF805DE8CF292F30E02330310517
:1028300009F44DC078F52130310509F47CC08BE5F1
:1028400090E0E8ECF1E02230310509F040CF209132
:10285000E800277F2093E8002091970230919802AA
:102860008217930708F49C0140E02115310509F017
:1028700067C0411165C08091E80082FDCDCF809195
:102880008F03811549F2853039F28091E80083FF8A
:10289000F2CFC2CF809195029091960221323105FC
:1028A000D9F12232310509F012CF8330910508F0B9
:1028B0000ECFFC01EE0FFF1FEE55FE4F0190F08191
:1028C000E02D81569E4FDC018C9190E011C0282FA5
:1028D00030E0813089F022303105B1F0232B09F04E
:1028E000F6CEEFE6F2E0E4918E2F90E0EFE6F2E034
:1028F000009709F4ECCEABCFE3E5F2E0E4918E2F44
:1029000090E0E3E5F2E0F4CFE5E3F2E0E4918E2F2E
:1029100090E0E5E3F2E0ECCF8330910508F0D7CE0C
:10292000880F991FFC01E855FE4F0190F081E02DC2
:1029300089E090E08CCF82E190E0E3E2F2E087CFA3
:1029400080918F03811509F467CF853009F464CF36
:102950008091E80083FD60CF8091E80082FD8BCFFD
:102960008091E80080FF81CF4091F3008091F200D8
:10297000942F2115310519F08830910550F041E070
:10298000089709F040E08091E8008E778093E80096
:102990006CCF44914093F10031962150310901965A
:1029A000E8CF803809F093CE8091E800877F80934C
:1029B000E80080918F028093F1007FCE811187CE55
:1029C00080919302182F823008F081CE8091E80028
:1029D000877F8093E80010938F021CD91115D9F0DE
:1029E00084E080938F0342E061EC81E0E3D842E22F
:1029F00061EC84E0DFD842E261EC82E0DBD842E2C5
:102A000060EC83E0D7D880918F03843051F482E06A
:102A1000809329015CCE8091E30087FDE1CF81E0C6
:102A2000E0CF81E0F5CF1F93CF93DF93182FA091D4
:102A30001E04B0911F04109709F447C0109220049F
:102A40001092210410921C0410921B041696CD9132
:102A5000DD9118979E0131503F3100F4D1E0C11152
:102A600001C0D0E01996ED91FD911B97309731F0A0
:102A70001B966D917D9180E00995D823D11539F091
:102A80008C2F8450813A28F58C2F0E949C0B1115B5
:102A9000A9F0E0911E04F0911F04808584FD0EC012
:102AA00080911D04811551F0808191819C012150FC
:102AB00031092F333E4710F40E943E0D89DA1092FF
:102AC0001E0410921F0410921D04DF91CF911F91DC
:102AD00008957EDA8C2FBADBDACFCF93DF93EB0148
:102AE000FC014481558160857185CE010E94050BF2
:102AF0009B819095809134048923809334048C8148
:102B00000E94F10465DA87E019928A95E9F7DF916E
:102B1000CF9108950F931F93CF93DF938C01EB0117
:102B20008D8181FD17C082608D83809134049B81EB
:102B3000892B80933404809130049C81892B80936D
:102B4000300446DAF8014281538160857185CE01F7
:102B50000E94050B10922804109229048D8180FD9B
:102B600003C0BE01C801B9DFDF91CF911F910F9162
:102B700008958F929F92AF92BF92CF92DF92EF9281
:102B8000FF920F9388E090E00E940E2F4B015C01B2
:102B900060937E0490927F0480938004B0928104BD
:102BA000109282041092830410928404109285047F
:102BB00083E290E00E94062F9401A50180927E049A
:102BC00030937F04A0928004509381048093820408
:102BD0001092830410928404109285040F91FF9048
:102BE000EF90DF90CF90BF90AF909F908F9008951F
:102BF0000F931F93CF93DF93843000F56530F0F48B
:102C00004031E0F490E2699FE0011124C40FD11D2E
:102C1000C40FD11D90EA899FC00DD11D1124CE0192
:102C200089960E94062F082FCE018A960E94062FB1
:102C3000902FDF91CF911F910F91089580E090E048
:102C4000F8CF462F753030F4603120F4843010F422
:102C5000672FCECF80E090E00895CF92DF92FF9271
:102C60000F931F93CF93DF936C0100917D048091AC
:102C70003304082BC3E0D0E010E0C8010C2E02C0E2
:102C8000959587950A94E2F780FD0CC02197A8F7E7
:102C9000F12C8F2DDF91CF911F910F91FF90DF903D
:102CA000CF900895FC2EB6018C2FCBDF0E94F80543
:102CB000019761F3EECF1F93CF93DF93FC01258142
:102CC000C081D181CE01211579F0611569F0C5DF90
:102CD000182F682FCE010E946104BE01812FB1DF41
:102CE000DF91CF911F9108950E949604182FF5CF80
:102CF000CF93DF93EC01B1DFBE01A3DF0E94F805A3
:102D0000DF91CF910895FC012481211599F08081F4
:102D10009181EEDF282F92959F70963099F060F4A4
:102D2000925F9F70923030F4203FB1F038F481E030
:102D3000283E38F080E008959A5FF3CF81E0243F89
:102D4000C9F7089591E0213F09F090E081E0283E25
:102D500008F080E0892B089581E00895673521E02F
:102D600072078105910528F4CB0187559D4F0C947E
:102D7000062F80E00895CF92DF92EF92FF92CF93DB
:102D8000DF93EC01C880D980EA80FB80B601C701DF
:102D9000E5DF9FEFC91AD90AE90AF90AC882D98280
:102DA000EA82FB82DF91CF91FF90EF90DF90CF908E
:102DB000089585E290E00E94062F853269F486E24C
:102DC00090E00E94062F823139F487E290E00E9461
:102DD000062F91E0813109F090E0892F81700895EC
:102DE0000F93CF93DF93CEE7D4E0488159816A8176
:102DF0007B8188E090E00E94392F6C81262F60E073
:102E000070E0CB01622F83E20E94272FDF91CF91E8
:102E10000F91089585E080937E0410927F041092B4
:102E2000800410928104109282048EE794E0D8CF3F
:102E300080918204833018F48F5F809382048EE740
:102E400094E0CECF80918204811519F08150809357
:102E500082048EE794E0C4CFA0E0B0E0E2E3F7E1C3
:102E60000C94892F182FB62ED42FA22E90917E0469
:102E700090FF26C0092F06950695E02FF0E0E25559
:102E8000FE4F808180932E049C7F9430F1F4842F38
:102E9000493C08F088EC612F7B2D0E94FD06962F9F
:102EA000672F482F892F0E94B60710937F04B09296
:102EB0008004D0938104A11419F08EE794E090DF90
:102EC000CDB7DEB7EAE00C94A52F823019F4D0918B
:102ED0008104EBCF863019F410917F04E6CF89305E
:102EE000D9F3893111F70951E02FE695F0E0ED5063
:102EF000FA4FC4916D017601C60164E170E00E9451
:102F00003D2E862F810F00FF02C0812F861B4D2F83
:102F1000D93C08F048EC97016B2D0E947F078FEF9A
:102F2000E81AF80ACC0ED11C84E1E816F10421F766
:102F30000E94A107BACFEEE7F4E0818121E043814E
:102F40006281885F89CFEEE7F4E0818121E04381EF
:102F50006281885081CFEEE7F4E0628128E0620F61
:102F600008F46FEF21E04381818176CFEEE7F4E052
:102F7000628128E0621B08F460E021E043818181E6
:102F80006BCFEEE7F4E0438128E0420F08F44FEF07
:102F900021E06281818160CFEEE7F4E0438128E0A7
:102FA000421B08F440E021E06281818155CFAAE014
:102FB000B0E0EDEDF7E10C94892FFE013196DF01D1
:102FC0008AE01D928A95E9F799EDE92E91E0F92EB4
:102FD0008F01BE2EA12EF70181917F018F3F09F451
:102FE00044C0F894E82FE295EF70F0E021A18F70D3
:102FF00041E001C0440F8A95EAF7922F942B91A3E8
:1030000092A1842F8095892382A3789400C0EEED4D
:10301000F1E021E030E0C12CD12C41914F3F79F01B
:10302000A42FA295AF70A05EB0E08C9190E04F709D
:1030300002C0959587954A95E2F780FF3EC080E0F3
:1030400090E0C82AD92A220F331F81E0EE3EF8070C
:1030500021F7F70182918F3F11F00E94E60680EA86
:103060008A95F1F7F801C082D1820E5F1F4F8EED75
:10307000E81681E0F80609F0AECF4AE050E06B2D8B
:103080007A2D8DE993E00E94F92E892BC1F08AE018
:10309000EB2DFA2DADE9B3E001900D928A95E1F7A1
:1030A00081E0809392030E94C70B809390039093DA
:1030B00091032A96EAE00C94A52FC901C2CF809112
:1030C00092038115B1F300919003109191030E9436
:1030D000C70B801B910B059760F34AE050E06DE948
:1030E00073E083E993E00E94F92E892B49F08AE08E
:1030F000EDE9F3E0A3E9B3E001900D928A95E1F7E1
:1031000010929203D6CFA0E0B0E0E9E8F8E10C9489
:10311000872FFC018281A82EB48081E08483E3EFB5
:10312000F4E00491E2E7F5E0E491E0908104E694B4
:103130008FE7E80EF12CEE0CFF1CEF2CF12CCCEFFE
:10314000D2E06D011FEFE01B8E2F90E04C018A2D25
:10315000833030F480917F04888380918004898358
:10316000B1101AC01B821A824A81493C08F048EC0F
:103170009601698188810E947F078FEFC81AD80A5B
:10318000259684E1C816D10411F70E94A107CDB796
:10319000DEB7ECE00C94A32F8B818115E1F0815018
:1031A0008B83189FC00111246C8170E00E943D2E1A
:1031B00070E0FB01ED50FB4F8491801B189FC00114
:1031C0001124B4010E943D2E80918104689FB001BA
:1031D00011247A83C9CF0E94E02E6FEF70E00E9425
:1031E000512E8E159F050CF0BFCF8A2D833090F0A5
:1031F0000E94E02E6FEF70E00E94512E88830E94A3
:10320000E02E209180042695622F70E00E94512EBE
:10321000280F29831A8280918104893C20F088EC50
:103220008C838B83A1CF8431D8F784E1F9CF60916F
:103230007E046695669570E04BE050E08FE091E08B
:103240000E94EC2E892B19F481E080932F040E94B8
:10325000C70B8093840390938503089590917E0417
:1032600090FF2CC0811559F18B3258F58F73880F60
:10327000880F90917E049370892B80937E04611552
:1032800019F08EE794E0ACDD60917E04669566955A
:1032900070E04BE050E08FE091E00E94EC2E892B33
:1032A00091F010922F0481E08093870320E04091F9
:1032B00081046091800480917F04CECD089581E0E7
:1032C000D6CF8AE2D4CFB3DFEECF80917E0486954D
:1032D00086958F5F8B3208F081E061E0BFCF8091EF
:1032E0007E0486958695815009F48AE261E0B6CF26
:1032F000ABE0B0E0EEE7F9E10C94812F1C01FC019A
:103300008481811509F4FCC061E0C101D4DC7C0139
:10331000F1018581811501F1409028045090290424
:1033200041145104C9F0E414F504B9F0842D90E07F
:1033300000E010E0853040F42AE0289F8001299FBA
:10334000100D1124055D1E4F60E0842D0E94BD0A02
:10335000FC01892B09F082C02701F1016580C201BF
:10336000815A92454F9708F088C0720180EAE8269A
:1033700082E5F8266110C9C021E030E040E050E06D
:10338000BA01CA010E2D0E94772EA090FA03A22244
:10339000B090FB03B322C090FC03C422D090FD0385
:1033A000D522E090FE03E622F090FF03F722009181
:1033B000000408231091010419230E94902E09F49F
:1033C00090C080912A0181110CC4952D975509F068
:1033D000BFC5C42CD12C842D853008F082C0F101EA
:1033E00065810E94BD0A8C01892B09F47AC0F10124
:1033F0008581F801958180FB90F99583811509F409
:1034000081C50E94C70B80932A0490932B04F80176
:1034100082818F5F82838091340490913004892B64
:1034200083838091310484838AE08C9DF0018D9D9B
:10343000F00D1124E55DFE4F40815181608571855D
:10344000C8010E94050BF801858181FD58C5942DA6
:10345000852D909328048093290461C4858184601C
:103460008583E082F182BF01C80154DB10923404ED
:1034700061E0C10120DC2C0170CF611409F47CC231
:10348000511409F441C089E548168CE7580619F132
:1034900010921A04C20197578038910508F4D8C2D7
:1034A0008EE548168CE7580609F497C38FE5481651
:1034B0008CE7580659F08DE548168CE7580609F058
:1034C00080CF80912A01811509F487C310922A01C7
:1034D00080E0A9DA06C080911A0491E089278093E0
:1034E0001A0480913504877059F0F10185818115A6
:1034F00039F080917C0482FF03C082E00E94320890
:103500002B96E2E10C949D2F720180911A04811593
:1035100009F4E0C010921A0480ECE816F104F0F50A
:1035200080E8E816F10408F0A1C0870100541109F1
:103530000034110508F469C021E030E040E050E0BB
:10354000BA01CA010E2D0E94772EE091FA032E2BAC
:10355000E091FB033E2BE091FC034E2BE091FD0339
:103560005E2BE091FE036E2BE091FF037E2BE0913A
:1035700000048E2BE0910104E92B2093FA03309391
:10358000FB034093FC035093FD036093FE03709391
:10359000FF0380930004E093010433C021E030E096
:1035A00040E050E0BA01CA018701005C11090E94A5
:1035B000772EE09112042E2BE09113043E2BE09124
:1035C00014044E2BE09115045E2BE09116046E2B33
:1035D000E09117047E2BE09118048E2BE0911904E2
:1035E000E92B209312043093130440931404509356
:1035F0001504609316047093170480931804E093E5
:103600001904270161104CCFDCCE21E030E040E00E
:1036100050E0BA01CA010E94772EE09102042E2BDD
:10362000E09103043E2BE09104044E2BE09105044D
:103630005E2BE09106046E2BE09107047E2BE09157
:1036400008048E2BE0910904E92B209302043093A7
:10365000030440930404509305046093060470939C
:10366000070480930804E0930904CBCF21E030E005
:1036700040E050E0BA01CA018701005811090E94D8
:10368000772EE0910A042E2BE0910B043E2BE09163
:103690000C044E2BE0910D045E2BE0910E046E2B7A
:1036A000E0910F047E2BE09110048E2BE091110429
:1036B000E92B20930A0430930B0440930C0450939D
:1036C0000D0460930E0470930F0480931004E09334
:1036D000110497CF80E4E816F10408F050C0F0918F
:1036E000FA03E091FB03A091FC03B091FD038091EC
:1036F000FE038D839090FF0380900004709001047E
:1037000021E030E040E050E0BA01CA010E2D0E94F5
:10371000772EAF2EA222BE2EB322CA2EC422DB2EBB
:10372000D522ED80E622F92CF722082D0823172D4B
:1037300019230E94902E09F065CF20953095409571
:10374000509560957095809590952F233E234A2340
:103750005B23ED816E237921882197212093FA0341
:103760003093FB034093FC035093FD036093FE03EF
:103770007093FF038093000490930104B2CE80E81D
:10378000E816F10408F051C0F0910204E09103043E
:10379000A0910404B0910504809106048D8390905B
:1037A000070480900804709009048701005421E008
:1037B00030E040E050E0BA01CA010E94772EAF2EFF
:1037C000A222BE2EB322CA2EC422DB2ED522ED8029
:1037D000E622F92CF722082D0823172D19230E9421
:1037E000902E09F00FCF209530954095509560951B
:1037F0007095809590952F233E234A235B23ED817E
:103800006E237921882197212093020430930304A9
:1038100040930404509305046093060470930704D6
:1038200080930804909309045CCE80ECE816F104C0
:1038300008F051C0F0910A04E0910B04A0910C042F
:10384000B0910D0480910E048D8390900F048090B0
:103850001004709011048701005821E030E040E02E
:1038600050E0BA01CA010E94772EAF2EA222BE2ECE
:10387000B322CA2EC422DB2ED522ED80E622F92CFB
:10388000F722082D0823172D19230E94902E09F0E6
:10389000B9CE20953095409550956095709580955E
:1038A00090952F233E234A235B23ED816E237921BC
:1038B0008821972120930A0430930B0440930C0431
:1038C00050930D0460930E0470930F0480931004C2
:1038D0009093110406CEF0911204E0911304A0918C
:1038E0001404B0911504809116048D8390901704F0
:1038F00080901804709019048701005C21E030E08A
:1039000040E050E0BA01CA010E94772EAF2EA222F9
:10391000BE2EB322CA2EC422DB2ED522ED80E62293
:10392000F92CF722082D0823172D19230E94902E19
:1039300009F068CE2095309540955095609570952A
:10394000809590952F233E234A235B23ED816E23A0
:1039500079218821972120931204309313044093F6
:103960001404509315046093160470931704809305
:10397000180490931904B5CD511023CD80E4481656
:10398000510410F4E42CF8CC21E030E040E050E0A9
:10399000BA0180E848165104E8F4CA0182010054D3
:1039A0000E94772EA0900204A222B0900304B322BA
:1039B000C0900404C422D0900504D522E0900604EF
:1039C000E622F0900704F7220091080408231091E2
:1039D0000904F2CC80EC48165104E8F4CA018201D3
:1039E00000580E94772EA0900A04A222B0900B04E7
:1039F000B322C0900C04C422D0900D04D522E090D4
:103A00000E04E622F0900F04F72200911004082320
:103A100010911104D1CCCA018201005C0E94772E62
:103A2000A0901204A222B0901304B322C0901404F8
:103A3000C422D0901504D522E0901604E622F0901E
:103A40001704F72200911804082310911904B4CC2C
:103A5000142D103108F045CD66E571E080E090E06E
:103A60007DD981113ECDE12CF12C670111111FC0D0
:103A7000C982DA82EB82FC828E010F5F1F4FC80180
:103A80007AD9D02EC12E813008F42BCD09F05AC03E
:103A9000C80171D98130F9F4C8016DD960E570E0D1
:103AA000893311F060E070E00E949411E8CF87E55F
:103AB000C81681E0D806E104F10409F412CDB6017C
:103AC000C7014CD99FEFC91AD90AE90AF90A81112D
:103AD000EECF1150CBCF823029F4C8014CD90E94CF
:103AE0005E10CDCF833029F4C80145D90E9426113C
:103AF000C6CF843069F4C8013ED9E12CF12C282FBF
:103B00002053330B2A30310530F0E114F10481F4F5
:103B10008111B5CFE6CC4AE04E9DC0014F9D900D7E
:103B20001124280F391F79018D2D9C2D24D9E7CF21
:103B3000EFE9FFE03197F1F700C0000091E0E91AEA
:103B4000F108E3CFE82FF0E0E35CF84F9491992E71
:103B5000282F26952695269530E0F901E35DF84F4C
:103B6000E4908770F12C082E02C0F594E7940A9433
:103B7000E2F7F901E35EF84FC490D12C082E02C0A1
:103B8000D594C7940A94E2F7235F384FF901A490C3
:103B9000B12C02C0B594A7948A95E2F7E0FE03C069
:103BA00081EE0E945E10C0FE03C086EE0E945E1091
:103BB00060E070E0892D0E949411C0FE03C086EE83
:103BC0000E942611E0FE03C081EE0E942611A0FE95
:103BD00056CF60E070E08CE267CF81E080932A01ED
:103BE00080CC520180EEA81AB108909132048091E5
:103BF0003004982B80913104982B9D8388E0A8167F
:103C0000B10408F05FC09201277081E001C0880F05
:103C10002A95EAF7611409F450C02D81282B2D83D1
:103C2000F101808191810E94960421E030E002C080
:103C3000220F331F8A95E2F72A873B8780911E0463
:103C400090911F048E839F83809126049091270476
:103C5000888799879AE5892E92E0992E04E612E0EA
:103C6000F401E080F180E114F10409F444C08D8195
:103C7000811104C0F7018281811118C0F70183818D
:103C800090E02A858223892B89F08085982F977070
:103C900009F487E098E0A916B10408F077C0611430
:103CA00009F470C086958170811175C082E0880E1C
:103CB000911C08151905A1F61EC080959D819823B9
:103CC0009D83AECF61104BC0809126049091270454
:103CD0008415950581F41092260410922704109201
:103CE00022041092230410922404109225041092AE
:103CF00020041092210480911E0490911F040097CB
:103D000009F463CB28E0A216B10408F0E2C06D818B
:103D10000E944A0A811103C081E00E941315F1013B
:103D20009581911509F4F8C110922C049201305735
:103D30002332310508F023C584E090E00E94132F60
:103D400080937B0490937C04F201E150F047E232CF
:103D5000F10508F027C1E85FFF4C0C94642E4092F7
:103D60002604509227040E94320D6093220470931F
:103D7000230480932404909325041092200410922D
:103D800021044ECF82FB882780F98ECF611409F47D
:103D90008DCF80FF8BCFF701C080D1804C145D04A4
:103DA00019F4611409F482CF8E819F818E159F05CD
:103DB00009F47CCFF7010584F685E02D309721F0DA
:103DC0008081811509F472CF6D81C7010E944A0A72
:103DD000811509F46BCF81E04C145D0409F080E09B
:103DE0008621782EC114D10441F0811106C0888546
:103DF0009985C816D90609F059CF80E00E9413159D
:103E0000E0921E04F0921F0481E080931D04F701EC
:103E1000858180931C0471100DC0C114D10451F030
:103E2000808191819C0124503109213A3105A0F50E
:103E30000E949C0BF70106811781C80191509F31A8
:103E400008F4107EDD24D394C80101978F339E4778
:103E500008F0D12CF7010184F285E02D309749F06C
:103E6000D7011B966D917D9181E009959D2D982339
:103E7000D92ED11471F0F701868197810E94270411
:103E800080931B0488E0A816B10448F4C8010E947E
:103E90003E0D0E94E80F0BC00E942611CBCFC80137
:103EA0000497813A910548F4802F0E94680B7114A1
:103EB00009F48BCA0E94E80F14CB0E94E80F8FE32D
:103EC0009CE90197F1F700C00000802F0E945E106E
:103ED000EECFFC01208131812415350541F46110BC
:103EE00009C010921D0480E00E9413156ECA61146F
:103EF00009F46BCAFC01808585FD67CAF4CF80E0B8
:103F000090E0A7CA2AE02C9DC0012D9D900D1124A0
:103F1000855D9E4F7C01FC014681578160857185DE
:103F2000C8010E94050BF801858181FFF8CEB80118
:103F3000C7010E946D1580912804909129044816AC
:103F4000590609F0ECCE1092280410922904E7CE0D
:103F5000F1018581F201E851FC47E730F10508F0F5
:103F6000DECEE65DFF4C0C94642E26E241EE61EE5F
:103F70000E94C511B6CA27E245EE65EEF9CF26E2EA
:103F800041EE60EEF5CF27E245EE64EEF1CF26E29A
:103F900041EE62EEEDCF27E245EE66EEE9CF28E294
:103FA00041E0EBCF80917B04816080937B04609142
:103FB0007B0470917C0484E090E00E94412F0E9479
:103FC0001E128FCA80917C04886080937C04EFCF9E
:103FD00080917B048260E9CF80917B048460E5CF8F
:103FE00080917B048860E1CF80917C048160EDCF7B
:103FF00080917C048260E9CF80917B048061D5CF81
:1040000080917B048062D1CF80917B048064CDCF8E
:104010000E941E1280917B048068C7CF80917B0430
:104020008C60C3CF80917C048360CFCF80917B0470
:104030008E7FBBCF80917C04877FC7CF80917B042C
:104040008D7FB3CF80917B048B7FAFCF80917B043A
:10405000877FABCF80917C048E7FB7CF80917C042B
:104060008D7FB3CF80917B048F7E9FCF80917B0427
:104070008F7D9BCF80917B048F7B97CF0E941E12F8
:1040800080917B048F7791CF80917B04837F8DCF4C
:1040900080917C048C7F99CF90917B04892F8B7FBA
:1040A00092FF8460877F92FF88607FCF80917C043D
:1040B000982F909590FB80F990FB81F986CF909195
:1040C0007B04892F8F7B96FF80646FCF0E941E1226
:1040D00090917B04892F97FB87F9805866CF61E028
:1040E0008EE090E00E94272F62CF60E0F9CF9091A0
:1040F0007B04892F8F7E94FF806157CF90917B0442
:10410000892F8E7F90FF816050CF90917C04892F02
:10411000877F93FF886059CF86E148168CE7580661
:1041200009F023C380913004282F217179F48A7A11
:10413000911581F091E0811101C090E090932D04E0
:10414000811531F085E30E94680BB4CE80E0F0CF9A
:1041500089E2F9CF80912D04811521F085E30E9439
:104160009C0BA8CE89E2FBCF80917E0480FF0CC01F
:104170008E7F80937E048EE794E00E94F01610926A
:104180002F040E94A107ADC9816080937E0461E085
:104190008695869563D8A5C9811521F0A0D8A1C9B7
:1041A0008115E1F392D89DC9811529F00E94A317CA
:1041B00098C98115D9F30E949B1793C9811529F0DD
:1041C0000E94B6178EC98115D9F30E94AB1789C911
:1041D000811529F00E94CC1784C98115D9F30E945A
:1041E000C1177FC9811529F00E9422177AC981154C
:1041F000D9F30E94181775C987E748168CE7580647
:10420000F9F088E748168CE7580619F19201205E0C
:1042100032452032310510F5911137C0842D8F7150
:1042200001E010E002C0000F111F8A95E2F7602F35
:1042300083E090E00E94272F802F0E945E0451C9E6
:1042400081E00E94080843E062E081E00E944C089F
:1042500048C982E0911509F48FC2F3CF911509F492
:104260003FC08BE548168CE7580681F18CE548166F
:104270008CE7580601F18AE548168CE7580621F1CB
:1042800081E048168CE7580649F183E048168CE730
:104290005806F1F041148CE7580611F50E941E12E1
:1042A0008FEF94E32CE0815090402040E1F700C074
:1042B00000000E94ED0E80917C04002482FF039494
:1042C000802D0E94750F0DC981E0FBCF80E0F9CFF2
:1042D0006FEF7FEF80E090E00E94412F0E94481234
:1042E000F10100811181911509F447C0C8010E94B4
:1042F0002D16F82E682FC8010E946104B8018F2D79
:104300000E9421160E94F805182FC92EF101D580B0
:10431000F680F2948FE0F82280913504877001F1E5
:10432000ED2CD114F1F0892F807F803461F0812F42
:10433000805E8830A8F0892F807E803221F4123090
:1043400078F0F11469F080917C0482FF09C082E06A
:104350000E943208809135048770EE24E394811125
:10436000E12CEC2DE295EF708C2D803C08F06AC0BA
:10437000F0E0EF5CFF4C0C94642EC8010E949604A0
:10438000F82EBCCF0C2D0F70803110F00295007FFD
:10439000D114B9F0011569F0812F805E883010F0DA
:1043A000111109C080913004802B809330040E9449
:1043B000E80F812F3FC080913404802B8093340418
:1043C000F6CF812F0E9426110115E1F1812F805E29
:1043D000883010F0111104C0802F0E94F10406C033
:1043E0000095809134048023809334040E94E80F68
:1043F00029C00C2D0F70807F803211F00295007F54
:10440000113040F009F475C0D11409F480C0F114E2
:10441000B1F1CFCF80917C0482FD2DC0D11469F021
:10442000011539F080913004802B809330040E9474
:10443000E80F80E00E945E1005C080E00E94261117
:104440000111CACFE11409F4C4C08091350480FD84
:10445000C0C0F10115828695869586950E94080850
:10446000C1010E94781980913504869586958695BC
:104470000E941108AEC0D114D1F0F11004C0802FF9
:104480000E943C10DFCF8F2D8130E1F68091310406
:10449000182F80230817B1F20E94C70B80933804AD
:1044A00090933904812F802B80933104CBCFF1106E
:1044B000C9CF802F0E944E1090913104802F892304
:1044C00069F0802F809589238093310490E08111D9
:1044D0000E94C70B80933804909339048091320472
:1044E000902F982309F4AECF00950823009332044F
:1044F000A9CF8F2DD11421F0833008F0A3CFBFCFE7
:10450000823008F09FCF802F0E944E109BCFF11475
:10451000D1F3193349F48FEF97EE23E081509040A7
:104520002040E1F700C00000812F0E9426118ACFB1
:10453000869586958370813060F009F083CF812F56
:104540009C2D9370D11002C080E090E00E94410B3E
:1045500079CF812F9C2D9370D11002C080E090E024
:104560000E941A0B6FCF6D2D812F0E947B0C6ACF9A
:10457000837009F03FC0D11028C0812F82958695A5
:104580008770880F880F412F4F70082E01C0440F8D
:104590000A94EAF7212F207114FF06C02FE001C012
:1045A000220F8A95EAF720958C2D86958695837043
:1045B000982F8230B9F08330D1F08091330491305C
:1045C00071F0242B82230E945E040E940B0B0E9438
:1045D0006A0860E0C1010E945B160C94801A842B6B
:1045E000822BF1CF242B809133048227ECCF822FB2
:1045F000842BE9CFD11459F1C0FEE7CF812F8295EA
:1046000086958770880F880F412F4F70082E01C044
:10461000440F0A94EAF7212F207114FF06C02FE0FF
:1046200001C0220F8A95EAF720958C2D86958695F4
:104630008370982F823091F08330A9F080917D04AF
:10464000913049F0242B82230E940408BECF82308F
:1046500008F4BBCFD3CF842B822BF6CF242B8091B1
:104660007D048227F1CF822F842BEECF8F70082F0D
:10467000D11431F00E940808812F0E943C10A5CF70
:10468000812F0E944E10802F0E9411089ECF123F52
:1046900081F170F4103FC9F0113F91F0D11409F489
:1046A00050C0F11409F44AC0812F0E945E108DCFD2
:1046B000133F29F1143F91F780917C0482FD2CC0B7
:1046C0008C2D8F71D11401F317C08F2DD11479F077
:1046D000823008F07ACF8C2D8F71282F81E001C0B5
:1046E000880F2A95EAF790917D048927ADCF833012
:1046F000F0CF8F71D110C8CF0E94080866CF80E03C
:10470000D11409F4A1CF8C2D8F71982F81E001C0B5
:10471000880F9A95EAF798CFD11429F08C2D8F71D4
:104720000E940F0C52CF81E00E9432088F2D823000
:1047300008F44BCF82E00E94320847CF8C2D8F7156
:10474000DBCFF11479F0193349F48FEF97EE23E0C2
:10475000815090402040E1F700C00000812F0E946E
:10476000261133CF8C2D8F718FCF87E748168CE7BA
:10477000580609F046CD81E00E94110864CD86E11B
:1047800048168CE7580609F4CDCC8091300482722B
:10479000F201E052F847EB30F10508F02DCDE35C73
:1047A000FF4C0C94642E80917A04803170F48091D7
:1047B0007904811551F0E0913B0420913A04309145
:1047C0007504409174042E1301C00895BF0187E061
:1047D000E89FF0011124DF01A45CBB4F14968C917B
:1047E0001497811559F111968C911197831326C056
:1047F0008C91841323C015968C91159781111EC03E
:1048000012968D919D91A0917604B09177048A1BA8
:104810009B0B883C910590F480917A048F708061A5
:1048200080937A04EE5BFB4F80818F708061808380
:1048300084E794E00E9478190C94E7046F5F7F4F3F
:10484000FB01E770C0CFADE0B0E0E9E2F4E20C9428
:10485000862F8C0186E0F801DE01189601900D92FA
:104860008A95E1F7F801F580848194E7892E94E038
:10487000992E70907804711017C0811591F0F11481
:1048800009F414C1C8010E948316811509F40EC1F0
:1048900087E0F801A4E7B4E001900D928A95E1F772
:1048A00082DFFF24F39456C0D080A280B380C090F2
:1048B00079042091760430917704A501421B530BB3
:1048C000C11409F4C3C0483C510508F079C08115F2
:1048D00041F3809175049180E0907A049E2D90318F
:1048E00008F059C0981215C0809174048D1111C040
:1048F000F1104BC08E2D8F70806180937A0484E715
:1049000094E00E94781980917A04F8018683F12C52
:1049100021C0F1103AC040E0692D8D2D0E94C804DD
:1049200040E0692D8D2D0E94C804F82E8111EFCF33
:10493000888599850E947816292F22952F709034AA
:1049400070F49F702230A0F09115B1F0F8019681BB
:10495000903190F48F2D2D96EDE00C94A22F2A5FCC
:104960002F70223068F0C8010E947819FC2CF2CF19
:10497000911511F0811571F3805E883058F3F3CFF3
:10498000803F40F3815F8330F9CF80917A0481606A
:1049900080937A04BCCF98123AC0809174048D1130
:1049A00036C0F11034C0E682C8010E94781987E051
:1049B000F801A4E7B4E001900D928A95E1F771CF78
:1049C000E0907A049E2D903150F484E794E00E94A8
:1049D0007819F40187E011928A95E9F798CF81154B
:1049E00009F45FCF909175048181981310C0809174
:1049F00074048D110CC0F1100AC0E682C8010E9437
:104A00007819F40187E011928A95E9F74ACFC80135
:104A10000E948316811509F449C0F11409F446C0B7
:104A20008E2D803208F434CF8091740490917504F7
:104A300089839A83AB82BC827D821E8280917A04B4
:104A40008F83CE0101960E94781922CF483C5105F0
:104A500008F0BFCF811509F424CFF11439F19091FA
:104A600075048181981318C0809174048D1114C04D
:104A700080917A0480FD9BCF803108F498CF8683A3
:104A8000807F803F09F490CF8681982F907F905F40
:104A90008F70892B868388CFC8010E94831681116D
:104AA000F7CE80917A04816080937A04C8010E94D5
:104AB0007819F7CEABE1B0E0E0E6F5E20C948F2F89
:104AC0004E8B5F8B688F798F8A8F192F9B8F9111F7
:104AD000109234041D8A86E0FE017696DE011F9650
:104AE00001900D928A95E1F70A8D80917C0482FFF6
:104AF0001FC00E94C70B2091360430913704821BDF
:104B0000930B8C3D954038F08091350482FD03C0B5
:104B100082E00E9432080E94C70B20913804309135
:104B20003904821B930B8C3D954010F00E94F904D0
:104B3000011561F00B8B1C8B61E0CE010F960E947A
:104B40005B1661E0CE010F960E945B160B8B1C8BEF
:104B500087E0FE013F96DE01189601900D928A953E
:104B6000E1F7CE0108966FDE811128C020913A044A
:104B700030913B0487E0AE01485F5F4FFA01475038
:104B80005109DA0101900D928A95E1F78C85811522
:104B9000A9F0822F90E08395877090E0AC013417E4
:104BA0001506B1F40E941E1210923A0410923B04B2
:104BB000E4E7F4E087E011928A95E9F780913B04FD
:104BC00090913A04891317C06B96E4E00C94AB2FD4
:104BD00097E0929FD0011124A45CBB4F9E012F5FF0
:104BE0003F4FF90101900D929A95E1F740933A04F5
:104BF0000E94E704E3CF27E0829FC0011124845C78
:104C00009B4F21DE811501F380913B0490913C0480
:104C10000196877080933B04D1CFA6E0B0E0E3E13A
:104C2000F6E20C948F2F0E94C70B8C018091A70392
:104C30009091A8038017910771F019821A820E943F
:104C4000C70BBC0149815A8180E090E033DF0093BB
:104C5000A7031093A8032696E4E00C94AB2F809151
:104C60007E04816080937E0460E0869586950C9436
:104C70002E19A0E1B0E0EFE3F6E20C94832FFE01E1
:104C80003196DF0180E11D928A95E9F706E110E097
:104C900099EAA92E92E0B92E612C712C230153942C
:104CA0004A189E2E8F2E6201730181E1481651042D
:104CB000610471041CF080E1C82ED12CA601B5015D
:104CC000892D982D0E94182FAC0CBD1C0D2C000CAA
:104CD00000084C185D08600870080150104019F772
:104CE0006096E0E10C949F2F6FEF85E290E00E94C8
:104CF000272F6FEF86E290E00E94272F6FEF87E269
:104D000090E00E94272F60E088E290E00E94272F29
:104D10000E94B00FAEDF65E285E290E00E94272F8F
:104D200062E186E290E00E94272F61E187E290E055
:104D30000C94272FCDB7DEB7A6970FB6F894DEBF39
:104D40000FBECDBF85B7806885BF85B7806885BF3A
:104D500084B7877F84BF0FB6F894A89580916000D0
:104D6000886180936000109260000FBE80E890E040
:104D70000FB6F89480936100909361000FBE81E0BC
:104D80008093290184EE96E08093640290936502FB
:104D90000E94A90E0E945A0E8091E20084608093C6
:104DA000E200789480918F03811599F08091E90059
:104DB0001091EC008F7010FB112717F9182B10922F
:104DC000E9008091E80083FD0E945D121F7010933E
:104DD000E90082E084BD93E095BD9AEF97BD809392
:104DE0006E000E94D916811101C07EDF09ED11E02D
:104DF000F80181918F018F3F11F00E94E60681E05A
:104E00000E3D1807A9F73EEDE32E31E0F32E0EEE2E
:104E100011E0F70181917F018F3F11F00E94E606BA
:104E20000E151F05B1F7E3E9F3E08AE011928A95C8
:104E3000E9F7EDE9F3E08AE011928A95E9F740E0BD
:104E400060E080E00E94B60780E090E0ECD7833E0F
:104E50009E4F21F40E94D916811125C063EE7EEF8A
:104E600080E090E00E94412F60E082E090E0EFD788
:104E700081E08093330461E083E090E0E8D760E074
:104E800074E184E090E0FDD70E940A172DDF60E016
:104E900070E0AB018FE090E0ECD760E070E0AB0138
:104EA00083E190E0E6D782E090E0B0D78093710391
:104EB00084E090E0B8D780937B0490937C040E94B8
:104EC000D7178FEF96E721E0815090402040E1F71F
:104ED00000C000000E94D7178091930380FF07C095
:104EE0006FEF7FEF80E090E0CCD70E94ED0E83E083
:104EF00090E08CD70E945E0480917D040E94D307CD
:104F0000879A8F9A80916203811120C08EE794E086
:104F10000E94B91580917E04843030F40E940A17F3
:104F20008EE794E00E94B9150E948C0710922F041E
:104F30000E943D0A80917E0480FF05C060E0869556
:104F400086950E942E1981E0809362038AE191E0A8
:104F50008093C9039093CA03332433947E018FEF67
:104F6000E81AF80A80918F0300E110E422E1D22EC2
:104F7000853009F4F2C00E94D71782E793E089A335
:104F80009AA383E993E08BA39CA3FC01A2E7B3E07F
:104F90002D913D918081918143E0AC37B40709F4B4
:104FA000F0C032962817390799F307E613E0212C51
:104FB000EBA1FCA1A190B190EBA3FCA3E9A1FAA104
:104FC00081919191E9A3FAA38A159B0509F44DC03B
:104FD0008A259B258DA39EA3C12CD12C46018394A9
:104FE0008DA19EA188219921892B89F13501682005
:104FF000792081E0482E512C0C2C02C0440C551C09
:105000000A94E2F7F8018081918184219521892B0E
:1050100099F4C9822A820E94C70B8B839C833D82AC
:1050200091E06114710409F490E09E8349815A81F2
:105030006B817C818D813EDD672849F440945094DA
:10504000F801808191818421952180839183880C4E
:10505000991C8FEFC81AD80A80E1C816D10409F04C
:10506000BFCFE9A1FAA1B292A29223940E5F1F4F83
:10507000822D853009F09CCF0E94320D87C080912F
:105080008F03843009F439C080E00E946A081092CE
:105090002F048091650381110DC0309265038091CA
:1050A0007E04982F9170909364038E7F80937E048A
:1050B0000E94A1071092630388E190E00FB6F89474
:1050C000A895809360000FBE1093600083B7817F26
:1050D000846083BF83B7816083BF7894889583B7EA
:1050E0008E7F83BF0FB6F894A89580916000886189
:1050F00080936000109260000FBE0E94D717E3E912
:10510000F3E0A7E6B3E080E0219131912D933D9348
:1051100091E0232B09F490E0892B2DE933E02E1741
:105120003F0791F78115C9F0809166038115A9F0B9
:1051300009BDD9BC09B400FEFDCF8091D8008F7D98
:105140008093D8008091E00082608093E00080919D
:10515000E00081FDFCCF0E941E1280918F038530FC
:1051600009F48DCF0E941E120E940B0B0E946A0848
:105170001092650380916403811171DD0E941719FB
:10518000FACE2817390709F010CF47DD0091200427
:105190001091210401151105A1F1809080039090D8
:1051A0008103A0908203B09083030E94320DDC0142
:1051B000CB0188199909AA09BB0940917C03509138
:1051C0007D0360917E0370917F0384179507A60786
:1051D000B707B8F0C8010E94FD1010922004109289
:1051E0002104109280031092810310928203109286
:1051F000830310927C0310927D0310927E03109221
:105200007F03C0902804D0902904C114D10439F13F
:1052100000912A0410912B040E94C70B801B910B54
:10522000893C9105E0F08C2D90E000E010E08530A5
:1052300040F42AE0289F8001299F100D1124055D6C
:105240001E4F60E08C2D0E94BD0A009741F0FC01CA
:10525000258122FD04C0BC01C8010E948A158091ED
:105260002F04811509F444C080912E04E0917E043E
:10527000E695E695E81BE0938603853109F49CC129
:1052800008F047C1893009F48BC108F033C182307E
:1052900009F470C1863009F478C100ED17E0ACEF75
:1052A000CA2EA6E0DA2E80918703811561F0109254
:1052B00087030E94C70B8093840390938503109209
:1052C0008803109289030E94C70B209184033091B8
:1052D0008503821B930B8F3F9F4750F4200F311F94
:1052E000209384033093850384E893E0F6010995C5
:1052F00086E0E4EFF3E0D70101900D928A95E1F7A3
:105300009090F503B090F6031091F703A090F80386
:105310000091F9031092F6031092F7031092F8032C
:105320001092F903812F8B2909F441C0C0908C039E
:10533000D0908D030E94C70B8C199D099C01909100
:10534000F203911509F4FFC22531310580F19F3F29
:1053500019F09F5F9093F203B11459F00E94780AFC
:1053600091E01B140CF09FEF899F802D11248093F6
:10537000F603111559F00E94780A91E011160CF00D
:105380009FEF899F802D11248093F7038091F6036E
:10539000811569F0D090F703D11449F00E946A0A90
:1053A0008093F6038D2D0E946A0A8093F7038A2D5D
:1053B000802B09F441C0C0908A03D0908B030E94D7
:1053C000C70B8C199D099C019091F103911509F46B
:1053D000B5C22135310580F19F3F19F09F5F909351
:1053E000F103A11459F00E94980A91E01A140CF0EC
:1053F0009FEF899F802D11248093F803011559F0A8
:105400000E94980A91E010160CF09FEF899F802D62
:1054100011248093F9038091F803811569F0D090ED
:10542000F903D11449F00E946A0A8093F8038D2D84
:105430000E946A0A8093F9038091F503891119C0CB
:105440008091F603811511F08B1113C02091F703A1
:10545000211511F021130DC09091F903911511F050
:10546000901307C03091F803311103C0822B892BB0
:1054700011F00E94530C86E0F701A4EFB3E0019015
:105480000D928A95E1F70E940B0B182F80918E03E5
:10549000181739F010938E030E94320D812F0E944D
:1054A0006A0880918F03843009F05CCD83E080939B
:1054B000E9008091E80082FF55CD8091E80090E0FE
:1054C00085FF06C00E94290E811509F480C091E075
:1054D0008091E8008B778093E800911509F442CD24
:1054E0008981E82FE150E33108F09BC0F0E0E85BF0
:1054F000FF4CEAC38F3009F0D0CEE695F0E0E050E3
:10550000F94FE4910E2F10E06EEEC62E68E0D62E15
:10551000CACE04EF11E029E0C22E2AE0D22E843256
:1055200009F4C1CEA8F408E210E096E9C92E99E08A
:10553000D92E883109F4B7CE833209F0AECEEBEF25
:10554000F6E00591159148E7C42E48E0D42EABCE85
:10555000853209F0A2CE8E2F63E076D3E92FF0E0FA
:10556000E850F94FE4910E2F10E033E8C32E38E1F4
:10557000D32E99CEF0E0E75FF84FE4910E2F10E0C4
:10558000F2EBCF2EF8E0DF2E8ECEF0E0EA5FF84FA0
:10559000E4910E2F10E0E3EACE2EE8E0DE2E83CE7B
:1055A000E695F0E0ED5FF84FE4910E2F10E075EC1A
:1055B000C72E78E0D72E77CEF0E0E350F94FE49194
:1055C0000E2F10E05BE4C52E59E0D52E6CCE80E2A4
:1055D000C82ED12C87018091E80085FD0AC08091FA
:1055E000E8008B778093E8000E94290E811599F3DB
:1055F0006ECF8091F100F801808381E0C81AD10854
:1056000009F465CF0F5F1F4FE6CF1A828CE08B83C2
:1056100019C08A81833079F138F4813021F18230E8
:1056200051F08FEF89830EC08430D9F71B821C8222
:105630001D821E8207C088E290E0E8D31B821C8294
:105640001D828E83E091C903F091CA03309709F45B
:1056500089CC0284F385E02D309709F483CC60E295
:10566000C70109957FCC0E94320D34D36B837C83B4
:105670008D839E83E7CF8B8190E0F7018530910584
:105680000CF73296118212820196F8CF8A8182300D
:1056900081F0853031F680917E0480FF13C08091C7
:1056A0007E048E7F80937E0410922F040E94A107B7
:1056B000C9CF6B817C818D819E810CD388E290E083
:1056C000C6D3C0CFCCDABECF4C816B818A810E9419
:1056D000F8159827892798278D839E83B3CF2D812E
:1056E0003E813227232732274C816B818A810E9499
:1056F0008B0FA8CF0E94B00FA5CF9A81923009F0EE
:1057000090CF8830A1F1893009F45CC08B8183305F
:1057100051F178F48130B1F0823009F093CF8C816F
:10572000811509F4BCCF9BDA60E08C810E942E19B0
:1057300089CF843009F086CF20E0409181046D81CB
:105740008C810EC08C8128EC829FC00111246FEFE8
:1057500070E093D2462F20E06091800480917F0416
:105760000E942C176FCF8C81809382046BCF8B812A
:10577000833029F168F48130A9F0823009F062CFDA
:1057800080917E0480FF19C0869586958C835ACFC0
:10579000843009F057CF80917F048C8380918004FE
:1057A0008D8350CF809181042FEF829FC0011124FF
:1057B00068EC70E062D26C8345CF80E0E7CF8091E7
:1057C0008204E4CF0E948C078EE794E00E94F016DA
:1057D00039CF80E18A8336CF81E08A8387E517CF8E
:1057E0008A809B80982489249824A12CB12C67015D
:1057F0008C818701080F111DC016D10609F422CF34
:1058000087E5881681E09806A104B10478F4C40104
:1058100087559D4FFBD2F60184838FEFC81AD80AB3
:105820008FEF881A980AA80AB80AE6CF80E0F3CF6B
:10583000DC808A809B80982489249824A12CB12C18
:105840008701250132014D1451046104710408F0EF
:10585000F9CE87E5881681E09806A104B10430F4FA
:10586000F8016481C40187559D4FF1D28FEF481A2A
:10587000580A680A780A8FEF881A980AA80AB80A9C
:105880000F5F1F4FE0CFF5D9DDCE84E0A3CFDC80E2
:105890008A809B80982489249824A12CB12C2501EE
:1058A00032018E010B5F1F4F4D14510461047104CE
:1058B00008F0C8CE80E8881682E09806A104B104FA
:1058C00088F4C4018996A2D2F80181938F018FEFE9
:1058D000481A580A680A780A8FEF881A980AA80A9C
:1058E000B80AE2CF80E0F0CFDC808A809B809824E9
:1058F00089249824A12CB12C8701250132014D1453
:1059000051046104710408F09DCE80E8881682E09D
:105910009806A104B10428F4F8016481C4018996B1
:1059200096D28FEF481A580A680A780A8FEF881AB9
:10593000980AA80AB80A0F5F1F4FE1CF2B30310534
:1059400008F04CCD79CD2B30310508F002CD2FCDAC
:105950001F921FB61F9211248F939F93AF93BF93F3
:1059600080916303811113C08091A1029091A202E2
:10597000A091A302B091A4024196A11DB11D8093F4
:10598000A1029093A202A093A302B093A402BF919C
:10599000AF919F918F911F901FBE1F901895789483
:1059A0001F921FB61F9211248F939F93AF93BF93A3
:1059B0008091A1029091A202A091A302B091A402B1
:1059C0000196A11DB11D8093A1029093A202A09304
:1059D000A302B093A402BF91AF919F918F911F90AA
:1059E0001FBE1F9018951F920F920FB60F92112491
:1059F0002F933F934F935F936F937F938F939F93D7
:105A0000AF93BF93EF93FF938091E10082FF09C0B2
:105A10008091E20082FF05C08091E1008B7F80933E
:105A2000E1008091DA0080FF24C08091D80080FFDF
:105A300020C08091DA008E7F8093DA008091D900B7
:105A400080FFA9C080E189BD82E189BD09B400FE63
:105A5000FDCF81E080938F0380919002811109C076
:105A60000E94A90E0E945A0E8091E20084608093E9
:105A7000E2008091E10080FF1AC08091E20080FF87
:105A800016C08091E2008E7F8093E2008091E20058
:105A900080618093E2008091D80080628093D8007A
:105AA00019BC85E080938F0383E080932901809166
:105AB000E10084FF2FC08091E20084FF2BC080E1D1
:105AC00089BD82E189BD09B400FEFDCF8091D80077
:105AD0008F7D8093D8008091E1008F7E8093E100DC
