:100000000C94DF030C9417040C9417040C9417043D
:100010000C9417040C9417040C9417040C941704F4
:100020000C9417040C9417040C94A9280C946528BC
:100030000C94A6290C9417040C9417040C94170420
:100040000C9417040C9417040C9417040C941704C4
:100050000C9417040C9482290C9417040C94170424
:100060000C9417040C9417040C9417040C941704A4
:100070000C9417040C9417040C9417040C94170494
:100080000C9417040C9417040C9417040C94170484
:100090000C9417040C9417040C9417040C94170474
:1000A0000C9417040C9417040C941704050109020E
:1000B000A10185020901A1000509190129081500FE
:1000C0002501950875018102050109300931158165
:1000D000257F95027508810609381581257F9501D0
:1000E00075088106050C0A38021581257F95017572
:1000F000088106C0C005010980A101850319012AF4
:10010000B700150126B700950175108100C0050CD8
:100110000901A101850419012AA002150126A002E6
:10012000950175108100C005010906A1018506052C
:100130000719E029E71500250195087501810205D9
:1001400007190029EF1500250195F07501810205B9
:10015000081901290595057501910295017503910D
:1001600001C00660FF0961A1010962150026FF00B8
:100170009520750881020963150026FF00952075FA
:10018000089102C005010906A101050719E029E748
:1001900015002501950875018102950175088101F9
:1001A0000507190029FF150026FF0095067508812F
:1001B000000508190129051500250195057501910E
:1001C00002950175039101C00000000000000000CD
:1001D000000000000000000000000000000000001F
:1001E0000000000000000000000000007E0F00D4AE
:1001F000FFFFFFC7000000780000000000000000C3
:100200002A2B280000000000000000000000000071
:1002100000000029000000002C1E3420212224347C
:100220002627252E362D3738271E1F20212223244E
:1002300025263333362E37381F0405060708090AEA
:100240000B0C0D0E0F101112131415161718191A86
:100250001B1C1D2F3130232D350405060708090A04
:100260000B0C0D0E0F101112131415161718191A66
:100270001B1C1D2F3130354C1E0F0500047F3F1F06
:10028000643214643214783C1E1E140A0500010105
:100290000101010101010102020202020202020245
:1002A0000303030303030303040404040404040515
:1002B00005050505060606060607070707070808D9
:1002C0000808090909090A0A0A0B0B0B0C0C0C0D8A
:1002D0000D0D0E0E0E0F0F0F101011111112121323
:1002E000131414151516161717181819191A1A1B9E
:1002F0001B1C1D1D1E1E1F202021222223242425FD
:100300002626272829292A2B2C2D2D2E2F30313235
:1003100032333435363738393A3B3C3D3E3F404145
:1003200042434445464748494A4C4D4E4F5051532D
:1003300054555658595A5B5D5E5F616264656668E4
:10034000696B6C6D6F7072737577787A7B7D7E8068
:1003500082838587888A8C8E8F91939596989A9CB4
:100360009EA0A2A3A5A7A9ABADAFB1B3B5B7BABCC8
:10037000BEC0C2C4C6C9CBCDCFD1D4D6D8DBDDDF99
:10038000E2E4E7E9EBEEF0F3F5F8FAFDFFFFAA7F10
:1003900055402223252628292A2C2D2F303233356B
:1003A00036383A3B3D3E4042434547494A4C4E5021
:1003B00051535557595A5C5E6062646668696B6D4B
:1003C0006F71737577797B7D7F81838587898A8C4F
:1003D0008E90929496989A9C9E9FA1A3A5A7A8AA56
:1003E000ACAEAFB1B3B4B6B8B9BBBCBEBFC1C2C38B
:1003F000C5C6C7C9CACBCCCDCED0D1D2D2D3D4D525
:10040000D6D7D7D8D9D9DADADBDBDBDCDCDCDCDC4D
:10041000DDDDDDDDDCDCDCDCDCDBDBDBDADAD9D925
:10042000D8D7D7D6D5D4D3D2D2D1D0CECDCCCBCAB3
:10043000C9C7C6C5C3C2C1BFBEBCBBB9B8B6B4B3D9
:10044000B1AFAEACAAA8A7A5A3A19F9E9C9A98966F
:100450009492908E8C8A89878583817F7D7B797742
:100460007573716F6D6B6968666462605E5C5A5922
:1004700057555351504E4C4A4947454342403E3DE3
:100480003B3A3836353332302F2D2C2A2928262571
:100490002322167C1E001F002000210022002300C2
:1004A00024002500260027002D002E002A004C00E5
:1004B000A8002B0014001A000800150017001C00EB
:1004C00018000C00120013002F00300031000357F9
:1004D0000457005704001600070009000A000B002B
:1004E0000D000E000F003300340028000000000053
:1004F0000000E10000001D001B00060019000500BF
:1005000011001000360037003800E5000157520096
:100510000000E000E300E2000000000000002C000A
:10052000000000000000E6000257E4005000510007
:100530004F0035003A003B003C003D003E003F00CC
:100540004000410042004300440045004C00490087
:10055000460001004A0052004D004B00010001001E
:100560000100010001000100010001000100010083
:1005700001000100500051004F004E000100010039
:10058000010001000100010001002801000000003D
:1005900000000100000001000100B20001000100A4
:1005A000110A2903010001000100010001000100FE
:1005B00000000100010001000000000000004C00EC
:1005C00000000000000001000100652101000100A1
:1005D00001003500010001000100010001000100DF
:1005E0005F00600061000100560057004C020100EE
:1005F000A60001004A0052004D004B00010001001E
:100600005C005D005E000100550054000100010027
:1006100001000100500051004F004E000100010098
:1006200059005A005B000100010028010000000091
:1006300000000100000001000100B2000100010003
:10064000010062006200630053000100010001002C
:10065000000001000B70010000000000000001001C
:100660000000000000000100010001000100010085
:10067000010020782B78010001001370AA00A90066
:10068000AE00A8000100010001000100010001000E
:100690000100010001000100010001000100010052
:1006A0000100010001000100010001000100010042
:1006B000007C0100010001000100010001000100B7
:1006C0000100010001000100010001000000000024
:1006D0000000010000000100010001000100010014
:1006E00001001003010001000100010001000100F0
:1006F00000000100010001000000000000000100F6
:100700000000000000000100005201000100010093
:10071000010009025B00030100A0FA0904000001C6
:100720000301010009211101000122440007058194
:10073000030800010904010002030000000921115F
:1007400001000122220007058203200001070503A2
:100750000320000109040200010300000009211127
:1007600001000122B60007058403200001120100E8
:1007700002000000086B7011000100010200011C62
:100780000369006B006B00690036003800200041EF
:1007900000750072006F007200610000001A03779C
:1007A000007500710075006500200073007400750D
:1007B00000640069006F00000004030904001124B4
:1007C0001FBECFEFDAE0DEBFCDBF04B603FE18C018
:1007D0008091400490914104A0914204B09143045F
:1007E0008730904BA740B04B59F4109240041092C0
:1007F00041041092420410924304E0E0F8E30995AA
:1008000024E0AAE3B2E001C01D92A034B207E1F7F0
:1008100012E0A0E0B1E0EEE9F5E602C005900D922D
:10082000AA33B107D9F70E94CD290C9466320C94F3
:100830000000482F209137049091FE0357E02913C0
:1008400002C080E0089530E0529FF001539FF00D08
:100850001124E150FC4F8181681306C08081481348
:1008600003C085818111EECF2F5F3F4F2770E7CF07
:10087000E8EDF0E080818E7F80831092E20010929C
:10088000DA001092E100A0EEB0E08C9181608C93D0
:1008900080818F77808319BCA7EDB0E08C918E7F2B
:1008A0008C9380818F7E80831092E703089520913E
:1008B000E4003091E50095E6A9012091EC00822F3B
:1008C000817020FF06C08091E80080FF06C080E0B4
:1008D00008952091E80022FD1AC08091F403882336
:1008E00089F0853089F08091EB0085FD0FC0209163
:1008F000E4003091E50042175307F9F29150E1F618
:1009000084E0089582E0089583E0089581E00895E9
:100910008091F60387FF13C08091E80082FF06C034
:100920008091E8008B778093E80004C08091F40305
:100930008111F2CF08958091F4038823D9F3809137
:10094000E80080FFF8CF8091E8008E77ECCF982FF9
:100950009093E900242F762F50E0891731F07091A1
:10096000EC002091ED005091F00021FD07C09F5F49
:10097000973071F78093E90081E008953091EB00A2
:100980003E7F3093EB003091ED003D7F3093ED00E2
:100990003091EB0031603093EB007093EC002093CA
:1009A000ED005093F0002091EE0027FDE0CF80E0B5
:1009B0000895B0E0A0E0EFEDF4E00C94C930C8ED8C
:1009C000D0E088818F7E8883E7EDF0E080818160D0
:1009D000808384E082BF81E08093E70388818E7FFB
:1009E000888302EE10E0F80110821092DA0081EEA6
:1009F000C82ED12CF601108288818F778883888158
:100A00008068888388818F7D888319BC1092F40365
:100A10001092F5031092F3031092F20390EEE92E78
:100A2000F12CF70180818B7F8083888181608883AE
:100A300042E060E080E00E94A704F60180818E7FA2
:100A40008083F801808181608083808188608083D9
:100A5000F70180818E7F8083888180618883CDB714
:100A6000DEB7E8E00C94E530FC018091FC03909146
:100A7000FD0386179707A0F06115710529F4909181
:100A8000E8009E779093E80090E06115710551F4BD
:100A9000911108C08091E80082FF34C080E0089581
:100AA000BC01F2CF8091F4038823C1F18530C1F1FC
:100AB0008091E80083FD30C08091E80082FDEACF9C
:100AC0008091E80080FFE1CF8091F3002091F20057
:100AD000382F6115710519F02830310558F091E073
:100AE0002830310509F090E02091E8002E7720931E
:100AF000E800CBCF81918093F100615071092F5FA5
:100B00003F4FE7CF8091F403882341F0853041F0D7
:100B10008091E80083FFBECF81E0089582E00895D0
:100B200083E008958091E90308959C014FB7F894FC
:100B30008091E3039091E403A091E503B091E60373
:100B40004FBF821B930B08952FB7F8946091E30376
:100B50007091E4038091E5039091E6032FBF08951F
:100B60002FB7F8948091E3039091E403A091E503FB
:100B7000B091E6032FBF0895909183019923D1F09E
:100B800090913E0497FF16C0E82FE695E695E6950E
:100B9000EE31E0F4F0E0EC5BFD4F282F277081E0B0
:100BA00090E001C0880F2A95EAF780959281892309
:100BB00082830895EEE3F2E09191891303C0DF018F
:100BC00011971C9292E0E434F907B1F708959091DF
:100BD00083019923C1F090913E0497FF14C0E82F40
:100BE000E695E695E695EE31F8F4F0E0EC5BFD4F26
:100BF000877021E030E001C0220F8A95EAF78281F8
:100C0000822B82830895AEE3B2E0EFEF90E02D9166
:100C1000821751F0EF3F19F4211101C0E92F9F5FB6
:100C20009630A9F7EF3F09F408950E2E000CFF0B44
:100C3000E45CFD4FE6CFA3E0B0E0E1E2F6E00C9427
:100C4000CF302091E0033091E10328173907A1F05C
:100C50009093E1038093E003E091DE03F091DF03E2
:100C6000309751F024E029839B838A830084F185A7
:100C7000E02DCE01019609952396E2E00C94EB302D
:100C8000A3E0B0E0E6E4F6E00C94CF302091DC0382
:100C90003091DD0328173907A1F09093DD0380938D
:100CA000DC03E091DE03F091DF03309751F023E0A5
:100CB00029839B838A830084F185E02DCE010196F0
:100CC00009952396E2E00C94EB30E091DE03F0917D
:100CD000DF03309729F00190F081E02D0995089508
:100CE00080E008954115510511F0FA010995089524
:100CF0000E94B0059C019091D4038091D503982B5C
:100D000021F03093D1032093D0039091D6038091AA
:100D1000D703982B21F03093CF032093CE03E0919B
:100D2000DE03F091DF03309749F082E08093D20335
:100D30000680F781E02D82ED93E00995089580917A
:100D4000CD0380FD16C081FD16C082FD16C08091C6
:100D5000CC038823A1F0883280F428E0829FC00170
:100D6000112468E270E00E948F30862F672B39F0E3
:100D7000089582E0089584E0089588E0089581E070
:100D800008958091CD0380FD14C081FD14C082FDC3
:100D900016C08091CB03882381F08E3180F420E54A
:100DA000829FC00111246EE170E00E948F30862F77
:100DB000089584E1089588E2089588E0089580E523
:100DC0000895282F35EB2303C001112497FF04C099
:100DD00080589109892F089580589F4FFBCFCF935A
:100DE000DF93EC014091C0035091C1036091C203B5
:100DF0007091C3032FB7F8948091E3039091E403BB
:100E0000A091E503B091E6032FBF841B950BA60BC1
:100E1000B70B843F9140A105B10518F58091C0033F
:100E20009091C103A091C203B091C3038093BC030E
:100E30009093BD03A093BE03B093BF0384EF91E0F2
:100E4000A0E0B0E08093B8039093B903A093BA03F5
:100E5000B093BB03D093C803C093C703DF91CF9176
:100E600008950E94A4056093BC037093BD03809312
:100E7000BE039093BF0382E390E0A0E0B0E0E2CF36
:100E8000FC018481862351F492819923B9F069236E
:100E9000808583FF05C081E061110FC080E0089567
:100EA000892F8F7092959F70982B862F8F706295E7
:100EB0006F70682B81E09613F1CF089581E0FDCF2C
:100EC000FA01811101C0FB010995089508958091EF
:100ED000B00380FD0AC0E0E1F3E0118210821282CB
:100EE000339683E0EC34F807C1F764E170E080E109
:100EF00093E00E94ED0F08959091B00390FF0CC015
:100F0000E0E1F3E0818360834283339693E0EC3445
:100F1000F907C1F70E94670708958091B003982FE1
:100F20009C7F61F4837084608093B0038091B303ED
:100F3000893C18F088EC8093B30308958C3AB0F3A1
:100F40008370886AF1CFAF92BF92DF92EF92FF92E7
:100F50000F931F93CF93DF93182F062FE901493C7E
:100F600008F048ECE42FF0E0E357FD4F011110C00A
:100F7000E4915E2F4E2F4983E8835A83DF91CF910E
:100F80001F910F91FF90EF90DF90BF90AF90089569
:100F9000202F30E04491D42EE42EF12C56E0159F02
:100FA000C0011124EFEFF0E0BF010E947B30812FE0
:100FB00090E0880F991F55E5569FD001579FB00DBF
:100FC00011248A1B9B0B982F990F890F5F01A21A7E
:100FD000B30AAE9CD001AF9CB00DBE9CB00D1124E5
:100FE0005B2F089F80011124012F11275F01A01A98
:100FF000B10AAE9C8001AF9C100DBE9C100D112457
:101000005F01A81AB108A29EC001A39E900DB29ED6
:10101000900D1124892F9927E81BF90BEE9DC00133
:10102000EF9D900DFE9D900D1124E92F623071050A
:10103000A1F050F46115710509F49DCF613071057F
:1010400081F0EB2F512F97CF6430710569F080F05C
:101050006630710509F48FCFF4CFE42F4B2F592F51
:101060008ACFE42F412F87CFEB2F542F492F83CFE7
:101070004B2F5D2DE12F7FCFEF92FF920F931F93A8
:10108000CF93DF938C01C0E1D3E0F12CE12CF80188
:1010900094816091B2038091B103FAE0EF16F104FC
:1010A000ECF49923E9F09E014091B3030E94A30759
:1010B0002FEFE21AF20A239684E1E816F10439F7D9
:1010C0000E946707F801848190E00196817099275A
:1010D0008483CDB7DEB7E6E00C94E730992319F3AB
:1010E0009E0140E0E3CFA3E0B0E0E9E7F8E00C9434
:1010F000CD308C0180910F0381110AC09E012F5FBA
:101100003F4F48EC6FEF0E94A3078A8180930F0343
:10111000F8016481613069F080910F0340E066233B
:1011200061F040E0623011F440910F0380E060E034
:1011300004C060910F0340E080E00E947C07F8014A
:10114000848190E0019663E070E00E948F30848398
:101150002396E4E00C94E930B0E0A0E0E2EBF8E0A4
:101160000C94C530EC014C81042F10E09801D8019B
:101170000E9457329B01AC010E9422324B015C015C
:10118000E0E2F0E0E01BF10BA5E5B0E0AC019B0173
:101190000E9422326B017C019F01DF010E94B0306E
:1011A0009B01AC010E942D329B01AC01280D391D21
:1011B0004A1D5B1DC701B6010E943532F22E822FF7
:1011C00090E039E23F1598F143E0249F900111240B
:1011D00035952795122F109590E1C92E93E0D92EC1
:1011E00000E085E5E82EEF188E2D01FD8F2D96018C
:1011F000412F6091B2030E94A3070F5F53E0C50E19
:10120000D11C043189F70E9467079C8181E09923F2
:1012100019F0903219F48FEF80938201809182014E
:10122000890F8C83CDB7DEB7ECE00C94E13025E577
:1012300030E0A901481B590BCA019A01220F331F44
:10124000280F391F37FFC4CF2F5F3F4FC1CF0F93F8
:101250001F93CF93DF93C0E1D3E0FE011182108290
:101260001282339683E0EC34F807C1F710E000E017
:1012700080910E03082E000C990B081719078CF1AA
:1012800080918101082E000C990B801791074CF179
:101290009E014091B3036091B2038091B1030E941B
:1012A000A3070F5F1F4F23960431110509F70E9412
:1012B00067078091800190910E03980F90930E0321
:1012C00020918101280F20938101121614F493318B
:1012D0001CF0819580938001DF91CF911F910F9138
:1012E0000895198218821A82DCCFB0E0A0E0EBE703
:1012F000F9E00C94C830FC018281DD24DA9480FD91
:1013000002C0DD24D39400E113E0D0E0C0E024E18A
:10131000B22EF80111821082128294E0E92EF12C93
:10132000C12C80910D038C0D8531C4F16B2D0E9471
:101330006D30892F082E000C990B8C179D0791F4A6
:101340008091B3038E9DA0018F9D500D1124559562
:1013500047955595479598016091B2038091B103E7
:101360000E94A307CD0CF1E0EF1AF108D1F6219607
:101370000D5F1F4FC431D10561F60E946707809150
:101380000D0391E0D91210C081110CC083E180934C
:101390000D03CDB7DEB7E9E00C94E43087FFCACF88
:1013A0008C5EC8CF8150F3CF90E00196BE010E94C1
:1013B0008F30EDCFEF92FF921F93CF93DF93EC012D
:1013C00080E1E82E83E0F82E10E08C8197014091B7
:1013D000B3036091B203810F0E94A307145F83E0FF
:1013E000E80EF11C103F89F70E9467079A818C81F3
:1013F00090FF08C08F5F8C83DF91CF911F91FF908A
:10140000EF9008958150F7CFA3E0B0E0EAE0FAE072
:101410000C94CF309091B00390FF0AC09E012F5FD3
:101420003F4F0E94A3074B8169818A810E947C07FC
:101430002396E2E00C94EB30CF93DF93EC01E0EBEA
:10144000F3E0438162818C810E94040A8C818F5F6A
:101450008C83DF91CF910895CF93DF93EC01EC81E2
:10146000F0E0EE56FC4F4491E0EBF3E062818181C5
:101470000E94040A8C818F5F8C83DF91CF91089545
:1014800080E00895F894E82FE295EF70F0E031A144
:10149000282F2F7081E090E001C0880F2A95EAF78D
:1014A000982F9095932391A392A1892B82A378944E
:1014B000089590913E0492FF10C041E0282F2471BE
:1014C000243009F040E031E0282F2871283009F05D
:1014D00030E0431711F02CE0822793FF10C041E069
:1014E000282F2471243109F040E031E0282F2871A1
:1014F000283109F030E0431711F02CE082273091B9
:101500003F0430FF10C051E0282F2171213009F035
:1015100050E041E0282F2871283009F040E05417AE
:1015200011F029E0822731FF10C041E0282F2171FE
:10153000213109F040E031E0282F2871283109F0ED
:1015400030E0431711F029E0822794FD877E08954B
:1015500082389105B9F1B0F48133910509F47DC069
:1015600048F48932910509F46DC08A32910509F475
:101570007BC008958533910509F45FC089339105D7
:1015800009F10895833E9105D9F138F4803E910523
:1015900029F1823E910579F10895863E9105D9F1B0
:1015A000873E910509F43EC0843E910541F52091A6
:1015B0003F0421FF24C080913E0484FD19C087EEC2
:1015C00090E0089520913E04237009F05AC02091C4
:1015D0003F0423FF14C089E290E0089520913E0467
:1015E00020FD38C030913F0430FF09C024FF43C0C4
:1015F00090E080E0089520913E0422FDF7CF089509
:1016000020913E0422FD3AC030913F0430FD39C0A4
:1016100024FFF5CFEDCF20913E0423FFF0CF24FD32
:10162000E7CFCDCF20913E0423FD2EC030913F0463
:1016300031FFEECF84EE90E0089520913E0425FF27
:10164000DECFC9CF20913E0425FD21C020913F046B
:1016500023FFD5CF89E390E0D2CF20913E0426FF2F
:10166000CECF8AE290E0089520913E0426FFC7CFB6
:1016700081E390E0089583EE90E0089582EE90E09B
:10168000089580EE90E0089586EE90E0089585E359
:1016900090E008951F93CF93DF930E94A80AEC0176
:1016A000C11580E5D807F0F5C11580E4D80708F02A
:1016B0009CC0C03ED10520F5CD3CD10508F082C0CC
:1016C000C83AD10578F4C53AD10508F073C0C130E5
:1016D000D10519F1209709F1C430D105F0F4D0E01B
:1016E000C0E01BC0C33CD105D0F7C85AD0E0CC0F36
:1016F000DD1FCC54DE4F0990D881C02DD4640DC0BD
:10170000C11580E2D80708F0D1C0C11581E0D80723
:1017100008F05AC0C83ED10510F7CE01DF91CF9135
:101720001F910895C03682E5D80718F5C03482E5C8
:10173000D80708F06BC0C03282E5D80708F05FC058
:10174000C11582E5D80708F497C02C2F2695269559
:1017500080E2289F900111248C2F8370C1E0D0E09B
:1017600002C0CC0FDD1F8A95E2F7C22BD32BDD68B8
:10177000D4CFC03A82E5D80760F4C03882E5D807F4
:1017800008F459C0CF71D0E0DC2FCC27C46FD06AE9
:10179000C4CFC03C82E5D80708F462C0C03E82E5F1
:1017A000D80708F09CCFDC2FCC27CC27DF71C06F87
:1017B000D06AB3CFC55AD0E0CF54DE4FC881D0E055
:1017C000D064ABCFD065A9CF8D2F0E94590A182FB6
:1017D000CE0199270E94A80AC12FD0E0DC2FCC2788
:1017E000CC27DF71C82BD92B98CFCE0199270E9427
:1017F000A80ACC27DF70C82BD92BD06A8ECFCF7127
:10180000D0E0DC2FCC27C16FD06A87CF2C2F269554
:101810002695277080E2289F900111248C2F8370D9
:10182000C1E0D0E002C0CC0FDD1F8A95E2F7C22BE9
:10183000D32BDC6872CF2C2F26952695277080E25B
:10184000289F900111248C2F8370C1E0D0E002C04A
:10185000CC0FDD1F8A95E2F7C22BD32BDA685DCF60
:101860008C2F8F710E94590AC82FD0E0DC2FCC2713
:10187000CC27DF71D06251CF8C2F8F710E94590A13
:1018800055E0D695C7955A95E1F7CF70D0E0DC2F9B
:10189000CC27282F30E084FF05C044E0220F331FFF
:1018A0004A95E1F7C22BD32BD06937CF8D2F8F719B
:1018B0000E94590A182FCE0199270E94A80AC12F09
:1018C000D0E0DC2FCC27CC27DF71C82BD92BD2CF8F
:1018D0008091D802882331F01092D8021092D7025A
:1018E0001092D602089580959091D80398239093F2
:1018F000D803089580959091D90398239093D903A4
:101900000895CF938091D903C091D803C82B8091BB
:10191000D802882309F10E94B0052091D6023091A7
:10192000D702821B930B8C3D954010F00E94680CEF
:101930008091D802C82B809183018823B1F08091D7
:101940003E0487FF12C08EE126E432E090E0815031
:1019500080F491110E94680C8091C40380958C23BF
:101960009091C503892BCF91089586E02EE332E054
:10197000EDCFF90141919F01442349F39F5FE7CFE8
:10198000809137049091FE03981301C008958F5FF2
:101990008770FACF953080F5803170F540E1949FE3
:1019A00090011124820F932F911D682F677023E0FF
:1019B000969587952A95E1F7FC01EE0FFF1FE80F3A
:1019C000F91FE757FD4F50E040E080E0219130E003
:1019D000062E02C0369527950A94E2F72170332728
:1019E000042E01C0220F0A94EAF7822B4F5F5F4F4B
:1019F0004330510559F7089580E00895953098F5E2
:101A0000803188F540E1949F90011124820F932F3B
:101A1000911D282F277041E001C0440F2A95EAF755
:101A200023E0969587952A95E1F7FC01EE0FFF1FBD
:101A3000E80FF91FE757FD4F90E080E070E051910B
:101A4000DF0111979B01082E02C0369527950A9455
:101A5000E2F7217021952527242325272C93019631
:101A60008330910561F708958093E80208954091CD
:101A7000D4039091D6032091D703662309F469C05B
:101A8000942B922B2091D503922B31F098E09093D8
:101A9000CB0391E09093CC038D3C41F40E94C106AE
:101AA00081958093D5030E94780608958E3C19F4A1
:101AB0000E94C106F6CF8F3C31F40E94C106819589
:101AC0008093D403F0CF803D19F40E94C106F8CF73
:101AD000893D29F40E949F068093D603E4CF8A3D76
:101AE00021F40E949F068195F7CF8B3D31F40E942F
:101AF0009F0681958093D703D6CF8C3D19F40E9421
:101B00009F06F8CF9FE2980F983070F4815D990B93
:101B100021E030E001C0220F8A95EAF78091D303DB
:101B2000822B8093D303BFCF8D3D31F48091CD03C1
:101B300081608093CD03B7CF8E3D21F48091CD039A
:101B40008260F7CF8F3D09F0AECF8091CD038460E6
:101B5000F0CF8D3C59F48091D50387FF0DC01092D2
:101B6000D50341110BC01092CB0308C08E3C81F409
:101B70008091D50318169CF3442381F08091D603FD
:101B80009091D703892B09F08ECF1092CC038BCF85
:101B90008F3C49F447FFF0CF1092D4038091D503D6
:101BA0008111ECCFE0CF803D19F41416ACF3E4CFF3
:101BB000893D29F4191604F71092D603DDCF8A3D2A
:101BC00019F497FFD9CFF8CF8B3D29F427FFD4CF55
:101BD0001092D703D1CF8C3D19F41216CCF3CCCF91
:101BE0009FE2980F983090F4815D990B21E030E0EE
:101BF000B90102C0660F771F8A95E2F7CB01809585
:101C00009091D30389238093D303B6CF8D3D31F4D4
:101C10008091CD038E7F8093CD03AECF8E3D21F496
:101C20008091CD038D7FF7CF8F3D09F0A5CF8091B7
:101C3000CD038B7FF0CFCF93C82F4AE468E281FDBC
:101C400002C040E060E080E00E947C07C1FD04C06B
:101C50008F9A81E0CF9108958F98FBCF982F92951E
:101C60009F7011F0892F94E0282F2695269511F06A
:101C70009E5F822F869509F09F5F892F08959C01B2
:101C80003A9521153F4150F5FC01EE27F170BC015A
:101C900066277270AC01442754709C01222738706B
:101CA00094FF0EC080E1EF2B09F480E0672B09F070
:101CB0008062452B09F08064232B89F080680895A9
:101CC00081E0EF2B09F480E0672B09F08260452B5F
:101CD00009F08460232B19F08860089580E008954E
:101CE000FC019281913029F4858180FF06C083E058
:101CF0000895923021F081E0089582E0089584E013
:101D00000895CF93C82F0E942E0E823061F0833049
:101D100071F0813081F441E16CEC8AEA0E947C0729
:101D20008C2FCF91089540E069E98FEFF7CF47E717
:101D300060E08EEEF3CF40E060E080E0EFCF0E9405
:101D4000810E8093E90208959091E90221E030E04C
:101D5000F90101C0EE0F8A95EAF7D90102C0AA0F76
:101D6000BB1F6A95E2F7EA2B01C0220F4A95EAF7FA
:101D7000892F8E23E81305C0292B822F0E949F0EE6
:101D8000089520952923F9CF21E030E001C0220FEA
:101D90008A95EAF720958091E90282230E949F0E9E
:101DA000089590913D048095892380933D04282FC8
:101DB000277089F4891779F090913F0492FF0BC046
:101DC0008695869586950E94C40E10923D041092C9
:101DD0003C0410923B04089580911901833011F462
:101DE0000E94C40E089580911701833019F482E097
:101DF0000E94C40E089580911501833019F481E08A
:101E00000E94C40E10921501089521E030E001C037
:101E1000220F8A95EAF78091E902822B0E949F0E99
:101E2000089590913F0492FF10C098E0899F90011F
:101E30001124236020933D040E94050F0E94B005E9
:101E400090933C0480933B0408950E94050F0895ED
:101E50000E94700E809319018330A9F0843049F0FC
:101E60008230A1F483E00E94110F81E00E94D10E24
:101E700008958091E902882331F083FF04C083E054
:101E80000E94C40E089583E00E94050F08950E94E9
:101E9000700E809317018330A1F0843041F08230BE
:101EA00099F40E94110F81E00E94D10E0895809153
:101EB000E902882331F082FF04C082E00E94C40E50
:101EC000089582E00E94050F08950F931F93CF930A
:101ED000DF938B01EA019091F403943061F58093D4
:101EE000E9008FEF9091E800815095FD06C095EDD7
:101EF0009A95F1F700008111F5CF8091E80085FFF8
:101F00001AC00E945704811111C08091E80085FD1C
:101F100006C08091E8008E778093E800F2CFF80148
:101F200081918F018093F100219779F78091E800EA
:101F30008E778093E800DF91CF911F910F910895E4
:101F400043E050E0BC0184E00E94650F089546E044
:101F500050E0BC0184E00E94650F089540E250E02B
:101F6000BC0184E00E94650F0895CF93DF93EC01DC
:101F700048E050E0BC0181E00E94650F88E0FE016E
:101F8000AAEEB3E001900D928A95E1F7DF91CF912F
:101F9000089581E08093E00080E28093D800109261
:101FA000C9008FE19EE40197F1F700C0000087E0CF
:101FB00090EBDC018093400490934104A093420491
:101FC000B093430488E19CE00FB6F894A895809301
:101FD00060000FBE90936000FFCF6A9A4EB14B7FB6
:101FE0005EB15460EFB7F8949B01220F331F260FA8
:101FF000371F280F391F2817390741F4EFBF8FE526
:1020000094E00197F1F700C000000895DC016D91A4
:10201000CD0178E05EB9000000C067FF4EB9660FE1
:10202000000000C000C000C04EB900C07A9591F712
:10203000E2CFCF93C82F6FEF811163E285E290E08A
:102040000E94CF316FEFC11162E186E290E00E9401
:10205000CF316FEFC11166E287E290E00E94CF318D
:10206000CF910895CF93DF93C9EAD2E060E0CE012B
:102070000E94CF312196C11584E0D807B9F7DF91CE
:10208000CF9108951F93CF93DF93122F8430E0F404
:102090006530D0F44031C0F490E2699FE001112432
:1020A00050E0440F551FC40FD51F90EA899FC00D03
:1020B000D11D1124632FCE0189960E94CF31612F4B
:1020C000CE018A960E94CF31DF91CF911F91089562
:1020D000AF92BF92CF92DF92EF92FF921F93CF9376
:1020E000DF9382E9C82E84E0D82ED0E07601C0E0EC
:1020F00014C0F50125913491412F6C2F8D2F0E9432
:10210000421082E0A80EB11C1F5F103191F780E2EF
:10211000E80EF11CCF5FC53019F0570110E0E9CF90
:10212000DF5F80EAC80ED11CD43001F7DF91CF9178
:102130001F91FF90EF90DF90CF90BF90AF900895E8
:1021400080E00E94191060E088E290E00E94CF31A8
:102150000E9468100E94321081E00E9419100895B8
:1021600085E290E00E94AB31833289F486E290E010
:102170000E94AB31823159F487E290E00E94AB318A
:1021800091E0863209F090E0892F8170089580E017
:10219000FCCF0F931F93CF93DF93843030F56530DE
:1021A00020F5403110F520E2629F8001112450E0BB
:1021B000440F551F040F151F30EA839F000D111D9A
:1021C0001124C80189960E94AB31C82FD0E0DC2FC2
:1021D000CC27C8018A960E94AB319E01282BC901E9
:1021E000DF91CF911F910F91089590E080E0F8CF9B
:1021F000462F753040F4603130F4843020F4672F7E
:102200000E94C910089590E080E00895CF92DF9277
:10221000FF920F931F93CF93DF936C010091E9021C
:102220008091E802082BC3E0D0E010E0FC2EC8014A
:102230000C2E02C0959587950A94E2F780FD0CC09C
:102240002197A0F7F12C8F2DDF91CF911F910F9146
:10225000FF90DF90CF900895B6018C2F0E94F81068
:102260000E944A0B019761F3EECFCF93DF93EC010D
:102270000E940611BE010E94F8100E944A0BDF91D5
:10228000CF910895FC0124812223C1F080819181A6
:102290000E94351192959F70963091F058F4925F9C
:1022A0009F70923058F4803F19F030F4883E30F43B
:1022B00081E008959A5FF4CF843FD1F380E00895E0
:1022C000883EB0F3813FD1F7F3CFA6E0B0E0EBE674
:1022D000F1E10C94CE3026E0FC01DE011196019074
:1022E0000D922A95E1F7FC01258189819A812223AB
:1022F00099F0662389F00E940611182F682F8981B2
:102300009A810E94FE0C69817A81812F0E94F810C7
:102310002696E3E00C94EA300E94CA0C182FF3CF03
:10232000B0E0A0E0E6E9F1E10C94C130FC0162808C
:10233000448081E08483E2E9F3E07490E1E1F4E039
:10234000E4910091B3030695015810E0000F111FAE
:10235000012F1127CCE4D3E020E1C22E23E0D22EBE
:1023600030EB832E33E0932EAA24AA94B12C55246B
:102370005A94E719EE2EF12C82E0861530F0809108
:10238000B10388838091B2038983411016C01B82F8
:102390001A8296014A81698188810E94A307259645
:1023A00083E0C80ED11C8C169D0631F70E9467078A
:1023B000CDB7DEB7E0E10C94DD308B818823E9F006
:1023C00081508B83859DC00111246C8170E00E9437
:1023D0007B30FB01FF27EE56FC4F8491E82FE71975
:1023E000E59DC0011124B7010E947B308091B303A9
:1023F000689FB00111247A83CCCF0E948131B5014E
:102400000E948F308017910724F682E0861588F4A9
:102410000E948131B5010E948F3088830E948131F2
:102420002091B2032695622F70E00E948F30280F12
:1024300029831A828091B303893C20F088EC8C8335
:102440008B83A7CF8431D8F784E1F9CF6091B003B3
:102450006695669570E04BE050E085E791E00E945C
:102460009131892B19F481E080930C030E94B0050F
:1024700090930603809305030895B0E0A0E0E3E4A1
:10248000F2E10C94C53049015A016B017C010E94B4
:102490008D078401A4016A2D7B2D88E090E00E94C5
:1024A000E13194014A2D5B2DB601C70100E20E9483
:1024B0001131622F84E290E00E94CF31CDB7DEB7B8
:1024C000ECE00C94E130A3E0B0E0E9E6F2E10C943A
:1024D000C230F82E762EE42E622E9091B00390FF3B
:1024E0002FC0E92FE695E695AE2FB0E0A150BE4F84
:1024F0008C9180930B039C7F943031F59E012F5F6C
:102500003F4F8F2D0E94A3074B8169818A810E94D2
:102510007C07F092B1037092B203E092B30366209D
:1025200079F02091B0036091B4037091B5033F2D11
:10253000472D5E2D8091B6039091B7030E943D1206
:102540002396EFE00C94DE30823019F4E090B30370
:10255000E0CF863019F4F090B103DBCF8930D9F3A6
:102560008931B9F6E9518E2F8170582EE695F0E049
:10257000E357FC4FE4910E2F10E080E1C82E83E07A
:10258000D82EB12CA12C94E1892E912CC501B40137
:102590000E947B308F2D511013C0860F96014E2D57
:1025A000672D0E94A307A00EB11E83E0C80ED11CA8
:1025B0008CE4C81683E0D80649F70E946707A9CFC4
:1025C000861BECCFE0EBF3E0438128E0421B08F4EC
:1025D00040E021E0628181810E9463120895E0EB76
:1025E000F3E0438128E0420F08F44FEF21E06281DD
:1025F00081810E9463120895E0EBF3E0628128E09C
:10260000621B08F460E021E0438181810E94631233
:102610000895E0EBF3E0628128E0620F08F46FEFC9
:1026200021E0438181810E9463120895E0EBF3E091
:10263000818121E04381628188500E946312089564
:10264000E0EBF3E0818121E043816281885F0E94B9
:10265000631208958091B403882319F08150809308
:10266000B4032091B0033091B1034091B203509173
:10267000B3036091B4037091B5038091B603909158
:10268000B7030E943D1208958091B403833018F47B
:102690008F5F8093B4032091B0033091B1034091D8
:1026A000B2035091B3036091B4037091B50380916C
:1026B000B6039091B7030E943D1208959091B00324
:1026C00090FF35C09370811133C094609093B00334
:1026D000662391F02091B0033091B1034091B20391
:1026E0005091B3036091B4037091B5038091B60328
:1026F0009091B7030E943D126091B0036695669574
:1027000070E04BE050E085E791E00E949131892B29
:10271000B9F010920C0381E08093080320E040910F
:10272000B3036091B2038091B1030E9463120895D4
:102730008B3210F0986ACACF880F880F982BC6CFBB
:102740000E942612E8CFE0EBF3E080818160808375
:1027500060E0869586950E945E1308958091B0038F
:1027600086958695815009F48AE261E00E945E13A5
:1027700008958091B003869586958F5F8B3208F01F
:1027800081E061E00E945E1308959091B00390FF94
:1027900009C096959695981728F0961718F40E94F8
:1027A000B913089561E00E945E13089590913F046B
:1027B00092FB222720F9281779F080FB92F9909359
:1027C0003F0460913E0470913F0484E090E00E94D9
:1027D000ED3182E00E94D10E08958091830188231B
:1027E00059F180913E0487FF27C00E94810C80939D
:1027F000450240E250E06EEA72E084E492E00E941A
:102800009E31892BC1F080E2E4E4F2E0AEEAB2E06E
:1028100001900D928A95E1F7E091DE03F091DF03DC
:10282000309749F086E0809344020480F581E02DE2
:1028300084E492E0099508950E94810C80933C0203
:1028400048E050E06EEC72E08CE392E00E949E3132
:10285000892B89F388E0ECE3F2E0AEECB2E0019082
:102860000D928A95E1F7E091DE03F091DF03309756
:1028700011F30280F381E02D8CE392E0DBCFCF9364
:10288000DF93EC014A855B856E857F850E94720629
:102890008B810E94730C8C810E947A0C0E94ED1334
:1028A00086E0FE0111928A95E9F7DF91CF910895B4
:1028B000CF93DF93EC018D8181FD17C082608D8302
:1028C0008091D8039B81892B8093D8038091D90371
:1028D0009C81892B8093D9030E94ED1348855985EB
:1028E0006E857F85CE010E9472061092DB031092E6
:1028F000DA038D8180FD03C0CE010E943F14DF9179
:10290000CF9108951092D90380918301882339F1E2
:1029100080913E0487FF23C0E6E4F2E08EE1DF0110
:102920001D928A95E9F790E080E00E94400690E0D1
:1029300080E00E941B061092D8030E94ED1386E0EF
:10294000E2EDF3E0DF011D928A95E9F71092CB03E7
:102950001092CC031092CD030E9478060895EEE306
:10296000F2E086E0DCCFAAE2B0E0E9EBF4E10C941F
:10297000CE3086EF93E02091F100DC012D93CD0164
:10298000B3E08E3F9B07B9F78091F703833009F4DA
:1029900072C0B8F4813009F449C0823009F4B3C080
:1029A0008091E80083FF8BC28091F6039091F7033A
:1029B0009A3008F084C2E92FF0E0E859FD4C0C94FD
:1029C000A3308A3009F48EC08B3009F471C089308D
:1029D00039F78091F603813219F78091FA039091CB
:1029E000FB03009711F00297D9F68091E800877FEA
:1029F0008093E8008091E80082FF38C09091F30056
:102A00008091F200029731F48091F100813011F051
:102A1000863021F48091F1008093E9038091E800F1
:102A20008B778093E8000E948804BACF8091F603E8
:102A3000813A09F0B5CF8091E800877F8093E80064
:102A40008091FA039091FB03892B61F468E08AEE90
:102A500093E070E00E9434058091E8008B778093CA
:102A6000E8009ECF60E090E080E0F3CF8091F40337
:102A70008111C0CF95CF8091F603813A09F090CFB4
:102A80008091FA039091FB03892B09F089CF809103
:102A9000E800877F8093E8008091E80080FFFCCF0A
:102AA000809183018093F1008091E8008E77B9CF07
:102AB0008091F603813209F073CF8091FA039091EF
:102AC000FB03892B09F06CCF8091E800877F80930E
:102AD000E8000E9488048091F803809383010E949B
:102AE00082145ECF8091F603813209F059CF809134
:102AF000E800877F8093E8000E9488048091F903B2
:102B00008093E8034DCF8091F603813A09F048CFD6
:102B10008091E800877F8093E8008091E80080FF43
:102B2000FCCF8091E803BECF803899F0823809F05D
:102B3000C6C18091FA038F70873008F0C0C18093BE
:102B4000E9008091EB0085FB882780F91092E9006D
:102B500006C08091F2039091F303911182609091ED
:102B6000E800977F9093E8008093F1001092F100C5
:102B70008091E8008E779FC1882309F48DC182304F
:102B800009F09DC18091F803811190C18091FA03F1
:102B90008F702FEF280F263008F091C18093E90045
:102BA0002091EB0020FF82C1933031F48091EB0043
:102BB00080628093EB007AC19091EB0090619093DA
:102BC000EB0021E030E001C0220F8A95EAF7209364
:102BD000EA001092EA008091EB008860EACF811150
:102BE0006EC11091F8031F778091E3008078812BEC
:102BF0008093E3008091E800877F8093E8000E9443
:102C000088048091E80080FFFCCF8091E300806819
:102C10008093E30082E0111183E08093F4034FC1BD
:102C20008058823008F04BC12091F8033091F903AD
:102C30002C3DE3E03E07A1F583E08A838AE28983A5
:102C40004FB7F894DE01139620E03EE051E2E32F07
:102C5000F0E050935700E49120FF03C0E295EF703D
:102C60003F5FEF708E2F90E0EA30C0F0C7968D93F3
:102C70009D932F5F243159F74FBF8091E800877FE4
:102C80008093E8006AE270E0CE0101960E9434056C
:102C90008091E8008B778093E80011C1C096E7CF60
:102CA0008091FA039091FB03432F55274330510540
:102CB00009F44AC078F54130510509F47AC08BE532
:102CC00090E0E2E1F7E04230510509F0F8C02091D0
:102CD000E800277F2093E8002091FC033091FD035A
:102CE0008217930708F49C0140E02115310509F093
:102CF00065C0411163C08091E80082FDC9CF809119
:102D0000F403882329F2853019F28091E80083FFCB
:102D1000F2CFBECF4132510509F43CC042325105D9
:102D200009F0CDC08330910508F0C9C0FC01EE0F59
:102D3000FF1FE35DFD4F0190F081E02D865D9D4F0B
:102D4000DC018C9190E01AC0332721303105D1F09D
:102D50002115310561F02230310509F0B0C0EFE7EF
:102D6000F7E0E4918E2F90E0EFE7F7E007C0E9EBA2
:102D7000F7E0E4918E2F90E0E9EBF7E0009709F49B
:102D80009EC0A5CFEDE9F7E0E4918E2F90E0EDE94C
:102D9000F7E0F4CF8330910508F091C0880F991FB8
:102DA000FC01ED5CFD4F0190F081E02D89E090E0A9
:102DB0008ECF82E190E0EDE6F7E089CF8091F403D9
:102DC000882309F465CF853009F462CF8091E8004B
:102DD00083FD5ECF8091E80082FD8DCF8091E80079
:102DE00080FF83CF9091F3008091F200211531058F
:102DF00019F08830910550F041E0089709F040E063
:102E00008091E8008E778093E8006FCF44914093E3
:102E1000F1003196215031090196E8CF803809F050
:102E20004EC08091E800877F8093E8008091F50391
:102E30008093F1009DCE811142C01091F8031230B1
:102E4000F0F58091E800877F8093E8001093F50308
:102E50000E948804112311F084E005C08091E300F2
:102E600087FDFACF81E08093F40342E061EC81E0DA
:102E70000E94A70442E261EC84E00E94A70442E2BF
:102E800061EC82E00E94A70442E260EC83E00E94D1
:102E9000A7048091F40313C08091F803813079F482
:102EA00081E0933009F080E08093F3031092E90011
:102EB0008091E800877F8093E8000E9488048091D9
:102EC000E80083FF0AC08091E800877F8093E800D4
:102ED0008091EB0080628093EB00AA96E3E00C9473
:102EE000EA300E9482142FEF84E39CE0215080405E
:102EF0009040E1F700C0000088E19CE00FB6F89434
:102F0000A895809360000FBE90936000FFCF882348
:102F100021F00E94730C0E94ED130895882339F06C
:102F20009091D803982B9093D8030E94ED130895A5
:102F3000882321F00E947A0C0E94ED1308958823C3
:102F400039F09091D903982B9093D9030E94ED13F7
:102F50000895882309F456C0823879F40E946506E2
:102F600081FF50C089E30E94E7050E94ED1389E3C9
:102F70000E94BC050E94ED130895833859F40E9405
:102F8000650680FF3FC083E50E94E7050E94ED13C0
:102F900083E5EECF843859F40E94650682FF32C083
:102FA00087E40E94E7050E94ED1387E4E1CF9CEFE0
:102FB000980F913AE8F290E2980F983050F48770A9
:102FC00091E001C0990F8A95EAF7892F0E947A0C47
:102FD000D1CF9BE5980F933028F490E080E00E94D9
:102FE0004006089598E5980F9B3128F490E080E022
:102FF0000E941B06089593E3980F933118F460E044
:103000000E94370D0895FF920F931F93CF93DF9384
:10301000F82E0091C9031091CA030115110509F496
:1030200049C01092C8031092C7031092C4031092B3
:10303000C503D8011696CD91DC919E013A952115D4
:103040003F4108F4D07ED1E0C11101C0D0E0D801E9
:103050001996ED91FC911A97309731F01B966D916E
:103060007C9180E00995D823DD2339F08CEF8C0F1B
:10307000813A30F58C2F0E94BC05FF2099F0E09139
:10308000C903F091CA03808584FD0CC08091C603FA
:10309000882341F0808191819C01215031092F3397
:1030A0003E47A0F00E94ED131092CA031092C9038C
:1030B0001092C603C801CDB7DEB7E5E00C94E83046
:1030C0000E94ED138C2F0E94A917D7CF0E94EF0604
:1030D000E9CFCF93DF93EC010E94A917CE010E94A4
:1030E0003F0E9E01205E31092830310510F0CD2BB6
:1030F00029F40E949817DF91CF9108950E948717B5
:10310000FACFFC018281813031F4FB018081918111
:103110000E94691808958230E9F7FB01828193814A
:10312000F7CFCF93C82F8823C9F08238C9F40E9403
:10313000650681FD13C089E30E94E7050E94ED1337
:103140002FEF87EE93E0215080409040E1F700C0E0
:10315000000089E30E94BC050E94ED13CF91089501
:103160008338A1F40E94650680FDF8CF83E50E94B4
:10317000E7050E94ED132FEF81EE94E0215080408F
:103180009040E1F700C0000083E5E4CF8438A1F46B
:103190000E94650682FDE2CF87E40E94E7050E9457
:1031A000ED132FEF81EE94E0215080409040E1F745
:1031B00000C0000087E4CECF8CEF8C0F813A88F5F9
:1031C00080918301882301F180913E0487FF1CC018
:1031D000EC2FE695E695E695F0E0EC5BFD4F8281FD
:1031E00090E04C2F477021E030E002C0220F331FE7
:1031F0004A95E2F782239323892B79F08C2F0E9442
:10320000BC050E94ED1309C0EEE3F2E08191C817FE
:10321000A9F322E0E434F207C9F78C2F0E94E705F6
:103220009BCF80E28C0F883068F4C77021E030E0DB
:1032300001C0220FCA95EAF78091D903822B8093AF
:10324000D9038ACFEBE5EC0FE33040F4F0E0EF5424
:10325000FE4F808190E00E94400680CFE8E5EC0FB1
:10326000EB3150F4F0E0EE0FFF1FEC54FE4F808185
:1032700091810E941B0672CF83E38C0F833108F08B
:103280006DCF61E08C2F0E94370D68CF1F93CF93D5
:10329000DF93182FD0E0C0E0893311F4C0E5D0E00F
:1032A000812F0E949118209739F4812F0E94A9172D
:1032B000DF91CF911F9108958FE99FE00197F1F77A
:1032C00000C000002197EFCF0F931F93CF93DF93A0
:1032D000C62FD42F022FFC0185818823A9F060938B
:1032E0003A040E94B0059093390480933804C77063
:1032F00081E001C0880FCA95EAF70E949F17DF910D
:10330000CF911F910F91089580913A04681332C0B4
:1033100080913804909139040E949505883C91056C
:1033200048F510E21D0FCD17B9F080E28C0F883000
:1033300040F4C77081E001C0880FCA95EAF70E9487
:103340009817183048F481E09D2F977001C0880FBE
:103350009A95EAF70E949F17802F0E94461918300D
:1033600070F6D77081E001C0880FDA95EAF70E9405
:103370009817C5CFC77081E001C0880FCA95EAF7DA
:10338000F6CF0E94700E80931501833091F0843047
:1033900031F0823089F489E30E94461908958091C2
:1033A000E902882331F081FF04C081E00E94C40E4D
:1033B000089581E00E94050F0895CF93DF93EC01FB
:1033C0000E943F0E9E01205E31092830310510F029
:1033D000209741F40E949F178C2F0E949118DF9133
:1033E000CF9108950E948E17F7CFFB0180819181C4
:1033F0000E94DD190895CF93DF93EC018A8182301A
:1034000041F4FB01828193810E94DD198D818260EC
:103410008D83DF91CF910895ACE0B0E0E2E1FAE175
:103420000C94BF303C01DC0114968C91882309F484
:1034300033C161E0C3010E9465114C01F301858134
:10344000882319F18091DA039091DB030097E9F06A
:1034500088169906D1F09927E4E0880F991FEA951C
:10346000E1F7FC01E65DFE4F2081246020838B5D47
:103470009E4FDC018D929C920E9458141092D803AA
:1034800061E0C3010E9465114C01F301F581FB87E6
:10349000C401815A92454F9708F0D3C0240120EA15
:1034A000422622E55226F1110C94E123A0906402F9
:1034B000B0906502C0906602D0906702E09068020A
:1034C000F0906902E0916A0210916B0221E030E015
:1034D00040E050E060E070E080E090E0042D0E9469
:1034E000F630A222B322C422D522E622F722082FE8
:1034F0000E2319230E942C3109F4BEC024018091AF
:103500001A01882311F40C944923620190EEC91A20
:10351000D1083090D80280918802382A8091D9034E
:10352000382AA8E0CA16D10408F025C492012770F1
:10353000332781E090E001C0880F2A95EAF7BB8528
:10354000BB2309F415C4382AD3018D919C910E94A4
:10355000CA0C21E030E0590102C0AA0CBB1C8A95BC
:10356000E2F7E091C903F091CA03FA87E9878090F6
:10357000850290908602212CE22DF0E0EE0FFF1FD5
:10358000EC5FFE4F008111810115110511F40C94BF
:10359000A323311005C0D80112968C91811128C443
:1035A000F801838190E08A219B21892B09F420C4B2
:1035B0008085982F977009F487E0F8E0CF16D10442
:1035C00008F0F4C32B85222309F4ECC3869581709F
:1035D000882309F40DC4D801ED90FC90E414F5049F
:1035E00021F4BB85BB2309F403C4E985FA850E17D2
:1035F0001F0709F4FDC3D8011D96ED91FC9130978A
:1036000021F08081882309F4F3C3632DC8010E944F
:103610004007882309F4ECC3E414F50411F00C947A
:10362000C824E114F10411F40C94CE24BB85B1112B
:103630000C94D024E814F90409F0DAC31B860C9426
:10364000D0243B85332309F442C28FEF88169104BE
:1036500009F010F40C94E02399E589169CE799068B
:1036600029F01092840224010C942E24809184026B
:1036700091E089278093840280913D04877061F0F6
:10368000D30115968C91882339F080913F0482FFF5
:1036900003C082E00E94D10E2C96E2E10C94DB3054
:1036A000FFEF4F16510419F010F00C94FB2321E0AA
:1036B00030E040E050E060E070E080E090E08201C7
:1036C000005C11090E94F630E0917C022E2BE09103
:1036D0007D023E2BE0917E024E2BE0917F025E2B1D
:1036E000E09180026E2BE09181027E2BE0918202BC
:1036F0008E2BE09183029E2B20937C0230937D02DF
:1037000040937E0250937F02609380027093810207
:1037100080938202909383020C942E2421E030E067
:1037200040E050E060E070E080E090E08201005412
:1037300011090E94F630E0916C022E2BE0916D028F
:103740003E2BE0916E024E2BE0916F025E2BE091DA
:1037500070026E2BE09171027E2BE09172028E2B33
:10376000E09173029E2B20936C0230936D02409384
:103770006E0250936F026093700270937102809397
:103780007202909373020C942E2421E030E040E00A
:1037900050E060E070E080E090E0820100581109A4
:1037A0000E94F630E09174022E2BE09175023E2BC0
:1037B000E09176024E2BE09177025E2BE091780249
:1037C0006E2BE09179027E2BE0917A028E2BE091B4
:1037D0007B029E2B209374023093750240937602F5
:1037E00050937702609378027093790280937A0203
:1037F00090937B020C942E2420E44216510408F08E
:103800006EC0F0916402A0916502B0916602E091F1
:103810006702E987E0916802EC87309069022090A6
:103820006A02E0916B0221E030E040E050E060E0AD
:1038300070E080E090E0042D0E94F630A22EAF22CE
:10384000B32EBA22C42ECB22D984D522EC84E62210
:10385000F72EF320082F0221192F1E230E942C314E
:1038600009F001CF20EC4216510408F09AC030E86C
:103870004316510408F0FBC080E44816510408F0D8
:10388000C6C021E030E040E050E060E070E080E061
:1038900090E0042D0E94F63020953095409550958B
:1038A00060957095809590952F233A234B23A98599
:1038B0005A23BC856B23732182219E2320936402AB
:1038C00030936502409366025093670260936802EA
:1038D0007093690280936A0290936B02CDCEF0E8F8
:1038E0004F165104F0F4F0916C02A0916D02B0916A
:1038F0006E02E0916F02E987E0917002EC873090F0
:10390000710220907202E091730221E030E040E009
:1039100050E060E070E080E090E082010054110926
:103920008BCFF0EC4F165104F0F4F0917402A0919B
:103930007502B0917602E0917702E987E091780212
:10394000EC873090790220907A02E0917B0221E0AE
:1039500030E040E050E060E070E080E090E0820124
:103960000058110969CFF0917C02A0917D02B091BD
:103970007E02E0917F02E987E0918002EC8730903F
:10398000810220908202E091830221E030E040E059
:1039900050E060E070E080E090E08201005C11099E
:1039A0004BCF9FEF4916510411F008F06ACF820106
:1039B000005C110921E030E040E050E060E070E0A0
:1039C00080E090E00E94F63020953095409550952B
:1039D00060957095809590952F233A234B23A98568
:1039E0005A23BC856B23732182219E2320937C0262
:1039F00030937D0240937E0250937F026093800259
:103A000070938102809382029093830235CE82016B
:103A10000054110921E030E040E050E060E070E047
:103A200080E090E00E94F6302095309540955095CA
:103A300060957095809590952F233A234B23F985B7
:103A40005F23AC856A23732182219E2320936C021D
:103A500030936D0240936E0250936F026093700238
:103A600070937102809372029093730205CE82016B
:103A70000058110921E030E040E050E060E070E0E3
:103A800080E090E00E94F63020953095409550956A
:103A900060957095809590952F233A234B23B98597
:103AA0005B23FC856F23732182219E232093740264
:103AB00030937502409376025093770260937802B8
:103AC0007093790280937A0290937B02D5CDEFEFC9
:103AD0008E16910411F008F011CDF0E48F169104C8
:103AE00010F42401E3CC20E882169104E8F4A090BD
:103AF0006C02B0906D02C0906E02D0906F02E090A8
:103B00007002F0907102E09172021091730221E054
:103B100030E040E050E060E070E080E090E0D40110
:103B2000A054B1090A2FDBCC30EC83169104E0F4E9
:103B3000A0907402B0907502C0907602D090770287
:103B4000E0907802F0907902E0917A0210917B0285
:103B500021E030E040E050E060E070E080E090E0A4
:103B6000D401A058B109DECFA0907C02B0907D02B4
:103B7000C0907E02D0907F02E0908002F09081029F
:103B8000E09182021091830221E030E040E050E0B9
:103B900060E070E080E090E0D401A05CB109C2CFA9
:103BA000C11484E0D80609F467CDC6010E94AB3188
:103BB000811101C001509FEFC91AD90A65C667017A
:103BC000843009F098C602E010E06701FFEFCF1AD9
:103BD000DF0AC7010E94AB31E1E0F0E0EC0FFD1F0E
:103BE000E00FF11F8083882309F446CD8C3741F420
:103BF000E2E0F0E0EC0FFD1FE00FF11F10827BC64A
:103C00000F5F1F4F760107301105F9F635CD6801BA
:103C100072C6923039F40E5F1F4F0E9491180F5FE9
:103C20001F4F6CC6933029F40E5F1F4F0E94A917D7
:103C3000F6CF943019F00F5F1F4FF1CF0E5F1F4F7B
:103C400030E020E0B8016F5F7F4FF8014181805381
:103C5000990B8A30910550F02150310900F38FE91A
:103C60009FE00197F1F700C00000F6CF529EF001EF
:103C7000539EF00D11249C012E0F3F1F842F8B01AA
:103C8000E1CFE22FF0E0E850FE4F4490822F86957E
:103C90008695869590E0FC01E851FE4FA490277030
:103CA000B12C022E02C0B594A7940A94E2F7A1E0C9
:103CB000AA22BB24FC01E852FE4F8490912C022ED4
:103CC00002C0959487940A94E2F7B1E08B2299247C
:103CD000FC01E853FE4FE490F12C02C0F594E79408
:103CE0002A95E2F7E1E0EE22FF24A114B10419F0D5
:103CF00081EE0E9491188114910419F086EE0E94C1
:103D00009118842D0E9446198114910419F086EEB1
:103D10000E94A917A114B10419F081EE0E94A917FD
:103D2000E114F10409F47BCF8CE2F9C5FB85FF2394
:103D300009F4E5CB2EE542162CE75206A9F03FE543
:103D400043163CE7530651F08DE548168CE75806BC
:103D500009F0D5CB80911A01882331F010921A0115
:103D600080E00E94031888CC81E080931A0184CC03
:103D700080953822E9CBEB85EE2309F4CDC450922F
:103D80008602409285020E94A4056093C00370934E
:103D9000C1038093C2039093C3031092C80310928F
:103DA000C703D2CB82FB882780F912CC3B85332313
:103DB000F9F081700DCC0E94A91711C60497813AC1
:103DC000910550F48E2D0E94E7059B85992309F4F7
:103DD00060C40E94ED1350CC0E94ED138FE39CE968
:103DE0000197F1F700C000008E2D0E949118EDCFD1
:103DF0002394C2CBFC01208131812415350509F0C3
:103E000040C4FB85F11140C41092C60380E00E94BB
:103E100003183FC4942D852D7AC4F8014485558537
:103E200066857785C8010E947206D80115968C9127
:103E300081FF9DC4C8010E943F148091DA039091D4
:103E4000DB038415950509F092C41092DB031092F0
:103E5000DA038DC426E241EE61EEC3010E946419CB
:103E60000BCC27E245EE65EEF8CF26E241EE60EEA0
:103E7000F4CF27E245EE64EEF0CF26E241EE62EEAB
:103E8000ECCF27E245EE66EEE8CF28E241E0EBCF4B
:103E900080913E04816080933E0495C080913F04F0
:103EA000886080933F048FC080913E048260F3CF8E
:103EB00080913E048460EFCF80913E048860EBCF18
:103EC00080913F048160EDCF80913F048260E9CF13
:103ED00080913E048061DFCF80913E048062DBCF21
:103EE00080913E048064D7CF0E94821480913E046A
:103EF0008068D1CF80913E048C60CDCF80913F040B
:103F00008360CFCF80913E048E7FC5CF80913F04E8
:103F1000877FC7CF80913E048D7FBDCF80913E04C7
:103F20008B7FB9CF80913E04877FB5CF80913F04CE
:103F30008E7FB7CF80913F048D7FB3CF80913E04B9
:103F40008F7EA9CF80913E048F7DA5CF80913E04C6
:103F50008F7BA1CF0E94821480913E048F779BCFEC
:103F600080913E04837F97CF80913F048C7F99CFCF
:103F700080913E0482FB992790F921E0922790FBE3
:103F800082F990FB83F987CF80913F04982F909519
:103F900091708E7F892B90FB81F983CF90913E04A5
:103FA000892F8F7B96FF806476CF0E948214909138
:103FB0003E04892F97FB87F980586DCF61E08EE032
:103FC00090E00E94CF3160913E0470913F0484E004
:103FD00090E00E94ED310E9482144ECB60E0EFCF62
:103FE00090913E04892F8F7E94FF806154CF9091F1
:103FF0003E04892F8E7F90FF81604DCF90913F04CA
:10400000892F877F93FF88604CCFF6E14F16FCE73E
:104010005F0609F087C48091D903282F21718A7A1D
:10402000211180E0992371F091E0811101C090E0AD
:1040300090938702811104C089E20E94E705C9CEEE
:1040400085E3FBCF80918702811104C089E20E9441
:10405000BC05BFCE85E3FBCF8091B00380FF19C0C4
:10406000282F2E7F2093B0033091B1034091B203EB
:104070005091B3036091B4037091B5038091B6037E
:104080009091B7030E943D1210920C030E946707A3
:10409000F3CA81608093B00361E0869586950E94A3
:1040A0005E13EACA4EEA53E169EB73E10E946007CE
:1040B000E3CA49EB53E16EEA73E1F8CF46E153E11D
:1040C00060E273E1F3CF40E253E166E173E1EECFEA
:1040D0004CEF52E169E073E1E9CF49E053E16CEF65
:1040E00072E1E4CF42EE52E16FEE72E1DFCF4FEECC
:1040F00052E162EE72E1DACF4AE253E164E473E145
:10410000D5CF44E453E16AE273E1D0CF61E081E0CE
:10411000C6CF65E082E00E94C513AECA68E086E0C3
:10412000FACF6EE089E0F7CF64E18FE0F4CF67E18A
:1041300085E1F1CF61E088E1B2CF62E289E1EBCFC6
:1041400061E083E2ACCF6AE285E2E5CF27E7421681
:104150002CE7520609F463C038E743163CE75306E0
:1041600009F461C0F301858100811181882309F47C
:104170008EC0C8010E940611F82E682FC8010E9447
:10418000FE0CB8018F2D0E94F8100E944A0B8C0182
:10419000A82ED3011596CC9015971696BC90B29484
:1041A0003FE0B32280913D04877009F1EC2CCC20D4
:1041B000F9F0812F807F803469F080E2800F8830B1
:1041C000B0F0812F807E803229F4B1E0B01778F40E
:1041D000BB2069F080913F0482FF09C082E00E9409
:1041E000D10E80913D048770EE24E3948111E12C7F
:1041F000D12ED2942FE0D222EBE0ED1508F4A8C026
:10420000ED2DF0E0EE58FD4C0C94A33081E00E94BF
:10421000050F43E062E081E00E94A40E2DCA81E018
:104220000E94C40EF6CF82E0FBCFEBE54E16ECE722
:104230005E0659F1FCE54F16FCE75F06E1F02AE562
:1042400042162CE7520609F08DCF81E01BC00E9478
:1042500082143FEF84E39CE0315080409040E1F7CE
:1042600000C000000E94C90F6FEF7FEF90E080E078
:104270000E94ED3177C380913F0482FB882780F94B
:1042800091E089270E94D6136DCF80E0FBCFC80153
:104290000E94CA0CF82E75CFF12FFF70FF2E107FF1
:1042A00019F0F29490EFF922CC20B9F0FF2069F0D8
:1042B00080E2800F883010F0A11009C08091D903EE
:1042C000F82AF092D9030E94ED13802F3FC080910D
:1042D000D803F82AF092D803F6CF802F0E94A917AE
:1042E000FF20B1F1005E8F2D083010F0A11003C047
:1042F0000E947A0C02C00E94730C0E94ED1328C029
:10430000212F2F70F22E107F103219F0F29480EFCF
:10431000F822AA2059F031E0A31609F486C0CC2077
:1043200009F492C0BB2009F444C0CFCF80913F0470
:1043300082FD3BC0CC2091F1FF2039F08091D90360
:10434000F82AF092D9030E94ED1380E00E949118A0
:10435000ED2DE850FF0B349720F40E9465060E9473
:104360001B0EEE20B1F080913D0480FD12C0D30100
:1043700015961C928695869586950E94050FC30119
:104380000E940C1A80913D048695869586950E9420
:10439000C40E60E0C3010E9465117EC980E00E94E6
:1043A000A917FF20A9F28F2DA3CFCC20C9F0B110FF
:1043B00004C08F2D0E949F17CBCF81E0B812C8CFC9
:1043C0001091D8028F2D8123F81611F20E94B005AA
:1043D0009093D7028093D602F12AF092D802B8CFF8
:1043E000B110B6CF8F2D0E9498179091D8028F2DC3
:1043F000892369F08F2D809589238093D8028823A3
:1044000089F00E94B0059093D7028093D6028091E4
:1044100088029F2D982309F49BCFF094F822F09204
:10442000880296CF90E080E0EECFCC2029F092E099
:104430009B1508F48DCFBDCFA1E0AB1508F488CF54
:104440008F2D0E94981784CFBB20D1F3B9E3AB1214
:1044500009C0EFEFF7EE23E0E150F0402040E1F734
:1044600000C00000802F0E94A91772CF812F86956F
:104470008695837061F0813009F06ACFC80193702E
:10448000C11002C080E090E00E941B0661CFC8010D
:104490009370C11002C080E090E00E94400658CFA7
:1044A0006C2D802F0E94370D53CF812F837089F59B
:1044B000C1104ECF402F429546954770440F440F90
:1044C000802F8F70042E01C0880F0A94EAF7202FE6
:1044D000207104FF07C02FE030E001C0220F4A9591
:1044E000EAF72095169516951370123069F050F47E
:1044F0003091E802113029F0822B83230E94340D81
:1045000027CF832B822BFACF282B8091E80282279A
:10451000F5CF8695CC2011F0812F8170882309F486
:1045200017CF402F429546954770440F440F802F78
:104530008F70042E01C0880F0A94EAF7202F207193
:1045400004FF07C02FE030E001C0220F4A95EAF7D0
:104550002095169516951370123069F050F430912D
:10456000E902113029F0822B83230E949F0EF0CEA6
:10457000832B822BFACF282B8091E9028227F5CF5B
:104580001F70CC2029F0812F0E94050F802F12CFA1
:10459000802F0E949817812F0E94C40ED9CE802FA1
:1045A00032EFA316B1F13A1570F090EFA916D1F0E1
:1045B000A1EFAA1691F0CC2009F453C0B11085CE1A
:1045C000812F8F712AC0B3EFAB1651F1E4EFAE1219
:1045D000F2CF80913F0482FD2FC0812F8F71CC20BC
:1045E000D9F21BC0CC2081F0F1E0FB1508F4B0CE6D
:1045F0001F7181E090E0012E01C0880F0A94EAF754
:104600009091E9028927B1CF22E02B1508F4A0CEC2
:10461000EFCF812F8F71C110BFCF0E94050F98CEB1
:1046200080E0CC2009F4A1CF1F7181E0012E01C0F0
:10463000880F0A94EAF799CFCC2041F01F71812F9F
:104640000E94050F812F0E94110F82CE81E00E94EF
:10465000D10E31E03B1508F07BCE82E00E94D10EF6
:1046600077CEBB2059F0893309F0FCCE8FEF97EE5F
:10467000A3E081509040A040E1F7F2CE812F8F71EE
:104680008BCFBB85BB2329F0DC0118968C9185FF6D
:10469000BDCBC2019755F2018F3F910511F008F093
:1046A00086C0FF2744E0EE0FFF1F4A95E1F78F0118
:1046B0000B5D1E4FD30115968C91E65DFE4F9081E8
:1046C00080FB90F99083882309F4A7CB0E94B00562
:1046D0009093F9028093F802F80182818F5F8283C0
:1046E0008091D8039091D903892B83838091D8023C
:1046F00084834681578166857785C8010E9472064A
:10470000D80115968C9181FF85CB90E080E0909345
:10471000DA038093DB032BC080918502909186029F
:104720008415950581F410928602109285021092EC
:10473000C0031092C1031092C2031092C3031092DF
:10474000C8031092C7038091C9039091CA030097D0
:1047500009F49FCFA8E0CA16D10408F04BCB632D13
:104760000E944007811103C081E00E940318F301F9
:104770009581992309F4F8C010923A0492013057B8
:104780002332310508F041CC84E090E00E94B93139
:1047900090933F0480933E04F201E150F047E232EF
:1047A000F10508F075CBE258FD4C0C94A330E851AC
:1047B000FC47E730F105D8F6E056FD4C0C94A330E9
:1047C000240180918402882311F40C94FC1B109224
:1047D0008402A0EC4A16510410F00C94501BB0E86F
:1047E0004B16510410F00C94C51BE0E44E16510416
:1047F00010F00C948E1B21E030E040E050E060E0CF
:1048000070E080E090E0042D0E94F630E0916402B8
:104810002E2BE09165023E2BE09166024E2BE0913B
:1048200067025E2BE09168026E2BE09169027E2B9D
:10483000E0916A028E2BE0916B029E2B2093640222
:10484000309365024093660250936702609368025A
:104850007093690280936A0290936B02C20197572A
:104860008038910508F062CA042D003110F00C94D4
:104870003C1B8FEF93E00E94AB3181110C943C1BE9
:1048800079EAC72E72E0D72E01118AC9FE0133964C
:1048900086E0DF011D928A95E9F76AE0562E8601CF
:1048A0000F5F1F4FC6010E94AB3189831A82882394
:1048B00011F40C943C1B813009F0A9C97601B2E0D7
:1048C000EB0EF11CC8010E94AB318A83882311F4DE
:1048D0000C943C1B9FEF980F933008F070C9E3E0F5
:1048E000CE0ED11CC7010E94AB318B83882311F4FB
:1048F0000C943C1B1C828E010F5F1F4FD8012C9122
:10490000222369F2213009F0BCC911969C911197BC
:1049100012968C91913009F07CC90E5F1F4F0E9456
:1049200046197DC927E742162CE7520609F46ECCDA
:1049300082E038E743163CE7530609F468CC83E08D
:1049400048168CE7580609F48FCC08F06ECC411459
:10495000ACE75A0609F47BCCB1E04B16BCE75B062A
:1049600009F000CC0E94711786E148168CE75806C2
:1049700009F451CB8091D9038272F201E052F847D9
:10498000E531F10508F0E2CBE955FD4C0C94A3307C
:10499000E114F10411F00C941A1B1B86F12CE12C8C
:1049A00080E00E9403181093CA030093C90381E0BA
:1049B0008093C603F80185818093C403FB85F111C0
:1049C0000EC0EF2861F0F801808191819C01245094
:1049D0003109213A310508F0EEC90E94BC05D80121
:1049E0001696ED90FC90C7019A9581159F4110F4A1
:1049F000E0EEFE22BB24B394C70101978F339E479C
:104A000008F0B12CD8011996ED91FC911A973097C6
:104A100031F01B966D917C9181E00995B822BB2005
:104A200079F0F801868197810E943F0E8093C5033B
:104A3000C701F8E0CF16D10408F0C0C90E94EF0604
:104A40000E94ED13C2C9CF93DF938091AD02807FA6
:104A500009F04DC08091AC02882309F448C0E09170
:104A600037045091FE03C091A802D091A702609133
:104A7000A9027091AA0247E05E17C9F18E2F90E05B
:104A8000E49FF0011124E150FC4F2481222391F195
:104A9000489FF001499FF00D1124DF01A150BC4F48
:104AA00011962C9111972C1325C02C912D1322C0F7
:104AB00015962C91159721111DC012962D913C91A0
:104AC000261B370B283C3105A8F48091AD028F706E
:104AD00080618093AD02EB5FFB4F80818F708061BE
:104AE000808387EA92E00E940C1A0E94C00CDF913A
:104AF000CF910895FC013196E770BECFA4E1B0E0FC
:104B0000E4E8F5E20C94C5308C0186E0F801DE01A2
:104B10001F9601900D928A95E1F7F8018481E58056
:104B200097EAA92E92E0B92E9091AB02911128C07C
:104B3000882319F1EE20F1F0C8010E944211F82EED
:104B40008823C1F087E0F801D50101900D928A9584
:104B5000E1F78091AB02813031F48091A70290910E
:104B6000A8020E9435110E9423258F2D6496ECE047
:104B70000C94E130C8010E940C1AFF24F394F5CF85
:104B8000D080C18082809380F090AC022091A902F5
:104B90003091AA02A401421B530BFF2009F4D9C093
:104BA000483C510508F092C08823F9F29091A80280
:104BB0008091AD02282F207F09F056C0C91214C081
:104BC0009091A702D91210C0E11048C08F70806187
:104BD0008093AD0287EA92E00E940C1A8091AD02A8
:104BE000F8018683F12CC1CFE11038C06C2D8D2DDA
:104BF0000E9419046C2D8D2D0E941904E82E81113C
:104C0000F1CFDF86C88A8F8598890E943511292FB8
:104C100022952F70243058F49F70223088F0992309
:104C200099F0F8019681907F79F4FE2C9ECF2A5F4F
:104C30002F70223068F0C8010E940C1AEF2CF5CFBB
:104C4000992311F0882389F3805E883070F3F3CFC5
:104C5000803F58F3815F833070F7E7CF8091AD02DA
:104C600081608093AD02BECFC91207C09091A702A8
:104C7000D91203C0EE2009F48DC0C8010E94421170
:104C8000882309F477CFEE2009F474CF8091AD0228
:104C9000803288F02091A7023091A80239872887B6
:104CA0009B868A869091AB029C871D868E87CE015B
:104CB00008960E940C1A87E0F801A7EAB2E001907A
:104CC0000D928A95E1F70E94232557CF9091AD026E
:104CD000292F207F51F487EA92E00E940C1A87E086
:104CE000F50111928A95E9F77DCF882309F43DCF2C
:104CF0008091A8028C1110C08091A702D8120CC01C
:104D0000E1100AC09683C8010E940C1A87E0F501E1
:104D100011928A95E9F729CFC8010E944211882390
:104D200009F428CFEE2009F425CF8091AD0280321E
:104D300010F22091A7023091A8023A8329839C8225
:104D40008B829091AB029D831E828F83CE01019650
:104D5000B0CF483C5105D0F6882309F40ECFFE2C85
:104D6000EE2009F407CF8091A8028C1120C0809119
:104D7000A702D8121CC08091AD0280FD0FC0982FF1
:104D8000907F61F08683903F31F0982F907F905F05
:104D90008F70892B8683C8010E940C1A87E0F80166
:104DA000A7EAB2E001900D928A95E1F7DECEC80144
:104DB0000E94421181117FCF8091AD02816080936A
:104DC000AD02C8010E940C1AD0CEABE1B0E0EBEE10
:104DD000F6E20C94CE304E8B5F8B688F798F8A8F82
:104DE0009B8F91111092D8031D8A86E0FE01769662
:104DF000DE011F9601900D928A95E1F780913F04A4
:104E000082FF1CC00E94B00520913B0430913C04FD
:104E1000821B930B8C3D954020F080913D0482FFD6
:104E20007AC00E94B0052091D6023091D702821B31
:104E3000930B8C3D954010F00E94680C8B89882361
:104E400029F061E0CE010F960E94651187E0FE0116
:104E50003F96DE01189601900D928A95E1F7CE01FA
:104E600008960E947E2581110CC087E0FE013896CD
:104E7000DE01119601900D928A95E1F78C858111E2
:104E80000BC017E0809137049091FE03891331C065
:104E90006B96E3E00C94EA302091FE0330E0C90108
:104EA000019687709927409137044817190699F0A1
:104EB00097E0929FD001939FB00D1124A150BC4F59
:104EC000FE01319601900D929A95E1F78093FE03D1
:104ED0000E94C00CD6CF0E9482141092FE03109242
:104EE000370487E0E7EAF2E0DF011D928A95E9F7EF
:104EF000C8CF819FC001112481509C4F0E947E2504
:104F0000882331F28091370490E0019687709927C9
:104F100080933704B7CF82E00E94D10E82CFA6E003
:104F2000B0E0E5E9F7E20C94CD300E94B0058C01C9
:104F30008091D9029091DA028017910781F019824D
:104F40001A820E94B005682F49815A81792F80E02A
:104F500090E00E94E5261093DA020093D90226968B
:104F6000E4E00C94E930AAE0B0E0E9EBF7E20C945D
:104F7000C5308E010F5F1F4F8AE0F80111928A95AC
:104F8000E9F79AEEE92E91E0F92E6801AA24A3949C
:104F9000B12CF70181917F018F3F09F446C0F8944D
:104FA000E82FE295EF70F0E021A18F70A50102C01B
:104FB000440F551F8A95E2F7CA01922F982B91A3AF
:104FC00092A18095892382A3789400C0EFEEF1E04E
:104FD00021E030E0912C812C41914F3F09F44EC0EB
:104FE000A42FA295AF70B0E090968C9190E04F7096
:104FF00002C0959587954A95E2F780FD3FC0C901AB
:10500000882A992A220F331F51E0EF3FF50721F735
:10501000F701319780818F3F11F00E94420A80EAA8
:105020008A95F1F7F60191828082F2E0CF0ED11CD1
:105030004FEEE41641E0F40609F0ABCF4AE050E051
:10504000B8018EED92E00E949E31892BE1F08AE05A
:10505000F801AEEDB2E001900D928A95E1F781E0A2
:105060008093DD020E94B0059093DC028093DB0206
:1050700010E0812F2A96ECE00C94E13090E080E083
:10508000BFCF10E01FC01091DD02112389F3809182
:10509000DB029091DC020E949505059748F34AE0F7
:1050A00050E06EED72E08BEF92E00E949E31892B12
:1050B00041F38AE0EEEDF2E0ABEFB2E001900D9249
:1050C0008A95E1F71092DD02D4CF1F920F920FB6AE
:1050D0000F9211242F933F934F935F936F937F937E
:1050E0008F939F93AF93BF93CF93DF93EF93FF93F0
:1050F000D091E900DF708091EC00C82FC17080FD75
:10510000C0E81092E9008091F000877F8093F00062
:1051100078940E94B3141092E9008091F0008860A6
:105120008093F000CD2BCF70C093E900FF91EF91F9
:10513000DF91CF91BF91AF919F918F917F916F91AF
:105140005F914F913F912F910F900FBE0F901F9045
:1051500018951F920F920FB60F9211242F933F9321
:105160004F935F936F937F938F939F93AF93BF936F
:10517000EF93FF938091E10082FF09C08091E200EC
:1051800082FF05C08091E1008B7F8093E1008091D8
:10519000DA0080FF24C08091D80080FF20C0809179
:1051A000DA008E7F8093DA008091D90080FF9DC065
:1051B00080E189BD82E189BD09B400FEFDCF81E0B7
:1051C0008093F4038091E703811109C00E943804A1
:1051D0000E94D9048091E20084608093E200809173
:1051E000E10080FF17C08091E20080FF13C0809132
:1051F000E2008E7F8093E2008091E20080618093E4
:10520000E2008091D80080628093D80019BC85E0CC
:105210008093F4038091E10084FF2BC08091E20031
:1052200084FF27C080E189BD82E189BD89B5982FBF
:10523000917080FFFBCF8091D8008F7D8093D80044
:105240008091E1008F7E8093E1008091E2008F7E6B
:105250008093E2008091E20081608093E20080917F
:10526000F503882309F447C084E08093F403809118
:10527000F4038091E10083FF27C08091E20083FF67
:1052800023C08091E100877F8093E10082E08093DA
:10529000F4031092F5038091E1008E7F8093E1008A
:1052A0008091E2008E7F8093E2008091E200806135
:1052B0008093E20042E060E080E00E94A7048091D9
:1052C000F00088608093F000FF91EF91BF91AF9163
:1052D0009F918F917F916F915F914F913F912F910E
:1052E0000F900FBE0F901F90189519BC1092F403E9
:1052F0001092E70374CF8091E30087FD93E09093D1
:10530000F403B5CF78941F921FB61F9211248F9388
:105310009F93AF93BF938091E3039091E403A09197
:10532000E503B091E6030196A11DB11D8093E3034F
:105330009093E403A093E503B093E603BF91AF918C
:105340009F918F911F901FBE1F9018951F921FB69F
:105350001F9211248F939F93AF93BF938091E20389
:10536000811113C08091E3039091E403A091E503C0
:10537000B091E6034196A11DB11D8093E303909384
:10538000E403A093E503B093E603BF91AF919F912F
:105390008F911F901FBE1F901895CDB7DEB7A697AF
:1053A0000FB6F894DEBF0FBECDBF85B7806885BF4E
:1053B00085B7806885BF84B7877F84BF0FB6F894B0
:1053C000A8958091600088618093600010926000D1
:1053D0000FBE80E890E00FB6F89480936100909340
:1053E00061000FBE80E49AE090933B0280933A0202
:1053F0000E9438040E94D9048091E2008460809366
:10540000E20078948091F4038823A1F01091E900E0
:105410001F709091EC00892F817090FD80E8182B0F
:105420001092E9008091E80083FD0E94B3141F7080
:105430001093E90082E084BD93E095BD9AEF97BD9B
:1054400080936E000E94B010811102C00E94A010D3
:105450000AEE11E0D8018D918D018F3F11F00E946D
:10546000420AB1E00F3E1B07A9F70FEE11E0AFEFC4
:10547000EA2EA1E0FA2EF80181918F018F3F11F001
:105480000E94420AE016F106B1F78AE0EBEFF2E083
:10549000DF01282F1D922A95E9F7EEEDF2E0DF01FA
:1054A0001D928A95E9F740E060E080E00E947C0769
:1054B00090E080E00E94B931863E9E4F21F40E9428
:1054C000B010811168C066EE7EEF90E080E00E942F
:1054D000ED3160E082E090E00E94CF3181E0809386
:1054E000E80261E083E090E00E94CF3160E074E187
:1054F00084E090E00E94ED3160E086E090E00E9460
:10550000CF316FEF87E090E00E94CF3140E050E074
:10551000BA0188E090E00E94E13160E084E290E02E
:105520000E94CF3160E087E190E00E94CF3160E0DF
:105530008CE090E00E94CF3160E08DE090E00E942E
:10554000CF3119821A821B821C821D821E821F8209
:10555000188648E050E068E170E0CE0101960E94B4
:10556000BF3140E050E0BA0180E290E00E94E131BA
:1055700080E00E9419100E94A01040E050E0BA01A3
:105580008FE090E00E94E13140E050E0BA0183E119
:1055900090E00E94E13182E090E00E94AB31809384
:1055A000ED0284E090E00E94B93190933F04809333
:1055B0003E040E94B327EFEFF6E721E0E150F04010
:1055C0002040E1F700C000000E94B3278091FB0259
:1055D00080FF08C06FEF7FEF90E080E00E94ED3128
:1055E0000E94C90F83E090E00E94AB310E94340D0D
:1055F0008091E9020E94810E879A8F9A8091EA0237
:1056000081117CC088E090E00E94B3314B015C01C5
:1056100084E290E00E94AB31282F30E040E050E07F
:1056200060E070E080E090E000E20E94F63028291F
:1056300039294A295B292093B0033093B103409361
:10564000B2035093B3036093B4037093B503809394
:10565000B6039093B7032C7F09F040C025E0209358
:10566000B0031092B1031092B2031092B3031092E0
:10567000B40330E040E050E060E00E943D1288E07A
:1056800090E00E94B3316B017C0184E290E00E94C3
:10569000AB31282F30E040E050E060E070E080E087
:1056A00090E00E94F630B22FA32FF42FE52F5B017C
:1056B00097018601BC29A12BFE29E32BB093B003EF
:1056C000A093B103F093B203E093B3036093B403E8
:1056D000B092B5038093B6039093B7030E948D07F1
:1056E00010920C038091B00380FF05C060E08695A6
:1056F00086950E945E1381E08093EA0280913E04C9
:10570000806880933E0460913E0470913F0484E081
:1057100090E00E94ED318BE191E09093DF03809364
:10572000DE03E5E04E2EE3E05E2EF8EF6F2EF2E0B2
:105730007F2E8091F403FF24F39400E112E1853081
:1057400009F4A5C00E94B3276EEEA62E62E0B62E25
:105750007BEF872E72E0972ED401F50121913191D4
:105760008D919D916E167F0609F4A6C02817390702
:10577000A9F3312CF401019111914F01D501CD9084
:10578000DD905D01C016D10661F1C026D126212C25
:10579000EE24E394F12CC6018E219F21892BB9F0D0
:1057A00029A23AA20E94B0059CA38BA3B1E0BDA39D
:1057B00091E098012E213F21232B09F490E09EA334
:1057C00049A15AA16BA17CA18DA10E94E526239439
:1057D000EE0CFF1CE0E12E12DECFF50132971183B3
:1057E00000833394F5E03F12C5CF0E94A4056AC040
:1057F0008091F403843009F43AC080E00E941B0ECB
:1058000010920C038091EC0281110DC0F092EC0219
:105810008091B003982F91709093EB028E7F8093CC
:10582000B0030E9467071092E20388E190E0A0E4D1
:105830000FB6F894A895809360000FBEA093600007
:1058400083B7817F846083BF83B7816083BF78948F
:10585000889583B78E7F83BF0FB6F894A895809103
:105860006000886180936000109260000FBE80919C
:10587000F303882361F00E94B327EBEFF2E08191FC
:105880009191892B09F0EFC34E165F06C1F7809105
:10589000F403853009F4ACCF0E9482140E9465069F
:1058A0000E941B0E1092EC028091EB0281110E946B
:1058B000A3130E94261246CF2817390709F059CFA3
:1058C0000E948F278091C7039091C803892B09F408
:1058D0003EC04091BC035091BD036091BE037091E6
:1058E000BF032FB7F8948091E3039091E403A09154
:1058F000E503B091E6032FBF841B950BA60BB70BF6
:105900004091B8035091B9036091BA037091BB0301
:1059100084179507A607B707D0F08091C703909129
:10592000C8030E94DD191092C8031092C703109299
:10593000BC031092BD031092BE031092BF031092DD
:10594000B8031092B9031092BA031092BB030091EE
:10595000DA031091DB0301151105D1F08091F802F3
:105960009091F9020E949505893C910588F0C80143
:10597000992734E0880F991F3A95E1F7FC01E65D1D
:10598000FE4F208122FD04C08B5D9E4F0E94581463
:1059900080910C038823D9F180910B03E091B0032F
:1059A000E695E695E81BE0930703823009F040C1D5
:1059B000F0E0E757FD4FE4910E2F10E02CE2E22ECD
:1059C0002AE0F22E80910803882361F010920803E8
:1059D0000E94B005909306038093050310920A037A
:1059E000109209030E94B005E0910503F0910603AF
:1059F0008E1B9F0B8F3F9F4750F4E00FF11FF093DA
:105A00000603E093050385E093E0F701099586E03E
:105A1000E2EDF3E0DE01119601900D928A95E1F737
:105A2000D090D3031091D4030091D503E090D60316
:105A3000F090D7031092D4031092D5031092D6039E
:105A40001092D703812F802B09F445C08091D00399
:105A50009091D1030E9495059C019091CB039923CD
:105A600009F42AC325313105B0F19F3F19F09F5F3A
:105A70009093CB03112359F00E94C1069FEF11169A
:105A80000CF491E0899F802D11248093D40300238E
:105A900059F00E94C10691E010160CF09FEF899F0B
:105AA000802D11248093D5038091D403882399F00D
:105AB000C090D503CC2079F00E94E106882309F438
:105AC00023C18093D4038C2D0E94E106882309F41E
:105AD0001DC18093D5038E2D8F2909F445C0809177
