:100000000C94DD030C9415040C9415040C94150445
:100010000C9415040C9415040C9415040C941504FC
:100020000C9415040C9415040C9442280C94FE278F
:100030000C943F290C9415040C9415040C9415048D
:100040000C9415040C9415040C9415040C941504CC
:100050000C9415040C941B290C9415040C94150491
:100060000C9415040C9415040C9415040C941504AC
:100070000C9415040C9415040C9415040C9415049C
:100080000C9415040C9415040C9415040C9415048C
:100090000C9415040C9415040C9415040C9415047C
:1000A0000C9415040C9415040C9415040501090214
:1000B000A10185020901A1000509190129081500FE
:1000C0002501950875018102050109300931158165
:1000D000257F95027508810609381581257F9501D0
:1000E00075088106050C0A38021581257F95017572
:1000F000088106C0C005010980A101850319012AF4
:10010000B700150126B700950175108100C0050CD8
:100110000901A101850419012AA002150126A002E6
:10012000950175108100C005010906A1018506052C
:100130000719E029E71500250195087501810205D9
:1001400007190029EF1500250195F07501810205B9
:10015000081901290595057501910295017503910D
:1001600001C00660FF0961A1010962150026FF00B8
:100170009520750881020963150026FF00952075FA
:10018000089102C005010906A101050719E029E748
:1001900015002501950875018102950175088101F9
:1001A0000507190029FF150026FF0095067508812F
:1001B000000508190129059505750191029501753C
:1001C000039101C0000000000000000000000000DA
:1001D000000000000000000000000000000000001F
:1001E00000000000000000007E0F00D4FFFFFFC7EA
:1001F0000000007800000000000000002A2B28000A
:1002000000000000000000000000000000000029C5
:10021000000000002C1E3420212224342627252E05
:10022000362D3738271E1F2021222324252633333D
:10023000362E37381F0405060708090A0B0C0D0E69
:100240000F101112131415161718191A1B1C1D2F35
:100250003130232D350405060708090A0B0C0D0E55
:100260000F101112131415161718191A1B1C1D2F15
:100270003130354C1E0F0500047F3F1F643214647B
:100280003214783C1E1E140A05000101010101010F
:10029000010101020202020202020202030303033D
:1002A000030303030404040404040405050505050D
:1002B00006060606060707070707080808080909CB
:1002C00009090A0A0A0B0B0B0C0C0C0D0D0D0E0E76
:1002D0000E0F0F0F10101111111212131314141509
:1002E0001516161717181819191A1A1B1B1C1D1D7D
:1002F0001E1E1F20202122222324242526262728D3
:1003000029292A2B2C2D2D2E2F3031323233343502
:10031000363738393A3B3C3D3E3F40414243444505
:10032000464748494A4C4D4E4F50515354555658E4
:10033000595A5B5D5E5F616264656668696B6C6D8E
:100340006F7072737577787A7B7D7E808283858704
:10035000888A8C8E8F91939596989A9C9EA0A2A342
:10036000A5A7A9ABADAFB1B3B5B7BABCBEC0C2C447
:10037000C6C9CBCDCFD1D4D6D8DBDDDFE2E4E7E907
:10038000EBEEF0F3F5F8FAFDFFFFAA7F55402223CC
:10039000252628292A2C2D2F3032333536383A3B62
:1003A0003D3E4042434547494A4C4E5051535557B4
:1003B000595A5C5E6062646668696B6D6F717375D3
:1003C00077797B7D7F81838587898A8C8E909294D3
:1003D00096989A9C9E9FA1A3A5A7A8AAACAEAFB1E0
:1003E000B3B4B6B8B9BBBCBEBFC1C2C3C5C6C7C92A
:1003F000CACBCCCDCED0D1D2D2D3D4D5D6D7D7D8E4
:10040000D9D9DADADBDBDBDCDCDCDCDCDDDDDDDD35
:10041000DCDCDCDCDCDBDBDBDADAD9D9D8D7D7D63D
:10042000D5D4D3D2D2D1D0CECDCCCBCAC9C7C6C5F4
:10043000C3C2C1BFBEBCBBB9B8B6B4B3B1AFAEAC3A
:10044000AAA8A7A5A3A19F9E9C9A98969492908EE5
:100450008C8A89878583817F7D7B79777573716FBE
:100460006D6B6968666462605E5C5A59575553519A
:10047000504E4C4A4947454342403E3D3B3A383650
:10048000353332302F2D2C2A292826252322167C7D
:100490001E001F0020002100220023002400250050
:1004A000260027002D002E002A004C00A8002B005B
:1004B00014001A000800150017001C0018000C009A
:1004C000120013002F00300031004B004E00005787
:1004D00004001600070009000A000B000D000E00C2
:1004E0000F00330034002800000000000000E1008D
:1004F00000001D001B00060019000500110010007F
:10050000360037003800E500015752000000E000D7
:10051000E300E2000000000000002C0000000000EA
:100520000000E6000257E400500051004F00350083
:100530003A003B003C003D003E003F0040004100CF
:1005400042004300440045004C00490046000100C1
:100550004A0052004D004B00010001000100010063
:100560000100010001000100010001000100010083
:10057000500051004F004E00010001000100010039
:10058000010001000100280100000000000001003E
:10059000000001000100B20001000100110A29035E
:1005A0000100010001000100010001000000010044
:1005B000010001000000000000004C0000000000ED
:1005C000000001000100652101000100010035006B
:1005D0000100010001000100010001005F00600056
:1005E00061000100560057004C020100A600010006
:1005F0004A0052004D004B00010001005C005D000C
:100600005E000100550054000100010001000100DE
:10061000500051004F004E000100010059005A00E7
:100620005B00010001002801000000000000010043
:10063000000001000100B2000100010001006200A1
:10064000620063005300010001000100000001008E
:100650000B7001000000000000000100000000001D
:1006600000000100010001000100010001002078EC
:100670002B78010001001370AA00A900AE00A800A9
:10068000010001000100010001000100007C0100E7
:100690000100010001000100010001000100010052
:1006A0000100010001000100010001000100010042
:1006B0000100010001000100010001000100010032
:1006C0000100010001000100000000000000010025
:1006D0000000010001000100010001000100100301
:1006E0000100010001000100010001000000010003
:1006F00001000100000000000000010000000000F7
:100700000000010000520100010001000100090287
:100710005B00030100A0FA090400000103010100CD
:100720000921110100012240000705810308000191
:100730000904010002030000000921110100012247
:1007400022000705820320000107050303200001A2
:100750000904020001030000000921110100012227
:10076000B60007058403200001120100020000000A
:10077000086B7011000100010200011C0369006B8D
:10078000006B0069003600380020004100750072DF
:10079000006F007200610000001A0377007500719D
:1007A0000075006500200073007400750064006926
:1007B000006F000000040309040011241FBECFEFE6
:1007C000DAE0DEBFCDBF04B603FE18C08091180486
:1007D00090911904A0911A04B0911B048730904B9A
:1007E000A740B04B59F410921804109219041092BB
:1007F0001A0410921B04E0E0F8E3099524E0AAE053
:10080000B2E001C01D92A831B207E1F712E0A0E00A
:10081000B1E0ECEEF3E602C005900D92AA30B1070C
:10082000D9F70E9466290C948D310C940000482F52
:1008300020910F049091D60357E0291302C080E065
:10084000089530E0529FF001539FF00D1124E952BA
:10085000FC4F8181681306C08081481303C08581E5
:100860008111EECF2F5F3F4F2770E7CFE8EDF0E02B
:1008700080818E7F80831092E2001092DA001092C5
:10088000E100A0EEB0E08C9181608C9380818F7745
:10089000808319BCA7EDB0E08C918E7F8C93808112
:1008A0008F7E80831092A70308952091E4003091F9
:1008B000E50095E6A9012091EC00822F817020FFD0
:1008C00006C08091E80080FF06C080E00895209176
:1008D000E80022FD1AC08091CC03882389F085307E
:1008E00089F08091EB0085FD0FC02091E4003091EC
:1008F000E50042175307F9F29150E1F684E00895BC
:1009000082E0089583E0089581E008958091CE0308
:1009100087FF13C08091E80082FF06C08091E80045
:100920008B778093E80004C08091CC038111F2CFD3
:1009300008958091CC038823D9F38091E80080FF4B
:10094000F8CF8091E8008E77ECCF982F9093E90054
:10095000242F762F50E0891731F07091EC00209110
:10096000ED005091F00021FD07C09F5F973071F7B7
:100970008093E90081E008953091EB003E7F309351
:10098000EB003091ED003D7F3093ED003091EB00B6
:1009900031603093EB007093EC002093ED005093A6
:1009A000F0002091EE0027FDE0CF80E00895B0E058
:1009B000A0E0EDEDF4E00C94F02FC8EDD0E08881DC
:1009C0008F7E8883E7EDF0E080818160808384E022
:1009D00082BF81E08093A70388818E7F888302EEA7
:1009E00010E0F80110821092DA0081EEC82ED12CAE
:1009F000F601108288818F77888388818068888358
:100A000088818F7D888319BC1092CC031092CD030E
:100A10001092CB031092CA0390EEE92EF12CF7014D
:100A200080818B7F808388818160888342E060E061
:100A300080E00E94A504F60180818E7F8083F8010A
:100A4000808181608083808188608083F7018081DC
:100A50008E7F8083888180618883CDB7DEB7E8E0B0
:100A60000C940C30FC018091D4039091D50386172F
:100A70009707A0F06115710529F49091E8009E7721
:100A80009093E80090E06115710551F4911108C050
:100A90008091E80082FF34C080E00895BC01F2CF6D
:100AA0008091CC038823C1F18530C1F18091E800A9
:100AB00083FD30C08091E80082FDEACF8091E8009C
:100AC00080FFE1CF8091F3002091F200382F611573
:100AD000710519F02830310558F091E028303105C2
:100AE00009F090E02091E8002E772093E800CBCF2A
:100AF00081918093F100615071092F5F3F4FE7CFE3
:100B00008091CC03882341F0853041F08091E8004A
:100B100083FFBECF81E0089582E0089583E00895C9
:100B20008091A90308959C014FB7F8948091A30385
:100B30009091A403A091A503B091A6034FBF821B7F
:100B4000930B08952FB7F8946091A3037091A403B9
:100B50008091A5039091A6032FBF08952FB7F89415
:100B60008091A3039091A403A091A503B091A60343
:100B70002FBF0895A3E0B0E0E0ECF5E00C94F62F71
:100B80002091A0033091A10328173907A1F0909379
:100B9000A1038093A003E0919E03F0919F033097FF
:100BA00051F024E029839B838A830680F781E02D1E
:100BB000CE01019609952396E2E00C941230A3E051
:100BC000B0E0E5EEF5E00C94F62F20919C03309117
:100BD0009D0328173907A1F090939D0380939C03F0
:100BE000E0919E03F0919F03309751F023E0298319
:100BF0009B838A830680F781E02DCE0101960995BB
:100C00002396E2E00C941230E0919E03F0919F0352
:100C1000309729F00190F081E02D0995089580E04A
:100C20000895CF93DF93EC0140918D0350918E0393
:100C300060918F03709190032FB7F8948091A30374
:100C40009091A403A091A503B091A6032FBF841B8C
:100C5000950BA60BB70B843F9140A105B10518F584
:100C600080918D0390918E03A0918F03B09190039A
:100C70008093890390938A03A0938B03B0938C0392
:100C800084EF91E0A0E0B0E0809385039093860329
:100C9000A0938703B0938803D0939503C0939403E4
:100CA000DF91CF9108950E94A2056093890370930C
:100CB0008A0380938B0390938C0382E390E0A0E0FF
:100CC000B0E0E2CFFC018481862351F49281992324
:100CD000B9F06923808583FF05C081E061110FC0F1
:100CE00080E00895892F8F7092959F70982B862FA2
:100CF0008F7062956F70682B81E09613F1CF089525
:100D000081E0FDCFFA01811101C0FB010995089531
:100D1000089580917D03982F9E7F61F48170826099
:100D200080937D0380918003893C18F088EC809348
:100D3000800308958635B0F381708465F1CFAF925A
:100D4000BF92DF92EF92FF920F931F93CF93DF93A7
:100D5000182F062FE901493C08F048ECE42FF0E099
:100D6000E757FD4F011110C0E4915E2F4E2F4983CC
:100D7000E8835A83DF91CF911F910F91FF90EF90FD
:100D8000DF90BF90AF900895202F30E04491D42E93
:100D9000E42EF12C56E0159FC0011124EFEFF0E096
:100DA000BF010E94A22F812F90E0880F991F55E567
:100DB000569FD001579FB00D11248A1B9B0B982F73
:100DC000990F890F5F01A21AB30AAE9CD001AF9CA4
:100DD000B00DBE9CB00D11245B2F089F8001112423
:100DE000012F11275F01A01AB10AAE9C8001AF9CB0
:100DF000100DBE9C100D11245F01A81AB108A29E0F
:100E0000C001A39E900DB29E900D1124892F9927A9
:100E1000E81BF90BEE9DC001EF9D900DFE9D900D1E
:100E20001124E92F62307105A1F050F461157105AC
:100E300009F49DCF6130710581F0EB2F512F97CFD1
:100E40006430710569F080F06630710509F48FCF68
:100E5000F4CFE42F4B2F592F8ACFE42F412F87CF88
:100E6000EB2F542F492F83CF4B2F5D2DE12F7FCFB9
:100E70000E94AE059C019091CE028091CF02982BEA
:100E800021F03093CB022093CA029091D00280913E
:100E9000D102982B21F03093C9022093C802E0912F
:100EA0009E03F0919F03309749F082E08093CC023B
:100EB0000480F581E02D8CEC92E0099508958091F5
:100EC000C70280FD16C081FD16C082FD16C080914C
:100ED000C6028823A1F0883280F428E0829FC001F6
:100EE000112468E270E00E94B62F862F672B39F03C
:100EF000089582E0089584E0089588E0089581E0EF
:100F000008958091C70280FD14C081FD14C082FD48
:100F100016C08091C502882381F08E3180F420E5CF
:100F2000829FC00111246EE170E00E94B62F862FCF
:100F3000089584E1089588E2089588E0089580E5A1
:100F40000895282F35EB2303C001112497FF04C017
:100F500080589109892F089580589F4FFBCF80E0DA
:100F60000895F894E82FE295EF70F0E031A1282F72
:100F70002F7081E090E001C0880F2A95EAF7982F42
:100F80009095932391A392A1892B82A3789408959D
:100F90009091160492FF10C041E0282F2471243054
:100FA00009F040E031E0282F2871283009F030E0C6
:100FB000431711F02CE0822793FF10C041E0282F47
:100FC0002471243109F040E031E0282F28712831C4
:100FD00009F030E0431711F02CE08227309117041C
:100FE00030FF10C051E0282F2171213009F050E06E
:100FF00041E0282F2871283009F040E0541711F003
:1010000029E0822731FF10C041E0282F21712131D2
:1010100009F040E031E0282F2871283109F030E054
:10102000431711F029E0822794FD877E08958238C6
:101030009105B9F1B0F48133910509F47DC048F40C
:101040008932910509F46DC08A32910509F47BC09B
:1010500008958533910509F45FC08933910509F13D
:101060000895833E9105D9F138F4803E910529F128
:10107000823E910579F10895863E9105D9F1873E2A
:10108000910509F43EC0843E910541F52091170475
:1010900021FF24C08091160484FD19C087EE90E0E2
:1010A000089520911604237009F05AC02091170466
:1010B00023FF14C089E290E008952091160420FDDA
:1010C00038C03091170430FF09C024FF43C090E0BE
:1010D00080E008952091160422FDF7CF0895209115
:1010E000160422FD3AC03091170430FD39C024FFA8
:1010F000F5CFEDCF2091160423FFF0CF24FDE7CFED
:10110000CDCF2091160423FD2EC03091170431FF5E
:10111000EECF84EE90E008952091160425FFDECFF7
:10112000C9CF2091160425FD21C02091170423FF6B
:10113000D5CF89E390E0D2CF2091160426FFCECF01
:101140008AE290E008952091160426FFC7CF81E33C
:1011500090E0089583EE90E0089582EE90E0089587
:1011600080EE90E0089586EE90E0089585E390E0AB
:1011700008951F93CF93DF930E941708EC01C115C8
:1011800080E5D807F0F5C11580E4D80708F09CC0C9
:10119000C03ED10520F5CD3CD10508F082C0C83A4B
:1011A000D10578F4C53AD10508F073C0C130D10536
:1011B00019F1209709F1C430D105F0F4D0E0C0E076
:1011C0001BC0C33CD105D0F7C85AD0E0CC0FDD1FFF
:1011D000CC57DE4F0990D881C02DD4640DC0C11505
:1011E00080E2D80708F0D1C0C11581E0D80708F027
:1011F0005AC0C83ED10510F7CE01DF91CF911F91A3
:101200000895C03682E5D80718F5C03482E5D807BE
:1012100008F06BC0C03282E5D80708F05FC0C11586
:1012200082E5D80708F497C02C2F2695269580E2F2
:10123000289F900111248C2F8370C1E0D0E002C060
:10124000CC0FDD1F8A95E2F7C22BD32BDD68D4CFFC
:10125000C03A82E5D80760F4C03882E5D80708F4C0
:1012600059C0CF71D0E0DC2FCC27C46FD06AC4CF77
:10127000C03C82E5D80708F462C0C03E82E5D807CA
:1012800008F09CCFDC2FCC27CC27DF71C06FD06A51
:10129000B3CFC55AD0E0CF57DE4FC881D0E0D0647D
:1012A000ABCFD065A9CF8D2F0E94C807182FCE01D4
:1012B00099270E941708C12FD0E0DC2FCC27CC271C
:1012C000DF71C82BD92B98CFCE0199270E94170820
:1012D000CC27DF70C82BD92BD06A8ECFCF71D0E04E
:1012E000DC2FCC27C16FD06A87CF2C2F269526956F
:1012F000277080E2289F900111248C2F8370C1E019
:10130000D0E002C0CC0FDD1F8A95E2F7C22BD32BB1
:10131000DC6872CF2C2F26952695277080E2289FB7
:10132000900111248C2F8370C1E0D0E002C0CC0F5B
:10133000DD1F8A95E2F7C22BD32BDA685DCF8C2FA5
:101340008F710E94C807C82FD0E0DC2FCC27CC2794
:10135000DF71D06251CF8C2F8F710E94C80755E08A
:10136000D695C7955A95E1F7CF70D0E0DC2FCC2702
:10137000282F30E084FF05C044E0220F331F4A9538
:10138000E1F7C22BD32BD06937CF8D2F8F710E94FD
:10139000C807182FCE0199270E941708C12FD0E047
:1013A000DC2FCC27CC27DF71C82BD92BD2CF809153
:1013B0009802882331F010929802109297021092AE
:1013C000960208958095909199039823909399039C
:1013D0000895909153019923D1F09091160497FFAD
:1013E00016C0E82FE695E695E695EE31E0F4F0E0DC
:1013F000E45FFD4F282F277081E090E001C0880F47
:101400002A95EAF780959281892382830895EEE0F8
:10141000F2E09191891303C0DF0111971C9292E0D1
:10142000E431F907B1F70895909153019923C1F080
:101430009091160497FF14C0E82FE695E695E6957F
:10144000EE31F8F4F0E0E45FFD4F877021E030E02A
:1014500001C0220F8A95EAF78281822B8283089548
:10146000AEE0B2E0EFEF90E02D91821751F0EF3F48
:1014700019F4211101C0E92F9F5F9630A9F7EF3FC2
:1014800009F408950E2E000CFF0BE45FFD4FE6CF2C
:1014900080910F049091D603981301C008958F5F37
:1014A0008770FACF953080F5803170F540E1949FD8
:1014B00090011124820F932F911D682F677023E0F4
:1014C000969587952A95E1F7FC01EE0FFF1FE80F2F
:1014D000F91FEF5AFD4F50E040E080E0219130E0ED
:1014E000062E02C0369527950A94E2F7217033271D
:1014F000042E01C0220F0A94EAF7822B4F5F5F4F40
:101500004330510559F7089580E00895953098F5D6
:10151000803188F540E1949F90011124820F932F30
:10152000911D282F277041E001C0440F2A95EAF74A
:1015300023E0969587952A95E1F7FC01EE0FFF1FB2
:10154000E80FF91FEF5AFD4F90E080E070E05191F5
:10155000DF0111979B01082E02C0369527950A944A
:10156000E2F7217021952527242325272C93019626
:101570008330910561F70895809399020895662359
:1015800009F45DC08D3C41F40E94810781958093F0
:10159000CF020E94380708958E3C19F40E948107FB
:1015A000F6CF8F3C31F40E94810781958093CE0263
:1015B000F0CF803D19F40E948107F8CF893D29F4CE
:1015C0000E945F078093D002E4CF8A3D21F40E94FD
:1015D0005F078195F7CF8B3D31F40E945F078195BE
:1015E0008093D102D6CF8C3D19F40E945F07F8CFCB
:1015F0009FE2980F983070F4815D990B21E030E004
:1016000001C0220F8A95EAF78091CD02822B809348
:10161000CD02BFCF8D3D31F48091C70281608093B0
:10162000C702B7CF8E3D21F48091C7028260F7CF09
:101630008F3D09F0AECF8091C7028460F0CF40911A
:10164000CE028D3C59F48091CF0287FF0DC01092DD
:10165000CF0241110BC01092C50208C08E3C81F42C
:101660008091CF0218169CF3442381F08091D00220
:101670009091D102892B09F08CCF1092C60289CFAC
:101680008F3C49F447FFF0CF1092CE028091CF02F9
:101690008111ECCFE0CF803D19F41416ACF3E4CF08
:1016A0009091D002893D29F41916F4F61092D002D7
:1016B000DBCF8A3D19F497FFD7CFF8CF9091D102B5
:1016C0008B3D29F497FFD0CF1092D102CDCF8C3D26
:1016D00019F41916CCF3C8CF9FE2980F983090F404
:1016E000815D990B21E030E0B90102C0660F771FE0
:1016F0008A95E2F7CB0180959091CD028923809362
:10170000CD02B2CF8D3D31F48091C7028E7F8093A0
:10171000C702AACF8E3D21F48091C7028D7FF7CFFB
:101720008F3D09F0A1CF8091C7028B7FF0CF982F1A
:1017300092959F7011F0892F94E0282F2695269579
:1017400011F09E5F822F869509F09F5F892F089583
:101750009C013A9521153F4150F5FC01EE27F170AF
:10176000BC0166277270AC01442754709C0122278B
:10177000387094FF0EC080E1EF2B09F480E0672BF6
:1017800009F08062452B09F08064232B89F0806882
:10179000089581E0EF2B09F480E0672B09F0826067
:1017A000452B09F08460232B19F08860089580E0B0
:1017B0000895FC019281913029F4858180FF06C053
:1017C00083E00895923021F081E0089582E0089549
:1017D00084E008950F931F93CF93DF938B01EA0169
:1017E0009091CC03943061F58093E9008FEF909154
:1017F000E800815095FD06C095ED9A95F1F700003F
:101800008111F5CF8091E80085FF1AC00E94550430
:10181000811111C08091E80085FD06C08091E8002B
:101820008E778093E800F2CFF80181918F01809349
:10183000F100219779F78091E8008E778093E80096
:10184000DF91CF911F910F91089543E050E0BC01CB
:1018500084E00E94EA0B089546E050E0BC0184E079
:101860000E94EA0B0895CF93DF93EC01809153011E
:10187000811111C048E050E0BE0181E00E94EA0BF6
:1018800080E2FE01AAEAB3E001900D928A95E1F7A9
:10189000DF91CF9108958091160487FF05C040E243
:1018A00084E050E0BE01EACF48E081E0FACF81E079
:1018B0008093E00080E28093D8001092C9008FE10D
:1018C0009EE40197F1F700C0000087E090EBDC0197
:1018D0008093180490931904A0931A04B0931B04E6
:1018E00088E19CE00FB6F894A895809360000FBE45
:1018F00090936000FFCF80917D0380FD0AC0EDEDE5
:10190000F2E0118210821282339653E0E931F5073A
:10191000C1F76A9A3EB13B7F2EB124604FB7F8946D
:101920008DED92E0FC015191CF0168E02EB90000ED
:1019300000C057FF3EB9550F000000C000C000C0F6
:101940003EB900C06A9591F7F3E089319F0751F7DE
:101950004FBF8FE594E00197F1F700C000000895B4
:10196000EF92FF920F931F93CF93DF938C01CDEDF6
:10197000D2E0F12CE12CF801948160917F038091F9
:101980007E03FAE0EF16F104ECF49923E9F09E01EE
:10199000409180030E949F062FEFE21AF20A2396DD
:1019A00084E1E816F10439F70E947B0CF801848188
:1019B00090E00196817099278483CDB7DEB7E6E089
:1019C0000C940E30992319F39E0140E0E3CFB0E070
:1019D000A0E0EDEEFCE00C94EC2FEC014C81042F28
:1019E00010E09801D8010E947E319B01AC010E9459
:1019F00049314B015C01E0E2F0E0E01BF10BA5E5B1
:101A0000B0E0AC019B010E9449316B017C019F0158
:101A1000DF010E94D72F9B01AC010E9454319B0132
:101A2000AC01280D391D4A1D5B1DC701B6010E947E
:101A30005C31F22E822F90E039E23F1598F143E0BD
:101A4000249F9001112435952795122F10959DED17
:101A5000C92E92E0D92E00E085E5E82EEF188E2DF4
:101A600001FD8F2D9601412F60917F030E949F06FB
:101A70000F5F53E0C50ED11C043189F70E947B0C27
:101A80009C8181E0992319F0903219F48FEF8093B3
:101A9000520180915201890F8C83CDB7DEB7ECE003
:101AA0000C94083025E530E0A901481B590BCA0108
:101AB0009A01220F331F280F391F37FFC4CF2F5F22
:101AC0003F4FC1CF0F931F93CF93DF93CDEDD2E064
:101AD000FE01118210821282339683E0E931F80709
:101AE000C1F710E000E08091DB02082E000C990B9A
:101AF000081719078CF180915101082E000C990BE1
:101B0000801791074CF19E014091800360917F0303
:101B100080917E030E949F060F5F1F4F2396043122
:101B2000110509F70E947B0C809150019091DB0216
:101B3000980F9093DB0220915101280F20935101BF
:101B4000121614F493311CF0819580935001DF91AB
:101B5000CF911F910F910895198218821A82DCCFBC
:101B6000B0E0A0E0E6EBFDE00C94EF2FFC018281F9
:101B7000DD24DA9480FD02C0DD24D3940DED12E063
:101B8000D0E0C0E024E1B22EF8011182108212826E
:101B900094E0E92EF12CC12C8091DA028C0D853174
:101BA000C4F16B2D0E94942F892F082E000C990BE5
:101BB0008C179D0791F4809180038E9DA0018F9DCD
:101BC000500D11245595479555954795980160916D
:101BD0007F0380917E030E949F06CD0CF1E0EF1AF7
:101BE000F108D1F621960D5F1F4FC431D10561F682
:101BF0000E947B0C8091DA0291E0D91210C0811111
:101C00000CC083E18093DA02CDB7DEB7E9E00C9433
:101C10000B3087FFCACF8C5EC8CF8150F3CF90E0E6
:101C20000196BE010E94B62FEDCFEF92FF921F9357
:101C3000CF93DF93EC018DEDE82E82E0F82E10E0DB
:101C40008C8197014091800360917F03810F0E94F6
:101C50009F06145F83E0E80EF11C103F89F70E9495
:101C60007B0C9A818C8190FF08C08F5F8C83DF9101
:101C7000CF911F91FF90EF9008958150F7CF9091F1
:101C80007D0390FF0CC0EDEDF2E081836083428321
:101C9000339693E0E931F907C1F70E947B0C089570
:101CA000A3E0B0E0E6E5FEE00C94F42F8C01809117
:101CB000DC0281110AC09E012F5F3F4F48EC6FEF9D
:101CC0000E949F068A818093DC02F8016481613062
:101CD00069F08091DC0240E0662361F040E0623010
:101CE00011F44091DC0280E060E004C06091DC020D
:101CF00040E080E00E943F0EF801848190E0019670
:101D000063E070E00E94B62F84832396E4E00C9495
:101D10001030A3E0B0E0EFE8FEE00C94F62F9091D5
:101D20007D0390FF0AC09E012F5F3F4F0E949F06D8
:101D30004B8169818A810E943F0E2396E2E00C94D8
:101D40001230CF93DF93EC01EDE7F3E04381628142
:101D50008C810E94890E8C818F5F8C83DF91CF9163
:101D60000895CF93DF93EC01EC81F0E0E257FC4F54
:101D70004491EDE7F3E0628181810E94890E8C81BC
:101D80008F5F8C83DF91CF910895CF93C82F4AE462
:101D900068E281FD02C040E060E080E00E943F0E0A
:101DA000C1FD04C08F9A81E0CF9108958F98FBCF39
:101DB000CF93C82F0E94970B823061F0833071F06F
:101DC000813081F441E16CEC8AEA0E943F0E8C2F55
:101DD000CF91089540E069E98FEFF7CF47E760E0E2
:101DE0008EEEF3CF40E060E080E0EFCF0E94D80EAF
:101DF0008093A90208959091A90221E030E0F901B1
:101E000001C0EE0F8A95EAF7D90102C0AA0FBB1FE5
:101E10006A95E2F7EA2B01C0220F4A95EAF7892F6B
:101E20008E23E81305C0292B822F0E94F60E0895F9
:101E300020952923F9CF21E030E001C0220F8A95B7
:101E4000EAF720958091A90282230E94F60E089558
:101E5000909115048095892380931504282F27706D
:101E600089F4891779F09091170492FF0BC0869539
:101E7000869586950E941B0F1092150410921404EB
:101E800010921304089580911101833011F40E947F
:101E90001B0F089580910F01833019F482E00E9496
:101EA0001B0F089580910D01833019F481E00E9489
:101EB0001B0F10920D01089521E030E001C0220FA8
:101EC0008A95EAF78091A902822B0E94F60E089566
:101ED0009091170492FF10C098E0899F90011124FF
:101EE0002360209315040E945C0F0E94AE0590931E
:101EF00014048093130408950E945C0F08950E94B7
:101F0000D90B809311018330A9F0843049F08230DD
:101F1000A1F483E00E94680F81E00E94280F0895D9
:101F20008091A902882331F083FF04C083E00E94DE
:101F30001B0F089583E00E945C0F08950E94D90B47
:101F400080930F018330A1F0843041F0823099F406
:101F50000E94680F81E00E94280F08958091A902D5
:101F6000882331F082FF04C082E00E941B0F089595
:101F700082E00E945C0F0895CF93DF93C9EAD2E01C
:101F800060E0CE010E94F6302196C11584E0D807AA
:101F9000B9F7DF91CF9108951F93CF93DF93122F5D
:101FA0008430E0F46530D0F44031C0F490E2699FB1
:101FB000E001112450E0440F551FC40FD51F90EAD3
:101FC000899FC00DD11D1124632FCE0189960E94D7
:101FD000F630612FCE018A960E94F630DF91CF91C4
:101FE0001F910895AF92BF92CF92DF92EF92FF922E
:101FF0001F93CF93DF938EE8C82E84E0D82ED0E0D5
:102000007601C0E014C0F50125913491412F6C2F69
:102010008D2F0E94CC0F82E0A80EB11C1F5F1031E3
:1020200091F780E2E80EF11CCF5FC53019F057013F
:1020300010E0E9CFDF5F80EAC80ED11CD43001F791
:10204000DF91CF911F91FF90EF90DF90CF90BF90E5
:10205000AF900895CF93C82F6FEF811163E285E2AF
:1020600090E00E94F630C1110DC0CFEF6C2F86E2D8
:1020700090E00E94F6306C2F87E290E00E94F630EC
:10208000CF910895C7E0F2CF80E00E942A1060E06F
:1020900088E290E00E94F6300E94F20F0E94BC0F8E
:1020A00081E00E942A1008950F931F93CF93DF932E
:1020B000843030F5653020F5403110F520E2629F24
:1020C0008001112450E0440F551F040F151F30EA02
:1020D000839F000D111D1124C80189960E94D230E2
:1020E000C82FD0E0DC2FCC27C8018A960E94D230BE
:1020F0009E01282BC901DF91CF911F910F91089567
:1021000090E080E0F8CF462F753040F4603130F435
:10211000843020F4672F0E945410089590E080E0EE
:102120000895CF92DF92FF920F931F93CF93DF9387
:102130006C010091A90280919902082BC3E0D0E0C4
:1021400010E0FC2EC8010C2E02C0959587950A94CC
:10215000E2F780FD0CC02197A0F7F12C8F2DDF91C5
:10216000CF911F910F91FF90DF90CF900895B6010E
:102170008C2F0E9483100E94B908019761F3EECF63
:10218000CF93DF93EC010E949110BE010E94831057
:102190000E94B908DF91CF910895FC012481222388
:1021A000C1F0808191810E94C01092959F709630FD
:1021B00091F058F4925F9F70923058F4803F19F07C
:1021C00030F4883E30F481E008959A5FF4CF843F84
:1021D000D1F380E00895883EB0F3813FD1F7F3CF8B
:1021E000A6E0B0E0E6EFF0E10C94F52F26E0FC016C
:1021F000DE01119601900D922A95E1F7FC012581EF
:1022000089819A81222399F0662389F00E94911096
:10221000182F682F89819A810E94860A69817A81A4
:10222000812F0E9483102696E3E00C9411300E94C7
:10223000520A182FF3CF85E290E00E94D230833209
:1022400089F486E290E00E94D230873059F487E228
:1022500090E00E94D23091E0873009F090E0892F21
:102260008170089580E0FCCFB0E0A0E0EAE3F1E106
:102270000C94E82FFC016280448081E08483EEE8C6
:10228000F3E07490EDE0F4E0E491009180030695B2
:10229000015810E0000F111F012F1127C9E1D3E0F1
:1022A0002DEDC22E22E0D22E3DE7832E33E0932E79
:1022B000AA24AA94B12C55245A94E719EE2EF12C95
:1022C00082E0861530F080917E03888380917F03C1
:1022D0008983411016C01B821A8296014A81698146
:1022E00088810E949F06259683E0C80ED11C8C161B
:1022F0009D0631F70E947B0CCDB7DEB7E0E10C9470
:1023000004308B818823E9F081508B83859DC00147
:1023100011246C8170E00E94A22FFB01FF27E2577D
:10232000FC4F8491E82FE719E59DC0011124B70106
:102330000E94A22F80918003689FB00111247A83AC
:10234000CCCF0E94A830B5010E94B62F801791070C
:1023500024F682E0861588F40E94A830B5010E9418
:10236000B62F88830E94A83020917F032695622F84
:1023700070E00E94B62F280F29831A828091800373
:10238000893C20F088EC8C838B83A7CF8431D8F7ED
:1023900084E1F9CF60917D03669570E04BE050E0F9
:1023A00085E491E00E94B830892B19F481E0809394
:1023B000D9020E94AE059093D3028093D202089571
:1023C000B0E0A0E0E6EEF1E10C94EC2F49015A01F7
:1023D0006B017C010E9489068401A4016A2D7B2D7A
:1023E00088E090E00E94083194014A2D5B2DB601EF
:1023F000C70100E20E943830622F84E290E00E9420
:10240000F630CDB7DEB7ECE00C940830A3E0B0E0D6
:10241000ECE0F2E10C94E92FF82E762EE42E622EF9
:1024200090917D0390FF2EC0E92FE695AE2FB0E08E
:10243000A153BE4F8C918093D8029E7F923031F58C
:102440009E012F5F3F4F8F2D0E949F064B81698118
:102450008A810E943F0EF0927E0370927F03E09289
:102460008003662079F020917D0360918103709153
:1024700082033F2D472D5E2D80918303909184032D
:102480000E94E0112396EFE00C940530823019F49D
:10249000E0908003E0CF863019F4F0907E03DBCF2C
:1024A0008930D9F38931B9F6E9518E2F8170582ED0
:1024B000E695F0E0E757FC4FE4910E2F10E08DED2C
:1024C000C82E82E0D82EB12CA12C94E1892E912C1B
:1024D000C501B4010E94A22F8F2D511013C0860F89
:1024E00096014E2D672D0E949F06A00EB11E83E01F
:1024F000C80ED11C89E1C81683E0D80649F70E94AE
:102500007B0CA9CF861BECCFEDE7F3E0438128E0FD
:10251000421B08F440E021E0628181810E940612A2
:102520000895EDE7F3E0438128E0420F08F44FEF10
:1025300021E0628181810E9406120895EDE7F3E0B7
:10254000628128E0621B08F460E021E04381818120
:102550000E9406120895EDE7F3E0628128E0620F21
:1025600008F46FEF21E0438181810E9406120895F3
:10257000EDE7F3E0818121E04381628188500E9490
:1025800006120895EDE7F3E0818121E04381628145
:10259000885F0E940612089580918103882319F0B4
:1025A00081508093810320917D0330917E0340917F
:1025B0007F03509180036091810370918203809129
:1025C0008303909184030E94E01108958091810318
:1025D000833018F48F5F8093810320917D033091C5
:1025E0007E0340917F03509180036091810370913D
:1025F000820380918303909184030E94E0110895E7
:1026000090917D0390FF34C09170811132C092602F
:1026100090937D03662391F020917D0330917E039A
:1026200040917F03509180036091810370918203F8
:1026300080918303909184030E94E01160917D0357
:10264000669570E04BE050E085E491E00E94B83080
:10265000892BB1F01092D90281E08093D50220E05D
:102660004091800360917F0380917E030E94061257
:1026700008958B3210F09465CBCF880F982BC8CF7C
:102680000E94CA11E9CFEDE7F3E080818160808389
:1026900060E086950E940013089580917D038695E1
:1026A000815009F48AE261E00E940013089580914C
:1026B0007D0386958F5F8B3208F081E061E00E9498
:1026C0000013089590917D0390FF08C09695981788
:1026D00028F0961718F40E945713089561E00E949D
:1026E00000130895EDE7F3E083E080831182128206
:1026F00013821482758123E030E040E050E060E016
:10270000868197810E94E0110895CF93809199036B
:1027100090919803892B80930C02809198028823D2
:1027200039F10E94AE052091960230919702821BEA
:10273000930B8C3D954010F00E94D70980910C02BC
:1027400090919802892B80930C02809153018823E9
:1027500009F447C08091160487FF43C08EE1EEE084
:10276000F2E090E0815008F03EC091110E94D7093C
:10277000C0919103C09580910C02C823809192036F
:10278000C82BC0930C0240E250E066E772E08CE098
:1027900092E00E94C530892B11F180E2ECE0F2E07A
:1027A000A6E7B2E001900D928A95E1F7E0919E03D1
:1027B000F0919F03309799F080915301882349F05D
:1027C0008091160487FF05C0C0930D0286E08093B8
:1027D0000C020280F381E02D8CE092E00995CF910C
:1027E000089586E0BCCF2191222309F4BBCF9F5FDF
:1027F000B9CFCF93DF93EC01EA85FB85309719F0D1
:102800006C857D8509958B81982F90958091980393
:102810008923809398038C810E94E2090E9485138A
:1028200086E0FE0111928A95E9F7DF91CF91089534
:10283000CF93DF93EC018D8181FD18C082608D8381
:10284000809198039B81892B8093980380919903B1
:102850009C81892B809399030E948513E885F985D3
:10286000309721F06C857D85CE01099510929B03F0
:1028700010929A038D8180FD03C0CE010E94F9134E
:10288000DF91CF910895882339F090919803982B88
:10289000909398030E9485130895882321F00E9445
:1028A000E2090E9485130895882339F090919903D5
:1028B000982B909399030E9485130895882309F417
:1028C00056C0823879F40E94040681FF50C089E323
:1028D0000E94140A0E94851389E30E94E9090E945C
:1028E00085130895833859F40E94040680FF3FC081
:1028F00083E50E94140A0E94851383E5EECF843895
:1029000059F40E94040682FF32C087E40E94140A30
:102910000E94851387E4E1CF9CEF980F913AE8F28B
:1029200090E2980F983050F4877091E001C0990FB1
:102930008A95EAF7892F0E94E209D1CF9BE5980F8B
:10294000933028F490E080E00E94DF05089598E538
:10295000980F9B3128F490E080E00E94BA0508951A
:1029600093E3980F933118F460E00E94BF0A089532
:10297000FF920F931F93CF93DF93F82E009196034E
:10298000109197030115110509F449C010929503A0
:10299000109294031092910310929203D80116960C
:1029A000CD91DC919E013A9521153F4108F4D07EEE
:1029B000D1E0C11101C0D0E0D8011996ED91FC9190
:1029C0001A97309731F01B966D917C9180E00995B4
:1029D000D823DD2339F08CEF8C0F813A30F58C2F22
:1029E0000E94E909FF2099F0E0919603F091970386
:1029F000808584FD0CC080919303882341F0808101
:102A000091819C01215031092F333E47A0F00E9453
:102A10008513109297031092960310929303C801A6
:102A2000CDB7DEB7E5E00C940F300E9485138C2FF4
:102A30000E945E14D7CF0E941106E9CFCF93C82F12
:102A40008823C9F08238C9F40E94040681FD13C0AE
:102A500089E30E94140A0E9485132FEF87EE93E00A
:102A6000215080409040E1F700C0000089E30E94BF
:102A7000E9090E948513CF9108958338A1F40E943B
:102A8000040680FDF8CF83E50E94140A0E94851396
:102A90002FEF81EE94E0215080409040E1F700C09C
:102AA000000083E5E4CF8438A1F40E94040682FD8F
:102AB000E2CF87E40E94140A0E9485132FEF81EE73
:102AC00094E0215080409040E1F700C0000087E48E
:102AD000CECF8CEF8C0F813A88F5809153018823FB
:102AE00001F18091160487FF1CC0EC2FE695E69556
:102AF000E695F0E0E45FFD4F828190E04C2F477057
:102B000021E030E002C0220F331F4A95E2F7822312
:102B10009323892B79F08C2F0E94E9090E94851359
:102B200009C0EEE0F2E08191C817A9F322E0E43198
:102B3000F207C9F78C2F0E94140A9BCF80E28C0FFA
:102B4000883068F4C77021E030E001C0220FCA95D8
:102B5000EAF780919903822B809399038ACFEBE562
:102B6000EC0FE33040F4F0E0EF57FE4F808190E04F
:102B70000E94DF0580CFE8E5EC0FEB3150F4F0E088
:102B8000EE0FFF1FEC57FE4F808191810E94BA0526
:102B900072CF83E38C0F833108F06DCF61E08C2F0F
:102BA0000E94BF0A68CF1F93CF93DF93182FD0E006
:102BB000C0E0893311F4C0E5D0E0812F0E941E15DA
:102BC000209739F4812F0E945E14DF91CF911F91DD
:102BD00008958FE99FE00197F1F700C00000219769
:102BE000EFCF0F931F93CF93DF93C62FD42F022FD6
:102BF000FC0185818823A9F0609312040E94AE0530
:102C00009093110480931004C77081E001C0880F75
:102C1000CA95EAF70E945414DF91CF911F910F914A
:102C2000089580911204681332C08091100490912D
:102C300011040E949305883C910548F510E21D0F90
:102C4000CD17B9F080E28C0F883040F4C77081E076
:102C500001C0880FCA95EAF70E944D14183048F455
:102C600081E09D2F977001C0880F9A95EAF70E9426
:102C70005414802F0E94D315183070F6D77081E05D
:102C800001C0880FDA95EAF70E944D14C5CFC770CE
:102C900081E001C0880FCA95EAF7F6CF0E94D90BF0
:102CA00080930D01833091F0843031F0823089F4CB
:102CB00089E30E94D31508958091A902882331F0F9
:102CC00081FF04C081E00E941B0F089581E00E94F3
:102CD0005C0F08959091170492FB222720F9281782
:102CE00079F080FB92F9909317046091160470912B
:102CF000170484E090E00E94143182E00E94280FC3
:102D0000089590E080E00E94E030863E9E4F19F4E6
:102D10000E941B11089580E00895109299038091FC
:102D20005301EEE0F2E0882329F18091160487FF39
:102D300021C08EE1DF011D928A95E9F790E080E0E5
:102D40000E94DF0590E080E00E94BA05109298038F
:102D50000E94851386E0ECECF2E0DF011D928A957B
:102D6000E9F71092C5021092C6021092C7020E94A3
:102D70003807089586E0DECFAAE2B0E0E2ECF6E1A3
:102D80000C94F52F8EEC93E02091F100DC012D9353
:102D9000CD01B3E0863D9B07B9F78091CF03833027
:102DA00009F472C0B8F4813009F449C0823009F4E2
:102DB000B3C08091E80083FF8BC28091CE039091D5
:102DC000CF039A3008F084C2E92FF0E0E157FE4CBF
:102DD0000C94CA2F8A3009F48EC08B3009F471C06C
:102DE000893039F78091CE03813219F78091D2036F
:102DF0009091D303009711F00297D9F68091E800E3
:102E0000877F8093E8008091E80082FF38C090912E
:102E1000F3008091F200029731F48091F10081304B
:102E200011F0863021F48091F1008093A903809104
:102E3000E8008B778093E8000E948604BACF8091E7
:102E4000CE03813A09F0B5CF8091E800877F809367
:102E5000E8008091D2039091D303892B61F460E262
:102E60008AEA93E070E00E9432058091E8008B7757
:102E70008093E8009ECF60E090E080E0F3CF809107
:102E8000CC038111C0CF95CF8091CE03813A09F058
:102E900090CF8091D2039091D303892B09F089CFF1
:102EA0008091E800877F8093E8008091E80080FFB0
:102EB000FCCF809153018093F1008091E8008E77E0
:102EC000B9CF8091CE03813209F073CF8091D203C4
:102ED0009091D303892B09F06CCF8091E800877F14
:102EE0008093E8000E9486048091D0038093530170
:102EF0000E948D165ECF8091CE03813209F059CFAA
:102F00008091E800877F8093E8000E94860480918A
:102F1000D1038093A8034DCF8091CE03813A09F06D
:102F200048CF8091E800877F8093E8008091E80097
:102F300080FFFCCF8091A803BECF803899F0823803
:102F400009F0C6C18091D2038F70873008F0C0C1EC
:102F50008093E9008091EB0085FB882780F910922F
:102F6000E90006C08091CA039091CB039111826061
:102F70009091E800977F9093E8008093F100109281
:102F8000F1008091E8008E779FC1882309F48DC1FC
:102F9000823009F09DC18091D003811190C1809150
:102FA000D2038F702FEF280F263008F091C1809345
:102FB000E9002091EB0020FF82C1933031F4809131
:102FC000EB0080628093EB007AC19091EB009061FE
:102FD0009093EB0021E030E001C0220F8A95EAF7E0
:102FE0002093EA001092EA008091EB008860EACF1B
:102FF00081116EC11091D0031F778091E30080781A
:10300000812B8093E3008091E800877F8093E80024
:103010000E9486048091E80080FFFCCF8091E3004D
:1030200080688093E30082E0111183E08093CC03F9
:103030004FC18058823008F04BC12091D0033091AD
:10304000D1032C3DE3E03E07A1F583E08A838AE2C9
:1030500089834FB7F894DE01139620E03EE051E2F9
:10306000E32FF0E050935700E49120FF03C0E29576
:10307000EF703F5FEF708E2F90E0EA30C0F0C796A0
:103080008D939D932F5F243159F74FBF8091E800B6
:10309000877F8093E8006AE270E0CE0101960E948B
:1030A00032058091E8008B778093E80011C1C096CB
:1030B000E7CF8091D2039091D303432F552743301C
:1030C000510509F44AC078F54130510509F47AC038
:1030D0008BE590E0EEE0F7E04230510509F0F8C0F2
:1030E0002091E800277F2093E8002091D4033091BD
:1030F000D5038217930708F49C0140E021153105A0
:1031000009F065C0411163C08091E80082FDC9CF1C
:103110008091CC03882329F2853019F28091E80050
:1031200083FFF2CFBECF4132510509F43CC0423299
:10313000510509F0CDC08330910508F0C9C0FC01EC
:10314000EE0FFF1FE350FE4F0190F081E02D8650FF
:103150009E4FDC018C9190E01AC03327213031055D
:10316000D1F02115310561F02230310509F0B0C0F0
:10317000EBE7F7E0E4918E2F90E0EBE7F7E007C094
:10318000E5EBF7E0E4918E2F90E0E5EBF7E00097B8
:1031900009F49EC0A5CFE9E9F7E0E4918E2F90E015
:1031A000E9E9F7E0F4CF8330910508F091C0880F8A
:1031B000991FFC01ED5FFD4F0190F081E02D89E04A
:1031C00090E08ECF82E190E0E9E6F7E089CF809150
:1031D000CC03882309F465CF853009F462CF809150
:1031E000E80083FD5ECF8091E80082FD8DCF809165
:1031F000E80080FF83CF9091F3008091F2002115C9
:10320000310519F08830910550F041E0089709F038
:1032100040E08091E8008E778093E8006FCF449182
:103220004093F1003196215031090196E8CF803862
:1032300009F04EC08091E800877F8093E80080917C
:10324000CD038093F1009DCE811142C01091D00337
:103250001230F0F58091E800877F8093E8001093AA
:10326000CD030E948604112311F084E005C08091F3
:10327000E30087FDFACF81E08093CC0342E061EC6C
:1032800081E00E94A50442E261EC84E00E94A50472
:1032900042E261EC82E00E94A50442E260EC83E03D
:1032A0000E94A5048091CC0313C08091D00381308B
:1032B00079F481E0933009F080E08093CB031092A1
:1032C000E9008091E800877F8093E8000E948604EF
:1032D0008091E80083FF0AC08091E800877F809397
:1032E000E8008091EB0080628093EB00AA96E3E017
:1032F0000C9411300E948D162FEF84E39CE0215036
:1033000080409040E1F700C0000088E19CE00FB6EB
:10331000F894A895809360000FBE90936000FFCF53
:10332000ADE0B0E0E6E9F9E10C94E62F3C01DC0108
:1033300014968C91882309F45BC061E0C3010E945C
:10334000F0102C01F3018581882309F180919A0303
:1033500090919B030097D9F048165906C1F0FEE002
:103360008F9FC0011124FC01E05EFE4F208124608C
:103370002083855E9E4FDC014D925C920E94181462
:103380001092980361E0C3010E94F0102C01C20169
:10339000815A9245F2014F9720F4B0EAEB27B2E54B
:1033A000FB27D30115969C90992009F4DEC2EF3FCC
:1033B000F10511F108F1E935FC4721F010924C02BA
:1033C000F20160C080914C0291E0892780934C0209
:1033D00080911504877061F0D30115968C91882334
:1033E00039F08091170482FF03C082E00E94280F09
:1033F0002D96E2E10C94023080914C02882309F46E
:1034000048C110924C02E03CF10508F09BC0E03846
:10341000F10508F008C1E034F10508F0CEC021E064
:1034200030E040E050E060E070E080E090E00E2F9F
:103430000E941D30A0912C022A2BA0912D023A2B24
:10344000A0912E024A2BA0912F025A2BA09130025C
:103450006A2BA09131027A2BA09132028A2BA09183
:1034600033029A2B20932C0230932D0240932E028C
:1034700050932F0260933002709331028093320296
:1034800090933302CF0197578038910510F00C9438
:103490003A240E2FE03108F09BCF8FEF93E00E948B
:1034A000D230811195CF69EAC62E62E0D62E011185
:1034B00067C3FE01339686E0DF011D928A95E9F726
:1034C0005AE0552E86010F5F1F4FC6010E94D23071
:1034D00089831A82882309F47BCF813009F087C35E
:1034E0007601B2E0EB0EF11CC8010E94D2308A8353
:1034F000882309F46DCF9FEF980F933008F04FC3E6
:10350000E3E0CE0ED11CC7010E94D2308B8388230A
:1035100009F45ECF1C828E010F5F1F4FD8012C91E2
:10352000222381F2213009F09CC311969C911197BE
:1035300012968C91913009F05CC30E5F1F4F0E9470
:10354000D3155DC3EF3FF10511F008F068CF21E01E
:1035500030E040E050E060E070E080E090E08F011B
:10356000005C11090E941D30A09144022A2BA091F9
:1035700045023A2BA09146024A2BA09147025A2BB2
:10358000A09148026A2BA09149027A2BA0914A028D
:103590008A2BA0914B029A2B209344023093450230
:1035A0004093460250934702609348027093490249
:1035B00080934A0290934B0265CF21E030E040E0D7
:1035C00050E060E070E080E090E08F01005411096D
:1035D0000E941D30A09134022A2BA09135023A2B73
:1035E000A09136024A2BA09137025A2BA0913802A3
:1035F0006A2BA09139027A2BA0913A028A2BA091D2
:103600003B029A2B209334023093350240933602CA
:1036100050933702609338027093390280933A02D4
:1036200090933B022FCF21E030E040E050E060E09B
:1036300070E080E090E08F01005811090E941D3079
:10364000A0913C022A2BA0913D023A2BA0913E0270
:103650004A2BA0913F025A2BA09140026A2BA091C5
:1036600041027A2BA09142028A2BA09143029A2B0D
:1036700020933C0230933D0240933E0250933F0220
:103680006093400270934102809342029093430200
:10369000F9CEE034F10508F06DC0A0912C02B09194
:1036A0002D0220912E02298780902F023091300226
:1036B0003B87809131028D87309032022090330217
:1036C00021E030E040E050E060E070E080E090E039
:1036D0000E2F0E941D30A22EAA22B32EBB22C98417
:1036E000C422D52ED820EB84E622FD84F722082FB1
:1036F0000321192F12210E94533009F061CEE03CC2
:10370000F10508F09AC0E038F10508F0FDC0E0349A
:10371000F10508F0C8C021E030E040E050E060E092
:1037200070E080E090E00E2F0E941D3020953095D3
:103730004095509560957095809590952A233B23F0
:10374000A9854A235821BB856B23ED857E238321E0
:10375000922120932C0230932D0240932E025093FD
:103760002F02609330027093310280933202909363
:1037700033022ECEE038F105F8F4A0913402B09176
:103780003502909136029987809037022091380255
:103790002B87309139023D8730903A0220903B02CE
:1037A00021E030E040E050E060E070E080E090E058
:1037B0008F01005411098DCFE03CF105F8F4A09180
:1037C0003C02B0913D0280913E02898780903F0289
:1037D000909140029B87209141022D8730904202B8
:1037E0002090430221E030E040E050E060E070E0F3
:1037F00080E090E08F01005811096BCFA091440246
:10380000B0914502309146023987809047028091FD
:1038100048028B87909149029D8730904A02209000
:103820004B0221E030E040E050E060E070E080E0FA
:1038300090E08F01005C11094CCFEF3FF10511F0D2
:1038400008F069CF8F01005C110921E030E040E011
:1038500050E060E070E080E090E00E941D30209534
:1038600030954095509560957095809590952A2358
:103870003B23B9854B235821EB856E23FD857F23A0
:1038800083219221209344023093450240934602C3
:1038900050934702609348027093490280934A0212
:1038A00090934B0295CD8F010054110921E030E037
:1038B00040E050E060E070E080E090E00E941D3069
:1038C0002095309540955095609570958095909590
:1038D0002A233B23F9854F235821AB856A23BD85D5
:1038E0007B2383219221209334023093350240932D
:1038F00036025093370260933802709339028093F6
:103900003A0290933B0264CD8F010058110921E0E7
:1039100030E040E050E060E070E080E090E00E9445
:103920001D30209530954095509560957095809507
:1039300090952A233B23E9854E235821FB856F234D
:10394000AD857A238321922120933C0230933D025E
:1039500040933E0250933F026093400270934102B5
:10396000809342029093430233CDEF3FF10509F07B
:1039700060F5E034F10508F0C4C0A0902C02B090CE
:103980002D02C0902E02D0902F02E0903002F090D5
:103990003102A09132021091330221E030E040E088
:1039A00050E060E070E080E090E00E2F0E941D305B
:1039B000A222B322C422D522E622F722082F0A230C
:1039C00019230E94533009F403CD809112018823FA
:1039D00009F41FC66201F0EECF1AD10830909802A8
:1039E00080915002382A80919903382A28E0C21623
:1039F000D10408F09CC192012770332781E090E048
:103A000001C0880F2A95EAF7992009F48DC1382A58
:103A1000D3018D919C910E94520A21E030E059011E
:103A200002C0AA0CBB1C8A95E2F7E0919603F091C4
:103A30009703FA87E98720914D0230914E023C8727
:103A40002B87212CE22DF0E0EE0FFF1FEC5FFE4FE5
:103A5000008111810115110509F43EC6311005C020
:103A6000D80112968C9181119CC1F801838190E05C
:103A70008A219B21892B09F494C18085982F977006
:103A800009F487E0F8E0CF16D10408F06AC1992064
:103A900009F463C186958170882309F482C1D80135
:103AA000ED90FC90E414F50419F4992009F479C11F
:103AB000E985FA850E171F0709F473C1D8011D9611
:103AC000ED91FC91309721F08081882309F469C140
:103AD000632DC8010E946206882309F462C1E414C0
:103AE000F50409F06EC6E114F10409F46FC69110F3
:103AF0006FC6EB85FC85EE16FF0609F052C1912CCE
:103B000067C6E038F10598F4A0903402B090350211
:103B1000C0903602D0903702E0903802F09039021F
:103B2000A0913A0210913B02E054F10936CFE03CFB
:103B3000F10598F4A0903C02B0903D02C0903E0286
:103B4000D0903F02E0904002F0904102A0914202EA
:103B500010914302E058F10920CFA0904402B090A8
:103B60004502C0904602D0904702E0904802F09093
:103B70004902A0914A0210914B02E05CF1090DCF7D
:103B8000C11424E0D20609F423CCC6010E94D2302D
:103B9000811101C001503FEFC31AD30A88CC6701DD
:103BA000843009F0B8CC02E010E06701FFEFCF1AD3
:103BB000DF0AC7010E94D230E1E0F0E0EC0FFD1F08
:103BC000E00FF11F8083882309F402CC8C3741F485
:103BD000E2E0F0E0EC0FFD1FE00FF11F10829BCC44
:103BE0000F5F1F4F760107301105F9F6F1CB680121
:103BF00092CC923039F40E5F1F4F0E941E150F5F5A
:103C00001F4F8CCC933029F40E5F1F4F0E945E141F
:103C1000F6CF943019F00F5F1F4FF1CF0E5F1F4F9B
:103C200030E020E0B8016F5F7F4FF80141818053A1
:103C3000990B8A30910550F02150310900F38FE93A
:103C40009FE00197F1F700C00000F6CF529EF0010F
:103C5000539EF00D11249C012E0F3F1F842F8B01CA
:103C6000E1CFE22FF0E0EC50FE4F4490822F86959A
:103C70008695869590E0FC01EC51FE4FA49027704C
:103C8000B12C022E02C0B594A7940A94E2F7A1E0E9
:103C9000AA22BB24FC01EC52FE4F8490912C022EF0
:103CA00002C0959487940A94E2F7B1E08B2299249C
:103CB000FC01EC53FE4FE490F12C02C0F594E79424
:103CC0002A95E2F7E1E0EE22FF24A114B10419F0F5
:103CD00081EE0E941E158114910419F086EE0E9457
:103CE0001E15842D0E94D3158114910419F086EEBF
:103CF0000E945E14A114B10419F081EE0E945E14BA
:103D0000E114F10409F47BCF8CE219CC809112010B
:103D1000882331F01092120180E00E94B81458CB31
:103D200081E08093120154CB8095382271CE992086
:103D300009F4BBC450924E0240924D020E94A2056B
:103D400060938D0370938E0380938F039093900301
:103D500010929503109294035BCE82FB882780F922
:103D60009BCE9920F1F0817097CE0E945E144FC5D2
:103D70000497813A910548F48E2D0E94140A9920E7
:103D800009F447C40E94851323CB0E9485138FE357
:103D90009CE90197F1F700C000008E2D0E941E15CE
:103DA000EECF23944FCEFC012081318124153505BF
:103DB00009F028C4911028C41092930380E00E9457
:103DC000B81427C4942D852D6BC4F801858181FF1B
:103DD00097C4C8010E94F91393C426E241EE61EE34
:103DE000C3010E94F115F4CA27E245EE65EEF8CF53
:103DF00026E241EE60EEF4CF27E245EE64EEF0CF2E
:103E000026E241EE62EEECCF27E245EE66EEE8CF29
:103E100028E241E0EBCF8091160481608093160484
:103E200095C0809117048860809317048FC080919B
:103E300016048260F3CF809116048460EFCF8091E6
:103E400016048860EBCF809117048160EDCF8091DC
:103E500017048260E9CF809116048061DFCF8091E2
:103E600016048062DBCF809116048064D7CF0E9455
:103E70008D16809116048068D1CF809116048C60D5
:103E8000CDCF809117048360CFCF809116048E7FB1
:103E9000C5CF80911704877FC7CF809116048D7F8F
:103EA000BDCF809116048B7FB9CF80911604877F98
:103EB000B5CF809117048E7FB7CF809117048D7F87
:103EC000B3CF809116048F7EA9CF809116048F7D89
:103ED000A5CF809116048F7BA1CF0E948D16809173
:103EE00016048F779BCF80911604837F97CF8091A4
:103EF00017048C7F99CF8091160482FB992790F943
:103F000021E0922790FB82F990FB83F987CF809183
:103F10001704982F909591708E7F892B90FB81F9D3
:103F200083CF90911604892F8F7B96FF806476CF84
:103F30000E948D1690911604892F97FB87F980585F
:103F40006DCF61E08EE090E00E94F6306091160443
:103F50007091170484E090E00E9414310E948D1645
:103F600037CA60E0EFCF90911604892F8F7E94FFBF
:103F7000806154CF90911604892F8E7F90FF8160CD
:103F80004DCF90911704892F877F93FF88604CCF86
:103F9000B6E14B16BCE75B0609F0DDC380919903DF
:103FA000282F21718A7A211180E0992371F091E004
:103FB000811101C090E090934F02811104C089E209
:103FC0000E94140ADFCE85E3FBCF80914F0281115E
:103FD00004C089E20E94E909D5CE85E3FBCF809138
:103FE0007D0380FF19C0282F2E7F20937D03309101
:103FF0007E0340917F035091800360918103709113
:10400000820380918303909184030E94E0111092B7
:10401000D9020E947B0CDCC9816080937D0361E042
:1040200086950E940013D4C94DE453E167E573E11E
:104030000E948206CDC947E553E16DE473E1F8CFF4
:1040400048EB52E162EC72E1F3CF42EC52E168EBF3
:1040500072E1EECF4EE952E16BEA72E1E9CF4BEA51
:1040600052E16EE972E1E4CF44E852E161E972E1C4
:10407000DFCF41E952E164E872E1DACF4CEC52E182
:1040800066EE72E1D5CF46EE52E16CEC72E1D0CF34
:1040900061E081E0C6CF65E082E00E94621398C9CA
:1040A00068E086E0FACF6EE089E0F7CF64E18FE068
:1040B000F4CF67E185E1F1CF61E088E1B2CF62E260
:1040C00089E1EBCF61E083E2ACCF6AE285E2E5CF44
:1040D000E7E74E16ECE75E0609F460C0F8E74F1616
:1040E000FCE75F0609F45EC0F30185810081118160
:1040F000882309F48BC0C8010E949110F82E682F04
:10410000C8010E94860AB8018F2D0E9483100E9468
:10411000B9088C01A82ED3011596CC901597169648
:10412000BC90B2943FE0B322809115048770F1F007
:10413000EC2CCC20E1F0812F807F803451F080E2A4
:10414000800F883098F0B11004C0812F807E8032BB
:1041500069F08091170482FF09C082E00E94280F55
:10416000809115048770EE24E3948111E12CD12E07
:10417000D2942FE0D222BBE0BD1508F4ACC0ED2DE7
:10418000F0E0E756FE4C0C94CA2F81E00E945C0FD1
:1041900043E062E081E00E94FB0E1AC981E00E94C8
:1041A0001B0FF6CF82E0FBCFABE54A16ACE75A0611
:1041B00059F1BCE54B16BCE75B06E1F0EAE54E16AB
:1041C000ECE75E0609F090CF81E01BC00E948D16DF
:1041D000FFEF24E33CE0F15020403040E1F700C025
:1041E00000000E94570C6FEF7FEF90E080E00E948C
:1041F0001431D1C28091170482FB882780F991E0A5
:1042000089270E946A1670CF80E0FBCFC8010E9408
:10421000520AF82E78CFE12FEF70FE2E107F19F0A2
:10422000F29490EFF922CC20B9F0FF2069F080E2FF
:10423000800F883010F0A11009C080919903F82AEE
:10424000F09299030E948513802F43C080919803B8
:10425000F82AF0929803F6CF802F0E945E14FF2078
:10426000D1F1005E083010F0A11004C08F2D0E9423
:10427000E20906C0F09480919803F822F092980326
:104280000E94851328C0F12FFF70FF2E107F10327F
:1042900019F0F29480EFF822AA2059F021E0A2163A
:1042A00009F484C0CC2009F490C0BB2009F442C0BA
:1042B000CBCF8091170482FD39C0CC2089F1FF203B
:1042C00039F080919903F82AF09299030E9485139E
:1042D00080E00E941E15AD2DA850BB0B149720F452
:1042E0000E9404060E94C50EEE20A9F080911504DC
:1042F00080FD11C0F30115828695869586950E94F2
:104300005C0FC3010E9490198091150486958695D3
:1043100086950E941B0F60E0C3010E94F01068C8E0
:1043200080E00E945E14FF20B1F2A0CFCC20C9F043
:10433000B11004C08F2D0E945414CDCF31E0B312C0
:10434000CACF109198028F2D8123F81621F20E9476
:10435000AE059093970280939602F12AF09298020C
:10436000BACFB110B8CF8F2D0E944D149091980202
:104370008F2D892369F08F2D809589238093980252
:10438000882389F00E94AE0590939702809396024D
:10439000809150029F2D982309F49DCFF094F8222C
:1043A000F092500298CF90E080E0EECFCC2029F040
:1043B00082E08B1508F48FCFBDCF91E09B1508F4F8
:1043C0008ACF8F2D0E944D1486CFBB20D1F3A9E355
:1043D000AA1209C0BFEFE7EEF3E0B150E040F040B1
:1043E000E1F700C00000802F0E945E1474CF812F7F
:1043F00086958695837061F0813009F06CCFC80195
:104400009370C11002C080E090E00E94BA0563CFB3
:10441000C8019370C11002C080E090E00E94DF05E7
:104420005ACF6C2D802F0E94BF0A55CF812F8370E9
:1044300089F5C11050CF402F429546954770440FE3
:10444000440F802F8F70042E01C0880F0A94EAF762
:10445000202F207104FF07C02FE030E001C0220FA1
:104460004A95EAF72095169516951370123069F063
:1044700050F430919902113029F0822B83230E944D
:10448000BC0A29CF832B822BFACF282B809199024B
:104490008227F5CF8695CC2011F0812F817088235B
:1044A00009F419CF402F429546954770440F440FA9
:1044B000802F8F70042E01C0880F0A94EAF7202FF6
:1044C000207104FF07C02FE030E001C0220F4A95A1
:1044D000EAF72095169516951370123069F050F48E
:1044E0003091A902113029F0822B83230E94F60E0D
:1044F000F2CE832B822BFACF282B8091A902822720
:10450000F5CF1F70CC2029F0812F0E945C0F802FE7
:1045100012CF802F0E944D14812F0E941B0FDBCEE3
:10452000802F22EFA216B1F12A1570F030EFA316FA
:10453000D1F091EFA91691F0CC2009F453C0B1103D
:1045400083CE812F8F712AC0A3EFAA1651F1B4EF49
:10455000AB12F2CF8091170482FD2FC0812F8F7193
:10456000CC20D9F21BC0CC2081F0E1E0EB1508F49F
:10457000B2CE1F7181E090E0012E01C0880F0A9435
:10458000EAF79091A9028927B1CFF2E0FB1508F470
:10459000A2CEEFCF812F8F71C110BFCF0E945C0FD1
:1045A0009ACE80E0CC2009F4A1CF1F7181E0012ECA
:1045B00001C0880F0A94EAF799CFCC2041F01F710F
:1045C000812F0E945C0F812F0E94680F84CE81E0B2
:1045D0000E94280F21E02B1508F07DCE82E00E947A
:1045E000280F79CEBB2059F0893309F0FCCE3FEF7C
:1045F00087EE93E0315080409040E1F7F2CE812F7A
:104600008F718BCF992029F0DC0118968C9185FF52
:10461000D5CBC20197558F3F910511F008F091C09D
:104620007201FF24BEE04B9EF00111248F01055E54
:104630001E4FD30115968C91E05EFE4F908180FB5A
:1046400090F99083882309F4C0CB0E94AE05909323
:10465000B9028093B802F80182818F5F82838091D2
:10466000980390919903892B838380919802848386
:104670000680F781E02D309731F0D8011C966D91BE
:104680007C91C80109958EE08E9DF0018F9DF00D03
:104690001124E55EFE4F858181FF94CB90E080E0A0
:1046A00090939A0380939B032BC080914D0290912D
:1046B0004E028415950581F410924E0210924D021F
:1046C00010928D0310928E0310928F03109290031C
:1046D0001092950310929403809196039091970302
:1046E000009709F496CFA8E0CA16D10408F05BCB76
:1046F000632D0E946206811103C081E00E94B814FC
:10470000D30115969C91992309F447C01092120485
:10471000920130572332310508F03ACC84E090E022
:104720000E94E0309093170480931604F201E15048
:10473000F047E232F10508F06ECBEB55FE4C0C94DD
:10474000CA2FF201E851FC47E730F105C8F6E953FA
:10475000FE4C0C94CA2FB7E74B16BCE75B0609F476
:1047600014CD82E0E8E74E16ECE75E0609F40ECDC4
:1047700023E042162CE7520609F435CD08F014CD9B
:1047800041148CE7580609F421CD91E049169CE7C5
:10479000590609F0A9CC0E947A19F6E14F16FCE7F8
:1047A0005F0609F4FBCB809199038272F201E0521B
:1047B000F847E531F10508F08BCCE253FE4C0C9440
:1047C000CA2FE114F10409F094C9912CF12CE12CC9
:1047D00080E00E94B814109397030093960381E041
:1047E00080939303D80115968C9180939103911037
:1047F0000EC0EF2861F0D8018D919C919C0124504E
:104800003109213A310508F0B0CA0E94E909F801DE
:10481000E680F780C7019A9581159F4110F420EE3C
:10482000F222BB24B394C70101978F339E4708F04F
:10483000B12CD8011996ED91FC911A97309731F06F
:104840001B966D917C9181E00995B822BB2079F08F
:10485000F801868197810E94A80B80939203C7017B
:10486000F8E0CF16D10408F083CA0E9411060E9416
:10487000851385CAEE352CE7F20709F451CAEF35E6
:104880003CE7F30709F446CAED358CE7F80709F46D
:104890003DCA2F019AC8CF93DF9380917502807F24
:1048A00009F04DC080917402882309F448C0E0915A
:1048B0000F045091D603C0917002D0916F026091A5
:1048C00071027091720247E05E17C9F18E2F90E07D
:1048D000E49FF0011124E952FC4F2481222391F13D
:1048E000489FF001499FF00D1124DF01A952BC4FF0
:1048F00011962C9111972C1325C02C912D1322C0A9
:1049000015962C91159721111DC012962D913C9151
:10491000261B370B283C3105A8F4809175028F7057
:10492000806180937502E352FC4F80818F708061BB
:1049300080838FE692E00E9490190E94480ADF91DE
:10494000CF910895FC013196E770BECFA4E1B0E0AD
:10495000ECEAF4E20C94EC2F8C0186E0F801DE0125
:104960001F9601900D928A95E1F7F8018481E58008
:104970009FE6A92E92E0B92E90917302911128C062
:10498000882319F1EE20F1F0C8010E94CD10F82E15
:104990008823C1F087E0F801D50101900D928A9536
:1049A000E1F780917302813031F480916F02909130
:1049B00070020E94C0100E944B248F2D6496ECE080
:1049C0000C940830C8010E949019FF24F394F5CF8D
:1049D000D080C18082809380F09074022091710217
:1049E00030917202A401421B530BFF2009F4D9C07D
:1049F000483C510508F092C08823F9F2909170026A
:104A000080917502282F207F09F056C0C91214C06A
:104A100090916F02D91210C0E11048C08F70806170
:104A2000809375028FE692E00E9490198091750242
:104A3000F8018683F12CC1CFE11038C06C2D8D2D8B
:104A40000E9417046C2D8D2D0E941704E82E8111F1
:104A5000F1CFDF86C88A8F8598890E94C010292FE0
:104A600022952F70243058F49F70223088F09923BB
:104A700099F0F8019681907F79F4FE2C9ECF2A5F01
:104A80002F70223068F0C8010E949019EF2CF5CFEA
:104A9000992311F0882389F3805E883070F3F3CF77
:104AA000803F58F3815F833070F7E7CF80917502C4
:104AB000816080937502BECFC91207C090916F02CA
:104AC000D91203C0EE2009F48DC0C8010E94CD1098
:104AD000882309F477CFEE2009F474CF8091750212
:104AE000803288F020916F023091700239872887D8
:104AF0009B868A86909173029C871D868E87CE0145
:104B000008960E94901987E0F801AFE6B2E00190A4
:104B10000D928A95E1F70E944B2457CF9091750230
:104B2000292F207F51F48FE692E00E94901987E0B0
:104B3000F50111928A95E9F77DCF882309F43DCFDD
:104B4000809170028C1110C080916F02D8120CC03D
:104B5000E1100AC09683C8010E94901987E0F50110
:104B600011928A95E9F729CFC8010E94CD108823B8
:104B700009F428CFEE2009F425CF80917502803208
:104B800010F220916F02309170023A8329839C8247
:104B90008B82909173029D831E828F83CE0101963A
:104BA000B0CF483C5105D0F6882309F40ECFFE2C37
:104BB000EE2009F407CF809170028C1120C0809103
:104BC0006F02D8121CC08091750280FD0FC0982F13
:104BD000907F61F08683903F31F0982F907F905FB7
:104BE0008F70892B8683C8010E94901987E0F80195
:104BF000AFE6B2E001900D928A95E1F7DECEC801F2
:104C00000E94CD1081117FCF8091750281608093C9
:104C10007502C8010E949019D0CEABE1B0E0E3E18B
:104C2000F6E20C94F52F4E8B5F8B688F798F8A8F0D
:104C30009B8F9111109298031D8A86E0FE01769653
:104C4000DE011F9601900D928A95E1F7809117047D
:104C500082FF1CC00E94AE05209113043091140401
:104C6000821B930B8C3D954020F08091150482FFB0
:104C70007AC00E94AE052091960230919702821B65
:104C8000930B8C3D954010F00E94D7098B898823A7
:104C900029F061E0CE010F960E94F01087E0FE013E
:104CA0003F96DE01189601900D928A95E1F7CE01AC
:104CB00008960E94A62481110CC087E0FE01389658
:104CC000DE01119601900D928A95E1F78C85811194
:104CD0000BC017E080910F049091D603891331C067
:104CE0006B96E3E00C9411302091D60330E0C901BB
:104CF00001968770992740910F044817190699F07B
:104D000097E0929FD001939FB00D1124A952BC4F00
:104D1000FE01319601900D929A95E1F78093D603AA
:104D20000E94480AD6CF0E948D161092D603109288
:104D30000F0487E0EFE6F2E0DF011D928A95E9F7C4
:104D4000C8CF819FC001112489529C4F0E94A62484
:104D5000882331F280910F0490E0019687709927A3
:104D600080930F04B7CF82E00E94280F82CFA6E085
:104D7000B0E0EDEBF6E20C94F42F0E94AE058C014E
:104D800080919A0290919B028017910781F019827D
:104D90001A820E94AE05682F49815A81792F80E0DE
:104DA00090E00E940D2610939B0200939A02269693
:104DB000E4E00C941030AAE0B0E0E1EEF6E20C94EE
:104DC000EC2F8E010F5F1F4F8AE0F80111928A9538
:104DD000E9F79AEBE92E91E0F92E6801AA24A39451
:104DE000B12CF70181917F018F3F09F446C0F894FF
:104DF000E82FE295EF70F0E021A18F70A50102C0CD
:104E0000440F551F8A95E2F7CA01922F982B91A360
:104E100092A18095892382A3789400C0EFEBF1E002
:104E200021E030E0912C812C41914F3F09F467C083
:104E3000A42FA295AF70B0E090968C9190E04F7047
:104E400002C0959587954A95E2F780FD58C0C90143
:104E5000882A992A220F331F51E0EF3CF50721F7EA
:104E6000F701319780818F3F11F00E94B10780EAEE
:104E70008A95F1F7F60191828082F2E0CF0ED11C83
:104E80004FEBE41641E0F40609F0ABCF4AE050E006
:104E9000B8018FE992E00E94C530892B99F18AE030
:104EA000F801AFE9B2E001900D928A95E1F781E057
:104EB00080939E020E94AE0590939D0280939C0277
:104EC00080919C0290919D020E9493050597F0F0BD
:104ED0004AE050E06FE972E08BEB92E00E94C5304F
:104EE000892BC9F08AE0EFE9F2E0ABEBB2E0019088
:104EF0000D928A95E1F781E010929E0208C090E041
:104F000080E0A6CF80919E028111DACF80E02A96C0
:104F1000ECE00C94083080E0EFCFA8E0B0E0E3E9EB
:104F2000F7E20C94F62F66EE7EEF90E080E00E94B0
:104F3000143160E082E090E00E94F63060E083E0AF
:104F400090E00E94F6301092990260E074E184E0F3
:104F500090E00E94143160E086E090E00E94F6301C
:104F60006FEF87E090E00E94F63040E050E0BA0139
:104F700088E090E00E94083160E084E290E00E94C6
:104F8000F63060E087E190E00E94F63060E08CE06F
:104F900090E00E94F63060E08DE090E00E94F630F4
:104FA00019821A821B821C821D821E821F82188611
:104FB00048E050E068E170E0CE0101960E94E630E2
:104FC00040E050E0BA0180E290E00E94083180E0C9
:104FD0000E942A100E94441040E050E0BA018FE085
:104FE00090E00E94083140E050E0BA0183E190E097
:104FF0000E9408312896E2E00C9412301F920F9222
:105000000FB60F9211242F933F934F935F936F939B
:105010007F938F939F93AF93BF93CF93DF93EF9340
:10502000FF93D091E900DF708091EC00C82FC17030
:1050300080FDC0E81092E9008091F000877F8093A6
:10504000F00078940E94BC161092E9008091F00064
:1050500088608093F000CD2BCF70C093E900FF9162
:10506000EF91DF91CF91BF91AF919F918F917F9100
:105070006F915F914F913F912F910F900FBE0F90C5
:105080001F9018951F920F920FB60F9211242F9315
:105090003F934F935F936F937F938F939F93AF93C0
:1050A000BF93EF93FF938091E10082FF09C080914D
:1050B000E20082FF05C08091E1008B7F8093E100D8
:1050C0008091DA0080FF24C08091D80080FF20C04A
:1050D0008091DA008E7F8093DA008091D90080FF82
:1050E0009DC080E189BD82E189BD09B400FEFDCF8C
:1050F00081E08093CC038091A703811109C00E94B5
:1051000036040E94D7048091E20084608093E2001C
:105110008091E10080FF17C08091E20080FF13C002
:105120008091E2008E7F8093E2008091E2008061B6
:105130008093E2008091D80080628093D80019BCEF
:1051400085E08093CC038091E10084FF2BC08091A7
:10515000E20084FF27C080E189BD82E189BD89B575
:10516000982F917080FFFBCF8091D8008F7D809326
:10517000D8008091E1008F7E8093E1008091E20071
:105180008F7E8093E2008091E20081608093E20054
:105190008091CD03882309F447C084E08093CC0339
:1051A0008091CC038091E10083FF27C08091E200D1
:1051B00083FF23C08091E100877F8093E10082E03C
:1051C0008093CC031092CD038091E1008E7F809379
:1051D000E1008091E2008E7F8093E2008091E20006
:1051E00080618093E20042E060E080E00E94A504DC
:1051F0008091F00088608093F000FF91EF91BF9163
:10520000AF919F918F917F916F915F914F913F915E
:105210002F910F900FBE0F901F90189519BC1092F0
:10522000CC031092A70374CF8091E30087FD93E035
:105230009093CC03B5CF78941F921FB61F92112480
:105240008F939F93AF93BF938091A3039091A403F7
:10525000A091A503B091A6030196A11DB11D809355
:10526000A3039093A403A093A503B093A603BF91B7
:10527000AF919F918F911F901FBE1F9018951F9205
:105280001FB61F9211248F939F93AF93BF9380916A
:10529000A203811113C08091A3039091A403A09154
:1052A000A503B091A6034196A11DB11D8093A30350
:1052B0009093A403A093A503B093A603BF91AF91CD
:1052C0009F918F911F901FBE1F901895CDB7DEB78D
:1052D000A6970FB6F894DEBF0FBECDBF85B7806826
:1052E00085BF85B7806885BF84B7877F84BF0FB6C9
:1052F000F894A89580916000886180936000109276
:1053000060000FBE80E890E00FB6F89480936100D3
:10531000909361000FBE8FEA97E090930B02809309
:105320000A020E9436040E94D7048091E200846041
:105330008093E20078948091CC038823A1F01091AF
:10534000E9001F709091EC00892F817090FD80E83A
:10535000182B1092E9008091E80083FD0E94BC1692
:105360001F701093E90082E084BD93E095BD9AEF31
:1053700097BD80936E000E941B11811102C00E9494
:1053800044100AEB11E0FFEBEF2EF1E0FF2ED80105
:105390008D918D018F3F11F00E94B107E016F1064B
:1053A000B1F70FEB11E0EFECEE2EE1E0FE2EF8018D
:1053B00081918F018F3F11F00E94B107E016F10635
:1053C000B1F78AE0EBEBF2E0DF01282F1D922A957E
:1053D000E9F7EFE9F2E0DF011D928A95E9F740E095
:1053E00060E080E00E943F0E0E948116811102C0A1
:1053F0000E948D2782E090E00E94D2308093AD021F
:1054000084E090E00E94E0309093170480931604AB
:105410000E94DB26BFEFE6E7F1E0B150E040F0404C
:10542000E1F700C000000E94DB268091BB0280FFF4
:1054300008C06FEF7FEF90E080E00E9414310E947F
:10544000570C83E090E00E94D2300E94BC0A809109
:10545000A9020E94D80E879A8F9A8091AA02811180
:1054600073C00E948116811104C00E948D270E9482
:10547000721388E090E00E94DA304B015C0184E214
:1054800090E00E94D230282F30E040E050E060E011
:1054900070E080E090E000E20E941D302829392968
:1054A0004A295B2920937D0330937E0340937F0339
:1054B00050938003609381037093820380938303EE
:1054C000909384032E7F89F50E94721388E090E008
:1054D0000E94DA306B017C0184E290E00E94D230BD
:1054E000282F30E040E050E060E070E080E090E0A5
:1054F0000E941D30B22FA32FF42FE52F5B019701DF
:105500008601BC29A12BFE29E32BB0937D03A09338
:105510007E03F0937F03E093800360938103B09256
:10552000820380938303909384030E9489061092E0
:10553000D90280917D0380FF04C060E086950E94BF
:10554000001381E08093AA02809116048068809302
:105550001604609116047091170484E090E00E9494
:10556000143183E191E090939F0380939E0378E14F
:10557000672E712C55245394442443948091CC037A
:1055800000E112E1853009F4A5C00E94DB265EEA45
:10559000A52E52E0B52E6BEB862E62E0962ED4013E
:1055A000F501219131918D919D9142E0E83BF40705
:1055B00009F4A5C028173907A1F3312CD4010D91A6
:1055C0001D914D01F501C190D1905F01C016D1062A
:1055D00061F1C026D126212CEE24E394F12CC601E2
:1055E0008E219F21892BB9F029A23AA20E94AE05F3
:1055F0009CA38BA3F1E0FDA391E098012E213F2114
:10560000232B09F490E09EA349A15AA16BA17CA190
:105610008DA10E940D262394EE0CFF1C20E1221286
:10562000DECFF501329711830083339445E03412C5
:10563000C5CF0E94A20569C08091CC03843009F4D3
:1056400038C080E00E94C50E1092D9028091AC0251
:1056500081110DC04092AC0280917D03982F917012
:105660009093AB028E7F80937D030E947B0C1092FF
:10567000A20320E40FB6F894A895609260000FBED4
:105680002093600083B7817F846083BF83B781608C
:1056900083BF7894889583B78E7F83BF0FB6F894C5
:1056A000A8958091600088618093600010926000EE
:1056B0000FBE8091CB03882369F00E94DB26EBEBC1
:1056C000F2E081919191892B09F0F9C342E0E53C28
:1056D000F407B9F78091CC03853009F4ADCF0E946F
:1056E0008D160E9404060E94C50E1092AC02809195
:1056F000AB0281110E9443130E94CA1146CF2817A2
:10570000390709F05ACF0E94B726809194039091EF
:105710009503892B09F44EC04091890350918A0367
:1057200060918B0370918C032FB7F8948091A30341
:105730009091A403A091A503B091A6032FBF841B51
:10574000950BA60BB70B4091850350918603609192
:1057500087037091880384179507A607B70750F150
:105760000091940310919503C8010E94A80B980121
:10577000205E31092830310520F00115110509F0AE
:105780007EC10E945414802F0E941E151092950312
:10579000109294031092890310928A0310928B0343
:1057A00010928C0310928503109286031092870347
:1057B0001092880300919A0310919B030115110523
:1057C000B9F08091B8029091B9020E949305893C8A
:1057D000910570F0AEE00A9FC0011124FC01E05E6B
:1057E000FE4F208122FD04C0855E9E4F0E9418144A
:1057F0008091D9028823D1F18091D802E0917D0374
:10580000E695E81BE093D402823009F03BC1F0E05A
:10581000EB57FD4FE4910E2F10E021EBE22E2EE02E
:10582000F22E8091D502882361F01092D5020E9459
:10583000AE059093D3028093D2021092D7021092B9
:10584000D6020E94AE05E091D202F091D3028E1BE7
:105850009F0B8F3F9F4750F4E00FF11FF093D3024F
:10586000E093D20282ED92E0F701099586E0ECEC3C
:10587000F2E0DE01119601900D928A95E1F7109207
:10588000CE021092CF021092D0021092D1028B81E0
:105890009C81892B09F447C08091CA029091CB0268
:1058A0000E9493059C019091C502992309F42BC392
:1058B00025313105C0F19F3F19F09F5F9093C502DC
:1058C0001B81112359F00E9481079FEF11160CF4E0
:1058D00091E0899F802D11248093CE021C81112399
:1058E00059F00E9481079FEF11160CF491E0899FF7
:1058F000802D11248093CF028091CE02882399F0CD
:105900001091CF02112379F00E94A107882309F496
:1059100025C18093CE02812F0E94A107882309F41C
:1059200020C18093CF028D819E81892B09F447C0CD
:105930008091C8029091C9020E9493059C019091A8
:10594000C602992309F4DAC221353105C0F19F3F1F
:1059500019F09F5F9093C6021D81112359F00E9498
:105960005F079FEF11160CF491E0899F802D1124A1
:105970008093D0021E81112359F00E945F079FEF90
:1059800011160CF491E0899F802D11248093D1028F
:105990008091D002882399F01091D102112379F0DF
:1059A0000E94A107882309F4DFC08093D002812FD1
:1059B0000E94A107882309F4DAC08093D10246E04F
:1059C00050E0BE016F5F7F4F8CEC92E00E94C530CB
:1059D000892B61F48091CE029091CF02892B909116
:1059E000D002892B9091D102892B11F00E943807A7
:1059F00086E0FE013196ACECB2E001900D928A9502
:105A0000E1F70E940406182F8091BA02181739F0A6
:105A10001093BA020E94A205812F0E94C50E8091A8
:105A2000CC03843009F0AACD83E08093E900809113
:105A3000E80082FFA3CD8091E80090E085FF0CC0D4
:105A40000E94550440E2E42EF12C8E010F5F1F4F9F
:105A5000882309F499C091E08091E8008B778093C6
:105A6000E800992309F48ACD8981EFEFE80FE3314B
:105A700008F0A3C0F0E0ED51FE4C0C94CA2F0E9438
:105A8000431481CE863059F4F0E0EE57FD4FE49197
:105A90000E2F10E091EAE92E9EE0F92EC2CE893059
:105AA00061F4E695F0E0E158FD4FE4910E2F10E02F
:105AB00085E1E82E8EE0F82EB4CE8F3061F4E695C5
:105AC000F0E0E458FD4FE4910E2F10E0B0EBEB2E28
:105AD000BDE0FB2EA6CE853159F4F0E0E758FD4F2E
