:10000000F7C300002EC400002CC400002AC4000066
:1000100028C4000026C4000024C4000022C400003C
:1000200020C400001EC400000C947D2D0C94652E8D
:100030000C94322D16C4000014C4000012C4000039
:1000400010C400000EC400000CC400000AC400006C
:1000500008C400000C94592D04C4000002C4000020
:1000600000C40000FEC30000FCC30000FAC300008F
:10007000F8C30000F6C30000F4C30000F2C30000A0
:10008000F0C30000EEC30000ECC30000EAC30000B0
:10009000E8C30000E6C30000E4C30000E2C30000C0
:1000A000E0C30000DEC30000DCC30000050109025C
:1000B000A10185020901A1000509190129081500FE
:1000C0002501950875018102050109300931158165
:1000D000257F95027508810609381581257F9501D0
:1000E00075088106050C0A38021581257F95017572
:1000F000088106C0C005010980A101850319012AF4
:10010000B700150126B700950175108100C0050CD8
:100110000901A101850419012AA002150126A002E6
:10012000950175108100C005010906A1018506052C
:100130000719E029E71500250195087501810205D9
:1001400007190029EF1500250195F07501810205B9
:10015000081901290595057501910295017503910D
:1001600001C00660FF0961A1010962150026FF00B8
:100170009520750881020963150026FF00952075FA
:10018000089102C005010906A101050719E029E748
:1001900015002501950875018102950175088101F9
:1001A0000507190029FF150026FF0095067508812F
:1001B000000508190129051500250195057501910E
:1001C00002950175039101C000140BB0FFFF000000
:1001D0000000001440FFFFFF0000000000141EDAC2
:1001E000DAFF0000000000140000FFFF0000000024
:1001F00009025B00030100A0FA09040000010301E9
:1002000001000921110100012244000705810308B2
:10021000000109040100020300000009211101008E
:1002200001222200070582032000010705030320A5
:10023000000109040200010300000009211101006E
:100240000122B6000705840320000112010002000C
:100250000000086B7011000100010200011C03691D
:10026000006B006B0069003600380020004100750B
:100270000072006F007200610000001A03770075C1
:100280000071007500650020007300740075006443
:100290000069006F00000004030904167C1E001FA3
:1002A0000020002100220023002400250026002732
:1002B000002D002E002A004C00A8002B0014001A6C
:1002C000000800150017001C0018000C0012001395
:1002D000002F003000310003570457005704001668
:1002E00000070009000A000B000D000E000F00338C
:1002F0000034002800000000000000E10000001DA4
:10030000001B000600190005001100100036003720
:10031000003800E500015752000000E000E300E271
:10032000000000000000002C00000000000000E6BB
:10033000000257E400500051004F0035003A003BE6
:10034000003C003D003E003F0040004100420043B1
:1003500000440045004C004900460001004A00529C
:10036000004D004B000100010001000100010001EF
:1003700000010001000100010001000100500051D6
:10038000004F004E00010001005009500A4F0A4F73
:10039000090100280000000000000001000000B674
:1003A000002A00B700190C0100110A2903010001FD
:1003B0000001000100010001000000010001000136
:1003C000000000000000004C0000000000000001E0
:1003D000000100652101000100010035001E001F21
:1003E00000200001000100010001000100010001E6
:1003F00000010001004C020100A6000100210022C2
:1004000000230001000100010001000100010001C2
:10041000000100010001000100010001002400258D
:10042000002600010001000100010001000100019F
:100430000001000100000000000000010000002792
:10044000000100B2000100010001002903010001C8
:10045000000100010001002A00000001000B7001F2
:10046000000000000000000100000000000000018A
:100470000001000100B6003E00B7002078A800AAE5
:1004800000A900AC00AE00AB0001000100010001BA
:100490000001006800690001000100010001000185
:1004A0000001000100010001000100010001000144
:1004B00000010001000100017C007C01000100013D
:1004C0000001000100010001000100010001000124
:1004D000000100037C00000000000001000000019A
:1004E00000010001000100010001001003010001F2
:1004F00000010001000100010000000100010001F5
:1005000000000000000000010000000000000001E9
:1005100000005201000100010001002223252628CD
:10052000292A2C2D2F3032333536383A3B3D3E4088
:1005300042434547494A4C4E5051535557595A5CCE
:100540005E6062646668696B6D6F71737577797BE5
:100550007D7F81838587898A8C8E90929496989AE4
:100560009C9E9FA1A3A5A7A8AAACAEAFB1B3B4B6F9
:10057000B8B9BBBCBEBFC1C2C3C5C6C7C9CACBCC54
:10058000CDCED0D1D2D2D3D4D5D6D7D7D8D9D9DA27
:10059000DADBDBDBDCDCDCDCDCDDDDDDDDDCDCDC9C
:1005A000DCDCDBDBDBDADAD9D9D8D7D7D6D5D4D3C4
:1005B000D2D2D1D0CECDCCCBCAC9C7C6C5C3C2C199
:1005C000BFBEBCBBB9B8B6B4B3B1AFAEACAAA8A7F6
:1005D000A5A3A19F9E9C9A98969492908E8C8A89AE
:1005E000878583817F7D7B79777573716F6D6B698B
:1005F00068666462605E5C5A5957555351504E4C60
:100600004A4947454342403E3D3B3A38363533320E
:10061000302F2D2C2A292826252322FFAA7F55405A
:1006200000010101010101010101020202020202B5
:100630000202020303030303030303040404040488
:10064000040405050505050606060606070707074F
:100650000708080808090909090A0A0A0B0B0B0C04
:100660000C0C0D0D0D0E0E0E0F0F0F1010111111A1
:100670001212131314141515161617171818191922
:100680001A1A1B1B1C1D1D1E1E1F20202122222387
:100690002424252626272829292A2B2C2D2D2E2FC8
:1006A00030313232333435363738393A3B3C3D3EDF
:1006B0003F404142434445464748494A4C4D4E4FCE
:1006C00050515354555658595A5B5D5E5F61626490
:1006D000656668696B6C6D6F7072737577787A7B1D
:1006E0007D7E8082838587888A8C8E8F9193959674
:1006F000989A9C9EA0A2A3A5A7A9ABADAFB1B3B594
:10070000B7BABCBEC0C2C4C6C9CBCDCFD1D4D6D86F
:10071000DBDDDFE2E4E7E9EBEEF0F3F5F8FAFDFF0D
:10072000E601DC01D201C80100001E0F0500047FB4
:100730003F1F643214643214783C1E1E140A0500F4
:1007400000000000000000000000000000000000A9
:100750000000000000000000000000000000000099
:100760000000007E0F00D4FFFFFFC70000007800EC
:10077000000000000000002A2B28000000000000FC
:100780000000000000000000000029000000002C14
:100790001E3420212224342627252E362D373827B3
:1007A0001E1F202122232425263333362E37381FBF
:1007B0000405060708090A0B0C0D0E0F1011121381
:1007C0001415161718191A1B1C1D2F3130232D351F
:1007D0000405060708090A0B0C0D0E0F1011121361
:1007E0001415161718191A1B1C1D2F3130354C0003
:1007F00011241FBECFEFDAE0DEBFCDBF04B603FE8B
:1008000019C080918A0490918B04A0918C04B091BE
:100810008D048730904BA740B04B61F410928A044E
:1008200010928B0410928C0410928D04E0E0F8E397
:10083000099500C024E0A4E6B2E001C01D92AA38E8
:10084000B207E1F712E0A0E0B1E0ECEDF1E602C0A2
:1008500005900D92A436B107D9F70E9401270C9498
:100860007C30CECBFC019281913021F48581817066
:100870008E5F0895923011F484E0089581E0089528
:100880009C0191509F31B0F4832F817034FF0AC0D6
:100890008295807F31FD806232FD806433FF0BC022
:1008A0008068089531FD826032FD846033FF03C0AB
:1008B0008860089580E00895CF93DF93EB01E0DF37
:1008C000FE010995DF91CF91089580933F0408952B
:1008D000953090F5803180F540E1949F900111248E
:1008E000280F311D51E081FD54E080FD550F82FD40
:1008F000529583E0369527958A95E1F7F901EE0F39
:10090000FF1FE20FF31FEA52FC4F20E030E070E0DF
:100910004191DF01CB01022E02C0969587950A9482
:10092000E2F78695880B8427852384278E932F5F93
:100930003F4F2330310561F70895953070F58031D0
:1009400060F540E1949F90011124280F311D8770BC
:10095000982F83E0369527958A95E1F7F901EE0FF8
:10096000FF1FE20FF31FEA52FC4F40E050E080E02F
:10097000219130E0092E02C0369527950A94E2F7BE
:100980002170042E01C0220F0A94EAF7822B4F5FD8
:100990005F4F4330510561F7089580E00895E0917D
:1009A000470490914604E91302C080E008959F0136
:1009B00057E0E59FF0011124E85BFB4F518156138E
:1009C00006C05081581303C05581541305C02F5FD2
:1009D0003F4FF901E770E7CF81E008958091470428
:1009E00020914604281301C0089501968770FACF1C
:1009F0008095982F80913C04892380933C0408952E
:100A000080913D04811531F010923D041092440410
:100A1000109245040895803E9105D1F1C8F48133C8
:100A2000910509F481C048F48932910509F471C037
:100A30008A32910509F47FC0089589339105E1F068
:100A400082389105C9F08533910509F45DC0089598
:100A5000843E9105D1F148F4823E910531F1833E07
:100A6000910541F181EE90E00895863E9105C1F136
:100A7000873E9105F1F1089520918704237009F0D4
:100A800064C02091880423FF14C089E290E0089597
:100A90002091870420FD45C03091880430FF09C0B3
:100AA00024FD24C083EE90E008952091870422FD68
:100AB000F7CF08952091870422FD44C03091880427
:100AC00030FD43C024FFF5CF11C02091880421FFE1
:100AD000F0CF8091870484FD09C087EE90E00895EF
:100AE0002091870423FFE5CF24FFF7CF80E090E03B
:100AF00008952091870423FD2BC03091880431FF95
:100B0000E1CF84EE90E008952091870425FFD1CFB6
:100B1000BCCF2091870425FD1EC02091880423FFAF
:100B2000C8CF89E390E008952091870426FFC1CFC4
:100B30008AE290E008952091870426FFBACF81E3EE
:100B400090E0089582EE90E0089580EE90E00895A0
:100B500086EE90E0089585E390E0089590918704F3
:100B600092FF10C041E0282F2471243009F040E0AA
:100B700031E0282F2871283009F030E0431711F0B8
:100B80002CE0822793FF10C041E0282F24712431EC
:100B900009F040E031E0282F2871283109F030E0D9
:100BA000431711F02CE082273091880430FF10C0E9
:100BB00051E0282F2171213009F050E041E0282F29
:100BC0002871283009F040E0541711F029E08227FD
:100BD00031FF10C041E0282F2171213109F040E0A0
:100BE00031E0282F2871283109F030E0431711F047
:100BF00029E0822794FF02C083FD877E08950F932A
:100C00001F93CF93DF9307DFEC01D23508F04DC07F
:100C1000D03508F0C3C0C03ED10530F5CD3CD1057C
:100C200008F09AC0C83AD10578F4C53AD10508F061
:100C300090C0C130D10599F1CE010497813A910558
:100C400070F1C0E0D0E02BC0CE01885A91094B97DB
:100C5000C0F7C85AD0E0CC0FDD1FC251DE4F09905B
:100C6000D881C02DD4641BC0D03490F4D03208F0A9
:100C7000A8C0C83ED10598F0CE0191509F3108F729
:100C80008D2F6CDF082F8C2F90E0C5DE902B54C089
:100C90008C2F90E0C0DEDF70C82FD92BD06ACE0138
:100CA000DF91CF911F910F910895C03882E5D80749
:100CB000B8F5C03682E5D80708F056C0C03482E5E2
:100CC000D807C8F4C03282E5D80708F047C08C2F97
:100CD0008695869520E2829FC0011124C37021E091
:100CE00030E002C0220F331FCA95E2F7E901C82B9A
:100CF000D92BDD68D4CF8C2F86958695877020E21E
:100D0000829FC0011124C37021E030E002C0220F95
:100D1000331FCA95E2F7E901C82BD92BDC68BFCF96
:100D2000C03C82E5D80750F48C2F8F71C03AD24571
:100D300080F5982F84EF906AEC01B1CFCE01805CF2
:100D40009245809708F07DCFDC2FDF71C0EFD06A2D
:100D5000A6CFA497D064A3CFD065A1CF8C2F8F71DD
:100D6000D82FC1EFD06A9BCF8C2F86958695877040
:100D700020E2829FC0011124C37021E030E002C054
:100D8000220F331FCA95E2F7E901C82BD92BDA6885
:100D900086CFE4DEC0E0D82FD06281CF8C2F8F7158
:100DA000DDDE93E0CC0FDD1F9A95E1F7DF70282F91
:100DB00084FF04C090E1899F90011124C22FD06963
:100DC0006ECF8D2F8F71CADE082F8C2F90E023DE1F
:100DD000902BEC01E1CF80E00895F894E82FE295A4
:100DE000EF70F0E041A18F7021E001C0220F8A95E1
:100DF000EAF7922F9095942391A392A1822F892BA9
:100E000082A3789408950895CF92DF92EF92FF9293
:100E10001F93CF93DF93462F172FE82FF0E0E05E6C
:100E2000F94F71110CC0E4918E2F7E2F6E2FDF9140
:100E3000CF911F91FF90EF90DF90CF900895F491A4
:100E4000EF2F86E0689FE00111242FEF30E0CE0104
:100E5000B9010E94C72EDB01CA01880F991F65E501
:100E60006A9FA0016B9F500D1124841B482F440FD3
:100E7000480FC901811B9109F89F7001F99FF00C7F
:100E800011248F2D149FB0011124672F70E0690188
:100E9000C61AD70AB601F69F6001F79FD00C11243D
:100EA000A330B10549F1B901641B7109AB01149F6D
:100EB000B001159F700D1124672F70E0261B370BB2
:100EC000F29FA001F39F500D1124752FCC3FD3400A
:100ED00050F4A130B105A1F0129709F0A7CFEF2D82
:100EE000852F7F2FA3CFA430B10569F0169709F4A1
:100EF0009DCF7F2D8D2D9ACF7D2DEF2D8F2F96CFCE
:100F00007F2FED2D93CFE52F7F2DF8CFCF93762F29
:100F1000C22F682F842F78DF472F282F8C2F90E047
:100F2000BED0CF91089580913404843060F48370F2
:100F300084608093340480913704893C18F088ECF5
:100F40008093370408958C3AB0F38370886AF1CFA8
:100F500021E001C0220F8A95EAF7822F2091330405
:100F6000611539F0282B2093330481E080938603A8
:100F7000089580952823F7CFCF93C82F81FB66274C
:100F800060F9811101C060E081E0E2DF60E0C1153D
:100F900019F0C2FB662760F982E0DADF60E0C11574
:100FA00019F0C3FB662760F983E0D2DF8C2FCF9165
:100FB0000895E2DF80938904089521E001C0220FA3
:100FC0008A95EAF780918904822BF3CF21E001C052
:100FD000220F8A95EAF7822F8095909189048923C0
:100FE000E8CF80916201833011F481E0EFDF10924D
:100FF0006201089580916001833011F482E0E6CFB0
:10100000089580915E01833009F4E0CF08959091B6
:1010100041048095892380934104282F277081F40F
:10102000891771F09091880492FF0AC08695869581
:101030008695CCDF10924104109242041092430432
:1010400008959091890421E030E0F90101C0EE0F8C
:101050008A95EAF7D90101C0AA0F6A95EAF7EA2B47
:1010600001C0220F4A95EAF7892F8E23E81303C0A7
:10107000892F822B9ECF2095822F8923FBCFCF9360
:10108000C82F81FB662760F980E062DFC1FD03C0E5
:101090008F9ACF9108958F98FCCF6A9A0895FC019A
:1010A000EE0FFF1FE80FF91FE054FD4F61834083EF
:1010B00022830895FC018481862351F49281911545
:1010C000B9F06923808583FF05C081E061110FC0FD
:1010D00080E00895292F22952F709F70292B962F3D
:1010E00092959F706F70962B81E02913F1CF089530
:1010F00081E00895382F25EB3203C001112497FFBA
:1011000004C080589109892F089580589F4FFBCFC4
:101110008091F60380FD14C081FD14C082FD16C0CD
:101120008091F503811581F08E3180F420E5829F56
:10113000C00111246EE170E00E94DB2E862F08951D
:1011400084E1089588E2089588E0089580E508958F
:101150008091F60380FD17C081FD17C082FD19C084
:101160008091F403811599F0883298F428E0829FE9
:10117000C001112468E270E00E94DB2E6115710548
:1011800051F0862F089562E0FCCF64E0FACF61E071
:10119000F8CF68E0F6CF81E00895853068F5E9EA98
:1011A000F2E040E050E097E0949F9001959F300D71
:1011B0001124D901A255BD4F7C9173FF07C07681E0
:1011C000781304C0C90187559D4F08954F5F5F4F45
:1011D00037964330510541F7611571F09091AE0299
:1011E00093FF0DC09091B50293FF1CC09091BC027B
:1011F00042E050E093FF05C080E090E0089540E0B9
:1012000050E097E0949FD001959FB00D1124FD010F
:10121000E755FD4F8683A255BD4F8C9188608C9316
:10122000CF01089541E050E0ECCF4115510511F098
:10123000FA0109950895E091CC03F091CD03309720
:1012400039F00190F081E02D309711F00995089563
:1012500080E00895A3E0B0E0E0E3F9E00C942430EE
:101260002091A7023091A80228173907B1F0809386
:10127000A7029093A802E091CC03F091CD033097A0
:1012800061F00084F185E02D309739F023E0298367
:101290008A839B83CE01019609952396E2E00C9404
:1012A0004030A3E0B0E0E7E5F9E00C942430209171
:1012B000A5023091A60228173907B1F08093A50244
:1012C0009093A602E091CC03F091CD03309761F0AA
:1012D0000084F185E02D309739F024E029838A835A
:1012E0009B83CE01019609952396E2E00C94403051
:1012F00090912801913099F0A8E6B2E0EFEF90E0EC
:101300002C91821759F01196EF3F19F4211101C069
:10131000E92F9F5F9630A1F7EF3FC1F408959091B8
:10132000870497FFE9CFE82FE695E695E695803F9D
:10133000A8F7F0E0E259FD4F877021E001C0220FCD
:101340008A95EAF78281822B82830895FE2FFF0F10
:10135000FF0BEA59FD4FF8CF90912801913021F40D
:101360009091870497FD0CC0E8E6F2E09191891313
:1013700002C0DF011E9292E0EE36F907B9F7089538
:10138000E82FE695E695E695803FC8F7F0E0E2594C
:10139000FD4F9DEF81FD97EF80FF959582FD929522
:1013A00082818923828308958091270108952FB730
:1013B000F8948091A1029091A202A091A302B09111
:1013C000A4022FBF0895CF93C0913C0480914004A4
:1013D000C82B80913D04811529F1E9DF2091440457
:1013E00030914504821B930B8C3D954008F008DB3F
:1013F00080913D04C82B80912801813021F4809197
:10140000870487FD18C086E028E632E090E081502E
:10141000F90140812F5F3F4F41119F5F8111F7CF4D
:101420009111EEDA80911F0480958C2390911E0417
:10143000892BCF9108958EE120E732E0E7CF90919C
:10144000880492FF0EC0982F990F990F990F9360FF
:1014500090934104B2DDABDF809342049093430448
:101460000895ABCDFFD980936001833079F084304B
:1014700029F0823069F4E3DF81E0C9CD80918904ED
:10148000811521F082FF02C082E0A0CD82E095CDDF
:101490000895E8D980935E01833089F0843031F07B
:1014A000823071F483E0CBDF81E0B1CD809189049B
:1014B000811521F083FF02C083E088CD83E07DCDDC
:1014C000089575DF9C019091F9038091FA03982BA0
:1014D00021F020938F03309390039091FB03809130
:1014E000FC03982B21F020938D0330938E03E09121
:1014F000CC03F091CD03309759F00680F781E02DB1
:10150000309731F082E08093F70387EF93E00995FD
:101510000895611509F440C0E82FED5CE33148F40B
:10152000F0E0E258FF4C0C94EE2EF2DD81958093B2
:10153000FA03C7CFEDDDFBCFEBDD81958093F90397
:10154000F8CFE6DDFBCF04DE8093FB03F2CF00DEB5
:101550008195FACFFDDD81958093FC03EACFF8DD1C
:10156000FBCF815D990B21E001C0220F8A95EAF73C
:101570008091F803822B8093F803DBCF8091F603F0
:1015800081608093F603D5CF8091F6038260F9CF16
:101590008091F6038460F5CF4091F9038D3C59F4B6
:1015A0008091FA0387FF0DC01092FA03411559F498
:1015B0001092F50308C08E3C81F48091FA0318164E
:1015C0009CF3411581F08091FB039091FC03892BE2
:1015D00009F0AFCF1092F403ACCF8F3C41F447FF3A
:1015E000F0CF1092F9038091FA038115E0CF803D8E
:1015F00019F41416B4F3E5CF9091FB03893D29F457
:101600001916FCF61092FB03DCCF8A3D19F497FF04
:10161000D8CFF8CF9091FC038B3D29F497FFD1CF21
:101620001092FC03CECF8C3D19F41916CCF3C9CF20
:10163000982F915D983078F4815D990B21E001C07D
:10164000220F8A95EAF7822F80959091F8038923DB
:101650008093F803B6CF8D3D31F48091F6038E7FF1
:101660008093F603AECF8E3D21F48091F6038D7FFB
:10167000F7CF8F3D09F0A5CF8091F6038B7FF0CF98
:101680002FB7F8946091A1027091A2028091A302F9
:101690009091A4022FBF0895CF92DF92EF92FF9214
:1016A000CF93DF93EC01C0902504D0902604E09006
:1016B0002704F0902804E4DFDC01CB018C199D099C
:1016C000AE09BF09843F9140A105B10508F1D8DFFB
:1016D0006B017C0182E390E0C0928203D09283038D
:1016E000E0928403F092850380937E0390937F03BE
:1016F0001092800310928103CE01C0932304909333
:101700002404DF91CF91FF90EF90DF90CF90089568
:1017100084EF91E0E1CFFC01209197023091980293
:101720002617370748F06115710529F49091E800F4
:101730009E779093E8009B0190E02115310541F4DC
:10174000911106C08091E80082FF32C080E00895C8
:10175000809192038115C1F18530C1F18091E8003B
:1017600083FD30C08091E80082FDECCF8091E800DD
:1017700080FFE3CF8091F3004091F200582F2115B4
:10178000310519F04830510558F091E048305105C5
:1017900009F090E04091E8004E774093E800CDCF0B
:1017A00081918093F100215031094F5F5F4FE7CF66
:1017B00080919203811541F0853041F08091E800DD
:1017C00083FFC0CF81E0089582E0089583E008950B
:1017D000982F9093E900891771F07091EC00209197
:1017E000ED005091F00021FD09C09F5F973089F70F
:1017F0008093E9000895762F242F50E03091EB007C
:101800003E7F3093EB003091ED003D7F3093ED0053
:101810003091EB0031603093EB007093EC0020933B
:10182000ED005093F0002091EE0027FDDECF0895EB
:101830008091910287FF13C08091E80082FF06C06B
:101840008091E8008B778093E8000895809192035F
:101850008111F2CF0895809192038115D9F380917F
:10186000E80080FFF8CF8091E8008E77ECCF2091E0
:10187000E4003091E50095E6A9012091EC00822F6B
:10188000817020FF06C08091E80080FF06C080E0E4
:1018900008952091E80022FD1AC0809192038115DD
:1018A00089F0853089F08091EB0085FD0FC0209193
:1018B000E4003091E50042175307F9F29150E1F648
:1018C00084E0089582E0089583E0089581E008951A
:1018D000CF93DF93C8EDD0E088818F7E8883E7EDDA
:1018E000F0E080818160808384E082BF81E080932A
:1018F000900288818E7F8883E2EE10821092DA0057
:10190000A1EEB0E01C9288818F77888388818068FF
:10191000888388818F7D888319BC109292031092EE
:101920008F021092680310928E02A0EE8C918B7F32
:101930008C9388818160888342E060E080E048DFAA
:10194000A1EEB0E08C918E7F8C93E2EEF0E080818E
:1019500081608083808188608083E0EE80818E7FDB
:101960008083888180618883DF91CF910895E8ED3D
:10197000F0E080818E7F80831092E2001092DA0086
:101980001092E100A0EEB0E08C9181608C93808198
:101990008F77808319BCA7ED8C918E7F8C9380818B
:1019A0008F7E80831092900208953EB13B7F2EB1CE
:1019B00024604FB7F89480EC92E0FC0101965081CE
:1019C00068E02EB9000000C057FF3EB9550F000077
:1019D00000C000C000C03EB900C06A9591F752E057
:1019E0008C3F950751F74FBF8FE594E00197F1F7D2
:1019F00000C00000089581E08093E00080E28093C1
:101A0000D8001092C9008FE19EE40197F1F700C061
:101A10000000A7E0B0EBCD0180938A0490938B0483
:101A2000A0938C04B0938D0488E19CE00FB6F894E9
:101A3000A895809360000FBE90936000FFCF0F9336
:101A40001F93CF93DF93EB018A019091920394301F
:101A500059F58093E9008FEF9091E80095FD06C05D
:101A600095ED9A95F1F700008150B1F78091E8006B
:101A700085FF1AC0FCDE811112C08091E80085FD4F
:101A800006C08091E8008E778093E800F3CF8881CC
:101A90008093F1000150104011F02196EECF80911B
:101AA000E8008E778093E800DF91CF911F910F912E
:101AB0000895603229F440E250E0BC0182E0BFCFDB
:101AC0000895CF93DF93EC0148E050E0BC0181E042
:101AD000B6DF88E0FE01A9E9B2E001900D928A9597
:101AE000E1F7DF91CF91089540E250E0BC0184E03E
:101AF000A6CF46E050E0BC0184E0A1CF43E050E037
:101B0000BC0184E09CCF9091880492FB222720F9AD
:101B1000281771F080FB92F99093880460918704F4
:101B20007091880484E090E00E94D42F82E06FCA14
:101B300008951F93CF93DF93122F8430D8F465302C
:101B4000C8F44031B8F490E2699FE0011124C40F59
:101B5000D11DC40FD11D90EA899FC00DD11D112444
:101B6000632FCE0189960E94BA2F612FCE018A96EB
:101B70000E94BA2FDF91CF911F910895AF92BF922B
:101B8000CF92DF92FF920F931F93CF93DF93A12CFD
:101B9000B12C00E0650110E012C0FE0125913591E5
:101BA0004F2D612F802FC5DF2296F3948F2D80312A
:101BB000A1F780E1C80ED11C1F5F153039F0E60196
:101BC000CC0FDD1FC556DD4FF12CE7CF0F5F80E551
:101BD000A80EB11C0430F1F6DF91CF911F910F9147
:101BE000FF90DF90CF90BF90AF9008958091280133
:101BF000813061F58091870487FF28C0E4DB809302
:101C00006F0240E250E06CEA73E08EE692E00E94E0
:101C10008C2F892BD1F080E2EEE6F2E0ACEAB3E063
:101C200001900D928A95E1F7E091CC03F091CD03FC
:101C3000309759F00480F581E02D309731F086E03F
:101C400080936E028EE692E009950895BCDB809346
:101C5000660248E050E06EEC73E086E692E00E9497
:101C60008C2F892B91F388E0E6E6F2E0AEECB3E04E
:101C700001900D928A95E1F7E091CC03F091CD03AC
:101C8000309719F30280F381E02D3097F1F286E668
:101C900092E0DACF811531F090913C04982B90932B
:101CA0003C04A4CF0895811531F090914004982B05
:101CB000909340049BCF0895811519F00E94F80479
:101CC00095CF0895811539F080959091400489232E
:101CD000809340048BCF0895CF93C82F8115A1F036
:101CE0008238A1F4A8DA81FD0FC089E301DB7EDF31
:101CF0008FEF97EE23E0815090402040E1F700C045
:101D0000000089E329DB72DFCF910895833889F4DD
:101D100092DA80FDF9CF83E5EBDA68DF8FEF91EEA1
:101D200024E0815090402040E1F700C0000083E5AE
:101D3000E9CF843889F47FDA82FDE6CF87E4D8DA08
:101D400055DF8FEF91EE24E0815090402040E1F785
:101D500000C0000087E4D6CF8450813A68F58091B6
:101D60002801813021F48091870487FD0EC0E8E6C8
:101D7000F2E08EE692E02081C217D1F031968E1704
:101D80009F07C9F78C2FB4DABECFEC2FE695E69506
:101D9000E695F0E0E259FD4F828190E04C2F4770CC
:101DA00021E001C0220F4A95EAF78223892B51F3E3
:101DB0008C2FD2DA1BDFE6CF8C2F805E883060F468
:101DC000C77081E001C0880FCA95EAF7C0913C0452
:101DD000C82BC0933C0497CF8C2F855A833028F4AE
:101DE0008C2F8452990B36DA8FCFEC2FE85AEB31D7
:101DF00048F4F0E0EE0FFF1FEC5DFD4F8081918114
:101E000050DA82CF8C2F8D5C833108F07DCF61E07A
:101E10008C2F7FDB79CFCF93DF93EC01805E91092C
:101E2000089720F063E57EE0209711F46AE47EE0F5
:101E3000CE010E945C048C2F4FDFDF91CF9108957B
:101E4000CF93DF93EC018A81823039F4FB018281E8
:101E50009381E1DF8D8182608D83DF91CF91089541
:101E6000FB0180819181D7CF811509F446C082386A
:101E700049F4E1D981FF41C089E33ADAB7DE89E369
:101E80006BDAB4CE833841F4D6D980FF36C083E50F
:101E90002FDAACDE83E5F4CF843841F4CCD982FF6D
:101EA0002CC087E425DAA2DE87E4EACF982F94508D
:101EB000913A30F3982F905E983058F4982F81E043
:101EC00091FD84E090FD880F92FD82950E94F804B8
:101ED000D8CF982F955A933018F480E090E0BAC983
:101EE000982F985A9B3118F480E090E0DAC9982F27
:101EF0009D5C933110F460E00CCB0895CF93DF9399
:101F0000EC01B2DFCE01805E9109089720F062E615
:101F10007EE0209711F46CE57EE0CE010E945C0427
:101F2000DF91CF910895FC018281813029F4FB017A
:101F300080819181E3CF08958230E9F7FB018281AE
:101F40009381F8CF1F93CF93DF93182FEB01C4DE5B
:101F5000209731F4812F88DFDF91CF911F91089571
:101F60008FE99FE00197F1F700C000002197F0CFC3
:101F70000E94320480936201833081F0843031F01A
:101F8000823071F460E570E089E3DCCF80918904F0
:101F9000811521F081FF02C081E018C881E00DC8E1
:101FA0000895FF920F931F93CF93DF93C62FD42FE3
:101FB000F22E8115A1F060932F04F9D98093BE020F
:101FC0009093BF0281E0C1FD84E0C0FD880FC2FD97
:101FD000829560DECDB7DEB7E5E00C943D308091B0
:101FE0002F0468132FC00091BE021091BF02DFD9E9
:101FF000801B910B883C910528F51D2F105ECD1795
:1020000091F0C77001E0802F01C0880FCA95EAF7F0
:1020100053DE183040F48D2F877001C0000F8A9571
:10202000EAF7802F37DE60E070E08F2D8BDF81E0F4
:10203000D1FD84E0D0FD880FD2FD8295183050F696
:102040003BDEC8CF81E0C1FD84E0C0FD880FC2FD4A
:102050008295F6CF10923C0480912801813001F5E1
:102060008091870487FF1CC0E0E7F2E08EE11192C7
:102070008A95E9F780E090E0EDD880E090E011D912
:1020800010924004B3DDE7EFF3E086E011928A9509
:10209000E9F71092F5031092F4031092F60311CAB7
:1020A000E8E6F2E086E0E3CFD5DF8FEF94E32CE0C3
:1020B000815090402040E1F700C0000088E19CE0A2
:1020C0000FB6F894A895809360000FBE90936000BF
:1020D000FFCFAAE2B0E0EFE6F0E10C94233081E913
:1020E00092E0FC0101962091F100208322E08939E1
:1020F0009207B9F780919202893009F457C0C8F469
:10210000823009F4B3C0833009F483C0813081F197
:102110008091E80083FFE7C0809191029091920244
:102120009A3008F0E0C0E92FF0E0EF56FF4C0C9435
:10213000EE2E8A3009F48AC08B3051F780919102DB
:10214000813231F78091950290919602892B01F7A7
:102150008091E800877F8093E8006ADB81E09091BE
:102160009302911101C080E08093280173DFD0CFEA
:1021700080919102813A61F68091E800877F809397
:10218000E8008091950290919602892B59F060E0C9
:1021900080E090E070E0BFDA8091E8008B77809378
:1021A000E800B6CF68E089E992E0F4CF809191022F
:1021B000813209F0ADCF80919502909196028D7F8A
:1021C000892B09F0A5CF8091E800877F8093E800F4
:1021D0008091E80082FF18C02091F3008091F20006
:1021E000922F029731F48091F100813011F0863006
:1021F00021F48091F100809327018091E8008B7792
:102200008093E80015DB84CF809192038111E0CFA9
:102210007FCF80919102813A09F07ACF8091950227
:1022200090919602892B09F073CF8091E800877F07
:102230008093E8008091E80080FFFCCF8091280126
:102240008093F1008091E8008E77DACF809191023F
:10225000813209F05DCF8091E800877F8093E800AC
:10226000E7DA809194028093260152CF8091910207
:10227000813A09F04DCF8091E800877F8093E80094
:102280008091E80080FFFCCF80912601D9CF803873
:1022900089F0823841F5809195028F70873018F56A
:1022A0008093E9008091EB0085FB882780F91092EC
:1022B000E90006C080916803880F90918E02892BF7
:1022C0009091E800977F9093E8008093F10010923E
:1022D000F1008091E8008E7723C0811116C08091B3
:1022E0009302813009F18091E80083FF0AC0809158
:1022F000E800877F8093E8008091EB008062809304
:10230000EB00AA96E3E00C943F30823061F78091B5
:102310009302811579F01092E9008091E800877F9F
:102320008093E80085DADFCF933009F080E0809376
:102330006803F1CF809195028F70282F21502630AD
:1023400090F68093E9002091EB0020FFE4CF9330DA
:1023500031F48091EB0080628093EB00DCCF9091B0
:10236000EB0090619093EB0021E001C0220F8A9571
:10237000EAF72093EA001092EA008091EB0088606F
:10238000EBCF8111B0CF809193028F77182F80917E
:10239000E3008078812B8093E3008091E800877FC1
:1023A0008093E80045DA8091E80080FFFCCF8091BF
:1023B000E30080688093E30083E0111101C082E0B4
:1023C0008093920390CF8058823008F08CCF809118
:1023D0009302909194028C3D23E0920789F583E06B
:1023E0008A838AE289834FB7F894DE01139620E04E
:1023F0003EE051E2E32FF0E050935700849120FF3C
:1024000003C082958F703F5F8F708A30B8F0895C0F
:102410008D931D922F5F243169F74FBF8091E800A3
:10242000877F8093E8006AE270E0CE01019673D95D
:102430008091E8008B778093E80055CF805DE8CFEE
:10244000292F30E02330310509F44DC078F52130D3
:10245000310509F47CC08BE590E0E0EFF1E022303B
:10246000310509F040CF2091E800277F2093E80054
:1024700020919702309198028217930708F49C01EB
:1024800040E02115310509F067C0411165C0809118
:10249000E80082FDCDCF80919203811549F285300D
:1024A00039F28091E80083FFF2CFC2CF809195028C
:1024B0009091960221323105D9F12232310509F08D
:1024C00012CF8330910508F00ECFFC01EE0FFF1FF5
:1024D000EE55FE4F0190F081E02D81569E4FDC01BC
:1024E0008C9190E011C0282F30E0813089F02230AB
:1024F0003105B1F0232B09F0F6CEE7E9F2E0E491E3
:102500008E2F90E0E7E9F2E0009709F4ECCEABCF34
:10251000EBE7F2E0E4918E2F90E0EBE7F2E0F4CF0E
:10252000EDE5F2E0E4918E2F90E0EDE5F2E0ECCF06
:102530008330910508F0D7CE880F991FFC01E8552C
:10254000FE4F0190F081E02D89E090E08CCF82E198
:1025500090E0EBE4F2E087CF80919203811509F4DB
:1025600067CF853009F464CF8091E80083FD60CFA8
:102570008091E80082FD8BCF8091E80080FF81CFC1
:102580004091F3008091F200942F2115310519F04C
:102590008830910550F041E0089709F040E08091C3
:1025A000E8008E778093E8006CCF44914093F1006F
:1025B0003196215031090196E8CF803809F093CE49
:1025C0008091E800877F8093E80080918F0280935C
:1025D000F1007FCE811187CE80919302182F823037
:1025E00008F081CE8091E800877F8093E800109307
:1025F0008F021ED91115D9F084E08093920342E036
:1026000061EC81E0E5D842E261EC84E0E1D842E2AD
:1026100061EC82E0DDD842E260EC83E0D9D88091C1
:102620009203843051F482E0809329015CCE809142
:10263000E30087FDE1CF81E0E0CF81E0F5CF1F939C
:10264000CF93DF93182FA0912104B091220410970B
:1026500009F447C0109223041092240410921F041E
:1026600010921E041696CD91DD9118979E0131505F
:102670003F3100F4D1E0C11101C0D0E01996ED91D5
:10268000FD911B97309731F01B966D917D9180E005
:102690000995D823D11539F08C2F8450813A28F52B
:1026A0008C2F0E94AC091115A9F0E0912104F09142
:1026B0002204808584FD0EC080912004811551F094
:1026C000808191819C01215031092F333E4710F4C4
:1026D0000E944C0B8BDA109221041092220410926B
:1026E0002004DF91CF911F91089580DA8C2FBCDBFD
:1026F000DACFCF93DF93EB01FC01448155816085F4
:102700007185CE010E9415099B81909580914004AE
:102710008923809340048C810E94F80467DA87E063
:1027200019928A95E9F7DF91CF9108950F931F933E
:10273000CF93DF938C01EB018D8181FD17C0826007
:102740008D83809140049B81892B809340048091EC
:102750003C049C81892B80933C0448DAF801428137
:10276000538160857185CE010E94150910922B045A
:1027700010922C048D8180FD03C0BE01C801B9DF19
:10278000DF91CF911F910F9108958F929F92AF92F9
:10279000BF92CF92DF92EF92FF920F9388E090E08A
:1027A0000E94A12F4B015C01609334049092350488
:1027B00080933604B0923704109238041092390492
:1027C00010923A0410923B0483E290E00E94992F09
:1027D0009401A5018092340430933504A09236040C
:1027E00050933704809338041092390410923A04BD
:1027F00010923B040F91FF90EF90DF90CF90BF902D
:10280000AF909F908F9008950F931F93CF93DF9376
:10281000843000F56530F0F44031E0F490E2699FD7
:10282000E0011124C40FD11DC40FD11D90EA899F6E
:10283000C00DD11D1124CE0189960E94992F082F19
:10284000CE018A960E94992F902FDF91CF911F91F0
:102850000F91089580E090E0F8CF462F753030F466
:10286000603120F4843010F4672FCECF80E090E008
:102870000895CF92DF92FF920F931F93CF93DF9330
:102880006C010091890480913F04082BC3E0D0E0E3
:1028900010E0C8010C2E02C0959587950A94E2F7C6
:1028A00080FD0CC02197A8F7F12C8F2DDF91CF91DF
:1028B0001F910F91FF90DF90CF900895FC2EB601ED
:1028C0008C2FCBDF0E94FF05019761F3EECF1F93A2
:1028D000CF93DF93FC012581C081D181CE012115E9
:1028E00079F0611569F0C5DF182F682FCE010E94BD
:1028F0006804BE01812FB1DFDF91CF911F91089550
:102900000E949D04182FF5CFCF93DF93EC01B1DF28
:10291000BE01A3DF0E94FF05DF91CF910895FC0166
:102920002481211599F080819181EEDF282F9295E5
:102930009F70963099F060F4925F9F70923030F4FF
:10294000203FB1F038F481E0283E38F080E008956F
:102950009A5FF3CF81E0243FC9F7089591E0213FCA
:1029600009F090E081E0283E08F080E0892B08958E
:1029700081E00895673521E072078105910528F40B
:10298000CB0187559D4F0C94992F80E00895CF92ED
:10299000DF92EF92FF92CF93DF93EC01C880D98052
:1029A000EA80FB80B601C701E5DF9FEFC91AD90AAB
:1029B000E90AF90AC882D982EA82FB82DF91CF91C3
:1029C000FF90EF90DF90CF90089585E290E00E9415
:1029D000992F863269F486E290E00E94992F813027
:1029E00039F487E290E00E94992F91E0883009F055
:1029F00090E0892F817008950F93CF93DF93C4E304
:102A0000D4E0488159816A817B8188E090E00E940E
:102A1000CC2F6C81262F60E070E0CB01622F83E227
:102A20000E94BA2FDF91CF910F91089585E0809396
:102A30003404109235041092360410923704109228
:102A4000380484E394E0D8CF80913804833018F4BC
:102A50008F5F8093380484E394E0CECF8091380474
:102A6000811519F081508093380484E394E0C4CF39
:102A7000AAE0B0E0EEE3F5E10C941C30FE013196E3
:102A8000DF018AE01D928A95E9F799EDE92E91E040
:102A9000F92E8F01BE2EA12EF70181917F018F3F6C
:102AA00009F444C0F894E82FE295EF70F0E021A11A
:102AB0008F7041E001C0440F8A95EAF7922F942B62
:102AC00091A392A1842F8095892382A3789400C03A
:102AD000EEEDF1E021E030E0C12CD12C41914F3FEF
:102AE00079F0A42FA295AF70A05EB0E08C9190E039
:102AF0004F7002C0959587954A95E2F780FF3EC0DA
:102B000080E090E0C82AD92A220F331F81E0EE3EF0
:102B1000F80721F7F70182918F3F11F00E94ED062F
:102B200080EA8A95F1F7F801C082D1820E5F1F4FCB
:102B30008EEDE81681E0F80609F0AECF4AE050E0ED
:102B40006B2D7A2D80EA93E00E948C2F892BC1F0A7
:102B50008AE0EB2DFA2DA0EAB3E001900D928A9560
:102B6000E1F781E0809395030E94D7098093930356
:102B7000909394032A96EAE00C943830C901C2CFAE
:102B8000809195038115B1F3009193031091940303
:102B90000E94D709801B910B059760F34AE050E033
:102BA00060EA73E086E993E00E948C2F892B49F05C
:102BB0008AE0E0EAF3E0A6E9B3E001900D928A959D
:102BC000E1F710929503D6CF60913404669566952F
:102BD00070E04BE050E08FE091E00E947F2F892B66
:102BE00019F481E0809332040E94D709809387030F
:102BF000909388030895A5E0B0E0E1E0F6E10C943D
:102C00001A308091340480FD0DC000E010E020E017
:102C100040E060E0C8010E944F080F5F1F4F043181
:102C20001105A9F7A0906303B0906403A114B10447
:102C300009F44AC08091340480FF46C0C12CD12CD5
:102C40008091330421E00C2C01C0220F0A94EAF792
:102C5000822379F1F501E590F590E114F104A1F1F9
:102C600045E050E0B701CE0101960E94762F8981A0
:102C70008F3FF9F0882E912C0A81080F1127111F20
:102C80000531110514F004E110E08016910624F0DE
:102C900085E0E80EF11CE4CF4D81493C08F048EC9A
:102CA00094016C818B810E9486078FEF881A980AA5
:102CB000ECCF82E0A80EB11C8FEFC81AD80A88E0CA
:102CC000C816D10409F0BCCF0E94D50C2596ECE0C3
:102CD0000C943630A0E0B0E0E0E7F6E10C941A3056
:102CE000FC018281A82EB48081E08483EBE1F5E0D1
:102CF0000491EAE9F5E0E491E0903704E6948FE787
:102D0000E80EF12CEE0CFF1CEF2CF12CCCEFD2E0F6
:102D10006D011FEFE01B8E2F90E04C018A2D833058
:102D200030F4809135048883809136048983B11012
:102D300019C01B821A824A81493C08F048EC96016E
:102D4000698188810E9486078FEFC81AD80A259664
:102D500084E1C816D10411F74EDFCDB7DEB7ECE041
:102D60000C9436308B818115E1F081508B83189F54
:102D7000C00111246C8170E00E94C72E70E0FB013D
:102D8000E55EFA4F8491801B189FC0011124B401A5
:102D90000E94C72E80913704689FB00111247A8366
:102DA000CACF0E946A2F6FEF70E00E94DB2E8E1553
:102DB0009F050CF0C0CF8A2D833090F00E946A2FBF
:102DC0006FEF70E00E94DB2E88830E946A2F2091B3
:102DD00036042695622F70E00E94DB2E280F29838F
:102DE0001A8280913704893C20F088EC8C838B8395
:102DF000A2CF8431D8F784E1F9CFFF920F931F93CC
:102E0000CF93DF93EC01F12C00E010E04091370408
:102E1000493C08F048EC8C819801609136048F0D94
:102E20000E9486070F5F1F4F8CE0F80E04311105DA
:102E300069F7E1DE8C819A8190FF07C08F5F8C83F8
:102E4000CDB7DEB7E5E00C943D308150F8CFEF927E
:102E5000FF920F931F93CF93DF93FC018281EE24A7
:102E6000E39480FF02C0EE24EA94C0E0D0E020E0CA
:102E700040E060E0CE010E944F0804E010E0F12C39
:102E8000809161038F0D8531ACF164E10E94BA2E0F
:102E9000892F082E001C00088C170D0699F440910C
:102EA00037040403A001112455954795559547957E
:102EB000493C08F048EC9E0160913604809135044D
:102EC0000E948607FE0C01501040D1F62196C431B5
:102ED000D10569F690DE809161039E2D913071F4E9
:102EE000811591F0815080936103CDB7DEB7E6E0A4
:102EF0000C943C3087FFCDCF8C5ECBCF90E0019619
:102F0000BE010E94DB2EEFCF83E1EDCFCF93DF93A5
:102F1000C0E0D0E020E040E060E0CE010E944F0839
:102F20002196C431D105B1F7C0E0D0E080916003B3
:102F3000082E001C0008C817D0057CF180910E01F6
:102F4000082E001C00088C170D063CF14091370438
:102F5000493C08F048EC9E016091360480913504AC
:102F60000E9486072196C431D10501F744DE809185
:102F70000D0190916003980F9093600320910E01D2
:102F8000280F20930E01121614F493311CF0819532
:102F900080930D01DF91CF91089520E040E060E043
:102FA000CE010E944F08DECFA0E0B0E0EAEDF7E1ED
:102FB0000C941C30EC01FC812F2F30E0D9010E94D1
:102FC0004B309B01AC010E9404307B018C0180E2FC
:102FD00090E08F1B9109FC01A5E59701A8010E94D3
:102FE00004305B016C019F01DF010E94A82E9B0150
:102FF0000E94FB2E9B01AC012E0D3F1D401F511F57
:10300000B501C6010E945A30022F30E00A32A0F505
:10301000C901880F991F820F931F95958795182FC7
:103020001095E12CF12C85E5801BD82E8D2DE1FC2F
:10303000802F412F193C08F048EC9701609136042D
:103040000E9486078FEFE81AF80A84E1E816F10477
:1030500069F7D1DD9C8181E0911519F0903219F466
:103060008FEF80930C0180910C01890F8C83CDB779
:10307000DEB7EAE00C94383085E590E0821B930BD4
:103080009C01880F991F820F931F3AF60196C5CFB6
:103090000F931F93CF93DF93EC0120E030E060911A
:1030A0003604809135049C8189010F5F1F4F2A30BF
:1030B00031055CF4911501F140913704493C08F069
:1030C00048EC0E9486079801EACF911115C0409103
:1030D0003704493C08F048EC0E9486079801043107
:1030E0001105E9F688DD8C81019681708C83DF9172
:1030F000CF911F910F91089540E0EECFFF920F9373
:103100001F93CF93DF93182F062FF42E8091340452
:1031100080FF0DC0C0E0D0E02F2D402F612FCE01E9
:103120000E944F082196C431D105B1F764DDCDB7B7
:10313000DEB7E5E00C943D30CF93DF93EC012091B6
:1031400037049C81892F817090FD822F692F6270D6
:1031500091FD622F492F447092FD422FCFDF8C8169
:10316000019687708C83DF91CF910895762F90918F
:10317000340490FF0CC0493C08F048EC682F842FC1
:103180000E940407962F672F482F892FB7CF0895E5
:10319000CF93DF93EC01EC81F0E0E55EFA4F4491D0
:1031A000E4E3F4E062818181E1DF8C818F5F8C83D5
:1031B000DF91CF910895CF93DF93EC01E4E3F4E046
:1031C000438162818C81D2DF8C818F5F8C83DF9120
:1031D000CF910895A0E0B0E0E0EFF8E10C941C304E
:1031E000182FB62ED42FA22E9091340490FF25C014
:1031F000092F06950695E02FF0E0E255FE4F8081FD
:10320000809331049C7F9430E9F4842F493C08F08A
:1032100088EC612F7B2D0E940407962F672F482F83
:10322000892F6CDF10933504B0923604D0933704A5
:10323000A11419F084E394E0DFDBCDB7DEB7EAE058
:103240000C943830823019F4D0913704EBCF8630AB
:1032500019F410913504E6CF8930D9F3893111F78B
:103260000951E02FE695F0E0E55EF94FC4916D015C
:103270007601C60164E170E00E94C72E862F810F9F
:1032800000FF02C0812F861B4D2FD93C08F048EC6F
:1032900097016B2D0E9486078FEFE81AF80ACC0E73
:1032A000D11C84E1E816F10421F7A5DCBBCF909195
:1032B000340490FF2CC0811559F18B3258F58F736F
:1032C000880F880F909134049370892B8093340475
:1032D000611519F084E394E08FDB60913404669506
:1032E000669570E04BE050E08FE091E00E947F2F08
:1032F000892B91F01092320481E080938A0320E0C0
:1033000040913704609136048091350463CF08956D
:1033100081E0D6CF8AE2D4CF57DCEECF809134045F
:10332000869586958F5F8B3208F081E061E0BFCF94
:103330008091340486958695815009F48AE261E093
:10334000B6CF8091340481608093340460E0869528
:103350008695ADCFE4E3F4E0818121E04381628191
:10336000885F38CFE4E3F4E0818121E0438162812A
:10337000885030CFE4E3F4E0628128E0620F08F483
:103380006FEF21E04381818125CFE4E3F4E06281A6
:1033900028E0621B08F460E021E0438181811ACFBC
:1033A000E4E3F4E0438128E0420F08F44FEF21E02A
:1033B000628181810FCFE4E3F4E0438128E0421B86
:1033C00008F440E021E06281818104CFABE0B0E00D
:1033D000ECEEF9E10C9414301C01FC0184818115A0
:1033E00009F4FCC061E0C10172DA7C01F101858160
:1033F000811501F140902B0450902C04411451048C
:10340000C9F0E414F504B9F0842D90E000E010E078
:10341000853040F42AE0289F8001299F100D112457
:10342000055D1E4F60E0842D0E94CD08FC01892BB4
:1034300009F082C02701F1016580C201815A9245DD
:103440004F9708F088C0720180EAE82682E5F826E6
:103450006110C9C021E030E040E050E0BA01CA018B
:103460000E2D0E94012FA090FD03A222B090FE031A
:10347000B322C090FF03C422D0900004D522E09074
:103480000104E622F0900204F722009103040823CD
:103490001091040419230E941A2F09F490C08091FE
:1034A0002A01811115C4952D975509F0C8C5C42C62
:1034B000D12C842D853008F082C0F10165810E94F5
:1034C000CD088C01892B09F47AC0F1018581F801BE
:1034D000958180FB90F99583811509F48AC50E9436
:1034E000D70980932D0490932E04F80182818F5F79
:1034F00082838091400490913C04892B8383809146
:103500003D0484838AE08C9DF0018D9DF00D112493
:10351000E55DFE4F4081518160857185C8010E9443
:103520001509F801858181FD61C5942D852D909344
:103530002B0480932C046AC4858184608583E08297
:10354000F182BF01C801F2D81092400461E0C101CC
:10355000BED92C0170CF611409F47CC2511409F456
:1035600041C089E548168CE7580619F110921D04F0
:10357000C20197578038910508F4D8C28EE54816E5
:103580008CE7580609F4A0C38FE548168CE7580667
:1035900059F08DE548168CE7580609F080CF8091E8
:1035A0002A01811509F490C310922A0180E047D8BE
:1035B00006C080911D0491E0892780931D048091AD
:1035C0004104877059F0F1018581811539F08091AE
:1035D000880482FF03C082E00E9407082B96E2E184
:1035E0000C943030720180911D04811509F4E0C003
:1035F00010921D0480ECE816F104F0F580E8E8165E
:10360000F10408F0A1C0870100541109003411052C
:1036100008F469C021E030E040E050E0BA01CA019E
:103620000E2D0E94012FE091FD032E2BE091FE0351
:103630003E2BE091FF034E2BE09100045E2BE091C6
:1036400001046E2BE09102047E2BE09103048E2B8B
:10365000E0910404E92B2093FD033093FE03409393
:10366000FF0350930004609301047093020480935D
:103670000304E093040433C021E030E040E050E074
:10368000BA01CA018701005C11090E94012FE09173
:1036900015042E2BE09116043E2BE09117044E2BBF
:1036A000E09118045E2BE09119046E2BE0911A044E
:1036B0007E2BE0911B048E2BE0911C04E92B2093C0
:1036C0001504309316044093170450931804609324
:1036D000190470931A0480931B04E0931C042701BF
:1036E00061104CCFDCCE21E030E040E050E0BA0188
:1036F000CA010E94012FE09105042E2BE0910604DF
:103700003E2BE09107044E2BE09108045E2BE091E4
:1037100009046E2BE0910A047E2BE0910B048E2BA2
:10372000E0910C04E92B20930504309306044093A8
:103730000704509308046093090470930A0480936B
:103740000B04E0930C04CBCF21E030E040E050E0EC
:10375000BA01CA018701005811090E94012FE091A6
:103760000D042E2BE0910E043E2BE0910F044E2B06
:10377000E09110045E2BE09111046E2BE091120495
:103780007E2BE09113048E2BE0911404E92B2093FF
:103790000D0430930E0440930F0450931004609373
:1037A00011047093120480931304E093140497CFD0
:1037B00080E4E816F10408F050C0F091FD03E091B8
:1037C000FE03A091FF03B0910004809101048D835A
:1037D00090900204809003047090040421E030E093
:1037E00040E050E0BA01CA010E2D0E94012FAF2E19
:1037F000A222BE2EB322CA2EC422DB2ED522ED80F9
:10380000E622F92CF722082D0823172D19230E94F0
:103810001A2F09F065CF2095309540955095609509
:103820007095809590952F233E234A235B23ED814D
:103830006E237921882197212093FD033093FE0385
:103840004093FF03509300046093010470930204BB
:103850008093030490930404B2CE80E8E816F10448
:1038600008F051C0F0910504E0910604A09107040E
:10387000B0910804809109048D8390900A0480908F
:103880000B0470900C048701005421E030E040E00C
:1038900050E0BA01CA010E94012FAF2EA222BE2E13
:1038A000B322CA2EC422DB2ED522ED80E622F92CCB
:1038B000F722082D0823172D19230E941A2F09F02B
:1038C0000FCF2095309540955095609570958095D7
:1038D00090952F233E234A235B23ED816E2379218C
:1038E0008821972120930504309306044093070410
:1038F000509308046093090470930A0480930B04A6
:1039000090930C045CCE80ECE816F10408F051C0F2
:10391000F0910D04E0910E04A0910F04B0911004F9
:10392000809111048D839090120480901304709004
:1039300014048701005821E030E040E050E0BA0173
:10394000CA010E94012FAF2EA222BE2EB322CA2E80
:10395000C422DB2ED522ED80E622F92CF722082D99
:103960000823172D19230E941A2F09F0B9CE20958C
:1039700030954095509560957095809590952F2342
:103980003E234A235B23ED816E23792188219721F1
:1039900020930D0430930E0440930F0450931004B1
:1039A0006093110470931204809313049093140491
:1039B00006CEF0911504E0911604A0911704B09181
:1039C0001804809119048D8390901A0480901B0430
:1039D00070901C048701005C21E030E040E050E082
:1039E000BA01CA010E94012FAF2EA222BE2EB3221D
:1039F000CA2EC422DB2ED522ED80E622F92CF72236
:103A0000082D0823172D19230E941A2F09F068CEBC
:103A1000209530954095509560957095809590953E
:103A20002F233E234A235B23ED816E2379218821B6
:103A30009721209315043093160440931704509354
:103A400018046093190470931A0480931B049093D4
:103A50001C04B5CD511023CD80E44816510410F458
:103A6000E42CF8CC21E030E040E050E0BA0180E8FE
:103A700048165104E8F4CA01820100540E94012F43
:103A8000A0900504A222B0900604B322C0900704BF
:103A9000C422D0900804D522E0900904E622F090D8
:103AA0000A04F72200910B04082310910C04F2CCB5
:103AB00080EC48165104E8F4CA01820100580E94C3
:103AC000012FA0900D04A222B0900E04B322C0904A
:103AD0000F04C422D0901004D522E0901104E622F5
:103AE000F0901204F722009113040823109114049B
:103AF000D1CCCA018201005C0E94012FA090150464
:103B0000A222B0901604B322C0901704C422D09011
:103B10001804D522E0901904E622F0901A04F72246
:103B200000911B04082310911C04B4CC142D1031F7
:103B300008F045CD66E571E080E090E00E94BA149F
:103B400081113DCDE12CF12C6701111122C0C982F8
:103B5000DA82EB82FC828E010F5F1F4FC8010E9448
:103B6000C714D02EC12E813008F429CD09F061C0D0
:103B7000C8010E94C714813009F5C8010E94C7140A
:103B800060E570E0893311F060E070E00E94A20F00
:103B9000E5CF87E5C81681E0D806E104F10409F411
:103BA0000ECDB601C7010E94BA149FEFC91AD90AF7
:103BB000E90AF90A8111EDCF1150C7CF823031F4F3
:103BC000C8010E94C7140E946C0EC8CF833031F424
:103BD000C8010E94C7140E94340FC0CF843071F412
:103BE000C8010E94C714E12CF12C282F2053330B5D
:103BF0002A30310530F0E114F10489F48111AECF9F
:103C0000DECC4AE04E9DC0014F9D900D1124280F3F
:103C1000391F79018D2D9C2D0E94C714E6CFEFE945
:103C2000FFE03197F1F700C0000091E0E91AF108D8
:103C3000E2CFE82FF0E0E159F84F9491992E282F28
:103C400026952695269530E0F901E15AF84FE49043
:103C50008770F12C082E02C0F594E7940A94E2F7DD
:103C6000F901E15BF84FC490D12C082E02C0D59425
:103C7000C7940A94E2F7215C384FF901A490B12C63
:103C800002C0B594A7948A95E2F7E0FE03C081EEE6
:103C90000E946C0EC0FE03C086EE0E946C0E60E0B7
:103CA00070E0892D0E94A20FC0FE03C086EE0E9424
:103CB000340FE0FE03C081EE0E94340FA0FE4ECF11
:103CC00060E070E08CE262CF81E080932A0177CCE3
:103CD000520180EEA81AB10890913E0480913C04F4
:103CE000982B80913D04982B9D8388E0A816B10401
:103CF00008F05FC09201277081E001C0880F2A950B
:103D0000EAF7611409F450C02D81282B2D83F101AD
:103D1000808191810E949D0421E030E002C0220F49
:103D2000331F8A95E2F72A873B878091210490917F
:103D300022048E839F838091290490912A0488878E
:103D400099879AE5892E92E0992E04E612E0F40113
:103D5000E080F180E114F10409F444C08D81811107
:103D600004C0F7018281811118C0F701838190E0BE
:103D70002A858223892B89F08085982F977009F4F2
:103D800087E098E0A916B10408F077C0611409F43F
:103D900070C086958170811175C082E0880E911C7B
:103DA00008151905A1F61EC080959D8198239D8355
:103DB000AECF61104BC08091290490912A048415E4
:103DC000950581F41092290410922A04109225047A
:103DD00010922604109227041092280410922304B3
:103DE000109224048091210490912204009709F4F8
:103DF0005ACB28E0A216B10408F0E2C06D810E94FF
:103E00005A08811103C081E00E941F13F1019581BE
:103E1000911509F4F8C110922F0492013057233202
:103E2000310508F01DC584E090E00E94A62F809324
:103E3000870490938804F201E150F047E232F105E3
:103E400008F027C1E556FF4C0C94EE2E4092290451
:103E500050922A040E94400B60932504709326041C
:103E60008093270490932804109223041092240432
:103E70004ECF82FB882780F98ECF611409F48DCF55
:103E800080FF8BCFF701C080D1804C145D0419F402
:103E9000611409F482CF8E819F818E159F0509F4EC
:103EA0007CCFF7010584F685E02D309721F08081E5
:103EB000811509F472CF6D81C7010E945A088115DE
:103EC00009F46BCF81E04C145D0409F080E0862199
:103ED000782EC114D10441F0811106C088859985DE
:103EE000C816D90609F059CF80E00E941F13E0924E
:103EF0002104F092220481E080932004F70185815F
:103F000080931F0471100DC0C114D10451F0808141
:103F100091819C0124503109213A3105A0F50E947C
:103F2000AC09F70106811781C80191509F3108F44F
:103F3000107EDD24D394C80101978F339E4708F08B
:103F4000D12CF7010184F285E02D309749F0D7019B
:103F50001B966D917D9181E009959D2D9823D92E19
:103F6000D11471F0F701868197810E9440048093FB
:103F70001E0488E0A816B10448F4C8010E944C0B46
:103F80000E94F60D0BC00E94340FCBCFC8010497DE
:103F9000813A910548F4802F0E947809711409F440
:103FA00082CA0E94F60D0BCB0E94F60D8FE39CE9AE
:103FB0000197F1F700C00000802F0E946C0EEECF39
:103FC000FC01208131812415350541F4611009C0BF
:103FD0001092200480E00E941F1365CA611409F446
:103FE00062CAFC01808585FD5ECAF4CF80E090E066
:103FF0009ECA2AE02C9DC0012D9D900D1124855D47
:104000009E4F7C01FC014681578160857185C80106
:104010000E941509F801858181FFF8CEB801C7011A
:104020000E94791380912B0490912C044816590614
:1040300009F0ECCE10922B0410922C04E7CEF10183
:104040008581F201E851FC47E730F10508F0DECE4A
:10405000E354FF4C0C94EE2E26E241EE61EE0E94FA
:10406000D10FADCA27E245EE65EEF9CF26E241EE6B
:1040700060EEF5CF27E245EE64EEF1CF26E241EEA9
:1040800062EEEDCF27E245EE66EEE9CF28E241E0B1
:10409000EBCF8091870481608093870460918704CF
:1040A0007091880484E090E00E94D42F0E942A102E
:1040B00086CA80918804886080938804EFCF8091BD
:1040C00087048260E9CF809187048460E5CF809186
:1040D00087048860E1CF809188048160EDCF809172
:1040E00088048260E9CF809187048061D5CF809178
:1040F00087048062D1CF809187048064CDCF0E94F5
:104100002A10809187048068C7CF809187048C60D3
:10411000C3CF809188048360CFCF809187048E7F46
:10412000BBCF80918804877FC7CF809187048D7F24
:10413000B3CF809187048B7FAFCF80918704877F37
:10414000ABCF809188048E7FB7CF809188048D7F1C
:10415000B3CF809187048F7E9FCF809187048F7D1E
:104160009BCF809187048F7B97CF0E942A108091EC
:1041700087048F7791CF80918704837F8DCF809143
:1041800088048C7F99CF90918704892F8B7F92FF31
:104190008460877F92FF88607FCF80918804982F0A
:1041A000909590FB80F990FB81F986CF90918704E0
:1041B000892F8F7B96FF80646FCF0E942A10909189
:1041C0008704892F97FB87F9805866CF61E08EE0DE
:1041D00090E00E94BA2F62CF60E0F9CF90918704FF
:1041E000892F8F7E94FF806157CF90918704892F0C
:1041F0008E7F90FF816050CF90918804892F877FB8
:1042000093FF886059CF86E148168CE7580609F07D
:104210001DC380913C04282F217179F48A7A91156D
:1042200081F091E0811101C090E0909330048115FC
:1042300031F085E30E947809B4CE80E0F0CF89E2C6
:10424000F9CF80913004811521F085E30E94AC09FB
:10425000A8CE89E2FBCF8091340480FF0CC08E7F12
:104260008093340484E394E00E94FC14109232049E
:104270000E94FB15A4C981608093340461E0869597
:10428000869515D89CC9811521F052D898C98115F9
:10429000E1F344D894C9811521F064D890C98115FF
:1042A000E1F358D88CC9811521F06FD888C98115E0
:1042B000E1F360D884C9811521F07DD880C98115CA
:1042C000E1F36ED87CC9811529F00E942E1577C9BB
:1042D0008115D9F30E94241572C987E748168CE727
:1042E0005806F9F088E748168CE7580619F192014C
:1042F000205E32452032310510F5911137C0842DF2
:104300008F7101E010E002C0000F111F8A95E2F7E3
:10431000602F83E090E00E94BA2F802F0E946504F6
:104320004EC981E00E94DD0743E062E081E00E9427
:10433000210845C982E0911509F48FC2F3CF911588
:1043400009F43FC08BE548168CE7580681F18CE5EF
:1043500048168CE7580601F18AE548168CE758069E
:1043600021F181E048168CE7580649F183E04816B0
:104370008CE75806F1F041148CE7580611F50E94BD
:104380002A108FEF94E32CE0815090402040E1F719
:1043900000C000000E94FB0C80918804002482FF72
:1043A0000394802D0E94830D0AC981E0FBCF80E039
:1043B000F9CF6FEF7FEF80E090E00E94D42F0E9452
:1043C0005410F10100811181911509F447C0C80111
:1043D0000E943914F82E682FC8010E946804B801A1
:1043E0008F2D0E942D140E94FF05182FC92EF10158
:1043F000D580F680F2948FE0F82280914104877096
:1044000001F1ED2CD114F1F0892F807F803461F01F
:10441000812F805E8830A8F0892F807E803221F441
:10442000123078F0F11469F08091880482FF09C09D
:1044300082E00E940708809141048770EE24E39493
:104440008111E12CEC2DE295EF708C2D803C08F071
:104450006AC0F0E0EC53FF4C0C94EE2EC8010E94B1
:104460009D04F82EBCCF0C2D0F70803110F00295FA
:10447000007FD114B9F0011569F0812F805E88307A
:1044800010F0111109C080913C04802B80933C04F2
:104490000E94F60D812F3FC080914004802B8093B5
:1044A0004004F6CF812F0E94340F0115E1F1812FD6
:1044B000805E883010F0111104C0802F0E94F80433
:1044C00006C00095809140048023809340040E94A0
:1044D000F60D29C00C2D0F70807F803211F00295EF
:1044E000007F113040F009F475C0D11409F480C088
:1044F000F114B1F1CFCF8091880482FD2DC0D11489
:1045000069F0011539F080913C04802B80933C04C4
:104510000E94F60D80E00E946C0E05C080E00E94B3
:10452000340F0111CACFE11409F4C4C080914104D1
:1045300080FDC0C0F10115828695869586950E9402
:10454000DD07C1010E94E619809141048695869598
:1045500086950E94E607AEC0D114D1F0F11004C0D8
:10456000802F0E944A0EDFCF8F2D8130E1F680919F
:104570003D04182F80230817B1F20E94D7098093B9
:10458000440490934504812F802B80933D04CBCF2E
:10459000F110C9CF802F0E945C0E90913D04802FB6
:1045A000892369F0802F8095892380933D0490E0D2
:1045B00081110E94D709809344049093450480910F
:1045C0003E04902F982309F4AECF00950823009362
:1045D0003E04A9CF8F2DD11421F0833008F0A3CF52
:1045E000BFCF823008F09FCF802F0E945C0E9BCF00
:1045F000F114D1F3193349F48FEF97EE23E0815092
:1046000090402040E1F700C00000812F0E94340F4D
:104610008ACF869586958370813060F009F083CFCC
:10462000812F9C2D9370D11002C080E090E00E94F9
:10463000510979CF812F9C2D9370D11002C080E059
:1046400090E00E942A096FCF6D2D812F0E94890A68
:104650006ACF837009F03FC0D11028C0812F8295A6
:1046600086958770880F880F412F4F70082E01C0E4
:10467000440F0A94EAF7212F207114FF06C02FE09F
:1046800001C0220F8A95EAF720958C2D8695869594
:104690008370982F8230B9F08330D1F080913F043D
:1046A000913071F0242B82230E9465040E941B0923
:1046B0000E943F0860E0C1010E9467140C94EE1A4A
:1046C000842B822BF1CF242B80913F048227ECCFC7
:1046D000822F842BE9CFD11459F1C0FEE7CF812F6F
:1046E000829586958770880F880F412F4F70082E0E
:1046F00001C0440F0A94EAF7212F207114FF06C06D
:104700002FE001C0220F8A95EAF720958C2D86951F
:1047100086958370982F823091F08330A9F0809134
:104720008904913049F0242B82230E94D907BECFFF
:10473000823008F4BBCFD3CF842B822BF6CF242B2F
:10474000809189048227F1CF822F842BEECF8F7046
:10475000082FD11431F00E94DD07812F0E944A0EEC
:10476000A5CF812F0E945C0E802F0E94E6079ECF6E
:10477000123F81F170F4103FC9F0113F91F0D11454
:1047800009F450C0F11409F44AC0812F0E946C0E44
:104790008DCF133F29F1143F91F78091880482FD5A
:1047A0002CC08C2D8F71D11401F317C08F2DD11413
:1047B00079F0823008F07ACF8C2D8F71282F81E02C
:1047C00001C0880F2A95EAF7909189048927ADCF17
:1047D0008330F0CF8F71D110C8CF0E94DD0766CF34
:1047E00080E0D11409F4A1CF8C2D8F71982F81E036
:1047F00001C0880F9A95EAF798CFD11429F08C2D33
:104800008F710E941F0A52CF81E00E9407088F2DEE
:10481000823008F44BCF82E00E94070847CF8C2DEE
:104820008F71DBCFF11479F0193349F48FEF97EEE4
:1048300023E0815090402040E1F700C00000812F2C
:104840000E94340F33CF8C2D8F718FCF87E748169E
:104850008CE7580609F046CD81E00E94E60764CD5A
:1048600086E148168CE7580609F4D3CC80913C04C5
:104870008272F201E052F847EB30F10508F02DCDDD
:10488000E053FF4C0C94EE2E80918604803170F43E
:1048900080918504811551F0E091470420914604F0
:1048A00030918104409180042E1301C00895BF010E
:1048B00087E0E89FF0011124DF01A85BBB4F14964D
:1048C0008C911497811559F111968C91119783133E
:1048D00026C08C91841323C015968C911597811155
:1048E0001EC012968D919D91A0918204B091830477
:1048F0008A1B9B0B883C910590F4809186048F70F5
:10490000806180938604E25BFB4F80818F708061C1
:10491000808380E894E00E94E6190C94EE046F5FB7
:104920007F4FFB01E770C0CFADE0B0E0EAE9F4E211
:104930000C9419308C0186E0F801DE011896019084
:104940000D928A95E1F7F801F580848190E8892E2F
:1049500094E0992E70908404711017C0811591F025
:10496000F11409F414C1C8010E948F14811509F4CF
:104970000EC187E0F801A0E8B4E001900D928A959D
:10498000E1F782DFFF24F39456C0D080A280B38089
:10499000C09085042091820430918304A501421BBC
:1049A000530BC11409F4C3C0483C510508F079C049
:1049B000811541F3809181049180E09086049E2DC1
:1049C000903108F059C0981215C0809180048D1163
:1049D00011C0F1104BC08E2D8F70806180938604C2
:1049E00080E894E00E94E61980918604F8018683AD
:1049F000F12C21C0F1103AC040E0692D8D2D0E94AC
:104A0000CF0440E0692D8D2D0E94CF04F82E811136
:104A1000EFCF888599850E948414292F22952F70C5
:104A2000903470F49F702230A0F09115B1F0F8012D
:104A30009681903190F48F2D2D96EDE00C943530C9
:104A40002A5F2F70223068F0C8010E94E619FC2C02
:104A5000F2CF911511F0811571F3805E883058F313
:104A6000F3CF803F40F3815F8330F9CF809186049C
:104A7000816080938604BCCF98123AC080918004F4
:104A80008D1136C0F11034C0E682C8010E94E619CB
:104A900087E0F801A0E8B4E001900D928A95E1F773
:104AA00071CFE09086049E2D903150F480E894E020
:104AB0000E94E619F40187E011928A95E9F798CFF0
:104AC000811509F45FCF909181048181981310C002
:104AD000809180048D110CC0F1100AC0E682C801DB
:104AE0000E94E619F40187E011928A95E9F74ACF0E
:104AF000C8010E948F14811509F449C0F11409F40A
:104B000046C08E2D803208F434CF8091800490917D
:104B1000810489839A83AB82BC827D821E828091CC
:104B200086048F83CE0101960E94E61922CF483C6D
:104B3000510508F0BFCF811509F424CFF11439F1E4
:104B4000909181048181981318C0809180048D1107
:104B500014C08091860480FD9BCF803108F498CFEB
:104B60008683807F803F09F490CF8681982F907F45
:104B7000905F8F70892B868388CFC8010E948F1425
:104B80008111F7CE80918604816080938604C801EC
:104B90000E94E619F7CEABE1B0E0E1EDF5E20C944E
:104BA00022304E8B5F8B688F798F8A8F192F9B8F66
:104BB0009111109240041D8A86E0FE017696DE0176
:104BC0001F9601900D928A95E1F70A8D80918804D5
:104BD00082FF1FC00E94D7092091420430914304F4
:104BE000821B930B8C3D954038F08091410482FDEF
:104BF00003C082E00E9407080E94D7092091440464
:104C000030914504821B930B8C3D954010F00E941F
:104C10000005011561F00B8B1C8B61E0CE010F9636
:104C20000E94671461E0CE010F960E9467140B8BFF
:104C30001C8B87E0FE013F96DE01189601900D92D5
:104C40008A95E1F7CE0108966FDE811128C0209188
:104C500046043091470487E0AE01485F5F4FFA0198
:104C600047505109DA0101900D928A95E1F78C8540
:104C70008115A9F0822F90E08395877090E0AC01B8
:104C800034171506B1F40E942A10109246041092AF
:104C90004704E0E8F4E087E011928A95E9F7809113
:104CA000470490914604891317C06B96E4E00C9476
:104CB0003E3097E0929FD0011124A85BBB4F9E012C
:104CC0002F5F3F4FF90101900D929A95E1F74093C4
:104CD00046040E94EE04E3CF27E0829FC001112426
:104CE000885B9B4F21DE811501F3809147049091F1
:104CF00048040196877080934704D1CFA6E0B0E0C6
:104D0000E4E8F6E20C9422300E94D7098C018091ED
:104D1000AA039091AB038017910771F019821A8250
:104D20000E94D709BC0149815A8180E090E033DFBD
:104D30000093AA031093AB032696E4E00C943E3054
:104D4000A0E1B0E0E6EAF6E20C941630FE013196FE
:104D5000DF0180E11D928A95E9F706E110E099EA0A
:104D6000A92E92E0B92E612C712C230153944A187C
:104D70009E2E8F2E6201730181E148165104610459
:104D800071041CF080E1C82ED12CA601B501892D3B
:104D9000982D0E94AB2FAC0CBD1C0D2C000C0008F4
:104DA0004C185D08600870080150104019F76096B3
:104DB000E0E10C9432306FEF85E290E00E94BA2F70
:104DC0006FEF86E290E00E94BA2F6FEF87E290E0EB
:104DD0000E94BA2F60E088E290E00E94BA2F0E9401
:104DE000BE0DAEDF66E285E290E00E94BA2F61E080
:104DF00086E290E00E94BA2F68E087E290E00C948F
:104E0000BA2FCDB7DEB7A6970FB6F894DEBF0FBEA8
:104E1000CDBF85B7806885BF85B7806885BF84B7FB
:104E2000877F84BF0FB6F894A89580916000886151
:104E300080936000109260000FBE80E890E00FB693
:104E4000F89480936100909361000FBE81E080939D
:104E500029018BEE96E080936402909365020E9494
:104E6000B70C0E94680C8091E20084608093E2009D
:104E7000789480919203811599F08091E9001091C6
:104E8000EC008F7010FB112717F9182B1092E90016
:104E90008091E80083FD0E9469101F701093E90063
:104EA00082E084BD93E095BD9AEF97BD80936E003C
:104EB0000E94E514811101C07EDF49EDE42E41E03E
:104EC000F42E0EED11E0F70181917F018F3F11F07B
:104ED0000E94ED060E151F05B1F73EEDE32E31E001
:104EE000F32E0EEE11E0F70181917F018F3F11F05B
:104EF0000E94ED060E151F05B1F7E6E9F3E08AE022
:104F000011928A95E9F7E0EAF3E08AE011928A9536
:104F1000E9F740E060E080E00E947E1880E090E0E9
:104F20000E94A62F833E9E4F21F40E94E51481111A
:104F30002AC063EE7EEF80E090E00E94D42F60E014
:104F400082E090E00E94BA2F81E080933F0461E00C
:104F500083E090E00E94BA2F60E074E184E090E08A
:104F60000E94D42F0E94161526DF60E070E0AB018E
:104F70008FE090E00E94CC2F60E070E0AB0183E115
:104F800090E00E94CC2F82E090E0D3D7809373030F
:104F900084E090E0DBD780938704909388040E949C
:104FA00038158FEF96E721E0815090402040E1F7DF
:104FB00000C000000E9438158091960380FF07C052
:104FC0006FEF7FEF80E090E0EFD70E94FB0C83E073
:104FD00090E0AFD70E946504809189040E94BC07CD
:104FE000879A8F9A80916203811120C084E394E0B4
:104FF0000E94C51380913404843030F40E94161549
:1050000084E394E00E94C5130E9493071092320437
:105010000E944D088091340480FF05C060E08695B1
:1050200086950E94571981E08093620380E297E0A1
:1050300080936303909364038AE191E08093CC03AF
:105040009093CD03332433947E018FEFE81AF80A4E
:105050008091920300E110E422E1D22E853009F420
:10506000F2C00E94381584E793E089A39AA386E9E9
:1050700093E08BA39CA3FC01A4E7B3E02D913D91A9
:105080008081918143E0AE37B40709F4F1C03296D4
:105090002817390799F309E613E0212CEBA1FCA1AD
:1050A000A190B190EBA3FCA3E9A1FAA18191919108
:1050B000E9A3FAA38A159B0509F44DC08A259B250F
:1050C0008DA39EA3C12CD12C460183948DA19EA1BA
:1050D00088219921892B89F135016820792081E087
:1050E000482E512C0C2C02C0440C551C0A94E2F79B
:1050F000F8018081918184219521892B99F4C982BD
:105100002A820E94D7098B839C833D8291E061149F
:10511000710409F490E09E8349815A816B817C81FE
:105120008D8139DD672849F440945094F8018081DD
:1051300091818421952180839183880C991C8FEF24
:10514000C81AD80A80E1C816D10409F0BFCFE9A176
:10515000FAA1B292A29223940E5F1F4F822D853046
:1051600009F09CCF0E94400B88C08091920384304C
:1051700009F439C080E00E943F0810923204809107
:10518000670381110DC03092670380913404982F1A
:105190009170909366038E7F809334040E94FB1578
:1051A0001092650388E190E00FB6F894A89580937B
:1051B00060000FBE1093600083B7817F846083BF5F
:1051C00083B7816083BF7894889583B78E7F83BFD0
:1051D0000FB6F894A8958091600088618093600074
:1051E000109260000FBE0E943815E6E9F3E0A9E6D0
:1051F000B3E080E0219131912D933D9391E0232BF9
:1052000009F490E0892B20EA33E02E173F0791F74D
:105210008115C9F0809168038115A9F009BDD9BC39
:1052200009B400FEFDCF8091D8008F7D8093D80017
:105230008091E00082608093E0008091E00081FD39
:10524000FCCF0E942A1080919203853009F48DCF03
:105250000E942A100E941B090E943F0810926703B7
:105260008091660381110E94A1190E94E415F9CE74
:105270002817390709F00FCF41DD00912304109161
:10528000240401151105A1F18090820390908303FD
:10529000A0908403B09085030E94400BDC01CB01F9
:1052A00088199909AA09BB0940917E0350917F038F
:1052B000609180037091810384179507A607B70753
:1052C000B8F0C8010E940B0F10922304109224041E
:1052D000109282031092830310928403109285032C
:1052E00010927E0310927F0310928003109281032C
:1052F000C0902B04D0902C04C114D10439F100913A
:105300002D0410912E040E94D709801B910B893C1B
:105310009105E0F08C2D90E000E010E0853040F445
:105320002AE0289F8001299F100D1124055D1E4F42
:1053300060E08C2D0E94CD08009741F0FC01258192
:1053400022FD04C0BC01C8010E9496138091320462
:10535000811509F444C080913104E0913404E6954C
:10536000E695E81BE0938903853109F4ADC108F0A7
:1053700058C1893009F49CC108F044C1823009F455
:1053800081C1863009F489C100ED17E0A3E0CA2E7F
:10539000A7E0DA2E80918A03811561F010928A03CA
:1053A0000E94D709809387039093880310928B0300
:1053B00010928C030E94D7092091870330918803B3
:1053C000821B930B8F3F9F4750F4200F311F209378
:1053D00087033093880387E893E0F601099580916D
:1053E0008603811569F01092860380913204811141
:1053F00007C08091340460E0869586950E94571915
:1054000086E0E7EFF3E0D70101900D928A95E1F78E
:105410009090F803B090F9031091FA03A090FB0369
:105420000091FC031092F9031092FA031092FB030F
:105430001092FC03812F8B2909F441C0C0908F0387
:10544000D09090030E94D7098C199D099C019091DE
:10545000F503911509F401C32531310580F19F3F12
:1054600019F09F5F9093F503B11459F00E948808DA
:1054700091E01B140CF09FEF899F802D11248093E5
:10548000F903111559F00E94880891E011160CF0EB
:105490009FEF899F802D11248093FA038091F90357
:1054A000811569F0D090FA03D11449F00E947A086E
:1054B0008093F9038D2D0E947A088093FA038A2D38
:1054C000802B09F441C0C0908D03D0908E030E94C0
:1054D000D7098C199D099C019091F403911509F449
:1054E000B7C22135310580F19F3F19F09F5F90933E
:1054F000F403A11459F00E94A80891E01A140CF0CA
:105500009FEF899F802D11248093FB03011559F093
:105510000E94A80891E010160CF09FEF899F802D43
:1055200011248093FC038091FB03811569F0D090D6
:10553000FC03D11449F00E947A088093FB038D2D5F
:105540000E947A088093FC038091F803891119C0A6
:105550008091F903811511F08B1113C02091FA038A
:10556000211511F021130DC09091FC03911511F03C
:10557000901307C03091FB03311103C0822B892B9C
:1055800011F00E94610A86E0F701A7EFB3E00190F5
:105590000D928A95E1F70E941B09182F80919103C3
:1055A000181739F0109391030E94400B812F0E942D
:1055B0003F0880919203843009F04ACD83E08093C4
:1055C000E9008091E80082FF43CD8091E80090E0FF
:1055D00085FF06C00E94370C811509F480C091E058
:1055E0008091E8008B778093E800911509F430CD25
:1055F0008981E82FE150E33108F09BC0F0E0E552EB
:10560000FF4CECC38F3009F0BFCEE695F0E0EE5CC6
:10561000F84FE4910E2F10E067E2C62E67E1D62E18
:10562000B9CE04EF11E028E4C22E28E1D22E843254
:1056300009F4B0CEA8F408E210E094EDC92E97E189
:10564000D92E883109F4A6CE833209F09DCEEDE241
:10565000F7E0059115914CE9C42E48E1D42E9ACE7D
:10566000853209F091CE8E2F63E078D3E92FF0E0F8
:10567000E65DF84FE4910E2F10E03AE6C32E36E1D6
:10568000D32E88CEF0E0E55CF84FE4910E2F10E0C9
:10569000F8ECCF2EF8E1DF2E7DCEF0E0E85CF84F9D
:1056A000E4910E2F10E0EBEDCE2EE8E1DE2E72CE6F
:1056B000E695F0E0EB5CF84FE4910E2F10E07DEF03
:1056C000C72E76E1D72E66CEF0E0E15DF84FE4918B
:1056D0000E2F10E056E8C52E57E1D52E5BCE80E2A6
:1056E000C82ED12C87018091E80085FD0AC08091E9
:1056F000E8008B778093E8000E94370C811599F3BE
:105700006ECF8091F100F801808381E0C81AD10842
:1057100009F465CF0F5F1F4FE6CF1A828CE08B83B1
:1057200019C08A81833079F138F4813021F18230D7
:1057300051F08FEF89830EC08430D9F71B821C8211
:105740001D821E8207C088E290E0F3D31B821C8278
:105750001D828E83E091CC03F091CD03309709F444
:1057600077CC0284F385E02D309709F471CC60E2A8
:10577000C70109956DCC0E94400B36D36B837C83A7
:105780008D839E83E7CF8B8190E0F7018530910573
:105790000CF73296118212820196F8CF8A818230FC
:1057A00081F0853031F68091340480FF13C0809100
:1057B00034048E7F80933404109232040E94FB15CF
:1057C000C9CF6B817C818D819E810ED388E290E070
:1057D000D1D3C0CF0E94A119BDCF4C816B818A81EA
:1057E0000E9404149827892798278D839E83B2CF1F
:1057F0002D813E813227232732274C816B818A817C
:105800000E94990DA7CF0E94BE0DA4CF9A8192301D
:1058100009F08FCF8830A9F1893009F45DC08B8100
:10582000833059F180F48130B9F0823009F092CFA1
:105830008C81811509F4BBCF0E94A11960E08C8195
:105840000E94571987CF843009F084CF20E040911F
:1058500037046D818C810EC08C8128EC829FC00141
:1058600011246FEF70E093D2462F20E06091360450
:10587000809135040E94EA186DCF8C8180933804A2
:1058800069CF8B81833029F168F48130A9F08230AF
:1058900009F060CF8091340480FF19C08695869509
:1058A0008C8358CF843009F055CF809135048C8398
:1058B000809136048D834ECF809137042FEF829FE5
:1058C000C001112468EC70E062D26C8343CF80E0A9
:1058D000E7CF80913804E4CF0E94930784E394E0FB
:1058E0000E94FC1437CF80E18A8334CF81E08A8321
:1058F00087E515CF8A809B80982489249824A12C41
:10590000B12C67018C818701080F111DC016D106CB
:1059100009F420CF87E5881681E09806A104B10438
:1059200078F4C40187559D4F04D3F60184838FEF2B
:10593000C81AD80A8FEF881A980AA80AB80AE6CFB8
:1059400080E0F3CFDC808A809B809824892498248F
:10595000A12CB12C8701250132014D1451046104A1
:10596000710408F0F7CE87E5881681E09806A10457
:10597000B10430F4F8016481C40187559D4FFAD217
:105980008FEF481A580A680A780A8FEF881A980A1F
:10599000A80AB80A0F5F1F4FE0CFD2D9DBCE84E050
:1059A000A3CFDC808A809B80982489249824A12C12
:1059B000B12C250132018E010B5F1F4F4D14510494
:1059C0006104710408F0C6CE80E8881682E098066B
:1059D000A104B10488F4C4018996ABD2F801819383
:1059E0008F018FEF481A580A680A780A8FEF881AD1
:1059F000980AA80AB80AE2CF80E0F0CFDC808A805B
:105A00009B80982489249824A12CB12C87012501FE
:105A100032014D1451046104710408F09BCE80E8FA
:105A2000881682E09806A104B10428F4F801648184
:105A3000C40189969FD28FEF481A580A680A780ADB
:105A40008FEF881A980AA80AB80A0F5F1F4FE1CF94
:105A50002B30310508F04ACD77CD2B30310508F0D9
:105A600000CD2DCD1F921FB61F9211248F939F93AF
:105A7000AF93BF9380916503811113C08091A10200
:105A80009091A202A091A302B091A4024196A11DFF
:105A9000B11D8093A1029093A202A093A302B093A0
:105AA000A402BF91AF919F918F911F901FBE1F9035
:105AB000189578941F921FB61F9211248F939F936D
:105AC000AF93BF938091A1029091A202A091A302F3
:105AD000B091A4020196A11DB11D8093A1029093E3
