:100000000C94C2020C94FA020C94FA020C94FA02B8
:100010000C94FA020C94FA020C94FA020C94FA0270
:100020000C94FA020C94FA020C9452250C94262695
:100030000C9423200C94FA020C94FA020C94FA0209
:100040000C94FA020C94FA020C94FA020C94FA0240
:100050000C94FA020C94AA200C94FA020C94FA0262
:100060000C94FA020C94FA020C94FA020C94FA0220
:100070000C94FA020C94FA020C94FA020C94FA0210
:100080000C94FA020C94FA020C94FA020C94FA0200
:100090000C94FA020C94FA020C94FA020C94FA02F0
:1000A0000C94FA020C94FA020C94FA0229001E0035
:1000B0001F0020002100220023002400250026002C
:1000C00027002D002E002A0049004B002B001400B1
:1000D0001A000800150017001C0018000C00120080
:1000E00013002F00300031004C004E003900040096
:1000F0001600070009000A000B000D000E000F009B
:100100003300340028002A0000000000E100E10074
:100110001D001B000600190005001100100036002C
:1001200037003800E500E50052000000E000E30081
:10013000E20000002C0000002C0000002C00000059
:10014000E6000151E400500051004F0035003A0034
:100150003B003C003D003E003F00400041004200AB
:1001600043004400450001000100005C0100C35C45
:10017000C45CC65CC75CC85CC95CCA5CCB5C010083
:100180000100010001000100010001000100010067
:100190000100010001000100010001000100010057
:1001A0000100010001000100000000000100010049
:1001B0000100010001000100010001000100010037
:1001C0000100010001000100010000000100010028
:1001D000010000000100000001000000010000001B
:1001E00001000100010001000100010000047F3F47
:1001F0001F643214643214783C1E1E140A05222334
:10020000252628292A2C2D2F3032333536383A3BF3
:100210003D3E4042434547494A4C4E505153555745
:10022000595A5C5E6062646668696B6D6F71737564
:1002300077797B7D7F81838587898A8C8E90929464
:1002400096989A9C9E9FA1A3A5A7A8AAACAEAFB171
:10025000B3B4B6B8B9BBBCBEBFC1C2C3C5C6C7C9BB
:10026000CACBCCCDCED0D1D2D2D3D4D5D6D7D7D875
:10027000D9D9DADADBDBDBDCDCDCDCDCDDDDDDDDC7
:10028000DCDCDCDCDCDBDBDBDADAD9D9D8D7D7D6CF
:10029000D5D4D3D2D2D1D0CECDCCCBCAC9C7C6C586
:1002A000C3C2C1BFBEBCBBB9B8B6B4B3B1AFAEACCC
:1002B000AAA8A7A5A3A19F9E9C9A98969492908E77
:1002C0008C8A89878583817F7D7B79777573716F50
:1002D0006D6B6968666462605E5C5A59575553512C
:1002E000504E4C4A4947454342403E3D3B3A3836E2
:1002F000353332302F2D2C2A292826252322FFAAF8
:100300007F554000010101010101010101020202CA
:1003100002020202020203030303030303030404B1
:10032000040404040405050505050606060606077B
:100330000707070708080808090909090A0A0A0B34
:100340000B0B0C0C0C0D0D0D0E0E0E0F0F0F1010D5
:10035000111111121213131414151516161717185C
:100360001819191A1A1B1B1C1D1D1E1E1F202021C7
:100370002222232424252626272829292A2B2C2D0E
:100380002D2E2F30313232333435363738393A3B2F
:100390003C3D3E3F404142434445464748494A4C24
:1003A0004D4E4F50515354555658595A5B5D5E5FF0
:1003B000616264656668696B6C6D6F707273757786
:1003C000787A7B7D7E8082838587888A8C8E8F91E8
:1003D000939596989A9C9EA0A2A3A5A7A9ABADAF12
:1003E000B1B3B5B7BABCBEC0C2C4C6C9CBCDCFD1FC
:1003F000D4D6D8DBDDDFE2E4E7E9EBEEF0F3F5F8A5
:10040000FAFDFF1C0369006B006B006900360038C1
:100410000020004100750072006F00720061000052
:10042000001A0377007500710075006500200073E5
:100430000074007500640069006F00000004030987
:100440000409023B00020100A0FA090400000103B4
:10045000010100092111010001224000070581036B
:100460000800010904010001030000000921110135
:10047000000122B6000705820320000112010002DC
:10048000000000086B70110001000102000105016D
:100490000902A10185020901A10005091901290824
:1004A0001500250195087501810205010930093102
:1004B0001581257F95027508810609381581257FEC
:1004C000950175088106050C0A38021581257F956E
:1004D0000175088106C0C005010980A101850319C5
:1004E000012AB700150126B700950175108100C0DB
:1004F000050C0901A101850419012AA00215012694
:10050000A002950175108100C005010906A10185B1
:1005100006050719E029E7150025019508750181F1
:10052000020507190029EF1500250195F0750181D5
:1005300002050819012905950575019102950175B6
:10054000039101C005010906A101050719E029E78A
:100550001500250195087501810295017508810135
:100560000507190029FF150026FF0095067508816B
:100570000005081901290595057501910295017578
:10058000039101C011241FBECFEFDAE0DEBFCDBF63
:1005900004B603FE18C080914A0390914B03A091CA
:1005A0004C03B0914D038730904BA740B04B59F4AA
:1005B00010924A0310924B0310924C0310924D0379
:1005C000E0E0F8E3099511E0A0E0B1E0E2E3F2E554
:1005D00002C005900D92A63CB107D9F723E0A6EC26
:1005E000B1E001C01D92AA34B207E1F70E94B51232
:1005F0000C9401290C94000081E0089581E0089595
:100600000E94FE02089508950E9403030895A5E044
:10061000B0E0EDE0F3E00C946B2849835A8330910D
:10062000C90189819A81311119C0662399F0222369
:1006300089F00E949809182F682F89819A810E9459
:10064000750969817A81812F0E9423102596E3E044
:100650000C9487280E948609182FF3CF0E949809CE
:1006600069817A81F1CFFC01262F4081518162811D
:10067000738184810E940703089581E00895CF93D8
:10068000DF93EC0160E00E943303BE010E9404038B
:10069000DF91CF9108950E94601108950E94641126
:1006A000089508950E94C4070E9451032FEF84E328
:1006B0009CE0215080409040E1F700C00000089588
:1006C0000E9452030E94CE2008950E9452030E946D
:1006D000F22008950F931F93CF93DF938C0161E075
:1006E0000E943303EC01B8010E940003811106C08F
:1006F00080E0DF91CF911F910F910895B801CE0155
:100700000E94541E8823A1F3B801CE010E94891CC7
:10071000882371F3B801CE010E94C61D882341F3DE
:10072000B801CE010E94951B882311F3F801828144
:10073000882361F0CB35FDE5DF0701F158F4C115E1
:10074000ECE5DE0791F0CF3DDC4591F0C8010E9459
:10075000FC02CFCFCD358DE5D80769F090F0C83ACF
:10076000DD45A1F70E946503C3CF0E946003C0CF9F
:100770000E945E0EF7CF0E94980DE8CF0E94A20D56
:10078000E5CF0E94A60DE2CF0E94FF1F0E94F10359
:100790000E940B1A08950E94F5030E94E21A0E941B
:1007A0000420089508950E94D203089581E00895D9
:1007B000CF93C82F0E94D603882319F0C1FD03C030
:1007C0008F9ACF9108958F98FCCF879A8F9A08952A
:1007D000CF93C82F0E94D3038C2F0E94D803CF91B0
:1007E000089580E00E94E80308950E94B01E0E94D0
:1007F000E80308950E94B01E9091C801981721F057
:100800008093C8010E94E8030895ABE0B0E0EBE0FC
:10081000F4E00C946C284F83588769877A878B871C
:1008200061110E94E30C1E821D8285E0FE01379655
:10083000DE01119601900D928A95E1F78C819D81E0
:10084000892B61F449815A816B817C818D819E81E4
:100850000E940C0C2B96E2E00C94882889819A81E6
:1008600089238F3F79F3CE0101960E943D038111C8
:10087000E9CFF0CFFC01808191810E94D2090895D7
:10088000CF93C82F8823C9F08238C9F40E94B01EC4
:1008900081FD13C089E30E949B0C0E94040D2FEF81
:1008A00081EE94E0215080409040E1F700C00000CC
:1008B00089E30E94A30C0E94040DCF910895833810
:1008C000A1F40E94B01E80FDF8CF83E50E949B0C2E
:1008D0000E94040D2FEF81EE94E021508040904063
:1008E000E1F700C0000083E5E4CF8438A1F40E9462
:1008F000B01E82FDE2CF87E40E949B0C0E94040D93
:100900002FEF81EE94E0215080409040E1F700C04D
:10091000000087E4CECF8CEF8C0F813A90F46C2FDF
:1009200080910001909101010E94251F882329F0E8
:100930008C2F0E94A30C0E94040D8C2F0E949B0CF4
:10094000BACF80E28C0F883048F4C77081E001C0D4
:10095000880FCA95EAF70E94C60CADCFEBE5EC0F05
:10096000E33040F4F0E0E85AFE4F808190E00E94CE
:10097000E51EA3CFE8E5EC0FE73150F4F0E0EE0F11
:10098000FF1FE65DFE4F808191810E94FB1E95CF87
:10099000CD3E08F492CF8C2F0E9439130E940C1484
:1009A0008CCF882309F455C0823879F40E94B01E98
:1009B00081FF4FC089E30E949B0C0E94040D89E3D4
:1009C0000E94A30C0E94040D0895833859F40E94DC
:1009D000B01E80FF3EC083E50E949B0C0E94040D68
:1009E00083E5EECF843859F40E94B01E82FF31C0F7
:1009F00087E40E949B0C0E94040D87E4E1CF9CEFEA
:100A0000980F913AE8F290E2980F983050F487707E
:100A100091E001C0990F8A95EAF7892F0E94CC0CCA
:100A2000D1CF9BE5980F933028F490E080E00E94AE
:100A3000E51E089598E5980F973128F490E080E03E
:100A40000E94FB1E08958D3E20F00E9493130E9489
:100A50000C1408951F93CF93DF93182FEB010E947E
:100A60004004209739F4812F0E94D104DF91CF9167
:100A70001F9108958FE99FE00197F1F700C00000F2
:100A80002197EFCF70E060E0893311F460E570E00A
:100A90000E942A050895882321F00E94C60C0E9416
:100AA000040D0895882321F00E94CC0C0E94040DAF
:100AB0000895B0E0A0E0EFE5F5E00C9465286C0146
:100AC000D62FC72FFC011281F580F2949FE0F92206
:100AD0000E94BC0CE82E8823B9F0E12E1123A1F06E
:100AE0008C2F807F803421F080E28D0F8830D0F011
:100AF0008091E30282FF16C082E00E94670D0E948F
:100B0000BC0C91E0E82EE926BC2EB2948FE0B8220E
:100B1000FBE0FB1508F468C0EB2DF0E0ED5FF64D4F
:100B20000C942528E12CF0CF0C2F0F70C07F11F012
:100B30000295007F112399F0002359F080E28D0F78
:100B4000883010F0D11107C0802F0E94C60C0E947F
:100B5000040D8D2F41C0802F0E94D60CF8CF8D2F11
:100B60000E94D104002309F43FC080E28D0F883039
:100B700010F0D11104C0802F0E94CC0C03C0802F34
:100B80000E94DC0C0E94040D2FC00C2F0F70C07F40
:100B9000C03211F00295007FDD2381F0D13009F4DD
:100BA00063C0112309F46DC0FF2009F463C0F6018E
:100BB000858180FFCECF8F7085835CC08091E302FA
:100BC00082FD33C0112359F0002329F0802F0E94A9
:100BD000C60C0E94040D80E00E94400405C080E025
:100BE0000E94D1040111C7CFEB2DE850FF0B3497C1
:100BF00020F40E94B01E0E94E803EE2089F00E94BB
:100C0000B80C80FD0DC0F60112820E94B20C0E9449
:100C10007D08C6010E9484070E94B20C0E949F08B2
:100C2000CDB7DEB7E9E00C948128112389F0F110EB
:100C300006C00E94E60C802B0E944B05D5CF21E018
:100C4000F212F7CF0E94E60C802B0E94ED0CCCCF65
:100C5000F11006C00E94FA0C802F0E945205C4CFEA
:100C600031E0F31609F2F6CF112331F085E08F154C
:100C700008F4BACF802FE0CF94E09F1508F4B4CFEA
:100C8000EBCFFF2049F3D93349F4FFEF27EE33E0F0
:100C9000F15020403040E1F700C000008D2F0E944D
:100CA000D104A2CF8C2F86958695837069F0813010
:100CB00009F09ACF8D2F9C2F9370111102C090E0F4
:100CC00080E00E94FB1E90CF8D2F9C2F93701111FE
:100CD00002C090E080E00E94E51E86CF8D2F112398
:100CE00029F00E9439130E940C147ECF0E949313A6
:100CF000FACF8C2F837009F041C0111175CF4D2FA1
:100D0000429546954770440F440F0D2F0F7010E029
:100D100030E020E0042E04C0000F111F221F331FFB
:100D20000A94D2F760E070E0CB01D4FF0FC06FE00F
:100D300070E080E090E004C0660F771F881F991F65
:100D40004A95D2F76095709580959095C695C69511
:100D5000C370602B712B822B932BC23049F058F457
:100D6000C13019F00E9428083FCF0E9415083CCFDF
:100D70000E943B0839CF0E94120836CF8695112376
:100D800011F08C2F8170882309F42ECF4D2F4295BE
:100D900046954770440F440F0D2F0F7010E030E060
:100DA00020E0042E04C0000F111F221F331F0A94DD
:100DB000D2F760E070E0CB01D4FF0FC06FE070E0CD
:100DC00080E090E004C0660F771F881F991F4A9546
:100DD000D2F76095709580959095C695C695C3702D
:100DE000602B712B822B932BC23049F058F4C13009
:100DF00019F00E94F808F8CE0E94E508F5CE0E948E
:100E00000B09F2CE0E945408EFCECF70112329F0C7
:100E10008C2F0E947D088D2F0FCF8D2F0E945205A1
:100E20008C2F0E949F08E0CED23F51F160F4D03F5A
:100E3000B9F0D13F81F0112309F449C0F11089CEF6
:100E40008C2F8F7121C0D33F11F1D43FA1F7809136
:100E5000E30282FD26C08C2F8F71112311F314C081
:100E6000112349F084E08F1508F4BECE8C2F8F71CA
:100E70000E94C308B9CE95E09F1508F4B5CEF6CF11
:100E80008C2F8F711111CDCF0E947D08ADCE112313
:100E900029F08C2F8F710E946708A6CE0E946108EE
:100EA000A3CE112349F0CF718C2F0E947D0863E0FF
:100EB0008C2F0E94490D98CE81E00E94670DE1E0E1
:100EC000EF1508F091CE82E00E94670D8DCEF110F3
:100ED000DACE8C2F8F71A5CF0F931F93CF93DF9313
:100EE000EC01688179818A810E94DD098C010E9470
:100EF0001E090E941108B801CE010E945905DF9118
:100F0000CF911F910F910895CF93DF93EC018B81C7
:100F10009C81892B29F08881998189238F3F51F405
:100F2000DF91CF910895CE010E946C07CE010E94FF
:100F30003F03F6CFCE010E946A038111F4CF0E94D5
:100F4000BC0C882369F38A81882351F38091E302E2
:100F500082FFE6CF82E00E94670DE2CF90E080E062
:100F60000E94E51E90E080E00E94FB1E0E94E30CC0
:100F70000E94040D0E9428140E940C1408950E94DF
:100F8000AB0C0E94AE0708950E94D30C0E94BF07CD
:100F9000089592959F70963091F058F4925F9F70EB
:100FA000923058F4803F19F030F4883E30F481E0FC
:100FB00008959A5FF4CF843FD1F380E00895883E8E
:100FC000B0F3813FD1F7F3CFFC01808191810E9482
:100FD000D2090E94C9070895A5E0B0E0E2EFF7E06A
:100FE0000C946C282596E2E00C948828A6E0B0E0EA
:100FF000ECEFF7E00C946C282696E2E00C9488283D
:1010000008950E94000808950E940108609300025C
:101010007093010280930202909303020E94AE0734
:10102000089508950E94040808950F931F93009156
:101030000002109101022091020230910302602B04
:10104000712B822B932B0E9404081F910F910895FE
:101050000F931F9300910002109101022091020250
:101060003091030260237123822393230E9404089A
:101070001F910F9108950F931F93009100021091FB
:10108000010220910202309103026027712782271A
:1010900093270E9404081F910F9108950E94000851
:1010A00008950E944E0808950E9451086093FC0123
:1010B0007093FD018093FE019093FF010E94AE07A3
:1010C000089560E070E0CB010E94540808950F93EA
:1010D0001F9341E050E060E070E08A019B0104C092
:1010E000000F111F221F331F8A95D2F7C901B801C3
:1010F0000E9454081F910F9108950F931F9341E090
:1011000050E060E070E004C0440F551F661F771F79
:101110008A95D2F78091FC019091FD01A091FE018A
:10112000B091FF018A019B01082B192B2A2B3B2B25
:10113000C901B8010E9454081F910F9108950F939F
:101140001F9341E050E060E070E004C0440F551F81
:10115000661F771F8A95D2F7CB01BA01609570950B
:10116000809590950091FC011091FD012091FE0168
:101170003091FF0160237123822393230E9454083E
:101180001F910F9108950F931F9341E050E060E08D
:1011900070E004C0440F551F661F771F8A95D2F771
:1011A0008091FC019091FD01A091FE01B091FF01A1
:1011B0008A019B01082719272A273B27C901B80163
:1011C0000E9454081F910F9108950F931F9300914F
:1011D000FC011091FD012091FE013091FF01602B77
:1011E000712B822B932B0E9454081F910F9108950D
:1011F0000F931F930091FC011091FD012091FE01BE
:101200003091FF0160237123822393230E945408AD
:101210001F910F9108950F931F930091FC0110915E
:10122000FD012091FE013091FF0160277127822787
:1012300093270E9454081F910F9108950895262F17
:10124000277091E001C0990F2A95EAF723E076957F
:1012500067952A95E1F725E0269FF001279FF00D7D
:101260001124E40FF51F50E040E0682F70E08191F9
:10127000DF0111979B01042E02C0369527950A9431
:10128000E2F7217021952827292328272C934F5FE7
:101290005F4F4530510559F70895A82FA77023E0F7
:1012A000969587952A95E1F725E0289FF001299FDB
:1012B000F00D1124E60FF71F50E040E080E021918F
:1012C00030E00A2E02C0369527950A94E2F7217085
:1012D0003327042E01C0220F0A94EAF7822B4F5FB6
:1012E0005F4F4530510559F70895262F953068F422
:1012F000803158F430E1939FB0011124680F711DC3
:101300004AEC51E0822F0E941F090895953070F435
:10131000803160F440E1949F900111246AEC71E007
:10132000820F932F911D0E944D09089580E008952A
:10133000B0E0A0E0EEE9F9E00C9465288C01C090E3
:10134000FC01D090FD01E090FE01F090FF01809142
:10135000000290910102A0910202B0910302C82AFA
:10136000D92AEA2AFB2ACFE1D0E0BC2ED701C60158
:101370000C2E04C0B695A795979587950A94D2F739
:1013800080FD09C0219788F7B12C8B2DCDB7DEB732
:10139000E9E00C948128B8018C2F0E943F1001973E
:1013A00089F3F3CFCF93DF93EC010E949809BE013C
:1013B0000E943F10DF91CF9108951F93CF93DF9349
:1013C000EB019091C901992339F0CB010E94D20918
:1013D000DF91CF911F910895882369F0CB010E947E
:1013E0009809182F682FCE010E947509BE01812F20
:1013F0000E943F10EDCFCB010E948609182FF6CF37
:101400001F93CF93DF93C091040216E080910502F1
:101410008C1304C0DF91CF911F910895D0E01C9FE1
:10142000F0011D9FF00D1124EA5FFD4F40815181B5
:1014300062817381848195810E94F6072196C7702D
:10144000E5CF409136025091370260913802709199
:10145000390280913A0290913B020E94F60708956A
:101460001F93CF93DF9380913B02807F09F049C0A7
:1014700080913802882309F444C080910402C0910D
:1014800005026091360270913702A0913902B09145
:101490003A02D62FD72316E0C81799F190E010979B
:1014A00011F0DF3F19F401968770F6CF189F900175
:1014B000199F300D1124F901EA5FFD4F4181471357
:1014C000F2CF40814613EFCF42814111ECCF4381EF
:1014D00054814A1B5B0B483C510528F780913B0225
:1014E0008F70806180933B02F901E55FFD4F808141
:1014F0008F708061808386E392E00E9484070E945F
:10150000000ADF91CF911F910895A1E1B0E0EBE8CF
:10151000FAE00C9464288C0185E0F801DE011D9648
:1015200001900D928A95E1F7F801E28086E3C82EDA
:1015300082E0D82E6091390270913A0261157105EE
:1015400009F44EC19091360220913702892F8223EF
:101550008F3F09F445C140815181A380B480F09050
:101560003802F501E61BF70BFF2009F4EAC0809171
:101570003B02382F307FE83CF10508F0A3C0311161
:101580006DC0FE2C251316C0941314C0E11012C0B8
:101590008F70806180933B020E94210AC6010E94E5
:1015A000840780913B02F80185838F2D6196EAE0E4
:1015B0000C948028A114B10429F0842F85238F3F37
:1015C00009F027C180E0F82FF170DF2E80FF3CC0CA
:1015D000809104022091050236E0821315C04D87E8
:1015E0005E878D859E850E94D209292F22952F70B6
:1015F0002230F0F0243018F59F70F1F0F801958159
:10160000907FD1F4D12C1EC090E0389FF001399F1B
:10161000F00D1124EA5FFD4F6181651306C0608102
:10162000641303C06281E6120FC001968770D5CFA4
:101630009F7011F0882331F3805E883018F3C80161
:101640000E948407FD2CB1CFEE2009F4AECF80912B
:101650003B02816080933B02F12CA7CF251306C08B
:10166000941304C0F801EE2009F487C0C8010E9459
:10167000E407882319F1EE2009F180913B028032C2
:1016800070F0209136023091370238872F83198607
:10169000BB86AA868C87CE0107960E94840786E0C7
:1016A000F801A6E3B2E001900D928A95E1F70E945D
:1016B000300A0E94210AFF24F39477CFC8010E94C8
:1016C0008407F9CF311113C07A2DB98AA88A6E2DFB
:1016D00089890E94EC0786E392E00E94840786E0F5
:1016E000F60111928A95E9F70E94210AB5CF2513D8
:1016F0000FC094130DC0E1100BC0F8018583C80121
:101700000E94840786E0F60111928A95E9F74DCF91
:10171000C8010E94E407882389F2EE2079F28091C3
:101720003B02803208F4BBCF209136023091370261
:101730003A8329831B82BD82AC828E83CE010196BF
:10174000ACCFE83CF10508F03EC0FE2CEE2009F4D9
:10175000B5CF25132AC0941328C080913B0280FD89
:101760001BC0982F907FC1F0F8018583903F31F026
:10177000982F907F905F8F70892B8583C8010E947E
:10178000840786E0F801A6E3B2E001900D928A9505
:10179000E1F70E94210A09CF86E0F801A6E3B2E052
:1017A00001900D928A95E1F700CFC8010E94E407ED
:1017B000811175CF80913B02816080933B02C8010B
:1017C0000E948407F2CE7A2DB98AA88A6E2D898963
:1017D0000E94EC0786E0F60111928A95E9F7D9CFCD
:1017E000EE2009F46BCFC8010E94E407F82E88238D
:1017F00009F464CF86E0F801A6E3B2E001900D920F
:101800008A95E1F786E392E00E943A040E94300A4A
:10181000C0CF81E08E25D7CEACE0B0E0E2E1FCE0C5
:101820000C946B284F83588769877A878B879C87AE
:10183000CE0107960E94850A882369F08A859B85D8
:10184000892B39F04F815885842F85238F3F09F0EC
:101850006BC016E05FC086E0FE013796DE01119690
:1018600001900D928A95E1F78A859B85892B89F3F2
:101870008F81988589238F3F61F32091050230E0A5
:10188000C9010196877099274091040248171906EB
:1018900071F40E94C407109205021092040286E0BF
:1018A000E6E3F2E0DF011D928A95E9F7D2CF96E0F8
:1018B000929FD001939FB00D1124AA5FBD4FFE01EE
:1018C000319601900D929A95E1F7809305020E945E
:1018D000000ABFCF819FC00111248A5F9D4F0E94E3
:1018E000850A8823E9F0E09104021E9FF00111248B
:1018F000EA5FFD4F408151816281738184819581CE
:101900000E94F6078091040290E001968770992763
:101910008093040280910402909105028913DACF2A
:101920002C96E3E00C94872869857A858B859C85C5
:101930000E94F6078ECF682F8091000190910101DF
:101940000E94A51F0895682F8091000190910101C8
:101950000E94B31F089580910001909101010E949F
:10196000C11F089580915C028595859585950895A0
:1019700080915C028770089590915C02977081E07D
:1019800009F480E0089580917F02089590917F028C
:10199000892B80937F020895809590917F029823F0
:1019A00090937F02089510927F02089590917E0295
:1019B000892B80937E020895809590917E029823D2
:1019C00090937E02089510927E02089580915D02A8
:1019D000089508950E94E90C08959091E30292FF02
:1019E00008C090915D02981721F080935D020E94DB
:1019F000EA0C089580915D02882329F010925D021F
:101A000080E00E94EA0C0895CF93DF93E0910001FB
:101A1000F091010180917F028083E0910001F091BB
:101A20000101808190917E02892B808390915D02DB
:101A3000992381F0E0910001F09101018081892BCF
:101A4000808380910001909101010E94111F8111FA
:101A50000E94FA0CC0910001D091010140E250E0D7
:101A60006CE372E0CE010E94AC28892B59F080E231
:101A7000FE01ACE3B2E001900D928A95E1F7CE0150
:101A80000E94BD1EDF91CF91089508950E94450DDB
:101A900008959091E30292FF11C098E0899F900110
:101AA0001124622B60935C020E947D0880915C028D
:101AB0008595859585950E94460D08950E947D081F
:101AC000089510925C0280E00E94460D0895909166
:101AD0005C028095892380935C02282F277091F403
:101AE000282F082E000C330B9217130659F09091F3
:101AF000E30292FF07C08595859585950E949F0812
:101B00000E94610D08959091E30292FB222720F933
:101B1000281769F080FB92F99093E3028091E2022A
:101B20009091E3020E94D40D82E00E94670D089517
:101B30008091E30282FB882780F991E089270E9447
:101B4000830D089581E00E94830D089580E00E9436
:101B5000830D08956FEF7FEF90E080E00E94EB2807
:101B6000089590E080E00E94C72821E0883E9E4FC3
:101B700009F020E0822F089582E090E00E94B928C9
:101B8000089583E090E00E94B9280895CF9384E0FF
:101B900090E00E94B928C82F82E290E00E94B92804
:101BA000982F8C2FCF910895CF93C92F682F84E061
:101BB00090E00E94CD286C2F82E290E00E94CD2818
:101BC000CF910895AB01BC018FE090E00E94DF2827
:101BD0000895AB01BC0183E190E00E94DF280895E5
:101BE00060E070E0CB010E94E90D089560E070E0D4
:101BF000CB010E94E20D0E94F00D089568EE7EEF89
:101C000090E080E00E94EB2860E082E090E00E949B
:101C1000CD2860E083E090E00E94CD281092000281
:101C200010920102109202021092030260E084E01E
:101C300090E00E94CD2864E082E290E00E94CD28EE
:101C400060E085E090E00E94CD2860E086E090E0D2
:101C50000E94CD286FEF87E090E00E94CD2840E001
:101C600050E0BA0188E090E00E94DF2860E08DE05B
:101C700090E00E94CD2840E050E0BA0188E190E079
:101C80000E94DF2860E087E190E00E94CD2840E0DC
:101C900050E0BA018CE190E00E94DF2870E060E043
:101CA00080E290E00E94EB2840E050E0BA0188E139
:101CB00090E00E94DF280E94F60D08950E94FE0D1C
:101CC0000895682F8EE090E00E94CD2808950E942C
:101CD0008F2060938E0270938F0280939002909376
:101CE000910260938A0270938B0280938C0290938E
:101CF0008D020895089508950E947B0E0895089519
:101D00000E947F0E08958EE191E10E94A61E0E941E
:101D10007A0E0E947C0E089581E008950E948C0E38
:101D20000895089508950E94910E0E94920E0895BC
:101D30000E943A110E94E50308950E947A200E94B1
:101D40001C120E94980E0E94A61A0E94800E0895EE
:101D5000AAE0B0E0EEEAFEE00C9461280E943212A4
:101D6000A82E81110E94670E50E8852E52E0952E14
:101D700010E000E0702E802F0E9467116C01F401CA
:101D8000E190F1904F01E816F90609F444C0809102
:101D9000920281FD0E947011C7018C259D25B12CF6
:101DA000EE24E394F12C9C012E213F21232B69F199
:101DB0000E948E0E8823B1F0BE827F82CE20DF206B
:101DC00081E0C114D10409F480E088870E94832057
:101DD0008160782F9A8789874E815F8168858A859F
:101DE0000E940504000F111FF801E058FD4F80818B
:101DF0009181E826F926F182E08281E0A11001C0FC
:101E000080E02A96EDE00C947D28B394EE0CFF1C44
:101E1000F0E1BF12C8CF0F5F1F4F0530110509F069
:101E2000A9CF8FEF89838A831B820E9483208160E0
:101E3000782F9D838C8349815A816B818D810E948B
:101E40000504DBCF0E94A80E0E94EC1A0E944A14DF
:101E50000E94FA030895CF93DF930E944410EC018F
:101E6000811521E5920708F042C0811530E59307FE
:101E700008F09DC0883E910530F5803E910508F040
:101E800092C0883A910588F4853A910508F084C09B
:101E90008130910509F487C0009709F484C0049744
:101EA00008F081C0D0E0C0E07EC08F3B9105D0F744
:101EB000C85AD0E0CC0FDD1FC55ADE4F0990D8813B
:101EC000C02DD46470C08115904250F4C11581E0DA
:101ED000D80708F068C0CD3ED10520F3D06563C0B7
:101EE000C11590E4D907F0F2DF70D06A5CC08115AB
:101EF00025E5920700F5811534E5930708F08BC0BE
:101F0000811543E5940708F073C0C11582E5D80731
:101F100008F469C0CE018370992721E030E002C047
:101F2000220F331F8A95E2F7C695C69580E2C89FB7
:101F3000E001112454C0C11599E5D907A8F4C115D1
:101F400028E5D20708F06CC0C11536E5D30708F0C4
:101F5000A9CF8C2F0E94DB10C82FD0E0DC2FCC271C
:101F6000CC27DF71D0621FC0C1154AE5D40708F441
:101F70005CC0CE0190568115904208F093CF8D2F12
:101F80008F710E94DB1090E0982F882788279F711F
:101F90009C012C2BE901E6CFC55AD0E0C757DE4F94
:101FA000C881D0E0D064CE01DF91CF910895E4E004
:101FB00096958795EA95E1F783702C2F26952695BF
:101FC000237040E2249F90011124382B8C2F8370C2
:101FD000C1E0D0E002C0CC0FDD1F8A95E2F7C22B32
:101FE000D32BDC68E0CFDC2FCC27C16FD06ADBCFEE
:101FF0008370992721E030E002C0220F331F8A95B9
:10200000E2F7C695C69590E2C99FE0011124C22B64
:10201000D32BDA68C8CFD82FCC27C46FD06AC3CFF0
:10202000DC2FCC27C06FD06ABECF8C2F8F700E9460
:10203000DB1034E0D695C7953A95E1F7CF709C2F29
:10204000EC01D069B0CF7530B8F46031A8F4E72F57
:10205000F0E095E0899FE00DF11D112484E0EE0F82
:10206000FF1F8A95E1F7E60FF11DEE0FFF1FE45504
:10207000FF4F85919491089580E090E008950E942B
:1020800023100E942B0F089582389105B1F1B0F40E
:102090008133910509F475C048F48932910509F43A
:1020A00069C08A32910509F473C00895853391059A
:1020B00009F459C08933910501F10895833E9105D2
:1020C000A9F138F4803E9105F9F0823E910549F17D
:1020D0000895863E9105A9F1873E9105C9F1843E98
:1020E000910519F52091E30221FF1FC08091E202C2
:1020F00084FD14C087EE90E008952091E2022370E1
:10210000A1F080EE90E008952091E20220FD47C00A
:102110003091E30230FF09C024FF44C090E080E02A
:1021200004C02091E20222FDF7CF08952091E2023F
:1021300022FD3BC03091E30230FDE3CF24FFF5CF19
:10214000EDCF2091E20223FFF0CF24FDE7CFD2CFE5
:102150002091E20223FD2CC03091E30231FFEECF4B
:1021600084EE90E008952091E20225FFDECF89E21F
:1021700090E008952091E20225FFD7CF85E390E01B
:1021800008952091E20226FFD0CF8AE290E00895E0
:102190002091E20226FFC9CF81E390E0089589E310
:1021A00090E0089583EE90E0089582EE90E0089527
:1021B00086EE90E008959091E20292FF06C0282FEB
:1021C00028712830F9F4877F846093FF06C0282F98
:1021D00028712831F1F4877E84612091E30220FF89
:1021E00006C0382F38713830D9F4877F816021FFDD
:1021F00006C0282F28712831D1F4877E816194FD93
:10220000877E0895282F24712430F9F68B7F88600B
:10221000DCCF282F2471243101F78B7E8861DDCF3C
:10222000382F3171313019F78E7F8860E0CF282F39
:102230002171213121F78E7E8861E1CF80E0089500
:102240000E94AA0D08950E9432128FE39CE9019723
:10225000F1F700C000000E94321280E00E94671176
:1022600080FF04C00E9420110E94CE2008950E9489
:10227000231108950E94B10D811102C00E945E0ECB
:102280000E94BC0D809392020E94C60D9093E302BF
:102290008093E2020E9437110E94C10D682F70E006
:1022A00090E080E00E9412086091FC017091FD01B5
:1022B0008091FE019091FF010E94510808950895B8
:1022C0000E945F11089508950E9463110895E82FF8
:1022D000F0E0EE0FFF1FE251FD4F808191810895E4
:1022E000089580EA8A95F1F7089500C008950E9444
:1022F00071110895F894E82FE295EF70F0E031A1A4
:10230000282F2F7081E090E001C0880F2A95EAF70E
:10231000982F9095932391A392A1892B82A37894CF
:102320000895CF93DF93CCE9D1E089918F3F11F0ED
:102330000E947A1181E0C13AD807B9F7CCE8D1E020
:1023400089918F3F11F00E947A1181E0CC39D80732
:10235000B9F7DF91CF910895AF92BF92DF92EF92DC
:10236000FF920F931F93CF93DF938C01D62EC62F2E
:10237000D0E0CE0184569E4F7C01FC0120812F3F8E
:1023800009F44DC0F894E22FE295EF70F0E031A12E
:102390002F7081E090E001C0880F2A95EAF7932F13
:1023A000982B91A392A18095892382A378940E946F
:1023B0007511ECE8F1E04CE951E021E030E0B12C9E
:1023C000A12C61916F3FA9F1A62FA295AF70B0E04B
:1023D00090968C9190E06F7002C0959587956A9564
:1023E000E2F780FD26C0C901A82AB92A220F331FAF
:1023F0004E175F0731F7F70180818F3F11F00E9480
:102400007A1161E0A114B10409F460E08D2D0E94FD
:102410007711CC0FDD1FC00FD11FB982A882DF91C9
:10242000CF911F910F91FF90EF90DF90BF90AF90F1
:10243000089590E080E0D8CF0E9491118AE0EEEEFE
:10244000F2E0DF01982F1D929A95E9F7E4EEF2E0B1
:10245000DF011D928A95E9F785E00E946E120E94C5
:102460004B030895AAE0B0E0E8E3F2E10C94692898
:102470008E010F5F1F4F8AE0F80111928A95E9F7EC
:10248000F12C6F2DC8010E94AC11F394F5E0FF12FE
:10249000F8CF4AE050E0B80184EE92E00E94AC2808
:1024A000FF24F394009709F4F12C892B41F08AE082
:1024B000F801A4EEB2E001900D928A95E1F72F2D7C
:1024C00045E06EEE72E084EE92E00E946F120E9490
:1024D0004E038F2D2A96E5E00C9485280895FF92EF
:1024E0000F931F93CF93DF93F82E092F162FD72F1B
:1024F000C42F222349F081E0809395020E9483201B
:102500009093940280939302809195028823A1F086
:1025100080919302909194020E949B20059760F015
:10252000EF2DF02FA12FBD2F90E080E0D0E08C1791
:102530009D073CF010929502CDB7DEB7E5E00C9414
:102540008528219131912D933D930196F0CF0E94E2
:10255000A8220E949D0E0E94B52208950E94BA22D0
:102560000E94220F0E94D42208950E941C200E94E3
:102570008E220E94830E0E94A7120E94AE120E9419
:10258000930EFBCF80919C0280FF0DC060910701EC
:1025900070E0660F771F6038710570F56115710581
:1025A00069F1862F089581FF07C06091070184E0DB
:1025B000689FB0011124EFCF6091070182FD0AC02E
:1025C00080919B028823A9F0209106016091070168
:1025D000821710F088E0ECCF869FC001112433E011
:1025E000880F991F3A95E1F7622F70E00E94EF275C
:1025F000D2CF68E070E0D5CF8FE7089581E00895ED
:1026000080919C0280FF0CC06091030170E0759581
:102610006795759567956115710549F1862F089540
:1026200081FF06C06091030170E075956795F3CF57
:102630006091030182FD0BC090919A029923A1F051
:102640006091020180910301961738F0682F70E0C5
:102650006038710500F38FE70895899FC001112448
:1026600070E00E94EF27F4CF61E070E0D7CF81E007
:1026700008958D3E31F40E94C21281958093A0028C
:1026800008958E3E19F40E94C212F8CF8F3E31F4A5
:102690000E94C212819580939F020895803F19F491
:1026A0000E94C212F8CF893F29F40E940013809340
:1026B000A10208958A3F21F40E9400138195F7CF6B
:1026C0008B3F31F40E94001381958093A2020895FC
:1026D0008C3F19F40E940013F8CF9FE0980F9830B8
:1026E00070F4815F990B21E030E001C0220F8A95E0
:1026F000EAF780919E02822B80939E0208958D3F7F
:1027000031F480919C02816080939C0208958E3FF9
:1027100021F480919C028260F7CF8F3FB9F78091BE
:102720009C028460F1CF40919F028D3E59F48091CC
:10273000A00287FF0DC01092A00241110BC01092A1
:102740009B0208C08E3E81F48091A00218169CF373
:10275000442381F08091A1029091A202892B09F07B
:102760005AC010929A0208958F3E49F447FFF0CF65
:1027700010929F028091A0028111ECCFE0CF803FA8
:1027800019F41416ACF3E4CF9091A102893F29F417
:102790001916F4F61092A102DBCF8A3F19F497FFC5
:1027A000D7CFF8CF9091A2028B3F29F497FFD0CFDB
:1027B0001092A202CDCF8C3F19F41916CCF3C8CFDA
:1027C0009FE0980F983090F4815F990B21E030E002
:1027D000B90102C0660F771F8A95E2F7CB01809599
:1027E00090919E02892380939E02B2CF8D3F31F457
:1027F00080919C028E7F80939C02AACF8E3F21F411
:1028000080919C028D7FF7CF8F3F09F0A1CF8091FF
:102810009C028B7FF0CF08950E9483209C019091B1
:102820009F028091A002982B21F03093990220936F
:1028300098029091A1028091A202982B21F03093EE
:102840009702209396028DE992E00E94D71E089588
:1028500086E0EDE9F2E0DF011D928A95E9F710923A
:102860009B0210929A0210929C020895FC018281B0
:1028700081110EC0838181110BC08481811108C038
:1028800091E08581811101C090E0892F81700895C8
:1028900081E0FCCFA6E0B0E0E0E5F4E10C946B2829
:1028A00086E0EDE9F2E0DE01119601900D928A9545
:1028B000E1F710929F021092A0021092A1021092D2
:1028C000A2028B819C81892B89F080919802909142
:1028D00099020E949B20AC0190919B029923C9F11F
:1028E000809108018417150608F440C08D819E81EF
:1028F000892B91F080919602909197020E949B20E3
:10290000AC0190919A02992309F471C0809104015D
:102910008417150608F479C0BE016F5F7F4F8DE9FB
:1029200092E00E94D31F811105C08DE992E00E94C0
:10293000361481110E940C1486E0FE013196ADE937
:10294000B2E001900D928A95E1F72696E3E00C94AF
:102950008728209109018AE0289F900111242417DB
:10296000350720F69F5F90939B0202C09F3FD1F7EF
:102970001B81112359F00E94C2129FEF11160CF413
:1029800091E0899F802D112480939F021C81112347
:1029900059F00E94C2129FEF11160CF491E0899F2A
:1029A000802D11248093A00230919F02332309F4DB
:1029B0009DCF2091A002222309F498CF45EB340348
:1029C000C0011124992359F090939F0245EB2403F1
:1029D00090011124332339F03093A00287CF81E096
:1029E00080939F02F3CF81E08093A0027FCF20915C
:1029F00005018AE0289F900111242417350708F06B
:102A00008BCF9F5F90939A0202C09F3FD1F71D81A9
:102A1000112359F00E9400139FEF11160CF491E05E
:102A2000899F802D11248093A1021E81112359F0CA
:102A30000E9400139FEF11160CF491E0899F802DE6
:102A400011248093A2023091A102332309F464CFB0
:102A50002091A202222309F45FCF45EB3403C00189
:102A60001124992359F09093A10245EB240390017E
:102A70001124332339F03093A2024ECF81E08093AA
:102A8000A102F3CF81E08093A20246CFEF92FF92A2
:102A90000F931F93CF93DF93EB01E82FD1110EC05B
:102AA000442321F0F0E0ED5FFC4FE4916E2F7E2F88
:102AB0008E2FCDB7DEB7E6E00C9484280D2F10E002
:102AC000282F30E0442329F02D5F3C4FF901249159
:102AD00030E0F6E0CF9FC0011124EFEFF0E0BF013E
:102AE0000E94DB27AB018C2F90E0880F991FA5E592
:102AF000A49FB001A59F700D1124861B970B982FE2
:102B0000990F980FBF01601B710B629FD001639FEB
:102B1000B00D729FB00D11248B2F9D9FB001112419
:102B2000672F7727EF01C61BD70BBE01629FE0011D
:102B3000639FD00D729FD00D11247F01E91AF10817
:102B4000E09EB001E19E700DF09E700D1124672F84
:102B50007727E61BF70BE29F8001E39F100DF29FA2
:102B6000100D1124E12F722F4230510599F048F4D5
:102B70004115510569F04130510581F0EB2F8D2F42
:102B800007C04430510569F080F046305105B1F777
:102B90006E2F8FCFE22F7B2F812FFACFE22F7D2F49
:102BA000F7CFEB2F822F712FF3CF7B2F822FED2FBB
:102BB000EFCF41E00E944615089508950E94D9156F
:102BC0000895CF93DF93762FE901682F842F0E9419
:102BD000DE15798368838A83DF91CF910895493C1C
:102BE00008F048EC0E94E11508958091F802982FB2
:102BF0009E7F61F4817082608093F8028091FB0275
:102C0000893C18F088EC8093FB0208958A34B0F375
:102C100081708864F1CF88E090E00E94C128089517
:102C2000CF92DF92EF92FF926B017C010E94F5152B
:102C3000B701A60188E090E00E94DF28FF90EF90A6
:102C4000DF90CF900895E8EFF2E083E08083118277
:102C50008FEF828388EC838314826081718182810B
:102C600093810E94101608958091F80280FF02C09F
:102C70008695089580E008959091FC02933018F4B1
:102C80009F5F9093FC02882351F06091F80270914D
:102C9000F9028091FA029091FB020E9410160895A9
:102CA00081E00E943C1608959091FC02992319F04E
:102CB00091509093FC02882351F06091F80270913A
:102CC000F9028091FA029091FB020E941016089579
:102CD00081E00E945416089570E00E945D1C0895E2
:102CE00060910E018091F80280FF0BC080910D0170
:102CF00023E0829FC001112483509D4F0E946C16D7
:102D0000089580910F019091100123E0829FF001BE
:102D10001124E350FD4F891748F711821082128267
:102D20008F5F3396F8CF9091F80290FF0EC090918C
:102D30000F012091100133E0939FF0011124E35023
:102D4000FD4F921718F00E947016089581836083DA
:102D500042839F5F3396F5CFA3E0B0E0E2EBF6E16C
:102D60000C946C289091F80290FF0AC09E012F5F8E
:102D70003F4F0E94EF154B8169818A810E94931613
:102D80002396E2E00C948828CF93DF93EC01EC814A
:102D9000F0E0E250FE4F4491E8EFF2E06281818181
:102DA0000E94AC168C818F5F8C83DF91CF91089548
:102DB000CF93DF93EC01E8EFF2E0438162818C81F5
:102DC0000E94AC168C818F5F8C83DF91CF91089528
:102DD000A3E0B0E0EEEEF6E10C946A288C0180915D
:102DE000A30281110AC09E012F5F3F4F48EC6FEF95
:102DF0000E94EF158A818093A302F80164816130FB
:102E000069F08091A30240E0662361F040E0623007
:102E100011F44091A30280E060E004C06091A3023D
:102E200040E080E00E949316F801848190E00196D2
:102E300063E070E00E94EF2784832396E4E00C9423
:102E40008628A3E0B0E0E7E2F7E10C946528082FBC
:102E5000D62EE42EC22E9091F80290FF29C0E92FC1
:102E6000E695AE2FB0E0AF55BE4F8C918093AF0288
:102E70009E7F923009F59E012F5F3F4F802F0E9469
:102E8000EF154B8169818A810E9493160093F902A4
:102E9000D092FA02E092FB02CC2051F06091F8024D
:102EA0007091F9028091FA029091FB020E94101633
:102EB0002396E9E00C948128823019F4E090FB021B
:102EC000E5CF863019F40091F902E0CF8930D9F3CB
:102ED0008931E1F6E9516E2F6170B62EE695F0E08A
:102EE000E250FD4F1491F12C60911101F61618F08B
:102EF0000E947016CBCFF19EC001112470E00E9499
:102F0000DB27802FB11014C0860F20910F01622F94
:102F10006F0D7727771F9B01220F331F260F371F57
:102F200023503D4F4E2D6D2D0E94EF15F394DCCFB5
:102F3000861BEBCFE8EFF2E09181282F438162817D
:102F400088E0890F0E942117089581E00E949A1756
:102F50000895E8EFF2E09181282F4381628188EFA4
:102F6000890F0E942117089581E00E94A9170895F2
:102F7000E8EFF2E0628128E0620F08F46FEF282F9B
:102F8000438181810E942117089581E00E94B81732
:102F90000895E8EFF2E0628128E0621B08F460E047
:102FA000282F438181810E942117089581E00E948A
:102FB000C9170895E8EFF2E0438128E0420F08F4D2
:102FC0004FEF282F628181810E942117089581E0AF
:102FD0000E94DA170895E8EFF2E0438128E0421BEF
:102FE00008F440E0282F628181810E942117089512
:102FF00081E00E94EB17089520E00E9421170895B8
:10300000EF92FF921F93CF93DF93EC0110E0EE2439
:10301000EA94F12C60911101161770F00E9470165D
:103020009A818C8190FF27C08F5F8C83DF91CF9135
:103030001F91FF90EF90089520910F01422F410FB3
:103040005527551FCA019A01220F331F280F391F18
:1030500023503D4F70E0C7010E94EF27962F8C81CF
:103060004091FB026091FA02199F800D11240E9489
:10307000EF151F5FCFCF8150D8CFB0E0A0E0E3E4E1
:10308000F8E10C946428FC0182810FEF80FF01E0DD
:1030900010E044E1A42E80911101181798F00E94CD
:1030A00070168091A502013009F04FC0811102C055
:1030B0008091110181508093A502CDB7DEB7EAE07F
:1030C0000C948028C0910F01C12ED12CCC0DDD2D88
:1030D000D11DCE01880F991FC80FD91FC350DD4FD6
:1030E000198218821A8234E0E32EF12CB12C8091DF
:1030F000A5028B0D85311CF16A2D0E94CD27892FE9
:10310000082E000C990BC816D90691F48091FB0289
:103110008E9DA0018F9D500D112455954795559575
:1031200047959E016091FA028091F9020E94EF1585
:10313000B00EF1E0EF1AF108D1F61F5FACCF87FFB8
:10314000DFCF90911101890FDBCF90E00196609164
:10315000110170E00E94EF27AECF0F931F93CF9322
:10316000DF9380910F019091100123E0829FF00185
:103170001124E350FD4F891740F1C0E0D3E0609186
:103180001101C61740F10E94701620910B01809129
:10319000A402820F8093A40290910C01920F90934D
:1031A0000C01191654F4082E000C990B40911101D2
:1031B0004150550B841795071CF0219520930B0166
:1031C000DF91CF911F910F91089511821082128289
:1031D0008F5F3396D0CF0C2F10E070E0C8010E94B3
:1031E000EF2720910F01820F482F50E02091A40279
:1031F000022E000C330B02171307BCF020910C01B8
:10320000022E000C330B201731077CF08D9F9001AC
:10321000112423503D4F4091FB026091FA028091AE
:10322000F9020E94EF15CF5FAACFFA01EE0FFF1F40
:10323000E40FF51FE350FD4F118210821282F3CF8D
:10324000B0E0A0E0E6E2F9E10C946228EC014C81E8
:10325000042F10E09801D8010E9433289B01AC0193
:103260000E9449284B015C01E0E2F0E0E01BF10B19
:10327000A5E5B0E0AC019B010E9449286B017C01EF
:103280009F01DF010E942B289B01AC010E94542862
:103290009B01AC01280D391D4A1D5B1DC701B601FC
:1032A0000E940328F22E822F90E039E23F1520F190
:1032B00043E0249F9001112435952795122F1095F6
:1032C00000E085E5E82EEF1880911101081718F14C
:1032D0000E9470169C8181E0992319F0903219F4B4
:1032E0008FEF80930A0180910A01890F8C83CDB7FB
:1032F000DEB7ECE00C947E2825E530E0B901681BD0
:10330000790B9B01220F331F260F371F37FFD4CFB6
:103310002F5F3F4FD1CF8E2D01FD8F2D20910F01BB
:10332000622F600F7727771F9B01220F331F260F15
:10333000371F23503D4F412F6091FA020E94EF1535
:103340000F5FC2CF0F931F93CF93DF93EC0110E079
:1033500000E0909111019017110609F06CF40E94A1
:1033600070168C8190E00196817099278C83DF9193
:10337000CF911F910F91089520910F01A801420F45
:10338000511D9A01220F331F240F351F23503D4F2B
:103390004C816091FA028091F9029695901711067E
:1033A00051F04CF0442349F04091FB020E94EF158C
:1033B0000F5F1F4FCECF4423B9F340E0F7CFE8EFC4
:1033C000F2E080818E7F8083608171818281938130
:1033D0000E9410161092B0022FEF80E792E0215069
:1033E00080409040E1F700C000000E9470160895F0
:1033F000E8EFF2E080818E7F80831092B0022FEFA1
:1034000080E792E0215080409040E1F700C000004A
:103410000E94701608951092B0028091AD02811141
:103420000AC081E08093AD028091F80281708093A0
:10343000AC020E94F81908956091F802669570E058
:103440004BE050E082E191E00E949F28892B19F423
:1034500081E08093B0020E9483209093A702809322
:10346000A60208959091F80290FF2BC091708111EF
:1034700029C092609093F802662351F06091F8029F
:103480007091F9028091FA029091FB020E9410164D
:103490006091F802669570E04BE050E082E191E0C7
:1034A0000E949F28892BA9F01092B00281E080939E
:1034B000A9024091FB026091FA028091F9020E94F8
:1034C000FC170895853210F09864D4CF880F982B9C
:1034D000D1CF0E941C1AEACF682F9091F8029695DE
:1034E00081E0890F853208F081E00E94321A089548
:1034F00081E00E946C1A0895682F9091F8029695C9
:103500008FEF890F09F484E20E94321A089581E056
:103510000E947C1A089561E00E94321A0895E8EF33
:10352000F2E080818160808386950E948B1A0895E5
:103530008091F80280FF03C00E94DF1908950E9465
:103540008F1A089560E00E94321A08958091AE02A9
:1035500081112EC00E94B10D811104C00E945E0E27
:103560000E9423160E940B166093F8027093F902D2
:103570008093FA029093FB026E7F61F40E942316FF
:103580000E940B166093F8027093F9028093FA027E
:103590009093FB020E94F5151092B0028091F80200
:1035A00080FF03C086950E94A21A81E08093AE023C
:1035B0000895E8EFF2E080818160808386950E9423
:1035C000A21A08951092AD028091AC0281110E945E
:1035D000D91A0E941C1A08950F931F93CF93DF935B
:1035E0008091B0028823B9F18091AF02E091F80296
:1035F000E695E81BE093A802823091F5F0E0E650F2
:10360000FE4FE491CE2FD0E004EC16E18091A902A8
:10361000882361F01092A9020E9483209093A70250
:103620008093A6021092AB021092AA020E948320FD
:10363000E091A602F091A7028E1B9F0B8F3F9F4740
:1036400050F4EC0FFD1FF093A702E093A60286EA68
:1036500092E0F8010995DF91CF911F910F910895A4
:10366000863049F4F0E0E950FE4FE491CE2FD0E0EF
:1036700008ED16E1CBCF893051F4E695F0E0EC503F
:10368000FE4FE491CE2FD0E000E018E1BFCF8F30A5
:1036900051F4E695F0E0EF50FE4FE491CE2FD0E0EC
:1036A0000DE318E1B3CF853149F4F0E0E251FE4F6C
:1036B000E491CE2FD0E00DEA18E1A8CFC8E2D0E027
:1036C00000E219E1883109F4A1CF833239F4ECEE3C
:1036D000F1E0C591D49108EE16E198CFC4EFD1E0A6
:1036E00002EA19E1843209F491CFC0EDD7E00DED83
:1036F00015E18CCFFA01811101C0FB0109950895F4
:10370000CF93DF93C82FD62F0E9434168C1748F022
:103710000E9434168D1728F40E94781ADF91CF91F9
:1037200008958C2F0E948B1AF9CF1F93CF93DF93AC
:10373000EC01FB01128111117EC00E94C30C827248
:10374000CD3CFCE5DF0709F49CC008F041C0C73C54
:10375000ECE5DE0709F481C0D8F4C43C9CE5D90748
:1037600009F471C030F4C33CDC4509F469C011E0D0
:1037700062C0C53C9CE5D90709F46AC044EB57E137
:1037800065EA77E1C63CDC4591F70E947A1B53C09D
:10379000CA3CFCE5DF0709F46AC068F4C83CECE504
:1037A000DE0709F45FC045EC57E166ED77E1C93CFF
:1037B000DC4559F3DCCFCB3C9CE5D90709F45CC070
:1037C00048E656E160E576E1CC3CDC45F1F2CFCF4E
:1037D000C23DFCE5DF0709F465C098F4CF3C9CE5E9
:1037E000D90709F457C008F451C0C03DFCE5DF0714
:1037F00009F455C0C13DDC4509F0B9CF6EE089E060
:103800004BC0C53D9CE5D90709F452C058F4C33DEF
:10381000FCE5DF0709F449C0C43DDC4509F0A7CF4A
:1038200088E135C0C63D9CE5D90709F444C0CE35D2
:10383000DD4509F09CCF812FDF91CF911F91089535
:103840000E94981AF8CF47E85AE168E77AE19DCFDD
:1038500048E75AE167E87AE198CF45EA57E164EB37
:1038600077E193CF46ED57E165EC77E18ECF48EFF6
:1038700057E167EE77E189CF47EE57E168EF77E1EF
:1038800084CF40E556E168E676E17FCF81E00E9493
:103890008B1AD1CF65E082E00E94801BCCCF68E01C
:1038A00086E0FACF64E18FE0F7CF67E185E1F4CFFE
:1038B00062E289E1F1CF83E2EACF6A9A4EB14B7FAF
:1038C0005EB15460EFB7F8949B01220F331F260FAF
:1038D000371F280F391F2817390741F4EFBF8FE52D
:1038E00094E00197F1F700C000000895DC016D91AC
:1038F000CD0178E05EB9000000C067FF4EB9660FE9
:10390000000000C000C000C04EB900C07A9591F719
:10391000E2CFCF93DF93EC01FB018281882309F48E
:1039200033C1C430FDE5DF07C0F5CB3F9CE5D907C7
:1039300030F49E0122503C4524313105B0F50E94FF
:10394000C60D9093E3028093E202C1318CE5D80763
:1039500009F4EEC008F069C0C930ECE5DE0709F4EF
:10396000D5C0C8F5C5308CE5D80709F4C7C000F547
:10397000C330ECE5DE0709F4B9C008F0BBC0C230C3
:10398000DC4509F4ADC08091E2029091E3020E940F
:10399000D40D0E94C40780E008C0C236EDE5DE0702
:1039A00071F2C63AFDE5DF0751F2DF91CF9108953C
:1039B0008091E2028062C7309CE5D90709F493C088
:1039C0008091E2028061C830DC4508F48CC08091AF
:1039D000E202806488C08091E2028B7FCD30FCE5FA
:1039E000DF0709F480C098F48091E2028E7FCB302B
:1039F0009CE5D90709F477C08091E2028C60CC3055
:103A0000DC4508F470C08091E2028D7F6CC080912B
:103A1000E2028F7ECF30FCE5DF0709F464C008F4D2
:103A20007BC08091E2028F7D5EC0CE3F9CE5D907CE
:103A300009F47AC050F5C531FCE5DF0709F486C00A
:103A400098F48091E202837FC3319CE5D90709F4A1
:103A50004AC008F471C00E94C4079091E202892F05
:103A600097FB87F980583FC0CC3FFCE5DF0709F49E
:103A700049C008F055C08091E3028160CB3FDC452E
:103A800009F081CF8093E3027ECFC230EDE5DE07FF
:103A900009F468C0A8F4C1158DE5D80709F452C02F
:103AA0008091E3028360C130DD4560F38091E302E1
:103AB000982F909591708E7F892B90FB81F9E2CFA2
:103AC000C236EDE5DE0709F451C0C63AFDE5DF0771
:103AD00009F453C0C330DD4509F055CF80E043C041
:103AE0008091E20281608093E2024DCF8091E202F8
:103AF0008260F9CF8091E2028460F5CF8091E2028A
:103B00008860F1CF8091E3028260BCCF0E94C4073D
:103B10008091E2028068E7CF8091E202877FE3CF65
:103B20008091E3028E7FAECF8091E3028D7FAACF9A
:103B30008091E2028F7BD7CF0E94C4078091E2027E
:103B40008F77D1CF8091E3028C7F9CCF8091E2026E
:103B500082FB992790F921E0922790FB82F990FB54
:103B600083F9C1CF81E00E94610E0DCF9091E202F6
:103B7000892F8F7E94FF8061B6CF9091E202892FCA
:103B80008E7F90FF8160AFCF81E00FCFCF93DF9327
:103B9000EB0186319C4511F50E94C30C9A81992353
:103BA00099F08A7A91E009F490E09093B102811142
:103BB00009C089E20E949B0C0E94040D80E0DF9105
:103BC000CF91089585E3F6CF8091B102811104C0B1
:103BD00089E20E94A30CF0CF85E3FBCF81E0EFCF19
:103BE0000F931F93CF93DF93C42FD22FFC018281B9
:103BF0008823C9F04093B4020E9483209093B302BB
:103C00008093B20280E28C0F883040F4C77081E06C
:103C100001C0880FCA95EAF70E944B05DF91CF914A
:103C20001F910F9108951091B402141332C0809126
:103C3000B2029091B3020E949B20883C910548F506
:103C4000C0E2CD0F1D17B9F080E2810F883040F43B
:103C5000177081E001C0880F1A95EAF70E9452059B
:103C6000C83048F481E09D2F977001C0880F9A9565
:103C7000EAF70E944B05802F0E944205C83070F67B
:103C8000D77081E001C0880FDA95EAF70E945205EB
:103C9000C5CF80E28C0F883008F6C77081E001C084
:103CA000880FCA95EAF7F2CF0F939C01CB01243F0E
:103CB0004CE5340759F1A8F4293DFCE53F0701F133
:103CC0002A3D4CE53407D1F1283D3C4591F406E20C
:103CD00021EE41EE68ED7CE50E94F01D80E00F9141
:103CE0000895263FFCE53F07E9F0B0F0273F3C454B
:103CF000F9F0FC018281882339F11092B402EFCFF0
:103D000007E225EE45EE69ED7CE5E6CF06E221EE21
:103D100040EE64EF7CE5E0CF07E225EE44EE65EF90
:103D20007CE5DACF06E221EE42EE66EF7CE5D4CF09
:103D300007E225EE46EE67EF7CE5CECF08E221E014
:103D400045EE6AED7CE5C8CF81E0C9CF9093C7010D
:103D50008093C60108959093BA028093B9020895A2
:103D6000E091B902F091BA02309729F00190F08108
:103D7000E02D0995089580E00895E091B902F09151
:103D8000BA02309799F020912901222359F020910D
:103D9000E20227FF07C0DC012C9111962C931197AA
:103DA00026E02C930280F381E02D09950895E0919F
:103DB000B902F091BA02309739F022E0DC012C937D
:103DC0000480F581E02D099508952091B702309186
:103DD000B8022817390771F09093B8028093B702A0
:103DE000E091B902F091BA02309721F00680F78194
:103DF000E02D099508952091B5023091B60228175B
:103E0000390771F09093B6028093B502E091B90240
:103E1000F091BA02309721F00084F185E02D0995E8
:103E20000895FC01329680912901882321F0809128
:103E3000E2029EE187FF96E080E0915008F4089549
:103E400021912223D1F38F5FF8CF662301F12091D6
:103E500029012223F1F02091E20227FF1AC0462F08
:103E60004695469546954E3190F4677021E030E0D6
:103E700002C0220F331F6A95E2F7840F911DFC01E7
:103E8000828190E02823392381E0232B69F480E0AC
:103E90000895FC01329608962191261721F0E81723
:103EA000F907D1F7F4CF81E008959C01FC01329627
:103EB0009FEF80E04191461751F09F3F19F4411167
:103EC00001C0982F8F5F8630A9F79F3F09F40895AE
:103ED000290F311D97FD3A95F90162830895FC0180
:103EE000329608962191261303C0DF0111971C9288
:103EF000E817F907B9F70895E62FE695E695E695F0
:103F0000EE3168F4E80FF92FF11D677021E030E021
:103F100001C0220F6A95EAF78281822B828308957D
:103F2000E62FE695E695E695EE3170F4E80FF92F69
:103F3000F11D677021E030E001C0220F6A95EAF7B9
:103F4000209582812823228308952091290122230C
:103F500039F02091E20227FF03C00E947C1F0895E0
:103F60000E94551F089520912901222339F02091A4
:103F7000E20227FF03C00E94901F08950E946F1F56
:103F80000895FC01329680912901882351F0809197
:103F9000E20287FF06C08EE1DF011D928A95E9F7F4
:103FA000089586E0F9CF46E050E00E94AC2821E079
:103FB000892B09F420E0822F089508950E94DD1FC7
:103FC0000895811106C081E08093BB020E94DE1F2C
:103FD000089582E0F9CF83E08093BB020E94DE1F48
:103FE00008950E94E11F089581E08093BB020E9422
:103FF000DE1F08950E94F41F0895089508950E94F9
:10400000FE1F0895089508950E94FD1F0895CF93FF
:104010000E9402200E9432120E940320C0E08C2FD6
:104020000E946711892B31F4CF5FC530C1F780E062
:10403000CF91089581E0FCCF85B7806885BF85B7B3
:10404000806885BF08951F921FB61F9211248F9319
:104050009F93AF93BF938091BC02811113C0809155
:10406000390390913A03A0913B03B0913C034196F0
:10407000A11DB11D8093390390933A03A0933B0394
:10408000B0933C03BF91AF919F918F911F901FBE42
:104090001F90189580914103843031F10E94C40330
:1040A0001092BC0288E190E020E40FB6F894A89545
:1040B000809360000FBE2093600083B7817F84608F
:1040C00083BF83B7816083BF7894889583B78E7FE1
:1040D00083BF0FB6F894A8958091600088618093A3
:1040E0006000109260000FBE08950E94C4070E94F5
:1040F000CB03089582E084BD93E095BD9AEF97BD10
:1041000080936E0008952FB7F894809139039091B1
:104110003A03A0913B03B0913C032FBF08952FB702
:10412000F8946091390370913A0380913B03909128
:104130003C032FBF08959C014FB7F8948091390339
:1041400090913A03A0913B03B0913C034FBF821B77
:10415000930B089578941F921FB61F9211248F938A
:104160009F93AF93BF938091390390913A03A091AD
:104170003B03B0913C030196A11DB11D809339030F
:1041800090933A03A0933B03B0933C03BF91AF914C
:104190009F918F911F901FBE1F90189581E0809373
:1041A000E00080E28093D8001092C9008FE19EE485
:1041B0000197F1F700C0000087E090EBDC018093ED
:1041C0004A0390934B03A0934C03B0934D0388E1B3
:1041D0009CE00FB6F894A895809360000FBE909372
:1041E0006000FFCF88E19CE00FB6F894A89580931B
:1041F00060000FBE90936000FFCF8091E0020895B1
:1042000008959C0182E08093E9009FEF8091E8008F
:10421000915085FD06C085ED8A95F1F7000091115A
:10422000F5CF8091E80085FF0CC050E040E066E0EB
:1042300070E0C9010E9446238091E8008E77809348
:10424000E8000895CF93DF93EC0180912901882342
:10425000B1F18091E20287FF32C060E282E0809398
:10426000E9008FEF9091E800815095FD06C095ED33
:104270009A95F1F700008111F5CF8091E80085FF54
:104280001BC08091290170E050E040E0811104C022
:1042900050E040E068E070E0CE010E94462380914B
:1042A000E8008E778093E80080E2FE01A0ECB2E0A7
:1042B00001900D928A95E1F7DF91CF91089568E022
:1042C00081E0CDCF8093BD027093BF026093BE02A8
:1042D00080914103843001F582E08093E9008FEF03
:1042E0009091E800815095FD06C095ED9A95F1F703
:1042F00000008111F5CF8091E80085FF0DC050E0EE
:1043000040E063E070E08DEB92E00E9446238091F4
:10431000E8008E778093E8000895BC0184E00E9455
:1043200062210895BC0183E00E946221089580917A
:104330004003811109C00E94D6240E943325809138
:10434000E20084608093E200089510924003089593
:104350000E94F41F089560913D0381E0611101C046
:1043600080E00E94EB1F08959091410381E094301A
:1043700009F080E060913D030E94F11F089542E042
:1043800061EC81E00E94522442E261EC82E00E94F2
:1043900052249091410381E0943009F080E06091D3
:1043A0003D030E94E11F089580914303833009F487
:1043B00061C030F48130D1F1823009F49EC008959B
:1043C0008A3009F48AC08B3009F46FC0893009F053
:1043D00050C080914203813209F04BC08091460366
:1043E00090914703029708F044C08091E800877FCE
:1043F0008093E8008091E80082FF37C09091F3003D
:104400008091F200029731F48091F100813011F037
:10441000863021F48091F1008093E0028091E800E1
:104420008B778093E8000E94862423C0809142030A
:10443000813AF9F48091E800877F8093E8008091C9
:10444000460390914703892B61F460E280EC92E08F
:1044500070E00E9495238091E8008B778093E800BC
:10446000089560E090E080E0F3CF809141038111F6
:10447000C1CF089580914203813AD9F780914603D4
:1044800090914703892BA9F78091E800877F80935B
:10449000E8008091E80080FFFCCF809129018093A3
:1044A000F1008091E8008E77BCCF80914203813289
:1044B00001F78091460390914703892BD1F68091B3
:1044C000E800877F8093E8000E948624809144035F
:1044D000809329010E94C40708958091420381328C
:1044E00041F68091E800877F8093E8000E9486244F
:1044F000809145038093E102089580914203813ABF
:1045000009F0B7CF8091E800877F8093E800809121
:10451000E80080FFFCCF8091E102C1CF84B7877FA4
:1045200084BF0FB6F894A89580916000886180934D
:104530006000109260000FBE80E890E00FB6F89423
:1045400080936100909361000FBE0E94FA1F08954E
:104550000E94D6240E943325E2EEF0E08081846040
:10456000808378940E94B22708958DE191E00E94A3
:10457000AB1E089580914103853031F48091410351
:10458000853019F00E94752008950E944A2080917C
:104590003F03882399F30E940720882379F30E9420
:1045A00030230E94C407EACF08950E94D8220895BC
:1045B000292F33272330310519F168F421303105D3
:1045C00009F444C02230310509F445C090E080E090
:1045D00030E020E025C02132310549F12232310599
:1045E000A9F780E490E024E435E061157105C1F09D
:1045F00086EB90E02EE834E06130710589F0E6CF7B
:1046000099278130910581F0009729F00297F1F602
:10461000E3E0F4E002C0EDE3F4E0849190E09F0178
:10462000FA01318320830895E1E2F4E0F6CF89E0D6
:1046300090E023E534E06115710591F389E090E0A5
:104640002CE634E06130710559F3C0CF82E190E08F
:104650002CE734E0E5CF8BE390E021E434E0E0CFD9
:1046600080E189BD82E189BD09B400FEFDCF809162
:10467000D8008F7D8093D8008091E0008260809385
:10468000E0008091E00081FDFCCF0895AF92BF92E1
:10469000CF92DF92FF920F931F93CF93DF936C0122
:1046A000EB018A010E94A524F82E811123C0011577
:1046B000110539F0F80180819181C81BD90BC80E12
:1046C000D91EB12CA12C2097A9F08091E80085FD7E
:1046D00022C08091E8008E778093E80001151105D3
:1046E000A1F0F80180819181A80EB91EB182A0824B
:1046F00085E0F82E8F2DDF91CF911F910F91FF90C4
:10470000DF90CF90BF90AF9008950E94A52488239A
:10471000D1F2F82EEFCFF60181916F018093F10075
:104720002197FFEFAF1ABF0ACECFFC01809148035B
:104730009091490386179707A0F06115710529F438
:104740009091E8009E779093E80090E061157105E4
:1047500051F4911108C08091E80082FF34C080E0DC
:104760000895BC01F2CF809141038823C1F18530C7
:10477000C1F18091E80083FD30C08091E80082FDA6
:10478000EACF8091E80080FFE1CF8091F300209193
:10479000F200382F6115710519F02830310558F0F5
:1047A00091E02830310509F090E02091E8002E7763
:1047B0002093E800CBCF81918093F1006150710983
:1047C0002F5F3F4FE7CF80914103882341F0853031
:1047D00041F08091E80083FFBECF81E0089582E040
:1047E000089583E00895FC01809148039091490366
:1047F00086179707A0F06115710529F48091E800EC
:104800008E778093E80090E06115710551F4911165
:1048100008C08091E80082FF35C080E00895BC01A7
:10482000F2CF809141038823C9F18530C9F180918D
:10483000E80083FD31C08091E80082FDEACF8091DD
:10484000E80080FFE1CF8091F3002091F200382F43
:104850006115710519F02830310558F091E02830C4
:10486000310509F090E08091E8008E778093E800B0
:10487000CBCF84918093F1003196615071092F5F05
:104880003F4FE6CF80914103882341F0853041F0CE
:104890008091E80083FFBDCF81E0089582E0089514
:1048A00083E00895982F973028F08F708093E90067
:1048B00081E008959093E900242F762F50E0981717
:1048C00031F07091EC002091ED005091F00021FD4D
:1048D00002C09F5FE8CF3091EB003E7F3093EB004A
:1048E0003091ED003D7F3093ED003091EB00316071
:1048F0003093EB007093EC002093ED005093F000A8
:104900002091EE0027FDE5CF80E0089580914203DD
:1049100087FF13C08091E80082FF06C08091E80005
:104920008B778093E80004C0809141038111F2CF1E
:104930000895809141038823D9F38091E80080FF96
:10494000F8CF8091E8008E77ECCF2091E400309191
:10495000E50095E6A9012091EC00822F817020FFEF
:1049600006C08091E80080FF06C080E00895209195
:10497000E80022FD1AC080914103882389F0853028
:1049800089F08091EB0085FD0FC02091E40030910B
:10499000E50042175307F9F29150E1F684E00895DB
:1049A00082E0089583E0089581E008950E944525FE
:1049B0000E944D25E0EEF0E0808181608083E8ED8B
:1049C000F0E080818F77808319BCA7EDB0E08C91F7
:1049D0008E7F8C9380818F7E808310924003089518
:1049E0000F931F93CF93DF930E9445250E944D257F
:1049F000C8EDD0E088818F7788838881806888833C
:104A000088818F7D888319BC1092410310923D03E9
:104A100010923F0310923E0300EE10E0F8018081F7
:104A20008B7F808388818160888342E060E080E0C2
:104A30000E945224E1EEF0E080818E7F8083E2EEDE
:104A4000F0E0808181608083808188608083F801CC
:104A500080818E7F8083888180618883DF91CF9180
:104A60001F910F910895E8EDF0E080818F7E8083A3
:104A7000E7EDF0E080818160808384E082BF81E0A7
:104A8000809340030E94F0240895E8EDF0E08081D7
:104A90008E7F80831092E20008951092DA001092C7
:104AA000E10008951F920F920FB60F9211242F93D9
:104AB0003F934F935F936F937F938F939F93AF93A6
:104AC000BF93EF93FF938091E10082FF0BC0809131
:104AD000E20082FF07C08091E1008B7F8093E100BC
:104AE0000E94B1278091DA0080FF19C08091D80020
:104AF00080FF15C08091DA008E7F8093DA0080916C
:104B0000D90080FF96C080E189BD82E189BD09B4EA
:104B100000FEFDCF81E0809341030E9497218091A8
:104B2000E10080FF19C08091E20080FF15C08091F4
:104B3000E2008E7F8093E2008091E20080618093AA
:104B4000E2008091D80080628093D80019BC85E093
:104B5000809341030E94AB218091E10084FF2BC030
:104B60008091E20084FF27C080E189BD82E189BD98
:104B700089B5982F917080FFFBCF8091D8008F7DF1
:104B80008093D8008091E1008F7E8093E100809136
:104B9000E2008F7E8093E2008091E200816080934A
:104BA000E20080913D03882309F449C084E08093AA
:104BB00041030E94B4218091E10083FF29C08091CC
:104BC000E20083FF25C08091E100877F8093E100B0
:104BD00082E08093410310923D038091E1008E7F3B
:104BE0008093E1008091E2008E7F8093E2008091CB
:104BF000E20080618093E20042E060E080E00E9499
:104C000052248091F00088608093F0000E94A821D7
:104C1000FF91EF91BF91AF919F918F917F916F9194
:104C20005F914F913F912F910F900FBE0F901F906A
:104C3000189519BC109241030E94A52170CF809154
:104C4000E30087FD93E090934103B3CF1F920F924F
:104C50000FB60F9211242F933F934F935F936F934F
:104C60007F938F939F93AF93BF93CF93DF93EF93F4
:104C7000FF93D091E900DF708091EC00C82FC170E4
:104C800080FDC0E81092E9008091F000877F80935A
:104C9000F00078940E946A261092E9008091F0005A
:104CA00088608093F000CD2BCF70C093E900FF9116
:104CB000EF91DF91CF91BF91AF919F918F917F91B4
:104CC0006F915F914F913F912F910F900FBE0F9079
:104CD0001F901895AAE2B0E0E0E7F6E20C946B288A
:104CE00082E493E02091F100FC012193CF01F3E0F5
:104CF0008A349F07B9F70E94D4218091E80083FF8E
:104D00001EC180914203909143039A3008F017C16D
:104D1000E92FF0E0E15FF64D0C942528803899F0FA
:104D2000823809F00CC1809146038F70873008F0FB
:104D300006C18093E9008091EB0085FB882780F90C
:104D40001092E90006C080913E0390913F039111BB
:104D500082609091E800977F9093E8008093F10043
:104D60001092F1008091E8008E77E5C0882309F465
:104D7000D3C0823009F0E3C0809144038111D6C0D2
:104D8000809146038F702FEF280F263008F0D7C090
:104D90008093E9002091EB0020FFC8C0933031F4EC
:104DA0008091EB0080628093EB00C0C09091EB009B
:104DB00090619093EB0021E030E001C0220F8A95D2
:104DC000EAF72093EA001092EA008091EB008860F5
:104DD000EACF8111B4C0109144031F778091E300A2
:104DE0008078812B8093E3008091E800877F809317
:104DF000E8000E9486248091E80080FFFCCF80912B
:104E0000E30080688093E30082E0111183E08093E7
:104E1000410395C08058823008F091C080914403CE
:104E2000909145038C3D23E09207A1F583E08A83AE
:104E30008AE289834FB7F894DE01139620E03EE0C2
:104E400051E2E32FF0E050935700E49120FF03C0BC
:104E5000E295EF703F5FEF708E2F90E0EA30C0F088
:104E6000C7968D939D932F5F243159F74FBF809143
:104E7000E800877F8093E8006AE270E0CE01019647
:104E80000E9495238091E8008B778093E80057C0BB
:104E9000C096E7CF6091460370914703AE014F5F24
:104EA0005F4F0E94D522BC01892B09F448C0909124
:104EB000E800977F9093E80089819A810E94F3230C
:104EC000E1CF8038E1F58091E800877F8093E800AA
:104ED00080913D038093F10045CF811130C09091C6
:104EE0004403923060F58091E800877F8093E8006A
:104EF00090933D030E94862480913D03882311F006
:104F000084E005C08091E30087FDFACF81E08093C3
:104F100041030E94BF2113C080914403813079F482
:104F200081E0933009F080E080933F031092E90024
:104F30008091E800877F8093E8000E94862480911A
:104F4000E80083FF0AC08091E800877F8093E80033
:104F50008091EB0080628093EB00AA96E3E00C94D2
:104F600087280895CF93809141038823A1F0C091B1
:104F7000E900CF709091EC00892F817090FD80E85E
:104F8000C82B1092E9008091E80083FD0E946A26F8
:104F9000CF70C093E900CF91089587FB082E0626B5
:104FA00087FD819567FD61950E9493280EF4919588
:104FB00007FC81950895AA1BBB1B51E107C0AA1FDE
:104FC000BB1FA617B70710F0A61BB70B881F991FAA
:104FD0005A95A9F780959095BC01CD01089597FB4E
:104FE000072E16F4009407D077FD09D00E94DB2726
:104FF00007FC05D03EF4909581959F4F08957095DC
:1050000061957F4F0895A1E21A2EAA1BBB1BFD01DB
:105010000DC0AA1FBB1FEE1FFF1FA217B307E40797
:10502000F50720F0A21BB30BE40BF50B661F771FEF
:10503000881F991F1A9469F76095709580959095CF
:105040009B01AC01BD01CF010895EE0FFF1F05903C
:10505000F491E02D09940E943328332312F48A1B23
:105060009B0B0C944428A29FB001B39FC001A39F47
:10507000700D811D1124911DB29F700D811D112491
:10508000911D08950E943328B7FF0895821B930B4A
:1050900008950E943328A59F900DB49F900DA49F62
:1050A000800D911D11240895B7FF0C9449280E948A
:1050B0004928821B930B08952F923F924F925F9243
:1050C0006F927F928F929F92AF92BF92CF92DF9218
:1050D000EF92FF920F931F93CF93DF93CDB7DEB77D
:1050E000CA1BDB0B0FB6F894DEBF0FBECDBF099411
:1050F0002A88398848885F846E847D848C849B8468
:10510000AA84B984C884DF80EE80FD800C811B8175
:10511000AA81B981CE0FD11D0FB6F894DEBF0FBEA4
:10512000CDBFED010895991B79E004C0991F961732
:1051300008F0961B881F7A95C9F780950895FC01A1
:105140004150504030F001900616D1F73197CF0111
:105150000895882799270895FB01DC0104C08D91EB
:105160000190801921F441505040C8F7881B990BD9
:105170000895F999FECF92BD81BDF89A992780B51F
:105180000895A6E1B0E044E050E00C94F328A8E1D3
:10519000B0E042E050E00C94F328262FF999FECFBE
:1051A00092BD81BDF89A019700B4021639F01FBA7A
:1051B00020BD0FB6F894FA9AF99A0FBE0895039697
:1051C000272F0E94CE280E94CD28252F0E94CE286E
:1051D000242F0C94CE280196272F0E94CE280C94C1
:1051E000CD28DC01CB01FC01F999FECF06C0F2BD50
:1051F000E1BDF89A319600B40D9241505040B8F795
:105200000895F894FFCF94059405C505C505520689
:105210006E06F405F40579060507140714078E26B3
:10522000B6269F27B6269F27E9260A279F276127AC
:025230006D27E8
:105232005E02280850011E0A140101010200140036
:10524200141401191A1B1C1D1E1F202122FD2022CD
:1052520021012192218D21002101E200E900EA00D1
:10526200B500B600B700CD008301CC008A019201DF
:1052720094012102230224022502260227022A0285
:10528200B300B4006F007000818283E200E900EA9B
:1052920000B500B600B700CD008301CC008A0192B0
:1052A2000194012102230224022502260227022A56
:1052B20002B300B4006F00700081828395939291D3
:1052C20090F0F1C63534979694F4F5F637333231CF
:1052D200300001020202020606060909090909094B
:1052E2000F0F0F0F0F0F1515151819191919191975
:0652F2001919191923240B
:00000001FF
